{
	"compilerInput": "{\"language\":\"Solidity\",\"sources\":{\"contracts/ERC721ESUpgradeable.sol\":{\"content\":\"// SPDX-License-Identifier: MIT\\npragma solidity ^0.8.23;\\n\\nimport \\\"@openzeppelin/contracts-upgradeable@5.0.0/proxy/utils/Initializable.sol\\\";\\nimport \\\"@openzeppelin/contracts-upgradeable@5.0.0/token/ERC721/ERC721Upgradeable.sol\\\";\\nimport \\\"@openzeppelin/contracts-upgradeable@5.0.0/access/extensions/AccessControlEnumerableUpgradeable.sol\\\";\\nimport \\\"@openzeppelin/contracts-upgradeable@5.0.0/access/AccessControlUpgradeable.sol\\\";\\nimport \\\"@openzeppelin/contracts-upgradeable@5.0.0/access/OwnableUpgradeable.sol\\\";\\nimport \\\"@openzeppelin/contracts-upgradeable@5.0.0/token/common/ERC2981Upgradeable.sol\\\";\\nimport \\\"@openzeppelin/contracts-upgradeable@5.0.0/token/ERC721/extensions/ERC721BurnableUpgradeable.sol\\\";\\nimport \\\"@openzeppelin/contracts-upgradeable@5.0.0/token/ERC721/extensions/ERC721ConsecutiveUpgradeable.sol\\\";\\nimport \\\"@openzeppelin/contracts-upgradeable@5.0.0/token/ERC721/extensions/ERC721EnumerableUpgradeable.sol\\\";\\nimport \\\"@openzeppelin/contracts-upgradeable@5.0.0/token/ERC721/extensions/ERC721PausableUpgradeable.sol\\\";\\nimport \\\"@openzeppelin/contracts-upgradeable@5.0.0/token/ERC721/extensions/ERC721RoyaltyUpgradeable.sol\\\";\\nimport \\\"@openzeppelin/contracts-upgradeable@5.0.0/token/ERC721/extensions/ERC721URIStorageUpgradeable.sol\\\";\\nimport \\\"@openzeppelin/contracts-upgradeable@5.0.0/token/ERC721/extensions/ERC721WrapperUpgradeable.sol\\\";\\nimport \\\"@openzeppelin/contracts-upgradeable@5.0.0/utils/cryptography/EIP712Upgradeable.sol\\\";\\nimport \\\"@openzeppelin/contracts-upgradeable@5.0.0/utils/introspection/ERC165Upgradeable.sol\\\";\\nimport \\\"@openzeppelin/contracts-upgradeable@5.0.0/utils/ContextUpgradeable.sol\\\";\\nimport \\\"@openzeppelin/contracts-upgradeable@5.0.0/utils/MulticallUpgradeable.sol\\\";\\nimport \\\"@openzeppelin/contracts-upgradeable@5.0.0/utils/NoncesUpgradeable.sol\\\";\\nimport \\\"@openzeppelin/contracts-upgradeable@5.0.0/utils/PausableUpgradeable.sol\\\";\\nimport \\\"@openzeppelin/contracts-upgradeable@5.0.0/utils/ReentrancyGuardUpgradeable.sol\\\";\\nimport \\\"@openzeppelin/contracts-upgradeable@5.0.0/proxy/utils/UUPSUpgradeable.sol\\\";\\n\\n/// @custom:security-contact bedlam520@skiff.com\\ncontract SCUMWalkers is Initializable, UUPSUpgradeable, ERC721Upgradeable, AccessControlEnumerableUpgradeable, OwnableUpgradeable, ERC2981Upgradeable, ERC721BurnableUpgradeable, ERC721ConsecutiveUpgradeable, ERC721EnumerableUpgradeable, ERC721PausableUpgradeable, ERC721URIStorageUpgradeable, EIP712Upgradeable {\\n    uint256 private _nextTokenId;\\n\\n    string private _baseTokenURI;\\n\\n    function setBaseURI(string memory baseURI) external onlyOwner {\\n        _baseTokenURI = baseURI;\\n    }\\n   \\n    /// @custom:oz-upgrades-unsafe-allow constructor\\n    constructor() {\\n        _disableInitializers();\\n    }\\n\\n    function initialize(address initialowner) initializer public {\\n        __ERC721_init(\\\"SCUMWalkers\\\", \\\"SW\\\");\\n        __ERC721Enumerable_init();\\n        __ERC721URIStorage_init();\\n        __ERC721Pausable_init();\\n        __Ownable_init(initialowner);\\n        __UUPSUpgradeable_init();\\n        __EIP712_init(\\\"SCUMWalkers\\\", \\\"1\\\");\\n    }\\n\\n    function pause() public onlyOwner {\\n        _pause();\\n    }\\n\\n    function unpause() public onlyOwner {\\n        _unpause();\\n    }\\n\\nfunction _authorizeUpgrade(address _newImplementation) internal override onlyOwner {}\\n\\n\\n    function safeMint(address to, string memory uri) public onlyOwner {\\n        uint256 tokenId = _nextTokenId++;\\n        _safeMint(to, tokenId);\\n        _setTokenURI(tokenId, uri);\\n    }\\n\\n    function _ownerOf(uint256 tokenId) internal view override(ERC721Upgradeable, ERC721ConsecutiveUpgradeable) returns (address) {\\n    // Add your implementation logic here\\n    return ERC721Upgradeable._ownerOf(tokenId);\\n}\\n\\n    // The following functions are overrides required by Solidity.\\n\\n    function _update(address to, uint256 tokenId, address auth)\\n        internal\\n        override(ERC721ConsecutiveUpgradeable, ERC721EnumerableUpgradeable, ERC721PausableUpgradeable, ERC721Upgradeable)\\n        returns (address)\\n    {\\n        return super._update(to, tokenId, auth);\\n    }\\n\\n    function _increaseBalance(address account, uint128 value)\\n        internal\\n        override(ERC721Upgradeable, ERC721EnumerableUpgradeable)\\n    {\\n        super._increaseBalance(account, value);\\n    }\\n\\n    function _BaseURI() public view returns (string memory) {\\n        return _baseTokenURI;\\n    }\\n    \\n    function tokenURI(uint256 tokenId)\\n        public\\n        view\\n        override(ERC721Upgradeable, ERC721URIStorageUpgradeable)\\n        returns (string memory)\\n    {\\n        return super.tokenURI(tokenId);\\n    }\\n\\n    function supportsInterface(bytes4 interfaceId)\\n        public\\n        view\\n        override(AccessControlEnumerableUpgradeable, ERC2981Upgradeable, ERC721Upgradeable, ERC721EnumerableUpgradeable, ERC721URIStorageUpgradeable)\\n        returns (bool)\\n    {\\n        return super.supportsInterface(interfaceId);\\n    }\\n}\\n\"},\"@openzeppelin/contracts-upgradeable@5.0.0/proxy/utils/UUPSUpgradeable.sol\":{\"content\":\"// SPDX-License-Identifier: MIT\\n// OpenZeppelin Contracts (last updated v5.0.0) (proxy/utils/UUPSUpgradeable.sol)\\n\\npragma solidity ^0.8.20;\\n\\nimport {IERC1822Proxiable} from \\\"@openzeppelin/contracts/interfaces/draft-IERC1822.sol\\\";\\nimport {ERC1967Utils} from \\\"@openzeppelin/contracts/proxy/ERC1967/ERC1967Utils.sol\\\";\\nimport {Initializable} from \\\"./Initializable.sol\\\";\\n\\n/**\\n * @dev An upgradeability mechanism designed for UUPS proxies. The functions included here can perform an upgrade of an\\n * {ERC1967Proxy}, when this contract is set as the implementation behind such a proxy.\\n *\\n * A security mechanism ensures that an upgrade does not turn off upgradeability accidentally, although this risk is\\n * reinstated if the upgrade retains upgradeability but removes the security mechanism, e.g. by replacing\\n * `UUPSUpgradeable` with a custom implementation of upgrades.\\n *\\n * The {_authorizeUpgrade} function must be overridden to include access restriction to the upgrade mechanism.\\n */\\nabstract contract UUPSUpgradeable is Initializable, IERC1822Proxiable {\\n    /// @custom:oz-upgrades-unsafe-allow state-variable-immutable\\n    address private immutable __self = address(this);\\n\\n    /**\\n     * @dev The version of the upgrade interface of the contract. If this getter is missing, both `upgradeTo(address)`\\n     * and `upgradeToAndCall(address,bytes)` are present, and `upgradeTo` must be used if no function should be called,\\n     * while `upgradeToAndCall` will invoke the `receive` function if the second argument is the empty byte string.\\n     * If the getter returns `\\\"5.0.0\\\"`, only `upgradeToAndCall(address,bytes)` is present, and the second argument must\\n     * be the empty byte string if no function should be called, making it impossible to invoke the `receive` function\\n     * during an upgrade.\\n     */\\n    string public constant UPGRADE_INTERFACE_VERSION = \\\"5.0.0\\\";\\n\\n    /**\\n     * @dev The call is from an unauthorized context.\\n     */\\n    error UUPSUnauthorizedCallContext();\\n\\n    /**\\n     * @dev The storage `slot` is unsupported as a UUID.\\n     */\\n    error UUPSUnsupportedProxiableUUID(bytes32 slot);\\n\\n    /**\\n     * @dev Check that the execution is being performed through a delegatecall call and that the execution context is\\n     * a proxy contract with an implementation (as defined in ERC1967) pointing to self. This should only be the case\\n     * for UUPS and transparent proxies that are using the current contract as their implementation. Execution of a\\n     * function through ERC1167 minimal proxies (clones) would not normally pass this test, but is not guaranteed to\\n     * fail.\\n     */\\n    modifier onlyProxy() {\\n        _checkProxy();\\n        _;\\n    }\\n\\n    /**\\n     * @dev Check that the execution is not being performed through a delegate call. This allows a function to be\\n     * callable on the implementing contract but not through proxies.\\n     */\\n    modifier notDelegated() {\\n        _checkNotDelegated();\\n        _;\\n    }\\n\\n    function __UUPSUpgradeable_init() internal onlyInitializing {\\n    }\\n\\n    function __UUPSUpgradeable_init_unchained() internal onlyInitializing {\\n    }\\n    /**\\n     * @dev Implementation of the ERC1822 {proxiableUUID} function. This returns the storage slot used by the\\n     * implementation. It is used to validate the implementation's compatibility when performing an upgrade.\\n     *\\n     * IMPORTANT: A proxy pointing at a proxiable contract should not be considered proxiable itself, because this risks\\n     * bricking a proxy that upgrades to it, by delegating to itself until out of gas. Thus it is critical that this\\n     * function revert if invoked through a proxy. This is guaranteed by the `notDelegated` modifier.\\n     */\\n    function proxiableUUID() external view virtual notDelegated returns (bytes32) {\\n        return ERC1967Utils.IMPLEMENTATION_SLOT;\\n    }\\n\\n    /**\\n     * @dev Upgrade the implementation of the proxy to `newImplementation`, and subsequently execute the function call\\n     * encoded in `data`.\\n     *\\n     * Calls {_authorizeUpgrade}.\\n     *\\n     * Emits an {Upgraded} event.\\n     *\\n     * @custom:oz-upgrades-unsafe-allow-reachable delegatecall\\n     */\\n    function upgradeToAndCall(address newImplementation, bytes memory data) public payable virtual onlyProxy {\\n        _authorizeUpgrade(newImplementation);\\n        _upgradeToAndCallUUPS(newImplementation, data);\\n    }\\n\\n    /**\\n     * @dev Reverts if the execution is not performed via delegatecall or the execution\\n     * context is not of a proxy with an ERC1967-compliant implementation pointing to self.\\n     * See {_onlyProxy}.\\n     */\\n    function _checkProxy() internal view virtual {\\n        if (\\n            address(this) == __self || // Must be called through delegatecall\\n            ERC1967Utils.getImplementation() != __self // Must be called through an active proxy\\n        ) {\\n            revert UUPSUnauthorizedCallContext();\\n        }\\n    }\\n\\n    /**\\n     * @dev Reverts if the execution is performed via delegatecall.\\n     * See {notDelegated}.\\n     */\\n    function _checkNotDelegated() internal view virtual {\\n        if (address(this) != __self) {\\n            // Must not be called through delegatecall\\n            revert UUPSUnauthorizedCallContext();\\n        }\\n    }\\n\\n    /**\\n     * @dev Function that should revert when `msg.sender` is not authorized to upgrade the contract. Called by\\n     * {upgradeToAndCall}.\\n     *\\n     * Normally, this function will use an xref:access.adoc[access control] modifier such as {Ownable-onlyOwner}.\\n     *\\n     * ```solidity\\n     * function _authorizeUpgrade(address) internal onlyOwner {}\\n     * ```\\n     */\\n    function _authorizeUpgrade(address newImplementation) internal virtual;\\n\\n    /**\\n     * @dev Performs an implementation upgrade with a security check for UUPS proxies, and additional setup call.\\n     *\\n     * As a security check, {proxiableUUID} is invoked in the new implementation, and the return value\\n     * is expected to be the implementation slot in ERC1967.\\n     *\\n     * Emits an {IERC1967-Upgraded} event.\\n     */\\n    function _upgradeToAndCallUUPS(address newImplementation, bytes memory data) private {\\n        try IERC1822Proxiable(newImplementation).proxiableUUID() returns (bytes32 slot) {\\n            if (slot != ERC1967Utils.IMPLEMENTATION_SLOT) {\\n                revert UUPSUnsupportedProxiableUUID(slot);\\n            }\\n            ERC1967Utils.upgradeToAndCall(newImplementation, data);\\n        } catch {\\n            // The implementation is not UUPS\\n            revert ERC1967Utils.ERC1967InvalidImplementation(newImplementation);\\n        }\\n    }\\n}\\n\"},\"@openzeppelin/contracts-upgradeable@5.0.0/utils/ReentrancyGuardUpgradeable.sol\":{\"content\":\"// SPDX-License-Identifier: MIT\\n// OpenZeppelin Contracts (last updated v5.0.0) (utils/ReentrancyGuard.sol)\\n\\npragma solidity ^0.8.20;\\nimport {Initializable} from \\\"../proxy/utils/Initializable.sol\\\";\\n\\n/**\\n * @dev Contract module that helps prevent reentrant calls to a function.\\n *\\n * Inheriting from `ReentrancyGuard` will make the {nonReentrant} modifier\\n * available, which can be applied to functions to make sure there are no nested\\n * (reentrant) calls to them.\\n *\\n * Note that because there is a single `nonReentrant` guard, functions marked as\\n * `nonReentrant` may not call one another. This can be worked around by making\\n * those functions `private`, and then adding `external` `nonReentrant` entry\\n * points to them.\\n *\\n * TIP: If you would like to learn more about reentrancy and alternative ways\\n * to protect against it, check out our blog post\\n * https://blog.openzeppelin.com/reentrancy-after-istanbul/[Reentrancy After Istanbul].\\n */\\nabstract contract ReentrancyGuardUpgradeable is Initializable {\\n    // Booleans are more expensive than uint256 or any type that takes up a full\\n    // word because each write operation emits an extra SLOAD to first read the\\n    // slot's contents, replace the bits taken up by the boolean, and then write\\n    // back. This is the compiler's defense against contract upgrades and\\n    // pointer aliasing, and it cannot be disabled.\\n\\n    // The values being non-zero value makes deployment a bit more expensive,\\n    // but in exchange the refund on every call to nonReentrant will be lower in\\n    // amount. Since refunds are capped to a percentage of the total\\n    // transaction's gas, it is best to keep them low in cases like this one, to\\n    // increase the likelihood of the full refund coming into effect.\\n    uint256 private constant NOT_ENTERED = 1;\\n    uint256 private constant ENTERED = 2;\\n\\n    /// @custom:storage-location erc7201:openzeppelin.storage.ReentrancyGuard\\n    struct ReentrancyGuardStorage {\\n        uint256 _status;\\n    }\\n\\n    // keccak256(abi.encode(uint256(keccak256(\\\"openzeppelin.storage.ReentrancyGuard\\\")) - 1)) & ~bytes32(uint256(0xff))\\n    bytes32 private constant ReentrancyGuardStorageLocation = 0x9b779b17422d0df92223018b32b4d1fa46e071723d6817e2486d003becc55f00;\\n\\n    function _getReentrancyGuardStorage() private pure returns (ReentrancyGuardStorage storage $) {\\n        assembly {\\n            $.slot := ReentrancyGuardStorageLocation\\n        }\\n    }\\n\\n    /**\\n     * @dev Unauthorized reentrant call.\\n     */\\n    error ReentrancyGuardReentrantCall();\\n\\n    function __ReentrancyGuard_init() internal onlyInitializing {\\n        __ReentrancyGuard_init_unchained();\\n    }\\n\\n    function __ReentrancyGuard_init_unchained() internal onlyInitializing {\\n        ReentrancyGuardStorage storage $ = _getReentrancyGuardStorage();\\n        $._status = NOT_ENTERED;\\n    }\\n\\n    /**\\n     * @dev Prevents a contract from calling itself, directly or indirectly.\\n     * Calling a `nonReentrant` function from another `nonReentrant`\\n     * function is not supported. It is possible to prevent this from happening\\n     * by making the `nonReentrant` function external, and making it call a\\n     * `private` function that does the actual work.\\n     */\\n    modifier nonReentrant() {\\n        _nonReentrantBefore();\\n        _;\\n        _nonReentrantAfter();\\n    }\\n\\n    function _nonReentrantBefore() private {\\n        ReentrancyGuardStorage storage $ = _getReentrancyGuardStorage();\\n        // On the first call to nonReentrant, _status will be NOT_ENTERED\\n        if ($._status == ENTERED) {\\n            revert ReentrancyGuardReentrantCall();\\n        }\\n\\n        // Any calls to nonReentrant after this point will fail\\n        $._status = ENTERED;\\n    }\\n\\n    function _nonReentrantAfter() private {\\n        ReentrancyGuardStorage storage $ = _getReentrancyGuardStorage();\\n        // By storing the original value once again, a refund is triggered (see\\n        // https://eips.ethereum.org/EIPS/eip-2200)\\n        $._status = NOT_ENTERED;\\n    }\\n\\n    /**\\n     * @dev Returns true if the reentrancy guard is currently set to \\\"entered\\\", which indicates there is a\\n     * `nonReentrant` function in the call stack.\\n     */\\n    function _reentrancyGuardEntered() internal view returns (bool) {\\n        ReentrancyGuardStorage storage $ = _getReentrancyGuardStorage();\\n        return $._status == ENTERED;\\n    }\\n}\\n\"},\"@openzeppelin/contracts-upgradeable@5.0.0/utils/PausableUpgradeable.sol\":{\"content\":\"// SPDX-License-Identifier: MIT\\n// OpenZeppelin Contracts (last updated v5.0.0) (utils/Pausable.sol)\\n\\npragma solidity ^0.8.20;\\n\\nimport {ContextUpgradeable} from \\\"../utils/ContextUpgradeable.sol\\\";\\nimport {Initializable} from \\\"../proxy/utils/Initializable.sol\\\";\\n\\n/**\\n * @dev Contract module which allows children to implement an emergency stop\\n * mechanism that can be triggered by an authorized account.\\n *\\n * This module is used through inheritance. It will make available the\\n * modifiers `whenNotPaused` and `whenPaused`, which can be applied to\\n * the functions of your contract. Note that they will not be pausable by\\n * simply including this module, only once the modifiers are put in place.\\n */\\nabstract contract PausableUpgradeable is Initializable, ContextUpgradeable {\\n    /// @custom:storage-location erc7201:openzeppelin.storage.Pausable\\n    struct PausableStorage {\\n        bool _paused;\\n    }\\n\\n    // keccak256(abi.encode(uint256(keccak256(\\\"openzeppelin.storage.Pausable\\\")) - 1)) & ~bytes32(uint256(0xff))\\n    bytes32 private constant PausableStorageLocation = 0xcd5ed15c6e187e77e9aee88184c21f4f2182ab5827cb3b7e07fbedcd63f03300;\\n\\n    function _getPausableStorage() private pure returns (PausableStorage storage $) {\\n        assembly {\\n            $.slot := PausableStorageLocation\\n        }\\n    }\\n\\n    /**\\n     * @dev Emitted when the pause is triggered by `account`.\\n     */\\n    event Paused(address account);\\n\\n    /**\\n     * @dev Emitted when the pause is lifted by `account`.\\n     */\\n    event Unpaused(address account);\\n\\n    /**\\n     * @dev The operation failed because the contract is paused.\\n     */\\n    error EnforcedPause();\\n\\n    /**\\n     * @dev The operation failed because the contract is not paused.\\n     */\\n    error ExpectedPause();\\n\\n    /**\\n     * @dev Initializes the contract in unpaused state.\\n     */\\n    function __Pausable_init() internal onlyInitializing {\\n        __Pausable_init_unchained();\\n    }\\n\\n    function __Pausable_init_unchained() internal onlyInitializing {\\n        PausableStorage storage $ = _getPausableStorage();\\n        $._paused = false;\\n    }\\n\\n    /**\\n     * @dev Modifier to make a function callable only when the contract is not paused.\\n     *\\n     * Requirements:\\n     *\\n     * - The contract must not be paused.\\n     */\\n    modifier whenNotPaused() {\\n        _requireNotPaused();\\n        _;\\n    }\\n\\n    /**\\n     * @dev Modifier to make a function callable only when the contract is paused.\\n     *\\n     * Requirements:\\n     *\\n     * - The contract must be paused.\\n     */\\n    modifier whenPaused() {\\n        _requirePaused();\\n        _;\\n    }\\n\\n    /**\\n     * @dev Returns true if the contract is paused, and false otherwise.\\n     */\\n    function paused() public view virtual returns (bool) {\\n        PausableStorage storage $ = _getPausableStorage();\\n        return $._paused;\\n    }\\n\\n    /**\\n     * @dev Throws if the contract is paused.\\n     */\\n    function _requireNotPaused() internal view virtual {\\n        if (paused()) {\\n            revert EnforcedPause();\\n        }\\n    }\\n\\n    /**\\n     * @dev Throws if the contract is not paused.\\n     */\\n    function _requirePaused() internal view virtual {\\n        if (!paused()) {\\n            revert ExpectedPause();\\n        }\\n    }\\n\\n    /**\\n     * @dev Triggers stopped state.\\n     *\\n     * Requirements:\\n     *\\n     * - The contract must not be paused.\\n     */\\n    function _pause() internal virtual whenNotPaused {\\n        PausableStorage storage $ = _getPausableStorage();\\n        $._paused = true;\\n        emit Paused(_msgSender());\\n    }\\n\\n    /**\\n     * @dev Returns to normal state.\\n     *\\n     * Requirements:\\n     *\\n     * - The contract must be paused.\\n     */\\n    function _unpause() internal virtual whenPaused {\\n        PausableStorage storage $ = _getPausableStorage();\\n        $._paused = false;\\n        emit Unpaused(_msgSender());\\n    }\\n}\\n\"},\"@openzeppelin/contracts-upgradeable@5.0.0/utils/NoncesUpgradeable.sol\":{\"content\":\"// SPDX-License-Identifier: MIT\\n// OpenZeppelin Contracts (last updated v5.0.0) (utils/Nonces.sol)\\npragma solidity ^0.8.20;\\nimport {Initializable} from \\\"../proxy/utils/Initializable.sol\\\";\\n\\n/**\\n * @dev Provides tracking nonces for addresses. Nonces will only increment.\\n */\\nabstract contract NoncesUpgradeable is Initializable {\\n    /**\\n     * @dev The nonce used for an `account` is not the expected current nonce.\\n     */\\n    error InvalidAccountNonce(address account, uint256 currentNonce);\\n\\n    /// @custom:storage-location erc7201:openzeppelin.storage.Nonces\\n    struct NoncesStorage {\\n        mapping(address account => uint256) _nonces;\\n    }\\n\\n    // keccak256(abi.encode(uint256(keccak256(\\\"openzeppelin.storage.Nonces\\\")) - 1)) & ~bytes32(uint256(0xff))\\n    bytes32 private constant NoncesStorageLocation = 0x5ab42ced628888259c08ac98db1eb0cf702fc1501344311d8b100cd1bfe4bb00;\\n\\n    function _getNoncesStorage() private pure returns (NoncesStorage storage $) {\\n        assembly {\\n            $.slot := NoncesStorageLocation\\n        }\\n    }\\n\\n    function __Nonces_init() internal onlyInitializing {\\n    }\\n\\n    function __Nonces_init_unchained() internal onlyInitializing {\\n    }\\n    /**\\n     * @dev Returns the next unused nonce for an address.\\n     */\\n    function nonces(address owner) public view virtual returns (uint256) {\\n        NoncesStorage storage $ = _getNoncesStorage();\\n        return $._nonces[owner];\\n    }\\n\\n    /**\\n     * @dev Consumes a nonce.\\n     *\\n     * Returns the current value and increments nonce.\\n     */\\n    function _useNonce(address owner) internal virtual returns (uint256) {\\n        NoncesStorage storage $ = _getNoncesStorage();\\n        // For each account, the nonce has an initial value of 0, can only be incremented by one, and cannot be\\n        // decremented or reset. This guarantees that the nonce never overflows.\\n        unchecked {\\n            // It is important to do x++ and not ++x here.\\n            return $._nonces[owner]++;\\n        }\\n    }\\n\\n    /**\\n     * @dev Same as {_useNonce} but checking that `nonce` is the next valid for `owner`.\\n     */\\n    function _useCheckedNonce(address owner, uint256 nonce) internal virtual {\\n        uint256 current = _useNonce(owner);\\n        if (nonce != current) {\\n            revert InvalidAccountNonce(owner, current);\\n        }\\n    }\\n}\\n\"},\"@openzeppelin/contracts-upgradeable@5.0.0/utils/MulticallUpgradeable.sol\":{\"content\":\"// SPDX-License-Identifier: MIT\\n// OpenZeppelin Contracts (last updated v5.0.0) (utils/Multicall.sol)\\n\\npragma solidity ^0.8.20;\\n\\nimport {Address} from \\\"@openzeppelin/contracts/utils/Address.sol\\\";\\nimport {Initializable} from \\\"../proxy/utils/Initializable.sol\\\";\\n\\n/**\\n * @dev Provides a function to batch together multiple calls in a single external call.\\n */\\nabstract contract MulticallUpgradeable is Initializable {\\n    function __Multicall_init() internal onlyInitializing {\\n    }\\n\\n    function __Multicall_init_unchained() internal onlyInitializing {\\n    }\\n    /**\\n     * @dev Receives and executes a batch of function calls on this contract.\\n     * @custom:oz-upgrades-unsafe-allow-reachable delegatecall\\n     */\\n    function multicall(bytes[] calldata data) external virtual returns (bytes[] memory results) {\\n        results = new bytes[](data.length);\\n        for (uint256 i = 0; i < data.length; i++) {\\n            results[i] = Address.functionDelegateCall(address(this), data[i]);\\n        }\\n        return results;\\n    }\\n}\\n\"},\"@openzeppelin/contracts-upgradeable@5.0.0/utils/ContextUpgradeable.sol\":{\"content\":\"// SPDX-License-Identifier: MIT\\n// OpenZeppelin Contracts (last updated v5.0.0) (utils/Context.sol)\\n\\npragma solidity ^0.8.20;\\nimport {Initializable} from \\\"../proxy/utils/Initializable.sol\\\";\\n\\n/**\\n * @dev Provides information about the current execution context, including the\\n * sender of the transaction and its data. While these are generally available\\n * via msg.sender and msg.data, they should not be accessed in such a direct\\n * manner, since when dealing with meta-transactions the account sending and\\n * paying for execution may not be the actual sender (as far as an application\\n * is concerned).\\n *\\n * This contract is only required for intermediate, library-like contracts.\\n */\\nabstract contract ContextUpgradeable is Initializable {\\n    function __Context_init() internal onlyInitializing {\\n    }\\n\\n    function __Context_init_unchained() internal onlyInitializing {\\n    }\\n    function _msgSender() internal view virtual returns (address) {\\n        return msg.sender;\\n    }\\n\\n    function _msgData() internal view virtual returns (bytes calldata) {\\n        return msg.data;\\n    }\\n}\\n\"},\"@openzeppelin/contracts-upgradeable@5.0.0/utils/introspection/ERC165Upgradeable.sol\":{\"content\":\"// SPDX-License-Identifier: MIT\\n// OpenZeppelin Contracts (last updated v5.0.0) (utils/introspection/ERC165.sol)\\n\\npragma solidity ^0.8.20;\\n\\nimport {IERC165} from \\\"@openzeppelin/contracts/utils/introspection/IERC165.sol\\\";\\nimport {Initializable} from \\\"../../proxy/utils/Initializable.sol\\\";\\n\\n/**\\n * @dev Implementation of the {IERC165} interface.\\n *\\n * Contracts that want to implement ERC165 should inherit from this contract and override {supportsInterface} to check\\n * for the additional interface id that will be supported. For example:\\n *\\n * ```solidity\\n * function supportsInterface(bytes4 interfaceId) public view virtual override returns (bool) {\\n *     return interfaceId == type(MyInterface).interfaceId || super.supportsInterface(interfaceId);\\n * }\\n * ```\\n */\\nabstract contract ERC165Upgradeable is Initializable, IERC165 {\\n    function __ERC165_init() internal onlyInitializing {\\n    }\\n\\n    function __ERC165_init_unchained() internal onlyInitializing {\\n    }\\n    /**\\n     * @dev See {IERC165-supportsInterface}.\\n     */\\n    function supportsInterface(bytes4 interfaceId) public view virtual returns (bool) {\\n        return interfaceId == type(IERC165).interfaceId;\\n    }\\n}\\n\"},\"@openzeppelin/contracts-upgradeable@5.0.0/utils/cryptography/EIP712Upgradeable.sol\":{\"content\":\"// SPDX-License-Identifier: MIT\\n// OpenZeppelin Contracts (last updated v5.0.0) (utils/cryptography/EIP712.sol)\\n\\npragma solidity ^0.8.20;\\n\\nimport {MessageHashUtils} from \\\"@openzeppelin/contracts/utils/cryptography/MessageHashUtils.sol\\\";\\nimport {IERC5267} from \\\"@openzeppelin/contracts/interfaces/IERC5267.sol\\\";\\nimport {Initializable} from \\\"../../proxy/utils/Initializable.sol\\\";\\n\\n/**\\n * @dev https://eips.ethereum.org/EIPS/eip-712[EIP 712] is a standard for hashing and signing of typed structured data.\\n *\\n * The encoding scheme specified in the EIP requires a domain separator and a hash of the typed structured data, whose\\n * encoding is very generic and therefore its implementation in Solidity is not feasible, thus this contract\\n * does not implement the encoding itself. Protocols need to implement the type-specific encoding they need in order to\\n * produce the hash of their typed data using a combination of `abi.encode` and `keccak256`.\\n *\\n * This contract implements the EIP 712 domain separator ({_domainSeparatorV4}) that is used as part of the encoding\\n * scheme, and the final step of the encoding to obtain the message digest that is then signed via ECDSA\\n * ({_hashTypedDataV4}).\\n *\\n * The implementation of the domain separator was designed to be as efficient as possible while still properly updating\\n * the chain id to protect against replay attacks on an eventual fork of the chain.\\n *\\n * NOTE: This contract implements the version of the encoding known as \\\"v4\\\", as implemented by the JSON RPC method\\n * https://docs.metamask.io/guide/signing-data.html[`eth_signTypedDataV4` in MetaMask].\\n *\\n * NOTE: In the upgradeable version of this contract, the cached values will correspond to the address, and the domain\\n * separator of the implementation contract. This will cause the {_domainSeparatorV4} function to always rebuild the\\n * separator from the immutable values, which is cheaper than accessing a cached version in cold storage.\\n */\\nabstract contract EIP712Upgradeable is Initializable, IERC5267 {\\n    bytes32 private constant TYPE_HASH =\\n        keccak256(\\\"EIP712Domain(string name,string version,uint256 chainId,address verifyingContract)\\\");\\n\\n    /// @custom:storage-location erc7201:openzeppelin.storage.EIP712\\n    struct EIP712Storage {\\n        /// @custom:oz-renamed-from _HASHED_NAME\\n        bytes32 _hashedName;\\n        /// @custom:oz-renamed-from _HASHED_VERSION\\n        bytes32 _hashedVersion;\\n\\n        string _name;\\n        string _version;\\n    }\\n\\n    // keccak256(abi.encode(uint256(keccak256(\\\"openzeppelin.storage.EIP712\\\")) - 1)) & ~bytes32(uint256(0xff))\\n    bytes32 private constant EIP712StorageLocation = 0xa16a46d94261c7517cc8ff89f61c0ce93598e3c849801011dee649a6a557d100;\\n\\n    function _getEIP712Storage() private pure returns (EIP712Storage storage $) {\\n        assembly {\\n            $.slot := EIP712StorageLocation\\n        }\\n    }\\n\\n    /**\\n     * @dev Initializes the domain separator and parameter caches.\\n     *\\n     * The meaning of `name` and `version` is specified in\\n     * https://eips.ethereum.org/EIPS/eip-712#definition-of-domainseparator[EIP 712]:\\n     *\\n     * - `name`: the user readable name of the signing domain, i.e. the name of the DApp or the protocol.\\n     * - `version`: the current major version of the signing domain.\\n     *\\n     * NOTE: These parameters cannot be changed except through a xref:learn::upgrading-smart-contracts.adoc[smart\\n     * contract upgrade].\\n     */\\n    function __EIP712_init(string memory name, string memory version) internal onlyInitializing {\\n        __EIP712_init_unchained(name, version);\\n    }\\n\\n    function __EIP712_init_unchained(string memory name, string memory version) internal onlyInitializing {\\n        EIP712Storage storage $ = _getEIP712Storage();\\n        $._name = name;\\n        $._version = version;\\n\\n        // Reset prior values in storage if upgrading\\n        $._hashedName = 0;\\n        $._hashedVersion = 0;\\n    }\\n\\n    /**\\n     * @dev Returns the domain separator for the current chain.\\n     */\\n    function _domainSeparatorV4() internal view returns (bytes32) {\\n        return _buildDomainSeparator();\\n    }\\n\\n    function _buildDomainSeparator() private view returns (bytes32) {\\n        return keccak256(abi.encode(TYPE_HASH, _EIP712NameHash(), _EIP712VersionHash(), block.chainid, address(this)));\\n    }\\n\\n    /**\\n     * @dev Given an already https://eips.ethereum.org/EIPS/eip-712#definition-of-hashstruct[hashed struct], this\\n     * function returns the hash of the fully encoded EIP712 message for this domain.\\n     *\\n     * This hash can be used together with {ECDSA-recover} to obtain the signer of a message. For example:\\n     *\\n     * ```solidity\\n     * bytes32 digest = _hashTypedDataV4(keccak256(abi.encode(\\n     *     keccak256(\\\"Mail(address to,string contents)\\\"),\\n     *     mailTo,\\n     *     keccak256(bytes(mailContents))\\n     * )));\\n     * address signer = ECDSA.recover(digest, signature);\\n     * ```\\n     */\\n    function _hashTypedDataV4(bytes32 structHash) internal view virtual returns (bytes32) {\\n        return MessageHashUtils.toTypedDataHash(_domainSeparatorV4(), structHash);\\n    }\\n\\n    /**\\n     * @dev See {IERC-5267}.\\n     */\\n    function eip712Domain()\\n        public\\n        view\\n        virtual\\n        returns (\\n            bytes1 fields,\\n            string memory name,\\n            string memory version,\\n            uint256 chainId,\\n            address verifyingContract,\\n            bytes32 salt,\\n            uint256[] memory extensions\\n        )\\n    {\\n        EIP712Storage storage $ = _getEIP712Storage();\\n        // If the hashed name and version in storage are non-zero, the contract hasn't been properly initialized\\n        // and the EIP712 domain is not reliable, as it will be missing name and version.\\n        require($._hashedName == 0 && $._hashedVersion == 0, \\\"EIP712: Uninitialized\\\");\\n\\n        return (\\n            hex\\\"0f\\\", // 01111\\n            _EIP712Name(),\\n            _EIP712Version(),\\n            block.chainid,\\n            address(this),\\n            bytes32(0),\\n            new uint256[](0)\\n        );\\n    }\\n\\n    /**\\n     * @dev The name parameter for the EIP712 domain.\\n     *\\n     * NOTE: This function reads from storage by default, but can be redefined to return a constant value if gas costs\\n     * are a concern.\\n     */\\n    function _EIP712Name() internal view virtual returns (string memory) {\\n        EIP712Storage storage $ = _getEIP712Storage();\\n        return $._name;\\n    }\\n\\n    /**\\n     * @dev The version parameter for the EIP712 domain.\\n     *\\n     * NOTE: This function reads from storage by default, but can be redefined to return a constant value if gas costs\\n     * are a concern.\\n     */\\n    function _EIP712Version() internal view virtual returns (string memory) {\\n        EIP712Storage storage $ = _getEIP712Storage();\\n        return $._version;\\n    }\\n\\n    /**\\n     * @dev The hash of the name parameter for the EIP712 domain.\\n     *\\n     * NOTE: In previous versions this function was virtual. In this version you should override `_EIP712Name` instead.\\n     */\\n    function _EIP712NameHash() internal view returns (bytes32) {\\n        EIP712Storage storage $ = _getEIP712Storage();\\n        string memory name = _EIP712Name();\\n        if (bytes(name).length > 0) {\\n            return keccak256(bytes(name));\\n        } else {\\n            // If the name is empty, the contract may have been upgraded without initializing the new storage.\\n            // We return the name hash in storage if non-zero, otherwise we assume the name is empty by design.\\n            bytes32 hashedName = $._hashedName;\\n            if (hashedName != 0) {\\n                return hashedName;\\n            } else {\\n                return keccak256(\\\"\\\");\\n            }\\n        }\\n    }\\n\\n    /**\\n     * @dev The hash of the version parameter for the EIP712 domain.\\n     *\\n     * NOTE: In previous versions this function was virtual. In this version you should override `_EIP712Version` instead.\\n     */\\n    function _EIP712VersionHash() internal view returns (bytes32) {\\n        EIP712Storage storage $ = _getEIP712Storage();\\n        string memory version = _EIP712Version();\\n        if (bytes(version).length > 0) {\\n            return keccak256(bytes(version));\\n        } else {\\n            // If the version is empty, the contract may have been upgraded without initializing the new storage.\\n            // We return the version hash in storage if non-zero, otherwise we assume the version is empty by design.\\n            bytes32 hashedVersion = $._hashedVersion;\\n            if (hashedVersion != 0) {\\n                return hashedVersion;\\n            } else {\\n                return keccak256(\\\"\\\");\\n            }\\n        }\\n    }\\n}\\n\"},\"@openzeppelin/contracts-upgradeable@5.0.0/token/ERC721/extensions/ERC721WrapperUpgradeable.sol\":{\"content\":\"// SPDX-License-Identifier: MIT\\n// OpenZeppelin Contracts (last updated v5.0.0) (token/ERC721/extensions/ERC721Wrapper.sol)\\n\\npragma solidity ^0.8.20;\\n\\nimport {IERC721} from \\\"@openzeppelin/contracts/token/ERC721/IERC721.sol\\\";\\nimport {ERC721Upgradeable} from \\\"../ERC721Upgradeable.sol\\\";\\nimport {IERC721Receiver} from \\\"@openzeppelin/contracts/token/ERC721/IERC721Receiver.sol\\\";\\nimport {Initializable} from \\\"../../../proxy/utils/Initializable.sol\\\";\\n\\n/**\\n * @dev Extension of the ERC721 token contract to support token wrapping.\\n *\\n * Users can deposit and withdraw an \\\"underlying token\\\" and receive a \\\"wrapped token\\\" with a matching tokenId. This is\\n * useful in conjunction with other modules. For example, combining this wrapping mechanism with {ERC721Votes} will allow\\n * the wrapping of an existing \\\"basic\\\" ERC721 into a governance token.\\n */\\nabstract contract ERC721WrapperUpgradeable is Initializable, ERC721Upgradeable, IERC721Receiver {\\n    /// @custom:storage-location erc7201:openzeppelin.storage.ERC721Wrapper\\n    struct ERC721WrapperStorage {\\n        IERC721 _underlying;\\n    }\\n\\n    // keccak256(abi.encode(uint256(keccak256(\\\"openzeppelin.storage.ERC721Wrapper\\\")) - 1)) & ~bytes32(uint256(0xff))\\n    bytes32 private constant ERC721WrapperStorageLocation = 0xa27ade666fc2e768f0cfbad659dfd6a7039cae52f9274d2ab808f70dce364400;\\n\\n    function _getERC721WrapperStorage() private pure returns (ERC721WrapperStorage storage $) {\\n        assembly {\\n            $.slot := ERC721WrapperStorageLocation\\n        }\\n    }\\n\\n    /**\\n     * @dev The received ERC721 token couldn't be wrapped.\\n     */\\n    error ERC721UnsupportedToken(address token);\\n\\n    function __ERC721Wrapper_init(IERC721 underlyingToken) internal onlyInitializing {\\n        __ERC721Wrapper_init_unchained(underlyingToken);\\n    }\\n\\n    function __ERC721Wrapper_init_unchained(IERC721 underlyingToken) internal onlyInitializing {\\n        ERC721WrapperStorage storage $ = _getERC721WrapperStorage();\\n        $._underlying = underlyingToken;\\n    }\\n\\n    /**\\n     * @dev Allow a user to deposit underlying tokens and mint the corresponding tokenIds.\\n     */\\n    function depositFor(address account, uint256[] memory tokenIds) public virtual returns (bool) {\\n        uint256 length = tokenIds.length;\\n        for (uint256 i = 0; i < length; ++i) {\\n            uint256 tokenId = tokenIds[i];\\n\\n            // This is an \\\"unsafe\\\" transfer that doesn't call any hook on the receiver. With underlying() being trusted\\n            // (by design of this contract) and no other contracts expected to be called from there, we are safe.\\n            // slither-disable-next-line reentrancy-no-eth\\n            underlying().transferFrom(_msgSender(), address(this), tokenId);\\n            _safeMint(account, tokenId);\\n        }\\n\\n        return true;\\n    }\\n\\n    /**\\n     * @dev Allow a user to burn wrapped tokens and withdraw the corresponding tokenIds of the underlying tokens.\\n     */\\n    function withdrawTo(address account, uint256[] memory tokenIds) public virtual returns (bool) {\\n        uint256 length = tokenIds.length;\\n        for (uint256 i = 0; i < length; ++i) {\\n            uint256 tokenId = tokenIds[i];\\n            // Setting an \\\"auth\\\" arguments enables the `_isAuthorized` check which verifies that the token exists\\n            // (from != 0). Therefore, it is not needed to verify that the return value is not 0 here.\\n            _update(address(0), tokenId, _msgSender());\\n            // Checks were already performed at this point, and there's no way to retake ownership or approval from\\n            // the wrapped tokenId after this point, so it's safe to remove the reentrancy check for the next line.\\n            // slither-disable-next-line reentrancy-no-eth\\n            underlying().safeTransferFrom(address(this), account, tokenId);\\n        }\\n\\n        return true;\\n    }\\n\\n    /**\\n     * @dev Overrides {IERC721Receiver-onERC721Received} to allow minting on direct ERC721 transfers to\\n     * this contract.\\n     *\\n     * In case there's data attached, it validates that the operator is this contract, so only trusted data\\n     * is accepted from {depositFor}.\\n     *\\n     * WARNING: Doesn't work with unsafe transfers (eg. {IERC721-transferFrom}). Use {ERC721Wrapper-_recover}\\n     * for recovering in that scenario.\\n     */\\n    function onERC721Received(address, address from, uint256 tokenId, bytes memory) public virtual returns (bytes4) {\\n        if (address(underlying()) != _msgSender()) {\\n            revert ERC721UnsupportedToken(_msgSender());\\n        }\\n        _safeMint(from, tokenId);\\n        return IERC721Receiver.onERC721Received.selector;\\n    }\\n\\n    /**\\n     * @dev Mint a wrapped token to cover any underlyingToken that would have been transferred by mistake. Internal\\n     * function that can be exposed with access control if desired.\\n     */\\n    function _recover(address account, uint256 tokenId) internal virtual returns (uint256) {\\n        address owner = underlying().ownerOf(tokenId);\\n        if (owner != address(this)) {\\n            revert ERC721IncorrectOwner(address(this), tokenId, owner);\\n        }\\n        _safeMint(account, tokenId);\\n        return tokenId;\\n    }\\n\\n    /**\\n     * @dev Returns the underlying token.\\n     */\\n    function underlying() public view virtual returns (IERC721) {\\n        ERC721WrapperStorage storage $ = _getERC721WrapperStorage();\\n        return $._underlying;\\n    }\\n}\\n\"},\"@openzeppelin/contracts-upgradeable@5.0.0/token/ERC721/extensions/ERC721URIStorageUpgradeable.sol\":{\"content\":\"// SPDX-License-Identifier: MIT\\n// OpenZeppelin Contracts (last updated v5.0.0) (token/ERC721/extensions/ERC721URIStorage.sol)\\n\\npragma solidity ^0.8.20;\\n\\nimport {ERC721Upgradeable} from \\\"../ERC721Upgradeable.sol\\\";\\nimport {Strings} from \\\"@openzeppelin/contracts/utils/Strings.sol\\\";\\nimport {IERC4906} from \\\"@openzeppelin/contracts/interfaces/IERC4906.sol\\\";\\nimport {IERC165} from \\\"@openzeppelin/contracts/utils/introspection/IERC165.sol\\\";\\nimport {Initializable} from \\\"../../../proxy/utils/Initializable.sol\\\";\\n\\n/**\\n * @dev ERC721 token with storage based token URI management.\\n */\\nabstract contract ERC721URIStorageUpgradeable is Initializable, IERC4906, ERC721Upgradeable {\\n    using Strings for uint256;\\n\\n    // Interface ID as defined in ERC-4906. This does not correspond to a traditional interface ID as ERC-4906 only\\n    // defines events and does not include any external function.\\n    bytes4 private constant ERC4906_INTERFACE_ID = bytes4(0x49064906);\\n\\n    /// @custom:storage-location erc7201:openzeppelin.storage.ERC721URIStorage\\n    struct ERC721URIStorageStorage {\\n        // Optional mapping for token URIs\\n        mapping(uint256 tokenId => string) _tokenURIs;\\n    }\\n\\n    // keccak256(abi.encode(uint256(keccak256(\\\"openzeppelin.storage.ERC721URIStorage\\\")) - 1)) & ~bytes32(uint256(0xff))\\n    bytes32 private constant ERC721URIStorageStorageLocation = 0x0542a41881ee128a365a727b282c86fa859579490b9bb45aab8503648c8e7900;\\n\\n    function _getERC721URIStorageStorage() private pure returns (ERC721URIStorageStorage storage $) {\\n        assembly {\\n            $.slot := ERC721URIStorageStorageLocation\\n        }\\n    }\\n\\n    function __ERC721URIStorage_init() internal onlyInitializing {\\n    }\\n\\n    function __ERC721URIStorage_init_unchained() internal onlyInitializing {\\n    }\\n    /**\\n     * @dev See {IERC165-supportsInterface}\\n     */\\n    function supportsInterface(bytes4 interfaceId) public view virtual override(ERC721Upgradeable, IERC165) returns (bool) {\\n        return interfaceId == ERC4906_INTERFACE_ID || super.supportsInterface(interfaceId);\\n    }\\n\\n    /**\\n     * @dev See {IERC721Metadata-tokenURI}.\\n     */\\n    function tokenURI(uint256 tokenId) public view virtual override returns (string memory) {\\n        ERC721URIStorageStorage storage $ = _getERC721URIStorageStorage();\\n        _requireOwned(tokenId);\\n\\n        string memory _tokenURI = $._tokenURIs[tokenId];\\n        string memory base = _baseURI();\\n\\n        // If there is no base URI, return the token URI.\\n        if (bytes(base).length == 0) {\\n            return _tokenURI;\\n        }\\n        // If both are set, concatenate the baseURI and tokenURI (via string.concat).\\n        if (bytes(_tokenURI).length > 0) {\\n            return string.concat(base, _tokenURI);\\n        }\\n\\n        return super.tokenURI(tokenId);\\n    }\\n\\n    /**\\n     * @dev Sets `_tokenURI` as the tokenURI of `tokenId`.\\n     *\\n     * Emits {MetadataUpdate}.\\n     */\\n    function _setTokenURI(uint256 tokenId, string memory _tokenURI) internal virtual {\\n        ERC721URIStorageStorage storage $ = _getERC721URIStorageStorage();\\n        $._tokenURIs[tokenId] = _tokenURI;\\n        emit MetadataUpdate(tokenId);\\n    }\\n}\\n\"},\"@openzeppelin/contracts-upgradeable@5.0.0/token/ERC721/extensions/ERC721RoyaltyUpgradeable.sol\":{\"content\":\"// SPDX-License-Identifier: MIT\\n// OpenZeppelin Contracts (last updated v5.0.0) (token/ERC721/extensions/ERC721Royalty.sol)\\n\\npragma solidity ^0.8.20;\\n\\nimport {ERC721Upgradeable} from \\\"../ERC721Upgradeable.sol\\\";\\nimport {ERC2981Upgradeable} from \\\"../../common/ERC2981Upgradeable.sol\\\";\\nimport {Initializable} from \\\"../../../proxy/utils/Initializable.sol\\\";\\n\\n/**\\n * @dev Extension of ERC721 with the ERC2981 NFT Royalty Standard, a standardized way to retrieve royalty payment\\n * information.\\n *\\n * Royalty information can be specified globally for all token ids via {ERC2981-_setDefaultRoyalty}, and/or individually\\n * for specific token ids via {ERC2981-_setTokenRoyalty}. The latter takes precedence over the first.\\n *\\n * IMPORTANT: ERC-2981 only specifies a way to signal royalty information and does not enforce its payment. See\\n * https://eips.ethereum.org/EIPS/eip-2981#optional-royalty-payments[Rationale] in the EIP. Marketplaces are expected to\\n * voluntarily pay royalties together with sales, but note that this standard is not yet widely supported.\\n */\\nabstract contract ERC721RoyaltyUpgradeable is Initializable, ERC2981Upgradeable, ERC721Upgradeable {\\n    function __ERC721Royalty_init() internal onlyInitializing {\\n    }\\n\\n    function __ERC721Royalty_init_unchained() internal onlyInitializing {\\n    }\\n    /**\\n     * @dev See {IERC165-supportsInterface}.\\n     */\\n    function supportsInterface(bytes4 interfaceId) public view virtual override(ERC721Upgradeable, ERC2981Upgradeable) returns (bool) {\\n        return super.supportsInterface(interfaceId);\\n    }\\n}\\n\"},\"@openzeppelin/contracts-upgradeable@5.0.0/token/ERC721/extensions/ERC721PausableUpgradeable.sol\":{\"content\":\"// SPDX-License-Identifier: MIT\\n// OpenZeppelin Contracts (last updated v5.0.0) (token/ERC721/extensions/ERC721Pausable.sol)\\n\\npragma solidity ^0.8.20;\\n\\nimport {ERC721Upgradeable} from \\\"../ERC721Upgradeable.sol\\\";\\nimport {PausableUpgradeable} from \\\"../../../utils/PausableUpgradeable.sol\\\";\\nimport {Initializable} from \\\"../../../proxy/utils/Initializable.sol\\\";\\n\\n/**\\n * @dev ERC721 token with pausable token transfers, minting and burning.\\n *\\n * Useful for scenarios such as preventing trades until the end of an evaluation\\n * period, or having an emergency switch for freezing all token transfers in the\\n * event of a large bug.\\n *\\n * IMPORTANT: This contract does not include public pause and unpause functions. In\\n * addition to inheriting this contract, you must define both functions, invoking the\\n * {Pausable-_pause} and {Pausable-_unpause} internal functions, with appropriate\\n * access control, e.g. using {AccessControl} or {Ownable}. Not doing so will\\n * make the contract pause mechanism of the contract unreachable, and thus unusable.\\n */\\nabstract contract ERC721PausableUpgradeable is Initializable, ERC721Upgradeable, PausableUpgradeable {\\n    function __ERC721Pausable_init() internal onlyInitializing {\\n        __Pausable_init_unchained();\\n    }\\n\\n    function __ERC721Pausable_init_unchained() internal onlyInitializing {\\n    }\\n    /**\\n     * @dev See {ERC721-_update}.\\n     *\\n     * Requirements:\\n     *\\n     * - the contract must not be paused.\\n     */\\n    function _update(\\n        address to,\\n        uint256 tokenId,\\n        address auth\\n    ) internal virtual override whenNotPaused returns (address) {\\n        return super._update(to, tokenId, auth);\\n    }\\n}\\n\"},\"@openzeppelin/contracts-upgradeable@5.0.0/token/ERC721/extensions/ERC721EnumerableUpgradeable.sol\":{\"content\":\"// SPDX-License-Identifier: MIT\\n// OpenZeppelin Contracts (last updated v5.0.0) (token/ERC721/extensions/ERC721Enumerable.sol)\\n\\npragma solidity ^0.8.20;\\n\\nimport {ERC721Upgradeable} from \\\"../ERC721Upgradeable.sol\\\";\\nimport {IERC721Enumerable} from \\\"@openzeppelin/contracts/token/ERC721/extensions/IERC721Enumerable.sol\\\";\\nimport {IERC165} from \\\"@openzeppelin/contracts/utils/introspection/IERC165.sol\\\";\\nimport {Initializable} from \\\"../../../proxy/utils/Initializable.sol\\\";\\n\\n/**\\n * @dev This implements an optional extension of {ERC721} defined in the EIP that adds enumerability\\n * of all the token ids in the contract as well as all token ids owned by each account.\\n *\\n * CAUTION: `ERC721` extensions that implement custom `balanceOf` logic, such as `ERC721Consecutive`,\\n * interfere with enumerability and should not be used together with `ERC721Enumerable`.\\n */\\nabstract contract ERC721EnumerableUpgradeable is Initializable, ERC721Upgradeable, IERC721Enumerable {\\n    /// @custom:storage-location erc7201:openzeppelin.storage.ERC721Enumerable\\n    struct ERC721EnumerableStorage {\\n        mapping(address owner => mapping(uint256 index => uint256)) _ownedTokens;\\n        mapping(uint256 tokenId => uint256) _ownedTokensIndex;\\n\\n        uint256[] _allTokens;\\n        mapping(uint256 tokenId => uint256) _allTokensIndex;\\n    }\\n\\n    // keccak256(abi.encode(uint256(keccak256(\\\"openzeppelin.storage.ERC721Enumerable\\\")) - 1)) & ~bytes32(uint256(0xff))\\n    bytes32 private constant ERC721EnumerableStorageLocation = 0x645e039705490088daad89bae25049a34f4a9072d398537b1ab2425f24cbed00;\\n\\n    function _getERC721EnumerableStorage() private pure returns (ERC721EnumerableStorage storage $) {\\n        assembly {\\n            $.slot := ERC721EnumerableStorageLocation\\n        }\\n    }\\n\\n    /**\\n     * @dev An `owner`'s token query was out of bounds for `index`.\\n     *\\n     * NOTE: The owner being `address(0)` indicates a global out of bounds index.\\n     */\\n    error ERC721OutOfBoundsIndex(address owner, uint256 index);\\n\\n    /**\\n     * @dev Batch mint is not allowed.\\n     */\\n    error ERC721EnumerableForbiddenBatchMint();\\n\\n    function __ERC721Enumerable_init() internal onlyInitializing {\\n    }\\n\\n    function __ERC721Enumerable_init_unchained() internal onlyInitializing {\\n    }\\n    /**\\n     * @dev See {IERC165-supportsInterface}.\\n     */\\n    function supportsInterface(bytes4 interfaceId) public view virtual override(IERC165, ERC721Upgradeable) returns (bool) {\\n        return interfaceId == type(IERC721Enumerable).interfaceId || super.supportsInterface(interfaceId);\\n    }\\n\\n    /**\\n     * @dev See {IERC721Enumerable-tokenOfOwnerByIndex}.\\n     */\\n    function tokenOfOwnerByIndex(address owner, uint256 index) public view virtual returns (uint256) {\\n        ERC721EnumerableStorage storage $ = _getERC721EnumerableStorage();\\n        if (index >= balanceOf(owner)) {\\n            revert ERC721OutOfBoundsIndex(owner, index);\\n        }\\n        return $._ownedTokens[owner][index];\\n    }\\n\\n    /**\\n     * @dev See {IERC721Enumerable-totalSupply}.\\n     */\\n    function totalSupply() public view virtual returns (uint256) {\\n        ERC721EnumerableStorage storage $ = _getERC721EnumerableStorage();\\n        return $._allTokens.length;\\n    }\\n\\n    /**\\n     * @dev See {IERC721Enumerable-tokenByIndex}.\\n     */\\n    function tokenByIndex(uint256 index) public view virtual returns (uint256) {\\n        ERC721EnumerableStorage storage $ = _getERC721EnumerableStorage();\\n        if (index >= totalSupply()) {\\n            revert ERC721OutOfBoundsIndex(address(0), index);\\n        }\\n        return $._allTokens[index];\\n    }\\n\\n    /**\\n     * @dev See {ERC721-_update}.\\n     */\\n    function _update(address to, uint256 tokenId, address auth) internal virtual override returns (address) {\\n        address previousOwner = super._update(to, tokenId, auth);\\n\\n        if (previousOwner == address(0)) {\\n            _addTokenToAllTokensEnumeration(tokenId);\\n        } else if (previousOwner != to) {\\n            _removeTokenFromOwnerEnumeration(previousOwner, tokenId);\\n        }\\n        if (to == address(0)) {\\n            _removeTokenFromAllTokensEnumeration(tokenId);\\n        } else if (previousOwner != to) {\\n            _addTokenToOwnerEnumeration(to, tokenId);\\n        }\\n\\n        return previousOwner;\\n    }\\n\\n    /**\\n     * @dev Private function to add a token to this extension's ownership-tracking data structures.\\n     * @param to address representing the new owner of the given token ID\\n     * @param tokenId uint256 ID of the token to be added to the tokens list of the given address\\n     */\\n    function _addTokenToOwnerEnumeration(address to, uint256 tokenId) private {\\n        ERC721EnumerableStorage storage $ = _getERC721EnumerableStorage();\\n        uint256 length = balanceOf(to) - 1;\\n        $._ownedTokens[to][length] = tokenId;\\n        $._ownedTokensIndex[tokenId] = length;\\n    }\\n\\n    /**\\n     * @dev Private function to add a token to this extension's token tracking data structures.\\n     * @param tokenId uint256 ID of the token to be added to the tokens list\\n     */\\n    function _addTokenToAllTokensEnumeration(uint256 tokenId) private {\\n        ERC721EnumerableStorage storage $ = _getERC721EnumerableStorage();\\n        $._allTokensIndex[tokenId] = $._allTokens.length;\\n        $._allTokens.push(tokenId);\\n    }\\n\\n    /**\\n     * @dev Private function to remove a token from this extension's ownership-tracking data structures. Note that\\n     * while the token is not assigned a new owner, the `_ownedTokensIndex` mapping is _not_ updated: this allows for\\n     * gas optimizations e.g. when performing a transfer operation (avoiding double writes).\\n     * This has O(1) time complexity, but alters the order of the _ownedTokens array.\\n     * @param from address representing the previous owner of the given token ID\\n     * @param tokenId uint256 ID of the token to be removed from the tokens list of the given address\\n     */\\n    function _removeTokenFromOwnerEnumeration(address from, uint256 tokenId) private {\\n        ERC721EnumerableStorage storage $ = _getERC721EnumerableStorage();\\n        // To prevent a gap in from's tokens array, we store the last token in the index of the token to delete, and\\n        // then delete the last slot (swap and pop).\\n\\n        uint256 lastTokenIndex = balanceOf(from);\\n        uint256 tokenIndex = $._ownedTokensIndex[tokenId];\\n\\n        // When the token to delete is the last token, the swap operation is unnecessary\\n        if (tokenIndex != lastTokenIndex) {\\n            uint256 lastTokenId = $._ownedTokens[from][lastTokenIndex];\\n\\n            $._ownedTokens[from][tokenIndex] = lastTokenId; // Move the last token to the slot of the to-delete token\\n            $._ownedTokensIndex[lastTokenId] = tokenIndex; // Update the moved token's index\\n        }\\n\\n        // This also deletes the contents at the last position of the array\\n        delete $._ownedTokensIndex[tokenId];\\n        delete $._ownedTokens[from][lastTokenIndex];\\n    }\\n\\n    /**\\n     * @dev Private function to remove a token from this extension's token tracking data structures.\\n     * This has O(1) time complexity, but alters the order of the _allTokens array.\\n     * @param tokenId uint256 ID of the token to be removed from the tokens list\\n     */\\n    function _removeTokenFromAllTokensEnumeration(uint256 tokenId) private {\\n        ERC721EnumerableStorage storage $ = _getERC721EnumerableStorage();\\n        // To prevent a gap in the tokens array, we store the last token in the index of the token to delete, and\\n        // then delete the last slot (swap and pop).\\n\\n        uint256 lastTokenIndex = $._allTokens.length - 1;\\n        uint256 tokenIndex = $._allTokensIndex[tokenId];\\n\\n        // When the token to delete is the last token, the swap operation is unnecessary. However, since this occurs so\\n        // rarely (when the last minted token is burnt) that we still do the swap here to avoid the gas cost of adding\\n        // an 'if' statement (like in _removeTokenFromOwnerEnumeration)\\n        uint256 lastTokenId = $._allTokens[lastTokenIndex];\\n\\n        $._allTokens[tokenIndex] = lastTokenId; // Move the last token to the slot of the to-delete token\\n        $._allTokensIndex[lastTokenId] = tokenIndex; // Update the moved token's index\\n\\n        // This also deletes the contents at the last position of the array\\n        delete $._allTokensIndex[tokenId];\\n        $._allTokens.pop();\\n    }\\n\\n    /**\\n     * See {ERC721-_increaseBalance}. We need that to account tokens that were minted in batch\\n     */\\n    function _increaseBalance(address account, uint128 amount) internal virtual override {\\n        if (amount > 0) {\\n            revert ERC721EnumerableForbiddenBatchMint();\\n        }\\n        super._increaseBalance(account, amount);\\n    }\\n}\\n\"},\"@openzeppelin/contracts-upgradeable@5.0.0/token/ERC721/extensions/ERC721ConsecutiveUpgradeable.sol\":{\"content\":\"// SPDX-License-Identifier: MIT\\n// OpenZeppelin Contracts (last updated v5.0.0) (token/ERC721/extensions/ERC721Consecutive.sol)\\n\\npragma solidity ^0.8.20;\\n\\nimport {ERC721Upgradeable} from \\\"../ERC721Upgradeable.sol\\\";\\nimport {IERC2309} from \\\"@openzeppelin/contracts/interfaces/IERC2309.sol\\\";\\nimport {BitMaps} from \\\"@openzeppelin/contracts/utils/structs/BitMaps.sol\\\";\\nimport {Checkpoints} from \\\"@openzeppelin/contracts/utils/structs/Checkpoints.sol\\\";\\nimport {Initializable} from \\\"../../../proxy/utils/Initializable.sol\\\";\\n\\n/**\\n * @dev Implementation of the ERC2309 \\\"Consecutive Transfer Extension\\\" as defined in\\n * https://eips.ethereum.org/EIPS/eip-2309[EIP-2309].\\n *\\n * This extension allows the minting of large batches of tokens, during contract construction only. For upgradeable\\n * contracts this implies that batch minting is only available during proxy deployment, and not in subsequent upgrades.\\n * These batches are limited to 5000 tokens at a time by default to accommodate off-chain indexers.\\n *\\n * Using this extension removes the ability to mint single tokens during contract construction. This ability is\\n * regained after construction. During construction, only batch minting is allowed.\\n *\\n * IMPORTANT: This extension does not call the {_update} function for tokens minted in batch. Any logic added to this\\n * function through overrides will not be triggered when token are minted in batch. You may want to also override\\n * {_increaseBalance} or {_mintConsecutive} to account for these mints.\\n *\\n * IMPORTANT: When overriding {_mintConsecutive}, be careful about call ordering. {ownerOf} may return invalid\\n * values during the {_mintConsecutive} execution if the super call is not called first. To be safe, execute the\\n * super call before your custom logic.\\n */\\nabstract contract ERC721ConsecutiveUpgradeable is Initializable, IERC2309, ERC721Upgradeable {\\n    using BitMaps for BitMaps.BitMap;\\n    using Checkpoints for Checkpoints.Trace160;\\n\\n    /// @custom:storage-location erc7201:openzeppelin.storage.ERC721Consecutive\\n    struct ERC721ConsecutiveStorage {\\n        Checkpoints.Trace160 _sequentialOwnership;\\n        BitMaps.BitMap _sequentialBurn;\\n    }\\n\\n    // keccak256(abi.encode(uint256(keccak256(\\\"openzeppelin.storage.ERC721Consecutive\\\")) - 1)) & ~bytes32(uint256(0xff))\\n    bytes32 private constant ERC721ConsecutiveStorageLocation = 0x24de1071a22e1e6f709b09cc0dadb696f919b85b456665cd36195df4bc89ff00;\\n\\n    function _getERC721ConsecutiveStorage() private pure returns (ERC721ConsecutiveStorage storage $) {\\n        assembly {\\n            $.slot := ERC721ConsecutiveStorageLocation\\n        }\\n    }\\n\\n    /**\\n     * @dev Batch mint is restricted to the constructor.\\n     * Any batch mint not emitting the {IERC721-Transfer} event outside of the constructor\\n     * is non-ERC721 compliant.\\n     */\\n    error ERC721ForbiddenBatchMint();\\n\\n    /**\\n     * @dev Exceeds the max amount of mints per batch.\\n     */\\n    error ERC721ExceededMaxBatchMint(uint256 batchSize, uint256 maxBatch);\\n\\n    /**\\n     * @dev Individual minting is not allowed.\\n     */\\n    error ERC721ForbiddenMint();\\n\\n    /**\\n     * @dev Batch burn is not supported.\\n     */\\n    error ERC721ForbiddenBatchBurn();\\n\\n    function __ERC721Consecutive_init() internal onlyInitializing {\\n    }\\n\\n    function __ERC721Consecutive_init_unchained() internal onlyInitializing {\\n    }\\n    /**\\n     * @dev Maximum size of a batch of consecutive tokens. This is designed to limit stress on off-chain indexing\\n     * services that have to record one entry per token, and have protections against \\\"unreasonably large\\\" batches of\\n     * tokens.\\n     *\\n     * NOTE: Overriding the default value of 5000 will not cause on-chain issues, but may result in the asset not being\\n     * correctly supported by off-chain indexing services (including marketplaces).\\n     */\\n    function _maxBatchSize() internal view virtual returns (uint96) {\\n        return 5000;\\n    }\\n\\n    /**\\n     * @dev See {ERC721-_ownerOf}. Override that checks the sequential ownership structure for tokens that have\\n     * been minted as part of a batch, and not yet transferred.\\n     */\\n    function _ownerOf(uint256 tokenId) internal view virtual override returns (address) {\\n        ERC721ConsecutiveStorage storage $ = _getERC721ConsecutiveStorage();\\n        address owner = super._ownerOf(tokenId);\\n\\n        // If token is owned by the core, or beyond consecutive range, return base value\\n        if (owner != address(0) || tokenId > type(uint96).max || tokenId < _firstConsecutiveId()) {\\n            return owner;\\n        }\\n\\n        // Otherwise, check the token was not burned, and fetch ownership from the anchors\\n        // Note: no need for safe cast, we know that tokenId <= type(uint96).max\\n        return $._sequentialBurn.get(tokenId) ? address(0) : address($._sequentialOwnership.lowerLookup(uint96(tokenId)));\\n    }\\n\\n    /**\\n     * @dev Mint a batch of tokens of length `batchSize` for `to`. Returns the token id of the first token minted in the\\n     * batch; if `batchSize` is 0, returns the number of consecutive ids minted so far.\\n     *\\n     * Requirements:\\n     *\\n     * - `batchSize` must not be greater than {_maxBatchSize}.\\n     * - The function is called in the constructor of the contract (directly or indirectly).\\n     *\\n     * CAUTION: Does not emit a `Transfer` event. This is ERC721 compliant as long as it is done inside of the\\n     * constructor, which is enforced by this function.\\n     *\\n     * CAUTION: Does not invoke `onERC721Received` on the receiver.\\n     *\\n     * Emits a {IERC2309-ConsecutiveTransfer} event.\\n     */\\n    function _mintConsecutive(address to, uint96 batchSize) internal virtual returns (uint96) {\\n        ERC721ConsecutiveStorage storage $ = _getERC721ConsecutiveStorage();\\n        uint96 next = _nextConsecutiveId();\\n\\n        // minting a batch of size 0 is a no-op\\n        if (batchSize > 0) {\\n            if (address(this).code.length > 0) {\\n                revert ERC721ForbiddenBatchMint();\\n            }\\n            if (to == address(0)) {\\n                revert ERC721InvalidReceiver(address(0));\\n            }\\n\\n            uint256 maxBatchSize = _maxBatchSize();\\n            if (batchSize > maxBatchSize) {\\n                revert ERC721ExceededMaxBatchMint(batchSize, maxBatchSize);\\n            }\\n\\n            // push an ownership checkpoint & emit event\\n            uint96 last = next + batchSize - 1;\\n            $._sequentialOwnership.push(last, uint160(to));\\n\\n            // The invariant required by this function is preserved because the new sequentialOwnership checkpoint\\n            // is attributing ownership of `batchSize` new tokens to account `to`.\\n            _increaseBalance(to, batchSize);\\n\\n            emit ConsecutiveTransfer(next, last, address(0), to);\\n        }\\n\\n        return next;\\n    }\\n\\n    /**\\n     * @dev See {ERC721-_update}. Override version that restricts normal minting to after construction.\\n     *\\n     * WARNING: Using {ERC721Consecutive} prevents minting during construction in favor of {_mintConsecutive}.\\n     * After construction, {_mintConsecutive} is no longer available and minting through {_update} becomes available.\\n     */\\n    function _update(address to, uint256 tokenId, address auth) internal virtual override returns (address) {\\n        ERC721ConsecutiveStorage storage $ = _getERC721ConsecutiveStorage();\\n        address previousOwner = super._update(to, tokenId, auth);\\n\\n        // only mint after construction\\n        if (previousOwner == address(0) && address(this).code.length == 0) {\\n            revert ERC721ForbiddenMint();\\n        }\\n\\n        // record burn\\n        if (\\n            to == address(0) && // if we burn\\n            tokenId < _nextConsecutiveId() && // and the tokenId was minted in a batch\\n            !$._sequentialBurn.get(tokenId) // and the token was never marked as burnt\\n        ) {\\n            $._sequentialBurn.set(tokenId);\\n        }\\n\\n        return previousOwner;\\n    }\\n\\n    /**\\n     * @dev Used to offset the first token id in {_nextConsecutiveId}\\n     */\\n    function _firstConsecutiveId() internal view virtual returns (uint96) {\\n        return 0;\\n    }\\n\\n    /**\\n     * @dev Returns the next tokenId to mint using {_mintConsecutive}. It will return {_firstConsecutiveId}\\n     * if no consecutive tokenId has been minted before.\\n     */\\n    function _nextConsecutiveId() private view returns (uint96) {\\n        ERC721ConsecutiveStorage storage $ = _getERC721ConsecutiveStorage();\\n        (bool exists, uint96 latestId, ) = $._sequentialOwnership.latestCheckpoint();\\n        return exists ? latestId + 1 : _firstConsecutiveId();\\n    }\\n}\\n\"},\"@openzeppelin/contracts-upgradeable@5.0.0/token/ERC721/extensions/ERC721BurnableUpgradeable.sol\":{\"content\":\"// SPDX-License-Identifier: MIT\\n// OpenZeppelin Contracts (last updated v5.0.0) (token/ERC721/extensions/ERC721Burnable.sol)\\n\\npragma solidity ^0.8.20;\\n\\nimport {ERC721Upgradeable} from \\\"../ERC721Upgradeable.sol\\\";\\nimport {ContextUpgradeable} from \\\"../../../utils/ContextUpgradeable.sol\\\";\\nimport {Initializable} from \\\"../../../proxy/utils/Initializable.sol\\\";\\n\\n/**\\n * @title ERC721 Burnable Token\\n * @dev ERC721 Token that can be burned (destroyed).\\n */\\nabstract contract ERC721BurnableUpgradeable is Initializable, ContextUpgradeable, ERC721Upgradeable {\\n    function __ERC721Burnable_init() internal onlyInitializing {\\n    }\\n\\n    function __ERC721Burnable_init_unchained() internal onlyInitializing {\\n    }\\n    /**\\n     * @dev Burns `tokenId`. See {ERC721-_burn}.\\n     *\\n     * Requirements:\\n     *\\n     * - The caller must own `tokenId` or be an approved operator.\\n     */\\n    function burn(uint256 tokenId) public virtual {\\n        // Setting an \\\"auth\\\" arguments enables the `_isAuthorized` check which verifies that the token exists\\n        // (from != 0). Therefore, it is not needed to verify that the return value is not 0 here.\\n        _update(address(0), tokenId, _msgSender());\\n    }\\n}\\n\"},\"@openzeppelin/contracts-upgradeable@5.0.0/token/common/ERC2981Upgradeable.sol\":{\"content\":\"// SPDX-License-Identifier: MIT\\n// OpenZeppelin Contracts (last updated v5.0.0) (token/common/ERC2981.sol)\\n\\npragma solidity ^0.8.20;\\n\\nimport {IERC2981} from \\\"@openzeppelin/contracts/interfaces/IERC2981.sol\\\";\\nimport {IERC165} from \\\"@openzeppelin/contracts/utils/introspection/IERC165.sol\\\";\\nimport {ERC165Upgradeable} from \\\"../../utils/introspection/ERC165Upgradeable.sol\\\";\\nimport {Initializable} from \\\"../../proxy/utils/Initializable.sol\\\";\\n\\n/**\\n * @dev Implementation of the NFT Royalty Standard, a standardized way to retrieve royalty payment information.\\n *\\n * Royalty information can be specified globally for all token ids via {_setDefaultRoyalty}, and/or individually for\\n * specific token ids via {_setTokenRoyalty}. The latter takes precedence over the first.\\n *\\n * Royalty is specified as a fraction of sale price. {_feeDenominator} is overridable but defaults to 10000, meaning the\\n * fee is specified in basis points by default.\\n *\\n * IMPORTANT: ERC-2981 only specifies a way to signal royalty information and does not enforce its payment. See\\n * https://eips.ethereum.org/EIPS/eip-2981#optional-royalty-payments[Rationale] in the EIP. Marketplaces are expected to\\n * voluntarily pay royalties together with sales, but note that this standard is not yet widely supported.\\n */\\nabstract contract ERC2981Upgradeable is Initializable, IERC2981, ERC165Upgradeable {\\n    struct RoyaltyInfo {\\n        address receiver;\\n        uint96 royaltyFraction;\\n    }\\n\\n    /// @custom:storage-location erc7201:openzeppelin.storage.ERC2981\\n    struct ERC2981Storage {\\n        RoyaltyInfo _defaultRoyaltyInfo;\\n        mapping(uint256 tokenId => RoyaltyInfo) _tokenRoyaltyInfo;\\n    }\\n\\n    // keccak256(abi.encode(uint256(keccak256(\\\"openzeppelin.storage.ERC2981\\\")) - 1)) & ~bytes32(uint256(0xff))\\n    bytes32 private constant ERC2981StorageLocation = 0xdaedc9ab023613a7caf35e703657e986ccfad7e3eb0af93a2853f8d65dd86b00;\\n\\n    function _getERC2981Storage() private pure returns (ERC2981Storage storage $) {\\n        assembly {\\n            $.slot := ERC2981StorageLocation\\n        }\\n    }\\n\\n    /**\\n     * @dev The default royalty set is invalid (eg. (numerator / denominator) >= 1).\\n     */\\n    error ERC2981InvalidDefaultRoyalty(uint256 numerator, uint256 denominator);\\n\\n    /**\\n     * @dev The default royalty receiver is invalid.\\n     */\\n    error ERC2981InvalidDefaultRoyaltyReceiver(address receiver);\\n\\n    /**\\n     * @dev The royalty set for an specific `tokenId` is invalid (eg. (numerator / denominator) >= 1).\\n     */\\n    error ERC2981InvalidTokenRoyalty(uint256 tokenId, uint256 numerator, uint256 denominator);\\n\\n    /**\\n     * @dev The royalty receiver for `tokenId` is invalid.\\n     */\\n    error ERC2981InvalidTokenRoyaltyReceiver(uint256 tokenId, address receiver);\\n\\n    function __ERC2981_init() internal onlyInitializing {\\n    }\\n\\n    function __ERC2981_init_unchained() internal onlyInitializing {\\n    }\\n    /**\\n     * @dev See {IERC165-supportsInterface}.\\n     */\\n    function supportsInterface(bytes4 interfaceId) public view virtual override(IERC165, ERC165Upgradeable) returns (bool) {\\n        return interfaceId == type(IERC2981).interfaceId || super.supportsInterface(interfaceId);\\n    }\\n\\n    /**\\n     * @inheritdoc IERC2981\\n     */\\n    function royaltyInfo(uint256 tokenId, uint256 salePrice) public view virtual returns (address, uint256) {\\n        ERC2981Storage storage $ = _getERC2981Storage();\\n        RoyaltyInfo memory royalty = $._tokenRoyaltyInfo[tokenId];\\n\\n        if (royalty.receiver == address(0)) {\\n            royalty = $._defaultRoyaltyInfo;\\n        }\\n\\n        uint256 royaltyAmount = (salePrice * royalty.royaltyFraction) / _feeDenominator();\\n\\n        return (royalty.receiver, royaltyAmount);\\n    }\\n\\n    /**\\n     * @dev The denominator with which to interpret the fee set in {_setTokenRoyalty} and {_setDefaultRoyalty} as a\\n     * fraction of the sale price. Defaults to 10000 so fees are expressed in basis points, but may be customized by an\\n     * override.\\n     */\\n    function _feeDenominator() internal pure virtual returns (uint96) {\\n        return 10000;\\n    }\\n\\n    /**\\n     * @dev Sets the royalty information that all ids in this contract will default to.\\n     *\\n     * Requirements:\\n     *\\n     * - `receiver` cannot be the zero address.\\n     * - `feeNumerator` cannot be greater than the fee denominator.\\n     */\\n    function _setDefaultRoyalty(address receiver, uint96 feeNumerator) internal virtual {\\n        ERC2981Storage storage $ = _getERC2981Storage();\\n        uint256 denominator = _feeDenominator();\\n        if (feeNumerator > denominator) {\\n            // Royalty fee will exceed the sale price\\n            revert ERC2981InvalidDefaultRoyalty(feeNumerator, denominator);\\n        }\\n        if (receiver == address(0)) {\\n            revert ERC2981InvalidDefaultRoyaltyReceiver(address(0));\\n        }\\n\\n        $._defaultRoyaltyInfo = RoyaltyInfo(receiver, feeNumerator);\\n    }\\n\\n    /**\\n     * @dev Removes default royalty information.\\n     */\\n    function _deleteDefaultRoyalty() internal virtual {\\n        ERC2981Storage storage $ = _getERC2981Storage();\\n        delete $._defaultRoyaltyInfo;\\n    }\\n\\n    /**\\n     * @dev Sets the royalty information for a specific token id, overriding the global default.\\n     *\\n     * Requirements:\\n     *\\n     * - `receiver` cannot be the zero address.\\n     * - `feeNumerator` cannot be greater than the fee denominator.\\n     */\\n    function _setTokenRoyalty(uint256 tokenId, address receiver, uint96 feeNumerator) internal virtual {\\n        ERC2981Storage storage $ = _getERC2981Storage();\\n        uint256 denominator = _feeDenominator();\\n        if (feeNumerator > denominator) {\\n            // Royalty fee will exceed the sale price\\n            revert ERC2981InvalidTokenRoyalty(tokenId, feeNumerator, denominator);\\n        }\\n        if (receiver == address(0)) {\\n            revert ERC2981InvalidTokenRoyaltyReceiver(tokenId, address(0));\\n        }\\n\\n        $._tokenRoyaltyInfo[tokenId] = RoyaltyInfo(receiver, feeNumerator);\\n    }\\n\\n    /**\\n     * @dev Resets royalty information for the token id back to the global default.\\n     */\\n    function _resetTokenRoyalty(uint256 tokenId) internal virtual {\\n        ERC2981Storage storage $ = _getERC2981Storage();\\n        delete $._tokenRoyaltyInfo[tokenId];\\n    }\\n}\\n\"},\"@openzeppelin/contracts-upgradeable@5.0.0/access/OwnableUpgradeable.sol\":{\"content\":\"// SPDX-License-Identifier: MIT\\n// OpenZeppelin Contracts (last updated v5.0.0) (access/Ownable.sol)\\n\\npragma solidity ^0.8.20;\\n\\nimport {ContextUpgradeable} from \\\"../utils/ContextUpgradeable.sol\\\";\\nimport {Initializable} from \\\"../proxy/utils/Initializable.sol\\\";\\n\\n/**\\n * @dev Contract module which provides a basic access control mechanism, where\\n * there is an account (an owner) that can be granted exclusive access to\\n * specific functions.\\n *\\n * The initial owner is set to the address provided by the deployer. This can\\n * later be changed with {transferOwnership}.\\n *\\n * This module is used through inheritance. It will make available the modifier\\n * `onlyOwner`, which can be applied to your functions to restrict their use to\\n * the owner.\\n */\\nabstract contract OwnableUpgradeable is Initializable, ContextUpgradeable {\\n    /// @custom:storage-location erc7201:openzeppelin.storage.Ownable\\n    struct OwnableStorage {\\n        address _owner;\\n    }\\n\\n    // keccak256(abi.encode(uint256(keccak256(\\\"openzeppelin.storage.Ownable\\\")) - 1)) & ~bytes32(uint256(0xff))\\n    bytes32 private constant OwnableStorageLocation = 0x9016d09d72d40fdae2fd8ceac6b6234c7706214fd39c1cd1e609a0528c199300;\\n\\n    function _getOwnableStorage() private pure returns (OwnableStorage storage $) {\\n        assembly {\\n            $.slot := OwnableStorageLocation\\n        }\\n    }\\n\\n    /**\\n     * @dev The caller account is not authorized to perform an operation.\\n     */\\n    error OwnableUnauthorizedAccount(address account);\\n\\n    /**\\n     * @dev The owner is not a valid owner account. (eg. `address(0)`)\\n     */\\n    error OwnableInvalidOwner(address owner);\\n\\n    event OwnershipTransferred(address indexed previousOwner, address indexed newOwner);\\n\\n    /**\\n     * @dev Initializes the contract setting the address provided by the deployer as the initial owner.\\n     */\\n    function __Ownable_init(address initialOwner) internal onlyInitializing {\\n        __Ownable_init_unchained(initialOwner);\\n    }\\n\\n    function __Ownable_init_unchained(address initialOwner) internal onlyInitializing {\\n        if (initialOwner == address(0)) {\\n            revert OwnableInvalidOwner(address(0));\\n        }\\n        _transferOwnership(initialOwner);\\n    }\\n\\n    /**\\n     * @dev Throws if called by any account other than the owner.\\n     */\\n    modifier onlyOwner() {\\n        _checkOwner();\\n        _;\\n    }\\n\\n    /**\\n     * @dev Returns the address of the current owner.\\n     */\\n    function owner() public view virtual returns (address) {\\n        OwnableStorage storage $ = _getOwnableStorage();\\n        return $._owner;\\n    }\\n\\n    /**\\n     * @dev Throws if the sender is not the owner.\\n     */\\n    function _checkOwner() internal view virtual {\\n        if (owner() != _msgSender()) {\\n            revert OwnableUnauthorizedAccount(_msgSender());\\n        }\\n    }\\n\\n    /**\\n     * @dev Leaves the contract without owner. It will not be possible to call\\n     * `onlyOwner` functions. Can only be called by the current owner.\\n     *\\n     * NOTE: Renouncing ownership will leave the contract without an owner,\\n     * thereby disabling any functionality that is only available to the owner.\\n     */\\n    function renounceOwnership() public virtual onlyOwner {\\n        _transferOwnership(address(0));\\n    }\\n\\n    /**\\n     * @dev Transfers ownership of the contract to a new account (`newOwner`).\\n     * Can only be called by the current owner.\\n     */\\n    function transferOwnership(address newOwner) public virtual onlyOwner {\\n        if (newOwner == address(0)) {\\n            revert OwnableInvalidOwner(address(0));\\n        }\\n        _transferOwnership(newOwner);\\n    }\\n\\n    /**\\n     * @dev Transfers ownership of the contract to a new account (`newOwner`).\\n     * Internal function without access restriction.\\n     */\\n    function _transferOwnership(address newOwner) internal virtual {\\n        OwnableStorage storage $ = _getOwnableStorage();\\n        address oldOwner = $._owner;\\n        $._owner = newOwner;\\n        emit OwnershipTransferred(oldOwner, newOwner);\\n    }\\n}\\n\"},\"@openzeppelin/contracts-upgradeable@5.0.0/access/AccessControlUpgradeable.sol\":{\"content\":\"// SPDX-License-Identifier: MIT\\n// OpenZeppelin Contracts (last updated v5.0.0) (access/AccessControl.sol)\\n\\npragma solidity ^0.8.20;\\n\\nimport {IAccessControl} from \\\"@openzeppelin/contracts/access/IAccessControl.sol\\\";\\nimport {ContextUpgradeable} from \\\"../utils/ContextUpgradeable.sol\\\";\\nimport {ERC165Upgradeable} from \\\"../utils/introspection/ERC165Upgradeable.sol\\\";\\nimport {Initializable} from \\\"../proxy/utils/Initializable.sol\\\";\\n\\n/**\\n * @dev Contract module that allows children to implement role-based access\\n * control mechanisms. This is a lightweight version that doesn't allow enumerating role\\n * members except through off-chain means by accessing the contract event logs. Some\\n * applications may benefit from on-chain enumerability, for those cases see\\n * {AccessControlEnumerable}.\\n *\\n * Roles are referred to by their `bytes32` identifier. These should be exposed\\n * in the external API and be unique. The best way to achieve this is by\\n * using `public constant` hash digests:\\n *\\n * ```solidity\\n * bytes32 public constant MY_ROLE = keccak256(\\\"MY_ROLE\\\");\\n * ```\\n *\\n * Roles can be used to represent a set of permissions. To restrict access to a\\n * function call, use {hasRole}:\\n *\\n * ```solidity\\n * function foo() public {\\n *     require(hasRole(MY_ROLE, msg.sender));\\n *     ...\\n * }\\n * ```\\n *\\n * Roles can be granted and revoked dynamically via the {grantRole} and\\n * {revokeRole} functions. Each role has an associated admin role, and only\\n * accounts that have a role's admin role can call {grantRole} and {revokeRole}.\\n *\\n * By default, the admin role for all roles is `DEFAULT_ADMIN_ROLE`, which means\\n * that only accounts with this role will be able to grant or revoke other\\n * roles. More complex role relationships can be created by using\\n * {_setRoleAdmin}.\\n *\\n * WARNING: The `DEFAULT_ADMIN_ROLE` is also its own admin: it has permission to\\n * grant and revoke this role. Extra precautions should be taken to secure\\n * accounts that have been granted it. We recommend using {AccessControlDefaultAdminRules}\\n * to enforce additional security measures for this role.\\n */\\nabstract contract AccessControlUpgradeable is Initializable, ContextUpgradeable, IAccessControl, ERC165Upgradeable {\\n    struct RoleData {\\n        mapping(address account => bool) hasRole;\\n        bytes32 adminRole;\\n    }\\n\\n    bytes32 public constant DEFAULT_ADMIN_ROLE = 0x00;\\n\\n\\n    /// @custom:storage-location erc7201:openzeppelin.storage.AccessControl\\n    struct AccessControlStorage {\\n        mapping(bytes32 role => RoleData) _roles;\\n    }\\n\\n    // keccak256(abi.encode(uint256(keccak256(\\\"openzeppelin.storage.AccessControl\\\")) - 1)) & ~bytes32(uint256(0xff))\\n    bytes32 private constant AccessControlStorageLocation = 0x02dd7bc7dec4dceedda775e58dd541e08a116c6c53815c0bd028192f7b626800;\\n\\n    function _getAccessControlStorage() private pure returns (AccessControlStorage storage $) {\\n        assembly {\\n            $.slot := AccessControlStorageLocation\\n        }\\n    }\\n\\n    /**\\n     * @dev Modifier that checks that an account has a specific role. Reverts\\n     * with an {AccessControlUnauthorizedAccount} error including the required role.\\n     */\\n    modifier onlyRole(bytes32 role) {\\n        _checkRole(role);\\n        _;\\n    }\\n\\n    function __AccessControl_init() internal onlyInitializing {\\n    }\\n\\n    function __AccessControl_init_unchained() internal onlyInitializing {\\n    }\\n    /**\\n     * @dev See {IERC165-supportsInterface}.\\n     */\\n    function supportsInterface(bytes4 interfaceId) public view virtual override returns (bool) {\\n        return interfaceId == type(IAccessControl).interfaceId || super.supportsInterface(interfaceId);\\n    }\\n\\n    /**\\n     * @dev Returns `true` if `account` has been granted `role`.\\n     */\\n    function hasRole(bytes32 role, address account) public view virtual returns (bool) {\\n        AccessControlStorage storage $ = _getAccessControlStorage();\\n        return $._roles[role].hasRole[account];\\n    }\\n\\n    /**\\n     * @dev Reverts with an {AccessControlUnauthorizedAccount} error if `_msgSender()`\\n     * is missing `role`. Overriding this function changes the behavior of the {onlyRole} modifier.\\n     */\\n    function _checkRole(bytes32 role) internal view virtual {\\n        _checkRole(role, _msgSender());\\n    }\\n\\n    /**\\n     * @dev Reverts with an {AccessControlUnauthorizedAccount} error if `account`\\n     * is missing `role`.\\n     */\\n    function _checkRole(bytes32 role, address account) internal view virtual {\\n        if (!hasRole(role, account)) {\\n            revert AccessControlUnauthorizedAccount(account, role);\\n        }\\n    }\\n\\n    /**\\n     * @dev Returns the admin role that controls `role`. See {grantRole} and\\n     * {revokeRole}.\\n     *\\n     * To change a role's admin, use {_setRoleAdmin}.\\n     */\\n    function getRoleAdmin(bytes32 role) public view virtual returns (bytes32) {\\n        AccessControlStorage storage $ = _getAccessControlStorage();\\n        return $._roles[role].adminRole;\\n    }\\n\\n    /**\\n     * @dev Grants `role` to `account`.\\n     *\\n     * If `account` had not been already granted `role`, emits a {RoleGranted}\\n     * event.\\n     *\\n     * Requirements:\\n     *\\n     * - the caller must have ``role``'s admin role.\\n     *\\n     * May emit a {RoleGranted} event.\\n     */\\n    function grantRole(bytes32 role, address account) public virtual onlyRole(getRoleAdmin(role)) {\\n        _grantRole(role, account);\\n    }\\n\\n    /**\\n     * @dev Revokes `role` from `account`.\\n     *\\n     * If `account` had been granted `role`, emits a {RoleRevoked} event.\\n     *\\n     * Requirements:\\n     *\\n     * - the caller must have ``role``'s admin role.\\n     *\\n     * May emit a {RoleRevoked} event.\\n     */\\n    function revokeRole(bytes32 role, address account) public virtual onlyRole(getRoleAdmin(role)) {\\n        _revokeRole(role, account);\\n    }\\n\\n    /**\\n     * @dev Revokes `role` from the calling account.\\n     *\\n     * Roles are often managed via {grantRole} and {revokeRole}: this function's\\n     * purpose is to provide a mechanism for accounts to lose their privileges\\n     * if they are compromised (such as when a trusted device is misplaced).\\n     *\\n     * If the calling account had been revoked `role`, emits a {RoleRevoked}\\n     * event.\\n     *\\n     * Requirements:\\n     *\\n     * - the caller must be `callerConfirmation`.\\n     *\\n     * May emit a {RoleRevoked} event.\\n     */\\n    function renounceRole(bytes32 role, address callerConfirmation) public virtual {\\n        if (callerConfirmation != _msgSender()) {\\n            revert AccessControlBadConfirmation();\\n        }\\n\\n        _revokeRole(role, callerConfirmation);\\n    }\\n\\n    /**\\n     * @dev Sets `adminRole` as ``role``'s admin role.\\n     *\\n     * Emits a {RoleAdminChanged} event.\\n     */\\n    function _setRoleAdmin(bytes32 role, bytes32 adminRole) internal virtual {\\n        AccessControlStorage storage $ = _getAccessControlStorage();\\n        bytes32 previousAdminRole = getRoleAdmin(role);\\n        $._roles[role].adminRole = adminRole;\\n        emit RoleAdminChanged(role, previousAdminRole, adminRole);\\n    }\\n\\n    /**\\n     * @dev Attempts to grant `role` to `account` and returns a boolean indicating if `role` was granted.\\n     *\\n     * Internal function without access restriction.\\n     *\\n     * May emit a {RoleGranted} event.\\n     */\\n    function _grantRole(bytes32 role, address account) internal virtual returns (bool) {\\n        AccessControlStorage storage $ = _getAccessControlStorage();\\n        if (!hasRole(role, account)) {\\n            $._roles[role].hasRole[account] = true;\\n            emit RoleGranted(role, account, _msgSender());\\n            return true;\\n        } else {\\n            return false;\\n        }\\n    }\\n\\n    /**\\n     * @dev Attempts to revoke `role` to `account` and returns a boolean indicating if `role` was revoked.\\n     *\\n     * Internal function without access restriction.\\n     *\\n     * May emit a {RoleRevoked} event.\\n     */\\n    function _revokeRole(bytes32 role, address account) internal virtual returns (bool) {\\n        AccessControlStorage storage $ = _getAccessControlStorage();\\n        if (hasRole(role, account)) {\\n            $._roles[role].hasRole[account] = false;\\n            emit RoleRevoked(role, account, _msgSender());\\n            return true;\\n        } else {\\n            return false;\\n        }\\n    }\\n}\\n\"},\"@openzeppelin/contracts-upgradeable@5.0.0/access/extensions/AccessControlEnumerableUpgradeable.sol\":{\"content\":\"// SPDX-License-Identifier: MIT\\n// OpenZeppelin Contracts (last updated v5.0.0) (access/extensions/AccessControlEnumerable.sol)\\n\\npragma solidity ^0.8.20;\\n\\nimport {IAccessControlEnumerable} from \\\"@openzeppelin/contracts/access/extensions/IAccessControlEnumerable.sol\\\";\\nimport {AccessControlUpgradeable} from \\\"../AccessControlUpgradeable.sol\\\";\\nimport {EnumerableSet} from \\\"@openzeppelin/contracts/utils/structs/EnumerableSet.sol\\\";\\nimport {Initializable} from \\\"../../proxy/utils/Initializable.sol\\\";\\n\\n/**\\n * @dev Extension of {AccessControl} that allows enumerating the members of each role.\\n */\\nabstract contract AccessControlEnumerableUpgradeable is Initializable, IAccessControlEnumerable, AccessControlUpgradeable {\\n    using EnumerableSet for EnumerableSet.AddressSet;\\n\\n    /// @custom:storage-location erc7201:openzeppelin.storage.AccessControlEnumerable\\n    struct AccessControlEnumerableStorage {\\n        mapping(bytes32 role => EnumerableSet.AddressSet) _roleMembers;\\n    }\\n\\n    // keccak256(abi.encode(uint256(keccak256(\\\"openzeppelin.storage.AccessControlEnumerable\\\")) - 1)) & ~bytes32(uint256(0xff))\\n    bytes32 private constant AccessControlEnumerableStorageLocation = 0xc1f6fe24621ce81ec5827caf0253cadb74709b061630e6b55e82371705932000;\\n\\n    function _getAccessControlEnumerableStorage() private pure returns (AccessControlEnumerableStorage storage $) {\\n        assembly {\\n            $.slot := AccessControlEnumerableStorageLocation\\n        }\\n    }\\n\\n    function __AccessControlEnumerable_init() internal onlyInitializing {\\n    }\\n\\n    function __AccessControlEnumerable_init_unchained() internal onlyInitializing {\\n    }\\n    /**\\n     * @dev See {IERC165-supportsInterface}.\\n     */\\n    function supportsInterface(bytes4 interfaceId) public view virtual override returns (bool) {\\n        return interfaceId == type(IAccessControlEnumerable).interfaceId || super.supportsInterface(interfaceId);\\n    }\\n\\n    /**\\n     * @dev Returns one of the accounts that have `role`. `index` must be a\\n     * value between 0 and {getRoleMemberCount}, non-inclusive.\\n     *\\n     * Role bearers are not sorted in any particular way, and their ordering may\\n     * change at any point.\\n     *\\n     * WARNING: When using {getRoleMember} and {getRoleMemberCount}, make sure\\n     * you perform all queries on the same block. See the following\\n     * https://forum.openzeppelin.com/t/iterating-over-elements-on-enumerableset-in-openzeppelin-contracts/2296[forum post]\\n     * for more information.\\n     */\\n    function getRoleMember(bytes32 role, uint256 index) public view virtual returns (address) {\\n        AccessControlEnumerableStorage storage $ = _getAccessControlEnumerableStorage();\\n        return $._roleMembers[role].at(index);\\n    }\\n\\n    /**\\n     * @dev Returns the number of accounts that have `role`. Can be used\\n     * together with {getRoleMember} to enumerate all bearers of a role.\\n     */\\n    function getRoleMemberCount(bytes32 role) public view virtual returns (uint256) {\\n        AccessControlEnumerableStorage storage $ = _getAccessControlEnumerableStorage();\\n        return $._roleMembers[role].length();\\n    }\\n\\n    /**\\n     * @dev Overload {AccessControl-_grantRole} to track enumerable memberships\\n     */\\n    function _grantRole(bytes32 role, address account) internal virtual override returns (bool) {\\n        AccessControlEnumerableStorage storage $ = _getAccessControlEnumerableStorage();\\n        bool granted = super._grantRole(role, account);\\n        if (granted) {\\n            $._roleMembers[role].add(account);\\n        }\\n        return granted;\\n    }\\n\\n    /**\\n     * @dev Overload {AccessControl-_revokeRole} to track enumerable memberships\\n     */\\n    function _revokeRole(bytes32 role, address account) internal virtual override returns (bool) {\\n        AccessControlEnumerableStorage storage $ = _getAccessControlEnumerableStorage();\\n        bool revoked = super._revokeRole(role, account);\\n        if (revoked) {\\n            $._roleMembers[role].remove(account);\\n        }\\n        return revoked;\\n    }\\n}\\n\"},\"@openzeppelin/contracts-upgradeable@5.0.0/token/ERC721/ERC721Upgradeable.sol\":{\"content\":\"// SPDX-License-Identifier: MIT\\n// OpenZeppelin Contracts (last updated v5.0.0) (token/ERC721/ERC721.sol)\\n\\npragma solidity ^0.8.20;\\n\\nimport {IERC721} from \\\"@openzeppelin/contracts/token/ERC721/IERC721.sol\\\";\\nimport {IERC721Receiver} from \\\"@openzeppelin/contracts/token/ERC721/IERC721Receiver.sol\\\";\\nimport {IERC721Metadata} from \\\"@openzeppelin/contracts/token/ERC721/extensions/IERC721Metadata.sol\\\";\\nimport {ContextUpgradeable} from \\\"../../utils/ContextUpgradeable.sol\\\";\\nimport {Strings} from \\\"@openzeppelin/contracts/utils/Strings.sol\\\";\\nimport {IERC165} from \\\"@openzeppelin/contracts/utils/introspection/IERC165.sol\\\";\\nimport {ERC165Upgradeable} from \\\"../../utils/introspection/ERC165Upgradeable.sol\\\";\\nimport {IERC721Errors} from \\\"@openzeppelin/contracts/interfaces/draft-IERC6093.sol\\\";\\nimport {Initializable} from \\\"../../proxy/utils/Initializable.sol\\\";\\n\\n/**\\n * @dev Implementation of https://eips.ethereum.org/EIPS/eip-721[ERC721] Non-Fungible Token Standard, including\\n * the Metadata extension, but not including the Enumerable extension, which is available separately as\\n * {ERC721Enumerable}.\\n */\\nabstract contract ERC721Upgradeable is Initializable, ContextUpgradeable, ERC165Upgradeable, IERC721, IERC721Metadata, IERC721Errors {\\n    using Strings for uint256;\\n\\n    /// @custom:storage-location erc7201:openzeppelin.storage.ERC721\\n    struct ERC721Storage {\\n        // Token name\\n        string _name;\\n\\n        // Token symbol\\n        string _symbol;\\n\\n        mapping(uint256 tokenId => address) _owners;\\n\\n        mapping(address owner => uint256) _balances;\\n\\n        mapping(uint256 tokenId => address) _tokenApprovals;\\n\\n        mapping(address owner => mapping(address operator => bool)) _operatorApprovals;\\n    }\\n\\n    // keccak256(abi.encode(uint256(keccak256(\\\"openzeppelin.storage.ERC721\\\")) - 1)) & ~bytes32(uint256(0xff))\\n    bytes32 private constant ERC721StorageLocation = 0x80bb2b638cc20bc4d0a60d66940f3ab4a00c1d7b313497ca82fb0b4ab0079300;\\n\\n    function _getERC721Storage() private pure returns (ERC721Storage storage $) {\\n        assembly {\\n            $.slot := ERC721StorageLocation\\n        }\\n    }\\n\\n    /**\\n     * @dev Initializes the contract by setting a `name` and a `symbol` to the token collection.\\n     */\\n    function __ERC721_init(string memory name_, string memory symbol_) internal onlyInitializing {\\n        __ERC721_init_unchained(name_, symbol_);\\n    }\\n\\n    function __ERC721_init_unchained(string memory name_, string memory symbol_) internal onlyInitializing {\\n        ERC721Storage storage $ = _getERC721Storage();\\n        $._name = name_;\\n        $._symbol = symbol_;\\n    }\\n\\n    /**\\n     * @dev See {IERC165-supportsInterface}.\\n     */\\n    function supportsInterface(bytes4 interfaceId) public view virtual override(ERC165Upgradeable, IERC165) returns (bool) {\\n        return\\n            interfaceId == type(IERC721).interfaceId ||\\n            interfaceId == type(IERC721Metadata).interfaceId ||\\n            super.supportsInterface(interfaceId);\\n    }\\n\\n    /**\\n     * @dev See {IERC721-balanceOf}.\\n     */\\n    function balanceOf(address owner) public view virtual returns (uint256) {\\n        ERC721Storage storage $ = _getERC721Storage();\\n        if (owner == address(0)) {\\n            revert ERC721InvalidOwner(address(0));\\n        }\\n        return $._balances[owner];\\n    }\\n\\n    /**\\n     * @dev See {IERC721-ownerOf}.\\n     */\\n    function ownerOf(uint256 tokenId) public view virtual returns (address) {\\n        return _requireOwned(tokenId);\\n    }\\n\\n    /**\\n     * @dev See {IERC721Metadata-name}.\\n     */\\n    function name() public view virtual returns (string memory) {\\n        ERC721Storage storage $ = _getERC721Storage();\\n        return $._name;\\n    }\\n\\n    /**\\n     * @dev See {IERC721Metadata-symbol}.\\n     */\\n    function symbol() public view virtual returns (string memory) {\\n        ERC721Storage storage $ = _getERC721Storage();\\n        return $._symbol;\\n    }\\n\\n    /**\\n     * @dev See {IERC721Metadata-tokenURI}.\\n     */\\n    function tokenURI(uint256 tokenId) public view virtual returns (string memory) {\\n        _requireOwned(tokenId);\\n\\n        string memory baseURI = _baseURI();\\n        return bytes(baseURI).length > 0 ? string.concat(baseURI, tokenId.toString()) : \\\"\\\";\\n    }\\n\\n    /**\\n     * @dev Base URI for computing {tokenURI}. If set, the resulting URI for each\\n     * token will be the concatenation of the `baseURI` and the `tokenId`. Empty\\n     * by default, can be overridden in child contracts.\\n     */\\n    function _baseURI() internal view virtual returns (string memory) {\\n        return \\\"\\\";\\n    }\\n\\n    /**\\n     * @dev See {IERC721-approve}.\\n     */\\n    function approve(address to, uint256 tokenId) public virtual {\\n        _approve(to, tokenId, _msgSender());\\n    }\\n\\n    /**\\n     * @dev See {IERC721-getApproved}.\\n     */\\n    function getApproved(uint256 tokenId) public view virtual returns (address) {\\n        _requireOwned(tokenId);\\n\\n        return _getApproved(tokenId);\\n    }\\n\\n    /**\\n     * @dev See {IERC721-setApprovalForAll}.\\n     */\\n    function setApprovalForAll(address operator, bool approved) public virtual {\\n        _setApprovalForAll(_msgSender(), operator, approved);\\n    }\\n\\n    /**\\n     * @dev See {IERC721-isApprovedForAll}.\\n     */\\n    function isApprovedForAll(address owner, address operator) public view virtual returns (bool) {\\n        ERC721Storage storage $ = _getERC721Storage();\\n        return $._operatorApprovals[owner][operator];\\n    }\\n\\n    /**\\n     * @dev See {IERC721-transferFrom}.\\n     */\\n    function transferFrom(address from, address to, uint256 tokenId) public virtual {\\n        if (to == address(0)) {\\n            revert ERC721InvalidReceiver(address(0));\\n        }\\n        // Setting an \\\"auth\\\" arguments enables the `_isAuthorized` check which verifies that the token exists\\n        // (from != 0). Therefore, it is not needed to verify that the return value is not 0 here.\\n        address previousOwner = _update(to, tokenId, _msgSender());\\n        if (previousOwner != from) {\\n            revert ERC721IncorrectOwner(from, tokenId, previousOwner);\\n        }\\n    }\\n\\n    /**\\n     * @dev See {IERC721-safeTransferFrom}.\\n     */\\n    function safeTransferFrom(address from, address to, uint256 tokenId) public {\\n        safeTransferFrom(from, to, tokenId, \\\"\\\");\\n    }\\n\\n    /**\\n     * @dev See {IERC721-safeTransferFrom}.\\n     */\\n    function safeTransferFrom(address from, address to, uint256 tokenId, bytes memory data) public virtual {\\n        transferFrom(from, to, tokenId);\\n        _checkOnERC721Received(from, to, tokenId, data);\\n    }\\n\\n    /**\\n     * @dev Returns the owner of the `tokenId`. Does NOT revert if token doesn't exist\\n     *\\n     * IMPORTANT: Any overrides to this function that add ownership of tokens not tracked by the\\n     * core ERC721 logic MUST be matched with the use of {_increaseBalance} to keep balances\\n     * consistent with ownership. The invariant to preserve is that for any address `a` the value returned by\\n     * `balanceOf(a)` must be equal to the number of tokens such that `_ownerOf(tokenId)` is `a`.\\n     */\\n    function _ownerOf(uint256 tokenId) internal view virtual returns (address) {\\n        ERC721Storage storage $ = _getERC721Storage();\\n        return $._owners[tokenId];\\n    }\\n\\n    /**\\n     * @dev Returns the approved address for `tokenId`. Returns 0 if `tokenId` is not minted.\\n     */\\n    function _getApproved(uint256 tokenId) internal view virtual returns (address) {\\n        ERC721Storage storage $ = _getERC721Storage();\\n        return $._tokenApprovals[tokenId];\\n    }\\n\\n    /**\\n     * @dev Returns whether `spender` is allowed to manage `owner`'s tokens, or `tokenId` in\\n     * particular (ignoring whether it is owned by `owner`).\\n     *\\n     * WARNING: This function assumes that `owner` is the actual owner of `tokenId` and does not verify this\\n     * assumption.\\n     */\\n    function _isAuthorized(address owner, address spender, uint256 tokenId) internal view virtual returns (bool) {\\n        return\\n            spender != address(0) &&\\n            (owner == spender || isApprovedForAll(owner, spender) || _getApproved(tokenId) == spender);\\n    }\\n\\n    /**\\n     * @dev Checks if `spender` can operate on `tokenId`, assuming the provided `owner` is the actual owner.\\n     * Reverts if `spender` does not have approval from the provided `owner` for the given token or for all its assets\\n     * the `spender` for the specific `tokenId`.\\n     *\\n     * WARNING: This function assumes that `owner` is the actual owner of `tokenId` and does not verify this\\n     * assumption.\\n     */\\n    function _checkAuthorized(address owner, address spender, uint256 tokenId) internal view virtual {\\n        if (!_isAuthorized(owner, spender, tokenId)) {\\n            if (owner == address(0)) {\\n                revert ERC721NonexistentToken(tokenId);\\n            } else {\\n                revert ERC721InsufficientApproval(spender, tokenId);\\n            }\\n        }\\n    }\\n\\n    /**\\n     * @dev Unsafe write access to the balances, used by extensions that \\\"mint\\\" tokens using an {ownerOf} override.\\n     *\\n     * NOTE: the value is limited to type(uint128).max. This protect against _balance overflow. It is unrealistic that\\n     * a uint256 would ever overflow from increments when these increments are bounded to uint128 values.\\n     *\\n     * WARNING: Increasing an account's balance using this function tends to be paired with an override of the\\n     * {_ownerOf} function to resolve the ownership of the corresponding tokens so that balances and ownership\\n     * remain consistent with one another.\\n     */\\n    function _increaseBalance(address account, uint128 value) internal virtual {\\n        ERC721Storage storage $ = _getERC721Storage();\\n        unchecked {\\n            $._balances[account] += value;\\n        }\\n    }\\n\\n    /**\\n     * @dev Transfers `tokenId` from its current owner to `to`, or alternatively mints (or burns) if the current owner\\n     * (or `to`) is the zero address. Returns the owner of the `tokenId` before the update.\\n     *\\n     * The `auth` argument is optional. If the value passed is non 0, then this function will check that\\n     * `auth` is either the owner of the token, or approved to operate on the token (by the owner).\\n     *\\n     * Emits a {Transfer} event.\\n     *\\n     * NOTE: If overriding this function in a way that tracks balances, see also {_increaseBalance}.\\n     */\\n    function _update(address to, uint256 tokenId, address auth) internal virtual returns (address) {\\n        ERC721Storage storage $ = _getERC721Storage();\\n        address from = _ownerOf(tokenId);\\n\\n        // Perform (optional) operator check\\n        if (auth != address(0)) {\\n            _checkAuthorized(from, auth, tokenId);\\n        }\\n\\n        // Execute the update\\n        if (from != address(0)) {\\n            // Clear approval. No need to re-authorize or emit the Approval event\\n            _approve(address(0), tokenId, address(0), false);\\n\\n            unchecked {\\n                $._balances[from] -= 1;\\n            }\\n        }\\n\\n        if (to != address(0)) {\\n            unchecked {\\n                $._balances[to] += 1;\\n            }\\n        }\\n\\n        $._owners[tokenId] = to;\\n\\n        emit Transfer(from, to, tokenId);\\n\\n        return from;\\n    }\\n\\n    /**\\n     * @dev Mints `tokenId` and transfers it to `to`.\\n     *\\n     * WARNING: Usage of this method is discouraged, use {_safeMint} whenever possible\\n     *\\n     * Requirements:\\n     *\\n     * - `tokenId` must not exist.\\n     * - `to` cannot be the zero address.\\n     *\\n     * Emits a {Transfer} event.\\n     */\\n    function _mint(address to, uint256 tokenId) internal {\\n        if (to == address(0)) {\\n            revert ERC721InvalidReceiver(address(0));\\n        }\\n        address previousOwner = _update(to, tokenId, address(0));\\n        if (previousOwner != address(0)) {\\n            revert ERC721InvalidSender(address(0));\\n        }\\n    }\\n\\n    /**\\n     * @dev Mints `tokenId`, transfers it to `to` and checks for `to` acceptance.\\n     *\\n     * Requirements:\\n     *\\n     * - `tokenId` must not exist.\\n     * - If `to` refers to a smart contract, it must implement {IERC721Receiver-onERC721Received}, which is called upon a safe transfer.\\n     *\\n     * Emits a {Transfer} event.\\n     */\\n    function _safeMint(address to, uint256 tokenId) internal {\\n        _safeMint(to, tokenId, \\\"\\\");\\n    }\\n\\n    /**\\n     * @dev Same as {xref-ERC721-_safeMint-address-uint256-}[`_safeMint`], with an additional `data` parameter which is\\n     * forwarded in {IERC721Receiver-onERC721Received} to contract recipients.\\n     */\\n    function _safeMint(address to, uint256 tokenId, bytes memory data) internal virtual {\\n        _mint(to, tokenId);\\n        _checkOnERC721Received(address(0), to, tokenId, data);\\n    }\\n\\n    /**\\n     * @dev Destroys `tokenId`.\\n     * The approval is cleared when the token is burned.\\n     * This is an internal function that does not check if the sender is authorized to operate on the token.\\n     *\\n     * Requirements:\\n     *\\n     * - `tokenId` must exist.\\n     *\\n     * Emits a {Transfer} event.\\n     */\\n    function _burn(uint256 tokenId) internal {\\n        address previousOwner = _update(address(0), tokenId, address(0));\\n        if (previousOwner == address(0)) {\\n            revert ERC721NonexistentToken(tokenId);\\n        }\\n    }\\n\\n    /**\\n     * @dev Transfers `tokenId` from `from` to `to`.\\n     *  As opposed to {transferFrom}, this imposes no restrictions on msg.sender.\\n     *\\n     * Requirements:\\n     *\\n     * - `to` cannot be the zero address.\\n     * - `tokenId` token must be owned by `from`.\\n     *\\n     * Emits a {Transfer} event.\\n     */\\n    function _transfer(address from, address to, uint256 tokenId) internal {\\n        if (to == address(0)) {\\n            revert ERC721InvalidReceiver(address(0));\\n        }\\n        address previousOwner = _update(to, tokenId, address(0));\\n        if (previousOwner == address(0)) {\\n            revert ERC721NonexistentToken(tokenId);\\n        } else if (previousOwner != from) {\\n            revert ERC721IncorrectOwner(from, tokenId, previousOwner);\\n        }\\n    }\\n\\n    /**\\n     * @dev Safely transfers `tokenId` token from `from` to `to`, checking that contract recipients\\n     * are aware of the ERC721 standard to prevent tokens from being forever locked.\\n     *\\n     * `data` is additional data, it has no specified format and it is sent in call to `to`.\\n     *\\n     * This internal function is like {safeTransferFrom} in the sense that it invokes\\n     * {IERC721Receiver-onERC721Received} on the receiver, and can be used to e.g.\\n     * implement alternative mechanisms to perform token transfer, such as signature-based.\\n     *\\n     * Requirements:\\n     *\\n     * - `tokenId` token must exist and be owned by `from`.\\n     * - `to` cannot be the zero address.\\n     * - `from` cannot be the zero address.\\n     * - If `to` refers to a smart contract, it must implement {IERC721Receiver-onERC721Received}, which is called upon a safe transfer.\\n     *\\n     * Emits a {Transfer} event.\\n     */\\n    function _safeTransfer(address from, address to, uint256 tokenId) internal {\\n        _safeTransfer(from, to, tokenId, \\\"\\\");\\n    }\\n\\n    /**\\n     * @dev Same as {xref-ERC721-_safeTransfer-address-address-uint256-}[`_safeTransfer`], with an additional `data` parameter which is\\n     * forwarded in {IERC721Receiver-onERC721Received} to contract recipients.\\n     */\\n    function _safeTransfer(address from, address to, uint256 tokenId, bytes memory data) internal virtual {\\n        _transfer(from, to, tokenId);\\n        _checkOnERC721Received(from, to, tokenId, data);\\n    }\\n\\n    /**\\n     * @dev Approve `to` to operate on `tokenId`\\n     *\\n     * The `auth` argument is optional. If the value passed is non 0, then this function will check that `auth` is\\n     * either the owner of the token, or approved to operate on all tokens held by this owner.\\n     *\\n     * Emits an {Approval} event.\\n     *\\n     * Overrides to this logic should be done to the variant with an additional `bool emitEvent` argument.\\n     */\\n    function _approve(address to, uint256 tokenId, address auth) internal {\\n        _approve(to, tokenId, auth, true);\\n    }\\n\\n    /**\\n     * @dev Variant of `_approve` with an optional flag to enable or disable the {Approval} event. The event is not\\n     * emitted in the context of transfers.\\n     */\\n    function _approve(address to, uint256 tokenId, address auth, bool emitEvent) internal virtual {\\n        ERC721Storage storage $ = _getERC721Storage();\\n        // Avoid reading the owner unless necessary\\n        if (emitEvent || auth != address(0)) {\\n            address owner = _requireOwned(tokenId);\\n\\n            // We do not use _isAuthorized because single-token approvals should not be able to call approve\\n            if (auth != address(0) && owner != auth && !isApprovedForAll(owner, auth)) {\\n                revert ERC721InvalidApprover(auth);\\n            }\\n\\n            if (emitEvent) {\\n                emit Approval(owner, to, tokenId);\\n            }\\n        }\\n\\n        $._tokenApprovals[tokenId] = to;\\n    }\\n\\n    /**\\n     * @dev Approve `operator` to operate on all of `owner` tokens\\n     *\\n     * Requirements:\\n     * - operator can't be the address zero.\\n     *\\n     * Emits an {ApprovalForAll} event.\\n     */\\n    function _setApprovalForAll(address owner, address operator, bool approved) internal virtual {\\n        ERC721Storage storage $ = _getERC721Storage();\\n        if (operator == address(0)) {\\n            revert ERC721InvalidOperator(operator);\\n        }\\n        $._operatorApprovals[owner][operator] = approved;\\n        emit ApprovalForAll(owner, operator, approved);\\n    }\\n\\n    /**\\n     * @dev Reverts if the `tokenId` doesn't have a current owner (it hasn't been minted, or it has been burned).\\n     * Returns the owner.\\n     *\\n     * Overrides to ownership logic should be done to {_ownerOf}.\\n     */\\n    function _requireOwned(uint256 tokenId) internal view returns (address) {\\n        address owner = _ownerOf(tokenId);\\n        if (owner == address(0)) {\\n            revert ERC721NonexistentToken(tokenId);\\n        }\\n        return owner;\\n    }\\n\\n    /**\\n     * @dev Private function to invoke {IERC721Receiver-onERC721Received} on a target address. This will revert if the\\n     * recipient doesn't accept the token transfer. The call is not executed if the target address is not a contract.\\n     *\\n     * @param from address representing the previous owner of the given token ID\\n     * @param to target address that will receive the tokens\\n     * @param tokenId uint256 ID of the token to be transferred\\n     * @param data bytes optional data to send along with the call\\n     */\\n    function _checkOnERC721Received(address from, address to, uint256 tokenId, bytes memory data) private {\\n        if (to.code.length > 0) {\\n            try IERC721Receiver(to).onERC721Received(_msgSender(), from, tokenId, data) returns (bytes4 retval) {\\n                if (retval != IERC721Receiver.onERC721Received.selector) {\\n                    revert ERC721InvalidReceiver(to);\\n                }\\n            } catch (bytes memory reason) {\\n                if (reason.length == 0) {\\n                    revert ERC721InvalidReceiver(to);\\n                } else {\\n                    /// @solidity memory-safe-assembly\\n                    assembly {\\n                        revert(add(32, reason), mload(reason))\\n                    }\\n                }\\n            }\\n        }\\n    }\\n}\\n\"},\"@openzeppelin/contracts-upgradeable@5.0.0/proxy/utils/Initializable.sol\":{\"content\":\"// SPDX-License-Identifier: MIT\\n// OpenZeppelin Contracts (last updated v5.0.0) (proxy/utils/Initializable.sol)\\n\\npragma solidity ^0.8.20;\\n\\n/**\\n * @dev This is a base contract to aid in writing upgradeable contracts, or any kind of contract that will be deployed\\n * behind a proxy. Since proxied contracts do not make use of a constructor, it's common to move constructor logic to an\\n * external initializer function, usually called `initialize`. It then becomes necessary to protect this initializer\\n * function so it can only be called once. The {initializer} modifier provided by this contract will have this effect.\\n *\\n * The initialization functions use a version number. Once a version number is used, it is consumed and cannot be\\n * reused. This mechanism prevents re-execution of each \\\"step\\\" but allows the creation of new initialization steps in\\n * case an upgrade adds a module that needs to be initialized.\\n *\\n * For example:\\n *\\n * [.hljs-theme-light.nopadding]\\n * ```solidity\\n * contract MyToken is ERC20Upgradeable {\\n *     function initialize() initializer public {\\n *         __ERC20_init(\\\"MyToken\\\", \\\"MTK\\\");\\n *     }\\n * }\\n *\\n * contract MyTokenV2 is MyToken, ERC20PermitUpgradeable {\\n *     function initializeV2() reinitializer(2) public {\\n *         __ERC20Permit_init(\\\"MyToken\\\");\\n *     }\\n * }\\n * ```\\n *\\n * TIP: To avoid leaving the proxy in an uninitialized state, the initializer function should be called as early as\\n * possible by providing the encoded function call as the `_data` argument to {ERC1967Proxy-constructor}.\\n *\\n * CAUTION: When used with inheritance, manual care must be taken to not invoke a parent initializer twice, or to ensure\\n * that all initializers are idempotent. This is not verified automatically as constructors are by Solidity.\\n *\\n * [CAUTION]\\n * ====\\n * Avoid leaving a contract uninitialized.\\n *\\n * An uninitialized contract can be taken over by an attacker. This applies to both a proxy and its implementation\\n * contract, which may impact the proxy. To prevent the implementation contract from being used, you should invoke\\n * the {_disableInitializers} function in the constructor to automatically lock it when it is deployed:\\n *\\n * [.hljs-theme-light.nopadding]\\n * ```\\n * /// @custom:oz-upgrades-unsafe-allow constructor\\n * constructor() {\\n *     _disableInitializers();\\n * }\\n * ```\\n * ====\\n */\\nabstract contract Initializable {\\n    /**\\n     * @dev Storage of the initializable contract.\\n     *\\n     * It's implemented on a custom ERC-7201 namespace to reduce the risk of storage collisions\\n     * when using with upgradeable contracts.\\n     *\\n     * @custom:storage-location erc7201:openzeppelin.storage.Initializable\\n     */\\n    struct InitializableStorage {\\n        /**\\n         * @dev Indicates that the contract has been initialized.\\n         */\\n        uint64 _initialized;\\n        /**\\n         * @dev Indicates that the contract is in the process of being initialized.\\n         */\\n        bool _initializing;\\n    }\\n\\n    // keccak256(abi.encode(uint256(keccak256(\\\"openzeppelin.storage.Initializable\\\")) - 1)) & ~bytes32(uint256(0xff))\\n    bytes32 private constant INITIALIZABLE_STORAGE = 0xf0c57e16840df040f15088dc2f81fe391c3923bec73e23a9662efc9c229c6a00;\\n\\n    /**\\n     * @dev The contract is already initialized.\\n     */\\n    error InvalidInitialization();\\n\\n    /**\\n     * @dev The contract is not initializing.\\n     */\\n    error NotInitializing();\\n\\n    /**\\n     * @dev Triggered when the contract has been initialized or reinitialized.\\n     */\\n    event Initialized(uint64 version);\\n\\n    /**\\n     * @dev A modifier that defines a protected initializer function that can be invoked at most once. In its scope,\\n     * `onlyInitializing` functions can be used to initialize parent contracts.\\n     *\\n     * Similar to `reinitializer(1)`, except that in the context of a constructor an `initializer` may be invoked any\\n     * number of times. This behavior in the constructor can be useful during testing and is not expected to be used in\\n     * production.\\n     *\\n     * Emits an {Initialized} event.\\n     */\\n    modifier initializer() {\\n        // solhint-disable-next-line var-name-mixedcase\\n        InitializableStorage storage $ = _getInitializableStorage();\\n\\n        // Cache values to avoid duplicated sloads\\n        bool isTopLevelCall = !$._initializing;\\n        uint64 initialized = $._initialized;\\n\\n        // Allowed calls:\\n        // - initialSetup: the contract is not in the initializing state and no previous version was\\n        //                 initialized\\n        // - construction: the contract is initialized at version 1 (no reininitialization) and the\\n        //                 current contract is just being deployed\\n        bool initialSetup = initialized == 0 && isTopLevelCall;\\n        bool construction = initialized == 1 && address(this).code.length == 0;\\n\\n        if (!initialSetup && !construction) {\\n            revert InvalidInitialization();\\n        }\\n        $._initialized = 1;\\n        if (isTopLevelCall) {\\n            $._initializing = true;\\n        }\\n        _;\\n        if (isTopLevelCall) {\\n            $._initializing = false;\\n            emit Initialized(1);\\n        }\\n    }\\n\\n    /**\\n     * @dev A modifier that defines a protected reinitializer function that can be invoked at most once, and only if the\\n     * contract hasn't been initialized to a greater version before. In its scope, `onlyInitializing` functions can be\\n     * used to initialize parent contracts.\\n     *\\n     * A reinitializer may be used after the original initialization step. This is essential to configure modules that\\n     * are added through upgrades and that require initialization.\\n     *\\n     * When `version` is 1, this modifier is similar to `initializer`, except that functions marked with `reinitializer`\\n     * cannot be nested. If one is invoked in the context of another, execution will revert.\\n     *\\n     * Note that versions can jump in increments greater than 1; this implies that if multiple reinitializers coexist in\\n     * a contract, executing them in the right order is up to the developer or operator.\\n     *\\n     * WARNING: Setting the version to 2**64 - 1 will prevent any future reinitialization.\\n     *\\n     * Emits an {Initialized} event.\\n     */\\n    modifier reinitializer(uint64 version) {\\n        // solhint-disable-next-line var-name-mixedcase\\n        InitializableStorage storage $ = _getInitializableStorage();\\n\\n        if ($._initializing || $._initialized >= version) {\\n            revert InvalidInitialization();\\n        }\\n        $._initialized = version;\\n        $._initializing = true;\\n        _;\\n        $._initializing = false;\\n        emit Initialized(version);\\n    }\\n\\n    /**\\n     * @dev Modifier to protect an initialization function so that it can only be invoked by functions with the\\n     * {initializer} and {reinitializer} modifiers, directly or indirectly.\\n     */\\n    modifier onlyInitializing() {\\n        _checkInitializing();\\n        _;\\n    }\\n\\n    /**\\n     * @dev Reverts if the contract is not in an initializing state. See {onlyInitializing}.\\n     */\\n    function _checkInitializing() internal view virtual {\\n        if (!_isInitializing()) {\\n            revert NotInitializing();\\n        }\\n    }\\n\\n    /**\\n     * @dev Locks the contract, preventing any future reinitialization. This cannot be part of an initializer call.\\n     * Calling this in the constructor of a contract will prevent that contract from being initialized or reinitialized\\n     * to any version. It is recommended to use this to lock implementation contracts that are designed to be called\\n     * through proxies.\\n     *\\n     * Emits an {Initialized} event the first time it is successfully executed.\\n     */\\n    function _disableInitializers() internal virtual {\\n        // solhint-disable-next-line var-name-mixedcase\\n        InitializableStorage storage $ = _getInitializableStorage();\\n\\n        if ($._initializing) {\\n            revert InvalidInitialization();\\n        }\\n        if ($._initialized != type(uint64).max) {\\n            $._initialized = type(uint64).max;\\n            emit Initialized(type(uint64).max);\\n        }\\n    }\\n\\n    /**\\n     * @dev Returns the highest version that has been initialized. See {reinitializer}.\\n     */\\n    function _getInitializedVersion() internal view returns (uint64) {\\n        return _getInitializableStorage()._initialized;\\n    }\\n\\n    /**\\n     * @dev Returns `true` if the contract is currently initializing. See {onlyInitializing}.\\n     */\\n    function _isInitializing() internal view returns (bool) {\\n        return _getInitializableStorage()._initializing;\\n    }\\n\\n    /**\\n     * @dev Returns a pointer to the storage namespace.\\n     */\\n    // solhint-disable-next-line var-name-mixedcase\\n    function _getInitializableStorage() private pure returns (InitializableStorage storage $) {\\n        assembly {\\n            $.slot := INITIALIZABLE_STORAGE\\n        }\\n    }\\n}\\n\"},\"@openzeppelin/contracts/utils/introspection/IERC165.sol\":{\"content\":\"// SPDX-License-Identifier: MIT\\n// OpenZeppelin Contracts (last updated v5.0.0) (utils/introspection/IERC165.sol)\\n\\npragma solidity ^0.8.20;\\n\\n/**\\n * @dev Interface of the ERC165 standard, as defined in the\\n * https://eips.ethereum.org/EIPS/eip-165[EIP].\\n *\\n * Implementers can declare support of contract interfaces, which can then be\\n * queried by others ({ERC165Checker}).\\n *\\n * For an implementation, see {ERC165}.\\n */\\ninterface IERC165 {\\n    /**\\n     * @dev Returns true if this contract implements the interface defined by\\n     * `interfaceId`. See the corresponding\\n     * https://eips.ethereum.org/EIPS/eip-165#how-interfaces-are-identified[EIP section]\\n     * to learn more about how these ids are created.\\n     *\\n     * This function call must use less than 30 000 gas.\\n     */\\n    function supportsInterface(bytes4 interfaceId) external view returns (bool);\\n}\\n\"},\"@openzeppelin/contracts/interfaces/IERC5267.sol\":{\"content\":\"// SPDX-License-Identifier: MIT\\n// OpenZeppelin Contracts (last updated v5.0.0) (interfaces/IERC5267.sol)\\n\\npragma solidity ^0.8.20;\\n\\ninterface IERC5267 {\\n    /**\\n     * @dev MAY be emitted to signal that the domain could have changed.\\n     */\\n    event EIP712DomainChanged();\\n\\n    /**\\n     * @dev returns the fields and values that describe the domain separator used by this contract for EIP-712\\n     * signature.\\n     */\\n    function eip712Domain()\\n        external\\n        view\\n        returns (\\n            bytes1 fields,\\n            string memory name,\\n            string memory version,\\n            uint256 chainId,\\n            address verifyingContract,\\n            bytes32 salt,\\n            uint256[] memory extensions\\n        );\\n}\\n\"},\"@openzeppelin/contracts/utils/cryptography/MessageHashUtils.sol\":{\"content\":\"// SPDX-License-Identifier: MIT\\n// OpenZeppelin Contracts (last updated v5.0.0) (utils/cryptography/MessageHashUtils.sol)\\n\\npragma solidity ^0.8.20;\\n\\nimport {Strings} from \\\"../Strings.sol\\\";\\n\\n/**\\n * @dev Signature message hash utilities for producing digests to be consumed by {ECDSA} recovery or signing.\\n *\\n * The library provides methods for generating a hash of a message that conforms to the\\n * https://eips.ethereum.org/EIPS/eip-191[EIP 191] and https://eips.ethereum.org/EIPS/eip-712[EIP 712]\\n * specifications.\\n */\\nlibrary MessageHashUtils {\\n    /**\\n     * @dev Returns the keccak256 digest of an EIP-191 signed data with version\\n     * `0x45` (`personal_sign` messages).\\n     *\\n     * The digest is calculated by prefixing a bytes32 `messageHash` with\\n     * `\\\"\\\\x19Ethereum Signed Message:\\\\n32\\\"` and hashing the result. It corresponds with the\\n     * hash signed when using the https://eth.wiki/json-rpc/API#eth_sign[`eth_sign`] JSON-RPC method.\\n     *\\n     * NOTE: The `messageHash` parameter is intended to be the result of hashing a raw message with\\n     * keccak256, although any bytes32 value can be safely used because the final digest will\\n     * be re-hashed.\\n     *\\n     * See {ECDSA-recover}.\\n     */\\n    function toEthSignedMessageHash(bytes32 messageHash) internal pure returns (bytes32 digest) {\\n        /// @solidity memory-safe-assembly\\n        assembly {\\n            mstore(0x00, \\\"\\\\x19Ethereum Signed Message:\\\\n32\\\") // 32 is the bytes-length of messageHash\\n            mstore(0x1c, messageHash) // 0x1c (28) is the length of the prefix\\n            digest := keccak256(0x00, 0x3c) // 0x3c is the length of the prefix (0x1c) + messageHash (0x20)\\n        }\\n    }\\n\\n    /**\\n     * @dev Returns the keccak256 digest of an EIP-191 signed data with version\\n     * `0x45` (`personal_sign` messages).\\n     *\\n     * The digest is calculated by prefixing an arbitrary `message` with\\n     * `\\\"\\\\x19Ethereum Signed Message:\\\\n\\\" + len(message)` and hashing the result. It corresponds with the\\n     * hash signed when using the https://eth.wiki/json-rpc/API#eth_sign[`eth_sign`] JSON-RPC method.\\n     *\\n     * See {ECDSA-recover}.\\n     */\\n    function toEthSignedMessageHash(bytes memory message) internal pure returns (bytes32) {\\n        return\\n            keccak256(bytes.concat(\\\"\\\\x19Ethereum Signed Message:\\\\n\\\", bytes(Strings.toString(message.length)), message));\\n    }\\n\\n    /**\\n     * @dev Returns the keccak256 digest of an EIP-191 signed data with version\\n     * `0x00` (data with intended validator).\\n     *\\n     * The digest is calculated by prefixing an arbitrary `data` with `\\\"\\\\x19\\\\x00\\\"` and the intended\\n     * `validator` address. Then hashing the result.\\n     *\\n     * See {ECDSA-recover}.\\n     */\\n    function toDataWithIntendedValidatorHash(address validator, bytes memory data) internal pure returns (bytes32) {\\n        return keccak256(abi.encodePacked(hex\\\"19_00\\\", validator, data));\\n    }\\n\\n    /**\\n     * @dev Returns the keccak256 digest of an EIP-712 typed data (EIP-191 version `0x01`).\\n     *\\n     * The digest is calculated from a `domainSeparator` and a `structHash`, by prefixing them with\\n     * `\\\\x19\\\\x01` and hashing the result. It corresponds to the hash signed by the\\n     * https://eips.ethereum.org/EIPS/eip-712[`eth_signTypedData`] JSON-RPC method as part of EIP-712.\\n     *\\n     * See {ECDSA-recover}.\\n     */\\n    function toTypedDataHash(bytes32 domainSeparator, bytes32 structHash) internal pure returns (bytes32 digest) {\\n        /// @solidity memory-safe-assembly\\n        assembly {\\n            let ptr := mload(0x40)\\n            mstore(ptr, hex\\\"19_01\\\")\\n            mstore(add(ptr, 0x02), domainSeparator)\\n            mstore(add(ptr, 0x22), structHash)\\n            digest := keccak256(ptr, 0x42)\\n        }\\n    }\\n}\\n\"},\"@openzeppelin/contracts/utils/Address.sol\":{\"content\":\"// SPDX-License-Identifier: MIT\\n// OpenZeppelin Contracts (last updated v5.0.0) (utils/Address.sol)\\n\\npragma solidity ^0.8.20;\\n\\n/**\\n * @dev Collection of functions related to the address type\\n */\\nlibrary Address {\\n    /**\\n     * @dev The ETH balance of the account is not enough to perform the operation.\\n     */\\n    error AddressInsufficientBalance(address account);\\n\\n    /**\\n     * @dev There's no code at `target` (it is not a contract).\\n     */\\n    error AddressEmptyCode(address target);\\n\\n    /**\\n     * @dev A call to an address target failed. The target may have reverted.\\n     */\\n    error FailedInnerCall();\\n\\n    /**\\n     * @dev Replacement for Solidity's `transfer`: sends `amount` wei to\\n     * `recipient`, forwarding all available gas and reverting on errors.\\n     *\\n     * https://eips.ethereum.org/EIPS/eip-1884[EIP1884] increases the gas cost\\n     * of certain opcodes, possibly making contracts go over the 2300 gas limit\\n     * imposed by `transfer`, making them unable to receive funds via\\n     * `transfer`. {sendValue} removes this limitation.\\n     *\\n     * https://consensys.net/diligence/blog/2019/09/stop-using-soliditys-transfer-now/[Learn more].\\n     *\\n     * IMPORTANT: because control is transferred to `recipient`, care must be\\n     * taken to not create reentrancy vulnerabilities. Consider using\\n     * {ReentrancyGuard} or the\\n     * https://solidity.readthedocs.io/en/v0.8.20/security-considerations.html#use-the-checks-effects-interactions-pattern[checks-effects-interactions pattern].\\n     */\\n    function sendValue(address payable recipient, uint256 amount) internal {\\n        if (address(this).balance < amount) {\\n            revert AddressInsufficientBalance(address(this));\\n        }\\n\\n        (bool success, ) = recipient.call{value: amount}(\\\"\\\");\\n        if (!success) {\\n            revert FailedInnerCall();\\n        }\\n    }\\n\\n    /**\\n     * @dev Performs a Solidity function call using a low level `call`. A\\n     * plain `call` is an unsafe replacement for a function call: use this\\n     * function instead.\\n     *\\n     * If `target` reverts with a revert reason or custom error, it is bubbled\\n     * up by this function (like regular Solidity function calls). However, if\\n     * the call reverted with no returned reason, this function reverts with a\\n     * {FailedInnerCall} error.\\n     *\\n     * Returns the raw returned data. To convert to the expected return value,\\n     * use https://solidity.readthedocs.io/en/latest/units-and-global-variables.html?highlight=abi.decode#abi-encoding-and-decoding-functions[`abi.decode`].\\n     *\\n     * Requirements:\\n     *\\n     * - `target` must be a contract.\\n     * - calling `target` with `data` must not revert.\\n     */\\n    function functionCall(address target, bytes memory data) internal returns (bytes memory) {\\n        return functionCallWithValue(target, data, 0);\\n    }\\n\\n    /**\\n     * @dev Same as {xref-Address-functionCall-address-bytes-}[`functionCall`],\\n     * but also transferring `value` wei to `target`.\\n     *\\n     * Requirements:\\n     *\\n     * - the calling contract must have an ETH balance of at least `value`.\\n     * - the called Solidity function must be `payable`.\\n     */\\n    function functionCallWithValue(address target, bytes memory data, uint256 value) internal returns (bytes memory) {\\n        if (address(this).balance < value) {\\n            revert AddressInsufficientBalance(address(this));\\n        }\\n        (bool success, bytes memory returndata) = target.call{value: value}(data);\\n        return verifyCallResultFromTarget(target, success, returndata);\\n    }\\n\\n    /**\\n     * @dev Same as {xref-Address-functionCall-address-bytes-}[`functionCall`],\\n     * but performing a static call.\\n     */\\n    function functionStaticCall(address target, bytes memory data) internal view returns (bytes memory) {\\n        (bool success, bytes memory returndata) = target.staticcall(data);\\n        return verifyCallResultFromTarget(target, success, returndata);\\n    }\\n\\n    /**\\n     * @dev Same as {xref-Address-functionCall-address-bytes-}[`functionCall`],\\n     * but performing a delegate call.\\n     */\\n    function functionDelegateCall(address target, bytes memory data) internal returns (bytes memory) {\\n        (bool success, bytes memory returndata) = target.delegatecall(data);\\n        return verifyCallResultFromTarget(target, success, returndata);\\n    }\\n\\n    /**\\n     * @dev Tool to verify that a low level call to smart-contract was successful, and reverts if the target\\n     * was not a contract or bubbling up the revert reason (falling back to {FailedInnerCall}) in case of an\\n     * unsuccessful call.\\n     */\\n    function verifyCallResultFromTarget(\\n        address target,\\n        bool success,\\n        bytes memory returndata\\n    ) internal view returns (bytes memory) {\\n        if (!success) {\\n            _revert(returndata);\\n        } else {\\n            // only check if target is a contract if the call was successful and the return data is empty\\n            // otherwise we already know that it was a contract\\n            if (returndata.length == 0 && target.code.length == 0) {\\n                revert AddressEmptyCode(target);\\n            }\\n            return returndata;\\n        }\\n    }\\n\\n    /**\\n     * @dev Tool to verify that a low level call was successful, and reverts if it wasn't, either by bubbling the\\n     * revert reason or with a default {FailedInnerCall} error.\\n     */\\n    function verifyCallResult(bool success, bytes memory returndata) internal pure returns (bytes memory) {\\n        if (!success) {\\n            _revert(returndata);\\n        } else {\\n            return returndata;\\n        }\\n    }\\n\\n    /**\\n     * @dev Reverts with returndata if present. Otherwise reverts with {FailedInnerCall}.\\n     */\\n    function _revert(bytes memory returndata) private pure {\\n        // Look for revert reason and bubble it up if present\\n        if (returndata.length > 0) {\\n            // The easiest way to bubble the revert reason is using memory via assembly\\n            /// @solidity memory-safe-assembly\\n            assembly {\\n                let returndata_size := mload(returndata)\\n                revert(add(32, returndata), returndata_size)\\n            }\\n        } else {\\n            revert FailedInnerCall();\\n        }\\n    }\\n}\\n\"},\"@openzeppelin/contracts/interfaces/IERC2981.sol\":{\"content\":\"// SPDX-License-Identifier: MIT\\n// OpenZeppelin Contracts (last updated v5.0.0) (interfaces/IERC2981.sol)\\n\\npragma solidity ^0.8.20;\\n\\nimport {IERC165} from \\\"../utils/introspection/IERC165.sol\\\";\\n\\n/**\\n * @dev Interface for the NFT Royalty Standard.\\n *\\n * A standardized way to retrieve royalty payment information for non-fungible tokens (NFTs) to enable universal\\n * support for royalty payments across all NFT marketplaces and ecosystem participants.\\n */\\ninterface IERC2981 is IERC165 {\\n    /**\\n     * @dev Returns how much royalty is owed and to whom, based on a sale price that may be denominated in any unit of\\n     * exchange. The royalty amount is denominated and should be paid in that same unit of exchange.\\n     */\\n    function royaltyInfo(\\n        uint256 tokenId,\\n        uint256 salePrice\\n    ) external view returns (address receiver, uint256 royaltyAmount);\\n}\\n\"},\"@openzeppelin/contracts/token/ERC721/IERC721Receiver.sol\":{\"content\":\"// SPDX-License-Identifier: MIT\\n// OpenZeppelin Contracts (last updated v5.0.0) (token/ERC721/IERC721Receiver.sol)\\n\\npragma solidity ^0.8.20;\\n\\n/**\\n * @title ERC721 token receiver interface\\n * @dev Interface for any contract that wants to support safeTransfers\\n * from ERC721 asset contracts.\\n */\\ninterface IERC721Receiver {\\n    /**\\n     * @dev Whenever an {IERC721} `tokenId` token is transferred to this contract via {IERC721-safeTransferFrom}\\n     * by `operator` from `from`, this function is called.\\n     *\\n     * It must return its Solidity selector to confirm the token transfer.\\n     * If any other value is returned or the interface is not implemented by the recipient, the transfer will be\\n     * reverted.\\n     *\\n     * The selector can be obtained in Solidity with `IERC721Receiver.onERC721Received.selector`.\\n     */\\n    function onERC721Received(\\n        address operator,\\n        address from,\\n        uint256 tokenId,\\n        bytes calldata data\\n    ) external returns (bytes4);\\n}\\n\"},\"@openzeppelin/contracts/token/ERC721/IERC721.sol\":{\"content\":\"// SPDX-License-Identifier: MIT\\n// OpenZeppelin Contracts (last updated v5.0.0) (token/ERC721/IERC721.sol)\\n\\npragma solidity ^0.8.20;\\n\\nimport {IERC165} from \\\"../../utils/introspection/IERC165.sol\\\";\\n\\n/**\\n * @dev Required interface of an ERC721 compliant contract.\\n */\\ninterface IERC721 is IERC165 {\\n    /**\\n     * @dev Emitted when `tokenId` token is transferred from `from` to `to`.\\n     */\\n    event Transfer(address indexed from, address indexed to, uint256 indexed tokenId);\\n\\n    /**\\n     * @dev Emitted when `owner` enables `approved` to manage the `tokenId` token.\\n     */\\n    event Approval(address indexed owner, address indexed approved, uint256 indexed tokenId);\\n\\n    /**\\n     * @dev Emitted when `owner` enables or disables (`approved`) `operator` to manage all of its assets.\\n     */\\n    event ApprovalForAll(address indexed owner, address indexed operator, bool approved);\\n\\n    /**\\n     * @dev Returns the number of tokens in ``owner``'s account.\\n     */\\n    function balanceOf(address owner) external view returns (uint256 balance);\\n\\n    /**\\n     * @dev Returns the owner of the `tokenId` token.\\n     *\\n     * Requirements:\\n     *\\n     * - `tokenId` must exist.\\n     */\\n    function ownerOf(uint256 tokenId) external view returns (address owner);\\n\\n    /**\\n     * @dev Safely transfers `tokenId` token from `from` to `to`.\\n     *\\n     * Requirements:\\n     *\\n     * - `from` cannot be the zero address.\\n     * - `to` cannot be the zero address.\\n     * - `tokenId` token must exist and be owned by `from`.\\n     * - If the caller is not `from`, it must be approved to move this token by either {approve} or {setApprovalForAll}.\\n     * - If `to` refers to a smart contract, it must implement {IERC721Receiver-onERC721Received}, which is called upon\\n     *   a safe transfer.\\n     *\\n     * Emits a {Transfer} event.\\n     */\\n    function safeTransferFrom(address from, address to, uint256 tokenId, bytes calldata data) external;\\n\\n    /**\\n     * @dev Safely transfers `tokenId` token from `from` to `to`, checking first that contract recipients\\n     * are aware of the ERC721 protocol to prevent tokens from being forever locked.\\n     *\\n     * Requirements:\\n     *\\n     * - `from` cannot be the zero address.\\n     * - `to` cannot be the zero address.\\n     * - `tokenId` token must exist and be owned by `from`.\\n     * - If the caller is not `from`, it must have been allowed to move this token by either {approve} or\\n     *   {setApprovalForAll}.\\n     * - If `to` refers to a smart contract, it must implement {IERC721Receiver-onERC721Received}, which is called upon\\n     *   a safe transfer.\\n     *\\n     * Emits a {Transfer} event.\\n     */\\n    function safeTransferFrom(address from, address to, uint256 tokenId) external;\\n\\n    /**\\n     * @dev Transfers `tokenId` token from `from` to `to`.\\n     *\\n     * WARNING: Note that the caller is responsible to confirm that the recipient is capable of receiving ERC721\\n     * or else they may be permanently lost. Usage of {safeTransferFrom} prevents loss, though the caller must\\n     * understand this adds an external call which potentially creates a reentrancy vulnerability.\\n     *\\n     * Requirements:\\n     *\\n     * - `from` cannot be the zero address.\\n     * - `to` cannot be the zero address.\\n     * - `tokenId` token must be owned by `from`.\\n     * - If the caller is not `from`, it must be approved to move this token by either {approve} or {setApprovalForAll}.\\n     *\\n     * Emits a {Transfer} event.\\n     */\\n    function transferFrom(address from, address to, uint256 tokenId) external;\\n\\n    /**\\n     * @dev Gives permission to `to` to transfer `tokenId` token to another account.\\n     * The approval is cleared when the token is transferred.\\n     *\\n     * Only a single account can be approved at a time, so approving the zero address clears previous approvals.\\n     *\\n     * Requirements:\\n     *\\n     * - The caller must own the token or be an approved operator.\\n     * - `tokenId` must exist.\\n     *\\n     * Emits an {Approval} event.\\n     */\\n    function approve(address to, uint256 tokenId) external;\\n\\n    /**\\n     * @dev Approve or remove `operator` as an operator for the caller.\\n     * Operators can call {transferFrom} or {safeTransferFrom} for any token owned by the caller.\\n     *\\n     * Requirements:\\n     *\\n     * - The `operator` cannot be the address zero.\\n     *\\n     * Emits an {ApprovalForAll} event.\\n     */\\n    function setApprovalForAll(address operator, bool approved) external;\\n\\n    /**\\n     * @dev Returns the account approved for `tokenId` token.\\n     *\\n     * Requirements:\\n     *\\n     * - `tokenId` must exist.\\n     */\\n    function getApproved(uint256 tokenId) external view returns (address operator);\\n\\n    /**\\n     * @dev Returns if the `operator` is allowed to manage all of the assets of `owner`.\\n     *\\n     * See {setApprovalForAll}\\n     */\\n    function isApprovedForAll(address owner, address operator) external view returns (bool);\\n}\\n\"},\"@openzeppelin/contracts/interfaces/IERC4906.sol\":{\"content\":\"// SPDX-License-Identifier: MIT\\n// OpenZeppelin Contracts (last updated v5.0.0) (interfaces/IERC4906.sol)\\n\\npragma solidity ^0.8.20;\\n\\nimport {IERC165} from \\\"./IERC165.sol\\\";\\nimport {IERC721} from \\\"./IERC721.sol\\\";\\n\\n/// @title EIP-721 Metadata Update Extension\\ninterface IERC4906 is IERC165, IERC721 {\\n    /// @dev This event emits when the metadata of a token is changed.\\n    /// So that the third-party platforms such as NFT market could\\n    /// timely update the images and related attributes of the NFT.\\n    event MetadataUpdate(uint256 _tokenId);\\n\\n    /// @dev This event emits when the metadata of a range of tokens is changed.\\n    /// So that the third-party platforms such as NFT market could\\n    /// timely update the images and related attributes of the NFTs.\\n    event BatchMetadataUpdate(uint256 _fromTokenId, uint256 _toTokenId);\\n}\\n\"},\"@openzeppelin/contracts/utils/Strings.sol\":{\"content\":\"// SPDX-License-Identifier: MIT\\n// OpenZeppelin Contracts (last updated v5.0.0) (utils/Strings.sol)\\n\\npragma solidity ^0.8.20;\\n\\nimport {Math} from \\\"./math/Math.sol\\\";\\nimport {SignedMath} from \\\"./math/SignedMath.sol\\\";\\n\\n/**\\n * @dev String operations.\\n */\\nlibrary Strings {\\n    bytes16 private constant HEX_DIGITS = \\\"0123456789abcdef\\\";\\n    uint8 private constant ADDRESS_LENGTH = 20;\\n\\n    /**\\n     * @dev The `value` string doesn't fit in the specified `length`.\\n     */\\n    error StringsInsufficientHexLength(uint256 value, uint256 length);\\n\\n    /**\\n     * @dev Converts a `uint256` to its ASCII `string` decimal representation.\\n     */\\n    function toString(uint256 value) internal pure returns (string memory) {\\n        unchecked {\\n            uint256 length = Math.log10(value) + 1;\\n            string memory buffer = new string(length);\\n            uint256 ptr;\\n            /// @solidity memory-safe-assembly\\n            assembly {\\n                ptr := add(buffer, add(32, length))\\n            }\\n            while (true) {\\n                ptr--;\\n                /// @solidity memory-safe-assembly\\n                assembly {\\n                    mstore8(ptr, byte(mod(value, 10), HEX_DIGITS))\\n                }\\n                value /= 10;\\n                if (value == 0) break;\\n            }\\n            return buffer;\\n        }\\n    }\\n\\n    /**\\n     * @dev Converts a `int256` to its ASCII `string` decimal representation.\\n     */\\n    function toStringSigned(int256 value) internal pure returns (string memory) {\\n        return string.concat(value < 0 ? \\\"-\\\" : \\\"\\\", toString(SignedMath.abs(value)));\\n    }\\n\\n    /**\\n     * @dev Converts a `uint256` to its ASCII `string` hexadecimal representation.\\n     */\\n    function toHexString(uint256 value) internal pure returns (string memory) {\\n        unchecked {\\n            return toHexString(value, Math.log256(value) + 1);\\n        }\\n    }\\n\\n    /**\\n     * @dev Converts a `uint256` to its ASCII `string` hexadecimal representation with fixed length.\\n     */\\n    function toHexString(uint256 value, uint256 length) internal pure returns (string memory) {\\n        uint256 localValue = value;\\n        bytes memory buffer = new bytes(2 * length + 2);\\n        buffer[0] = \\\"0\\\";\\n        buffer[1] = \\\"x\\\";\\n        for (uint256 i = 2 * length + 1; i > 1; --i) {\\n            buffer[i] = HEX_DIGITS[localValue & 0xf];\\n            localValue >>= 4;\\n        }\\n        if (localValue != 0) {\\n            revert StringsInsufficientHexLength(value, length);\\n        }\\n        return string(buffer);\\n    }\\n\\n    /**\\n     * @dev Converts an `address` with fixed length of 20 bytes to its not checksummed ASCII `string` hexadecimal\\n     * representation.\\n     */\\n    function toHexString(address addr) internal pure returns (string memory) {\\n        return toHexString(uint256(uint160(addr)), ADDRESS_LENGTH);\\n    }\\n\\n    /**\\n     * @dev Returns true if the two strings are equal.\\n     */\\n    function equal(string memory a, string memory b) internal pure returns (bool) {\\n        return bytes(a).length == bytes(b).length && keccak256(bytes(a)) == keccak256(bytes(b));\\n    }\\n}\\n\"},\"@openzeppelin/contracts/token/ERC721/extensions/IERC721Enumerable.sol\":{\"content\":\"// SPDX-License-Identifier: MIT\\n// OpenZeppelin Contracts (last updated v5.0.0) (token/ERC721/extensions/IERC721Enumerable.sol)\\n\\npragma solidity ^0.8.20;\\n\\nimport {IERC721} from \\\"../IERC721.sol\\\";\\n\\n/**\\n * @title ERC-721 Non-Fungible Token Standard, optional enumeration extension\\n * @dev See https://eips.ethereum.org/EIPS/eip-721\\n */\\ninterface IERC721Enumerable is IERC721 {\\n    /**\\n     * @dev Returns the total amount of tokens stored by the contract.\\n     */\\n    function totalSupply() external view returns (uint256);\\n\\n    /**\\n     * @dev Returns a token ID owned by `owner` at a given `index` of its token list.\\n     * Use along with {balanceOf} to enumerate all of ``owner``'s tokens.\\n     */\\n    function tokenOfOwnerByIndex(address owner, uint256 index) external view returns (uint256);\\n\\n    /**\\n     * @dev Returns a token ID at a given `index` of all the tokens stored by the contract.\\n     * Use along with {totalSupply} to enumerate all tokens.\\n     */\\n    function tokenByIndex(uint256 index) external view returns (uint256);\\n}\\n\"},\"@openzeppelin/contracts/utils/structs/Checkpoints.sol\":{\"content\":\"// SPDX-License-Identifier: MIT\\n// OpenZeppelin Contracts (last updated v5.0.0) (utils/structs/Checkpoints.sol)\\n// This file was procedurally generated from scripts/generate/templates/Checkpoints.js.\\n\\npragma solidity ^0.8.20;\\n\\nimport {Math} from \\\"../math/Math.sol\\\";\\n\\n/**\\n * @dev This library defines the `Trace*` struct, for checkpointing values as they change at different points in\\n * time, and later looking up past values by block number. See {Votes} as an example.\\n *\\n * To create a history of checkpoints define a variable type `Checkpoints.Trace*` in your contract, and store a new\\n * checkpoint for the current transaction block using the {push} function.\\n */\\nlibrary Checkpoints {\\n    /**\\n     * @dev A value was attempted to be inserted on a past checkpoint.\\n     */\\n    error CheckpointUnorderedInsertion();\\n\\n    struct Trace224 {\\n        Checkpoint224[] _checkpoints;\\n    }\\n\\n    struct Checkpoint224 {\\n        uint32 _key;\\n        uint224 _value;\\n    }\\n\\n    /**\\n     * @dev Pushes a (`key`, `value`) pair into a Trace224 so that it is stored as the checkpoint.\\n     *\\n     * Returns previous value and new value.\\n     *\\n     * IMPORTANT: Never accept `key` as a user input, since an arbitrary `type(uint32).max` key set will disable the\\n     * library.\\n     */\\n    function push(Trace224 storage self, uint32 key, uint224 value) internal returns (uint224, uint224) {\\n        return _insert(self._checkpoints, key, value);\\n    }\\n\\n    /**\\n     * @dev Returns the value in the first (oldest) checkpoint with key greater or equal than the search key, or zero if\\n     * there is none.\\n     */\\n    function lowerLookup(Trace224 storage self, uint32 key) internal view returns (uint224) {\\n        uint256 len = self._checkpoints.length;\\n        uint256 pos = _lowerBinaryLookup(self._checkpoints, key, 0, len);\\n        return pos == len ? 0 : _unsafeAccess(self._checkpoints, pos)._value;\\n    }\\n\\n    /**\\n     * @dev Returns the value in the last (most recent) checkpoint with key lower or equal than the search key, or zero\\n     * if there is none.\\n     */\\n    function upperLookup(Trace224 storage self, uint32 key) internal view returns (uint224) {\\n        uint256 len = self._checkpoints.length;\\n        uint256 pos = _upperBinaryLookup(self._checkpoints, key, 0, len);\\n        return pos == 0 ? 0 : _unsafeAccess(self._checkpoints, pos - 1)._value;\\n    }\\n\\n    /**\\n     * @dev Returns the value in the last (most recent) checkpoint with key lower or equal than the search key, or zero\\n     * if there is none.\\n     *\\n     * NOTE: This is a variant of {upperLookup} that is optimised to find \\\"recent\\\" checkpoint (checkpoints with high\\n     * keys).\\n     */\\n    function upperLookupRecent(Trace224 storage self, uint32 key) internal view returns (uint224) {\\n        uint256 len = self._checkpoints.length;\\n\\n        uint256 low = 0;\\n        uint256 high = len;\\n\\n        if (len > 5) {\\n            uint256 mid = len - Math.sqrt(len);\\n            if (key < _unsafeAccess(self._checkpoints, mid)._key) {\\n                high = mid;\\n            } else {\\n                low = mid + 1;\\n            }\\n        }\\n\\n        uint256 pos = _upperBinaryLookup(self._checkpoints, key, low, high);\\n\\n        return pos == 0 ? 0 : _unsafeAccess(self._checkpoints, pos - 1)._value;\\n    }\\n\\n    /**\\n     * @dev Returns the value in the most recent checkpoint, or zero if there are no checkpoints.\\n     */\\n    function latest(Trace224 storage self) internal view returns (uint224) {\\n        uint256 pos = self._checkpoints.length;\\n        return pos == 0 ? 0 : _unsafeAccess(self._checkpoints, pos - 1)._value;\\n    }\\n\\n    /**\\n     * @dev Returns whether there is a checkpoint in the structure (i.e. it is not empty), and if so the key and value\\n     * in the most recent checkpoint.\\n     */\\n    function latestCheckpoint(Trace224 storage self) internal view returns (bool exists, uint32 _key, uint224 _value) {\\n        uint256 pos = self._checkpoints.length;\\n        if (pos == 0) {\\n            return (false, 0, 0);\\n        } else {\\n            Checkpoint224 memory ckpt = _unsafeAccess(self._checkpoints, pos - 1);\\n            return (true, ckpt._key, ckpt._value);\\n        }\\n    }\\n\\n    /**\\n     * @dev Returns the number of checkpoint.\\n     */\\n    function length(Trace224 storage self) internal view returns (uint256) {\\n        return self._checkpoints.length;\\n    }\\n\\n    /**\\n     * @dev Returns checkpoint at given position.\\n     */\\n    function at(Trace224 storage self, uint32 pos) internal view returns (Checkpoint224 memory) {\\n        return self._checkpoints[pos];\\n    }\\n\\n    /**\\n     * @dev Pushes a (`key`, `value`) pair into an ordered list of checkpoints, either by inserting a new checkpoint,\\n     * or by updating the last one.\\n     */\\n    function _insert(Checkpoint224[] storage self, uint32 key, uint224 value) private returns (uint224, uint224) {\\n        uint256 pos = self.length;\\n\\n        if (pos > 0) {\\n            // Copying to memory is important here.\\n            Checkpoint224 memory last = _unsafeAccess(self, pos - 1);\\n\\n            // Checkpoint keys must be non-decreasing.\\n            if (last._key > key) {\\n                revert CheckpointUnorderedInsertion();\\n            }\\n\\n            // Update or push new checkpoint\\n            if (last._key == key) {\\n                _unsafeAccess(self, pos - 1)._value = value;\\n            } else {\\n                self.push(Checkpoint224({_key: key, _value: value}));\\n            }\\n            return (last._value, value);\\n        } else {\\n            self.push(Checkpoint224({_key: key, _value: value}));\\n            return (0, value);\\n        }\\n    }\\n\\n    /**\\n     * @dev Return the index of the last (most recent) checkpoint with key lower or equal than the search key, or `high`\\n     * if there is none. `low` and `high` define a section where to do the search, with inclusive `low` and exclusive\\n     * `high`.\\n     *\\n     * WARNING: `high` should not be greater than the array's length.\\n     */\\n    function _upperBinaryLookup(\\n        Checkpoint224[] storage self,\\n        uint32 key,\\n        uint256 low,\\n        uint256 high\\n    ) private view returns (uint256) {\\n        while (low < high) {\\n            uint256 mid = Math.average(low, high);\\n            if (_unsafeAccess(self, mid)._key > key) {\\n                high = mid;\\n            } else {\\n                low = mid + 1;\\n            }\\n        }\\n        return high;\\n    }\\n\\n    /**\\n     * @dev Return the index of the first (oldest) checkpoint with key is greater or equal than the search key, or\\n     * `high` if there is none. `low` and `high` define a section where to do the search, with inclusive `low` and\\n     * exclusive `high`.\\n     *\\n     * WARNING: `high` should not be greater than the array's length.\\n     */\\n    function _lowerBinaryLookup(\\n        Checkpoint224[] storage self,\\n        uint32 key,\\n        uint256 low,\\n        uint256 high\\n    ) private view returns (uint256) {\\n        while (low < high) {\\n            uint256 mid = Math.average(low, high);\\n            if (_unsafeAccess(self, mid)._key < key) {\\n                low = mid + 1;\\n            } else {\\n                high = mid;\\n            }\\n        }\\n        return high;\\n    }\\n\\n    /**\\n     * @dev Access an element of the array without performing bounds check. The position is assumed to be within bounds.\\n     */\\n    function _unsafeAccess(\\n        Checkpoint224[] storage self,\\n        uint256 pos\\n    ) private pure returns (Checkpoint224 storage result) {\\n        assembly {\\n            mstore(0, self.slot)\\n            result.slot := add(keccak256(0, 0x20), pos)\\n        }\\n    }\\n\\n    struct Trace208 {\\n        Checkpoint208[] _checkpoints;\\n    }\\n\\n    struct Checkpoint208 {\\n        uint48 _key;\\n        uint208 _value;\\n    }\\n\\n    /**\\n     * @dev Pushes a (`key`, `value`) pair into a Trace208 so that it is stored as the checkpoint.\\n     *\\n     * Returns previous value and new value.\\n     *\\n     * IMPORTANT: Never accept `key` as a user input, since an arbitrary `type(uint48).max` key set will disable the\\n     * library.\\n     */\\n    function push(Trace208 storage self, uint48 key, uint208 value) internal returns (uint208, uint208) {\\n        return _insert(self._checkpoints, key, value);\\n    }\\n\\n    /**\\n     * @dev Returns the value in the first (oldest) checkpoint with key greater or equal than the search key, or zero if\\n     * there is none.\\n     */\\n    function lowerLookup(Trace208 storage self, uint48 key) internal view returns (uint208) {\\n        uint256 len = self._checkpoints.length;\\n        uint256 pos = _lowerBinaryLookup(self._checkpoints, key, 0, len);\\n        return pos == len ? 0 : _unsafeAccess(self._checkpoints, pos)._value;\\n    }\\n\\n    /**\\n     * @dev Returns the value in the last (most recent) checkpoint with key lower or equal than the search key, or zero\\n     * if there is none.\\n     */\\n    function upperLookup(Trace208 storage self, uint48 key) internal view returns (uint208) {\\n        uint256 len = self._checkpoints.length;\\n        uint256 pos = _upperBinaryLookup(self._checkpoints, key, 0, len);\\n        return pos == 0 ? 0 : _unsafeAccess(self._checkpoints, pos - 1)._value;\\n    }\\n\\n    /**\\n     * @dev Returns the value in the last (most recent) checkpoint with key lower or equal than the search key, or zero\\n     * if there is none.\\n     *\\n     * NOTE: This is a variant of {upperLookup} that is optimised to find \\\"recent\\\" checkpoint (checkpoints with high\\n     * keys).\\n     */\\n    function upperLookupRecent(Trace208 storage self, uint48 key) internal view returns (uint208) {\\n        uint256 len = self._checkpoints.length;\\n\\n        uint256 low = 0;\\n        uint256 high = len;\\n\\n        if (len > 5) {\\n            uint256 mid = len - Math.sqrt(len);\\n            if (key < _unsafeAccess(self._checkpoints, mid)._key) {\\n                high = mid;\\n            } else {\\n                low = mid + 1;\\n            }\\n        }\\n\\n        uint256 pos = _upperBinaryLookup(self._checkpoints, key, low, high);\\n\\n        return pos == 0 ? 0 : _unsafeAccess(self._checkpoints, pos - 1)._value;\\n    }\\n\\n    /**\\n     * @dev Returns the value in the most recent checkpoint, or zero if there are no checkpoints.\\n     */\\n    function latest(Trace208 storage self) internal view returns (uint208) {\\n        uint256 pos = self._checkpoints.length;\\n        return pos == 0 ? 0 : _unsafeAccess(self._checkpoints, pos - 1)._value;\\n    }\\n\\n    /**\\n     * @dev Returns whether there is a checkpoint in the structure (i.e. it is not empty), and if so the key and value\\n     * in the most recent checkpoint.\\n     */\\n    function latestCheckpoint(Trace208 storage self) internal view returns (bool exists, uint48 _key, uint208 _value) {\\n        uint256 pos = self._checkpoints.length;\\n        if (pos == 0) {\\n            return (false, 0, 0);\\n        } else {\\n            Checkpoint208 memory ckpt = _unsafeAccess(self._checkpoints, pos - 1);\\n            return (true, ckpt._key, ckpt._value);\\n        }\\n    }\\n\\n    /**\\n     * @dev Returns the number of checkpoint.\\n     */\\n    function length(Trace208 storage self) internal view returns (uint256) {\\n        return self._checkpoints.length;\\n    }\\n\\n    /**\\n     * @dev Returns checkpoint at given position.\\n     */\\n    function at(Trace208 storage self, uint32 pos) internal view returns (Checkpoint208 memory) {\\n        return self._checkpoints[pos];\\n    }\\n\\n    /**\\n     * @dev Pushes a (`key`, `value`) pair into an ordered list of checkpoints, either by inserting a new checkpoint,\\n     * or by updating the last one.\\n     */\\n    function _insert(Checkpoint208[] storage self, uint48 key, uint208 value) private returns (uint208, uint208) {\\n        uint256 pos = self.length;\\n\\n        if (pos > 0) {\\n            // Copying to memory is important here.\\n            Checkpoint208 memory last = _unsafeAccess(self, pos - 1);\\n\\n            // Checkpoint keys must be non-decreasing.\\n            if (last._key > key) {\\n                revert CheckpointUnorderedInsertion();\\n            }\\n\\n            // Update or push new checkpoint\\n            if (last._key == key) {\\n                _unsafeAccess(self, pos - 1)._value = value;\\n            } else {\\n                self.push(Checkpoint208({_key: key, _value: value}));\\n            }\\n            return (last._value, value);\\n        } else {\\n            self.push(Checkpoint208({_key: key, _value: value}));\\n            return (0, value);\\n        }\\n    }\\n\\n    /**\\n     * @dev Return the index of the last (most recent) checkpoint with key lower or equal than the search key, or `high`\\n     * if there is none. `low` and `high` define a section where to do the search, with inclusive `low` and exclusive\\n     * `high`.\\n     *\\n     * WARNING: `high` should not be greater than the array's length.\\n     */\\n    function _upperBinaryLookup(\\n        Checkpoint208[] storage self,\\n        uint48 key,\\n        uint256 low,\\n        uint256 high\\n    ) private view returns (uint256) {\\n        while (low < high) {\\n            uint256 mid = Math.average(low, high);\\n            if (_unsafeAccess(self, mid)._key > key) {\\n                high = mid;\\n            } else {\\n                low = mid + 1;\\n            }\\n        }\\n        return high;\\n    }\\n\\n    /**\\n     * @dev Return the index of the first (oldest) checkpoint with key is greater or equal than the search key, or\\n     * `high` if there is none. `low` and `high` define a section where to do the search, with inclusive `low` and\\n     * exclusive `high`.\\n     *\\n     * WARNING: `high` should not be greater than the array's length.\\n     */\\n    function _lowerBinaryLookup(\\n        Checkpoint208[] storage self,\\n        uint48 key,\\n        uint256 low,\\n        uint256 high\\n    ) private view returns (uint256) {\\n        while (low < high) {\\n            uint256 mid = Math.average(low, high);\\n            if (_unsafeAccess(self, mid)._key < key) {\\n                low = mid + 1;\\n            } else {\\n                high = mid;\\n            }\\n        }\\n        return high;\\n    }\\n\\n    /**\\n     * @dev Access an element of the array without performing bounds check. The position is assumed to be within bounds.\\n     */\\n    function _unsafeAccess(\\n        Checkpoint208[] storage self,\\n        uint256 pos\\n    ) private pure returns (Checkpoint208 storage result) {\\n        assembly {\\n            mstore(0, self.slot)\\n            result.slot := add(keccak256(0, 0x20), pos)\\n        }\\n    }\\n\\n    struct Trace160 {\\n        Checkpoint160[] _checkpoints;\\n    }\\n\\n    struct Checkpoint160 {\\n        uint96 _key;\\n        uint160 _value;\\n    }\\n\\n    /**\\n     * @dev Pushes a (`key`, `value`) pair into a Trace160 so that it is stored as the checkpoint.\\n     *\\n     * Returns previous value and new value.\\n     *\\n     * IMPORTANT: Never accept `key` as a user input, since an arbitrary `type(uint96).max` key set will disable the\\n     * library.\\n     */\\n    function push(Trace160 storage self, uint96 key, uint160 value) internal returns (uint160, uint160) {\\n        return _insert(self._checkpoints, key, value);\\n    }\\n\\n    /**\\n     * @dev Returns the value in the first (oldest) checkpoint with key greater or equal than the search key, or zero if\\n     * there is none.\\n     */\\n    function lowerLookup(Trace160 storage self, uint96 key) internal view returns (uint160) {\\n        uint256 len = self._checkpoints.length;\\n        uint256 pos = _lowerBinaryLookup(self._checkpoints, key, 0, len);\\n        return pos == len ? 0 : _unsafeAccess(self._checkpoints, pos)._value;\\n    }\\n\\n    /**\\n     * @dev Returns the value in the last (most recent) checkpoint with key lower or equal than the search key, or zero\\n     * if there is none.\\n     */\\n    function upperLookup(Trace160 storage self, uint96 key) internal view returns (uint160) {\\n        uint256 len = self._checkpoints.length;\\n        uint256 pos = _upperBinaryLookup(self._checkpoints, key, 0, len);\\n        return pos == 0 ? 0 : _unsafeAccess(self._checkpoints, pos - 1)._value;\\n    }\\n\\n    /**\\n     * @dev Returns the value in the last (most recent) checkpoint with key lower or equal than the search key, or zero\\n     * if there is none.\\n     *\\n     * NOTE: This is a variant of {upperLookup} that is optimised to find \\\"recent\\\" checkpoint (checkpoints with high\\n     * keys).\\n     */\\n    function upperLookupRecent(Trace160 storage self, uint96 key) internal view returns (uint160) {\\n        uint256 len = self._checkpoints.length;\\n\\n        uint256 low = 0;\\n        uint256 high = len;\\n\\n        if (len > 5) {\\n            uint256 mid = len - Math.sqrt(len);\\n            if (key < _unsafeAccess(self._checkpoints, mid)._key) {\\n                high = mid;\\n            } else {\\n                low = mid + 1;\\n            }\\n        }\\n\\n        uint256 pos = _upperBinaryLookup(self._checkpoints, key, low, high);\\n\\n        return pos == 0 ? 0 : _unsafeAccess(self._checkpoints, pos - 1)._value;\\n    }\\n\\n    /**\\n     * @dev Returns the value in the most recent checkpoint, or zero if there are no checkpoints.\\n     */\\n    function latest(Trace160 storage self) internal view returns (uint160) {\\n        uint256 pos = self._checkpoints.length;\\n        return pos == 0 ? 0 : _unsafeAccess(self._checkpoints, pos - 1)._value;\\n    }\\n\\n    /**\\n     * @dev Returns whether there is a checkpoint in the structure (i.e. it is not empty), and if so the key and value\\n     * in the most recent checkpoint.\\n     */\\n    function latestCheckpoint(Trace160 storage self) internal view returns (bool exists, uint96 _key, uint160 _value) {\\n        uint256 pos = self._checkpoints.length;\\n        if (pos == 0) {\\n            return (false, 0, 0);\\n        } else {\\n            Checkpoint160 memory ckpt = _unsafeAccess(self._checkpoints, pos - 1);\\n            return (true, ckpt._key, ckpt._value);\\n        }\\n    }\\n\\n    /**\\n     * @dev Returns the number of checkpoint.\\n     */\\n    function length(Trace160 storage self) internal view returns (uint256) {\\n        return self._checkpoints.length;\\n    }\\n\\n    /**\\n     * @dev Returns checkpoint at given position.\\n     */\\n    function at(Trace160 storage self, uint32 pos) internal view returns (Checkpoint160 memory) {\\n        return self._checkpoints[pos];\\n    }\\n\\n    /**\\n     * @dev Pushes a (`key`, `value`) pair into an ordered list of checkpoints, either by inserting a new checkpoint,\\n     * or by updating the last one.\\n     */\\n    function _insert(Checkpoint160[] storage self, uint96 key, uint160 value) private returns (uint160, uint160) {\\n        uint256 pos = self.length;\\n\\n        if (pos > 0) {\\n            // Copying to memory is important here.\\n            Checkpoint160 memory last = _unsafeAccess(self, pos - 1);\\n\\n            // Checkpoint keys must be non-decreasing.\\n            if (last._key > key) {\\n                revert CheckpointUnorderedInsertion();\\n            }\\n\\n            // Update or push new checkpoint\\n            if (last._key == key) {\\n                _unsafeAccess(self, pos - 1)._value = value;\\n            } else {\\n                self.push(Checkpoint160({_key: key, _value: value}));\\n            }\\n            return (last._value, value);\\n        } else {\\n            self.push(Checkpoint160({_key: key, _value: value}));\\n            return (0, value);\\n        }\\n    }\\n\\n    /**\\n     * @dev Return the index of the last (most recent) checkpoint with key lower or equal than the search key, or `high`\\n     * if there is none. `low` and `high` define a section where to do the search, with inclusive `low` and exclusive\\n     * `high`.\\n     *\\n     * WARNING: `high` should not be greater than the array's length.\\n     */\\n    function _upperBinaryLookup(\\n        Checkpoint160[] storage self,\\n        uint96 key,\\n        uint256 low,\\n        uint256 high\\n    ) private view returns (uint256) {\\n        while (low < high) {\\n            uint256 mid = Math.average(low, high);\\n            if (_unsafeAccess(self, mid)._key > key) {\\n                high = mid;\\n            } else {\\n                low = mid + 1;\\n            }\\n        }\\n        return high;\\n    }\\n\\n    /**\\n     * @dev Return the index of the first (oldest) checkpoint with key is greater or equal than the search key, or\\n     * `high` if there is none. `low` and `high` define a section where to do the search, with inclusive `low` and\\n     * exclusive `high`.\\n     *\\n     * WARNING: `high` should not be greater than the array's length.\\n     */\\n    function _lowerBinaryLookup(\\n        Checkpoint160[] storage self,\\n        uint96 key,\\n        uint256 low,\\n        uint256 high\\n    ) private view returns (uint256) {\\n        while (low < high) {\\n            uint256 mid = Math.average(low, high);\\n            if (_unsafeAccess(self, mid)._key < key) {\\n                low = mid + 1;\\n            } else {\\n                high = mid;\\n            }\\n        }\\n        return high;\\n    }\\n\\n    /**\\n     * @dev Access an element of the array without performing bounds check. The position is assumed to be within bounds.\\n     */\\n    function _unsafeAccess(\\n        Checkpoint160[] storage self,\\n        uint256 pos\\n    ) private pure returns (Checkpoint160 storage result) {\\n        assembly {\\n            mstore(0, self.slot)\\n            result.slot := add(keccak256(0, 0x20), pos)\\n        }\\n    }\\n}\\n\"},\"@openzeppelin/contracts/utils/structs/BitMaps.sol\":{\"content\":\"// SPDX-License-Identifier: MIT\\n// OpenZeppelin Contracts (last updated v5.0.0) (utils/structs/BitMaps.sol)\\npragma solidity ^0.8.20;\\n\\n/**\\n * @dev Library for managing uint256 to bool mapping in a compact and efficient way, provided the keys are sequential.\\n * Largely inspired by Uniswap's https://github.com/Uniswap/merkle-distributor/blob/master/contracts/MerkleDistributor.sol[merkle-distributor].\\n *\\n * BitMaps pack 256 booleans across each bit of a single 256-bit slot of `uint256` type.\\n * Hence booleans corresponding to 256 _sequential_ indices would only consume a single slot,\\n * unlike the regular `bool` which would consume an entire slot for a single value.\\n *\\n * This results in gas savings in two ways:\\n *\\n * - Setting a zero value to non-zero only once every 256 times\\n * - Accessing the same warm slot for every 256 _sequential_ indices\\n */\\nlibrary BitMaps {\\n    struct BitMap {\\n        mapping(uint256 bucket => uint256) _data;\\n    }\\n\\n    /**\\n     * @dev Returns whether the bit at `index` is set.\\n     */\\n    function get(BitMap storage bitmap, uint256 index) internal view returns (bool) {\\n        uint256 bucket = index >> 8;\\n        uint256 mask = 1 << (index & 0xff);\\n        return bitmap._data[bucket] & mask != 0;\\n    }\\n\\n    /**\\n     * @dev Sets the bit at `index` to the boolean `value`.\\n     */\\n    function setTo(BitMap storage bitmap, uint256 index, bool value) internal {\\n        if (value) {\\n            set(bitmap, index);\\n        } else {\\n            unset(bitmap, index);\\n        }\\n    }\\n\\n    /**\\n     * @dev Sets the bit at `index`.\\n     */\\n    function set(BitMap storage bitmap, uint256 index) internal {\\n        uint256 bucket = index >> 8;\\n        uint256 mask = 1 << (index & 0xff);\\n        bitmap._data[bucket] |= mask;\\n    }\\n\\n    /**\\n     * @dev Unsets the bit at `index`.\\n     */\\n    function unset(BitMap storage bitmap, uint256 index) internal {\\n        uint256 bucket = index >> 8;\\n        uint256 mask = 1 << (index & 0xff);\\n        bitmap._data[bucket] &= ~mask;\\n    }\\n}\\n\"},\"@openzeppelin/contracts/interfaces/IERC2309.sol\":{\"content\":\"// SPDX-License-Identifier: MIT\\n// OpenZeppelin Contracts (last updated v5.0.0) (interfaces/IERC2309.sol)\\n\\npragma solidity ^0.8.20;\\n\\n/**\\n * @dev ERC-2309: ERC-721 Consecutive Transfer Extension.\\n */\\ninterface IERC2309 {\\n    /**\\n     * @dev Emitted when the tokens from `fromTokenId` to `toTokenId` are transferred from `fromAddress` to `toAddress`.\\n     */\\n    event ConsecutiveTransfer(\\n        uint256 indexed fromTokenId,\\n        uint256 toTokenId,\\n        address indexed fromAddress,\\n        address indexed toAddress\\n    );\\n}\\n\"},\"@openzeppelin/contracts/interfaces/draft-IERC6093.sol\":{\"content\":\"// SPDX-License-Identifier: MIT\\n// OpenZeppelin Contracts (last updated v5.0.0) (interfaces/draft-IERC6093.sol)\\npragma solidity ^0.8.20;\\n\\n/**\\n * @dev Standard ERC20 Errors\\n * Interface of the https://eips.ethereum.org/EIPS/eip-6093[ERC-6093] custom errors for ERC20 tokens.\\n */\\ninterface IERC20Errors {\\n    /**\\n     * @dev Indicates an error related to the current `balance` of a `sender`. Used in transfers.\\n     * @param sender Address whose tokens are being transferred.\\n     * @param balance Current balance for the interacting account.\\n     * @param needed Minimum amount required to perform a transfer.\\n     */\\n    error ERC20InsufficientBalance(address sender, uint256 balance, uint256 needed);\\n\\n    /**\\n     * @dev Indicates a failure with the token `sender`. Used in transfers.\\n     * @param sender Address whose tokens are being transferred.\\n     */\\n    error ERC20InvalidSender(address sender);\\n\\n    /**\\n     * @dev Indicates a failure with the token `receiver`. Used in transfers.\\n     * @param receiver Address to which tokens are being transferred.\\n     */\\n    error ERC20InvalidReceiver(address receiver);\\n\\n    /**\\n     * @dev Indicates a failure with the `spender`s `allowance`. Used in transfers.\\n     * @param spender Address that may be allowed to operate on tokens without being their owner.\\n     * @param allowance Amount of tokens a `spender` is allowed to operate with.\\n     * @param needed Minimum amount required to perform a transfer.\\n     */\\n    error ERC20InsufficientAllowance(address spender, uint256 allowance, uint256 needed);\\n\\n    /**\\n     * @dev Indicates a failure with the `approver` of a token to be approved. Used in approvals.\\n     * @param approver Address initiating an approval operation.\\n     */\\n    error ERC20InvalidApprover(address approver);\\n\\n    /**\\n     * @dev Indicates a failure with the `spender` to be approved. Used in approvals.\\n     * @param spender Address that may be allowed to operate on tokens without being their owner.\\n     */\\n    error ERC20InvalidSpender(address spender);\\n}\\n\\n/**\\n * @dev Standard ERC721 Errors\\n * Interface of the https://eips.ethereum.org/EIPS/eip-6093[ERC-6093] custom errors for ERC721 tokens.\\n */\\ninterface IERC721Errors {\\n    /**\\n     * @dev Indicates that an address can't be an owner. For example, `address(0)` is a forbidden owner in EIP-20.\\n     * Used in balance queries.\\n     * @param owner Address of the current owner of a token.\\n     */\\n    error ERC721InvalidOwner(address owner);\\n\\n    /**\\n     * @dev Indicates a `tokenId` whose `owner` is the zero address.\\n     * @param tokenId Identifier number of a token.\\n     */\\n    error ERC721NonexistentToken(uint256 tokenId);\\n\\n    /**\\n     * @dev Indicates an error related to the ownership over a particular token. Used in transfers.\\n     * @param sender Address whose tokens are being transferred.\\n     * @param tokenId Identifier number of a token.\\n     * @param owner Address of the current owner of a token.\\n     */\\n    error ERC721IncorrectOwner(address sender, uint256 tokenId, address owner);\\n\\n    /**\\n     * @dev Indicates a failure with the token `sender`. Used in transfers.\\n     * @param sender Address whose tokens are being transferred.\\n     */\\n    error ERC721InvalidSender(address sender);\\n\\n    /**\\n     * @dev Indicates a failure with the token `receiver`. Used in transfers.\\n     * @param receiver Address to which tokens are being transferred.\\n     */\\n    error ERC721InvalidReceiver(address receiver);\\n\\n    /**\\n     * @dev Indicates a failure with the `operator`s approval. Used in transfers.\\n     * @param operator Address that may be allowed to operate on tokens without being their owner.\\n     * @param tokenId Identifier number of a token.\\n     */\\n    error ERC721InsufficientApproval(address operator, uint256 tokenId);\\n\\n    /**\\n     * @dev Indicates a failure with the `approver` of a token to be approved. Used in approvals.\\n     * @param approver Address initiating an approval operation.\\n     */\\n    error ERC721InvalidApprover(address approver);\\n\\n    /**\\n     * @dev Indicates a failure with the `operator` to be approved. Used in approvals.\\n     * @param operator Address that may be allowed to operate on tokens without being their owner.\\n     */\\n    error ERC721InvalidOperator(address operator);\\n}\\n\\n/**\\n * @dev Standard ERC1155 Errors\\n * Interface of the https://eips.ethereum.org/EIPS/eip-6093[ERC-6093] custom errors for ERC1155 tokens.\\n */\\ninterface IERC1155Errors {\\n    /**\\n     * @dev Indicates an error related to the current `balance` of a `sender`. Used in transfers.\\n     * @param sender Address whose tokens are being transferred.\\n     * @param balance Current balance for the interacting account.\\n     * @param needed Minimum amount required to perform a transfer.\\n     * @param tokenId Identifier number of a token.\\n     */\\n    error ERC1155InsufficientBalance(address sender, uint256 balance, uint256 needed, uint256 tokenId);\\n\\n    /**\\n     * @dev Indicates a failure with the token `sender`. Used in transfers.\\n     * @param sender Address whose tokens are being transferred.\\n     */\\n    error ERC1155InvalidSender(address sender);\\n\\n    /**\\n     * @dev Indicates a failure with the token `receiver`. Used in transfers.\\n     * @param receiver Address to which tokens are being transferred.\\n     */\\n    error ERC1155InvalidReceiver(address receiver);\\n\\n    /**\\n     * @dev Indicates a failure with the `operator`s approval. Used in transfers.\\n     * @param operator Address that may be allowed to operate on tokens without being their owner.\\n     * @param owner Address of the current owner of a token.\\n     */\\n    error ERC1155MissingApprovalForAll(address operator, address owner);\\n\\n    /**\\n     * @dev Indicates a failure with the `approver` of a token to be approved. Used in approvals.\\n     * @param approver Address initiating an approval operation.\\n     */\\n    error ERC1155InvalidApprover(address approver);\\n\\n    /**\\n     * @dev Indicates a failure with the `operator` to be approved. Used in approvals.\\n     * @param operator Address that may be allowed to operate on tokens without being their owner.\\n     */\\n    error ERC1155InvalidOperator(address operator);\\n\\n    /**\\n     * @dev Indicates an array length mismatch between ids and values in a safeBatchTransferFrom operation.\\n     * Used in batch transfers.\\n     * @param idsLength Length of the array of token identifiers\\n     * @param valuesLength Length of the array of token amounts\\n     */\\n    error ERC1155InvalidArrayLength(uint256 idsLength, uint256 valuesLength);\\n}\\n\"},\"@openzeppelin/contracts/token/ERC721/extensions/IERC721Metadata.sol\":{\"content\":\"// SPDX-License-Identifier: MIT\\n// OpenZeppelin Contracts (last updated v5.0.0) (token/ERC721/extensions/IERC721Metadata.sol)\\n\\npragma solidity ^0.8.20;\\n\\nimport {IERC721} from \\\"../IERC721.sol\\\";\\n\\n/**\\n * @title ERC-721 Non-Fungible Token Standard, optional metadata extension\\n * @dev See https://eips.ethereum.org/EIPS/eip-721\\n */\\ninterface IERC721Metadata is IERC721 {\\n    /**\\n     * @dev Returns the token collection name.\\n     */\\n    function name() external view returns (string memory);\\n\\n    /**\\n     * @dev Returns the token collection symbol.\\n     */\\n    function symbol() external view returns (string memory);\\n\\n    /**\\n     * @dev Returns the Uniform Resource Identifier (URI) for `tokenId` token.\\n     */\\n    function tokenURI(uint256 tokenId) external view returns (string memory);\\n}\\n\"},\"@openzeppelin/contracts/proxy/ERC1967/ERC1967Utils.sol\":{\"content\":\"// SPDX-License-Identifier: MIT\\n// OpenZeppelin Contracts (last updated v5.0.0) (proxy/ERC1967/ERC1967Utils.sol)\\n\\npragma solidity ^0.8.20;\\n\\nimport {IBeacon} from \\\"../beacon/IBeacon.sol\\\";\\nimport {Address} from \\\"../../utils/Address.sol\\\";\\nimport {StorageSlot} from \\\"../../utils/StorageSlot.sol\\\";\\n\\n/**\\n * @dev This abstract contract provides getters and event emitting update functions for\\n * https://eips.ethereum.org/EIPS/eip-1967[EIP1967] slots.\\n */\\nlibrary ERC1967Utils {\\n    // We re-declare ERC-1967 events here because they can't be used directly from IERC1967.\\n    // This will be fixed in Solidity 0.8.21. At that point we should remove these events.\\n    /**\\n     * @dev Emitted when the implementation is upgraded.\\n     */\\n    event Upgraded(address indexed implementation);\\n\\n    /**\\n     * @dev Emitted when the admin account has changed.\\n     */\\n    event AdminChanged(address previousAdmin, address newAdmin);\\n\\n    /**\\n     * @dev Emitted when the beacon is changed.\\n     */\\n    event BeaconUpgraded(address indexed beacon);\\n\\n    /**\\n     * @dev Storage slot with the address of the current implementation.\\n     * This is the keccak-256 hash of \\\"eip1967.proxy.implementation\\\" subtracted by 1.\\n     */\\n    // solhint-disable-next-line private-vars-leading-underscore\\n    bytes32 internal constant IMPLEMENTATION_SLOT = 0x360894a13ba1a3210667c828492db98dca3e2076cc3735a920a3ca505d382bbc;\\n\\n    /**\\n     * @dev The `implementation` of the proxy is invalid.\\n     */\\n    error ERC1967InvalidImplementation(address implementation);\\n\\n    /**\\n     * @dev The `admin` of the proxy is invalid.\\n     */\\n    error ERC1967InvalidAdmin(address admin);\\n\\n    /**\\n     * @dev The `beacon` of the proxy is invalid.\\n     */\\n    error ERC1967InvalidBeacon(address beacon);\\n\\n    /**\\n     * @dev An upgrade function sees `msg.value > 0` that may be lost.\\n     */\\n    error ERC1967NonPayable();\\n\\n    /**\\n     * @dev Returns the current implementation address.\\n     */\\n    function getImplementation() internal view returns (address) {\\n        return StorageSlot.getAddressSlot(IMPLEMENTATION_SLOT).value;\\n    }\\n\\n    /**\\n     * @dev Stores a new address in the EIP1967 implementation slot.\\n     */\\n    function _setImplementation(address newImplementation) private {\\n        if (newImplementation.code.length == 0) {\\n            revert ERC1967InvalidImplementation(newImplementation);\\n        }\\n        StorageSlot.getAddressSlot(IMPLEMENTATION_SLOT).value = newImplementation;\\n    }\\n\\n    /**\\n     * @dev Performs implementation upgrade with additional setup call if data is nonempty.\\n     * This function is payable only if the setup call is performed, otherwise `msg.value` is rejected\\n     * to avoid stuck value in the contract.\\n     *\\n     * Emits an {IERC1967-Upgraded} event.\\n     */\\n    function upgradeToAndCall(address newImplementation, bytes memory data) internal {\\n        _setImplementation(newImplementation);\\n        emit Upgraded(newImplementation);\\n\\n        if (data.length > 0) {\\n            Address.functionDelegateCall(newImplementation, data);\\n        } else {\\n            _checkNonPayable();\\n        }\\n    }\\n\\n    /**\\n     * @dev Storage slot with the admin of the contract.\\n     * This is the keccak-256 hash of \\\"eip1967.proxy.admin\\\" subtracted by 1.\\n     */\\n    // solhint-disable-next-line private-vars-leading-underscore\\n    bytes32 internal constant ADMIN_SLOT = 0xb53127684a568b3173ae13b9f8a6016e243e63b6e8ee1178d6a717850b5d6103;\\n\\n    /**\\n     * @dev Returns the current admin.\\n     *\\n     * TIP: To get this value clients can read directly from the storage slot shown below (specified by EIP1967) using\\n     * the https://eth.wiki/json-rpc/API#eth_getstorageat[`eth_getStorageAt`] RPC call.\\n     * `0xb53127684a568b3173ae13b9f8a6016e243e63b6e8ee1178d6a717850b5d6103`\\n     */\\n    function getAdmin() internal view returns (address) {\\n        return StorageSlot.getAddressSlot(ADMIN_SLOT).value;\\n    }\\n\\n    /**\\n     * @dev Stores a new address in the EIP1967 admin slot.\\n     */\\n    function _setAdmin(address newAdmin) private {\\n        if (newAdmin == address(0)) {\\n            revert ERC1967InvalidAdmin(address(0));\\n        }\\n        StorageSlot.getAddressSlot(ADMIN_SLOT).value = newAdmin;\\n    }\\n\\n    /**\\n     * @dev Changes the admin of the proxy.\\n     *\\n     * Emits an {IERC1967-AdminChanged} event.\\n     */\\n    function changeAdmin(address newAdmin) internal {\\n        emit AdminChanged(getAdmin(), newAdmin);\\n        _setAdmin(newAdmin);\\n    }\\n\\n    /**\\n     * @dev The storage slot of the UpgradeableBeacon contract which defines the implementation for this proxy.\\n     * This is the keccak-256 hash of \\\"eip1967.proxy.beacon\\\" subtracted by 1.\\n     */\\n    // solhint-disable-next-line private-vars-leading-underscore\\n    bytes32 internal constant BEACON_SLOT = 0xa3f0ad74e5423aebfd80d3ef4346578335a9a72aeaee59ff6cb3582b35133d50;\\n\\n    /**\\n     * @dev Returns the current beacon.\\n     */\\n    function getBeacon() internal view returns (address) {\\n        return StorageSlot.getAddressSlot(BEACON_SLOT).value;\\n    }\\n\\n    /**\\n     * @dev Stores a new beacon in the EIP1967 beacon slot.\\n     */\\n    function _setBeacon(address newBeacon) private {\\n        if (newBeacon.code.length == 0) {\\n            revert ERC1967InvalidBeacon(newBeacon);\\n        }\\n\\n        StorageSlot.getAddressSlot(BEACON_SLOT).value = newBeacon;\\n\\n        address beaconImplementation = IBeacon(newBeacon).implementation();\\n        if (beaconImplementation.code.length == 0) {\\n            revert ERC1967InvalidImplementation(beaconImplementation);\\n        }\\n    }\\n\\n    /**\\n     * @dev Change the beacon and trigger a setup call if data is nonempty.\\n     * This function is payable only if the setup call is performed, otherwise `msg.value` is rejected\\n     * to avoid stuck value in the contract.\\n     *\\n     * Emits an {IERC1967-BeaconUpgraded} event.\\n     *\\n     * CAUTION: Invoking this function has no effect on an instance of {BeaconProxy} since v5, since\\n     * it uses an immutable beacon without looking at the value of the ERC-1967 beacon slot for\\n     * efficiency.\\n     */\\n    function upgradeBeaconToAndCall(address newBeacon, bytes memory data) internal {\\n        _setBeacon(newBeacon);\\n        emit BeaconUpgraded(newBeacon);\\n\\n        if (data.length > 0) {\\n            Address.functionDelegateCall(IBeacon(newBeacon).implementation(), data);\\n        } else {\\n            _checkNonPayable();\\n        }\\n    }\\n\\n    /**\\n     * @dev Reverts if `msg.value` is not zero. It can be used to avoid `msg.value` stuck in the contract\\n     * if an upgrade doesn't perform an initialization call.\\n     */\\n    function _checkNonPayable() private {\\n        if (msg.value > 0) {\\n            revert ERC1967NonPayable();\\n        }\\n    }\\n}\\n\"},\"@openzeppelin/contracts/interfaces/draft-IERC1822.sol\":{\"content\":\"// SPDX-License-Identifier: MIT\\n// OpenZeppelin Contracts (last updated v5.0.0) (interfaces/draft-IERC1822.sol)\\n\\npragma solidity ^0.8.20;\\n\\n/**\\n * @dev ERC1822: Universal Upgradeable Proxy Standard (UUPS) documents a method for upgradeability through a simplified\\n * proxy whose upgrades are fully controlled by the current implementation.\\n */\\ninterface IERC1822Proxiable {\\n    /**\\n     * @dev Returns the storage slot that the proxiable contract assumes is being used to store the implementation\\n     * address.\\n     *\\n     * IMPORTANT: A proxy pointing at a proxiable contract should not be considered proxiable itself, because this risks\\n     * bricking a proxy that upgrades to it, by delegating to itself until out of gas. Thus it is critical that this\\n     * function revert if invoked through a proxy.\\n     */\\n    function proxiableUUID() external view returns (bytes32);\\n}\\n\"},\"@openzeppelin/contracts/utils/structs/EnumerableSet.sol\":{\"content\":\"// SPDX-License-Identifier: MIT\\n// OpenZeppelin Contracts (last updated v5.0.0) (utils/structs/EnumerableSet.sol)\\n// This file was procedurally generated from scripts/generate/templates/EnumerableSet.js.\\n\\npragma solidity ^0.8.20;\\n\\n/**\\n * @dev Library for managing\\n * https://en.wikipedia.org/wiki/Set_(abstract_data_type)[sets] of primitive\\n * types.\\n *\\n * Sets have the following properties:\\n *\\n * - Elements are added, removed, and checked for existence in constant time\\n * (O(1)).\\n * - Elements are enumerated in O(n). No guarantees are made on the ordering.\\n *\\n * ```solidity\\n * contract Example {\\n *     // Add the library methods\\n *     using EnumerableSet for EnumerableSet.AddressSet;\\n *\\n *     // Declare a set state variable\\n *     EnumerableSet.AddressSet private mySet;\\n * }\\n * ```\\n *\\n * As of v3.3.0, sets of type `bytes32` (`Bytes32Set`), `address` (`AddressSet`)\\n * and `uint256` (`UintSet`) are supported.\\n *\\n * [WARNING]\\n * ====\\n * Trying to delete such a structure from storage will likely result in data corruption, rendering the structure\\n * unusable.\\n * See https://github.com/ethereum/solidity/pull/11843[ethereum/solidity#11843] for more info.\\n *\\n * In order to clean an EnumerableSet, you can either remove all elements one by one or create a fresh instance using an\\n * array of EnumerableSet.\\n * ====\\n */\\nlibrary EnumerableSet {\\n    // To implement this library for multiple types with as little code\\n    // repetition as possible, we write it in terms of a generic Set type with\\n    // bytes32 values.\\n    // The Set implementation uses private functions, and user-facing\\n    // implementations (such as AddressSet) are just wrappers around the\\n    // underlying Set.\\n    // This means that we can only create new EnumerableSets for types that fit\\n    // in bytes32.\\n\\n    struct Set {\\n        // Storage of set values\\n        bytes32[] _values;\\n        // Position is the index of the value in the `values` array plus 1.\\n        // Position 0 is used to mean a value is not in the set.\\n        mapping(bytes32 value => uint256) _positions;\\n    }\\n\\n    /**\\n     * @dev Add a value to a set. O(1).\\n     *\\n     * Returns true if the value was added to the set, that is if it was not\\n     * already present.\\n     */\\n    function _add(Set storage set, bytes32 value) private returns (bool) {\\n        if (!_contains(set, value)) {\\n            set._values.push(value);\\n            // The value is stored at length-1, but we add 1 to all indexes\\n            // and use 0 as a sentinel value\\n            set._positions[value] = set._values.length;\\n            return true;\\n        } else {\\n            return false;\\n        }\\n    }\\n\\n    /**\\n     * @dev Removes a value from a set. O(1).\\n     *\\n     * Returns true if the value was removed from the set, that is if it was\\n     * present.\\n     */\\n    function _remove(Set storage set, bytes32 value) private returns (bool) {\\n        // We cache the value's position to prevent multiple reads from the same storage slot\\n        uint256 position = set._positions[value];\\n\\n        if (position != 0) {\\n            // Equivalent to contains(set, value)\\n            // To delete an element from the _values array in O(1), we swap the element to delete with the last one in\\n            // the array, and then remove the last element (sometimes called as 'swap and pop').\\n            // This modifies the order of the array, as noted in {at}.\\n\\n            uint256 valueIndex = position - 1;\\n            uint256 lastIndex = set._values.length - 1;\\n\\n            if (valueIndex != lastIndex) {\\n                bytes32 lastValue = set._values[lastIndex];\\n\\n                // Move the lastValue to the index where the value to delete is\\n                set._values[valueIndex] = lastValue;\\n                // Update the tracked position of the lastValue (that was just moved)\\n                set._positions[lastValue] = position;\\n            }\\n\\n            // Delete the slot where the moved value was stored\\n            set._values.pop();\\n\\n            // Delete the tracked position for the deleted slot\\n            delete set._positions[value];\\n\\n            return true;\\n        } else {\\n            return false;\\n        }\\n    }\\n\\n    /**\\n     * @dev Returns true if the value is in the set. O(1).\\n     */\\n    function _contains(Set storage set, bytes32 value) private view returns (bool) {\\n        return set._positions[value] != 0;\\n    }\\n\\n    /**\\n     * @dev Returns the number of values on the set. O(1).\\n     */\\n    function _length(Set storage set) private view returns (uint256) {\\n        return set._values.length;\\n    }\\n\\n    /**\\n     * @dev Returns the value stored at position `index` in the set. O(1).\\n     *\\n     * Note that there are no guarantees on the ordering of values inside the\\n     * array, and it may change when more values are added or removed.\\n     *\\n     * Requirements:\\n     *\\n     * - `index` must be strictly less than {length}.\\n     */\\n    function _at(Set storage set, uint256 index) private view returns (bytes32) {\\n        return set._values[index];\\n    }\\n\\n    /**\\n     * @dev Return the entire set in an array\\n     *\\n     * WARNING: This operation will copy the entire storage to memory, which can be quite expensive. This is designed\\n     * to mostly be used by view accessors that are queried without any gas fees. Developers should keep in mind that\\n     * this function has an unbounded cost, and using it as part of a state-changing function may render the function\\n     * uncallable if the set grows to a point where copying to memory consumes too much gas to fit in a block.\\n     */\\n    function _values(Set storage set) private view returns (bytes32[] memory) {\\n        return set._values;\\n    }\\n\\n    // Bytes32Set\\n\\n    struct Bytes32Set {\\n        Set _inner;\\n    }\\n\\n    /**\\n     * @dev Add a value to a set. O(1).\\n     *\\n     * Returns true if the value was added to the set, that is if it was not\\n     * already present.\\n     */\\n    function add(Bytes32Set storage set, bytes32 value) internal returns (bool) {\\n        return _add(set._inner, value);\\n    }\\n\\n    /**\\n     * @dev Removes a value from a set. O(1).\\n     *\\n     * Returns true if the value was removed from the set, that is if it was\\n     * present.\\n     */\\n    function remove(Bytes32Set storage set, bytes32 value) internal returns (bool) {\\n        return _remove(set._inner, value);\\n    }\\n\\n    /**\\n     * @dev Returns true if the value is in the set. O(1).\\n     */\\n    function contains(Bytes32Set storage set, bytes32 value) internal view returns (bool) {\\n        return _contains(set._inner, value);\\n    }\\n\\n    /**\\n     * @dev Returns the number of values in the set. O(1).\\n     */\\n    function length(Bytes32Set storage set) internal view returns (uint256) {\\n        return _length(set._inner);\\n    }\\n\\n    /**\\n     * @dev Returns the value stored at position `index` in the set. O(1).\\n     *\\n     * Note that there are no guarantees on the ordering of values inside the\\n     * array, and it may change when more values are added or removed.\\n     *\\n     * Requirements:\\n     *\\n     * - `index` must be strictly less than {length}.\\n     */\\n    function at(Bytes32Set storage set, uint256 index) internal view returns (bytes32) {\\n        return _at(set._inner, index);\\n    }\\n\\n    /**\\n     * @dev Return the entire set in an array\\n     *\\n     * WARNING: This operation will copy the entire storage to memory, which can be quite expensive. This is designed\\n     * to mostly be used by view accessors that are queried without any gas fees. Developers should keep in mind that\\n     * this function has an unbounded cost, and using it as part of a state-changing function may render the function\\n     * uncallable if the set grows to a point where copying to memory consumes too much gas to fit in a block.\\n     */\\n    function values(Bytes32Set storage set) internal view returns (bytes32[] memory) {\\n        bytes32[] memory store = _values(set._inner);\\n        bytes32[] memory result;\\n\\n        /// @solidity memory-safe-assembly\\n        assembly {\\n            result := store\\n        }\\n\\n        return result;\\n    }\\n\\n    // AddressSet\\n\\n    struct AddressSet {\\n        Set _inner;\\n    }\\n\\n    /**\\n     * @dev Add a value to a set. O(1).\\n     *\\n     * Returns true if the value was added to the set, that is if it was not\\n     * already present.\\n     */\\n    function add(AddressSet storage set, address value) internal returns (bool) {\\n        return _add(set._inner, bytes32(uint256(uint160(value))));\\n    }\\n\\n    /**\\n     * @dev Removes a value from a set. O(1).\\n     *\\n     * Returns true if the value was removed from the set, that is if it was\\n     * present.\\n     */\\n    function remove(AddressSet storage set, address value) internal returns (bool) {\\n        return _remove(set._inner, bytes32(uint256(uint160(value))));\\n    }\\n\\n    /**\\n     * @dev Returns true if the value is in the set. O(1).\\n     */\\n    function contains(AddressSet storage set, address value) internal view returns (bool) {\\n        return _contains(set._inner, bytes32(uint256(uint160(value))));\\n    }\\n\\n    /**\\n     * @dev Returns the number of values in the set. O(1).\\n     */\\n    function length(AddressSet storage set) internal view returns (uint256) {\\n        return _length(set._inner);\\n    }\\n\\n    /**\\n     * @dev Returns the value stored at position `index` in the set. O(1).\\n     *\\n     * Note that there are no guarantees on the ordering of values inside the\\n     * array, and it may change when more values are added or removed.\\n     *\\n     * Requirements:\\n     *\\n     * - `index` must be strictly less than {length}.\\n     */\\n    function at(AddressSet storage set, uint256 index) internal view returns (address) {\\n        return address(uint160(uint256(_at(set._inner, index))));\\n    }\\n\\n    /**\\n     * @dev Return the entire set in an array\\n     *\\n     * WARNING: This operation will copy the entire storage to memory, which can be quite expensive. This is designed\\n     * to mostly be used by view accessors that are queried without any gas fees. Developers should keep in mind that\\n     * this function has an unbounded cost, and using it as part of a state-changing function may render the function\\n     * uncallable if the set grows to a point where copying to memory consumes too much gas to fit in a block.\\n     */\\n    function values(AddressSet storage set) internal view returns (address[] memory) {\\n        bytes32[] memory store = _values(set._inner);\\n        address[] memory result;\\n\\n        /// @solidity memory-safe-assembly\\n        assembly {\\n            result := store\\n        }\\n\\n        return result;\\n    }\\n\\n    // UintSet\\n\\n    struct UintSet {\\n        Set _inner;\\n    }\\n\\n    /**\\n     * @dev Add a value to a set. O(1).\\n     *\\n     * Returns true if the value was added to the set, that is if it was not\\n     * already present.\\n     */\\n    function add(UintSet storage set, uint256 value) internal returns (bool) {\\n        return _add(set._inner, bytes32(value));\\n    }\\n\\n    /**\\n     * @dev Removes a value from a set. O(1).\\n     *\\n     * Returns true if the value was removed from the set, that is if it was\\n     * present.\\n     */\\n    function remove(UintSet storage set, uint256 value) internal returns (bool) {\\n        return _remove(set._inner, bytes32(value));\\n    }\\n\\n    /**\\n     * @dev Returns true if the value is in the set. O(1).\\n     */\\n    function contains(UintSet storage set, uint256 value) internal view returns (bool) {\\n        return _contains(set._inner, bytes32(value));\\n    }\\n\\n    /**\\n     * @dev Returns the number of values in the set. O(1).\\n     */\\n    function length(UintSet storage set) internal view returns (uint256) {\\n        return _length(set._inner);\\n    }\\n\\n    /**\\n     * @dev Returns the value stored at position `index` in the set. O(1).\\n     *\\n     * Note that there are no guarantees on the ordering of values inside the\\n     * array, and it may change when more values are added or removed.\\n     *\\n     * Requirements:\\n     *\\n     * - `index` must be strictly less than {length}.\\n     */\\n    function at(UintSet storage set, uint256 index) internal view returns (uint256) {\\n        return uint256(_at(set._inner, index));\\n    }\\n\\n    /**\\n     * @dev Return the entire set in an array\\n     *\\n     * WARNING: This operation will copy the entire storage to memory, which can be quite expensive. This is designed\\n     * to mostly be used by view accessors that are queried without any gas fees. Developers should keep in mind that\\n     * this function has an unbounded cost, and using it as part of a state-changing function may render the function\\n     * uncallable if the set grows to a point where copying to memory consumes too much gas to fit in a block.\\n     */\\n    function values(UintSet storage set) internal view returns (uint256[] memory) {\\n        bytes32[] memory store = _values(set._inner);\\n        uint256[] memory result;\\n\\n        /// @solidity memory-safe-assembly\\n        assembly {\\n            result := store\\n        }\\n\\n        return result;\\n    }\\n}\\n\"},\"@openzeppelin/contracts/access/extensions/IAccessControlEnumerable.sol\":{\"content\":\"// SPDX-License-Identifier: MIT\\n// OpenZeppelin Contracts (last updated v5.0.0) (access/extensions/IAccessControlEnumerable.sol)\\n\\npragma solidity ^0.8.20;\\n\\nimport {IAccessControl} from \\\"../IAccessControl.sol\\\";\\n\\n/**\\n * @dev External interface of AccessControlEnumerable declared to support ERC165 detection.\\n */\\ninterface IAccessControlEnumerable is IAccessControl {\\n    /**\\n     * @dev Returns one of the accounts that have `role`. `index` must be a\\n     * value between 0 and {getRoleMemberCount}, non-inclusive.\\n     *\\n     * Role bearers are not sorted in any particular way, and their ordering may\\n     * change at any point.\\n     *\\n     * WARNING: When using {getRoleMember} and {getRoleMemberCount}, make sure\\n     * you perform all queries on the same block. See the following\\n     * https://forum.openzeppelin.com/t/iterating-over-elements-on-enumerableset-in-openzeppelin-contracts/2296[forum post]\\n     * for more information.\\n     */\\n    function getRoleMember(bytes32 role, uint256 index) external view returns (address);\\n\\n    /**\\n     * @dev Returns the number of accounts that have `role`. Can be used\\n     * together with {getRoleMember} to enumerate all bearers of a role.\\n     */\\n    function getRoleMemberCount(bytes32 role) external view returns (uint256);\\n}\\n\"},\"@openzeppelin/contracts/access/IAccessControl.sol\":{\"content\":\"// SPDX-License-Identifier: MIT\\n// OpenZeppelin Contracts (last updated v5.0.0) (access/IAccessControl.sol)\\n\\npragma solidity ^0.8.20;\\n\\n/**\\n * @dev External interface of AccessControl declared to support ERC165 detection.\\n */\\ninterface IAccessControl {\\n    /**\\n     * @dev The `account` is missing a role.\\n     */\\n    error AccessControlUnauthorizedAccount(address account, bytes32 neededRole);\\n\\n    /**\\n     * @dev The caller of a function is not the expected one.\\n     *\\n     * NOTE: Don't confuse with {AccessControlUnauthorizedAccount}.\\n     */\\n    error AccessControlBadConfirmation();\\n\\n    /**\\n     * @dev Emitted when `newAdminRole` is set as ``role``'s admin role, replacing `previousAdminRole`\\n     *\\n     * `DEFAULT_ADMIN_ROLE` is the starting admin for all roles, despite\\n     * {RoleAdminChanged} not being emitted signaling this.\\n     */\\n    event RoleAdminChanged(bytes32 indexed role, bytes32 indexed previousAdminRole, bytes32 indexed newAdminRole);\\n\\n    /**\\n     * @dev Emitted when `account` is granted `role`.\\n     *\\n     * `sender` is the account that originated the contract call, an admin role\\n     * bearer except when using {AccessControl-_setupRole}.\\n     */\\n    event RoleGranted(bytes32 indexed role, address indexed account, address indexed sender);\\n\\n    /**\\n     * @dev Emitted when `account` is revoked `role`.\\n     *\\n     * `sender` is the account that originated the contract call:\\n     *   - if using `revokeRole`, it is the admin role bearer\\n     *   - if using `renounceRole`, it is the role bearer (i.e. `account`)\\n     */\\n    event RoleRevoked(bytes32 indexed role, address indexed account, address indexed sender);\\n\\n    /**\\n     * @dev Returns `true` if `account` has been granted `role`.\\n     */\\n    function hasRole(bytes32 role, address account) external view returns (bool);\\n\\n    /**\\n     * @dev Returns the admin role that controls `role`. See {grantRole} and\\n     * {revokeRole}.\\n     *\\n     * To change a role's admin, use {AccessControl-_setRoleAdmin}.\\n     */\\n    function getRoleAdmin(bytes32 role) external view returns (bytes32);\\n\\n    /**\\n     * @dev Grants `role` to `account`.\\n     *\\n     * If `account` had not been already granted `role`, emits a {RoleGranted}\\n     * event.\\n     *\\n     * Requirements:\\n     *\\n     * - the caller must have ``role``'s admin role.\\n     */\\n    function grantRole(bytes32 role, address account) external;\\n\\n    /**\\n     * @dev Revokes `role` from `account`.\\n     *\\n     * If `account` had been granted `role`, emits a {RoleRevoked} event.\\n     *\\n     * Requirements:\\n     *\\n     * - the caller must have ``role``'s admin role.\\n     */\\n    function revokeRole(bytes32 role, address account) external;\\n\\n    /**\\n     * @dev Revokes `role` from the calling account.\\n     *\\n     * Roles are often managed via {grantRole} and {revokeRole}: this function's\\n     * purpose is to provide a mechanism for accounts to lose their privileges\\n     * if they are compromised (such as when a trusted device is misplaced).\\n     *\\n     * If the calling account had been granted `role`, emits a {RoleRevoked}\\n     * event.\\n     *\\n     * Requirements:\\n     *\\n     * - the caller must be `callerConfirmation`.\\n     */\\n    function renounceRole(bytes32 role, address callerConfirmation) external;\\n}\\n\"},\"@openzeppelin/contracts/utils/math/Math.sol\":{\"content\":\"// SPDX-License-Identifier: MIT\\n// OpenZeppelin Contracts (last updated v5.0.0) (utils/math/Math.sol)\\n\\npragma solidity ^0.8.20;\\n\\n/**\\n * @dev Standard math utilities missing in the Solidity language.\\n */\\nlibrary Math {\\n    /**\\n     * @dev Muldiv operation overflow.\\n     */\\n    error MathOverflowedMulDiv();\\n\\n    enum Rounding {\\n        Floor, // Toward negative infinity\\n        Ceil, // Toward positive infinity\\n        Trunc, // Toward zero\\n        Expand // Away from zero\\n    }\\n\\n    /**\\n     * @dev Returns the addition of two unsigned integers, with an overflow flag.\\n     */\\n    function tryAdd(uint256 a, uint256 b) internal pure returns (bool, uint256) {\\n        unchecked {\\n            uint256 c = a + b;\\n            if (c < a) return (false, 0);\\n            return (true, c);\\n        }\\n    }\\n\\n    /**\\n     * @dev Returns the subtraction of two unsigned integers, with an overflow flag.\\n     */\\n    function trySub(uint256 a, uint256 b) internal pure returns (bool, uint256) {\\n        unchecked {\\n            if (b > a) return (false, 0);\\n            return (true, a - b);\\n        }\\n    }\\n\\n    /**\\n     * @dev Returns the multiplication of two unsigned integers, with an overflow flag.\\n     */\\n    function tryMul(uint256 a, uint256 b) internal pure returns (bool, uint256) {\\n        unchecked {\\n            // Gas optimization: this is cheaper than requiring 'a' not being zero, but the\\n            // benefit is lost if 'b' is also tested.\\n            // See: https://github.com/OpenZeppelin/openzeppelin-contracts/pull/522\\n            if (a == 0) return (true, 0);\\n            uint256 c = a * b;\\n            if (c / a != b) return (false, 0);\\n            return (true, c);\\n        }\\n    }\\n\\n    /**\\n     * @dev Returns the division of two unsigned integers, with a division by zero flag.\\n     */\\n    function tryDiv(uint256 a, uint256 b) internal pure returns (bool, uint256) {\\n        unchecked {\\n            if (b == 0) return (false, 0);\\n            return (true, a / b);\\n        }\\n    }\\n\\n    /**\\n     * @dev Returns the remainder of dividing two unsigned integers, with a division by zero flag.\\n     */\\n    function tryMod(uint256 a, uint256 b) internal pure returns (bool, uint256) {\\n        unchecked {\\n            if (b == 0) return (false, 0);\\n            return (true, a % b);\\n        }\\n    }\\n\\n    /**\\n     * @dev Returns the largest of two numbers.\\n     */\\n    function max(uint256 a, uint256 b) internal pure returns (uint256) {\\n        return a > b ? a : b;\\n    }\\n\\n    /**\\n     * @dev Returns the smallest of two numbers.\\n     */\\n    function min(uint256 a, uint256 b) internal pure returns (uint256) {\\n        return a < b ? a : b;\\n    }\\n\\n    /**\\n     * @dev Returns the average of two numbers. The result is rounded towards\\n     * zero.\\n     */\\n    function average(uint256 a, uint256 b) internal pure returns (uint256) {\\n        // (a + b) / 2 can overflow.\\n        return (a & b) + (a ^ b) / 2;\\n    }\\n\\n    /**\\n     * @dev Returns the ceiling of the division of two numbers.\\n     *\\n     * This differs from standard division with `/` in that it rounds towards infinity instead\\n     * of rounding towards zero.\\n     */\\n    function ceilDiv(uint256 a, uint256 b) internal pure returns (uint256) {\\n        if (b == 0) {\\n            // Guarantee the same behavior as in a regular Solidity division.\\n            return a / b;\\n        }\\n\\n        // (a + b - 1) / b can overflow on addition, so we distribute.\\n        return a == 0 ? 0 : (a - 1) / b + 1;\\n    }\\n\\n    /**\\n     * @notice Calculates floor(x * y / denominator) with full precision. Throws if result overflows a uint256 or\\n     * denominator == 0.\\n     * @dev Original credit to Remco Bloemen under MIT license (https://xn--2-umb.com/21/muldiv) with further edits by\\n     * Uniswap Labs also under MIT license.\\n     */\\n    function mulDiv(uint256 x, uint256 y, uint256 denominator) internal pure returns (uint256 result) {\\n        unchecked {\\n            // 512-bit multiply [prod1 prod0] = x * y. Compute the product mod 2^256 and mod 2^256 - 1, then use\\n            // use the Chinese Remainder Theorem to reconstruct the 512 bit result. The result is stored in two 256\\n            // variables such that product = prod1 * 2^256 + prod0.\\n            uint256 prod0 = x * y; // Least significant 256 bits of the product\\n            uint256 prod1; // Most significant 256 bits of the product\\n            assembly {\\n                let mm := mulmod(x, y, not(0))\\n                prod1 := sub(sub(mm, prod0), lt(mm, prod0))\\n            }\\n\\n            // Handle non-overflow cases, 256 by 256 division.\\n            if (prod1 == 0) {\\n                // Solidity will revert if denominator == 0, unlike the div opcode on its own.\\n                // The surrounding unchecked block does not change this fact.\\n                // See https://docs.soliditylang.org/en/latest/control-structures.html#checked-or-unchecked-arithmetic.\\n                return prod0 / denominator;\\n            }\\n\\n            // Make sure the result is less than 2^256. Also prevents denominator == 0.\\n            if (denominator <= prod1) {\\n                revert MathOverflowedMulDiv();\\n            }\\n\\n            ///////////////////////////////////////////////\\n            // 512 by 256 division.\\n            ///////////////////////////////////////////////\\n\\n            // Make division exact by subtracting the remainder from [prod1 prod0].\\n            uint256 remainder;\\n            assembly {\\n                // Compute remainder using mulmod.\\n                remainder := mulmod(x, y, denominator)\\n\\n                // Subtract 256 bit number from 512 bit number.\\n                prod1 := sub(prod1, gt(remainder, prod0))\\n                prod0 := sub(prod0, remainder)\\n            }\\n\\n            // Factor powers of two out of denominator and compute largest power of two divisor of denominator.\\n            // Always >= 1. See https://cs.stackexchange.com/q/138556/92363.\\n\\n            uint256 twos = denominator & (0 - denominator);\\n            assembly {\\n                // Divide denominator by twos.\\n                denominator := div(denominator, twos)\\n\\n                // Divide [prod1 prod0] by twos.\\n                prod0 := div(prod0, twos)\\n\\n                // Flip twos such that it is 2^256 / twos. If twos is zero, then it becomes one.\\n                twos := add(div(sub(0, twos), twos), 1)\\n            }\\n\\n            // Shift in bits from prod1 into prod0.\\n            prod0 |= prod1 * twos;\\n\\n            // Invert denominator mod 2^256. Now that denominator is an odd number, it has an inverse modulo 2^256 such\\n            // that denominator * inv = 1 mod 2^256. Compute the inverse by starting with a seed that is correct for\\n            // four bits. That is, denominator * inv = 1 mod 2^4.\\n            uint256 inverse = (3 * denominator) ^ 2;\\n\\n            // Use the Newton-Raphson iteration to improve the precision. Thanks to Hensel's lifting lemma, this also\\n            // works in modular arithmetic, doubling the correct bits in each step.\\n            inverse *= 2 - denominator * inverse; // inverse mod 2^8\\n            inverse *= 2 - denominator * inverse; // inverse mod 2^16\\n            inverse *= 2 - denominator * inverse; // inverse mod 2^32\\n            inverse *= 2 - denominator * inverse; // inverse mod 2^64\\n            inverse *= 2 - denominator * inverse; // inverse mod 2^128\\n            inverse *= 2 - denominator * inverse; // inverse mod 2^256\\n\\n            // Because the division is now exact we can divide by multiplying with the modular inverse of denominator.\\n            // This will give us the correct result modulo 2^256. Since the preconditions guarantee that the outcome is\\n            // less than 2^256, this is the final result. We don't need to compute the high bits of the result and prod1\\n            // is no longer required.\\n            result = prod0 * inverse;\\n            return result;\\n        }\\n    }\\n\\n    /**\\n     * @notice Calculates x * y / denominator with full precision, following the selected rounding direction.\\n     */\\n    function mulDiv(uint256 x, uint256 y, uint256 denominator, Rounding rounding) internal pure returns (uint256) {\\n        uint256 result = mulDiv(x, y, denominator);\\n        if (unsignedRoundsUp(rounding) && mulmod(x, y, denominator) > 0) {\\n            result += 1;\\n        }\\n        return result;\\n    }\\n\\n    /**\\n     * @dev Returns the square root of a number. If the number is not a perfect square, the value is rounded\\n     * towards zero.\\n     *\\n     * Inspired by Henry S. Warren, Jr.'s \\\"Hacker's Delight\\\" (Chapter 11).\\n     */\\n    function sqrt(uint256 a) internal pure returns (uint256) {\\n        if (a == 0) {\\n            return 0;\\n        }\\n\\n        // For our first guess, we get the biggest power of 2 which is smaller than the square root of the target.\\n        //\\n        // We know that the \\\"msb\\\" (most significant bit) of our target number `a` is a power of 2 such that we have\\n        // `msb(a) <= a < 2*msb(a)`. This value can be written `msb(a)=2**k` with `k=log2(a)`.\\n        //\\n        // This can be rewritten `2**log2(a) <= a < 2**(log2(a) + 1)`\\n        //  `sqrt(2**k) <= sqrt(a) < sqrt(2**(k+1))`\\n        //  `2**(k/2) <= sqrt(a) < 2**((k+1)/2) <= 2**(k/2 + 1)`\\n        //\\n        // Consequently, `2**(log2(a) / 2)` is a good first approximation of `sqrt(a)` with at least 1 correct bit.\\n        uint256 result = 1 << (log2(a) >> 1);\\n\\n        // At this point `result` is an estimation with one bit of precision. We know the true value is a uint128,\\n        // since it is the square root of a uint256. Newton's method converges quadratically (precision doubles at\\n        // every iteration). We thus need at most 7 iteration to turn our partial result with one bit of precision\\n        // into the expected uint128 result.\\n        unchecked {\\n            result = (result + a / result) >> 1;\\n            result = (result + a / result) >> 1;\\n            result = (result + a / result) >> 1;\\n            result = (result + a / result) >> 1;\\n            result = (result + a / result) >> 1;\\n            result = (result + a / result) >> 1;\\n            result = (result + a / result) >> 1;\\n            return min(result, a / result);\\n        }\\n    }\\n\\n    /**\\n     * @notice Calculates sqrt(a), following the selected rounding direction.\\n     */\\n    function sqrt(uint256 a, Rounding rounding) internal pure returns (uint256) {\\n        unchecked {\\n            uint256 result = sqrt(a);\\n            return result + (unsignedRoundsUp(rounding) && result * result < a ? 1 : 0);\\n        }\\n    }\\n\\n    /**\\n     * @dev Return the log in base 2 of a positive value rounded towards zero.\\n     * Returns 0 if given 0.\\n     */\\n    function log2(uint256 value) internal pure returns (uint256) {\\n        uint256 result = 0;\\n        unchecked {\\n            if (value >> 128 > 0) {\\n                value >>= 128;\\n                result += 128;\\n            }\\n            if (value >> 64 > 0) {\\n                value >>= 64;\\n                result += 64;\\n            }\\n            if (value >> 32 > 0) {\\n                value >>= 32;\\n                result += 32;\\n            }\\n            if (value >> 16 > 0) {\\n                value >>= 16;\\n                result += 16;\\n            }\\n            if (value >> 8 > 0) {\\n                value >>= 8;\\n                result += 8;\\n            }\\n            if (value >> 4 > 0) {\\n                value >>= 4;\\n                result += 4;\\n            }\\n            if (value >> 2 > 0) {\\n                value >>= 2;\\n                result += 2;\\n            }\\n            if (value >> 1 > 0) {\\n                result += 1;\\n            }\\n        }\\n        return result;\\n    }\\n\\n    /**\\n     * @dev Return the log in base 2, following the selected rounding direction, of a positive value.\\n     * Returns 0 if given 0.\\n     */\\n    function log2(uint256 value, Rounding rounding) internal pure returns (uint256) {\\n        unchecked {\\n            uint256 result = log2(value);\\n            return result + (unsignedRoundsUp(rounding) && 1 << result < value ? 1 : 0);\\n        }\\n    }\\n\\n    /**\\n     * @dev Return the log in base 10 of a positive value rounded towards zero.\\n     * Returns 0 if given 0.\\n     */\\n    function log10(uint256 value) internal pure returns (uint256) {\\n        uint256 result = 0;\\n        unchecked {\\n            if (value >= 10 ** 64) {\\n                value /= 10 ** 64;\\n                result += 64;\\n            }\\n            if (value >= 10 ** 32) {\\n                value /= 10 ** 32;\\n                result += 32;\\n            }\\n            if (value >= 10 ** 16) {\\n                value /= 10 ** 16;\\n                result += 16;\\n            }\\n            if (value >= 10 ** 8) {\\n                value /= 10 ** 8;\\n                result += 8;\\n            }\\n            if (value >= 10 ** 4) {\\n                value /= 10 ** 4;\\n                result += 4;\\n            }\\n            if (value >= 10 ** 2) {\\n                value /= 10 ** 2;\\n                result += 2;\\n            }\\n            if (value >= 10 ** 1) {\\n                result += 1;\\n            }\\n        }\\n        return result;\\n    }\\n\\n    /**\\n     * @dev Return the log in base 10, following the selected rounding direction, of a positive value.\\n     * Returns 0 if given 0.\\n     */\\n    function log10(uint256 value, Rounding rounding) internal pure returns (uint256) {\\n        unchecked {\\n            uint256 result = log10(value);\\n            return result + (unsignedRoundsUp(rounding) && 10 ** result < value ? 1 : 0);\\n        }\\n    }\\n\\n    /**\\n     * @dev Return the log in base 256 of a positive value rounded towards zero.\\n     * Returns 0 if given 0.\\n     *\\n     * Adding one to the result gives the number of pairs of hex symbols needed to represent `value` as a hex string.\\n     */\\n    function log256(uint256 value) internal pure returns (uint256) {\\n        uint256 result = 0;\\n        unchecked {\\n            if (value >> 128 > 0) {\\n                value >>= 128;\\n                result += 16;\\n            }\\n            if (value >> 64 > 0) {\\n                value >>= 64;\\n                result += 8;\\n            }\\n            if (value >> 32 > 0) {\\n                value >>= 32;\\n                result += 4;\\n            }\\n            if (value >> 16 > 0) {\\n                value >>= 16;\\n                result += 2;\\n            }\\n            if (value >> 8 > 0) {\\n                result += 1;\\n            }\\n        }\\n        return result;\\n    }\\n\\n    /**\\n     * @dev Return the log in base 256, following the selected rounding direction, of a positive value.\\n     * Returns 0 if given 0.\\n     */\\n    function log256(uint256 value, Rounding rounding) internal pure returns (uint256) {\\n        unchecked {\\n            uint256 result = log256(value);\\n            return result + (unsignedRoundsUp(rounding) && 1 << (result << 3) < value ? 1 : 0);\\n        }\\n    }\\n\\n    /**\\n     * @dev Returns whether a provided rounding mode is considered rounding up for unsigned integers.\\n     */\\n    function unsignedRoundsUp(Rounding rounding) internal pure returns (bool) {\\n        return uint8(rounding) % 2 == 1;\\n    }\\n}\\n\"},\"@openzeppelin/contracts/utils/math/SignedMath.sol\":{\"content\":\"// SPDX-License-Identifier: MIT\\n// OpenZeppelin Contracts (last updated v5.0.0) (utils/math/SignedMath.sol)\\n\\npragma solidity ^0.8.20;\\n\\n/**\\n * @dev Standard signed math utilities missing in the Solidity language.\\n */\\nlibrary SignedMath {\\n    /**\\n     * @dev Returns the largest of two signed numbers.\\n     */\\n    function max(int256 a, int256 b) internal pure returns (int256) {\\n        return a > b ? a : b;\\n    }\\n\\n    /**\\n     * @dev Returns the smallest of two signed numbers.\\n     */\\n    function min(int256 a, int256 b) internal pure returns (int256) {\\n        return a < b ? a : b;\\n    }\\n\\n    /**\\n     * @dev Returns the average of two signed numbers without overflow.\\n     * The result is rounded towards zero.\\n     */\\n    function average(int256 a, int256 b) internal pure returns (int256) {\\n        // Formula from the book \\\"Hacker's Delight\\\"\\n        int256 x = (a & b) + ((a ^ b) >> 1);\\n        return x + (int256(uint256(x) >> 255) & (a ^ b));\\n    }\\n\\n    /**\\n     * @dev Returns the absolute unsigned value of a signed value.\\n     */\\n    function abs(int256 n) internal pure returns (uint256) {\\n        unchecked {\\n            // must be unchecked in order to support `n = type(int256).min`\\n            return uint256(n >= 0 ? n : -n);\\n        }\\n    }\\n}\\n\"},\"@openzeppelin/contracts/utils/StorageSlot.sol\":{\"content\":\"// SPDX-License-Identifier: MIT\\n// OpenZeppelin Contracts (last updated v5.0.0) (utils/StorageSlot.sol)\\n// This file was procedurally generated from scripts/generate/templates/StorageSlot.js.\\n\\npragma solidity ^0.8.20;\\n\\n/**\\n * @dev Library for reading and writing primitive types to specific storage slots.\\n *\\n * Storage slots are often used to avoid storage conflict when dealing with upgradeable contracts.\\n * This library helps with reading and writing to such slots without the need for inline assembly.\\n *\\n * The functions in this library return Slot structs that contain a `value` member that can be used to read or write.\\n *\\n * Example usage to set ERC1967 implementation slot:\\n * ```solidity\\n * contract ERC1967 {\\n *     bytes32 internal constant _IMPLEMENTATION_SLOT = 0x360894a13ba1a3210667c828492db98dca3e2076cc3735a920a3ca505d382bbc;\\n *\\n *     function _getImplementation() internal view returns (address) {\\n *         return StorageSlot.getAddressSlot(_IMPLEMENTATION_SLOT).value;\\n *     }\\n *\\n *     function _setImplementation(address newImplementation) internal {\\n *         require(newImplementation.code.length > 0);\\n *         StorageSlot.getAddressSlot(_IMPLEMENTATION_SLOT).value = newImplementation;\\n *     }\\n * }\\n * ```\\n */\\nlibrary StorageSlot {\\n    struct AddressSlot {\\n        address value;\\n    }\\n\\n    struct BooleanSlot {\\n        bool value;\\n    }\\n\\n    struct Bytes32Slot {\\n        bytes32 value;\\n    }\\n\\n    struct Uint256Slot {\\n        uint256 value;\\n    }\\n\\n    struct StringSlot {\\n        string value;\\n    }\\n\\n    struct BytesSlot {\\n        bytes value;\\n    }\\n\\n    /**\\n     * @dev Returns an `AddressSlot` with member `value` located at `slot`.\\n     */\\n    function getAddressSlot(bytes32 slot) internal pure returns (AddressSlot storage r) {\\n        /// @solidity memory-safe-assembly\\n        assembly {\\n            r.slot := slot\\n        }\\n    }\\n\\n    /**\\n     * @dev Returns an `BooleanSlot` with member `value` located at `slot`.\\n     */\\n    function getBooleanSlot(bytes32 slot) internal pure returns (BooleanSlot storage r) {\\n        /// @solidity memory-safe-assembly\\n        assembly {\\n            r.slot := slot\\n        }\\n    }\\n\\n    /**\\n     * @dev Returns an `Bytes32Slot` with member `value` located at `slot`.\\n     */\\n    function getBytes32Slot(bytes32 slot) internal pure returns (Bytes32Slot storage r) {\\n        /// @solidity memory-safe-assembly\\n        assembly {\\n            r.slot := slot\\n        }\\n    }\\n\\n    /**\\n     * @dev Returns an `Uint256Slot` with member `value` located at `slot`.\\n     */\\n    function getUint256Slot(bytes32 slot) internal pure returns (Uint256Slot storage r) {\\n        /// @solidity memory-safe-assembly\\n        assembly {\\n            r.slot := slot\\n        }\\n    }\\n\\n    /**\\n     * @dev Returns an `StringSlot` with member `value` located at `slot`.\\n     */\\n    function getStringSlot(bytes32 slot) internal pure returns (StringSlot storage r) {\\n        /// @solidity memory-safe-assembly\\n        assembly {\\n            r.slot := slot\\n        }\\n    }\\n\\n    /**\\n     * @dev Returns an `StringSlot` representation of the string storage pointer `store`.\\n     */\\n    function getStringSlot(string storage store) internal pure returns (StringSlot storage r) {\\n        /// @solidity memory-safe-assembly\\n        assembly {\\n            r.slot := store.slot\\n        }\\n    }\\n\\n    /**\\n     * @dev Returns an `BytesSlot` with member `value` located at `slot`.\\n     */\\n    function getBytesSlot(bytes32 slot) internal pure returns (BytesSlot storage r) {\\n        /// @solidity memory-safe-assembly\\n        assembly {\\n            r.slot := slot\\n        }\\n    }\\n\\n    /**\\n     * @dev Returns an `BytesSlot` representation of the bytes storage pointer `store`.\\n     */\\n    function getBytesSlot(bytes storage store) internal pure returns (BytesSlot storage r) {\\n        /// @solidity memory-safe-assembly\\n        assembly {\\n            r.slot := store.slot\\n        }\\n    }\\n}\\n\"},\"@openzeppelin/contracts/proxy/beacon/IBeacon.sol\":{\"content\":\"// SPDX-License-Identifier: MIT\\n// OpenZeppelin Contracts (last updated v5.0.0) (proxy/beacon/IBeacon.sol)\\n\\npragma solidity ^0.8.20;\\n\\n/**\\n * @dev This is the interface that {BeaconProxy} expects of its beacon.\\n */\\ninterface IBeacon {\\n    /**\\n     * @dev Must return an address that can be used as a delegate call target.\\n     *\\n     * {UpgradeableBeacon} will check that this address is a contract.\\n     */\\n    function implementation() external view returns (address);\\n}\\n\"},\"@openzeppelin/contracts/interfaces/IERC721.sol\":{\"content\":\"// SPDX-License-Identifier: MIT\\n// OpenZeppelin Contracts (last updated v5.0.0) (interfaces/IERC721.sol)\\n\\npragma solidity ^0.8.20;\\n\\nimport {IERC721} from \\\"../token/ERC721/IERC721.sol\\\";\\n\"},\"@openzeppelin/contracts/interfaces/IERC165.sol\":{\"content\":\"// SPDX-License-Identifier: MIT\\n// OpenZeppelin Contracts (last updated v5.0.0) (interfaces/IERC165.sol)\\n\\npragma solidity ^0.8.20;\\n\\nimport {IERC165} from \\\"../utils/introspection/IERC165.sol\\\";\\n\"}},\"settings\":{\"optimizer\":{\"enabled\":false,\"runs\":200},\"outputSelection\":{\"*\":{\"\":[\"ast\"],\"*\":[\"abi\",\"metadata\",\"devdoc\",\"userdoc\",\"storageLayout\",\"evm.legacyAssembly\",\"evm.bytecode\",\"evm.deployedBytecode\",\"evm.methodIdentifiers\",\"evm.gasEstimates\",\"evm.assembly\"]}},\"remappings\":[]}}",
	"name": "SCUMWalkers",
	"bytecode": {
		"linkReferences": {},
		"object": "60a06040523073ffffffffffffffffffffffffffffffffffffffff1660809073ffffffffffffffffffffffffffffffffffffffff1681525034801562000043575f80fd5b50620000546200005a60201b60201c565b620001c4565b5f6200006b6200015e60201b60201c565b9050805f0160089054906101000a900460ff1615620000b6576040517ff92ee8a900000000000000000000000000000000000000000000000000000000815260040160405180910390fd5b67ffffffffffffffff8016815f015f9054906101000a900467ffffffffffffffff1667ffffffffffffffff16146200015b5767ffffffffffffffff815f015f6101000a81548167ffffffffffffffff021916908367ffffffffffffffff1602179055507fc7f505b2f371ae2175ee4913f4499e1f2633a7b5936321eed1cdaeb6115181d267ffffffffffffffff604051620001529190620001a9565b60405180910390a15b50565b5f7ff0c57e16840df040f15088dc2f81fe391c3923bec73e23a9662efc9c229c6a00905090565b5f67ffffffffffffffff82169050919050565b620001a38162000185565b82525050565b5f602082019050620001be5f83018462000198565b92915050565b608051615754620001eb5f395f8181611c7b01528181611cd00152611e8a01526157545ff3fe60806040526004361061023a575f3560e01c806370a082311161012d578063a22cb465116100aa578063ca15c8731161006e578063ca15c8731461086b578063d204c45e146108a7578063d547741f146108cf578063e985e9c5146108f7578063f2fde38b146109335761023a565b8063a22cb4651461078d578063ad3cb1cc146107b5578063b88d4fde146107df578063c4d66de814610807578063c87b56dd1461082f5761023a565b80638da5cb5b116100f15780638da5cb5b146106975780639010d07c146106c157806391d14854146106fd57806395d89b4114610739578063a217fddf146107635761023a565b806370a08231146105d5578063715018a6146106115780638456cb591461062757806384b0196e1461063d57806384d6e6e21461066d5761023a565b806336568abe116101bb5780634f6ccce71161017f5780634f6ccce7146104e157806352d1902d1461051d57806355f804b3146105475780635c975abb1461056f5780636352211e146105995761023a565b806336568abe146104375780633f4ba83a1461045f57806342842e0e1461047557806342966c681461049d5780634f1ef286146104c55761023a565b806323b872dd1161020257806323b872dd14610332578063248a9ca31461035a5780632a55205a146103965780632f2ff15d146103d35780632f745c59146103fb5761023a565b806301ffc9a71461023e57806306fdde031461027a578063081812fc146102a4578063095ea7b3146102e057806318160ddd14610308575b5f80fd5b348015610249575f80fd5b50610264600480360381019061025f91906145e2565b61095b565b6040516102719190614627565b60405180910390f35b348015610285575f80fd5b5061028e61096c565b60405161029b91906146ca565b60405180910390f35b3480156102af575f80fd5b506102ca60048036038101906102c5919061471d565b610a09565b6040516102d79190614787565b60405180910390f35b3480156102eb575f80fd5b50610306600480360381019061030191906147ca565b610a24565b005b348015610313575f80fd5b5061031c610a3a565b6040516103299190614817565b60405180910390f35b34801561033d575f80fd5b5061035860048036038101906103539190614830565b610a54565b005b348015610365575f80fd5b50610380600480360381019061037b91906148b3565b610b53565b60405161038d91906148ed565b60405180910390f35b3480156103a1575f80fd5b506103bc60048036038101906103b79190614906565b610b7d565b6040516103ca929190614944565b60405180910390f35b3480156103de575f80fd5b506103f960048036038101906103f4919061496b565b610d68565b005b348015610406575f80fd5b50610421600480360381019061041c91906147ca565b610d8a565b60405161042e9190614817565b60405180910390f35b348015610442575f80fd5b5061045d6004803603810190610458919061496b565b610e3b565b005b34801561046a575f80fd5b50610473610eb6565b005b348015610480575f80fd5b5061049b60048036038101906104969190614830565b610ec8565b005b3480156104a8575f80fd5b506104c360048036038101906104be919061471d565b610ee7565b005b6104df60048036038101906104da9190614ad5565b610efd565b005b3480156104ec575f80fd5b506105076004803603810190610502919061471d565b610f1c565b6040516105149190614817565b60405180910390f35b348015610528575f80fd5b50610531610f9c565b60405161053e91906148ed565b60405180910390f35b348015610552575f80fd5b5061056d60048036038101906105689190614bcd565b610fcd565b005b34801561057a575f80fd5b50610583610fe8565b6040516105909190614627565b60405180910390f35b3480156105a4575f80fd5b506105bf60048036038101906105ba919061471d565b61100a565b6040516105cc9190614787565b60405180910390f35b3480156105e0575f80fd5b506105fb60048036038101906105f69190614c14565b61101b565b6040516106089190614817565b60405180910390f35b34801561061c575f80fd5b506106256110df565b005b348015610632575f80fd5b5061063b6110f2565b005b348015610648575f80fd5b50610651611104565b6040516106649796959493929190614d30565b60405180910390f35b348015610678575f80fd5b5061068161120d565b60405161068e91906146ca565b60405180910390f35b3480156106a2575f80fd5b506106ab61129d565b6040516106b89190614787565b60405180910390f35b3480156106cc575f80fd5b506106e760048036038101906106e29190614db2565b6112d2565b6040516106f49190614787565b60405180910390f35b348015610708575f80fd5b50610723600480360381019061071e919061496b565b61130b565b6040516107309190614627565b60405180910390f35b348015610744575f80fd5b5061074d61137c565b60405161075a91906146ca565b60405180910390f35b34801561076e575f80fd5b5061077761141a565b60405161078491906148ed565b60405180910390f35b348015610798575f80fd5b506107b360048036038101906107ae9190614e1a565b611420565b005b3480156107c0575f80fd5b506107c9611436565b6040516107d691906146ca565b60405180910390f35b3480156107ea575f80fd5b5061080560048036038101906108009190614e58565b61146f565b005b348015610812575f80fd5b5061082d60048036038101906108289190614c14565b61148c565b005b34801561083a575f80fd5b506108556004803603810190610850919061471d565b611715565b60405161086291906146ca565b60405180910390f35b348015610876575f80fd5b50610891600480360381019061088c91906148b3565b611727565b60405161089e9190614817565b60405180910390f35b3480156108b2575f80fd5b506108cd60048036038101906108c89190614ed8565b611755565b005b3480156108da575f80fd5b506108f560048036038101906108f0919061496b565b61178e565b005b348015610902575f80fd5b5061091d60048036038101906109189190614f32565b6117b0565b60405161092a9190614627565b60405180910390f35b34801561093e575f80fd5b5061095960048036038101906109549190614c14565b61184c565b005b5f610965826118d0565b9050919050565b60605f610977611930565b9050805f01805461098790614f9d565b80601f01602080910402602001604051908101604052809291908181526020018280546109b390614f9d565b80156109fe5780601f106109d5576101008083540402835291602001916109fe565b820191905f5260205f20905b8154815290600101906020018083116109e157829003601f168201915b505050505091505090565b5f610a1382611957565b50610a1d826119dd565b9050919050565b610a368282610a31611a24565b611a2b565b5050565b5f80610a44611a3d565b9050806002018054905091505090565b5f73ffffffffffffffffffffffffffffffffffffffff168273ffffffffffffffffffffffffffffffffffffffff1603610ac4575f6040517f64a0ae92000000000000000000000000000000000000000000000000000000008152600401610abb9190614787565b60405180910390fd5b5f610ad78383610ad2611a24565b611a64565b90508373ffffffffffffffffffffffffffffffffffffffff168173ffffffffffffffffffffffffffffffffffffffff1614610b4d578382826040517f64283d7b000000000000000000000000000000000000000000000000000000008152600401610b4493929190614fcd565b60405180910390fd5b50505050565b5f80610b5d611a79565b9050805f015f8481526020019081526020015f2060010154915050919050565b5f805f610b88611aa0565b90505f816001015f8781526020019081526020015f206040518060400160405290815f82015f9054906101000a900473ffffffffffffffffffffffffffffffffffffffff1673ffffffffffffffffffffffffffffffffffffffff1673ffffffffffffffffffffffffffffffffffffffff1681526020015f820160149054906101000a90046bffffffffffffffffffffffff166bffffffffffffffffffffffff166bffffffffffffffffffffffff168152505090505f73ffffffffffffffffffffffffffffffffffffffff16815f015173ffffffffffffffffffffffffffffffffffffffff1603610d1457815f016040518060400160405290815f82015f9054906101000a900473ffffffffffffffffffffffffffffffffffffffff1673ffffffffffffffffffffffffffffffffffffffff1673ffffffffffffffffffffffffffffffffffffffff1681526020015f820160149054906101000a90046bffffffffffffffffffffffff166bffffffffffffffffffffffff166bffffffffffffffffffffffff168152505090505b5f610d1d611ac7565b6bffffffffffffffffffffffff1682602001516bffffffffffffffffffffffff1687610d49919061502f565b610d53919061509d565b9050815f015181945094505050509250929050565b610d7182610b53565b610d7a81611ad0565b610d848383611ae4565b50505050565b5f80610d94611a3d565b9050610d9f8461101b565b8310610de45783836040517fa57d13dc000000000000000000000000000000000000000000000000000000008152600401610ddb929190614944565b60405180910390fd5b805f015f8573ffffffffffffffffffffffffffffffffffffffff1673ffffffffffffffffffffffffffffffffffffffff1681526020019081526020015f205f8481526020019081526020015f205491505092915050565b610e43611a24565b73ffffffffffffffffffffffffffffffffffffffff168173ffffffffffffffffffffffffffffffffffffffff1614610ea7576040517f6697b23200000000000000000000000000000000000000000000000000000000815260040160405180910390fd5b610eb18282611b34565b505050565b610ebe611b84565b610ec6611c0b565b565b610ee283838360405180602001604052805f81525061146f565b505050565b610ef95f82610ef4611a24565b611a64565b5050565b610f05611c79565b610f0e82611d5f565b610f188282611d6a565b5050565b5f80610f26611a3d565b9050610f30610a3a565b8310610f75575f836040517fa57d13dc000000000000000000000000000000000000000000000000000000008152600401610f6c929190614944565b60405180910390fd5b806002018381548110610f8b57610f8a6150cd565b5b905f5260205f200154915050919050565b5f610fa5611e88565b7f360894a13ba1a3210667c828492db98dca3e2076cc3735a920a3ca505d382bbc5f1b905090565b610fd5611b84565b8060019081610fe49190615297565b5050565b5f80610ff2611f0f565b9050805f015f9054906101000a900460ff1691505090565b5f61101482611957565b9050919050565b5f80611025611930565b90505f73ffffffffffffffffffffffffffffffffffffffff168373ffffffffffffffffffffffffffffffffffffffff1603611097575f6040517f89c62b6400000000000000000000000000000000000000000000000000000000815260040161108e9190614787565b60405180910390fd5b806003015f8473ffffffffffffffffffffffffffffffffffffffff1673ffffffffffffffffffffffffffffffffffffffff1681526020019081526020015f2054915050919050565b6110e7611b84565b6110f05f611f36565b565b6110fa611b84565b611102612007565b565b5f6060805f805f60605f611116612076565b90505f801b815f015414801561113157505f801b8160010154145b611170576040517f08c379a0000000000000000000000000000000000000000000000000000000008152600401611167906153b0565b60405180910390fd5b61117861209d565b61118061213b565b46305f801b5f67ffffffffffffffff81111561119f5761119e6149b1565b5b6040519080825280602002602001820160405280156111cd5781602001602082028036833780820191505090505b507f0f0000000000000000000000000000000000000000000000000000000000000095949392919097509750975097509750975097505090919293949596565b60606001805461121c90614f9d565b80601f016020809104026020016040519081016040528092919081815260200182805461124890614f9d565b80156112935780601f1061126a57610100808354040283529160200191611293565b820191905f5260205f20905b81548152906001019060200180831161127657829003601f168201915b5050505050905090565b5f806112a76121d9565b9050805f015f9054906101000a900473ffffffffffffffffffffffffffffffffffffffff1691505090565b5f806112dc612200565b905061130283825f015f8781526020019081526020015f2061222790919063ffffffff16565b91505092915050565b5f80611315611a79565b9050805f015f8581526020019081526020015f205f015f8473ffffffffffffffffffffffffffffffffffffffff1673ffffffffffffffffffffffffffffffffffffffff1681526020019081526020015f205f9054906101000a900460ff1691505092915050565b60605f611387611930565b905080600101805461139890614f9d565b80601f01602080910402602001604051908101604052809291908181526020018280546113c490614f9d565b801561140f5780601f106113e65761010080835404028352916020019161140f565b820191905f5260205f20905b8154815290600101906020018083116113f257829003601f168201915b505050505091505090565b5f801b81565b61143261142b611a24565b838361223e565b5050565b6040518060400160405280600581526020017f352e302e3000000000000000000000000000000000000000000000000000000081525081565b61147a848484610a54565b611486848484846123b5565b50505050565b5f611495612567565b90505f815f0160089054906101000a900460ff161590505f825f015f9054906101000a900467ffffffffffffffff1690505f808267ffffffffffffffff161480156114dd5750825b90505f60018367ffffffffffffffff1614801561151057505f3073ffffffffffffffffffffffffffffffffffffffff163b145b90508115801561151e575080155b15611555576040517ff92ee8a900000000000000000000000000000000000000000000000000000000815260040160405180910390fd5b6001855f015f6101000a81548167ffffffffffffffff021916908367ffffffffffffffff16021790555083156115a2576001855f0160086101000a81548160ff0219169083151502179055505b6116166040518060400160405280600b81526020017f5343554d57616c6b6572730000000000000000000000000000000000000000008152506040518060400160405280600281526020017f535700000000000000000000000000000000000000000000000000000000000081525061258e565b61161e6125a4565b6116266125ae565b61162e6125b8565b611637866125ca565b61163f6125de565b6116b36040518060400160405280600b81526020017f5343554d57616c6b6572730000000000000000000000000000000000000000008152506040518060400160405280600181526020017f31000000000000000000000000000000000000000000000000000000000000008152506125e8565b831561170d575f855f0160086101000a81548160ff0219169083151502179055507fc7f505b2f371ae2175ee4913f4499e1f2633a7b5936321eed1cdaeb6115181d26001604051611704919061541a565b60405180910390a15b505050505050565b6060611720826125fe565b9050919050565b5f80611731612200565b905061174d815f015f8581526020019081526020015f20612718565b915050919050565b61175d611b84565b5f805f81548092919061176f90615433565b91905055905061177f838261272b565b6117898183612748565b505050565b61179782610b53565b6117a081611ad0565b6117aa8383611b34565b50505050565b5f806117ba611930565b9050806005015f8573ffffffffffffffffffffffffffffffffffffffff1673ffffffffffffffffffffffffffffffffffffffff1681526020019081526020015f205f8473ffffffffffffffffffffffffffffffffffffffff1673ffffffffffffffffffffffffffffffffffffffff1681526020019081526020015f205f9054906101000a900460ff1691505092915050565b611854611b84565b5f73ffffffffffffffffffffffffffffffffffffffff168173ffffffffffffffffffffffffffffffffffffffff16036118c4575f6040517f1e4fbdf70000000000000000000000000000000000000000000000000000000081526004016118bb9190614787565b60405180910390fd5b6118cd81611f36565b50565b5f634906490660e01b7bffffffffffffffffffffffffffffffffffffffffffffffffffffffff1916827bffffffffffffffffffffffffffffffffffffffffffffffffffffffff191614806119295750611928826127af565b5b9050919050565b5f7f80bb2b638cc20bc4d0a60d66940f3ab4a00c1d7b313497ca82fb0b4ab0079300905090565b5f8061196283612828565b90505f73ffffffffffffffffffffffffffffffffffffffff168173ffffffffffffffffffffffffffffffffffffffff16036119d457826040517f7e2732890000000000000000000000000000000000000000000000000000000081526004016119cb9190614817565b60405180910390fd5b80915050919050565b5f806119e7611930565b9050806004015f8481526020019081526020015f205f9054906101000a900473ffffffffffffffffffffffffffffffffffffffff16915050919050565b5f33905090565b611a388383836001612839565b505050565b5f7f645e039705490088daad89bae25049a34f4a9072d398537b1ab2425f24cbed00905090565b5f611a70848484612a06565b90509392505050565b5f7f02dd7bc7dec4dceedda775e58dd541e08a116c6c53815c0bd028192f7b626800905090565b5f7fdaedc9ab023613a7caf35e703657e986ccfad7e3eb0af93a2853f8d65dd86b00905090565b5f612710905090565b611ae181611adc611a24565b612a23565b50565b5f80611aee612200565b90505f611afb8585612a74565b90508015611b2957611b2784835f015f8881526020019081526020015f20612b6c90919063ffffffff16565b505b809250505092915050565b5f80611b3e612200565b90505f611b4b8585612b99565b90508015611b7957611b7784835f015f8881526020019081526020015f20612c9190919063ffffffff16565b505b809250505092915050565b611b8c611a24565b73ffffffffffffffffffffffffffffffffffffffff16611baa61129d565b73ffffffffffffffffffffffffffffffffffffffff1614611c0957611bcd611a24565b6040517f118cdaa7000000000000000000000000000000000000000000000000000000008152600401611c009190614787565b60405180910390fd5b565b611c13612cbe565b5f611c1c611f0f565b90505f815f015f6101000a81548160ff0219169083151502179055507f5db9ee0a495bf2e6ff9c91a7834c1ba4fdd244a5e8aa4e537bd38aeae4b073aa611c61611a24565b604051611c6e9190614787565b60405180910390a150565b7f000000000000000000000000000000000000000000000000000000000000000073ffffffffffffffffffffffffffffffffffffffff163073ffffffffffffffffffffffffffffffffffffffff161480611d2657507f000000000000000000000000000000000000000000000000000000000000000073ffffffffffffffffffffffffffffffffffffffff16611d0d612cfe565b73ffffffffffffffffffffffffffffffffffffffff1614155b15611d5d576040517fe07c8dba00000000000000000000000000000000000000000000000000000000815260040160405180910390fd5b565b611d67611b84565b50565b8173ffffffffffffffffffffffffffffffffffffffff166352d1902d6040518163ffffffff1660e01b8152600401602060405180830381865afa925050508015611dd257506040513d601f19601f82011682018060405250810190611dcf919061548e565b60015b611e1357816040517f4c9c8ce3000000000000000000000000000000000000000000000000000000008152600401611e0a9190614787565b60405180910390fd5b7f360894a13ba1a3210667c828492db98dca3e2076cc3735a920a3ca505d382bbc5f1b8114611e7957806040517faa1d49a4000000000000000000000000000000000000000000000000000000008152600401611e7091906148ed565b60405180910390fd5b611e838383612d51565b505050565b7f000000000000000000000000000000000000000000000000000000000000000073ffffffffffffffffffffffffffffffffffffffff163073ffffffffffffffffffffffffffffffffffffffff1614611f0d576040517fe07c8dba00000000000000000000000000000000000000000000000000000000815260040160405180910390fd5b565b5f7fcd5ed15c6e187e77e9aee88184c21f4f2182ab5827cb3b7e07fbedcd63f03300905090565b5f611f3f6121d9565b90505f815f015f9054906101000a900473ffffffffffffffffffffffffffffffffffffffff16905082825f015f6101000a81548173ffffffffffffffffffffffffffffffffffffffff021916908373ffffffffffffffffffffffffffffffffffffffff1602179055508273ffffffffffffffffffffffffffffffffffffffff168173ffffffffffffffffffffffffffffffffffffffff167f8be0079c531659141344cd1fd0a4f28419497f9722a3daafe3b4186f6b6457e060405160405180910390a3505050565b61200f612dc3565b5f612018611f0f565b90506001815f015f6101000a81548160ff0219169083151502179055507f62e78cea01bee320cd4e420270b5ea74000d11b0c9f74754ebdbfc544b05a25861205e611a24565b60405161206b9190614787565b60405180910390a150565b5f7fa16a46d94261c7517cc8ff89f61c0ce93598e3c849801011dee649a6a557d100905090565b60605f6120a8612076565b90508060020180546120b990614f9d565b80601f01602080910402602001604051908101604052809291908181526020018280546120e590614f9d565b80156121305780601f1061210757610100808354040283529160200191612130565b820191905f5260205f20905b81548152906001019060200180831161211357829003601f168201915b505050505091505090565b60605f612146612076565b905080600301805461215790614f9d565b80601f016020809104026020016040519081016040528092919081815260200182805461218390614f9d565b80156121ce5780601f106121a5576101008083540402835291602001916121ce565b820191905f5260205f20905b8154815290600101906020018083116121b157829003601f168201915b505050505091505090565b5f7f9016d09d72d40fdae2fd8ceac6b6234c7706214fd39c1cd1e609a0528c199300905090565b5f7fc1f6fe24621ce81ec5827caf0253cadb74709b061630e6b55e82371705932000905090565b5f612234835f0183612e04565b5f1c905092915050565b5f612247611930565b90505f73ffffffffffffffffffffffffffffffffffffffff168373ffffffffffffffffffffffffffffffffffffffff16036122b957826040517f5b08ba180000000000000000000000000000000000000000000000000000000081526004016122b09190614787565b60405180910390fd5b81816005015f8673ffffffffffffffffffffffffffffffffffffffff1673ffffffffffffffffffffffffffffffffffffffff1681526020019081526020015f205f8573ffffffffffffffffffffffffffffffffffffffff1673ffffffffffffffffffffffffffffffffffffffff1681526020019081526020015f205f6101000a81548160ff0219169083151502179055508273ffffffffffffffffffffffffffffffffffffffff168473ffffffffffffffffffffffffffffffffffffffff167f17307eab39ab6107e8899845ad3d59bd9653f200f220920489ca2b5937696c31846040516123a79190614627565b60405180910390a350505050565b5f8373ffffffffffffffffffffffffffffffffffffffff163b1115612561578273ffffffffffffffffffffffffffffffffffffffff1663150b7a026123f8611a24565b8685856040518563ffffffff1660e01b815260040161241a949392919061550b565b6020604051808303815f875af192505050801561245557506040513d601f19601f820116820180604052508101906124529190615569565b60015b6124d6573d805f8114612483576040519150601f19603f3d011682016040523d82523d5f602084013e612488565b606091505b505f8151036124ce57836040517f64a0ae920000000000000000000000000000000000000000000000000000000081526004016124c59190614787565b60405180910390fd5b805181602001fd5b63150b7a0260e01b7bffffffffffffffffffffffffffffffffffffffffffffffffffffffff1916817bffffffffffffffffffffffffffffffffffffffffffffffffffffffff19161461255f57836040517f64a0ae920000000000000000000000000000000000000000000000000000000081526004016125569190614787565b60405180910390fd5b505b50505050565b5f7ff0c57e16840df040f15088dc2f81fe391c3923bec73e23a9662efc9c229c6a00905090565b612596612e2b565b6125a08282612e6b565b5050565b6125ac612e2b565b565b6125b6612e2b565b565b6125c0612e2b565b6125c8612ea6565b565b6125d2612e2b565b6125db81612ed6565b50565b6125e6612e2b565b565b6125f0612e2b565b6125fa8282612f5a565b5050565b60605f612609612fab565b905061261483611957565b505f815f015f8581526020019081526020015f20805461263390614f9d565b80601f016020809104026020016040519081016040528092919081815260200182805461265f90614f9d565b80156126aa5780601f10612681576101008083540402835291602001916126aa565b820191905f5260205f20905b81548152906001019060200180831161268d57829003601f168201915b505050505090505f6126ba612fd2565b90505f8151036126cf57819350505050612713565b5f825111156127045780826040516020016126eb9291906155ce565b6040516020818303038152906040529350505050612713565b61270d85612fe8565b93505050505b919050565b5f612724825f0161304e565b9050919050565b612744828260405180602001604052805f81525061305d565b5050565b5f612751612fab565b905081815f015f8581526020019081526020015f2090816127729190615297565b507ff8e1a15aba9398e019f0b49df1a4fde98ee17ae345cb5f6b5e2c27f5033e8ce7836040516127a29190614817565b60405180910390a1505050565b5f7f780e9d63000000000000000000000000000000000000000000000000000000007bffffffffffffffffffffffffffffffffffffffffffffffffffffffff1916827bffffffffffffffffffffffffffffffffffffffffffffffffffffffff19161480612821575061282082613078565b5b9050919050565b5f612832826130f1565b9050919050565b5f612842611930565b9050818061287c57505f73ffffffffffffffffffffffffffffffffffffffff168373ffffffffffffffffffffffffffffffffffffffff1614155b156129ae575f61288b85611957565b90505f73ffffffffffffffffffffffffffffffffffffffff168473ffffffffffffffffffffffffffffffffffffffff16141580156128f557508373ffffffffffffffffffffffffffffffffffffffff168173ffffffffffffffffffffffffffffffffffffffff1614155b8015612908575061290681856117b0565b155b1561294a57836040517fa9fbf51f0000000000000000000000000000000000000000000000000000000081526004016129419190614787565b60405180910390fd5b82156129ac57848673ffffffffffffffffffffffffffffffffffffffff168273ffffffffffffffffffffffffffffffffffffffff167f8c5be1e5ebec7d5bd14f71427d1e84f3dd0314c0f7b2291e5b200ac8c7c3b92560405160405180910390a45b505b84816004015f8681526020019081526020015f205f6101000a81548173ffffffffffffffffffffffffffffffffffffffff021916908373ffffffffffffffffffffffffffffffffffffffff1602179055505050505050565b5f612a0f612dc3565b612a1a848484613138565b90509392505050565b612a2d828261130b565b612a705780826040517fe2517d3f000000000000000000000000000000000000000000000000000000008152600401612a679291906155f1565b60405180910390fd5b5050565b5f80612a7e611a79565b9050612a8a848461130b565b612b61576001815f015f8681526020019081526020015f205f015f8573ffffffffffffffffffffffffffffffffffffffff1673ffffffffffffffffffffffffffffffffffffffff1681526020019081526020015f205f6101000a81548160ff021916908315150217905550612afd611a24565b73ffffffffffffffffffffffffffffffffffffffff168373ffffffffffffffffffffffffffffffffffffffff16857f2f8788117e7eff1d82e926ec794901d17c78024a50270940304540a733656f0d60405160405180910390a46001915050612b66565b5f9150505b92915050565b5f612b91835f018373ffffffffffffffffffffffffffffffffffffffff165f1b613252565b905092915050565b5f80612ba3611a79565b9050612baf848461130b565b15612c86575f815f015f8681526020019081526020015f205f015f8573ffffffffffffffffffffffffffffffffffffffff1673ffffffffffffffffffffffffffffffffffffffff1681526020019081526020015f205f6101000a81548160ff021916908315150217905550612c22611a24565b73ffffffffffffffffffffffffffffffffffffffff168373ffffffffffffffffffffffffffffffffffffffff16857ff6391f5c32d9c69d2a47ea670b442974b53935d1edc7fd64eb21e047a839171b60405160405180910390a46001915050612c8b565b5f9150505b92915050565b5f612cb6835f018373ffffffffffffffffffffffffffffffffffffffff165f1b6132b9565b905092915050565b612cc6610fe8565b612cfc576040517f8dfc202b00000000000000000000000000000000000000000000000000000000815260040160405180910390fd5b565b5f612d2a7f360894a13ba1a3210667c828492db98dca3e2076cc3735a920a3ca505d382bbc5f1b6133b5565b5f015f9054906101000a900473ffffffffffffffffffffffffffffffffffffffff16905090565b612d5a826133be565b8173ffffffffffffffffffffffffffffffffffffffff167fbc7cd75a20ee27fd9adebab32041f755214dbc6bffa90cc0225b39da2e5c2d3b60405160405180910390a25f81511115612db657612db08282613487565b50612dbf565b612dbe613507565b5b5050565b612dcb610fe8565b15612e02576040517fd93c066500000000000000000000000000000000000000000000000000000000815260040160405180910390fd5b565b5f825f018281548110612e1a57612e196150cd565b5b905f5260205f200154905092915050565b612e33613543565b612e69576040517fd7e6bcf800000000000000000000000000000000000000000000000000000000815260040160405180910390fd5b565b612e73612e2b565b5f612e7c611930565b905082815f019081612e8e9190615297565b5081816001019081612ea09190615297565b50505050565b612eae612e2b565b5f612eb7611f0f565b90505f815f015f6101000a81548160ff02191690831515021790555050565b612ede612e2b565b5f73ffffffffffffffffffffffffffffffffffffffff168173ffffffffffffffffffffffffffffffffffffffff1603612f4e575f6040517f1e4fbdf7000000000000000000000000000000000000000000000000000000008152600401612f459190614787565b60405180910390fd5b612f5781611f36565b50565b612f62612e2b565b5f612f6b612076565b905082816002019081612f7e9190615297565b5081816003019081612f909190615297565b505f801b815f01819055505f801b8160010181905550505050565b5f7f0542a41881ee128a365a727b282c86fa859579490b9bb45aab8503648c8e7900905090565b606060405180602001604052805f815250905090565b6060612ff382611957565b505f612ffd612fd2565b90505f81511161301b5760405180602001604052805f815250613046565b8061302584613561565b6040516020016130369291906155ce565b6040516020818303038152906040525b915050919050565b5f815f01805490509050919050565b613067838361362b565b6130735f8484846123b5565b505050565b5f7f2a55205a000000000000000000000000000000000000000000000000000000007bffffffffffffffffffffffffffffffffffffffffffffffffffffffff1916827bffffffffffffffffffffffffffffffffffffffffffffffffffffffff191614806130ea57506130e98261371e565b5b9050919050565b5f806130fb611930565b9050806002015f8481526020019081526020015f205f9054906101000a900473ffffffffffffffffffffffffffffffffffffffff16915050919050565b5f80613145858585613797565b90505f73ffffffffffffffffffffffffffffffffffffffff168173ffffffffffffffffffffffffffffffffffffffff160361318857613183846138cf565b6131c7565b8473ffffffffffffffffffffffffffffffffffffffff168173ffffffffffffffffffffffffffffffffffffffff16146131c6576131c58185613925565b5b5b5f73ffffffffffffffffffffffffffffffffffffffff168573ffffffffffffffffffffffffffffffffffffffff16036132085761320384613a84565b613247565b8473ffffffffffffffffffffffffffffffffffffffff168173ffffffffffffffffffffffffffffffffffffffff1614613246576132458585613b5e565b5b5b809150509392505050565b5f61325d8383613bf1565b6132af57825f0182908060018154018082558091505060019003905f5260205f20015f9091909190915055825f0180549050836001015f8481526020019081526020015f2081905550600190506132b3565b5f90505b92915050565b5f80836001015f8481526020019081526020015f205490505f81146133aa575f6001826132e69190615618565b90505f6001865f01805490506132fc9190615618565b9050808214613362575f865f01828154811061331b5761331a6150cd565b5b905f5260205f200154905080875f01848154811061333c5761333b6150cd565b5b905f5260205f20018190555083876001015f8381526020019081526020015f2081905550505b855f018054806133755761337461564b565b5b600190038181905f5260205f20015f90559055856001015f8681526020019081526020015f205f9055600193505050506133af565b5f9150505b92915050565b5f819050919050565b5f8173ffffffffffffffffffffffffffffffffffffffff163b0361341957806040517f4c9c8ce30000000000000000000000000000000000000000000000000000000081526004016134109190614787565b60405180910390fd5b806134457f360894a13ba1a3210667c828492db98dca3e2076cc3735a920a3ca505d382bbc5f1b6133b5565b5f015f6101000a81548173ffffffffffffffffffffffffffffffffffffffff021916908373ffffffffffffffffffffffffffffffffffffffff16021790555050565b60605f808473ffffffffffffffffffffffffffffffffffffffff16846040516134b091906156b2565b5f60405180830381855af49150503d805f81146134e8576040519150601f19603f3d011682016040523d82523d5f602084013e6134ed565b606091505b50915091506134fd858383613c11565b9250505092915050565b5f341115613541576040517fb398979f00000000000000000000000000000000000000000000000000000000815260040160405180910390fd5b565b5f61354c612567565b5f0160089054906101000a900460ff16905090565b60605f600161356f84613c9e565b0190505f8167ffffffffffffffff81111561358d5761358c6149b1565b5b6040519080825280601f01601f1916602001820160405280156135bf5781602001600182028036833780820191505090505b5090505f82602001820190505b600115613620578080600190039150507f3031323334353637383961626364656600000000000000000000000000000000600a86061a8153600a858161361557613614615070565b5b0494505f85036135cc575b819350505050919050565b5f73ffffffffffffffffffffffffffffffffffffffff168273ffffffffffffffffffffffffffffffffffffffff160361369b575f6040517f64a0ae920000000000000000000000000000000000000000000000000000000081526004016136929190614787565b60405180910390fd5b5f6136a783835f611a64565b90505f73ffffffffffffffffffffffffffffffffffffffff168173ffffffffffffffffffffffffffffffffffffffff1614613719575f6040517f73c6ac6e0000000000000000000000000000000000000000000000000000000081526004016137109190614787565b60405180910390fd5b505050565b5f7f5a05180f000000000000000000000000000000000000000000000000000000007bffffffffffffffffffffffffffffffffffffffffffffffffffffffff1916827bffffffffffffffffffffffffffffffffffffffffffffffffffffffff19161480613790575061378f82613def565b5b9050919050565b5f806137a1613ed0565b90505f6137af868686613ef7565b90505f73ffffffffffffffffffffffffffffffffffffffff168173ffffffffffffffffffffffffffffffffffffffff1614801561380257505f3073ffffffffffffffffffffffffffffffffffffffff163b145b15613839576040517fad89505200000000000000000000000000000000000000000000000000000000815260040160405180910390fd5b5f73ffffffffffffffffffffffffffffffffffffffff168673ffffffffffffffffffffffffffffffffffffffff161480156138885750613877614114565b6bffffffffffffffffffffffff1685105b80156138a757506138a5858360010161415a90919063ffffffff16565b155b156138c3576138c2858360010161419090919063ffffffff16565b5b80925050509392505050565b5f6138d8611a3d565b90508060020180549050816003015f8481526020019081526020015f20819055508060020182908060018154018082558091505060019003905f5260205f20015f90919091909150555050565b5f61392e611a3d565b90505f61393a8461101b565b90505f826001015f8581526020019081526020015f20549050818114613a17575f835f015f8773ffffffffffffffffffffffffffffffffffffffff1673ffffffffffffffffffffffffffffffffffffffff1681526020019081526020015f205f8481526020019081526020015f2054905080845f015f8873ffffffffffffffffffffffffffffffffffffffff1673ffffffffffffffffffffffffffffffffffffffff1681526020019081526020015f205f8481526020019081526020015f208190555081846001015f8381526020019081526020015f2081905550505b826001015f8581526020019081526020015f205f9055825f015f8673ffffffffffffffffffffffffffffffffffffffff1673ffffffffffffffffffffffffffffffffffffffff1681526020019081526020015f205f8381526020019081526020015f205f90555050505050565b5f613a8d611a3d565b90505f60018260020180549050613aa49190615618565b90505f826003015f8581526020019081526020015f205490505f836002018381548110613ad457613ad36150cd565b5b905f5260205f200154905080846002018381548110613af657613af56150cd565b5b905f5260205f20018190555081846003015f8381526020019081526020015f2081905550836003015f8681526020019081526020015f205f905583600201805480613b4457613b4361564b565b5b600190038181905f5260205f20015f905590555050505050565b5f613b67611a3d565b90505f6001613b758561101b565b613b7f9190615618565b905082825f015f8673ffffffffffffffffffffffffffffffffffffffff1673ffffffffffffffffffffffffffffffffffffffff1681526020019081526020015f205f8381526020019081526020015f208190555080826001015f8581526020019081526020015f208190555050505050565b5f80836001015f8481526020019081526020015f20541415905092915050565b606082613c2657613c21826141c8565b613c96565b5f8251148015613c4c57505f8473ffffffffffffffffffffffffffffffffffffffff163b145b15613c8e57836040517f9996b315000000000000000000000000000000000000000000000000000000008152600401613c859190614787565b60405180910390fd5b819050613c97565b5b9392505050565b5f805f90507a184f03e93ff9f4daa797ed6e38ed64bf6a1f0100000000000000008310613cfa577a184f03e93ff9f4daa797ed6e38ed64bf6a1f0100000000000000008381613cf057613cef615070565b5b0492506040810190505b6d04ee2d6d415b85acef81000000008310613d37576d04ee2d6d415b85acef81000000008381613d2d57613d2c615070565b5b0492506020810190505b662386f26fc100008310613d6657662386f26fc100008381613d5c57613d5b615070565b5b0492506010810190505b6305f5e1008310613d8f576305f5e1008381613d8557613d84615070565b5b0492506008810190505b6127108310613db4576127108381613daa57613da9615070565b5b0492506004810190505b60648310613dd75760648381613dcd57613dcc615070565b5b0492506002810190505b600a8310613de6576001810190505b80915050919050565b5f7f80ac58cd000000000000000000000000000000000000000000000000000000007bffffffffffffffffffffffffffffffffffffffffffffffffffffffff1916827bffffffffffffffffffffffffffffffffffffffffffffffffffffffff19161480613eb957507f5b5e139f000000000000000000000000000000000000000000000000000000007bffffffffffffffffffffffffffffffffffffffffffffffffffffffff1916827bffffffffffffffffffffffffffffffffffffffffffffffffffffffff1916145b80613ec95750613ec88261420c565b5b9050919050565b5f7f24de1071a22e1e6f709b09cc0dadb696f919b85b456665cd36195df4bc89ff00905090565b5f80613f01611930565b90505f613f0d85612828565b90505f73ffffffffffffffffffffffffffffffffffffffff168473ffffffffffffffffffffffffffffffffffffffff1614613f4e57613f4d818587614285565b5b5f73ffffffffffffffffffffffffffffffffffffffff168173ffffffffffffffffffffffffffffffffffffffff1614613fdb57613f8d5f865f80612839565b6001826003015f8373ffffffffffffffffffffffffffffffffffffffff1673ffffffffffffffffffffffffffffffffffffffff1681526020019081526020015f205f82825403925050819055505b5f73ffffffffffffffffffffffffffffffffffffffff168673ffffffffffffffffffffffffffffffffffffffff161461405c576001826003015f8873ffffffffffffffffffffffffffffffffffffffff1673ffffffffffffffffffffffffffffffffffffffff1681526020019081526020015f205f82825401925050819055505b85826002015f8781526020019081526020015f205f6101000a81548173ffffffffffffffffffffffffffffffffffffffff021916908373ffffffffffffffffffffffffffffffffffffffff160217905550848673ffffffffffffffffffffffffffffffffffffffff168273ffffffffffffffffffffffffffffffffffffffff167fddf252ad1be2c89b69c2b068fc378daa952ba7f163c4a11628f55a4df523b3ef60405160405180910390a480925050509392505050565b5f8061411e613ed0565b90505f8061412d835f01614348565b5091509150816141445761413f61443d565b614152565b60018161415191906156df565b5b935050505090565b5f80600883901c90505f60ff84166001901b90505f81865f015f8581526020019081526020015f20541614159250505092915050565b5f600882901c90505f60ff83166001901b905080845f015f8481526020019081526020015f205f828254179250508190555050505050565b5f815111156141da5780518082602001fd5b6040517f1425ea4200000000000000000000000000000000000000000000000000000000815260040160405180910390fd5b5f7f7965db0b000000000000000000000000000000000000000000000000000000007bffffffffffffffffffffffffffffffffffffffffffffffffffffffff1916827bffffffffffffffffffffffffffffffffffffffffffffffffffffffff1916148061427e575061427d82614441565b5b9050919050565b6142908383836144aa565b614343575f73ffffffffffffffffffffffffffffffffffffffff168373ffffffffffffffffffffffffffffffffffffffff160361430457806040517f7e2732890000000000000000000000000000000000000000000000000000000081526004016142fb9190614817565b60405180910390fd5b81816040517f177e802f00000000000000000000000000000000000000000000000000000000815260040161433a929190614944565b60405180910390fd5b505050565b5f805f80845f018054905090505f810361436b575f805f93509350935050614436565b5f614384865f0160018461437f9190615618565b61456a565b6040518060400160405290815f82015f9054906101000a90046bffffffffffffffffffffffff166bffffffffffffffffffffffff166bffffffffffffffffffffffff1681526020015f8201600c9054906101000a900473ffffffffffffffffffffffffffffffffffffffff1673ffffffffffffffffffffffffffffffffffffffff1673ffffffffffffffffffffffffffffffffffffffff168152505090506001815f0151826020015194509450945050505b9193909250565b5f90565b5f7f01ffc9a7000000000000000000000000000000000000000000000000000000007bffffffffffffffffffffffffffffffffffffffffffffffffffffffff1916827bffffffffffffffffffffffffffffffffffffffffffffffffffffffff1916149050919050565b5f8073ffffffffffffffffffffffffffffffffffffffff168373ffffffffffffffffffffffffffffffffffffffff161415801561456157508273ffffffffffffffffffffffffffffffffffffffff168473ffffffffffffffffffffffffffffffffffffffff161480614522575061452184846117b0565b5b8061456057508273ffffffffffffffffffffffffffffffffffffffff16614548836119dd565b73ffffffffffffffffffffffffffffffffffffffff16145b5b90509392505050565b5f825f528160205f2001905092915050565b5f604051905090565b5f80fd5b5f80fd5b5f7fffffffff0000000000000000000000000000000000000000000000000000000082169050919050565b6145c18161458d565b81146145cb575f80fd5b50565b5f813590506145dc816145b8565b92915050565b5f602082840312156145f7576145f6614585565b5b5f614604848285016145ce565b91505092915050565b5f8115159050919050565b6146218161460d565b82525050565b5f60208201905061463a5f830184614618565b92915050565b5f81519050919050565b5f82825260208201905092915050565b5f5b8381101561467757808201518184015260208101905061465c565b5f8484015250505050565b5f601f19601f8301169050919050565b5f61469c82614640565b6146a6818561464a565b93506146b681856020860161465a565b6146bf81614682565b840191505092915050565b5f6020820190508181035f8301526146e28184614692565b905092915050565b5f819050919050565b6146fc816146ea565b8114614706575f80fd5b50565b5f81359050614717816146f3565b92915050565b5f6020828403121561473257614731614585565b5b5f61473f84828501614709565b91505092915050565b5f73ffffffffffffffffffffffffffffffffffffffff82169050919050565b5f61477182614748565b9050919050565b61478181614767565b82525050565b5f60208201905061479a5f830184614778565b92915050565b6147a981614767565b81146147b3575f80fd5b50565b5f813590506147c4816147a0565b92915050565b5f80604083850312156147e0576147df614585565b5b5f6147ed858286016147b6565b92505060206147fe85828601614709565b9150509250929050565b614811816146ea565b82525050565b5f60208201905061482a5f830184614808565b92915050565b5f805f6060848603121561484757614846614585565b5b5f614854868287016147b6565b9350506020614865868287016147b6565b925050604061487686828701614709565b9150509250925092565b5f819050919050565b61489281614880565b811461489c575f80fd5b50565b5f813590506148ad81614889565b92915050565b5f602082840312156148c8576148c7614585565b5b5f6148d58482850161489f565b91505092915050565b6148e781614880565b82525050565b5f6020820190506149005f8301846148de565b92915050565b5f806040838503121561491c5761491b614585565b5b5f61492985828601614709565b925050602061493a85828601614709565b9150509250929050565b5f6040820190506149575f830185614778565b6149646020830184614808565b9392505050565b5f806040838503121561498157614980614585565b5b5f61498e8582860161489f565b925050602061499f858286016147b6565b9150509250929050565b5f80fd5b5f80fd5b7f4e487b71000000000000000000000000000000000000000000000000000000005f52604160045260245ffd5b6149e782614682565b810181811067ffffffffffffffff82111715614a0657614a056149b1565b5b80604052505050565b5f614a1861457c565b9050614a2482826149de565b919050565b5f67ffffffffffffffff821115614a4357614a426149b1565b5b614a4c82614682565b9050602081019050919050565b828183375f83830152505050565b5f614a79614a7484614a29565b614a0f565b905082815260208101848484011115614a9557614a946149ad565b5b614aa0848285614a59565b509392505050565b5f82601f830112614abc57614abb6149a9565b5b8135614acc848260208601614a67565b91505092915050565b5f8060408385031215614aeb57614aea614585565b5b5f614af8858286016147b6565b925050602083013567ffffffffffffffff811115614b1957614b18614589565b5b614b2585828601614aa8565b9150509250929050565b5f67ffffffffffffffff821115614b4957614b486149b1565b5b614b5282614682565b9050602081019050919050565b5f614b71614b6c84614b2f565b614a0f565b905082815260208101848484011115614b8d57614b8c6149ad565b5b614b98848285614a59565b509392505050565b5f82601f830112614bb457614bb36149a9565b5b8135614bc4848260208601614b5f565b91505092915050565b5f60208284031215614be257614be1614585565b5b5f82013567ffffffffffffffff811115614bff57614bfe614589565b5b614c0b84828501614ba0565b91505092915050565b5f60208284031215614c2957614c28614585565b5b5f614c36848285016147b6565b91505092915050565b5f7fff0000000000000000000000000000000000000000000000000000000000000082169050919050565b614c7381614c3f565b82525050565b5f81519050919050565b5f82825260208201905092915050565b5f819050602082019050919050565b614cab816146ea565b82525050565b5f614cbc8383614ca2565b60208301905092915050565b5f602082019050919050565b5f614cde82614c79565b614ce88185614c83565b9350614cf383614c93565b805f5b83811015614d23578151614d0a8882614cb1565b9750614d1583614cc8565b925050600181019050614cf6565b5085935050505092915050565b5f60e082019050614d435f83018a614c6a565b8181036020830152614d558189614692565b90508181036040830152614d698188614692565b9050614d786060830187614808565b614d856080830186614778565b614d9260a08301856148de565b81810360c0830152614da48184614cd4565b905098975050505050505050565b5f8060408385031215614dc857614dc7614585565b5b5f614dd58582860161489f565b9250506020614de685828601614709565b9150509250929050565b614df98161460d565b8114614e03575f80fd5b50565b5f81359050614e1481614df0565b92915050565b5f8060408385031215614e3057614e2f614585565b5b5f614e3d858286016147b6565b9250506020614e4e85828601614e06565b9150509250929050565b5f805f8060808587031215614e7057614e6f614585565b5b5f614e7d878288016147b6565b9450506020614e8e878288016147b6565b9350506040614e9f87828801614709565b925050606085013567ffffffffffffffff811115614ec057614ebf614589565b5b614ecc87828801614aa8565b91505092959194509250565b5f8060408385031215614eee57614eed614585565b5b5f614efb858286016147b6565b925050602083013567ffffffffffffffff811115614f1c57614f1b614589565b5b614f2885828601614ba0565b9150509250929050565b5f8060408385031215614f4857614f47614585565b5b5f614f55858286016147b6565b9250506020614f66858286016147b6565b9150509250929050565b7f4e487b71000000000000000000000000000000000000000000000000000000005f52602260045260245ffd5b5f6002820490506001821680614fb457607f821691505b602082108103614fc757614fc6614f70565b5b50919050565b5f606082019050614fe05f830186614778565b614fed6020830185614808565b614ffa6040830184614778565b949350505050565b7f4e487b71000000000000000000000000000000000000000000000000000000005f52601160045260245ffd5b5f615039826146ea565b9150615044836146ea565b9250828202615052816146ea565b9150828204841483151761506957615068615002565b5b5092915050565b7f4e487b71000000000000000000000000000000000000000000000000000000005f52601260045260245ffd5b5f6150a7826146ea565b91506150b2836146ea565b9250826150c2576150c1615070565b5b828204905092915050565b7f4e487b71000000000000000000000000000000000000000000000000000000005f52603260045260245ffd5b5f819050815f5260205f209050919050565b5f6020601f8301049050919050565b5f82821b905092915050565b5f600883026151567fffffffffffffffffffffffffffffffffffffffffffffffffffffffffffffffff8261511b565b615160868361511b565b95508019841693508086168417925050509392505050565b5f819050919050565b5f61519b615196615191846146ea565b615178565b6146ea565b9050919050565b5f819050919050565b6151b483615181565b6151c86151c0826151a2565b848454615127565b825550505050565b5f90565b6151dc6151d0565b6151e78184846151ab565b505050565b5b8181101561520a576151ff5f826151d4565b6001810190506151ed565b5050565b601f82111561524f57615220816150fa565b6152298461510c565b81016020851015615238578190505b61524c6152448561510c565b8301826151ec565b50505b505050565b5f82821c905092915050565b5f61526f5f1984600802615254565b1980831691505092915050565b5f6152878383615260565b9150826002028217905092915050565b6152a082614640565b67ffffffffffffffff8111156152b9576152b86149b1565b5b6152c38254614f9d565b6152ce82828561520e565b5f60209050601f8311600181146152ff575f84156152ed578287015190505b6152f7858261527c565b86555061535e565b601f19841661530d866150fa565b5f5b828110156153345784890151825560018201915060208501945060208101905061530f565b86831015615351578489015161534d601f891682615260565b8355505b6001600288020188555050505b505050505050565b7f4549503731323a20556e696e697469616c697a656400000000000000000000005f82015250565b5f61539a60158361464a565b91506153a582615366565b602082019050919050565b5f6020820190508181035f8301526153c78161538e565b9050919050565b5f819050919050565b5f67ffffffffffffffff82169050919050565b5f6154046153ff6153fa846153ce565b615178565b6153d7565b9050919050565b615414816153ea565b82525050565b5f60208201905061542d5f83018461540b565b92915050565b5f61543d826146ea565b91507fffffffffffffffffffffffffffffffffffffffffffffffffffffffffffffffff820361546f5761546e615002565b5b600182019050919050565b5f8151905061548881614889565b92915050565b5f602082840312156154a3576154a2614585565b5b5f6154b08482850161547a565b91505092915050565b5f81519050919050565b5f82825260208201905092915050565b5f6154dd826154b9565b6154e781856154c3565b93506154f781856020860161465a565b61550081614682565b840191505092915050565b5f60808201905061551e5f830187614778565b61552b6020830186614778565b6155386040830185614808565b818103606083015261554a81846154d3565b905095945050505050565b5f81519050615563816145b8565b92915050565b5f6020828403121561557e5761557d614585565b5b5f61558b84828501615555565b91505092915050565b5f81905092915050565b5f6155a882614640565b6155b28185615594565b93506155c281856020860161465a565b80840191505092915050565b5f6155d9828561559e565b91506155e5828461559e565b91508190509392505050565b5f6040820190506156045f830185614778565b61561160208301846148de565b9392505050565b5f615622826146ea565b915061562d836146ea565b925082820390508181111561564557615644615002565b5b92915050565b7f4e487b71000000000000000000000000000000000000000000000000000000005f52603160045260245ffd5b5f81905092915050565b5f61568c826154b9565b6156968185615678565b93506156a681856020860161465a565b80840191505092915050565b5f6156bd8284615682565b915081905092915050565b5f6bffffffffffffffffffffffff82169050919050565b5f6156e9826156c8565b91506156f4836156c8565b925082820190506bffffffffffffffffffffffff81111561571857615717615002565b5b9291505056fea264697066735822122035b42aa9c478eed139cf78150d994e8e264cdbca5c2eebf2039e1d7eddc0917764736f6c63430008170033",
		"opcodes": "PUSH1 0xA0 PUSH1 0x40 MSTORE ADDRESS PUSH20 0xFFFFFFFFFFFFFFFFFFFFFFFFFFFFFFFFFFFFFFFF AND PUSH1 0x80 SWAP1 PUSH20 0xFFFFFFFFFFFFFFFFFFFFFFFFFFFFFFFFFFFFFFFF AND DUP2 MSTORE POP CALLVALUE DUP1 ISZERO PUSH3 0x43 JUMPI PUSH0 DUP1 REVERT JUMPDEST POP PUSH3 0x54 PUSH3 0x5A PUSH1 0x20 SHL PUSH1 0x20 SHR JUMP JUMPDEST PUSH3 0x1C4 JUMP JUMPDEST PUSH0 PUSH3 0x6B PUSH3 0x15E PUSH1 0x20 SHL PUSH1 0x20 SHR JUMP JUMPDEST SWAP1 POP DUP1 PUSH0 ADD PUSH1 0x8 SWAP1 SLOAD SWAP1 PUSH2 0x100 EXP SWAP1 DIV PUSH1 0xFF AND ISZERO PUSH3 0xB6 JUMPI PUSH1 0x40 MLOAD PUSH32 0xF92EE8A900000000000000000000000000000000000000000000000000000000 DUP2 MSTORE PUSH1 0x4 ADD PUSH1 0x40 MLOAD DUP1 SWAP2 SUB SWAP1 REVERT JUMPDEST PUSH8 0xFFFFFFFFFFFFFFFF DUP1 AND DUP2 PUSH0 ADD PUSH0 SWAP1 SLOAD SWAP1 PUSH2 0x100 EXP SWAP1 DIV PUSH8 0xFFFFFFFFFFFFFFFF AND PUSH8 0xFFFFFFFFFFFFFFFF AND EQ PUSH3 0x15B JUMPI PUSH8 0xFFFFFFFFFFFFFFFF DUP2 PUSH0 ADD PUSH0 PUSH2 0x100 EXP DUP2 SLOAD DUP2 PUSH8 0xFFFFFFFFFFFFFFFF MUL NOT AND SWAP1 DUP4 PUSH8 0xFFFFFFFFFFFFFFFF AND MUL OR SWAP1 SSTORE POP PUSH32 0xC7F505B2F371AE2175EE4913F4499E1F2633A7B5936321EED1CDAEB6115181D2 PUSH8 0xFFFFFFFFFFFFFFFF PUSH1 0x40 MLOAD PUSH3 0x152 SWAP2 SWAP1 PUSH3 0x1A9 JUMP JUMPDEST PUSH1 0x40 MLOAD DUP1 SWAP2 SUB SWAP1 LOG1 JUMPDEST POP JUMP JUMPDEST PUSH0 PUSH32 0xF0C57E16840DF040F15088DC2F81FE391C3923BEC73E23A9662EFC9C229C6A00 SWAP1 POP SWAP1 JUMP JUMPDEST PUSH0 PUSH8 0xFFFFFFFFFFFFFFFF DUP3 AND SWAP1 POP SWAP2 SWAP1 POP JUMP JUMPDEST PUSH3 0x1A3 DUP2 PUSH3 0x185 JUMP JUMPDEST DUP3 MSTORE POP POP JUMP JUMPDEST PUSH0 PUSH1 0x20 DUP3 ADD SWAP1 POP PUSH3 0x1BE PUSH0 DUP4 ADD DUP5 PUSH3 0x198 JUMP JUMPDEST SWAP3 SWAP2 POP POP JUMP JUMPDEST PUSH1 0x80 MLOAD PUSH2 0x5754 PUSH3 0x1EB PUSH0 CODECOPY PUSH0 DUP2 DUP2 PUSH2 0x1C7B ADD MSTORE DUP2 DUP2 PUSH2 0x1CD0 ADD MSTORE PUSH2 0x1E8A ADD MSTORE PUSH2 0x5754 PUSH0 RETURN INVALID PUSH1 0x80 PUSH1 0x40 MSTORE PUSH1 0x4 CALLDATASIZE LT PUSH2 0x23A JUMPI PUSH0 CALLDATALOAD PUSH1 0xE0 SHR DUP1 PUSH4 0x70A08231 GT PUSH2 0x12D JUMPI DUP1 PUSH4 0xA22CB465 GT PUSH2 0xAA JUMPI DUP1 PUSH4 0xCA15C873 GT PUSH2 0x6E JUMPI DUP1 PUSH4 0xCA15C873 EQ PUSH2 0x86B JUMPI DUP1 PUSH4 0xD204C45E EQ PUSH2 0x8A7 JUMPI DUP1 PUSH4 0xD547741F EQ PUSH2 0x8CF JUMPI DUP1 PUSH4 0xE985E9C5 EQ PUSH2 0x8F7 JUMPI DUP1 PUSH4 0xF2FDE38B EQ PUSH2 0x933 JUMPI PUSH2 0x23A JUMP JUMPDEST DUP1 PUSH4 0xA22CB465 EQ PUSH2 0x78D JUMPI DUP1 PUSH4 0xAD3CB1CC EQ PUSH2 0x7B5 JUMPI DUP1 PUSH4 0xB88D4FDE EQ PUSH2 0x7DF JUMPI DUP1 PUSH4 0xC4D66DE8 EQ PUSH2 0x807 JUMPI DUP1 PUSH4 0xC87B56DD EQ PUSH2 0x82F JUMPI PUSH2 0x23A JUMP JUMPDEST DUP1 PUSH4 0x8DA5CB5B GT PUSH2 0xF1 JUMPI DUP1 PUSH4 0x8DA5CB5B EQ PUSH2 0x697 JUMPI DUP1 PUSH4 0x9010D07C EQ PUSH2 0x6C1 JUMPI DUP1 PUSH4 0x91D14854 EQ PUSH2 0x6FD JUMPI DUP1 PUSH4 0x95D89B41 EQ PUSH2 0x739 JUMPI DUP1 PUSH4 0xA217FDDF EQ PUSH2 0x763 JUMPI PUSH2 0x23A JUMP JUMPDEST DUP1 PUSH4 0x70A08231 EQ PUSH2 0x5D5 JUMPI DUP1 PUSH4 0x715018A6 EQ PUSH2 0x611 JUMPI DUP1 PUSH4 0x8456CB59 EQ PUSH2 0x627 JUMPI DUP1 PUSH4 0x84B0196E EQ PUSH2 0x63D JUMPI DUP1 PUSH4 0x84D6E6E2 EQ PUSH2 0x66D JUMPI PUSH2 0x23A JUMP JUMPDEST DUP1 PUSH4 0x36568ABE GT PUSH2 0x1BB JUMPI DUP1 PUSH4 0x4F6CCCE7 GT PUSH2 0x17F JUMPI DUP1 PUSH4 0x4F6CCCE7 EQ PUSH2 0x4E1 JUMPI DUP1 PUSH4 0x52D1902D EQ PUSH2 0x51D JUMPI DUP1 PUSH4 0x55F804B3 EQ PUSH2 0x547 JUMPI DUP1 PUSH4 0x5C975ABB EQ PUSH2 0x56F JUMPI DUP1 PUSH4 0x6352211E EQ PUSH2 0x599 JUMPI PUSH2 0x23A JUMP JUMPDEST DUP1 PUSH4 0x36568ABE EQ PUSH2 0x437 JUMPI DUP1 PUSH4 0x3F4BA83A EQ PUSH2 0x45F JUMPI DUP1 PUSH4 0x42842E0E EQ PUSH2 0x475 JUMPI DUP1 PUSH4 0x42966C68 EQ PUSH2 0x49D JUMPI DUP1 PUSH4 0x4F1EF286 EQ PUSH2 0x4C5 JUMPI PUSH2 0x23A JUMP JUMPDEST DUP1 PUSH4 0x23B872DD GT PUSH2 0x202 JUMPI DUP1 PUSH4 0x23B872DD EQ PUSH2 0x332 JUMPI DUP1 PUSH4 0x248A9CA3 EQ PUSH2 0x35A JUMPI DUP1 PUSH4 0x2A55205A EQ PUSH2 0x396 JUMPI DUP1 PUSH4 0x2F2FF15D EQ PUSH2 0x3D3 JUMPI DUP1 PUSH4 0x2F745C59 EQ PUSH2 0x3FB JUMPI PUSH2 0x23A JUMP JUMPDEST DUP1 PUSH4 0x1FFC9A7 EQ PUSH2 0x23E JUMPI DUP1 PUSH4 0x6FDDE03 EQ PUSH2 0x27A JUMPI DUP1 PUSH4 0x81812FC EQ PUSH2 0x2A4 JUMPI DUP1 PUSH4 0x95EA7B3 EQ PUSH2 0x2E0 JUMPI DUP1 PUSH4 0x18160DDD EQ PUSH2 0x308 JUMPI JUMPDEST PUSH0 DUP1 REVERT JUMPDEST CALLVALUE DUP1 ISZERO PUSH2 0x249 JUMPI PUSH0 DUP1 REVERT JUMPDEST POP PUSH2 0x264 PUSH1 0x4 DUP1 CALLDATASIZE SUB DUP2 ADD SWAP1 PUSH2 0x25F SWAP2 SWAP1 PUSH2 0x45E2 JUMP JUMPDEST PUSH2 0x95B JUMP JUMPDEST PUSH1 0x40 MLOAD PUSH2 0x271 SWAP2 SWAP1 PUSH2 0x4627 JUMP JUMPDEST PUSH1 0x40 MLOAD DUP1 SWAP2 SUB SWAP1 RETURN JUMPDEST CALLVALUE DUP1 ISZERO PUSH2 0x285 JUMPI PUSH0 DUP1 REVERT JUMPDEST POP PUSH2 0x28E PUSH2 0x96C JUMP JUMPDEST PUSH1 0x40 MLOAD PUSH2 0x29B SWAP2 SWAP1 PUSH2 0x46CA JUMP JUMPDEST PUSH1 0x40 MLOAD DUP1 SWAP2 SUB SWAP1 RETURN JUMPDEST CALLVALUE DUP1 ISZERO PUSH2 0x2AF JUMPI PUSH0 DUP1 REVERT JUMPDEST POP PUSH2 0x2CA PUSH1 0x4 DUP1 CALLDATASIZE SUB DUP2 ADD SWAP1 PUSH2 0x2C5 SWAP2 SWAP1 PUSH2 0x471D JUMP JUMPDEST PUSH2 0xA09 JUMP JUMPDEST PUSH1 0x40 MLOAD PUSH2 0x2D7 SWAP2 SWAP1 PUSH2 0x4787 JUMP JUMPDEST PUSH1 0x40 MLOAD DUP1 SWAP2 SUB SWAP1 RETURN JUMPDEST CALLVALUE DUP1 ISZERO PUSH2 0x2EB JUMPI PUSH0 DUP1 REVERT JUMPDEST POP PUSH2 0x306 PUSH1 0x4 DUP1 CALLDATASIZE SUB DUP2 ADD SWAP1 PUSH2 0x301 SWAP2 SWAP1 PUSH2 0x47CA JUMP JUMPDEST PUSH2 0xA24 JUMP JUMPDEST STOP JUMPDEST CALLVALUE DUP1 ISZERO PUSH2 0x313 JUMPI PUSH0 DUP1 REVERT JUMPDEST POP PUSH2 0x31C PUSH2 0xA3A JUMP JUMPDEST PUSH1 0x40 MLOAD PUSH2 0x329 SWAP2 SWAP1 PUSH2 0x4817 JUMP JUMPDEST PUSH1 0x40 MLOAD DUP1 SWAP2 SUB SWAP1 RETURN JUMPDEST CALLVALUE DUP1 ISZERO PUSH2 0x33D JUMPI PUSH0 DUP1 REVERT JUMPDEST POP PUSH2 0x358 PUSH1 0x4 DUP1 CALLDATASIZE SUB DUP2 ADD SWAP1 PUSH2 0x353 SWAP2 SWAP1 PUSH2 0x4830 JUMP JUMPDEST PUSH2 0xA54 JUMP JUMPDEST STOP JUMPDEST CALLVALUE DUP1 ISZERO PUSH2 0x365 JUMPI PUSH0 DUP1 REVERT JUMPDEST POP PUSH2 0x380 PUSH1 0x4 DUP1 CALLDATASIZE SUB DUP2 ADD SWAP1 PUSH2 0x37B SWAP2 SWAP1 PUSH2 0x48B3 JUMP JUMPDEST PUSH2 0xB53 JUMP JUMPDEST PUSH1 0x40 MLOAD PUSH2 0x38D SWAP2 SWAP1 PUSH2 0x48ED JUMP JUMPDEST PUSH1 0x40 MLOAD DUP1 SWAP2 SUB SWAP1 RETURN JUMPDEST CALLVALUE DUP1 ISZERO PUSH2 0x3A1 JUMPI PUSH0 DUP1 REVERT JUMPDEST POP PUSH2 0x3BC PUSH1 0x4 DUP1 CALLDATASIZE SUB DUP2 ADD SWAP1 PUSH2 0x3B7 SWAP2 SWAP1 PUSH2 0x4906 JUMP JUMPDEST PUSH2 0xB7D JUMP JUMPDEST PUSH1 0x40 MLOAD PUSH2 0x3CA SWAP3 SWAP2 SWAP1 PUSH2 0x4944 JUMP JUMPDEST PUSH1 0x40 MLOAD DUP1 SWAP2 SUB SWAP1 RETURN JUMPDEST CALLVALUE DUP1 ISZERO PUSH2 0x3DE JUMPI PUSH0 DUP1 REVERT JUMPDEST POP PUSH2 0x3F9 PUSH1 0x4 DUP1 CALLDATASIZE SUB DUP2 ADD SWAP1 PUSH2 0x3F4 SWAP2 SWAP1 PUSH2 0x496B JUMP JUMPDEST PUSH2 0xD68 JUMP JUMPDEST STOP JUMPDEST CALLVALUE DUP1 ISZERO PUSH2 0x406 JUMPI PUSH0 DUP1 REVERT JUMPDEST POP PUSH2 0x421 PUSH1 0x4 DUP1 CALLDATASIZE SUB DUP2 ADD SWAP1 PUSH2 0x41C SWAP2 SWAP1 PUSH2 0x47CA JUMP JUMPDEST PUSH2 0xD8A JUMP JUMPDEST PUSH1 0x40 MLOAD PUSH2 0x42E SWAP2 SWAP1 PUSH2 0x4817 JUMP JUMPDEST PUSH1 0x40 MLOAD DUP1 SWAP2 SUB SWAP1 RETURN JUMPDEST CALLVALUE DUP1 ISZERO PUSH2 0x442 JUMPI PUSH0 DUP1 REVERT JUMPDEST POP PUSH2 0x45D PUSH1 0x4 DUP1 CALLDATASIZE SUB DUP2 ADD SWAP1 PUSH2 0x458 SWAP2 SWAP1 PUSH2 0x496B JUMP JUMPDEST PUSH2 0xE3B JUMP JUMPDEST STOP JUMPDEST CALLVALUE DUP1 ISZERO PUSH2 0x46A JUMPI PUSH0 DUP1 REVERT JUMPDEST POP PUSH2 0x473 PUSH2 0xEB6 JUMP JUMPDEST STOP JUMPDEST CALLVALUE DUP1 ISZERO PUSH2 0x480 JUMPI PUSH0 DUP1 REVERT JUMPDEST POP PUSH2 0x49B PUSH1 0x4 DUP1 CALLDATASIZE SUB DUP2 ADD SWAP1 PUSH2 0x496 SWAP2 SWAP1 PUSH2 0x4830 JUMP JUMPDEST PUSH2 0xEC8 JUMP JUMPDEST STOP JUMPDEST CALLVALUE DUP1 ISZERO PUSH2 0x4A8 JUMPI PUSH0 DUP1 REVERT JUMPDEST POP PUSH2 0x4C3 PUSH1 0x4 DUP1 CALLDATASIZE SUB DUP2 ADD SWAP1 PUSH2 0x4BE SWAP2 SWAP1 PUSH2 0x471D JUMP JUMPDEST PUSH2 0xEE7 JUMP JUMPDEST STOP JUMPDEST PUSH2 0x4DF PUSH1 0x4 DUP1 CALLDATASIZE SUB DUP2 ADD SWAP1 PUSH2 0x4DA SWAP2 SWAP1 PUSH2 0x4AD5 JUMP JUMPDEST PUSH2 0xEFD JUMP JUMPDEST STOP JUMPDEST CALLVALUE DUP1 ISZERO PUSH2 0x4EC JUMPI PUSH0 DUP1 REVERT JUMPDEST POP PUSH2 0x507 PUSH1 0x4 DUP1 CALLDATASIZE SUB DUP2 ADD SWAP1 PUSH2 0x502 SWAP2 SWAP1 PUSH2 0x471D JUMP JUMPDEST PUSH2 0xF1C JUMP JUMPDEST PUSH1 0x40 MLOAD PUSH2 0x514 SWAP2 SWAP1 PUSH2 0x4817 JUMP JUMPDEST PUSH1 0x40 MLOAD DUP1 SWAP2 SUB SWAP1 RETURN JUMPDEST CALLVALUE DUP1 ISZERO PUSH2 0x528 JUMPI PUSH0 DUP1 REVERT JUMPDEST POP PUSH2 0x531 PUSH2 0xF9C JUMP JUMPDEST PUSH1 0x40 MLOAD PUSH2 0x53E SWAP2 SWAP1 PUSH2 0x48ED JUMP JUMPDEST PUSH1 0x40 MLOAD DUP1 SWAP2 SUB SWAP1 RETURN JUMPDEST CALLVALUE DUP1 ISZERO PUSH2 0x552 JUMPI PUSH0 DUP1 REVERT JUMPDEST POP PUSH2 0x56D PUSH1 0x4 DUP1 CALLDATASIZE SUB DUP2 ADD SWAP1 PUSH2 0x568 SWAP2 SWAP1 PUSH2 0x4BCD JUMP JUMPDEST PUSH2 0xFCD JUMP JUMPDEST STOP JUMPDEST CALLVALUE DUP1 ISZERO PUSH2 0x57A JUMPI PUSH0 DUP1 REVERT JUMPDEST POP PUSH2 0x583 PUSH2 0xFE8 JUMP JUMPDEST PUSH1 0x40 MLOAD PUSH2 0x590 SWAP2 SWAP1 PUSH2 0x4627 JUMP JUMPDEST PUSH1 0x40 MLOAD DUP1 SWAP2 SUB SWAP1 RETURN JUMPDEST CALLVALUE DUP1 ISZERO PUSH2 0x5A4 JUMPI PUSH0 DUP1 REVERT JUMPDEST POP PUSH2 0x5BF PUSH1 0x4 DUP1 CALLDATASIZE SUB DUP2 ADD SWAP1 PUSH2 0x5BA SWAP2 SWAP1 PUSH2 0x471D JUMP JUMPDEST PUSH2 0x100A JUMP JUMPDEST PUSH1 0x40 MLOAD PUSH2 0x5CC SWAP2 SWAP1 PUSH2 0x4787 JUMP JUMPDEST PUSH1 0x40 MLOAD DUP1 SWAP2 SUB SWAP1 RETURN JUMPDEST CALLVALUE DUP1 ISZERO PUSH2 0x5E0 JUMPI PUSH0 DUP1 REVERT JUMPDEST POP PUSH2 0x5FB PUSH1 0x4 DUP1 CALLDATASIZE SUB DUP2 ADD SWAP1 PUSH2 0x5F6 SWAP2 SWAP1 PUSH2 0x4C14 JUMP JUMPDEST PUSH2 0x101B JUMP JUMPDEST PUSH1 0x40 MLOAD PUSH2 0x608 SWAP2 SWAP1 PUSH2 0x4817 JUMP JUMPDEST PUSH1 0x40 MLOAD DUP1 SWAP2 SUB SWAP1 RETURN JUMPDEST CALLVALUE DUP1 ISZERO PUSH2 0x61C JUMPI PUSH0 DUP1 REVERT JUMPDEST POP PUSH2 0x625 PUSH2 0x10DF JUMP JUMPDEST STOP JUMPDEST CALLVALUE DUP1 ISZERO PUSH2 0x632 JUMPI PUSH0 DUP1 REVERT JUMPDEST POP PUSH2 0x63B PUSH2 0x10F2 JUMP JUMPDEST STOP JUMPDEST CALLVALUE DUP1 ISZERO PUSH2 0x648 JUMPI PUSH0 DUP1 REVERT JUMPDEST POP PUSH2 0x651 PUSH2 0x1104 JUMP JUMPDEST PUSH1 0x40 MLOAD PUSH2 0x664 SWAP8 SWAP7 SWAP6 SWAP5 SWAP4 SWAP3 SWAP2 SWAP1 PUSH2 0x4D30 JUMP JUMPDEST PUSH1 0x40 MLOAD DUP1 SWAP2 SUB SWAP1 RETURN JUMPDEST CALLVALUE DUP1 ISZERO PUSH2 0x678 JUMPI PUSH0 DUP1 REVERT JUMPDEST POP PUSH2 0x681 PUSH2 0x120D JUMP JUMPDEST PUSH1 0x40 MLOAD PUSH2 0x68E SWAP2 SWAP1 PUSH2 0x46CA JUMP JUMPDEST PUSH1 0x40 MLOAD DUP1 SWAP2 SUB SWAP1 RETURN JUMPDEST CALLVALUE DUP1 ISZERO PUSH2 0x6A2 JUMPI PUSH0 DUP1 REVERT JUMPDEST POP PUSH2 0x6AB PUSH2 0x129D JUMP JUMPDEST PUSH1 0x40 MLOAD PUSH2 0x6B8 SWAP2 SWAP1 PUSH2 0x4787 JUMP JUMPDEST PUSH1 0x40 MLOAD DUP1 SWAP2 SUB SWAP1 RETURN JUMPDEST CALLVALUE DUP1 ISZERO PUSH2 0x6CC JUMPI PUSH0 DUP1 REVERT JUMPDEST POP PUSH2 0x6E7 PUSH1 0x4 DUP1 CALLDATASIZE SUB DUP2 ADD SWAP1 PUSH2 0x6E2 SWAP2 SWAP1 PUSH2 0x4DB2 JUMP JUMPDEST PUSH2 0x12D2 JUMP JUMPDEST PUSH1 0x40 MLOAD PUSH2 0x6F4 SWAP2 SWAP1 PUSH2 0x4787 JUMP JUMPDEST PUSH1 0x40 MLOAD DUP1 SWAP2 SUB SWAP1 RETURN JUMPDEST CALLVALUE DUP1 ISZERO PUSH2 0x708 JUMPI PUSH0 DUP1 REVERT JUMPDEST POP PUSH2 0x723 PUSH1 0x4 DUP1 CALLDATASIZE SUB DUP2 ADD SWAP1 PUSH2 0x71E SWAP2 SWAP1 PUSH2 0x496B JUMP JUMPDEST PUSH2 0x130B JUMP JUMPDEST PUSH1 0x40 MLOAD PUSH2 0x730 SWAP2 SWAP1 PUSH2 0x4627 JUMP JUMPDEST PUSH1 0x40 MLOAD DUP1 SWAP2 SUB SWAP1 RETURN JUMPDEST CALLVALUE DUP1 ISZERO PUSH2 0x744 JUMPI PUSH0 DUP1 REVERT JUMPDEST POP PUSH2 0x74D PUSH2 0x137C JUMP JUMPDEST PUSH1 0x40 MLOAD PUSH2 0x75A SWAP2 SWAP1 PUSH2 0x46CA JUMP JUMPDEST PUSH1 0x40 MLOAD DUP1 SWAP2 SUB SWAP1 RETURN JUMPDEST CALLVALUE DUP1 ISZERO PUSH2 0x76E JUMPI PUSH0 DUP1 REVERT JUMPDEST POP PUSH2 0x777 PUSH2 0x141A JUMP JUMPDEST PUSH1 0x40 MLOAD PUSH2 0x784 SWAP2 SWAP1 PUSH2 0x48ED JUMP JUMPDEST PUSH1 0x40 MLOAD DUP1 SWAP2 SUB SWAP1 RETURN JUMPDEST CALLVALUE DUP1 ISZERO PUSH2 0x798 JUMPI PUSH0 DUP1 REVERT JUMPDEST POP PUSH2 0x7B3 PUSH1 0x4 DUP1 CALLDATASIZE SUB DUP2 ADD SWAP1 PUSH2 0x7AE SWAP2 SWAP1 PUSH2 0x4E1A JUMP JUMPDEST PUSH2 0x1420 JUMP JUMPDEST STOP JUMPDEST CALLVALUE DUP1 ISZERO PUSH2 0x7C0 JUMPI PUSH0 DUP1 REVERT JUMPDEST POP PUSH2 0x7C9 PUSH2 0x1436 JUMP JUMPDEST PUSH1 0x40 MLOAD PUSH2 0x7D6 SWAP2 SWAP1 PUSH2 0x46CA JUMP JUMPDEST PUSH1 0x40 MLOAD DUP1 SWAP2 SUB SWAP1 RETURN JUMPDEST CALLVALUE DUP1 ISZERO PUSH2 0x7EA JUMPI PUSH0 DUP1 REVERT JUMPDEST POP PUSH2 0x805 PUSH1 0x4 DUP1 CALLDATASIZE SUB DUP2 ADD SWAP1 PUSH2 0x800 SWAP2 SWAP1 PUSH2 0x4E58 JUMP JUMPDEST PUSH2 0x146F JUMP JUMPDEST STOP JUMPDEST CALLVALUE DUP1 ISZERO PUSH2 0x812 JUMPI PUSH0 DUP1 REVERT JUMPDEST POP PUSH2 0x82D PUSH1 0x4 DUP1 CALLDATASIZE SUB DUP2 ADD SWAP1 PUSH2 0x828 SWAP2 SWAP1 PUSH2 0x4C14 JUMP JUMPDEST PUSH2 0x148C JUMP JUMPDEST STOP JUMPDEST CALLVALUE DUP1 ISZERO PUSH2 0x83A JUMPI PUSH0 DUP1 REVERT JUMPDEST POP PUSH2 0x855 PUSH1 0x4 DUP1 CALLDATASIZE SUB DUP2 ADD SWAP1 PUSH2 0x850 SWAP2 SWAP1 PUSH2 0x471D JUMP JUMPDEST PUSH2 0x1715 JUMP JUMPDEST PUSH1 0x40 MLOAD PUSH2 0x862 SWAP2 SWAP1 PUSH2 0x46CA JUMP JUMPDEST PUSH1 0x40 MLOAD DUP1 SWAP2 SUB SWAP1 RETURN JUMPDEST CALLVALUE DUP1 ISZERO PUSH2 0x876 JUMPI PUSH0 DUP1 REVERT JUMPDEST POP PUSH2 0x891 PUSH1 0x4 DUP1 CALLDATASIZE SUB DUP2 ADD SWAP1 PUSH2 0x88C SWAP2 SWAP1 PUSH2 0x48B3 JUMP JUMPDEST PUSH2 0x1727 JUMP JUMPDEST PUSH1 0x40 MLOAD PUSH2 0x89E SWAP2 SWAP1 PUSH2 0x4817 JUMP JUMPDEST PUSH1 0x40 MLOAD DUP1 SWAP2 SUB SWAP1 RETURN JUMPDEST CALLVALUE DUP1 ISZERO PUSH2 0x8B2 JUMPI PUSH0 DUP1 REVERT JUMPDEST POP PUSH2 0x8CD PUSH1 0x4 DUP1 CALLDATASIZE SUB DUP2 ADD SWAP1 PUSH2 0x8C8 SWAP2 SWAP1 PUSH2 0x4ED8 JUMP JUMPDEST PUSH2 0x1755 JUMP JUMPDEST STOP JUMPDEST CALLVALUE DUP1 ISZERO PUSH2 0x8DA JUMPI PUSH0 DUP1 REVERT JUMPDEST POP PUSH2 0x8F5 PUSH1 0x4 DUP1 CALLDATASIZE SUB DUP2 ADD SWAP1 PUSH2 0x8F0 SWAP2 SWAP1 PUSH2 0x496B JUMP JUMPDEST PUSH2 0x178E JUMP JUMPDEST STOP JUMPDEST CALLVALUE DUP1 ISZERO PUSH2 0x902 JUMPI PUSH0 DUP1 REVERT JUMPDEST POP PUSH2 0x91D PUSH1 0x4 DUP1 CALLDATASIZE SUB DUP2 ADD SWAP1 PUSH2 0x918 SWAP2 SWAP1 PUSH2 0x4F32 JUMP JUMPDEST PUSH2 0x17B0 JUMP JUMPDEST PUSH1 0x40 MLOAD PUSH2 0x92A SWAP2 SWAP1 PUSH2 0x4627 JUMP JUMPDEST PUSH1 0x40 MLOAD DUP1 SWAP2 SUB SWAP1 RETURN JUMPDEST CALLVALUE DUP1 ISZERO PUSH2 0x93E JUMPI PUSH0 DUP1 REVERT JUMPDEST POP PUSH2 0x959 PUSH1 0x4 DUP1 CALLDATASIZE SUB DUP2 ADD SWAP1 PUSH2 0x954 SWAP2 SWAP1 PUSH2 0x4C14 JUMP JUMPDEST PUSH2 0x184C JUMP JUMPDEST STOP JUMPDEST PUSH0 PUSH2 0x965 DUP3 PUSH2 0x18D0 JUMP JUMPDEST SWAP1 POP SWAP2 SWAP1 POP JUMP JUMPDEST PUSH1 0x60 PUSH0 PUSH2 0x977 PUSH2 0x1930 JUMP JUMPDEST SWAP1 POP DUP1 PUSH0 ADD DUP1 SLOAD PUSH2 0x987 SWAP1 PUSH2 0x4F9D JUMP JUMPDEST DUP1 PUSH1 0x1F ADD PUSH1 0x20 DUP1 SWAP2 DIV MUL PUSH1 0x20 ADD PUSH1 0x40 MLOAD SWAP1 DUP2 ADD PUSH1 0x40 MSTORE DUP1 SWAP3 SWAP2 SWAP1 DUP2 DUP2 MSTORE PUSH1 0x20 ADD DUP3 DUP1 SLOAD PUSH2 0x9B3 SWAP1 PUSH2 0x4F9D JUMP JUMPDEST DUP1 ISZERO PUSH2 0x9FE JUMPI DUP1 PUSH1 0x1F LT PUSH2 0x9D5 JUMPI PUSH2 0x100 DUP1 DUP4 SLOAD DIV MUL DUP4 MSTORE SWAP2 PUSH1 0x20 ADD SWAP2 PUSH2 0x9FE JUMP JUMPDEST DUP3 ADD SWAP2 SWAP1 PUSH0 MSTORE PUSH1 0x20 PUSH0 KECCAK256 SWAP1 JUMPDEST DUP2 SLOAD DUP2 MSTORE SWAP1 PUSH1 0x1 ADD SWAP1 PUSH1 0x20 ADD DUP1 DUP4 GT PUSH2 0x9E1 JUMPI DUP3 SWAP1 SUB PUSH1 0x1F AND DUP3 ADD SWAP2 JUMPDEST POP POP POP POP POP SWAP2 POP POP SWAP1 JUMP JUMPDEST PUSH0 PUSH2 0xA13 DUP3 PUSH2 0x1957 JUMP JUMPDEST POP PUSH2 0xA1D DUP3 PUSH2 0x19DD JUMP JUMPDEST SWAP1 POP SWAP2 SWAP1 POP JUMP JUMPDEST PUSH2 0xA36 DUP3 DUP3 PUSH2 0xA31 PUSH2 0x1A24 JUMP JUMPDEST PUSH2 0x1A2B JUMP JUMPDEST POP POP JUMP JUMPDEST PUSH0 DUP1 PUSH2 0xA44 PUSH2 0x1A3D JUMP JUMPDEST SWAP1 POP DUP1 PUSH1 0x2 ADD DUP1 SLOAD SWAP1 POP SWAP2 POP POP SWAP1 JUMP JUMPDEST PUSH0 PUSH20 0xFFFFFFFFFFFFFFFFFFFFFFFFFFFFFFFFFFFFFFFF AND DUP3 PUSH20 0xFFFFFFFFFFFFFFFFFFFFFFFFFFFFFFFFFFFFFFFF AND SUB PUSH2 0xAC4 JUMPI PUSH0 PUSH1 0x40 MLOAD PUSH32 0x64A0AE9200000000000000000000000000000000000000000000000000000000 DUP2 MSTORE PUSH1 0x4 ADD PUSH2 0xABB SWAP2 SWAP1 PUSH2 0x4787 JUMP JUMPDEST PUSH1 0x40 MLOAD DUP1 SWAP2 SUB SWAP1 REVERT JUMPDEST PUSH0 PUSH2 0xAD7 DUP4 DUP4 PUSH2 0xAD2 PUSH2 0x1A24 JUMP JUMPDEST PUSH2 0x1A64 JUMP JUMPDEST SWAP1 POP DUP4 PUSH20 0xFFFFFFFFFFFFFFFFFFFFFFFFFFFFFFFFFFFFFFFF AND DUP2 PUSH20 0xFFFFFFFFFFFFFFFFFFFFFFFFFFFFFFFFFFFFFFFF AND EQ PUSH2 0xB4D JUMPI DUP4 DUP3 DUP3 PUSH1 0x40 MLOAD PUSH32 0x64283D7B00000000000000000000000000000000000000000000000000000000 DUP2 MSTORE PUSH1 0x4 ADD PUSH2 0xB44 SWAP4 SWAP3 SWAP2 SWAP1 PUSH2 0x4FCD JUMP JUMPDEST PUSH1 0x40 MLOAD DUP1 SWAP2 SUB SWAP1 REVERT JUMPDEST POP POP POP POP JUMP JUMPDEST PUSH0 DUP1 PUSH2 0xB5D PUSH2 0x1A79 JUMP JUMPDEST SWAP1 POP DUP1 PUSH0 ADD PUSH0 DUP5 DUP2 MSTORE PUSH1 0x20 ADD SWAP1 DUP2 MSTORE PUSH1 0x20 ADD PUSH0 KECCAK256 PUSH1 0x1 ADD SLOAD SWAP2 POP POP SWAP2 SWAP1 POP JUMP JUMPDEST PUSH0 DUP1 PUSH0 PUSH2 0xB88 PUSH2 0x1AA0 JUMP JUMPDEST SWAP1 POP PUSH0 DUP2 PUSH1 0x1 ADD PUSH0 DUP8 DUP2 MSTORE PUSH1 0x20 ADD SWAP1 DUP2 MSTORE PUSH1 0x20 ADD PUSH0 KECCAK256 PUSH1 0x40 MLOAD DUP1 PUSH1 0x40 ADD PUSH1 0x40 MSTORE SWAP1 DUP2 PUSH0 DUP3 ADD PUSH0 SWAP1 SLOAD SWAP1 PUSH2 0x100 EXP SWAP1 DIV PUSH20 0xFFFFFFFFFFFFFFFFFFFFFFFFFFFFFFFFFFFFFFFF AND PUSH20 0xFFFFFFFFFFFFFFFFFFFFFFFFFFFFFFFFFFFFFFFF AND PUSH20 0xFFFFFFFFFFFFFFFFFFFFFFFFFFFFFFFFFFFFFFFF AND DUP2 MSTORE PUSH1 0x20 ADD PUSH0 DUP3 ADD PUSH1 0x14 SWAP1 SLOAD SWAP1 PUSH2 0x100 EXP SWAP1 DIV PUSH12 0xFFFFFFFFFFFFFFFFFFFFFFFF AND PUSH12 0xFFFFFFFFFFFFFFFFFFFFFFFF AND PUSH12 0xFFFFFFFFFFFFFFFFFFFFFFFF AND DUP2 MSTORE POP POP SWAP1 POP PUSH0 PUSH20 0xFFFFFFFFFFFFFFFFFFFFFFFFFFFFFFFFFFFFFFFF AND DUP2 PUSH0 ADD MLOAD PUSH20 0xFFFFFFFFFFFFFFFFFFFFFFFFFFFFFFFFFFFFFFFF AND SUB PUSH2 0xD14 JUMPI DUP2 PUSH0 ADD PUSH1 0x40 MLOAD DUP1 PUSH1 0x40 ADD PUSH1 0x40 MSTORE SWAP1 DUP2 PUSH0 DUP3 ADD PUSH0 SWAP1 SLOAD SWAP1 PUSH2 0x100 EXP SWAP1 DIV PUSH20 0xFFFFFFFFFFFFFFFFFFFFFFFFFFFFFFFFFFFFFFFF AND PUSH20 0xFFFFFFFFFFFFFFFFFFFFFFFFFFFFFFFFFFFFFFFF AND PUSH20 0xFFFFFFFFFFFFFFFFFFFFFFFFFFFFFFFFFFFFFFFF AND DUP2 MSTORE PUSH1 0x20 ADD PUSH0 DUP3 ADD PUSH1 0x14 SWAP1 SLOAD SWAP1 PUSH2 0x100 EXP SWAP1 DIV PUSH12 0xFFFFFFFFFFFFFFFFFFFFFFFF AND PUSH12 0xFFFFFFFFFFFFFFFFFFFFFFFF AND PUSH12 0xFFFFFFFFFFFFFFFFFFFFFFFF AND DUP2 MSTORE POP POP SWAP1 POP JUMPDEST PUSH0 PUSH2 0xD1D PUSH2 0x1AC7 JUMP JUMPDEST PUSH12 0xFFFFFFFFFFFFFFFFFFFFFFFF AND DUP3 PUSH1 0x20 ADD MLOAD PUSH12 0xFFFFFFFFFFFFFFFFFFFFFFFF AND DUP8 PUSH2 0xD49 SWAP2 SWAP1 PUSH2 0x502F JUMP JUMPDEST PUSH2 0xD53 SWAP2 SWAP1 PUSH2 0x509D JUMP JUMPDEST SWAP1 POP DUP2 PUSH0 ADD MLOAD DUP2 SWAP5 POP SWAP5 POP POP POP POP SWAP3 POP SWAP3 SWAP1 POP JUMP JUMPDEST PUSH2 0xD71 DUP3 PUSH2 0xB53 JUMP JUMPDEST PUSH2 0xD7A DUP2 PUSH2 0x1AD0 JUMP JUMPDEST PUSH2 0xD84 DUP4 DUP4 PUSH2 0x1AE4 JUMP JUMPDEST POP POP POP POP JUMP JUMPDEST PUSH0 DUP1 PUSH2 0xD94 PUSH2 0x1A3D JUMP JUMPDEST SWAP1 POP PUSH2 0xD9F DUP5 PUSH2 0x101B JUMP JUMPDEST DUP4 LT PUSH2 0xDE4 JUMPI DUP4 DUP4 PUSH1 0x40 MLOAD PUSH32 0xA57D13DC00000000000000000000000000000000000000000000000000000000 DUP2 MSTORE PUSH1 0x4 ADD PUSH2 0xDDB SWAP3 SWAP2 SWAP1 PUSH2 0x4944 JUMP JUMPDEST PUSH1 0x40 MLOAD DUP1 SWAP2 SUB SWAP1 REVERT JUMPDEST DUP1 PUSH0 ADD PUSH0 DUP6 PUSH20 0xFFFFFFFFFFFFFFFFFFFFFFFFFFFFFFFFFFFFFFFF AND PUSH20 0xFFFFFFFFFFFFFFFFFFFFFFFFFFFFFFFFFFFFFFFF AND DUP2 MSTORE PUSH1 0x20 ADD SWAP1 DUP2 MSTORE PUSH1 0x20 ADD PUSH0 KECCAK256 PUSH0 DUP5 DUP2 MSTORE PUSH1 0x20 ADD SWAP1 DUP2 MSTORE PUSH1 0x20 ADD PUSH0 KECCAK256 SLOAD SWAP2 POP POP SWAP3 SWAP2 POP POP JUMP JUMPDEST PUSH2 0xE43 PUSH2 0x1A24 JUMP JUMPDEST PUSH20 0xFFFFFFFFFFFFFFFFFFFFFFFFFFFFFFFFFFFFFFFF AND DUP2 PUSH20 0xFFFFFFFFFFFFFFFFFFFFFFFFFFFFFFFFFFFFFFFF AND EQ PUSH2 0xEA7 JUMPI PUSH1 0x40 MLOAD PUSH32 0x6697B23200000000000000000000000000000000000000000000000000000000 DUP2 MSTORE PUSH1 0x4 ADD PUSH1 0x40 MLOAD DUP1 SWAP2 SUB SWAP1 REVERT JUMPDEST PUSH2 0xEB1 DUP3 DUP3 PUSH2 0x1B34 JUMP JUMPDEST POP POP POP JUMP JUMPDEST PUSH2 0xEBE PUSH2 0x1B84 JUMP JUMPDEST PUSH2 0xEC6 PUSH2 0x1C0B JUMP JUMPDEST JUMP JUMPDEST PUSH2 0xEE2 DUP4 DUP4 DUP4 PUSH1 0x40 MLOAD DUP1 PUSH1 0x20 ADD PUSH1 0x40 MSTORE DUP1 PUSH0 DUP2 MSTORE POP PUSH2 0x146F JUMP JUMPDEST POP POP POP JUMP JUMPDEST PUSH2 0xEF9 PUSH0 DUP3 PUSH2 0xEF4 PUSH2 0x1A24 JUMP JUMPDEST PUSH2 0x1A64 JUMP JUMPDEST POP POP JUMP JUMPDEST PUSH2 0xF05 PUSH2 0x1C79 JUMP JUMPDEST PUSH2 0xF0E DUP3 PUSH2 0x1D5F JUMP JUMPDEST PUSH2 0xF18 DUP3 DUP3 PUSH2 0x1D6A JUMP JUMPDEST POP POP JUMP JUMPDEST PUSH0 DUP1 PUSH2 0xF26 PUSH2 0x1A3D JUMP JUMPDEST SWAP1 POP PUSH2 0xF30 PUSH2 0xA3A JUMP JUMPDEST DUP4 LT PUSH2 0xF75 JUMPI PUSH0 DUP4 PUSH1 0x40 MLOAD PUSH32 0xA57D13DC00000000000000000000000000000000000000000000000000000000 DUP2 MSTORE PUSH1 0x4 ADD PUSH2 0xF6C SWAP3 SWAP2 SWAP1 PUSH2 0x4944 JUMP JUMPDEST PUSH1 0x40 MLOAD DUP1 SWAP2 SUB SWAP1 REVERT JUMPDEST DUP1 PUSH1 0x2 ADD DUP4 DUP2 SLOAD DUP2 LT PUSH2 0xF8B JUMPI PUSH2 0xF8A PUSH2 0x50CD JUMP JUMPDEST JUMPDEST SWAP1 PUSH0 MSTORE PUSH1 0x20 PUSH0 KECCAK256 ADD SLOAD SWAP2 POP POP SWAP2 SWAP1 POP JUMP JUMPDEST PUSH0 PUSH2 0xFA5 PUSH2 0x1E88 JUMP JUMPDEST PUSH32 0x360894A13BA1A3210667C828492DB98DCA3E2076CC3735A920A3CA505D382BBC PUSH0 SHL SWAP1 POP SWAP1 JUMP JUMPDEST PUSH2 0xFD5 PUSH2 0x1B84 JUMP JUMPDEST DUP1 PUSH1 0x1 SWAP1 DUP2 PUSH2 0xFE4 SWAP2 SWAP1 PUSH2 0x5297 JUMP JUMPDEST POP POP JUMP JUMPDEST PUSH0 DUP1 PUSH2 0xFF2 PUSH2 0x1F0F JUMP JUMPDEST SWAP1 POP DUP1 PUSH0 ADD PUSH0 SWAP1 SLOAD SWAP1 PUSH2 0x100 EXP SWAP1 DIV PUSH1 0xFF AND SWAP2 POP POP SWAP1 JUMP JUMPDEST PUSH0 PUSH2 0x1014 DUP3 PUSH2 0x1957 JUMP JUMPDEST SWAP1 POP SWAP2 SWAP1 POP JUMP JUMPDEST PUSH0 DUP1 PUSH2 0x1025 PUSH2 0x1930 JUMP JUMPDEST SWAP1 POP PUSH0 PUSH20 0xFFFFFFFFFFFFFFFFFFFFFFFFFFFFFFFFFFFFFFFF AND DUP4 PUSH20 0xFFFFFFFFFFFFFFFFFFFFFFFFFFFFFFFFFFFFFFFF AND SUB PUSH2 0x1097 JUMPI PUSH0 PUSH1 0x40 MLOAD PUSH32 0x89C62B6400000000000000000000000000000000000000000000000000000000 DUP2 MSTORE PUSH1 0x4 ADD PUSH2 0x108E SWAP2 SWAP1 PUSH2 0x4787 JUMP JUMPDEST PUSH1 0x40 MLOAD DUP1 SWAP2 SUB SWAP1 REVERT JUMPDEST DUP1 PUSH1 0x3 ADD PUSH0 DUP5 PUSH20 0xFFFFFFFFFFFFFFFFFFFFFFFFFFFFFFFFFFFFFFFF AND PUSH20 0xFFFFFFFFFFFFFFFFFFFFFFFFFFFFFFFFFFFFFFFF AND DUP2 MSTORE PUSH1 0x20 ADD SWAP1 DUP2 MSTORE PUSH1 0x20 ADD PUSH0 KECCAK256 SLOAD SWAP2 POP POP SWAP2 SWAP1 POP JUMP JUMPDEST PUSH2 0x10E7 PUSH2 0x1B84 JUMP JUMPDEST PUSH2 0x10F0 PUSH0 PUSH2 0x1F36 JUMP JUMPDEST JUMP JUMPDEST PUSH2 0x10FA PUSH2 0x1B84 JUMP JUMPDEST PUSH2 0x1102 PUSH2 0x2007 JUMP JUMPDEST JUMP JUMPDEST PUSH0 PUSH1 0x60 DUP1 PUSH0 DUP1 PUSH0 PUSH1 0x60 PUSH0 PUSH2 0x1116 PUSH2 0x2076 JUMP JUMPDEST SWAP1 POP PUSH0 DUP1 SHL DUP2 PUSH0 ADD SLOAD EQ DUP1 ISZERO PUSH2 0x1131 JUMPI POP PUSH0 DUP1 SHL DUP2 PUSH1 0x1 ADD SLOAD EQ JUMPDEST PUSH2 0x1170 JUMPI PUSH1 0x40 MLOAD PUSH32 0x8C379A000000000000000000000000000000000000000000000000000000000 DUP2 MSTORE PUSH1 0x4 ADD PUSH2 0x1167 SWAP1 PUSH2 0x53B0 JUMP JUMPDEST PUSH1 0x40 MLOAD DUP1 SWAP2 SUB SWAP1 REVERT JUMPDEST PUSH2 0x1178 PUSH2 0x209D JUMP JUMPDEST PUSH2 0x1180 PUSH2 0x213B JUMP JUMPDEST CHAINID ADDRESS PUSH0 DUP1 SHL PUSH0 PUSH8 0xFFFFFFFFFFFFFFFF DUP2 GT ISZERO PUSH2 0x119F JUMPI PUSH2 0x119E PUSH2 0x49B1 JUMP JUMPDEST JUMPDEST PUSH1 0x40 MLOAD SWAP1 DUP1 DUP3 MSTORE DUP1 PUSH1 0x20 MUL PUSH1 0x20 ADD DUP3 ADD PUSH1 0x40 MSTORE DUP1 ISZERO PUSH2 0x11CD JUMPI DUP2 PUSH1 0x20 ADD PUSH1 0x20 DUP3 MUL DUP1 CALLDATASIZE DUP4 CALLDATACOPY DUP1 DUP3 ADD SWAP2 POP POP SWAP1 POP JUMPDEST POP PUSH32 0xF00000000000000000000000000000000000000000000000000000000000000 SWAP6 SWAP5 SWAP4 SWAP3 SWAP2 SWAP1 SWAP8 POP SWAP8 POP SWAP8 POP SWAP8 POP SWAP8 POP SWAP8 POP SWAP8 POP POP SWAP1 SWAP2 SWAP3 SWAP4 SWAP5 SWAP6 SWAP7 JUMP JUMPDEST PUSH1 0x60 PUSH1 0x1 DUP1 SLOAD PUSH2 0x121C SWAP1 PUSH2 0x4F9D JUMP JUMPDEST DUP1 PUSH1 0x1F ADD PUSH1 0x20 DUP1 SWAP2 DIV MUL PUSH1 0x20 ADD PUSH1 0x40 MLOAD SWAP1 DUP2 ADD PUSH1 0x40 MSTORE DUP1 SWAP3 SWAP2 SWAP1 DUP2 DUP2 MSTORE PUSH1 0x20 ADD DUP3 DUP1 SLOAD PUSH2 0x1248 SWAP1 PUSH2 0x4F9D JUMP JUMPDEST DUP1 ISZERO PUSH2 0x1293 JUMPI DUP1 PUSH1 0x1F LT PUSH2 0x126A JUMPI PUSH2 0x100 DUP1 DUP4 SLOAD DIV MUL DUP4 MSTORE SWAP2 PUSH1 0x20 ADD SWAP2 PUSH2 0x1293 JUMP JUMPDEST DUP3 ADD SWAP2 SWAP1 PUSH0 MSTORE PUSH1 0x20 PUSH0 KECCAK256 SWAP1 JUMPDEST DUP2 SLOAD DUP2 MSTORE SWAP1 PUSH1 0x1 ADD SWAP1 PUSH1 0x20 ADD DUP1 DUP4 GT PUSH2 0x1276 JUMPI DUP3 SWAP1 SUB PUSH1 0x1F AND DUP3 ADD SWAP2 JUMPDEST POP POP POP POP POP SWAP1 POP SWAP1 JUMP JUMPDEST PUSH0 DUP1 PUSH2 0x12A7 PUSH2 0x21D9 JUMP JUMPDEST SWAP1 POP DUP1 PUSH0 ADD PUSH0 SWAP1 SLOAD SWAP1 PUSH2 0x100 EXP SWAP1 DIV PUSH20 0xFFFFFFFFFFFFFFFFFFFFFFFFFFFFFFFFFFFFFFFF AND SWAP2 POP POP SWAP1 JUMP JUMPDEST PUSH0 DUP1 PUSH2 0x12DC PUSH2 0x2200 JUMP JUMPDEST SWAP1 POP PUSH2 0x1302 DUP4 DUP3 PUSH0 ADD PUSH0 DUP8 DUP2 MSTORE PUSH1 0x20 ADD SWAP1 DUP2 MSTORE PUSH1 0x20 ADD PUSH0 KECCAK256 PUSH2 0x2227 SWAP1 SWAP2 SWAP1 PUSH4 0xFFFFFFFF AND JUMP JUMPDEST SWAP2 POP POP SWAP3 SWAP2 POP POP JUMP JUMPDEST PUSH0 DUP1 PUSH2 0x1315 PUSH2 0x1A79 JUMP JUMPDEST SWAP1 POP DUP1 PUSH0 ADD PUSH0 DUP6 DUP2 MSTORE PUSH1 0x20 ADD SWAP1 DUP2 MSTORE PUSH1 0x20 ADD PUSH0 KECCAK256 PUSH0 ADD PUSH0 DUP5 PUSH20 0xFFFFFFFFFFFFFFFFFFFFFFFFFFFFFFFFFFFFFFFF AND PUSH20 0xFFFFFFFFFFFFFFFFFFFFFFFFFFFFFFFFFFFFFFFF AND DUP2 MSTORE PUSH1 0x20 ADD SWAP1 DUP2 MSTORE PUSH1 0x20 ADD PUSH0 KECCAK256 PUSH0 SWAP1 SLOAD SWAP1 PUSH2 0x100 EXP SWAP1 DIV PUSH1 0xFF AND SWAP2 POP POP SWAP3 SWAP2 POP POP JUMP JUMPDEST PUSH1 0x60 PUSH0 PUSH2 0x1387 PUSH2 0x1930 JUMP JUMPDEST SWAP1 POP DUP1 PUSH1 0x1 ADD DUP1 SLOAD PUSH2 0x1398 SWAP1 PUSH2 0x4F9D JUMP JUMPDEST DUP1 PUSH1 0x1F ADD PUSH1 0x20 DUP1 SWAP2 DIV MUL PUSH1 0x20 ADD PUSH1 0x40 MLOAD SWAP1 DUP2 ADD PUSH1 0x40 MSTORE DUP1 SWAP3 SWAP2 SWAP1 DUP2 DUP2 MSTORE PUSH1 0x20 ADD DUP3 DUP1 SLOAD PUSH2 0x13C4 SWAP1 PUSH2 0x4F9D JUMP JUMPDEST DUP1 ISZERO PUSH2 0x140F JUMPI DUP1 PUSH1 0x1F LT PUSH2 0x13E6 JUMPI PUSH2 0x100 DUP1 DUP4 SLOAD DIV MUL DUP4 MSTORE SWAP2 PUSH1 0x20 ADD SWAP2 PUSH2 0x140F JUMP JUMPDEST DUP3 ADD SWAP2 SWAP1 PUSH0 MSTORE PUSH1 0x20 PUSH0 KECCAK256 SWAP1 JUMPDEST DUP2 SLOAD DUP2 MSTORE SWAP1 PUSH1 0x1 ADD SWAP1 PUSH1 0x20 ADD DUP1 DUP4 GT PUSH2 0x13F2 JUMPI DUP3 SWAP1 SUB PUSH1 0x1F AND DUP3 ADD SWAP2 JUMPDEST POP POP POP POP POP SWAP2 POP POP SWAP1 JUMP JUMPDEST PUSH0 DUP1 SHL DUP2 JUMP JUMPDEST PUSH2 0x1432 PUSH2 0x142B PUSH2 0x1A24 JUMP JUMPDEST DUP4 DUP4 PUSH2 0x223E JUMP JUMPDEST POP POP JUMP JUMPDEST PUSH1 0x40 MLOAD DUP1 PUSH1 0x40 ADD PUSH1 0x40 MSTORE DUP1 PUSH1 0x5 DUP2 MSTORE PUSH1 0x20 ADD PUSH32 0x352E302E30000000000000000000000000000000000000000000000000000000 DUP2 MSTORE POP DUP2 JUMP JUMPDEST PUSH2 0x147A DUP5 DUP5 DUP5 PUSH2 0xA54 JUMP JUMPDEST PUSH2 0x1486 DUP5 DUP5 DUP5 DUP5 PUSH2 0x23B5 JUMP JUMPDEST POP POP POP POP JUMP JUMPDEST PUSH0 PUSH2 0x1495 PUSH2 0x2567 JUMP JUMPDEST SWAP1 POP PUSH0 DUP2 PUSH0 ADD PUSH1 0x8 SWAP1 SLOAD SWAP1 PUSH2 0x100 EXP SWAP1 DIV PUSH1 0xFF AND ISZERO SWAP1 POP PUSH0 DUP3 PUSH0 ADD PUSH0 SWAP1 SLOAD SWAP1 PUSH2 0x100 EXP SWAP1 DIV PUSH8 0xFFFFFFFFFFFFFFFF AND SWAP1 POP PUSH0 DUP1 DUP3 PUSH8 0xFFFFFFFFFFFFFFFF AND EQ DUP1 ISZERO PUSH2 0x14DD JUMPI POP DUP3 JUMPDEST SWAP1 POP PUSH0 PUSH1 0x1 DUP4 PUSH8 0xFFFFFFFFFFFFFFFF AND EQ DUP1 ISZERO PUSH2 0x1510 JUMPI POP PUSH0 ADDRESS PUSH20 0xFFFFFFFFFFFFFFFFFFFFFFFFFFFFFFFFFFFFFFFF AND EXTCODESIZE EQ JUMPDEST SWAP1 POP DUP2 ISZERO DUP1 ISZERO PUSH2 0x151E JUMPI POP DUP1 ISZERO JUMPDEST ISZERO PUSH2 0x1555 JUMPI PUSH1 0x40 MLOAD PUSH32 0xF92EE8A900000000000000000000000000000000000000000000000000000000 DUP2 MSTORE PUSH1 0x4 ADD PUSH1 0x40 MLOAD DUP1 SWAP2 SUB SWAP1 REVERT JUMPDEST PUSH1 0x1 DUP6 PUSH0 ADD PUSH0 PUSH2 0x100 EXP DUP2 SLOAD DUP2 PUSH8 0xFFFFFFFFFFFFFFFF MUL NOT AND SWAP1 DUP4 PUSH8 0xFFFFFFFFFFFFFFFF AND MUL OR SWAP1 SSTORE POP DUP4 ISZERO PUSH2 0x15A2 JUMPI PUSH1 0x1 DUP6 PUSH0 ADD PUSH1 0x8 PUSH2 0x100 EXP DUP2 SLOAD DUP2 PUSH1 0xFF MUL NOT AND SWAP1 DUP4 ISZERO ISZERO MUL OR SWAP1 SSTORE POP JUMPDEST PUSH2 0x1616 PUSH1 0x40 MLOAD DUP1 PUSH1 0x40 ADD PUSH1 0x40 MSTORE DUP1 PUSH1 0xB DUP2 MSTORE PUSH1 0x20 ADD PUSH32 0x5343554D57616C6B657273000000000000000000000000000000000000000000 DUP2 MSTORE POP PUSH1 0x40 MLOAD DUP1 PUSH1 0x40 ADD PUSH1 0x40 MSTORE DUP1 PUSH1 0x2 DUP2 MSTORE PUSH1 0x20 ADD PUSH32 0x5357000000000000000000000000000000000000000000000000000000000000 DUP2 MSTORE POP PUSH2 0x258E JUMP JUMPDEST PUSH2 0x161E PUSH2 0x25A4 JUMP JUMPDEST PUSH2 0x1626 PUSH2 0x25AE JUMP JUMPDEST PUSH2 0x162E PUSH2 0x25B8 JUMP JUMPDEST PUSH2 0x1637 DUP7 PUSH2 0x25CA JUMP JUMPDEST PUSH2 0x163F PUSH2 0x25DE JUMP JUMPDEST PUSH2 0x16B3 PUSH1 0x40 MLOAD DUP1 PUSH1 0x40 ADD PUSH1 0x40 MSTORE DUP1 PUSH1 0xB DUP2 MSTORE PUSH1 0x20 ADD PUSH32 0x5343554D57616C6B657273000000000000000000000000000000000000000000 DUP2 MSTORE POP PUSH1 0x40 MLOAD DUP1 PUSH1 0x40 ADD PUSH1 0x40 MSTORE DUP1 PUSH1 0x1 DUP2 MSTORE PUSH1 0x20 ADD PUSH32 0x3100000000000000000000000000000000000000000000000000000000000000 DUP2 MSTORE POP PUSH2 0x25E8 JUMP JUMPDEST DUP4 ISZERO PUSH2 0x170D JUMPI PUSH0 DUP6 PUSH0 ADD PUSH1 0x8 PUSH2 0x100 EXP DUP2 SLOAD DUP2 PUSH1 0xFF MUL NOT AND SWAP1 DUP4 ISZERO ISZERO MUL OR SWAP1 SSTORE POP PUSH32 0xC7F505B2F371AE2175EE4913F4499E1F2633A7B5936321EED1CDAEB6115181D2 PUSH1 0x1 PUSH1 0x40 MLOAD PUSH2 0x1704 SWAP2 SWAP1 PUSH2 0x541A JUMP JUMPDEST PUSH1 0x40 MLOAD DUP1 SWAP2 SUB SWAP1 LOG1 JUMPDEST POP POP POP POP POP POP JUMP JUMPDEST PUSH1 0x60 PUSH2 0x1720 DUP3 PUSH2 0x25FE JUMP JUMPDEST SWAP1 POP SWAP2 SWAP1 POP JUMP JUMPDEST PUSH0 DUP1 PUSH2 0x1731 PUSH2 0x2200 JUMP JUMPDEST SWAP1 POP PUSH2 0x174D DUP2 PUSH0 ADD PUSH0 DUP6 DUP2 MSTORE PUSH1 0x20 ADD SWAP1 DUP2 MSTORE PUSH1 0x20 ADD PUSH0 KECCAK256 PUSH2 0x2718 JUMP JUMPDEST SWAP2 POP POP SWAP2 SWAP1 POP JUMP JUMPDEST PUSH2 0x175D PUSH2 0x1B84 JUMP JUMPDEST PUSH0 DUP1 PUSH0 DUP2 SLOAD DUP1 SWAP3 SWAP2 SWAP1 PUSH2 0x176F SWAP1 PUSH2 0x5433 JUMP JUMPDEST SWAP2 SWAP1 POP SSTORE SWAP1 POP PUSH2 0x177F DUP4 DUP3 PUSH2 0x272B JUMP JUMPDEST PUSH2 0x1789 DUP2 DUP4 PUSH2 0x2748 JUMP JUMPDEST POP POP POP JUMP JUMPDEST PUSH2 0x1797 DUP3 PUSH2 0xB53 JUMP JUMPDEST PUSH2 0x17A0 DUP2 PUSH2 0x1AD0 JUMP JUMPDEST PUSH2 0x17AA DUP4 DUP4 PUSH2 0x1B34 JUMP JUMPDEST POP POP POP POP JUMP JUMPDEST PUSH0 DUP1 PUSH2 0x17BA PUSH2 0x1930 JUMP JUMPDEST SWAP1 POP DUP1 PUSH1 0x5 ADD PUSH0 DUP6 PUSH20 0xFFFFFFFFFFFFFFFFFFFFFFFFFFFFFFFFFFFFFFFF AND PUSH20 0xFFFFFFFFFFFFFFFFFFFFFFFFFFFFFFFFFFFFFFFF AND DUP2 MSTORE PUSH1 0x20 ADD SWAP1 DUP2 MSTORE PUSH1 0x20 ADD PUSH0 KECCAK256 PUSH0 DUP5 PUSH20 0xFFFFFFFFFFFFFFFFFFFFFFFFFFFFFFFFFFFFFFFF AND PUSH20 0xFFFFFFFFFFFFFFFFFFFFFFFFFFFFFFFFFFFFFFFF AND DUP2 MSTORE PUSH1 0x20 ADD SWAP1 DUP2 MSTORE PUSH1 0x20 ADD PUSH0 KECCAK256 PUSH0 SWAP1 SLOAD SWAP1 PUSH2 0x100 EXP SWAP1 DIV PUSH1 0xFF AND SWAP2 POP POP SWAP3 SWAP2 POP POP JUMP JUMPDEST PUSH2 0x1854 PUSH2 0x1B84 JUMP JUMPDEST PUSH0 PUSH20 0xFFFFFFFFFFFFFFFFFFFFFFFFFFFFFFFFFFFFFFFF AND DUP2 PUSH20 0xFFFFFFFFFFFFFFFFFFFFFFFFFFFFFFFFFFFFFFFF AND SUB PUSH2 0x18C4 JUMPI PUSH0 PUSH1 0x40 MLOAD PUSH32 0x1E4FBDF700000000000000000000000000000000000000000000000000000000 DUP2 MSTORE PUSH1 0x4 ADD PUSH2 0x18BB SWAP2 SWAP1 PUSH2 0x4787 JUMP JUMPDEST PUSH1 0x40 MLOAD DUP1 SWAP2 SUB SWAP1 REVERT JUMPDEST PUSH2 0x18CD DUP2 PUSH2 0x1F36 JUMP JUMPDEST POP JUMP JUMPDEST PUSH0 PUSH4 0x49064906 PUSH1 0xE0 SHL PUSH28 0xFFFFFFFFFFFFFFFFFFFFFFFFFFFFFFFFFFFFFFFFFFFFFFFFFFFFFFFF NOT AND DUP3 PUSH28 0xFFFFFFFFFFFFFFFFFFFFFFFFFFFFFFFFFFFFFFFFFFFFFFFFFFFFFFFF NOT AND EQ DUP1 PUSH2 0x1929 JUMPI POP PUSH2 0x1928 DUP3 PUSH2 0x27AF JUMP JUMPDEST JUMPDEST SWAP1 POP SWAP2 SWAP1 POP JUMP JUMPDEST PUSH0 PUSH32 0x80BB2B638CC20BC4D0A60D66940F3AB4A00C1D7B313497CA82FB0B4AB0079300 SWAP1 POP SWAP1 JUMP JUMPDEST PUSH0 DUP1 PUSH2 0x1962 DUP4 PUSH2 0x2828 JUMP JUMPDEST SWAP1 POP PUSH0 PUSH20 0xFFFFFFFFFFFFFFFFFFFFFFFFFFFFFFFFFFFFFFFF AND DUP2 PUSH20 0xFFFFFFFFFFFFFFFFFFFFFFFFFFFFFFFFFFFFFFFF AND SUB PUSH2 0x19D4 JUMPI DUP3 PUSH1 0x40 MLOAD PUSH32 0x7E27328900000000000000000000000000000000000000000000000000000000 DUP2 MSTORE PUSH1 0x4 ADD PUSH2 0x19CB SWAP2 SWAP1 PUSH2 0x4817 JUMP JUMPDEST PUSH1 0x40 MLOAD DUP1 SWAP2 SUB SWAP1 REVERT JUMPDEST DUP1 SWAP2 POP POP SWAP2 SWAP1 POP JUMP JUMPDEST PUSH0 DUP1 PUSH2 0x19E7 PUSH2 0x1930 JUMP JUMPDEST SWAP1 POP DUP1 PUSH1 0x4 ADD PUSH0 DUP5 DUP2 MSTORE PUSH1 0x20 ADD SWAP1 DUP2 MSTORE PUSH1 0x20 ADD PUSH0 KECCAK256 PUSH0 SWAP1 SLOAD SWAP1 PUSH2 0x100 EXP SWAP1 DIV PUSH20 0xFFFFFFFFFFFFFFFFFFFFFFFFFFFFFFFFFFFFFFFF AND SWAP2 POP POP SWAP2 SWAP1 POP JUMP JUMPDEST PUSH0 CALLER SWAP1 POP SWAP1 JUMP JUMPDEST PUSH2 0x1A38 DUP4 DUP4 DUP4 PUSH1 0x1 PUSH2 0x2839 JUMP JUMPDEST POP POP POP JUMP JUMPDEST PUSH0 PUSH32 0x645E039705490088DAAD89BAE25049A34F4A9072D398537B1AB2425F24CBED00 SWAP1 POP SWAP1 JUMP JUMPDEST PUSH0 PUSH2 0x1A70 DUP5 DUP5 DUP5 PUSH2 0x2A06 JUMP JUMPDEST SWAP1 POP SWAP4 SWAP3 POP POP POP JUMP JUMPDEST PUSH0 PUSH32 0x2DD7BC7DEC4DCEEDDA775E58DD541E08A116C6C53815C0BD028192F7B626800 SWAP1 POP SWAP1 JUMP JUMPDEST PUSH0 PUSH32 0xDAEDC9AB023613A7CAF35E703657E986CCFAD7E3EB0AF93A2853F8D65DD86B00 SWAP1 POP SWAP1 JUMP JUMPDEST PUSH0 PUSH2 0x2710 SWAP1 POP SWAP1 JUMP JUMPDEST PUSH2 0x1AE1 DUP2 PUSH2 0x1ADC PUSH2 0x1A24 JUMP JUMPDEST PUSH2 0x2A23 JUMP JUMPDEST POP JUMP JUMPDEST PUSH0 DUP1 PUSH2 0x1AEE PUSH2 0x2200 JUMP JUMPDEST SWAP1 POP PUSH0 PUSH2 0x1AFB DUP6 DUP6 PUSH2 0x2A74 JUMP JUMPDEST SWAP1 POP DUP1 ISZERO PUSH2 0x1B29 JUMPI PUSH2 0x1B27 DUP5 DUP4 PUSH0 ADD PUSH0 DUP9 DUP2 MSTORE PUSH1 0x20 ADD SWAP1 DUP2 MSTORE PUSH1 0x20 ADD PUSH0 KECCAK256 PUSH2 0x2B6C SWAP1 SWAP2 SWAP1 PUSH4 0xFFFFFFFF AND JUMP JUMPDEST POP JUMPDEST DUP1 SWAP3 POP POP POP SWAP3 SWAP2 POP POP JUMP JUMPDEST PUSH0 DUP1 PUSH2 0x1B3E PUSH2 0x2200 JUMP JUMPDEST SWAP1 POP PUSH0 PUSH2 0x1B4B DUP6 DUP6 PUSH2 0x2B99 JUMP JUMPDEST SWAP1 POP DUP1 ISZERO PUSH2 0x1B79 JUMPI PUSH2 0x1B77 DUP5 DUP4 PUSH0 ADD PUSH0 DUP9 DUP2 MSTORE PUSH1 0x20 ADD SWAP1 DUP2 MSTORE PUSH1 0x20 ADD PUSH0 KECCAK256 PUSH2 0x2C91 SWAP1 SWAP2 SWAP1 PUSH4 0xFFFFFFFF AND JUMP JUMPDEST POP JUMPDEST DUP1 SWAP3 POP POP POP SWAP3 SWAP2 POP POP JUMP JUMPDEST PUSH2 0x1B8C PUSH2 0x1A24 JUMP JUMPDEST PUSH20 0xFFFFFFFFFFFFFFFFFFFFFFFFFFFFFFFFFFFFFFFF AND PUSH2 0x1BAA PUSH2 0x129D JUMP JUMPDEST PUSH20 0xFFFFFFFFFFFFFFFFFFFFFFFFFFFFFFFFFFFFFFFF AND EQ PUSH2 0x1C09 JUMPI PUSH2 0x1BCD PUSH2 0x1A24 JUMP JUMPDEST PUSH1 0x40 MLOAD PUSH32 0x118CDAA700000000000000000000000000000000000000000000000000000000 DUP2 MSTORE PUSH1 0x4 ADD PUSH2 0x1C00 SWAP2 SWAP1 PUSH2 0x4787 JUMP JUMPDEST PUSH1 0x40 MLOAD DUP1 SWAP2 SUB SWAP1 REVERT JUMPDEST JUMP JUMPDEST PUSH2 0x1C13 PUSH2 0x2CBE JUMP JUMPDEST PUSH0 PUSH2 0x1C1C PUSH2 0x1F0F JUMP JUMPDEST SWAP1 POP PUSH0 DUP2 PUSH0 ADD PUSH0 PUSH2 0x100 EXP DUP2 SLOAD DUP2 PUSH1 0xFF MUL NOT AND SWAP1 DUP4 ISZERO ISZERO MUL OR SWAP1 SSTORE POP PUSH32 0x5DB9EE0A495BF2E6FF9C91A7834C1BA4FDD244A5E8AA4E537BD38AEAE4B073AA PUSH2 0x1C61 PUSH2 0x1A24 JUMP JUMPDEST PUSH1 0x40 MLOAD PUSH2 0x1C6E SWAP2 SWAP1 PUSH2 0x4787 JUMP JUMPDEST PUSH1 0x40 MLOAD DUP1 SWAP2 SUB SWAP1 LOG1 POP JUMP JUMPDEST PUSH32 0x0 PUSH20 0xFFFFFFFFFFFFFFFFFFFFFFFFFFFFFFFFFFFFFFFF AND ADDRESS PUSH20 0xFFFFFFFFFFFFFFFFFFFFFFFFFFFFFFFFFFFFFFFF AND EQ DUP1 PUSH2 0x1D26 JUMPI POP PUSH32 0x0 PUSH20 0xFFFFFFFFFFFFFFFFFFFFFFFFFFFFFFFFFFFFFFFF AND PUSH2 0x1D0D PUSH2 0x2CFE JUMP JUMPDEST PUSH20 0xFFFFFFFFFFFFFFFFFFFFFFFFFFFFFFFFFFFFFFFF AND EQ ISZERO JUMPDEST ISZERO PUSH2 0x1D5D JUMPI PUSH1 0x40 MLOAD PUSH32 0xE07C8DBA00000000000000000000000000000000000000000000000000000000 DUP2 MSTORE PUSH1 0x4 ADD PUSH1 0x40 MLOAD DUP1 SWAP2 SUB SWAP1 REVERT JUMPDEST JUMP JUMPDEST PUSH2 0x1D67 PUSH2 0x1B84 JUMP JUMPDEST POP JUMP JUMPDEST DUP2 PUSH20 0xFFFFFFFFFFFFFFFFFFFFFFFFFFFFFFFFFFFFFFFF AND PUSH4 0x52D1902D PUSH1 0x40 MLOAD DUP2 PUSH4 0xFFFFFFFF AND PUSH1 0xE0 SHL DUP2 MSTORE PUSH1 0x4 ADD PUSH1 0x20 PUSH1 0x40 MLOAD DUP1 DUP4 SUB DUP2 DUP7 GAS STATICCALL SWAP3 POP POP POP DUP1 ISZERO PUSH2 0x1DD2 JUMPI POP PUSH1 0x40 MLOAD RETURNDATASIZE PUSH1 0x1F NOT PUSH1 0x1F DUP3 ADD AND DUP3 ADD DUP1 PUSH1 0x40 MSTORE POP DUP2 ADD SWAP1 PUSH2 0x1DCF SWAP2 SWAP1 PUSH2 0x548E JUMP JUMPDEST PUSH1 0x1 JUMPDEST PUSH2 0x1E13 JUMPI DUP2 PUSH1 0x40 MLOAD PUSH32 0x4C9C8CE300000000000000000000000000000000000000000000000000000000 DUP2 MSTORE PUSH1 0x4 ADD PUSH2 0x1E0A SWAP2 SWAP1 PUSH2 0x4787 JUMP JUMPDEST PUSH1 0x40 MLOAD DUP1 SWAP2 SUB SWAP1 REVERT JUMPDEST PUSH32 0x360894A13BA1A3210667C828492DB98DCA3E2076CC3735A920A3CA505D382BBC PUSH0 SHL DUP2 EQ PUSH2 0x1E79 JUMPI DUP1 PUSH1 0x40 MLOAD PUSH32 0xAA1D49A400000000000000000000000000000000000000000000000000000000 DUP2 MSTORE PUSH1 0x4 ADD PUSH2 0x1E70 SWAP2 SWAP1 PUSH2 0x48ED JUMP JUMPDEST PUSH1 0x40 MLOAD DUP1 SWAP2 SUB SWAP1 REVERT JUMPDEST PUSH2 0x1E83 DUP4 DUP4 PUSH2 0x2D51 JUMP JUMPDEST POP POP POP JUMP JUMPDEST PUSH32 0x0 PUSH20 0xFFFFFFFFFFFFFFFFFFFFFFFFFFFFFFFFFFFFFFFF AND ADDRESS PUSH20 0xFFFFFFFFFFFFFFFFFFFFFFFFFFFFFFFFFFFFFFFF AND EQ PUSH2 0x1F0D JUMPI PUSH1 0x40 MLOAD PUSH32 0xE07C8DBA00000000000000000000000000000000000000000000000000000000 DUP2 MSTORE PUSH1 0x4 ADD PUSH1 0x40 MLOAD DUP1 SWAP2 SUB SWAP1 REVERT JUMPDEST JUMP JUMPDEST PUSH0 PUSH32 0xCD5ED15C6E187E77E9AEE88184C21F4F2182AB5827CB3B7E07FBEDCD63F03300 SWAP1 POP SWAP1 JUMP JUMPDEST PUSH0 PUSH2 0x1F3F PUSH2 0x21D9 JUMP JUMPDEST SWAP1 POP PUSH0 DUP2 PUSH0 ADD PUSH0 SWAP1 SLOAD SWAP1 PUSH2 0x100 EXP SWAP1 DIV PUSH20 0xFFFFFFFFFFFFFFFFFFFFFFFFFFFFFFFFFFFFFFFF AND SWAP1 POP DUP3 DUP3 PUSH0 ADD PUSH0 PUSH2 0x100 EXP DUP2 SLOAD DUP2 PUSH20 0xFFFFFFFFFFFFFFFFFFFFFFFFFFFFFFFFFFFFFFFF MUL NOT AND SWAP1 DUP4 PUSH20 0xFFFFFFFFFFFFFFFFFFFFFFFFFFFFFFFFFFFFFFFF AND MUL OR SWAP1 SSTORE POP DUP3 PUSH20 0xFFFFFFFFFFFFFFFFFFFFFFFFFFFFFFFFFFFFFFFF AND DUP2 PUSH20 0xFFFFFFFFFFFFFFFFFFFFFFFFFFFFFFFFFFFFFFFF AND PUSH32 0x8BE0079C531659141344CD1FD0A4F28419497F9722A3DAAFE3B4186F6B6457E0 PUSH1 0x40 MLOAD PUSH1 0x40 MLOAD DUP1 SWAP2 SUB SWAP1 LOG3 POP POP POP JUMP JUMPDEST PUSH2 0x200F PUSH2 0x2DC3 JUMP JUMPDEST PUSH0 PUSH2 0x2018 PUSH2 0x1F0F JUMP JUMPDEST SWAP1 POP PUSH1 0x1 DUP2 PUSH0 ADD PUSH0 PUSH2 0x100 EXP DUP2 SLOAD DUP2 PUSH1 0xFF MUL NOT AND SWAP1 DUP4 ISZERO ISZERO MUL OR SWAP1 SSTORE POP PUSH32 0x62E78CEA01BEE320CD4E420270B5EA74000D11B0C9F74754EBDBFC544B05A258 PUSH2 0x205E PUSH2 0x1A24 JUMP JUMPDEST PUSH1 0x40 MLOAD PUSH2 0x206B SWAP2 SWAP1 PUSH2 0x4787 JUMP JUMPDEST PUSH1 0x40 MLOAD DUP1 SWAP2 SUB SWAP1 LOG1 POP JUMP JUMPDEST PUSH0 PUSH32 0xA16A46D94261C7517CC8FF89F61C0CE93598E3C849801011DEE649A6A557D100 SWAP1 POP SWAP1 JUMP JUMPDEST PUSH1 0x60 PUSH0 PUSH2 0x20A8 PUSH2 0x2076 JUMP JUMPDEST SWAP1 POP DUP1 PUSH1 0x2 ADD DUP1 SLOAD PUSH2 0x20B9 SWAP1 PUSH2 0x4F9D JUMP JUMPDEST DUP1 PUSH1 0x1F ADD PUSH1 0x20 DUP1 SWAP2 DIV MUL PUSH1 0x20 ADD PUSH1 0x40 MLOAD SWAP1 DUP2 ADD PUSH1 0x40 MSTORE DUP1 SWAP3 SWAP2 SWAP1 DUP2 DUP2 MSTORE PUSH1 0x20 ADD DUP3 DUP1 SLOAD PUSH2 0x20E5 SWAP1 PUSH2 0x4F9D JUMP JUMPDEST DUP1 ISZERO PUSH2 0x2130 JUMPI DUP1 PUSH1 0x1F LT PUSH2 0x2107 JUMPI PUSH2 0x100 DUP1 DUP4 SLOAD DIV MUL DUP4 MSTORE SWAP2 PUSH1 0x20 ADD SWAP2 PUSH2 0x2130 JUMP JUMPDEST DUP3 ADD SWAP2 SWAP1 PUSH0 MSTORE PUSH1 0x20 PUSH0 KECCAK256 SWAP1 JUMPDEST DUP2 SLOAD DUP2 MSTORE SWAP1 PUSH1 0x1 ADD SWAP1 PUSH1 0x20 ADD DUP1 DUP4 GT PUSH2 0x2113 JUMPI DUP3 SWAP1 SUB PUSH1 0x1F AND DUP3 ADD SWAP2 JUMPDEST POP POP POP POP POP SWAP2 POP POP SWAP1 JUMP JUMPDEST PUSH1 0x60 PUSH0 PUSH2 0x2146 PUSH2 0x2076 JUMP JUMPDEST SWAP1 POP DUP1 PUSH1 0x3 ADD DUP1 SLOAD PUSH2 0x2157 SWAP1 PUSH2 0x4F9D JUMP JUMPDEST DUP1 PUSH1 0x1F ADD PUSH1 0x20 DUP1 SWAP2 DIV MUL PUSH1 0x20 ADD PUSH1 0x40 MLOAD SWAP1 DUP2 ADD PUSH1 0x40 MSTORE DUP1 SWAP3 SWAP2 SWAP1 DUP2 DUP2 MSTORE PUSH1 0x20 ADD DUP3 DUP1 SLOAD PUSH2 0x2183 SWAP1 PUSH2 0x4F9D JUMP JUMPDEST DUP1 ISZERO PUSH2 0x21CE JUMPI DUP1 PUSH1 0x1F LT PUSH2 0x21A5 JUMPI PUSH2 0x100 DUP1 DUP4 SLOAD DIV MUL DUP4 MSTORE SWAP2 PUSH1 0x20 ADD SWAP2 PUSH2 0x21CE JUMP JUMPDEST DUP3 ADD SWAP2 SWAP1 PUSH0 MSTORE PUSH1 0x20 PUSH0 KECCAK256 SWAP1 JUMPDEST DUP2 SLOAD DUP2 MSTORE SWAP1 PUSH1 0x1 ADD SWAP1 PUSH1 0x20 ADD DUP1 DUP4 GT PUSH2 0x21B1 JUMPI DUP3 SWAP1 SUB PUSH1 0x1F AND DUP3 ADD SWAP2 JUMPDEST POP POP POP POP POP SWAP2 POP POP SWAP1 JUMP JUMPDEST PUSH0 PUSH32 0x9016D09D72D40FDAE2FD8CEAC6B6234C7706214FD39C1CD1E609A0528C199300 SWAP1 POP SWAP1 JUMP JUMPDEST PUSH0 PUSH32 0xC1F6FE24621CE81EC5827CAF0253CADB74709B061630E6B55E82371705932000 SWAP1 POP SWAP1 JUMP JUMPDEST PUSH0 PUSH2 0x2234 DUP4 PUSH0 ADD DUP4 PUSH2 0x2E04 JUMP JUMPDEST PUSH0 SHR SWAP1 POP SWAP3 SWAP2 POP POP JUMP JUMPDEST PUSH0 PUSH2 0x2247 PUSH2 0x1930 JUMP JUMPDEST SWAP1 POP PUSH0 PUSH20 0xFFFFFFFFFFFFFFFFFFFFFFFFFFFFFFFFFFFFFFFF AND DUP4 PUSH20 0xFFFFFFFFFFFFFFFFFFFFFFFFFFFFFFFFFFFFFFFF AND SUB PUSH2 0x22B9 JUMPI DUP3 PUSH1 0x40 MLOAD PUSH32 0x5B08BA1800000000000000000000000000000000000000000000000000000000 DUP2 MSTORE PUSH1 0x4 ADD PUSH2 0x22B0 SWAP2 SWAP1 PUSH2 0x4787 JUMP JUMPDEST PUSH1 0x40 MLOAD DUP1 SWAP2 SUB SWAP1 REVERT JUMPDEST DUP2 DUP2 PUSH1 0x5 ADD PUSH0 DUP7 PUSH20 0xFFFFFFFFFFFFFFFFFFFFFFFFFFFFFFFFFFFFFFFF AND PUSH20 0xFFFFFFFFFFFFFFFFFFFFFFFFFFFFFFFFFFFFFFFF AND DUP2 MSTORE PUSH1 0x20 ADD SWAP1 DUP2 MSTORE PUSH1 0x20 ADD PUSH0 KECCAK256 PUSH0 DUP6 PUSH20 0xFFFFFFFFFFFFFFFFFFFFFFFFFFFFFFFFFFFFFFFF AND PUSH20 0xFFFFFFFFFFFFFFFFFFFFFFFFFFFFFFFFFFFFFFFF AND DUP2 MSTORE PUSH1 0x20 ADD SWAP1 DUP2 MSTORE PUSH1 0x20 ADD PUSH0 KECCAK256 PUSH0 PUSH2 0x100 EXP DUP2 SLOAD DUP2 PUSH1 0xFF MUL NOT AND SWAP1 DUP4 ISZERO ISZERO MUL OR SWAP1 SSTORE POP DUP3 PUSH20 0xFFFFFFFFFFFFFFFFFFFFFFFFFFFFFFFFFFFFFFFF AND DUP5 PUSH20 0xFFFFFFFFFFFFFFFFFFFFFFFFFFFFFFFFFFFFFFFF AND PUSH32 0x17307EAB39AB6107E8899845AD3D59BD9653F200F220920489CA2B5937696C31 DUP5 PUSH1 0x40 MLOAD PUSH2 0x23A7 SWAP2 SWAP1 PUSH2 0x4627 JUMP JUMPDEST PUSH1 0x40 MLOAD DUP1 SWAP2 SUB SWAP1 LOG3 POP POP POP POP JUMP JUMPDEST PUSH0 DUP4 PUSH20 0xFFFFFFFFFFFFFFFFFFFFFFFFFFFFFFFFFFFFFFFF AND EXTCODESIZE GT ISZERO PUSH2 0x2561 JUMPI DUP3 PUSH20 0xFFFFFFFFFFFFFFFFFFFFFFFFFFFFFFFFFFFFFFFF AND PUSH4 0x150B7A02 PUSH2 0x23F8 PUSH2 0x1A24 JUMP JUMPDEST DUP7 DUP6 DUP6 PUSH1 0x40 MLOAD DUP6 PUSH4 0xFFFFFFFF AND PUSH1 0xE0 SHL DUP2 MSTORE PUSH1 0x4 ADD PUSH2 0x241A SWAP5 SWAP4 SWAP3 SWAP2 SWAP1 PUSH2 0x550B JUMP JUMPDEST PUSH1 0x20 PUSH1 0x40 MLOAD DUP1 DUP4 SUB DUP2 PUSH0 DUP8 GAS CALL SWAP3 POP POP POP DUP1 ISZERO PUSH2 0x2455 JUMPI POP PUSH1 0x40 MLOAD RETURNDATASIZE PUSH1 0x1F NOT PUSH1 0x1F DUP3 ADD AND DUP3 ADD DUP1 PUSH1 0x40 MSTORE POP DUP2 ADD SWAP1 PUSH2 0x2452 SWAP2 SWAP1 PUSH2 0x5569 JUMP JUMPDEST PUSH1 0x1 JUMPDEST PUSH2 0x24D6 JUMPI RETURNDATASIZE DUP1 PUSH0 DUP2 EQ PUSH2 0x2483 JUMPI PUSH1 0x40 MLOAD SWAP2 POP PUSH1 0x1F NOT PUSH1 0x3F RETURNDATASIZE ADD AND DUP3 ADD PUSH1 0x40 MSTORE RETURNDATASIZE DUP3 MSTORE RETURNDATASIZE PUSH0 PUSH1 0x20 DUP5 ADD RETURNDATACOPY PUSH2 0x2488 JUMP JUMPDEST PUSH1 0x60 SWAP2 POP JUMPDEST POP PUSH0 DUP2 MLOAD SUB PUSH2 0x24CE JUMPI DUP4 PUSH1 0x40 MLOAD PUSH32 0x64A0AE9200000000000000000000000000000000000000000000000000000000 DUP2 MSTORE PUSH1 0x4 ADD PUSH2 0x24C5 SWAP2 SWAP1 PUSH2 0x4787 JUMP JUMPDEST PUSH1 0x40 MLOAD DUP1 SWAP2 SUB SWAP1 REVERT JUMPDEST DUP1 MLOAD DUP2 PUSH1 0x20 ADD REVERT JUMPDEST PUSH4 0x150B7A02 PUSH1 0xE0 SHL PUSH28 0xFFFFFFFFFFFFFFFFFFFFFFFFFFFFFFFFFFFFFFFFFFFFFFFFFFFFFFFF NOT AND DUP2 PUSH28 0xFFFFFFFFFFFFFFFFFFFFFFFFFFFFFFFFFFFFFFFFFFFFFFFFFFFFFFFF NOT AND EQ PUSH2 0x255F JUMPI DUP4 PUSH1 0x40 MLOAD PUSH32 0x64A0AE9200000000000000000000000000000000000000000000000000000000 DUP2 MSTORE PUSH1 0x4 ADD PUSH2 0x2556 SWAP2 SWAP1 PUSH2 0x4787 JUMP JUMPDEST PUSH1 0x40 MLOAD DUP1 SWAP2 SUB SWAP1 REVERT JUMPDEST POP JUMPDEST POP POP POP POP JUMP JUMPDEST PUSH0 PUSH32 0xF0C57E16840DF040F15088DC2F81FE391C3923BEC73E23A9662EFC9C229C6A00 SWAP1 POP SWAP1 JUMP JUMPDEST PUSH2 0x2596 PUSH2 0x2E2B JUMP JUMPDEST PUSH2 0x25A0 DUP3 DUP3 PUSH2 0x2E6B JUMP JUMPDEST POP POP JUMP JUMPDEST PUSH2 0x25AC PUSH2 0x2E2B JUMP JUMPDEST JUMP JUMPDEST PUSH2 0x25B6 PUSH2 0x2E2B JUMP JUMPDEST JUMP JUMPDEST PUSH2 0x25C0 PUSH2 0x2E2B JUMP JUMPDEST PUSH2 0x25C8 PUSH2 0x2EA6 JUMP JUMPDEST JUMP JUMPDEST PUSH2 0x25D2 PUSH2 0x2E2B JUMP JUMPDEST PUSH2 0x25DB DUP2 PUSH2 0x2ED6 JUMP JUMPDEST POP JUMP JUMPDEST PUSH2 0x25E6 PUSH2 0x2E2B JUMP JUMPDEST JUMP JUMPDEST PUSH2 0x25F0 PUSH2 0x2E2B JUMP JUMPDEST PUSH2 0x25FA DUP3 DUP3 PUSH2 0x2F5A JUMP JUMPDEST POP POP JUMP JUMPDEST PUSH1 0x60 PUSH0 PUSH2 0x2609 PUSH2 0x2FAB JUMP JUMPDEST SWAP1 POP PUSH2 0x2614 DUP4 PUSH2 0x1957 JUMP JUMPDEST POP PUSH0 DUP2 PUSH0 ADD PUSH0 DUP6 DUP2 MSTORE PUSH1 0x20 ADD SWAP1 DUP2 MSTORE PUSH1 0x20 ADD PUSH0 KECCAK256 DUP1 SLOAD PUSH2 0x2633 SWAP1 PUSH2 0x4F9D JUMP JUMPDEST DUP1 PUSH1 0x1F ADD PUSH1 0x20 DUP1 SWAP2 DIV MUL PUSH1 0x20 ADD PUSH1 0x40 MLOAD SWAP1 DUP2 ADD PUSH1 0x40 MSTORE DUP1 SWAP3 SWAP2 SWAP1 DUP2 DUP2 MSTORE PUSH1 0x20 ADD DUP3 DUP1 SLOAD PUSH2 0x265F SWAP1 PUSH2 0x4F9D JUMP JUMPDEST DUP1 ISZERO PUSH2 0x26AA JUMPI DUP1 PUSH1 0x1F LT PUSH2 0x2681 JUMPI PUSH2 0x100 DUP1 DUP4 SLOAD DIV MUL DUP4 MSTORE SWAP2 PUSH1 0x20 ADD SWAP2 PUSH2 0x26AA JUMP JUMPDEST DUP3 ADD SWAP2 SWAP1 PUSH0 MSTORE PUSH1 0x20 PUSH0 KECCAK256 SWAP1 JUMPDEST DUP2 SLOAD DUP2 MSTORE SWAP1 PUSH1 0x1 ADD SWAP1 PUSH1 0x20 ADD DUP1 DUP4 GT PUSH2 0x268D JUMPI DUP3 SWAP1 SUB PUSH1 0x1F AND DUP3 ADD SWAP2 JUMPDEST POP POP POP POP POP SWAP1 POP PUSH0 PUSH2 0x26BA PUSH2 0x2FD2 JUMP JUMPDEST SWAP1 POP PUSH0 DUP2 MLOAD SUB PUSH2 0x26CF JUMPI DUP2 SWAP4 POP POP POP POP PUSH2 0x2713 JUMP JUMPDEST PUSH0 DUP3 MLOAD GT ISZERO PUSH2 0x2704 JUMPI DUP1 DUP3 PUSH1 0x40 MLOAD PUSH1 0x20 ADD PUSH2 0x26EB SWAP3 SWAP2 SWAP1 PUSH2 0x55CE JUMP JUMPDEST PUSH1 0x40 MLOAD PUSH1 0x20 DUP2 DUP4 SUB SUB DUP2 MSTORE SWAP1 PUSH1 0x40 MSTORE SWAP4 POP POP POP POP PUSH2 0x2713 JUMP JUMPDEST PUSH2 0x270D DUP6 PUSH2 0x2FE8 JUMP JUMPDEST SWAP4 POP POP POP POP JUMPDEST SWAP2 SWAP1 POP JUMP JUMPDEST PUSH0 PUSH2 0x2724 DUP3 PUSH0 ADD PUSH2 0x304E JUMP JUMPDEST SWAP1 POP SWAP2 SWAP1 POP JUMP JUMPDEST PUSH2 0x2744 DUP3 DUP3 PUSH1 0x40 MLOAD DUP1 PUSH1 0x20 ADD PUSH1 0x40 MSTORE DUP1 PUSH0 DUP2 MSTORE POP PUSH2 0x305D JUMP JUMPDEST POP POP JUMP JUMPDEST PUSH0 PUSH2 0x2751 PUSH2 0x2FAB JUMP JUMPDEST SWAP1 POP DUP2 DUP2 PUSH0 ADD PUSH0 DUP6 DUP2 MSTORE PUSH1 0x20 ADD SWAP1 DUP2 MSTORE PUSH1 0x20 ADD PUSH0 KECCAK256 SWAP1 DUP2 PUSH2 0x2772 SWAP2 SWAP1 PUSH2 0x5297 JUMP JUMPDEST POP PUSH32 0xF8E1A15ABA9398E019F0B49DF1A4FDE98EE17AE345CB5F6B5E2C27F5033E8CE7 DUP4 PUSH1 0x40 MLOAD PUSH2 0x27A2 SWAP2 SWAP1 PUSH2 0x4817 JUMP JUMPDEST PUSH1 0x40 MLOAD DUP1 SWAP2 SUB SWAP1 LOG1 POP POP POP JUMP JUMPDEST PUSH0 PUSH32 0x780E9D6300000000000000000000000000000000000000000000000000000000 PUSH28 0xFFFFFFFFFFFFFFFFFFFFFFFFFFFFFFFFFFFFFFFFFFFFFFFFFFFFFFFF NOT AND DUP3 PUSH28 0xFFFFFFFFFFFFFFFFFFFFFFFFFFFFFFFFFFFFFFFFFFFFFFFFFFFFFFFF NOT AND EQ DUP1 PUSH2 0x2821 JUMPI POP PUSH2 0x2820 DUP3 PUSH2 0x3078 JUMP JUMPDEST JUMPDEST SWAP1 POP SWAP2 SWAP1 POP JUMP JUMPDEST PUSH0 PUSH2 0x2832 DUP3 PUSH2 0x30F1 JUMP JUMPDEST SWAP1 POP SWAP2 SWAP1 POP JUMP JUMPDEST PUSH0 PUSH2 0x2842 PUSH2 0x1930 JUMP JUMPDEST SWAP1 POP DUP2 DUP1 PUSH2 0x287C JUMPI POP PUSH0 PUSH20 0xFFFFFFFFFFFFFFFFFFFFFFFFFFFFFFFFFFFFFFFF AND DUP4 PUSH20 0xFFFFFFFFFFFFFFFFFFFFFFFFFFFFFFFFFFFFFFFF AND EQ ISZERO JUMPDEST ISZERO PUSH2 0x29AE JUMPI PUSH0 PUSH2 0x288B DUP6 PUSH2 0x1957 JUMP JUMPDEST SWAP1 POP PUSH0 PUSH20 0xFFFFFFFFFFFFFFFFFFFFFFFFFFFFFFFFFFFFFFFF AND DUP5 PUSH20 0xFFFFFFFFFFFFFFFFFFFFFFFFFFFFFFFFFFFFFFFF AND EQ ISZERO DUP1 ISZERO PUSH2 0x28F5 JUMPI POP DUP4 PUSH20 0xFFFFFFFFFFFFFFFFFFFFFFFFFFFFFFFFFFFFFFFF AND DUP2 PUSH20 0xFFFFFFFFFFFFFFFFFFFFFFFFFFFFFFFFFFFFFFFF AND EQ ISZERO JUMPDEST DUP1 ISZERO PUSH2 0x2908 JUMPI POP PUSH2 0x2906 DUP2 DUP6 PUSH2 0x17B0 JUMP JUMPDEST ISZERO JUMPDEST ISZERO PUSH2 0x294A JUMPI DUP4 PUSH1 0x40 MLOAD PUSH32 0xA9FBF51F00000000000000000000000000000000000000000000000000000000 DUP2 MSTORE PUSH1 0x4 ADD PUSH2 0x2941 SWAP2 SWAP1 PUSH2 0x4787 JUMP JUMPDEST PUSH1 0x40 MLOAD DUP1 SWAP2 SUB SWAP1 REVERT JUMPDEST DUP3 ISZERO PUSH2 0x29AC JUMPI DUP5 DUP7 PUSH20 0xFFFFFFFFFFFFFFFFFFFFFFFFFFFFFFFFFFFFFFFF AND DUP3 PUSH20 0xFFFFFFFFFFFFFFFFFFFFFFFFFFFFFFFFFFFFFFFF AND PUSH32 0x8C5BE1E5EBEC7D5BD14F71427D1E84F3DD0314C0F7B2291E5B200AC8C7C3B925 PUSH1 0x40 MLOAD PUSH1 0x40 MLOAD DUP1 SWAP2 SUB SWAP1 LOG4 JUMPDEST POP JUMPDEST DUP5 DUP2 PUSH1 0x4 ADD PUSH0 DUP7 DUP2 MSTORE PUSH1 0x20 ADD SWAP1 DUP2 MSTORE PUSH1 0x20 ADD PUSH0 KECCAK256 PUSH0 PUSH2 0x100 EXP DUP2 SLOAD DUP2 PUSH20 0xFFFFFFFFFFFFFFFFFFFFFFFFFFFFFFFFFFFFFFFF MUL NOT AND SWAP1 DUP4 PUSH20 0xFFFFFFFFFFFFFFFFFFFFFFFFFFFFFFFFFFFFFFFF AND MUL OR SWAP1 SSTORE POP POP POP POP POP POP JUMP JUMPDEST PUSH0 PUSH2 0x2A0F PUSH2 0x2DC3 JUMP JUMPDEST PUSH2 0x2A1A DUP5 DUP5 DUP5 PUSH2 0x3138 JUMP JUMPDEST SWAP1 POP SWAP4 SWAP3 POP POP POP JUMP JUMPDEST PUSH2 0x2A2D DUP3 DUP3 PUSH2 0x130B JUMP JUMPDEST PUSH2 0x2A70 JUMPI DUP1 DUP3 PUSH1 0x40 MLOAD PUSH32 0xE2517D3F00000000000000000000000000000000000000000000000000000000 DUP2 MSTORE PUSH1 0x4 ADD PUSH2 0x2A67 SWAP3 SWAP2 SWAP1 PUSH2 0x55F1 JUMP JUMPDEST PUSH1 0x40 MLOAD DUP1 SWAP2 SUB SWAP1 REVERT JUMPDEST POP POP JUMP JUMPDEST PUSH0 DUP1 PUSH2 0x2A7E PUSH2 0x1A79 JUMP JUMPDEST SWAP1 POP PUSH2 0x2A8A DUP5 DUP5 PUSH2 0x130B JUMP JUMPDEST PUSH2 0x2B61 JUMPI PUSH1 0x1 DUP2 PUSH0 ADD PUSH0 DUP7 DUP2 MSTORE PUSH1 0x20 ADD SWAP1 DUP2 MSTORE PUSH1 0x20 ADD PUSH0 KECCAK256 PUSH0 ADD PUSH0 DUP6 PUSH20 0xFFFFFFFFFFFFFFFFFFFFFFFFFFFFFFFFFFFFFFFF AND PUSH20 0xFFFFFFFFFFFFFFFFFFFFFFFFFFFFFFFFFFFFFFFF AND DUP2 MSTORE PUSH1 0x20 ADD SWAP1 DUP2 MSTORE PUSH1 0x20 ADD PUSH0 KECCAK256 PUSH0 PUSH2 0x100 EXP DUP2 SLOAD DUP2 PUSH1 0xFF MUL NOT AND SWAP1 DUP4 ISZERO ISZERO MUL OR SWAP1 SSTORE POP PUSH2 0x2AFD PUSH2 0x1A24 JUMP JUMPDEST PUSH20 0xFFFFFFFFFFFFFFFFFFFFFFFFFFFFFFFFFFFFFFFF AND DUP4 PUSH20 0xFFFFFFFFFFFFFFFFFFFFFFFFFFFFFFFFFFFFFFFF AND DUP6 PUSH32 0x2F8788117E7EFF1D82E926EC794901D17C78024A50270940304540A733656F0D PUSH1 0x40 MLOAD PUSH1 0x40 MLOAD DUP1 SWAP2 SUB SWAP1 LOG4 PUSH1 0x1 SWAP2 POP POP PUSH2 0x2B66 JUMP JUMPDEST PUSH0 SWAP2 POP POP JUMPDEST SWAP3 SWAP2 POP POP JUMP JUMPDEST PUSH0 PUSH2 0x2B91 DUP4 PUSH0 ADD DUP4 PUSH20 0xFFFFFFFFFFFFFFFFFFFFFFFFFFFFFFFFFFFFFFFF AND PUSH0 SHL PUSH2 0x3252 JUMP JUMPDEST SWAP1 POP SWAP3 SWAP2 POP POP JUMP JUMPDEST PUSH0 DUP1 PUSH2 0x2BA3 PUSH2 0x1A79 JUMP JUMPDEST SWAP1 POP PUSH2 0x2BAF DUP5 DUP5 PUSH2 0x130B JUMP JUMPDEST ISZERO PUSH2 0x2C86 JUMPI PUSH0 DUP2 PUSH0 ADD PUSH0 DUP7 DUP2 MSTORE PUSH1 0x20 ADD SWAP1 DUP2 MSTORE PUSH1 0x20 ADD PUSH0 KECCAK256 PUSH0 ADD PUSH0 DUP6 PUSH20 0xFFFFFFFFFFFFFFFFFFFFFFFFFFFFFFFFFFFFFFFF AND PUSH20 0xFFFFFFFFFFFFFFFFFFFFFFFFFFFFFFFFFFFFFFFF AND DUP2 MSTORE PUSH1 0x20 ADD SWAP1 DUP2 MSTORE PUSH1 0x20 ADD PUSH0 KECCAK256 PUSH0 PUSH2 0x100 EXP DUP2 SLOAD DUP2 PUSH1 0xFF MUL NOT AND SWAP1 DUP4 ISZERO ISZERO MUL OR SWAP1 SSTORE POP PUSH2 0x2C22 PUSH2 0x1A24 JUMP JUMPDEST PUSH20 0xFFFFFFFFFFFFFFFFFFFFFFFFFFFFFFFFFFFFFFFF AND DUP4 PUSH20 0xFFFFFFFFFFFFFFFFFFFFFFFFFFFFFFFFFFFFFFFF AND DUP6 PUSH32 0xF6391F5C32D9C69D2A47EA670B442974B53935D1EDC7FD64EB21E047A839171B PUSH1 0x40 MLOAD PUSH1 0x40 MLOAD DUP1 SWAP2 SUB SWAP1 LOG4 PUSH1 0x1 SWAP2 POP POP PUSH2 0x2C8B JUMP JUMPDEST PUSH0 SWAP2 POP POP JUMPDEST SWAP3 SWAP2 POP POP JUMP JUMPDEST PUSH0 PUSH2 0x2CB6 DUP4 PUSH0 ADD DUP4 PUSH20 0xFFFFFFFFFFFFFFFFFFFFFFFFFFFFFFFFFFFFFFFF AND PUSH0 SHL PUSH2 0x32B9 JUMP JUMPDEST SWAP1 POP SWAP3 SWAP2 POP POP JUMP JUMPDEST PUSH2 0x2CC6 PUSH2 0xFE8 JUMP JUMPDEST PUSH2 0x2CFC JUMPI PUSH1 0x40 MLOAD PUSH32 0x8DFC202B00000000000000000000000000000000000000000000000000000000 DUP2 MSTORE PUSH1 0x4 ADD PUSH1 0x40 MLOAD DUP1 SWAP2 SUB SWAP1 REVERT JUMPDEST JUMP JUMPDEST PUSH0 PUSH2 0x2D2A PUSH32 0x360894A13BA1A3210667C828492DB98DCA3E2076CC3735A920A3CA505D382BBC PUSH0 SHL PUSH2 0x33B5 JUMP JUMPDEST PUSH0 ADD PUSH0 SWAP1 SLOAD SWAP1 PUSH2 0x100 EXP SWAP1 DIV PUSH20 0xFFFFFFFFFFFFFFFFFFFFFFFFFFFFFFFFFFFFFFFF AND SWAP1 POP SWAP1 JUMP JUMPDEST PUSH2 0x2D5A DUP3 PUSH2 0x33BE JUMP JUMPDEST DUP2 PUSH20 0xFFFFFFFFFFFFFFFFFFFFFFFFFFFFFFFFFFFFFFFF AND PUSH32 0xBC7CD75A20EE27FD9ADEBAB32041F755214DBC6BFFA90CC0225B39DA2E5C2D3B PUSH1 0x40 MLOAD PUSH1 0x40 MLOAD DUP1 SWAP2 SUB SWAP1 LOG2 PUSH0 DUP2 MLOAD GT ISZERO PUSH2 0x2DB6 JUMPI PUSH2 0x2DB0 DUP3 DUP3 PUSH2 0x3487 JUMP JUMPDEST POP PUSH2 0x2DBF JUMP JUMPDEST PUSH2 0x2DBE PUSH2 0x3507 JUMP JUMPDEST JUMPDEST POP POP JUMP JUMPDEST PUSH2 0x2DCB PUSH2 0xFE8 JUMP JUMPDEST ISZERO PUSH2 0x2E02 JUMPI PUSH1 0x40 MLOAD PUSH32 0xD93C066500000000000000000000000000000000000000000000000000000000 DUP2 MSTORE PUSH1 0x4 ADD PUSH1 0x40 MLOAD DUP1 SWAP2 SUB SWAP1 REVERT JUMPDEST JUMP JUMPDEST PUSH0 DUP3 PUSH0 ADD DUP3 DUP2 SLOAD DUP2 LT PUSH2 0x2E1A JUMPI PUSH2 0x2E19 PUSH2 0x50CD JUMP JUMPDEST JUMPDEST SWAP1 PUSH0 MSTORE PUSH1 0x20 PUSH0 KECCAK256 ADD SLOAD SWAP1 POP SWAP3 SWAP2 POP POP JUMP JUMPDEST PUSH2 0x2E33 PUSH2 0x3543 JUMP JUMPDEST PUSH2 0x2E69 JUMPI PUSH1 0x40 MLOAD PUSH32 0xD7E6BCF800000000000000000000000000000000000000000000000000000000 DUP2 MSTORE PUSH1 0x4 ADD PUSH1 0x40 MLOAD DUP1 SWAP2 SUB SWAP1 REVERT JUMPDEST JUMP JUMPDEST PUSH2 0x2E73 PUSH2 0x2E2B JUMP JUMPDEST PUSH0 PUSH2 0x2E7C PUSH2 0x1930 JUMP JUMPDEST SWAP1 POP DUP3 DUP2 PUSH0 ADD SWAP1 DUP2 PUSH2 0x2E8E SWAP2 SWAP1 PUSH2 0x5297 JUMP JUMPDEST POP DUP2 DUP2 PUSH1 0x1 ADD SWAP1 DUP2 PUSH2 0x2EA0 SWAP2 SWAP1 PUSH2 0x5297 JUMP JUMPDEST POP POP POP POP JUMP JUMPDEST PUSH2 0x2EAE PUSH2 0x2E2B JUMP JUMPDEST PUSH0 PUSH2 0x2EB7 PUSH2 0x1F0F JUMP JUMPDEST SWAP1 POP PUSH0 DUP2 PUSH0 ADD PUSH0 PUSH2 0x100 EXP DUP2 SLOAD DUP2 PUSH1 0xFF MUL NOT AND SWAP1 DUP4 ISZERO ISZERO MUL OR SWAP1 SSTORE POP POP JUMP JUMPDEST PUSH2 0x2EDE PUSH2 0x2E2B JUMP JUMPDEST PUSH0 PUSH20 0xFFFFFFFFFFFFFFFFFFFFFFFFFFFFFFFFFFFFFFFF AND DUP2 PUSH20 0xFFFFFFFFFFFFFFFFFFFFFFFFFFFFFFFFFFFFFFFF AND SUB PUSH2 0x2F4E JUMPI PUSH0 PUSH1 0x40 MLOAD PUSH32 0x1E4FBDF700000000000000000000000000000000000000000000000000000000 DUP2 MSTORE PUSH1 0x4 ADD PUSH2 0x2F45 SWAP2 SWAP1 PUSH2 0x4787 JUMP JUMPDEST PUSH1 0x40 MLOAD DUP1 SWAP2 SUB SWAP1 REVERT JUMPDEST PUSH2 0x2F57 DUP2 PUSH2 0x1F36 JUMP JUMPDEST POP JUMP JUMPDEST PUSH2 0x2F62 PUSH2 0x2E2B JUMP JUMPDEST PUSH0 PUSH2 0x2F6B PUSH2 0x2076 JUMP JUMPDEST SWAP1 POP DUP3 DUP2 PUSH1 0x2 ADD SWAP1 DUP2 PUSH2 0x2F7E SWAP2 SWAP1 PUSH2 0x5297 JUMP JUMPDEST POP DUP2 DUP2 PUSH1 0x3 ADD SWAP1 DUP2 PUSH2 0x2F90 SWAP2 SWAP1 PUSH2 0x5297 JUMP JUMPDEST POP PUSH0 DUP1 SHL DUP2 PUSH0 ADD DUP2 SWAP1 SSTORE POP PUSH0 DUP1 SHL DUP2 PUSH1 0x1 ADD DUP2 SWAP1 SSTORE POP POP POP POP JUMP JUMPDEST PUSH0 PUSH32 0x542A41881EE128A365A727B282C86FA859579490B9BB45AAB8503648C8E7900 SWAP1 POP SWAP1 JUMP JUMPDEST PUSH1 0x60 PUSH1 0x40 MLOAD DUP1 PUSH1 0x20 ADD PUSH1 0x40 MSTORE DUP1 PUSH0 DUP2 MSTORE POP SWAP1 POP SWAP1 JUMP JUMPDEST PUSH1 0x60 PUSH2 0x2FF3 DUP3 PUSH2 0x1957 JUMP JUMPDEST POP PUSH0 PUSH2 0x2FFD PUSH2 0x2FD2 JUMP JUMPDEST SWAP1 POP PUSH0 DUP2 MLOAD GT PUSH2 0x301B JUMPI PUSH1 0x40 MLOAD DUP1 PUSH1 0x20 ADD PUSH1 0x40 MSTORE DUP1 PUSH0 DUP2 MSTORE POP PUSH2 0x3046 JUMP JUMPDEST DUP1 PUSH2 0x3025 DUP5 PUSH2 0x3561 JUMP JUMPDEST PUSH1 0x40 MLOAD PUSH1 0x20 ADD PUSH2 0x3036 SWAP3 SWAP2 SWAP1 PUSH2 0x55CE JUMP JUMPDEST PUSH1 0x40 MLOAD PUSH1 0x20 DUP2 DUP4 SUB SUB DUP2 MSTORE SWAP1 PUSH1 0x40 MSTORE JUMPDEST SWAP2 POP POP SWAP2 SWAP1 POP JUMP JUMPDEST PUSH0 DUP2 PUSH0 ADD DUP1 SLOAD SWAP1 POP SWAP1 POP SWAP2 SWAP1 POP JUMP JUMPDEST PUSH2 0x3067 DUP4 DUP4 PUSH2 0x362B JUMP JUMPDEST PUSH2 0x3073 PUSH0 DUP5 DUP5 DUP5 PUSH2 0x23B5 JUMP JUMPDEST POP POP POP JUMP JUMPDEST PUSH0 PUSH32 0x2A55205A00000000000000000000000000000000000000000000000000000000 PUSH28 0xFFFFFFFFFFFFFFFFFFFFFFFFFFFFFFFFFFFFFFFFFFFFFFFFFFFFFFFF NOT AND DUP3 PUSH28 0xFFFFFFFFFFFFFFFFFFFFFFFFFFFFFFFFFFFFFFFFFFFFFFFFFFFFFFFF NOT AND EQ DUP1 PUSH2 0x30EA JUMPI POP PUSH2 0x30E9 DUP3 PUSH2 0x371E JUMP JUMPDEST JUMPDEST SWAP1 POP SWAP2 SWAP1 POP JUMP JUMPDEST PUSH0 DUP1 PUSH2 0x30FB PUSH2 0x1930 JUMP JUMPDEST SWAP1 POP DUP1 PUSH1 0x2 ADD PUSH0 DUP5 DUP2 MSTORE PUSH1 0x20 ADD SWAP1 DUP2 MSTORE PUSH1 0x20 ADD PUSH0 KECCAK256 PUSH0 SWAP1 SLOAD SWAP1 PUSH2 0x100 EXP SWAP1 DIV PUSH20 0xFFFFFFFFFFFFFFFFFFFFFFFFFFFFFFFFFFFFFFFF AND SWAP2 POP POP SWAP2 SWAP1 POP JUMP JUMPDEST PUSH0 DUP1 PUSH2 0x3145 DUP6 DUP6 DUP6 PUSH2 0x3797 JUMP JUMPDEST SWAP1 POP PUSH0 PUSH20 0xFFFFFFFFFFFFFFFFFFFFFFFFFFFFFFFFFFFFFFFF AND DUP2 PUSH20 0xFFFFFFFFFFFFFFFFFFFFFFFFFFFFFFFFFFFFFFFF AND SUB PUSH2 0x3188 JUMPI PUSH2 0x3183 DUP5 PUSH2 0x38CF JUMP JUMPDEST PUSH2 0x31C7 JUMP JUMPDEST DUP5 PUSH20 0xFFFFFFFFFFFFFFFFFFFFFFFFFFFFFFFFFFFFFFFF AND DUP2 PUSH20 0xFFFFFFFFFFFFFFFFFFFFFFFFFFFFFFFFFFFFFFFF AND EQ PUSH2 0x31C6 JUMPI PUSH2 0x31C5 DUP2 DUP6 PUSH2 0x3925 JUMP JUMPDEST JUMPDEST JUMPDEST PUSH0 PUSH20 0xFFFFFFFFFFFFFFFFFFFFFFFFFFFFFFFFFFFFFFFF AND DUP6 PUSH20 0xFFFFFFFFFFFFFFFFFFFFFFFFFFFFFFFFFFFFFFFF AND SUB PUSH2 0x3208 JUMPI PUSH2 0x3203 DUP5 PUSH2 0x3A84 JUMP JUMPDEST PUSH2 0x3247 JUMP JUMPDEST DUP5 PUSH20 0xFFFFFFFFFFFFFFFFFFFFFFFFFFFFFFFFFFFFFFFF AND DUP2 PUSH20 0xFFFFFFFFFFFFFFFFFFFFFFFFFFFFFFFFFFFFFFFF AND EQ PUSH2 0x3246 JUMPI PUSH2 0x3245 DUP6 DUP6 PUSH2 0x3B5E JUMP JUMPDEST JUMPDEST JUMPDEST DUP1 SWAP2 POP POP SWAP4 SWAP3 POP POP POP JUMP JUMPDEST PUSH0 PUSH2 0x325D DUP4 DUP4 PUSH2 0x3BF1 JUMP JUMPDEST PUSH2 0x32AF JUMPI DUP3 PUSH0 ADD DUP3 SWAP1 DUP1 PUSH1 0x1 DUP2 SLOAD ADD DUP1 DUP3 SSTORE DUP1 SWAP2 POP POP PUSH1 0x1 SWAP1 SUB SWAP1 PUSH0 MSTORE PUSH1 0x20 PUSH0 KECCAK256 ADD PUSH0 SWAP1 SWAP2 SWAP1 SWAP2 SWAP1 SWAP2 POP SSTORE DUP3 PUSH0 ADD DUP1 SLOAD SWAP1 POP DUP4 PUSH1 0x1 ADD PUSH0 DUP5 DUP2 MSTORE PUSH1 0x20 ADD SWAP1 DUP2 MSTORE PUSH1 0x20 ADD PUSH0 KECCAK256 DUP2 SWAP1 SSTORE POP PUSH1 0x1 SWAP1 POP PUSH2 0x32B3 JUMP JUMPDEST PUSH0 SWAP1 POP JUMPDEST SWAP3 SWAP2 POP POP JUMP JUMPDEST PUSH0 DUP1 DUP4 PUSH1 0x1 ADD PUSH0 DUP5 DUP2 MSTORE PUSH1 0x20 ADD SWAP1 DUP2 MSTORE PUSH1 0x20 ADD PUSH0 KECCAK256 SLOAD SWAP1 POP PUSH0 DUP2 EQ PUSH2 0x33AA JUMPI PUSH0 PUSH1 0x1 DUP3 PUSH2 0x32E6 SWAP2 SWAP1 PUSH2 0x5618 JUMP JUMPDEST SWAP1 POP PUSH0 PUSH1 0x1 DUP7 PUSH0 ADD DUP1 SLOAD SWAP1 POP PUSH2 0x32FC SWAP2 SWAP1 PUSH2 0x5618 JUMP JUMPDEST SWAP1 POP DUP1 DUP3 EQ PUSH2 0x3362 JUMPI PUSH0 DUP7 PUSH0 ADD DUP3 DUP2 SLOAD DUP2 LT PUSH2 0x331B JUMPI PUSH2 0x331A PUSH2 0x50CD JUMP JUMPDEST JUMPDEST SWAP1 PUSH0 MSTORE PUSH1 0x20 PUSH0 KECCAK256 ADD SLOAD SWAP1 POP DUP1 DUP8 PUSH0 ADD DUP5 DUP2 SLOAD DUP2 LT PUSH2 0x333C JUMPI PUSH2 0x333B PUSH2 0x50CD JUMP JUMPDEST JUMPDEST SWAP1 PUSH0 MSTORE PUSH1 0x20 PUSH0 KECCAK256 ADD DUP2 SWAP1 SSTORE POP DUP4 DUP8 PUSH1 0x1 ADD PUSH0 DUP4 DUP2 MSTORE PUSH1 0x20 ADD SWAP1 DUP2 MSTORE PUSH1 0x20 ADD PUSH0 KECCAK256 DUP2 SWAP1 SSTORE POP POP JUMPDEST DUP6 PUSH0 ADD DUP1 SLOAD DUP1 PUSH2 0x3375 JUMPI PUSH2 0x3374 PUSH2 0x564B JUMP JUMPDEST JUMPDEST PUSH1 0x1 SWAP1 SUB DUP2 DUP2 SWAP1 PUSH0 MSTORE PUSH1 0x20 PUSH0 KECCAK256 ADD PUSH0 SWAP1 SSTORE SWAP1 SSTORE DUP6 PUSH1 0x1 ADD PUSH0 DUP7 DUP2 MSTORE PUSH1 0x20 ADD SWAP1 DUP2 MSTORE PUSH1 0x20 ADD PUSH0 KECCAK256 PUSH0 SWAP1 SSTORE PUSH1 0x1 SWAP4 POP POP POP POP PUSH2 0x33AF JUMP JUMPDEST PUSH0 SWAP2 POP POP JUMPDEST SWAP3 SWAP2 POP POP JUMP JUMPDEST PUSH0 DUP2 SWAP1 POP SWAP2 SWAP1 POP JUMP JUMPDEST PUSH0 DUP2 PUSH20 0xFFFFFFFFFFFFFFFFFFFFFFFFFFFFFFFFFFFFFFFF AND EXTCODESIZE SUB PUSH2 0x3419 JUMPI DUP1 PUSH1 0x40 MLOAD PUSH32 0x4C9C8CE300000000000000000000000000000000000000000000000000000000 DUP2 MSTORE PUSH1 0x4 ADD PUSH2 0x3410 SWAP2 SWAP1 PUSH2 0x4787 JUMP JUMPDEST PUSH1 0x40 MLOAD DUP1 SWAP2 SUB SWAP1 REVERT JUMPDEST DUP1 PUSH2 0x3445 PUSH32 0x360894A13BA1A3210667C828492DB98DCA3E2076CC3735A920A3CA505D382BBC PUSH0 SHL PUSH2 0x33B5 JUMP JUMPDEST PUSH0 ADD PUSH0 PUSH2 0x100 EXP DUP2 SLOAD DUP2 PUSH20 0xFFFFFFFFFFFFFFFFFFFFFFFFFFFFFFFFFFFFFFFF MUL NOT AND SWAP1 DUP4 PUSH20 0xFFFFFFFFFFFFFFFFFFFFFFFFFFFFFFFFFFFFFFFF AND MUL OR SWAP1 SSTORE POP POP JUMP JUMPDEST PUSH1 0x60 PUSH0 DUP1 DUP5 PUSH20 0xFFFFFFFFFFFFFFFFFFFFFFFFFFFFFFFFFFFFFFFF AND DUP5 PUSH1 0x40 MLOAD PUSH2 0x34B0 SWAP2 SWAP1 PUSH2 0x56B2 JUMP JUMPDEST PUSH0 PUSH1 0x40 MLOAD DUP1 DUP4 SUB DUP2 DUP6 GAS DELEGATECALL SWAP2 POP POP RETURNDATASIZE DUP1 PUSH0 DUP2 EQ PUSH2 0x34E8 JUMPI PUSH1 0x40 MLOAD SWAP2 POP PUSH1 0x1F NOT PUSH1 0x3F RETURNDATASIZE ADD AND DUP3 ADD PUSH1 0x40 MSTORE RETURNDATASIZE DUP3 MSTORE RETURNDATASIZE PUSH0 PUSH1 0x20 DUP5 ADD RETURNDATACOPY PUSH2 0x34ED JUMP JUMPDEST PUSH1 0x60 SWAP2 POP JUMPDEST POP SWAP2 POP SWAP2 POP PUSH2 0x34FD DUP6 DUP4 DUP4 PUSH2 0x3C11 JUMP JUMPDEST SWAP3 POP POP POP SWAP3 SWAP2 POP POP JUMP JUMPDEST PUSH0 CALLVALUE GT ISZERO PUSH2 0x3541 JUMPI PUSH1 0x40 MLOAD PUSH32 0xB398979F00000000000000000000000000000000000000000000000000000000 DUP2 MSTORE PUSH1 0x4 ADD PUSH1 0x40 MLOAD DUP1 SWAP2 SUB SWAP1 REVERT JUMPDEST JUMP JUMPDEST PUSH0 PUSH2 0x354C PUSH2 0x2567 JUMP JUMPDEST PUSH0 ADD PUSH1 0x8 SWAP1 SLOAD SWAP1 PUSH2 0x100 EXP SWAP1 DIV PUSH1 0xFF AND SWAP1 POP SWAP1 JUMP JUMPDEST PUSH1 0x60 PUSH0 PUSH1 0x1 PUSH2 0x356F DUP5 PUSH2 0x3C9E JUMP JUMPDEST ADD SWAP1 POP PUSH0 DUP2 PUSH8 0xFFFFFFFFFFFFFFFF DUP2 GT ISZERO PUSH2 0x358D JUMPI PUSH2 0x358C PUSH2 0x49B1 JUMP JUMPDEST JUMPDEST PUSH1 0x40 MLOAD SWAP1 DUP1 DUP3 MSTORE DUP1 PUSH1 0x1F ADD PUSH1 0x1F NOT AND PUSH1 0x20 ADD DUP3 ADD PUSH1 0x40 MSTORE DUP1 ISZERO PUSH2 0x35BF JUMPI DUP2 PUSH1 0x20 ADD PUSH1 0x1 DUP3 MUL DUP1 CALLDATASIZE DUP4 CALLDATACOPY DUP1 DUP3 ADD SWAP2 POP POP SWAP1 POP JUMPDEST POP SWAP1 POP PUSH0 DUP3 PUSH1 0x20 ADD DUP3 ADD SWAP1 POP JUMPDEST PUSH1 0x1 ISZERO PUSH2 0x3620 JUMPI DUP1 DUP1 PUSH1 0x1 SWAP1 SUB SWAP2 POP POP PUSH32 0x3031323334353637383961626364656600000000000000000000000000000000 PUSH1 0xA DUP7 MOD BYTE DUP2 MSTORE8 PUSH1 0xA DUP6 DUP2 PUSH2 0x3615 JUMPI PUSH2 0x3614 PUSH2 0x5070 JUMP JUMPDEST JUMPDEST DIV SWAP5 POP PUSH0 DUP6 SUB PUSH2 0x35CC JUMPI JUMPDEST DUP2 SWAP4 POP POP POP POP SWAP2 SWAP1 POP JUMP JUMPDEST PUSH0 PUSH20 0xFFFFFFFFFFFFFFFFFFFFFFFFFFFFFFFFFFFFFFFF AND DUP3 PUSH20 0xFFFFFFFFFFFFFFFFFFFFFFFFFFFFFFFFFFFFFFFF AND SUB PUSH2 0x369B JUMPI PUSH0 PUSH1 0x40 MLOAD PUSH32 0x64A0AE9200000000000000000000000000000000000000000000000000000000 DUP2 MSTORE PUSH1 0x4 ADD PUSH2 0x3692 SWAP2 SWAP1 PUSH2 0x4787 JUMP JUMPDEST PUSH1 0x40 MLOAD DUP1 SWAP2 SUB SWAP1 REVERT JUMPDEST PUSH0 PUSH2 0x36A7 DUP4 DUP4 PUSH0 PUSH2 0x1A64 JUMP JUMPDEST SWAP1 POP PUSH0 PUSH20 0xFFFFFFFFFFFFFFFFFFFFFFFFFFFFFFFFFFFFFFFF AND DUP2 PUSH20 0xFFFFFFFFFFFFFFFFFFFFFFFFFFFFFFFFFFFFFFFF AND EQ PUSH2 0x3719 JUMPI PUSH0 PUSH1 0x40 MLOAD PUSH32 0x73C6AC6E00000000000000000000000000000000000000000000000000000000 DUP2 MSTORE PUSH1 0x4 ADD PUSH2 0x3710 SWAP2 SWAP1 PUSH2 0x4787 JUMP JUMPDEST PUSH1 0x40 MLOAD DUP1 SWAP2 SUB SWAP1 REVERT JUMPDEST POP POP POP JUMP JUMPDEST PUSH0 PUSH32 0x5A05180F00000000000000000000000000000000000000000000000000000000 PUSH28 0xFFFFFFFFFFFFFFFFFFFFFFFFFFFFFFFFFFFFFFFFFFFFFFFFFFFFFFFF NOT AND DUP3 PUSH28 0xFFFFFFFFFFFFFFFFFFFFFFFFFFFFFFFFFFFFFFFFFFFFFFFFFFFFFFFF NOT AND EQ DUP1 PUSH2 0x3790 JUMPI POP PUSH2 0x378F DUP3 PUSH2 0x3DEF JUMP JUMPDEST JUMPDEST SWAP1 POP SWAP2 SWAP1 POP JUMP JUMPDEST PUSH0 DUP1 PUSH2 0x37A1 PUSH2 0x3ED0 JUMP JUMPDEST SWAP1 POP PUSH0 PUSH2 0x37AF DUP7 DUP7 DUP7 PUSH2 0x3EF7 JUMP JUMPDEST SWAP1 POP PUSH0 PUSH20 0xFFFFFFFFFFFFFFFFFFFFFFFFFFFFFFFFFFFFFFFF AND DUP2 PUSH20 0xFFFFFFFFFFFFFFFFFFFFFFFFFFFFFFFFFFFFFFFF AND EQ DUP1 ISZERO PUSH2 0x3802 JUMPI POP PUSH0 ADDRESS PUSH20 0xFFFFFFFFFFFFFFFFFFFFFFFFFFFFFFFFFFFFFFFF AND EXTCODESIZE EQ JUMPDEST ISZERO PUSH2 0x3839 JUMPI PUSH1 0x40 MLOAD PUSH32 0xAD89505200000000000000000000000000000000000000000000000000000000 DUP2 MSTORE PUSH1 0x4 ADD PUSH1 0x40 MLOAD DUP1 SWAP2 SUB SWAP1 REVERT JUMPDEST PUSH0 PUSH20 0xFFFFFFFFFFFFFFFFFFFFFFFFFFFFFFFFFFFFFFFF AND DUP7 PUSH20 0xFFFFFFFFFFFFFFFFFFFFFFFFFFFFFFFFFFFFFFFF AND EQ DUP1 ISZERO PUSH2 0x3888 JUMPI POP PUSH2 0x3877 PUSH2 0x4114 JUMP JUMPDEST PUSH12 0xFFFFFFFFFFFFFFFFFFFFFFFF AND DUP6 LT JUMPDEST DUP1 ISZERO PUSH2 0x38A7 JUMPI POP PUSH2 0x38A5 DUP6 DUP4 PUSH1 0x1 ADD PUSH2 0x415A SWAP1 SWAP2 SWAP1 PUSH4 0xFFFFFFFF AND JUMP JUMPDEST ISZERO JUMPDEST ISZERO PUSH2 0x38C3 JUMPI PUSH2 0x38C2 DUP6 DUP4 PUSH1 0x1 ADD PUSH2 0x4190 SWAP1 SWAP2 SWAP1 PUSH4 0xFFFFFFFF AND JUMP JUMPDEST JUMPDEST DUP1 SWAP3 POP POP POP SWAP4 SWAP3 POP POP POP JUMP JUMPDEST PUSH0 PUSH2 0x38D8 PUSH2 0x1A3D JUMP JUMPDEST SWAP1 POP DUP1 PUSH1 0x2 ADD DUP1 SLOAD SWAP1 POP DUP2 PUSH1 0x3 ADD PUSH0 DUP5 DUP2 MSTORE PUSH1 0x20 ADD SWAP1 DUP2 MSTORE PUSH1 0x20 ADD PUSH0 KECCAK256 DUP2 SWAP1 SSTORE POP DUP1 PUSH1 0x2 ADD DUP3 SWAP1 DUP1 PUSH1 0x1 DUP2 SLOAD ADD DUP1 DUP3 SSTORE DUP1 SWAP2 POP POP PUSH1 0x1 SWAP1 SUB SWAP1 PUSH0 MSTORE PUSH1 0x20 PUSH0 KECCAK256 ADD PUSH0 SWAP1 SWAP2 SWAP1 SWAP2 SWAP1 SWAP2 POP SSTORE POP POP JUMP JUMPDEST PUSH0 PUSH2 0x392E PUSH2 0x1A3D JUMP JUMPDEST SWAP1 POP PUSH0 PUSH2 0x393A DUP5 PUSH2 0x101B JUMP JUMPDEST SWAP1 POP PUSH0 DUP3 PUSH1 0x1 ADD PUSH0 DUP6 DUP2 MSTORE PUSH1 0x20 ADD SWAP1 DUP2 MSTORE PUSH1 0x20 ADD PUSH0 KECCAK256 SLOAD SWAP1 POP DUP2 DUP2 EQ PUSH2 0x3A17 JUMPI PUSH0 DUP4 PUSH0 ADD PUSH0 DUP8 PUSH20 0xFFFFFFFFFFFFFFFFFFFFFFFFFFFFFFFFFFFFFFFF AND PUSH20 0xFFFFFFFFFFFFFFFFFFFFFFFFFFFFFFFFFFFFFFFF AND DUP2 MSTORE PUSH1 0x20 ADD SWAP1 DUP2 MSTORE PUSH1 0x20 ADD PUSH0 KECCAK256 PUSH0 DUP5 DUP2 MSTORE PUSH1 0x20 ADD SWAP1 DUP2 MSTORE PUSH1 0x20 ADD PUSH0 KECCAK256 SLOAD SWAP1 POP DUP1 DUP5 PUSH0 ADD PUSH0 DUP9 PUSH20 0xFFFFFFFFFFFFFFFFFFFFFFFFFFFFFFFFFFFFFFFF AND PUSH20 0xFFFFFFFFFFFFFFFFFFFFFFFFFFFFFFFFFFFFFFFF AND DUP2 MSTORE PUSH1 0x20 ADD SWAP1 DUP2 MSTORE PUSH1 0x20 ADD PUSH0 KECCAK256 PUSH0 DUP5 DUP2 MSTORE PUSH1 0x20 ADD SWAP1 DUP2 MSTORE PUSH1 0x20 ADD PUSH0 KECCAK256 DUP2 SWAP1 SSTORE POP DUP2 DUP5 PUSH1 0x1 ADD PUSH0 DUP4 DUP2 MSTORE PUSH1 0x20 ADD SWAP1 DUP2 MSTORE PUSH1 0x20 ADD PUSH0 KECCAK256 DUP2 SWAP1 SSTORE POP POP JUMPDEST DUP3 PUSH1 0x1 ADD PUSH0 DUP6 DUP2 MSTORE PUSH1 0x20 ADD SWAP1 DUP2 MSTORE PUSH1 0x20 ADD PUSH0 KECCAK256 PUSH0 SWAP1 SSTORE DUP3 PUSH0 ADD PUSH0 DUP7 PUSH20 0xFFFFFFFFFFFFFFFFFFFFFFFFFFFFFFFFFFFFFFFF AND PUSH20 0xFFFFFFFFFFFFFFFFFFFFFFFFFFFFFFFFFFFFFFFF AND DUP2 MSTORE PUSH1 0x20 ADD SWAP1 DUP2 MSTORE PUSH1 0x20 ADD PUSH0 KECCAK256 PUSH0 DUP4 DUP2 MSTORE PUSH1 0x20 ADD SWAP1 DUP2 MSTORE PUSH1 0x20 ADD PUSH0 KECCAK256 PUSH0 SWAP1 SSTORE POP POP POP POP POP JUMP JUMPDEST PUSH0 PUSH2 0x3A8D PUSH2 0x1A3D JUMP JUMPDEST SWAP1 POP PUSH0 PUSH1 0x1 DUP3 PUSH1 0x2 ADD DUP1 SLOAD SWAP1 POP PUSH2 0x3AA4 SWAP2 SWAP1 PUSH2 0x5618 JUMP JUMPDEST SWAP1 POP PUSH0 DUP3 PUSH1 0x3 ADD PUSH0 DUP6 DUP2 MSTORE PUSH1 0x20 ADD SWAP1 DUP2 MSTORE PUSH1 0x20 ADD PUSH0 KECCAK256 SLOAD SWAP1 POP PUSH0 DUP4 PUSH1 0x2 ADD DUP4 DUP2 SLOAD DUP2 LT PUSH2 0x3AD4 JUMPI PUSH2 0x3AD3 PUSH2 0x50CD JUMP JUMPDEST JUMPDEST SWAP1 PUSH0 MSTORE PUSH1 0x20 PUSH0 KECCAK256 ADD SLOAD SWAP1 POP DUP1 DUP5 PUSH1 0x2 ADD DUP4 DUP2 SLOAD DUP2 LT PUSH2 0x3AF6 JUMPI PUSH2 0x3AF5 PUSH2 0x50CD JUMP JUMPDEST JUMPDEST SWAP1 PUSH0 MSTORE PUSH1 0x20 PUSH0 KECCAK256 ADD DUP2 SWAP1 SSTORE POP DUP2 DUP5 PUSH1 0x3 ADD PUSH0 DUP4 DUP2 MSTORE PUSH1 0x20 ADD SWAP1 DUP2 MSTORE PUSH1 0x20 ADD PUSH0 KECCAK256 DUP2 SWAP1 SSTORE POP DUP4 PUSH1 0x3 ADD PUSH0 DUP7 DUP2 MSTORE PUSH1 0x20 ADD SWAP1 DUP2 MSTORE PUSH1 0x20 ADD PUSH0 KECCAK256 PUSH0 SWAP1 SSTORE DUP4 PUSH1 0x2 ADD DUP1 SLOAD DUP1 PUSH2 0x3B44 JUMPI PUSH2 0x3B43 PUSH2 0x564B JUMP JUMPDEST JUMPDEST PUSH1 0x1 SWAP1 SUB DUP2 DUP2 SWAP1 PUSH0 MSTORE PUSH1 0x20 PUSH0 KECCAK256 ADD PUSH0 SWAP1 SSTORE SWAP1 SSTORE POP POP POP POP POP JUMP JUMPDEST PUSH0 PUSH2 0x3B67 PUSH2 0x1A3D JUMP JUMPDEST SWAP1 POP PUSH0 PUSH1 0x1 PUSH2 0x3B75 DUP6 PUSH2 0x101B JUMP JUMPDEST PUSH2 0x3B7F SWAP2 SWAP1 PUSH2 0x5618 JUMP JUMPDEST SWAP1 POP DUP3 DUP3 PUSH0 ADD PUSH0 DUP7 PUSH20 0xFFFFFFFFFFFFFFFFFFFFFFFFFFFFFFFFFFFFFFFF AND PUSH20 0xFFFFFFFFFFFFFFFFFFFFFFFFFFFFFFFFFFFFFFFF AND DUP2 MSTORE PUSH1 0x20 ADD SWAP1 DUP2 MSTORE PUSH1 0x20 ADD PUSH0 KECCAK256 PUSH0 DUP4 DUP2 MSTORE PUSH1 0x20 ADD SWAP1 DUP2 MSTORE PUSH1 0x20 ADD PUSH0 KECCAK256 DUP2 SWAP1 SSTORE POP DUP1 DUP3 PUSH1 0x1 ADD PUSH0 DUP6 DUP2 MSTORE PUSH1 0x20 ADD SWAP1 DUP2 MSTORE PUSH1 0x20 ADD PUSH0 KECCAK256 DUP2 SWAP1 SSTORE POP POP POP POP POP JUMP JUMPDEST PUSH0 DUP1 DUP4 PUSH1 0x1 ADD PUSH0 DUP5 DUP2 MSTORE PUSH1 0x20 ADD SWAP1 DUP2 MSTORE PUSH1 0x20 ADD PUSH0 KECCAK256 SLOAD EQ ISZERO SWAP1 POP SWAP3 SWAP2 POP POP JUMP JUMPDEST PUSH1 0x60 DUP3 PUSH2 0x3C26 JUMPI PUSH2 0x3C21 DUP3 PUSH2 0x41C8 JUMP JUMPDEST PUSH2 0x3C96 JUMP JUMPDEST PUSH0 DUP3 MLOAD EQ DUP1 ISZERO PUSH2 0x3C4C JUMPI POP PUSH0 DUP5 PUSH20 0xFFFFFFFFFFFFFFFFFFFFFFFFFFFFFFFFFFFFFFFF AND EXTCODESIZE EQ JUMPDEST ISZERO PUSH2 0x3C8E JUMPI DUP4 PUSH1 0x40 MLOAD PUSH32 0x9996B31500000000000000000000000000000000000000000000000000000000 DUP2 MSTORE PUSH1 0x4 ADD PUSH2 0x3C85 SWAP2 SWAP1 PUSH2 0x4787 JUMP JUMPDEST PUSH1 0x40 MLOAD DUP1 SWAP2 SUB SWAP1 REVERT JUMPDEST DUP2 SWAP1 POP PUSH2 0x3C97 JUMP JUMPDEST JUMPDEST SWAP4 SWAP3 POP POP POP JUMP JUMPDEST PUSH0 DUP1 PUSH0 SWAP1 POP PUSH27 0x184F03E93FF9F4DAA797ED6E38ED64BF6A1F010000000000000000 DUP4 LT PUSH2 0x3CFA JUMPI PUSH27 0x184F03E93FF9F4DAA797ED6E38ED64BF6A1F010000000000000000 DUP4 DUP2 PUSH2 0x3CF0 JUMPI PUSH2 0x3CEF PUSH2 0x5070 JUMP JUMPDEST JUMPDEST DIV SWAP3 POP PUSH1 0x40 DUP2 ADD SWAP1 POP JUMPDEST PUSH14 0x4EE2D6D415B85ACEF8100000000 DUP4 LT PUSH2 0x3D37 JUMPI PUSH14 0x4EE2D6D415B85ACEF8100000000 DUP4 DUP2 PUSH2 0x3D2D JUMPI PUSH2 0x3D2C PUSH2 0x5070 JUMP JUMPDEST JUMPDEST DIV SWAP3 POP PUSH1 0x20 DUP2 ADD SWAP1 POP JUMPDEST PUSH7 0x2386F26FC10000 DUP4 LT PUSH2 0x3D66 JUMPI PUSH7 0x2386F26FC10000 DUP4 DUP2 PUSH2 0x3D5C JUMPI PUSH2 0x3D5B PUSH2 0x5070 JUMP JUMPDEST JUMPDEST DIV SWAP3 POP PUSH1 0x10 DUP2 ADD SWAP1 POP JUMPDEST PUSH4 0x5F5E100 DUP4 LT PUSH2 0x3D8F JUMPI PUSH4 0x5F5E100 DUP4 DUP2 PUSH2 0x3D85 JUMPI PUSH2 0x3D84 PUSH2 0x5070 JUMP JUMPDEST JUMPDEST DIV SWAP3 POP PUSH1 0x8 DUP2 ADD SWAP1 POP JUMPDEST PUSH2 0x2710 DUP4 LT PUSH2 0x3DB4 JUMPI PUSH2 0x2710 DUP4 DUP2 PUSH2 0x3DAA JUMPI PUSH2 0x3DA9 PUSH2 0x5070 JUMP JUMPDEST JUMPDEST DIV SWAP3 POP PUSH1 0x4 DUP2 ADD SWAP1 POP JUMPDEST PUSH1 0x64 DUP4 LT PUSH2 0x3DD7 JUMPI PUSH1 0x64 DUP4 DUP2 PUSH2 0x3DCD JUMPI PUSH2 0x3DCC PUSH2 0x5070 JUMP JUMPDEST JUMPDEST DIV SWAP3 POP PUSH1 0x2 DUP2 ADD SWAP1 POP JUMPDEST PUSH1 0xA DUP4 LT PUSH2 0x3DE6 JUMPI PUSH1 0x1 DUP2 ADD SWAP1 POP JUMPDEST DUP1 SWAP2 POP POP SWAP2 SWAP1 POP JUMP JUMPDEST PUSH0 PUSH32 0x80AC58CD00000000000000000000000000000000000000000000000000000000 PUSH28 0xFFFFFFFFFFFFFFFFFFFFFFFFFFFFFFFFFFFFFFFFFFFFFFFFFFFFFFFF NOT AND DUP3 PUSH28 0xFFFFFFFFFFFFFFFFFFFFFFFFFFFFFFFFFFFFFFFFFFFFFFFFFFFFFFFF NOT AND EQ DUP1 PUSH2 0x3EB9 JUMPI POP PUSH32 0x5B5E139F00000000000000000000000000000000000000000000000000000000 PUSH28 0xFFFFFFFFFFFFFFFFFFFFFFFFFFFFFFFFFFFFFFFFFFFFFFFFFFFFFFFF NOT AND DUP3 PUSH28 0xFFFFFFFFFFFFFFFFFFFFFFFFFFFFFFFFFFFFFFFFFFFFFFFFFFFFFFFF NOT AND EQ JUMPDEST DUP1 PUSH2 0x3EC9 JUMPI POP PUSH2 0x3EC8 DUP3 PUSH2 0x420C JUMP JUMPDEST JUMPDEST SWAP1 POP SWAP2 SWAP1 POP JUMP JUMPDEST PUSH0 PUSH32 0x24DE1071A22E1E6F709B09CC0DADB696F919B85B456665CD36195DF4BC89FF00 SWAP1 POP SWAP1 JUMP JUMPDEST PUSH0 DUP1 PUSH2 0x3F01 PUSH2 0x1930 JUMP JUMPDEST SWAP1 POP PUSH0 PUSH2 0x3F0D DUP6 PUSH2 0x2828 JUMP JUMPDEST SWAP1 POP PUSH0 PUSH20 0xFFFFFFFFFFFFFFFFFFFFFFFFFFFFFFFFFFFFFFFF AND DUP5 PUSH20 0xFFFFFFFFFFFFFFFFFFFFFFFFFFFFFFFFFFFFFFFF AND EQ PUSH2 0x3F4E JUMPI PUSH2 0x3F4D DUP2 DUP6 DUP8 PUSH2 0x4285 JUMP JUMPDEST JUMPDEST PUSH0 PUSH20 0xFFFFFFFFFFFFFFFFFFFFFFFFFFFFFFFFFFFFFFFF AND DUP2 PUSH20 0xFFFFFFFFFFFFFFFFFFFFFFFFFFFFFFFFFFFFFFFF AND EQ PUSH2 0x3FDB JUMPI PUSH2 0x3F8D PUSH0 DUP7 PUSH0 DUP1 PUSH2 0x2839 JUMP JUMPDEST PUSH1 0x1 DUP3 PUSH1 0x3 ADD PUSH0 DUP4 PUSH20 0xFFFFFFFFFFFFFFFFFFFFFFFFFFFFFFFFFFFFFFFF AND PUSH20 0xFFFFFFFFFFFFFFFFFFFFFFFFFFFFFFFFFFFFFFFF AND DUP2 MSTORE PUSH1 0x20 ADD SWAP1 DUP2 MSTORE PUSH1 0x20 ADD PUSH0 KECCAK256 PUSH0 DUP3 DUP3 SLOAD SUB SWAP3 POP POP DUP2 SWAP1 SSTORE POP JUMPDEST PUSH0 PUSH20 0xFFFFFFFFFFFFFFFFFFFFFFFFFFFFFFFFFFFFFFFF AND DUP7 PUSH20 0xFFFFFFFFFFFFFFFFFFFFFFFFFFFFFFFFFFFFFFFF AND EQ PUSH2 0x405C JUMPI PUSH1 0x1 DUP3 PUSH1 0x3 ADD PUSH0 DUP9 PUSH20 0xFFFFFFFFFFFFFFFFFFFFFFFFFFFFFFFFFFFFFFFF AND PUSH20 0xFFFFFFFFFFFFFFFFFFFFFFFFFFFFFFFFFFFFFFFF AND DUP2 MSTORE PUSH1 0x20 ADD SWAP1 DUP2 MSTORE PUSH1 0x20 ADD PUSH0 KECCAK256 PUSH0 DUP3 DUP3 SLOAD ADD SWAP3 POP POP DUP2 SWAP1 SSTORE POP JUMPDEST DUP6 DUP3 PUSH1 0x2 ADD PUSH0 DUP8 DUP2 MSTORE PUSH1 0x20 ADD SWAP1 DUP2 MSTORE PUSH1 0x20 ADD PUSH0 KECCAK256 PUSH0 PUSH2 0x100 EXP DUP2 SLOAD DUP2 PUSH20 0xFFFFFFFFFFFFFFFFFFFFFFFFFFFFFFFFFFFFFFFF MUL NOT AND SWAP1 DUP4 PUSH20 0xFFFFFFFFFFFFFFFFFFFFFFFFFFFFFFFFFFFFFFFF AND MUL OR SWAP1 SSTORE POP DUP5 DUP7 PUSH20 0xFFFFFFFFFFFFFFFFFFFFFFFFFFFFFFFFFFFFFFFF AND DUP3 PUSH20 0xFFFFFFFFFFFFFFFFFFFFFFFFFFFFFFFFFFFFFFFF AND PUSH32 0xDDF252AD1BE2C89B69C2B068FC378DAA952BA7F163C4A11628F55A4DF523B3EF PUSH1 0x40 MLOAD PUSH1 0x40 MLOAD DUP1 SWAP2 SUB SWAP1 LOG4 DUP1 SWAP3 POP POP POP SWAP4 SWAP3 POP POP POP JUMP JUMPDEST PUSH0 DUP1 PUSH2 0x411E PUSH2 0x3ED0 JUMP JUMPDEST SWAP1 POP PUSH0 DUP1 PUSH2 0x412D DUP4 PUSH0 ADD PUSH2 0x4348 JUMP JUMPDEST POP SWAP2 POP SWAP2 POP DUP2 PUSH2 0x4144 JUMPI PUSH2 0x413F PUSH2 0x443D JUMP JUMPDEST PUSH2 0x4152 JUMP JUMPDEST PUSH1 0x1 DUP2 PUSH2 0x4151 SWAP2 SWAP1 PUSH2 0x56DF JUMP JUMPDEST JUMPDEST SWAP4 POP POP POP POP SWAP1 JUMP JUMPDEST PUSH0 DUP1 PUSH1 0x8 DUP4 SWAP1 SHR SWAP1 POP PUSH0 PUSH1 0xFF DUP5 AND PUSH1 0x1 SWAP1 SHL SWAP1 POP PUSH0 DUP2 DUP7 PUSH0 ADD PUSH0 DUP6 DUP2 MSTORE PUSH1 0x20 ADD SWAP1 DUP2 MSTORE PUSH1 0x20 ADD PUSH0 KECCAK256 SLOAD AND EQ ISZERO SWAP3 POP POP POP SWAP3 SWAP2 POP POP JUMP JUMPDEST PUSH0 PUSH1 0x8 DUP3 SWAP1 SHR SWAP1 POP PUSH0 PUSH1 0xFF DUP4 AND PUSH1 0x1 SWAP1 SHL SWAP1 POP DUP1 DUP5 PUSH0 ADD PUSH0 DUP5 DUP2 MSTORE PUSH1 0x20 ADD SWAP1 DUP2 MSTORE PUSH1 0x20 ADD PUSH0 KECCAK256 PUSH0 DUP3 DUP3 SLOAD OR SWAP3 POP POP DUP2 SWAP1 SSTORE POP POP POP POP POP JUMP JUMPDEST PUSH0 DUP2 MLOAD GT ISZERO PUSH2 0x41DA JUMPI DUP1 MLOAD DUP1 DUP3 PUSH1 0x20 ADD REVERT JUMPDEST PUSH1 0x40 MLOAD PUSH32 0x1425EA4200000000000000000000000000000000000000000000000000000000 DUP2 MSTORE PUSH1 0x4 ADD PUSH1 0x40 MLOAD DUP1 SWAP2 SUB SWAP1 REVERT JUMPDEST PUSH0 PUSH32 0x7965DB0B00000000000000000000000000000000000000000000000000000000 PUSH28 0xFFFFFFFFFFFFFFFFFFFFFFFFFFFFFFFFFFFFFFFFFFFFFFFFFFFFFFFF NOT AND DUP3 PUSH28 0xFFFFFFFFFFFFFFFFFFFFFFFFFFFFFFFFFFFFFFFFFFFFFFFFFFFFFFFF NOT AND EQ DUP1 PUSH2 0x427E JUMPI POP PUSH2 0x427D DUP3 PUSH2 0x4441 JUMP JUMPDEST JUMPDEST SWAP1 POP SWAP2 SWAP1 POP JUMP JUMPDEST PUSH2 0x4290 DUP4 DUP4 DUP4 PUSH2 0x44AA JUMP JUMPDEST PUSH2 0x4343 JUMPI PUSH0 PUSH20 0xFFFFFFFFFFFFFFFFFFFFFFFFFFFFFFFFFFFFFFFF AND DUP4 PUSH20 0xFFFFFFFFFFFFFFFFFFFFFFFFFFFFFFFFFFFFFFFF AND SUB PUSH2 0x4304 JUMPI DUP1 PUSH1 0x40 MLOAD PUSH32 0x7E27328900000000000000000000000000000000000000000000000000000000 DUP2 MSTORE PUSH1 0x4 ADD PUSH2 0x42FB SWAP2 SWAP1 PUSH2 0x4817 JUMP JUMPDEST PUSH1 0x40 MLOAD DUP1 SWAP2 SUB SWAP1 REVERT JUMPDEST DUP2 DUP2 PUSH1 0x40 MLOAD PUSH32 0x177E802F00000000000000000000000000000000000000000000000000000000 DUP2 MSTORE PUSH1 0x4 ADD PUSH2 0x433A SWAP3 SWAP2 SWAP1 PUSH2 0x4944 JUMP JUMPDEST PUSH1 0x40 MLOAD DUP1 SWAP2 SUB SWAP1 REVERT JUMPDEST POP POP POP JUMP JUMPDEST PUSH0 DUP1 PUSH0 DUP1 DUP5 PUSH0 ADD DUP1 SLOAD SWAP1 POP SWAP1 POP PUSH0 DUP2 SUB PUSH2 0x436B JUMPI PUSH0 DUP1 PUSH0 SWAP4 POP SWAP4 POP SWAP4 POP POP PUSH2 0x4436 JUMP JUMPDEST PUSH0 PUSH2 0x4384 DUP7 PUSH0 ADD PUSH1 0x1 DUP5 PUSH2 0x437F SWAP2 SWAP1 PUSH2 0x5618 JUMP JUMPDEST PUSH2 0x456A JUMP JUMPDEST PUSH1 0x40 MLOAD DUP1 PUSH1 0x40 ADD PUSH1 0x40 MSTORE SWAP1 DUP2 PUSH0 DUP3 ADD PUSH0 SWAP1 SLOAD SWAP1 PUSH2 0x100 EXP SWAP1 DIV PUSH12 0xFFFFFFFFFFFFFFFFFFFFFFFF AND PUSH12 0xFFFFFFFFFFFFFFFFFFFFFFFF AND PUSH12 0xFFFFFFFFFFFFFFFFFFFFFFFF AND DUP2 MSTORE PUSH1 0x20 ADD PUSH0 DUP3 ADD PUSH1 0xC SWAP1 SLOAD SWAP1 PUSH2 0x100 EXP SWAP1 DIV PUSH20 0xFFFFFFFFFFFFFFFFFFFFFFFFFFFFFFFFFFFFFFFF AND PUSH20 0xFFFFFFFFFFFFFFFFFFFFFFFFFFFFFFFFFFFFFFFF AND PUSH20 0xFFFFFFFFFFFFFFFFFFFFFFFFFFFFFFFFFFFFFFFF AND DUP2 MSTORE POP POP SWAP1 POP PUSH1 0x1 DUP2 PUSH0 ADD MLOAD DUP3 PUSH1 0x20 ADD MLOAD SWAP5 POP SWAP5 POP SWAP5 POP POP POP JUMPDEST SWAP2 SWAP4 SWAP1 SWAP3 POP JUMP JUMPDEST PUSH0 SWAP1 JUMP JUMPDEST PUSH0 PUSH32 0x1FFC9A700000000000000000000000000000000000000000000000000000000 PUSH28 0xFFFFFFFFFFFFFFFFFFFFFFFFFFFFFFFFFFFFFFFFFFFFFFFFFFFFFFFF NOT AND DUP3 PUSH28 0xFFFFFFFFFFFFFFFFFFFFFFFFFFFFFFFFFFFFFFFFFFFFFFFFFFFFFFFF NOT AND EQ SWAP1 POP SWAP2 SWAP1 POP JUMP JUMPDEST PUSH0 DUP1 PUSH20 0xFFFFFFFFFFFFFFFFFFFFFFFFFFFFFFFFFFFFFFFF AND DUP4 PUSH20 0xFFFFFFFFFFFFFFFFFFFFFFFFFFFFFFFFFFFFFFFF AND EQ ISZERO DUP1 ISZERO PUSH2 0x4561 JUMPI POP DUP3 PUSH20 0xFFFFFFFFFFFFFFFFFFFFFFFFFFFFFFFFFFFFFFFF AND DUP5 PUSH20 0xFFFFFFFFFFFFFFFFFFFFFFFFFFFFFFFFFFFFFFFF AND EQ DUP1 PUSH2 0x4522 JUMPI POP PUSH2 0x4521 DUP5 DUP5 PUSH2 0x17B0 JUMP JUMPDEST JUMPDEST DUP1 PUSH2 0x4560 JUMPI POP DUP3 PUSH20 0xFFFFFFFFFFFFFFFFFFFFFFFFFFFFFFFFFFFFFFFF AND PUSH2 0x4548 DUP4 PUSH2 0x19DD JUMP JUMPDEST PUSH20 0xFFFFFFFFFFFFFFFFFFFFFFFFFFFFFFFFFFFFFFFF AND EQ JUMPDEST JUMPDEST SWAP1 POP SWAP4 SWAP3 POP POP POP JUMP JUMPDEST PUSH0 DUP3 PUSH0 MSTORE DUP2 PUSH1 0x20 PUSH0 KECCAK256 ADD SWAP1 POP SWAP3 SWAP2 POP POP JUMP JUMPDEST PUSH0 PUSH1 0x40 MLOAD SWAP1 POP SWAP1 JUMP JUMPDEST PUSH0 DUP1 REVERT JUMPDEST PUSH0 DUP1 REVERT JUMPDEST PUSH0 PUSH32 0xFFFFFFFF00000000000000000000000000000000000000000000000000000000 DUP3 AND SWAP1 POP SWAP2 SWAP1 POP JUMP JUMPDEST PUSH2 0x45C1 DUP2 PUSH2 0x458D JUMP JUMPDEST DUP2 EQ PUSH2 0x45CB JUMPI PUSH0 DUP1 REVERT JUMPDEST POP JUMP JUMPDEST PUSH0 DUP2 CALLDATALOAD SWAP1 POP PUSH2 0x45DC DUP2 PUSH2 0x45B8 JUMP JUMPDEST SWAP3 SWAP2 POP POP JUMP JUMPDEST PUSH0 PUSH1 0x20 DUP3 DUP5 SUB SLT ISZERO PUSH2 0x45F7 JUMPI PUSH2 0x45F6 PUSH2 0x4585 JUMP JUMPDEST JUMPDEST PUSH0 PUSH2 0x4604 DUP5 DUP3 DUP6 ADD PUSH2 0x45CE JUMP JUMPDEST SWAP2 POP POP SWAP3 SWAP2 POP POP JUMP JUMPDEST PUSH0 DUP2 ISZERO ISZERO SWAP1 POP SWAP2 SWAP1 POP JUMP JUMPDEST PUSH2 0x4621 DUP2 PUSH2 0x460D JUMP JUMPDEST DUP3 MSTORE POP POP JUMP JUMPDEST PUSH0 PUSH1 0x20 DUP3 ADD SWAP1 POP PUSH2 0x463A PUSH0 DUP4 ADD DUP5 PUSH2 0x4618 JUMP JUMPDEST SWAP3 SWAP2 POP POP JUMP JUMPDEST PUSH0 DUP2 MLOAD SWAP1 POP SWAP2 SWAP1 POP JUMP JUMPDEST PUSH0 DUP3 DUP3 MSTORE PUSH1 0x20 DUP3 ADD SWAP1 POP SWAP3 SWAP2 POP POP JUMP JUMPDEST PUSH0 JUMPDEST DUP4 DUP2 LT ISZERO PUSH2 0x4677 JUMPI DUP1 DUP3 ADD MLOAD DUP2 DUP5 ADD MSTORE PUSH1 0x20 DUP2 ADD SWAP1 POP PUSH2 0x465C JUMP JUMPDEST PUSH0 DUP5 DUP5 ADD MSTORE POP POP POP POP JUMP JUMPDEST PUSH0 PUSH1 0x1F NOT PUSH1 0x1F DUP4 ADD AND SWAP1 POP SWAP2 SWAP1 POP JUMP JUMPDEST PUSH0 PUSH2 0x469C DUP3 PUSH2 0x4640 JUMP JUMPDEST PUSH2 0x46A6 DUP2 DUP6 PUSH2 0x464A JUMP JUMPDEST SWAP4 POP PUSH2 0x46B6 DUP2 DUP6 PUSH1 0x20 DUP7 ADD PUSH2 0x465A JUMP JUMPDEST PUSH2 0x46BF DUP2 PUSH2 0x4682 JUMP JUMPDEST DUP5 ADD SWAP2 POP POP SWAP3 SWAP2 POP POP JUMP JUMPDEST PUSH0 PUSH1 0x20 DUP3 ADD SWAP1 POP DUP2 DUP2 SUB PUSH0 DUP4 ADD MSTORE PUSH2 0x46E2 DUP2 DUP5 PUSH2 0x4692 JUMP JUMPDEST SWAP1 POP SWAP3 SWAP2 POP POP JUMP JUMPDEST PUSH0 DUP2 SWAP1 POP SWAP2 SWAP1 POP JUMP JUMPDEST PUSH2 0x46FC DUP2 PUSH2 0x46EA JUMP JUMPDEST DUP2 EQ PUSH2 0x4706 JUMPI PUSH0 DUP1 REVERT JUMPDEST POP JUMP JUMPDEST PUSH0 DUP2 CALLDATALOAD SWAP1 POP PUSH2 0x4717 DUP2 PUSH2 0x46F3 JUMP JUMPDEST SWAP3 SWAP2 POP POP JUMP JUMPDEST PUSH0 PUSH1 0x20 DUP3 DUP5 SUB SLT ISZERO PUSH2 0x4732 JUMPI PUSH2 0x4731 PUSH2 0x4585 JUMP JUMPDEST JUMPDEST PUSH0 PUSH2 0x473F DUP5 DUP3 DUP6 ADD PUSH2 0x4709 JUMP JUMPDEST SWAP2 POP POP SWAP3 SWAP2 POP POP JUMP JUMPDEST PUSH0 PUSH20 0xFFFFFFFFFFFFFFFFFFFFFFFFFFFFFFFFFFFFFFFF DUP3 AND SWAP1 POP SWAP2 SWAP1 POP JUMP JUMPDEST PUSH0 PUSH2 0x4771 DUP3 PUSH2 0x4748 JUMP JUMPDEST SWAP1 POP SWAP2 SWAP1 POP JUMP JUMPDEST PUSH2 0x4781 DUP2 PUSH2 0x4767 JUMP JUMPDEST DUP3 MSTORE POP POP JUMP JUMPDEST PUSH0 PUSH1 0x20 DUP3 ADD SWAP1 POP PUSH2 0x479A PUSH0 DUP4 ADD DUP5 PUSH2 0x4778 JUMP JUMPDEST SWAP3 SWAP2 POP POP JUMP JUMPDEST PUSH2 0x47A9 DUP2 PUSH2 0x4767 JUMP JUMPDEST DUP2 EQ PUSH2 0x47B3 JUMPI PUSH0 DUP1 REVERT JUMPDEST POP JUMP JUMPDEST PUSH0 DUP2 CALLDATALOAD SWAP1 POP PUSH2 0x47C4 DUP2 PUSH2 0x47A0 JUMP JUMPDEST SWAP3 SWAP2 POP POP JUMP JUMPDEST PUSH0 DUP1 PUSH1 0x40 DUP4 DUP6 SUB SLT ISZERO PUSH2 0x47E0 JUMPI PUSH2 0x47DF PUSH2 0x4585 JUMP JUMPDEST JUMPDEST PUSH0 PUSH2 0x47ED DUP6 DUP3 DUP7 ADD PUSH2 0x47B6 JUMP JUMPDEST SWAP3 POP POP PUSH1 0x20 PUSH2 0x47FE DUP6 DUP3 DUP7 ADD PUSH2 0x4709 JUMP JUMPDEST SWAP2 POP POP SWAP3 POP SWAP3 SWAP1 POP JUMP JUMPDEST PUSH2 0x4811 DUP2 PUSH2 0x46EA JUMP JUMPDEST DUP3 MSTORE POP POP JUMP JUMPDEST PUSH0 PUSH1 0x20 DUP3 ADD SWAP1 POP PUSH2 0x482A PUSH0 DUP4 ADD DUP5 PUSH2 0x4808 JUMP JUMPDEST SWAP3 SWAP2 POP POP JUMP JUMPDEST PUSH0 DUP1 PUSH0 PUSH1 0x60 DUP5 DUP7 SUB SLT ISZERO PUSH2 0x4847 JUMPI PUSH2 0x4846 PUSH2 0x4585 JUMP JUMPDEST JUMPDEST PUSH0 PUSH2 0x4854 DUP7 DUP3 DUP8 ADD PUSH2 0x47B6 JUMP JUMPDEST SWAP4 POP POP PUSH1 0x20 PUSH2 0x4865 DUP7 DUP3 DUP8 ADD PUSH2 0x47B6 JUMP JUMPDEST SWAP3 POP POP PUSH1 0x40 PUSH2 0x4876 DUP7 DUP3 DUP8 ADD PUSH2 0x4709 JUMP JUMPDEST SWAP2 POP POP SWAP3 POP SWAP3 POP SWAP3 JUMP JUMPDEST PUSH0 DUP2 SWAP1 POP SWAP2 SWAP1 POP JUMP JUMPDEST PUSH2 0x4892 DUP2 PUSH2 0x4880 JUMP JUMPDEST DUP2 EQ PUSH2 0x489C JUMPI PUSH0 DUP1 REVERT JUMPDEST POP JUMP JUMPDEST PUSH0 DUP2 CALLDATALOAD SWAP1 POP PUSH2 0x48AD DUP2 PUSH2 0x4889 JUMP JUMPDEST SWAP3 SWAP2 POP POP JUMP JUMPDEST PUSH0 PUSH1 0x20 DUP3 DUP5 SUB SLT ISZERO PUSH2 0x48C8 JUMPI PUSH2 0x48C7 PUSH2 0x4585 JUMP JUMPDEST JUMPDEST PUSH0 PUSH2 0x48D5 DUP5 DUP3 DUP6 ADD PUSH2 0x489F JUMP JUMPDEST SWAP2 POP POP SWAP3 SWAP2 POP POP JUMP JUMPDEST PUSH2 0x48E7 DUP2 PUSH2 0x4880 JUMP JUMPDEST DUP3 MSTORE POP POP JUMP JUMPDEST PUSH0 PUSH1 0x20 DUP3 ADD SWAP1 POP PUSH2 0x4900 PUSH0 DUP4 ADD DUP5 PUSH2 0x48DE JUMP JUMPDEST SWAP3 SWAP2 POP POP JUMP JUMPDEST PUSH0 DUP1 PUSH1 0x40 DUP4 DUP6 SUB SLT ISZERO PUSH2 0x491C JUMPI PUSH2 0x491B PUSH2 0x4585 JUMP JUMPDEST JUMPDEST PUSH0 PUSH2 0x4929 DUP6 DUP3 DUP7 ADD PUSH2 0x4709 JUMP JUMPDEST SWAP3 POP POP PUSH1 0x20 PUSH2 0x493A DUP6 DUP3 DUP7 ADD PUSH2 0x4709 JUMP JUMPDEST SWAP2 POP POP SWAP3 POP SWAP3 SWAP1 POP JUMP JUMPDEST PUSH0 PUSH1 0x40 DUP3 ADD SWAP1 POP PUSH2 0x4957 PUSH0 DUP4 ADD DUP6 PUSH2 0x4778 JUMP JUMPDEST PUSH2 0x4964 PUSH1 0x20 DUP4 ADD DUP5 PUSH2 0x4808 JUMP JUMPDEST SWAP4 SWAP3 POP POP POP JUMP JUMPDEST PUSH0 DUP1 PUSH1 0x40 DUP4 DUP6 SUB SLT ISZERO PUSH2 0x4981 JUMPI PUSH2 0x4980 PUSH2 0x4585 JUMP JUMPDEST JUMPDEST PUSH0 PUSH2 0x498E DUP6 DUP3 DUP7 ADD PUSH2 0x489F JUMP JUMPDEST SWAP3 POP POP PUSH1 0x20 PUSH2 0x499F DUP6 DUP3 DUP7 ADD PUSH2 0x47B6 JUMP JUMPDEST SWAP2 POP POP SWAP3 POP SWAP3 SWAP1 POP JUMP JUMPDEST PUSH0 DUP1 REVERT JUMPDEST PUSH0 DUP1 REVERT JUMPDEST PUSH32 0x4E487B7100000000000000000000000000000000000000000000000000000000 PUSH0 MSTORE PUSH1 0x41 PUSH1 0x4 MSTORE PUSH1 0x24 PUSH0 REVERT JUMPDEST PUSH2 0x49E7 DUP3 PUSH2 0x4682 JUMP JUMPDEST DUP2 ADD DUP2 DUP2 LT PUSH8 0xFFFFFFFFFFFFFFFF DUP3 GT OR ISZERO PUSH2 0x4A06 JUMPI PUSH2 0x4A05 PUSH2 0x49B1 JUMP JUMPDEST JUMPDEST DUP1 PUSH1 0x40 MSTORE POP POP POP JUMP JUMPDEST PUSH0 PUSH2 0x4A18 PUSH2 0x457C JUMP JUMPDEST SWAP1 POP PUSH2 0x4A24 DUP3 DUP3 PUSH2 0x49DE JUMP JUMPDEST SWAP2 SWAP1 POP JUMP JUMPDEST PUSH0 PUSH8 0xFFFFFFFFFFFFFFFF DUP3 GT ISZERO PUSH2 0x4A43 JUMPI PUSH2 0x4A42 PUSH2 0x49B1 JUMP JUMPDEST JUMPDEST PUSH2 0x4A4C DUP3 PUSH2 0x4682 JUMP JUMPDEST SWAP1 POP PUSH1 0x20 DUP2 ADD SWAP1 POP SWAP2 SWAP1 POP JUMP JUMPDEST DUP3 DUP2 DUP4 CALLDATACOPY PUSH0 DUP4 DUP4 ADD MSTORE POP POP POP JUMP JUMPDEST PUSH0 PUSH2 0x4A79 PUSH2 0x4A74 DUP5 PUSH2 0x4A29 JUMP JUMPDEST PUSH2 0x4A0F JUMP JUMPDEST SWAP1 POP DUP3 DUP2 MSTORE PUSH1 0x20 DUP2 ADD DUP5 DUP5 DUP5 ADD GT ISZERO PUSH2 0x4A95 JUMPI PUSH2 0x4A94 PUSH2 0x49AD JUMP JUMPDEST JUMPDEST PUSH2 0x4AA0 DUP5 DUP3 DUP6 PUSH2 0x4A59 JUMP JUMPDEST POP SWAP4 SWAP3 POP POP POP JUMP JUMPDEST PUSH0 DUP3 PUSH1 0x1F DUP4 ADD SLT PUSH2 0x4ABC JUMPI PUSH2 0x4ABB PUSH2 0x49A9 JUMP JUMPDEST JUMPDEST DUP2 CALLDATALOAD PUSH2 0x4ACC DUP5 DUP3 PUSH1 0x20 DUP7 ADD PUSH2 0x4A67 JUMP JUMPDEST SWAP2 POP POP SWAP3 SWAP2 POP POP JUMP JUMPDEST PUSH0 DUP1 PUSH1 0x40 DUP4 DUP6 SUB SLT ISZERO PUSH2 0x4AEB JUMPI PUSH2 0x4AEA PUSH2 0x4585 JUMP JUMPDEST JUMPDEST PUSH0 PUSH2 0x4AF8 DUP6 DUP3 DUP7 ADD PUSH2 0x47B6 JUMP JUMPDEST SWAP3 POP POP PUSH1 0x20 DUP4 ADD CALLDATALOAD PUSH8 0xFFFFFFFFFFFFFFFF DUP2 GT ISZERO PUSH2 0x4B19 JUMPI PUSH2 0x4B18 PUSH2 0x4589 JUMP JUMPDEST JUMPDEST PUSH2 0x4B25 DUP6 DUP3 DUP7 ADD PUSH2 0x4AA8 JUMP JUMPDEST SWAP2 POP POP SWAP3 POP SWAP3 SWAP1 POP JUMP JUMPDEST PUSH0 PUSH8 0xFFFFFFFFFFFFFFFF DUP3 GT ISZERO PUSH2 0x4B49 JUMPI PUSH2 0x4B48 PUSH2 0x49B1 JUMP JUMPDEST JUMPDEST PUSH2 0x4B52 DUP3 PUSH2 0x4682 JUMP JUMPDEST SWAP1 POP PUSH1 0x20 DUP2 ADD SWAP1 POP SWAP2 SWAP1 POP JUMP JUMPDEST PUSH0 PUSH2 0x4B71 PUSH2 0x4B6C DUP5 PUSH2 0x4B2F JUMP JUMPDEST PUSH2 0x4A0F JUMP JUMPDEST SWAP1 POP DUP3 DUP2 MSTORE PUSH1 0x20 DUP2 ADD DUP5 DUP5 DUP5 ADD GT ISZERO PUSH2 0x4B8D JUMPI PUSH2 0x4B8C PUSH2 0x49AD JUMP JUMPDEST JUMPDEST PUSH2 0x4B98 DUP5 DUP3 DUP6 PUSH2 0x4A59 JUMP JUMPDEST POP SWAP4 SWAP3 POP POP POP JUMP JUMPDEST PUSH0 DUP3 PUSH1 0x1F DUP4 ADD SLT PUSH2 0x4BB4 JUMPI PUSH2 0x4BB3 PUSH2 0x49A9 JUMP JUMPDEST JUMPDEST DUP2 CALLDATALOAD PUSH2 0x4BC4 DUP5 DUP3 PUSH1 0x20 DUP7 ADD PUSH2 0x4B5F JUMP JUMPDEST SWAP2 POP POP SWAP3 SWAP2 POP POP JUMP JUMPDEST PUSH0 PUSH1 0x20 DUP3 DUP5 SUB SLT ISZERO PUSH2 0x4BE2 JUMPI PUSH2 0x4BE1 PUSH2 0x4585 JUMP JUMPDEST JUMPDEST PUSH0 DUP3 ADD CALLDATALOAD PUSH8 0xFFFFFFFFFFFFFFFF DUP2 GT ISZERO PUSH2 0x4BFF JUMPI PUSH2 0x4BFE PUSH2 0x4589 JUMP JUMPDEST JUMPDEST PUSH2 0x4C0B DUP5 DUP3 DUP6 ADD PUSH2 0x4BA0 JUMP JUMPDEST SWAP2 POP POP SWAP3 SWAP2 POP POP JUMP JUMPDEST PUSH0 PUSH1 0x20 DUP3 DUP5 SUB SLT ISZERO PUSH2 0x4C29 JUMPI PUSH2 0x4C28 PUSH2 0x4585 JUMP JUMPDEST JUMPDEST PUSH0 PUSH2 0x4C36 DUP5 DUP3 DUP6 ADD PUSH2 0x47B6 JUMP JUMPDEST SWAP2 POP POP SWAP3 SWAP2 POP POP JUMP JUMPDEST PUSH0 PUSH32 0xFF00000000000000000000000000000000000000000000000000000000000000 DUP3 AND SWAP1 POP SWAP2 SWAP1 POP JUMP JUMPDEST PUSH2 0x4C73 DUP2 PUSH2 0x4C3F JUMP JUMPDEST DUP3 MSTORE POP POP JUMP JUMPDEST PUSH0 DUP2 MLOAD SWAP1 POP SWAP2 SWAP1 POP JUMP JUMPDEST PUSH0 DUP3 DUP3 MSTORE PUSH1 0x20 DUP3 ADD SWAP1 POP SWAP3 SWAP2 POP POP JUMP JUMPDEST PUSH0 DUP2 SWAP1 POP PUSH1 0x20 DUP3 ADD SWAP1 POP SWAP2 SWAP1 POP JUMP JUMPDEST PUSH2 0x4CAB DUP2 PUSH2 0x46EA JUMP JUMPDEST DUP3 MSTORE POP POP JUMP JUMPDEST PUSH0 PUSH2 0x4CBC DUP4 DUP4 PUSH2 0x4CA2 JUMP JUMPDEST PUSH1 0x20 DUP4 ADD SWAP1 POP SWAP3 SWAP2 POP POP JUMP JUMPDEST PUSH0 PUSH1 0x20 DUP3 ADD SWAP1 POP SWAP2 SWAP1 POP JUMP JUMPDEST PUSH0 PUSH2 0x4CDE DUP3 PUSH2 0x4C79 JUMP JUMPDEST PUSH2 0x4CE8 DUP2 DUP6 PUSH2 0x4C83 JUMP JUMPDEST SWAP4 POP PUSH2 0x4CF3 DUP4 PUSH2 0x4C93 JUMP JUMPDEST DUP1 PUSH0 JUMPDEST DUP4 DUP2 LT ISZERO PUSH2 0x4D23 JUMPI DUP2 MLOAD PUSH2 0x4D0A DUP9 DUP3 PUSH2 0x4CB1 JUMP JUMPDEST SWAP8 POP PUSH2 0x4D15 DUP4 PUSH2 0x4CC8 JUMP JUMPDEST SWAP3 POP POP PUSH1 0x1 DUP2 ADD SWAP1 POP PUSH2 0x4CF6 JUMP JUMPDEST POP DUP6 SWAP4 POP POP POP POP SWAP3 SWAP2 POP POP JUMP JUMPDEST PUSH0 PUSH1 0xE0 DUP3 ADD SWAP1 POP PUSH2 0x4D43 PUSH0 DUP4 ADD DUP11 PUSH2 0x4C6A JUMP JUMPDEST DUP2 DUP2 SUB PUSH1 0x20 DUP4 ADD MSTORE PUSH2 0x4D55 DUP2 DUP10 PUSH2 0x4692 JUMP JUMPDEST SWAP1 POP DUP2 DUP2 SUB PUSH1 0x40 DUP4 ADD MSTORE PUSH2 0x4D69 DUP2 DUP9 PUSH2 0x4692 JUMP JUMPDEST SWAP1 POP PUSH2 0x4D78 PUSH1 0x60 DUP4 ADD DUP8 PUSH2 0x4808 JUMP JUMPDEST PUSH2 0x4D85 PUSH1 0x80 DUP4 ADD DUP7 PUSH2 0x4778 JUMP JUMPDEST PUSH2 0x4D92 PUSH1 0xA0 DUP4 ADD DUP6 PUSH2 0x48DE JUMP JUMPDEST DUP2 DUP2 SUB PUSH1 0xC0 DUP4 ADD MSTORE PUSH2 0x4DA4 DUP2 DUP5 PUSH2 0x4CD4 JUMP JUMPDEST SWAP1 POP SWAP9 SWAP8 POP POP POP POP POP POP POP POP JUMP JUMPDEST PUSH0 DUP1 PUSH1 0x40 DUP4 DUP6 SUB SLT ISZERO PUSH2 0x4DC8 JUMPI PUSH2 0x4DC7 PUSH2 0x4585 JUMP JUMPDEST JUMPDEST PUSH0 PUSH2 0x4DD5 DUP6 DUP3 DUP7 ADD PUSH2 0x489F JUMP JUMPDEST SWAP3 POP POP PUSH1 0x20 PUSH2 0x4DE6 DUP6 DUP3 DUP7 ADD PUSH2 0x4709 JUMP JUMPDEST SWAP2 POP POP SWAP3 POP SWAP3 SWAP1 POP JUMP JUMPDEST PUSH2 0x4DF9 DUP2 PUSH2 0x460D JUMP JUMPDEST DUP2 EQ PUSH2 0x4E03 JUMPI PUSH0 DUP1 REVERT JUMPDEST POP JUMP JUMPDEST PUSH0 DUP2 CALLDATALOAD SWAP1 POP PUSH2 0x4E14 DUP2 PUSH2 0x4DF0 JUMP JUMPDEST SWAP3 SWAP2 POP POP JUMP JUMPDEST PUSH0 DUP1 PUSH1 0x40 DUP4 DUP6 SUB SLT ISZERO PUSH2 0x4E30 JUMPI PUSH2 0x4E2F PUSH2 0x4585 JUMP JUMPDEST JUMPDEST PUSH0 PUSH2 0x4E3D DUP6 DUP3 DUP7 ADD PUSH2 0x47B6 JUMP JUMPDEST SWAP3 POP POP PUSH1 0x20 PUSH2 0x4E4E DUP6 DUP3 DUP7 ADD PUSH2 0x4E06 JUMP JUMPDEST SWAP2 POP POP SWAP3 POP SWAP3 SWAP1 POP JUMP JUMPDEST PUSH0 DUP1 PUSH0 DUP1 PUSH1 0x80 DUP6 DUP8 SUB SLT ISZERO PUSH2 0x4E70 JUMPI PUSH2 0x4E6F PUSH2 0x4585 JUMP JUMPDEST JUMPDEST PUSH0 PUSH2 0x4E7D DUP8 DUP3 DUP9 ADD PUSH2 0x47B6 JUMP JUMPDEST SWAP5 POP POP PUSH1 0x20 PUSH2 0x4E8E DUP8 DUP3 DUP9 ADD PUSH2 0x47B6 JUMP JUMPDEST SWAP4 POP POP PUSH1 0x40 PUSH2 0x4E9F DUP8 DUP3 DUP9 ADD PUSH2 0x4709 JUMP JUMPDEST SWAP3 POP POP PUSH1 0x60 DUP6 ADD CALLDATALOAD PUSH8 0xFFFFFFFFFFFFFFFF DUP2 GT ISZERO PUSH2 0x4EC0 JUMPI PUSH2 0x4EBF PUSH2 0x4589 JUMP JUMPDEST JUMPDEST PUSH2 0x4ECC DUP8 DUP3 DUP9 ADD PUSH2 0x4AA8 JUMP JUMPDEST SWAP2 POP POP SWAP3 SWAP6 SWAP2 SWAP5 POP SWAP3 POP JUMP JUMPDEST PUSH0 DUP1 PUSH1 0x40 DUP4 DUP6 SUB SLT ISZERO PUSH2 0x4EEE JUMPI PUSH2 0x4EED PUSH2 0x4585 JUMP JUMPDEST JUMPDEST PUSH0 PUSH2 0x4EFB DUP6 DUP3 DUP7 ADD PUSH2 0x47B6 JUMP JUMPDEST SWAP3 POP POP PUSH1 0x20 DUP4 ADD CALLDATALOAD PUSH8 0xFFFFFFFFFFFFFFFF DUP2 GT ISZERO PUSH2 0x4F1C JUMPI PUSH2 0x4F1B PUSH2 0x4589 JUMP JUMPDEST JUMPDEST PUSH2 0x4F28 DUP6 DUP3 DUP7 ADD PUSH2 0x4BA0 JUMP JUMPDEST SWAP2 POP POP SWAP3 POP SWAP3 SWAP1 POP JUMP JUMPDEST PUSH0 DUP1 PUSH1 0x40 DUP4 DUP6 SUB SLT ISZERO PUSH2 0x4F48 JUMPI PUSH2 0x4F47 PUSH2 0x4585 JUMP JUMPDEST JUMPDEST PUSH0 PUSH2 0x4F55 DUP6 DUP3 DUP7 ADD PUSH2 0x47B6 JUMP JUMPDEST SWAP3 POP POP PUSH1 0x20 PUSH2 0x4F66 DUP6 DUP3 DUP7 ADD PUSH2 0x47B6 JUMP JUMPDEST SWAP2 POP POP SWAP3 POP SWAP3 SWAP1 POP JUMP JUMPDEST PUSH32 0x4E487B7100000000000000000000000000000000000000000000000000000000 PUSH0 MSTORE PUSH1 0x22 PUSH1 0x4 MSTORE PUSH1 0x24 PUSH0 REVERT JUMPDEST PUSH0 PUSH1 0x2 DUP3 DIV SWAP1 POP PUSH1 0x1 DUP3 AND DUP1 PUSH2 0x4FB4 JUMPI PUSH1 0x7F DUP3 AND SWAP2 POP JUMPDEST PUSH1 0x20 DUP3 LT DUP2 SUB PUSH2 0x4FC7 JUMPI PUSH2 0x4FC6 PUSH2 0x4F70 JUMP JUMPDEST JUMPDEST POP SWAP2 SWAP1 POP JUMP JUMPDEST PUSH0 PUSH1 0x60 DUP3 ADD SWAP1 POP PUSH2 0x4FE0 PUSH0 DUP4 ADD DUP7 PUSH2 0x4778 JUMP JUMPDEST PUSH2 0x4FED PUSH1 0x20 DUP4 ADD DUP6 PUSH2 0x4808 JUMP JUMPDEST PUSH2 0x4FFA PUSH1 0x40 DUP4 ADD DUP5 PUSH2 0x4778 JUMP JUMPDEST SWAP5 SWAP4 POP POP POP POP JUMP JUMPDEST PUSH32 0x4E487B7100000000000000000000000000000000000000000000000000000000 PUSH0 MSTORE PUSH1 0x11 PUSH1 0x4 MSTORE PUSH1 0x24 PUSH0 REVERT JUMPDEST PUSH0 PUSH2 0x5039 DUP3 PUSH2 0x46EA JUMP JUMPDEST SWAP2 POP PUSH2 0x5044 DUP4 PUSH2 0x46EA JUMP JUMPDEST SWAP3 POP DUP3 DUP3 MUL PUSH2 0x5052 DUP2 PUSH2 0x46EA JUMP JUMPDEST SWAP2 POP DUP3 DUP3 DIV DUP5 EQ DUP4 ISZERO OR PUSH2 0x5069 JUMPI PUSH2 0x5068 PUSH2 0x5002 JUMP JUMPDEST JUMPDEST POP SWAP3 SWAP2 POP POP JUMP JUMPDEST PUSH32 0x4E487B7100000000000000000000000000000000000000000000000000000000 PUSH0 MSTORE PUSH1 0x12 PUSH1 0x4 MSTORE PUSH1 0x24 PUSH0 REVERT JUMPDEST PUSH0 PUSH2 0x50A7 DUP3 PUSH2 0x46EA JUMP JUMPDEST SWAP2 POP PUSH2 0x50B2 DUP4 PUSH2 0x46EA JUMP JUMPDEST SWAP3 POP DUP3 PUSH2 0x50C2 JUMPI PUSH2 0x50C1 PUSH2 0x5070 JUMP JUMPDEST JUMPDEST DUP3 DUP3 DIV SWAP1 POP SWAP3 SWAP2 POP POP JUMP JUMPDEST PUSH32 0x4E487B7100000000000000000000000000000000000000000000000000000000 PUSH0 MSTORE PUSH1 0x32 PUSH1 0x4 MSTORE PUSH1 0x24 PUSH0 REVERT JUMPDEST PUSH0 DUP2 SWAP1 POP DUP2 PUSH0 MSTORE PUSH1 0x20 PUSH0 KECCAK256 SWAP1 POP SWAP2 SWAP1 POP JUMP JUMPDEST PUSH0 PUSH1 0x20 PUSH1 0x1F DUP4 ADD DIV SWAP1 POP SWAP2 SWAP1 POP JUMP JUMPDEST PUSH0 DUP3 DUP3 SHL SWAP1 POP SWAP3 SWAP2 POP POP JUMP JUMPDEST PUSH0 PUSH1 0x8 DUP4 MUL PUSH2 0x5156 PUSH32 0xFFFFFFFFFFFFFFFFFFFFFFFFFFFFFFFFFFFFFFFFFFFFFFFFFFFFFFFFFFFFFFFF DUP3 PUSH2 0x511B JUMP JUMPDEST PUSH2 0x5160 DUP7 DUP4 PUSH2 0x511B JUMP JUMPDEST SWAP6 POP DUP1 NOT DUP5 AND SWAP4 POP DUP1 DUP7 AND DUP5 OR SWAP3 POP POP POP SWAP4 SWAP3 POP POP POP JUMP JUMPDEST PUSH0 DUP2 SWAP1 POP SWAP2 SWAP1 POP JUMP JUMPDEST PUSH0 PUSH2 0x519B PUSH2 0x5196 PUSH2 0x5191 DUP5 PUSH2 0x46EA JUMP JUMPDEST PUSH2 0x5178 JUMP JUMPDEST PUSH2 0x46EA JUMP JUMPDEST SWAP1 POP SWAP2 SWAP1 POP JUMP JUMPDEST PUSH0 DUP2 SWAP1 POP SWAP2 SWAP1 POP JUMP JUMPDEST PUSH2 0x51B4 DUP4 PUSH2 0x5181 JUMP JUMPDEST PUSH2 0x51C8 PUSH2 0x51C0 DUP3 PUSH2 0x51A2 JUMP JUMPDEST DUP5 DUP5 SLOAD PUSH2 0x5127 JUMP JUMPDEST DUP3 SSTORE POP POP POP POP JUMP JUMPDEST PUSH0 SWAP1 JUMP JUMPDEST PUSH2 0x51DC PUSH2 0x51D0 JUMP JUMPDEST PUSH2 0x51E7 DUP2 DUP5 DUP5 PUSH2 0x51AB JUMP JUMPDEST POP POP POP JUMP JUMPDEST JUMPDEST DUP2 DUP2 LT ISZERO PUSH2 0x520A JUMPI PUSH2 0x51FF PUSH0 DUP3 PUSH2 0x51D4 JUMP JUMPDEST PUSH1 0x1 DUP2 ADD SWAP1 POP PUSH2 0x51ED JUMP JUMPDEST POP POP JUMP JUMPDEST PUSH1 0x1F DUP3 GT ISZERO PUSH2 0x524F JUMPI PUSH2 0x5220 DUP2 PUSH2 0x50FA JUMP JUMPDEST PUSH2 0x5229 DUP5 PUSH2 0x510C JUMP JUMPDEST DUP2 ADD PUSH1 0x20 DUP6 LT ISZERO PUSH2 0x5238 JUMPI DUP2 SWAP1 POP JUMPDEST PUSH2 0x524C PUSH2 0x5244 DUP6 PUSH2 0x510C JUMP JUMPDEST DUP4 ADD DUP3 PUSH2 0x51EC JUMP JUMPDEST POP POP JUMPDEST POP POP POP JUMP JUMPDEST PUSH0 DUP3 DUP3 SHR SWAP1 POP SWAP3 SWAP2 POP POP JUMP JUMPDEST PUSH0 PUSH2 0x526F PUSH0 NOT DUP5 PUSH1 0x8 MUL PUSH2 0x5254 JUMP JUMPDEST NOT DUP1 DUP4 AND SWAP2 POP POP SWAP3 SWAP2 POP POP JUMP JUMPDEST PUSH0 PUSH2 0x5287 DUP4 DUP4 PUSH2 0x5260 JUMP JUMPDEST SWAP2 POP DUP3 PUSH1 0x2 MUL DUP3 OR SWAP1 POP SWAP3 SWAP2 POP POP JUMP JUMPDEST PUSH2 0x52A0 DUP3 PUSH2 0x4640 JUMP JUMPDEST PUSH8 0xFFFFFFFFFFFFFFFF DUP2 GT ISZERO PUSH2 0x52B9 JUMPI PUSH2 0x52B8 PUSH2 0x49B1 JUMP JUMPDEST JUMPDEST PUSH2 0x52C3 DUP3 SLOAD PUSH2 0x4F9D JUMP JUMPDEST PUSH2 0x52CE DUP3 DUP3 DUP6 PUSH2 0x520E JUMP JUMPDEST PUSH0 PUSH1 0x20 SWAP1 POP PUSH1 0x1F DUP4 GT PUSH1 0x1 DUP2 EQ PUSH2 0x52FF JUMPI PUSH0 DUP5 ISZERO PUSH2 0x52ED JUMPI DUP3 DUP8 ADD MLOAD SWAP1 POP JUMPDEST PUSH2 0x52F7 DUP6 DUP3 PUSH2 0x527C JUMP JUMPDEST DUP7 SSTORE POP PUSH2 0x535E JUMP JUMPDEST PUSH1 0x1F NOT DUP5 AND PUSH2 0x530D DUP7 PUSH2 0x50FA JUMP JUMPDEST PUSH0 JUMPDEST DUP3 DUP2 LT ISZERO PUSH2 0x5334 JUMPI DUP5 DUP10 ADD MLOAD DUP3 SSTORE PUSH1 0x1 DUP3 ADD SWAP2 POP PUSH1 0x20 DUP6 ADD SWAP5 POP PUSH1 0x20 DUP2 ADD SWAP1 POP PUSH2 0x530F JUMP JUMPDEST DUP7 DUP4 LT ISZERO PUSH2 0x5351 JUMPI DUP5 DUP10 ADD MLOAD PUSH2 0x534D PUSH1 0x1F DUP10 AND DUP3 PUSH2 0x5260 JUMP JUMPDEST DUP4 SSTORE POP JUMPDEST PUSH1 0x1 PUSH1 0x2 DUP9 MUL ADD DUP9 SSTORE POP POP POP JUMPDEST POP POP POP POP POP POP JUMP JUMPDEST PUSH32 0x4549503731323A20556E696E697469616C697A65640000000000000000000000 PUSH0 DUP3 ADD MSTORE POP JUMP JUMPDEST PUSH0 PUSH2 0x539A PUSH1 0x15 DUP4 PUSH2 0x464A JUMP JUMPDEST SWAP2 POP PUSH2 0x53A5 DUP3 PUSH2 0x5366 JUMP JUMPDEST PUSH1 0x20 DUP3 ADD SWAP1 POP SWAP2 SWAP1 POP JUMP JUMPDEST PUSH0 PUSH1 0x20 DUP3 ADD SWAP1 POP DUP2 DUP2 SUB PUSH0 DUP4 ADD MSTORE PUSH2 0x53C7 DUP2 PUSH2 0x538E JUMP JUMPDEST SWAP1 POP SWAP2 SWAP1 POP JUMP JUMPDEST PUSH0 DUP2 SWAP1 POP SWAP2 SWAP1 POP JUMP JUMPDEST PUSH0 PUSH8 0xFFFFFFFFFFFFFFFF DUP3 AND SWAP1 POP SWAP2 SWAP1 POP JUMP JUMPDEST PUSH0 PUSH2 0x5404 PUSH2 0x53FF PUSH2 0x53FA DUP5 PUSH2 0x53CE JUMP JUMPDEST PUSH2 0x5178 JUMP JUMPDEST PUSH2 0x53D7 JUMP JUMPDEST SWAP1 POP SWAP2 SWAP1 POP JUMP JUMPDEST PUSH2 0x5414 DUP2 PUSH2 0x53EA JUMP JUMPDEST DUP3 MSTORE POP POP JUMP JUMPDEST PUSH0 PUSH1 0x20 DUP3 ADD SWAP1 POP PUSH2 0x542D PUSH0 DUP4 ADD DUP5 PUSH2 0x540B JUMP JUMPDEST SWAP3 SWAP2 POP POP JUMP JUMPDEST PUSH0 PUSH2 0x543D DUP3 PUSH2 0x46EA JUMP JUMPDEST SWAP2 POP PUSH32 0xFFFFFFFFFFFFFFFFFFFFFFFFFFFFFFFFFFFFFFFFFFFFFFFFFFFFFFFFFFFFFFFF DUP3 SUB PUSH2 0x546F JUMPI PUSH2 0x546E PUSH2 0x5002 JUMP JUMPDEST JUMPDEST PUSH1 0x1 DUP3 ADD SWAP1 POP SWAP2 SWAP1 POP JUMP JUMPDEST PUSH0 DUP2 MLOAD SWAP1 POP PUSH2 0x5488 DUP2 PUSH2 0x4889 JUMP JUMPDEST SWAP3 SWAP2 POP POP JUMP JUMPDEST PUSH0 PUSH1 0x20 DUP3 DUP5 SUB SLT ISZERO PUSH2 0x54A3 JUMPI PUSH2 0x54A2 PUSH2 0x4585 JUMP JUMPDEST JUMPDEST PUSH0 PUSH2 0x54B0 DUP5 DUP3 DUP6 ADD PUSH2 0x547A JUMP JUMPDEST SWAP2 POP POP SWAP3 SWAP2 POP POP JUMP JUMPDEST PUSH0 DUP2 MLOAD SWAP1 POP SWAP2 SWAP1 POP JUMP JUMPDEST PUSH0 DUP3 DUP3 MSTORE PUSH1 0x20 DUP3 ADD SWAP1 POP SWAP3 SWAP2 POP POP JUMP JUMPDEST PUSH0 PUSH2 0x54DD DUP3 PUSH2 0x54B9 JUMP JUMPDEST PUSH2 0x54E7 DUP2 DUP6 PUSH2 0x54C3 JUMP JUMPDEST SWAP4 POP PUSH2 0x54F7 DUP2 DUP6 PUSH1 0x20 DUP7 ADD PUSH2 0x465A JUMP JUMPDEST PUSH2 0x5500 DUP2 PUSH2 0x4682 JUMP JUMPDEST DUP5 ADD SWAP2 POP POP SWAP3 SWAP2 POP POP JUMP JUMPDEST PUSH0 PUSH1 0x80 DUP3 ADD SWAP1 POP PUSH2 0x551E PUSH0 DUP4 ADD DUP8 PUSH2 0x4778 JUMP JUMPDEST PUSH2 0x552B PUSH1 0x20 DUP4 ADD DUP7 PUSH2 0x4778 JUMP JUMPDEST PUSH2 0x5538 PUSH1 0x40 DUP4 ADD DUP6 PUSH2 0x4808 JUMP JUMPDEST DUP2 DUP2 SUB PUSH1 0x60 DUP4 ADD MSTORE PUSH2 0x554A DUP2 DUP5 PUSH2 0x54D3 JUMP JUMPDEST SWAP1 POP SWAP6 SWAP5 POP POP POP POP POP JUMP JUMPDEST PUSH0 DUP2 MLOAD SWAP1 POP PUSH2 0x5563 DUP2 PUSH2 0x45B8 JUMP JUMPDEST SWAP3 SWAP2 POP POP JUMP JUMPDEST PUSH0 PUSH1 0x20 DUP3 DUP5 SUB SLT ISZERO PUSH2 0x557E JUMPI PUSH2 0x557D PUSH2 0x4585 JUMP JUMPDEST JUMPDEST PUSH0 PUSH2 0x558B DUP5 DUP3 DUP6 ADD PUSH2 0x5555 JUMP JUMPDEST SWAP2 POP POP SWAP3 SWAP2 POP POP JUMP JUMPDEST PUSH0 DUP2 SWAP1 POP SWAP3 SWAP2 POP POP JUMP JUMPDEST PUSH0 PUSH2 0x55A8 DUP3 PUSH2 0x4640 JUMP JUMPDEST PUSH2 0x55B2 DUP2 DUP6 PUSH2 0x5594 JUMP JUMPDEST SWAP4 POP PUSH2 0x55C2 DUP2 DUP6 PUSH1 0x20 DUP7 ADD PUSH2 0x465A JUMP JUMPDEST DUP1 DUP5 ADD SWAP2 POP POP SWAP3 SWAP2 POP POP JUMP JUMPDEST PUSH0 PUSH2 0x55D9 DUP3 DUP6 PUSH2 0x559E JUMP JUMPDEST SWAP2 POP PUSH2 0x55E5 DUP3 DUP5 PUSH2 0x559E JUMP JUMPDEST SWAP2 POP DUP2 SWAP1 POP SWAP4 SWAP3 POP POP POP JUMP JUMPDEST PUSH0 PUSH1 0x40 DUP3 ADD SWAP1 POP PUSH2 0x5604 PUSH0 DUP4 ADD DUP6 PUSH2 0x4778 JUMP JUMPDEST PUSH2 0x5611 PUSH1 0x20 DUP4 ADD DUP5 PUSH2 0x48DE JUMP JUMPDEST SWAP4 SWAP3 POP POP POP JUMP JUMPDEST PUSH0 PUSH2 0x5622 DUP3 PUSH2 0x46EA JUMP JUMPDEST SWAP2 POP PUSH2 0x562D DUP4 PUSH2 0x46EA JUMP JUMPDEST SWAP3 POP DUP3 DUP3 SUB SWAP1 POP DUP2 DUP2 GT ISZERO PUSH2 0x5645 JUMPI PUSH2 0x5644 PUSH2 0x5002 JUMP JUMPDEST JUMPDEST SWAP3 SWAP2 POP POP JUMP JUMPDEST PUSH32 0x4E487B7100000000000000000000000000000000000000000000000000000000 PUSH0 MSTORE PUSH1 0x31 PUSH1 0x4 MSTORE PUSH1 0x24 PUSH0 REVERT JUMPDEST PUSH0 DUP2 SWAP1 POP SWAP3 SWAP2 POP POP JUMP JUMPDEST PUSH0 PUSH2 0x568C DUP3 PUSH2 0x54B9 JUMP JUMPDEST PUSH2 0x5696 DUP2 DUP6 PUSH2 0x5678 JUMP JUMPDEST SWAP4 POP PUSH2 0x56A6 DUP2 DUP6 PUSH1 0x20 DUP7 ADD PUSH2 0x465A JUMP JUMPDEST DUP1 DUP5 ADD SWAP2 POP POP SWAP3 SWAP2 POP POP JUMP JUMPDEST PUSH0 PUSH2 0x56BD DUP3 DUP5 PUSH2 0x5682 JUMP JUMPDEST SWAP2 POP DUP2 SWAP1 POP SWAP3 SWAP2 POP POP JUMP JUMPDEST PUSH0 PUSH12 0xFFFFFFFFFFFFFFFFFFFFFFFF DUP3 AND SWAP1 POP SWAP2 SWAP1 POP JUMP JUMPDEST PUSH0 PUSH2 0x56E9 DUP3 PUSH2 0x56C8 JUMP JUMPDEST SWAP2 POP PUSH2 0x56F4 DUP4 PUSH2 0x56C8 JUMP JUMPDEST SWAP3 POP DUP3 DUP3 ADD SWAP1 POP PUSH12 0xFFFFFFFFFFFFFFFFFFFFFFFF DUP2 GT ISZERO PUSH2 0x5718 JUMPI PUSH2 0x5717 PUSH2 0x5002 JUMP JUMPDEST JUMPDEST SWAP3 SWAP2 POP POP JUMP INVALID LOG2 PUSH5 0x6970667358 0x22 SLT KECCAK256 CALLDATALOAD 0xB4 0x2A 0xA9 0xC4 PUSH25 0xEED139CF78150D994E8E264CDBCA5C2EEBF2039E1D7EDDC091 PUSH24 0x64736F6C6343000817003300000000000000000000000000 "
	},
	"abi": [
		{
			"inputs": [
				{
					"internalType": "address",
					"name": "to",
					"type": "address"
				},
				{
					"internalType": "uint256",
					"name": "tokenId",
					"type": "uint256"
				}
			],
			"name": "approve",
			"outputs": [],
			"stateMutability": "nonpayable",
			"type": "function"
		},
		{
			"inputs": [],
			"stateMutability": "nonpayable",
			"type": "constructor"
		},
		{
			"inputs": [],
			"name": "AccessControlBadConfirmation",
			"type": "error"
		},
		{
			"inputs": [
				{
					"internalType": "address",
					"name": "account",
					"type": "address"
				},
				{
					"internalType": "bytes32",
					"name": "neededRole",
					"type": "bytes32"
				}
			],
			"name": "AccessControlUnauthorizedAccount",
			"type": "error"
		},
		{
			"inputs": [
				{
					"internalType": "address",
					"name": "target",
					"type": "address"
				}
			],
			"name": "AddressEmptyCode",
			"type": "error"
		},
		{
			"inputs": [
				{
					"internalType": "address",
					"name": "implementation",
					"type": "address"
				}
			],
			"name": "ERC1967InvalidImplementation",
			"type": "error"
		},
		{
			"inputs": [],
			"name": "ERC1967NonPayable",
			"type": "error"
		},
		{
			"inputs": [
				{
					"internalType": "uint256",
					"name": "numerator",
					"type": "uint256"
				},
				{
					"internalType": "uint256",
					"name": "denominator",
					"type": "uint256"
				}
			],
			"name": "ERC2981InvalidDefaultRoyalty",
			"type": "error"
		},
		{
			"inputs": [
				{
					"internalType": "address",
					"name": "receiver",
					"type": "address"
				}
			],
			"name": "ERC2981InvalidDefaultRoyaltyReceiver",
			"type": "error"
		},
		{
			"inputs": [
				{
					"internalType": "uint256",
					"name": "tokenId",
					"type": "uint256"
				},
				{
					"internalType": "uint256",
					"name": "numerator",
					"type": "uint256"
				},
				{
					"internalType": "uint256",
					"name": "denominator",
					"type": "uint256"
				}
			],
			"name": "ERC2981InvalidTokenRoyalty",
			"type": "error"
		},
		{
			"inputs": [
				{
					"internalType": "uint256",
					"name": "tokenId",
					"type": "uint256"
				},
				{
					"internalType": "address",
					"name": "receiver",
					"type": "address"
				}
			],
			"name": "ERC2981InvalidTokenRoyaltyReceiver",
			"type": "error"
		},
		{
			"inputs": [],
			"name": "ERC721EnumerableForbiddenBatchMint",
			"type": "error"
		},
		{
			"inputs": [
				{
					"internalType": "uint256",
					"name": "batchSize",
					"type": "uint256"
				},
				{
					"internalType": "uint256",
					"name": "maxBatch",
					"type": "uint256"
				}
			],
			"name": "ERC721ExceededMaxBatchMint",
			"type": "error"
		},
		{
			"inputs": [],
			"name": "ERC721ForbiddenBatchBurn",
			"type": "error"
		},
		{
			"inputs": [],
			"name": "ERC721ForbiddenBatchMint",
			"type": "error"
		},
		{
			"inputs": [],
			"name": "ERC721ForbiddenMint",
			"type": "error"
		},
		{
			"inputs": [
				{
					"internalType": "address",
					"name": "sender",
					"type": "address"
				},
				{
					"internalType": "uint256",
					"name": "tokenId",
					"type": "uint256"
				},
				{
					"internalType": "address",
					"name": "owner",
					"type": "address"
				}
			],
			"name": "ERC721IncorrectOwner",
			"type": "error"
		},
		{
			"inputs": [
				{
					"internalType": "address",
					"name": "operator",
					"type": "address"
				},
				{
					"internalType": "uint256",
					"name": "tokenId",
					"type": "uint256"
				}
			],
			"name": "ERC721InsufficientApproval",
			"type": "error"
		},
		{
			"inputs": [
				{
					"internalType": "address",
					"name": "approver",
					"type": "address"
				}
			],
			"name": "ERC721InvalidApprover",
			"type": "error"
		},
		{
			"inputs": [
				{
					"internalType": "address",
					"name": "operator",
					"type": "address"
				}
			],
			"name": "ERC721InvalidOperator",
			"type": "error"
		},
		{
			"inputs": [
				{
					"internalType": "address",
					"name": "owner",
					"type": "address"
				}
			],
			"name": "ERC721InvalidOwner",
			"type": "error"
		},
		{
			"inputs": [
				{
					"internalType": "address",
					"name": "receiver",
					"type": "address"
				}
			],
			"name": "ERC721InvalidReceiver",
			"type": "error"
		},
		{
			"inputs": [
				{
					"internalType": "address",
					"name": "sender",
					"type": "address"
				}
			],
			"name": "ERC721InvalidSender",
			"type": "error"
		},
		{
			"inputs": [
				{
					"internalType": "uint256",
					"name": "tokenId",
					"type": "uint256"
				}
			],
			"name": "ERC721NonexistentToken",
			"type": "error"
		},
		{
			"inputs": [
				{
					"internalType": "address",
					"name": "owner",
					"type": "address"
				},
				{
					"internalType": "uint256",
					"name": "index",
					"type": "uint256"
				}
			],
			"name": "ERC721OutOfBoundsIndex",
			"type": "error"
		},
		{
			"inputs": [],
			"name": "EnforcedPause",
			"type": "error"
		},
		{
			"inputs": [],
			"name": "ExpectedPause",
			"type": "error"
		},
		{
			"inputs": [],
			"name": "FailedInnerCall",
			"type": "error"
		},
		{
			"inputs": [],
			"name": "InvalidInitialization",
			"type": "error"
		},
		{
			"inputs": [],
			"name": "NotInitializing",
			"type": "error"
		},
		{
			"inputs": [
				{
					"internalType": "address",
					"name": "owner",
					"type": "address"
				}
			],
			"name": "OwnableInvalidOwner",
			"type": "error"
		},
		{
			"inputs": [
				{
					"internalType": "address",
					"name": "account",
					"type": "address"
				}
			],
			"name": "OwnableUnauthorizedAccount",
			"type": "error"
		},
		{
			"inputs": [],
			"name": "UUPSUnauthorizedCallContext",
			"type": "error"
		},
		{
			"inputs": [
				{
					"internalType": "bytes32",
					"name": "slot",
					"type": "bytes32"
				}
			],
			"name": "UUPSUnsupportedProxiableUUID",
			"type": "error"
		},
		{
			"anonymous": false,
			"inputs": [
				{
					"indexed": true,
					"internalType": "address",
					"name": "owner",
					"type": "address"
				},
				{
					"indexed": true,
					"internalType": "address",
					"name": "approved",
					"type": "address"
				},
				{
					"indexed": true,
					"internalType": "uint256",
					"name": "tokenId",
					"type": "uint256"
				}
			],
			"name": "Approval",
			"type": "event"
		},
		{
			"anonymous": false,
			"inputs": [
				{
					"indexed": true,
					"internalType": "address",
					"name": "owner",
					"type": "address"
				},
				{
					"indexed": true,
					"internalType": "address",
					"name": "operator",
					"type": "address"
				},
				{
					"indexed": false,
					"internalType": "bool",
					"name": "approved",
					"type": "bool"
				}
			],
			"name": "ApprovalForAll",
			"type": "event"
		},
		{
			"anonymous": false,
			"inputs": [
				{
					"indexed": false,
					"internalType": "uint256",
					"name": "_fromTokenId",
					"type": "uint256"
				},
				{
					"indexed": false,
					"internalType": "uint256",
					"name": "_toTokenId",
					"type": "uint256"
				}
			],
			"name": "BatchMetadataUpdate",
			"type": "event"
		},
		{
			"inputs": [
				{
					"internalType": "uint256",
					"name": "tokenId",
					"type": "uint256"
				}
			],
			"name": "burn",
			"outputs": [],
			"stateMutability": "nonpayable",
			"type": "function"
		},
		{
			"anonymous": false,
			"inputs": [
				{
					"indexed": true,
					"internalType": "uint256",
					"name": "fromTokenId",
					"type": "uint256"
				},
				{
					"indexed": false,
					"internalType": "uint256",
					"name": "toTokenId",
					"type": "uint256"
				},
				{
					"indexed": true,
					"internalType": "address",
					"name": "fromAddress",
					"type": "address"
				},
				{
					"indexed": true,
					"internalType": "address",
					"name": "toAddress",
					"type": "address"
				}
			],
			"name": "ConsecutiveTransfer",
			"type": "event"
		},
		{
			"anonymous": false,
			"inputs": [],
			"name": "EIP712DomainChanged",
			"type": "event"
		},
		{
			"inputs": [
				{
					"internalType": "bytes32",
					"name": "role",
					"type": "bytes32"
				},
				{
					"internalType": "address",
					"name": "account",
					"type": "address"
				}
			],
			"name": "grantRole",
			"outputs": [],
			"stateMutability": "nonpayable",
			"type": "function"
		},
		{
			"inputs": [
				{
					"internalType": "address",
					"name": "initialowner",
					"type": "address"
				}
			],
			"name": "initialize",
			"outputs": [],
			"stateMutability": "nonpayable",
			"type": "function"
		},
		{
			"anonymous": false,
			"inputs": [
				{
					"indexed": false,
					"internalType": "uint64",
					"name": "version",
					"type": "uint64"
				}
			],
			"name": "Initialized",
			"type": "event"
		},
		{
			"anonymous": false,
			"inputs": [
				{
					"indexed": false,
					"internalType": "uint256",
					"name": "_tokenId",
					"type": "uint256"
				}
			],
			"name": "MetadataUpdate",
			"type": "event"
		},
		{
			"anonymous": false,
			"inputs": [
				{
					"indexed": true,
					"internalType": "address",
					"name": "previousOwner",
					"type": "address"
				},
				{
					"indexed": true,
					"internalType": "address",
					"name": "newOwner",
					"type": "address"
				}
			],
			"name": "OwnershipTransferred",
			"type": "event"
		},
		{
			"inputs": [],
			"name": "pause",
			"outputs": [],
			"stateMutability": "nonpayable",
			"type": "function"
		},
		{
			"anonymous": false,
			"inputs": [
				{
					"indexed": false,
					"internalType": "address",
					"name": "account",
					"type": "address"
				}
			],
			"name": "Paused",
			"type": "event"
		},
		{
			"inputs": [],
			"name": "renounceOwnership",
			"outputs": [],
			"stateMutability": "nonpayable",
			"type": "function"
		},
		{
			"inputs": [
				{
					"internalType": "bytes32",
					"name": "role",
					"type": "bytes32"
				},
				{
					"internalType": "address",
					"name": "callerConfirmation",
					"type": "address"
				}
			],
			"name": "renounceRole",
			"outputs": [],
			"stateMutability": "nonpayable",
			"type": "function"
		},
		{
			"inputs": [
				{
					"internalType": "bytes32",
					"name": "role",
					"type": "bytes32"
				},
				{
					"internalType": "address",
					"name": "account",
					"type": "address"
				}
			],
			"name": "revokeRole",
			"outputs": [],
			"stateMutability": "nonpayable",
			"type": "function"
		},
		{
			"anonymous": false,
			"inputs": [
				{
					"indexed": true,
					"internalType": "bytes32",
					"name": "role",
					"type": "bytes32"
				},
				{
					"indexed": true,
					"internalType": "bytes32",
					"name": "previousAdminRole",
					"type": "bytes32"
				},
				{
					"indexed": true,
					"internalType": "bytes32",
					"name": "newAdminRole",
					"type": "bytes32"
				}
			],
			"name": "RoleAdminChanged",
			"type": "event"
		},
		{
			"anonymous": false,
			"inputs": [
				{
					"indexed": true,
					"internalType": "bytes32",
					"name": "role",
					"type": "bytes32"
				},
				{
					"indexed": true,
					"internalType": "address",
					"name": "account",
					"type": "address"
				},
				{
					"indexed": true,
					"internalType": "address",
					"name": "sender",
					"type": "address"
				}
			],
			"name": "RoleGranted",
			"type": "event"
		},
		{
			"anonymous": false,
			"inputs": [
				{
					"indexed": true,
					"internalType": "bytes32",
					"name": "role",
					"type": "bytes32"
				},
				{
					"indexed": true,
					"internalType": "address",
					"name": "account",
					"type": "address"
				},
				{
					"indexed": true,
					"internalType": "address",
					"name": "sender",
					"type": "address"
				}
			],
			"name": "RoleRevoked",
			"type": "event"
		},
		{
			"inputs": [
				{
					"internalType": "address",
					"name": "to",
					"type": "address"
				},
				{
					"internalType": "string",
					"name": "uri",
					"type": "string"
				}
			],
			"name": "safeMint",
			"outputs": [],
			"stateMutability": "nonpayable",
			"type": "function"
		},
		{
			"inputs": [
				{
					"internalType": "address",
					"name": "from",
					"type": "address"
				},
				{
					"internalType": "address",
					"name": "to",
					"type": "address"
				},
				{
					"internalType": "uint256",
					"name": "tokenId",
					"type": "uint256"
				}
			],
			"name": "safeTransferFrom",
			"outputs": [],
			"stateMutability": "nonpayable",
			"type": "function"
		},
		{
			"inputs": [
				{
					"internalType": "address",
					"name": "from",
					"type": "address"
				},
				{
					"internalType": "address",
					"name": "to",
					"type": "address"
				},
				{
					"internalType": "uint256",
					"name": "tokenId",
					"type": "uint256"
				},
				{
					"internalType": "bytes",
					"name": "data",
					"type": "bytes"
				}
			],
			"name": "safeTransferFrom",
			"outputs": [],
			"stateMutability": "nonpayable",
			"type": "function"
		},
		{
			"inputs": [
				{
					"internalType": "address",
					"name": "operator",
					"type": "address"
				},
				{
					"internalType": "bool",
					"name": "approved",
					"type": "bool"
				}
			],
			"name": "setApprovalForAll",
			"outputs": [],
			"stateMutability": "nonpayable",
			"type": "function"
		},
		{
			"inputs": [
				{
					"internalType": "string",
					"name": "baseURI",
					"type": "string"
				}
			],
			"name": "setBaseURI",
			"outputs": [],
			"stateMutability": "nonpayable",
			"type": "function"
		},
		{
			"anonymous": false,
			"inputs": [
				{
					"indexed": true,
					"internalType": "address",
					"name": "from",
					"type": "address"
				},
				{
					"indexed": true,
					"internalType": "address",
					"name": "to",
					"type": "address"
				},
				{
					"indexed": true,
					"internalType": "uint256",
					"name": "tokenId",
					"type": "uint256"
				}
			],
			"name": "Transfer",
			"type": "event"
		},
		{
			"inputs": [
				{
					"internalType": "address",
					"name": "from",
					"type": "address"
				},
				{
					"internalType": "address",
					"name": "to",
					"type": "address"
				},
				{
					"internalType": "uint256",
					"name": "tokenId",
					"type": "uint256"
				}
			],
			"name": "transferFrom",
			"outputs": [],
			"stateMutability": "nonpayable",
			"type": "function"
		},
		{
			"inputs": [
				{
					"internalType": "address",
					"name": "newOwner",
					"type": "address"
				}
			],
			"name": "transferOwnership",
			"outputs": [],
			"stateMutability": "nonpayable",
			"type": "function"
		},
		{
			"inputs": [],
			"name": "unpause",
			"outputs": [],
			"stateMutability": "nonpayable",
			"type": "function"
		},
		{
			"anonymous": false,
			"inputs": [
				{
					"indexed": false,
					"internalType": "address",
					"name": "account",
					"type": "address"
				}
			],
			"name": "Unpaused",
			"type": "event"
		},
		{
			"anonymous": false,
			"inputs": [
				{
					"indexed": true,
					"internalType": "address",
					"name": "implementation",
					"type": "address"
				}
			],
			"name": "Upgraded",
			"type": "event"
		},
		{
			"inputs": [
				{
					"internalType": "address",
					"name": "newImplementation",
					"type": "address"
				},
				{
					"internalType": "bytes",
					"name": "data",
					"type": "bytes"
				}
			],
			"name": "upgradeToAndCall",
			"outputs": [],
			"stateMutability": "payable",
			"type": "function"
		},
		{
			"inputs": [],
			"name": "_BaseURI",
			"outputs": [
				{
					"internalType": "string",
					"name": "",
					"type": "string"
				}
			],
			"stateMutability": "view",
			"type": "function"
		},
		{
			"inputs": [
				{
					"internalType": "address",
					"name": "owner",
					"type": "address"
				}
			],
			"name": "balanceOf",
			"outputs": [
				{
					"internalType": "uint256",
					"name": "",
					"type": "uint256"
				}
			],
			"stateMutability": "view",
			"type": "function"
		},
		{
			"inputs": [],
			"name": "DEFAULT_ADMIN_ROLE",
			"outputs": [
				{
					"internalType": "bytes32",
					"name": "",
					"type": "bytes32"
				}
			],
			"stateMutability": "view",
			"type": "function"
		},
		{
			"inputs": [],
			"name": "eip712Domain",
			"outputs": [
				{
					"internalType": "bytes1",
					"name": "fields",
					"type": "bytes1"
				},
				{
					"internalType": "string",
					"name": "name",
					"type": "string"
				},
				{
					"internalType": "string",
					"name": "version",
					"type": "string"
				},
				{
					"internalType": "uint256",
					"name": "chainId",
					"type": "uint256"
				},
				{
					"internalType": "address",
					"name": "verifyingContract",
					"type": "address"
				},
				{
					"internalType": "bytes32",
					"name": "salt",
					"type": "bytes32"
				},
				{
					"internalType": "uint256[]",
					"name": "extensions",
					"type": "uint256[]"
				}
			],
			"stateMutability": "view",
			"type": "function"
		},
		{
			"inputs": [
				{
					"internalType": "uint256",
					"name": "tokenId",
					"type": "uint256"
				}
			],
			"name": "getApproved",
			"outputs": [
				{
					"internalType": "address",
					"name": "",
					"type": "address"
				}
			],
			"stateMutability": "view",
			"type": "function"
		},
		{
			"inputs": [
				{
					"internalType": "bytes32",
					"name": "role",
					"type": "bytes32"
				}
			],
			"name": "getRoleAdmin",
			"outputs": [
				{
					"internalType": "bytes32",
					"name": "",
					"type": "bytes32"
				}
			],
			"stateMutability": "view",
			"type": "function"
		},
		{
			"inputs": [
				{
					"internalType": "bytes32",
					"name": "role",
					"type": "bytes32"
				},
				{
					"internalType": "uint256",
					"name": "index",
					"type": "uint256"
				}
			],
			"name": "getRoleMember",
			"outputs": [
				{
					"internalType": "address",
					"name": "",
					"type": "address"
				}
			],
			"stateMutability": "view",
			"type": "function"
		},
		{
			"inputs": [
				{
					"internalType": "bytes32",
					"name": "role",
					"type": "bytes32"
				}
			],
			"name": "getRoleMemberCount",
			"outputs": [
				{
					"internalType": "uint256",
					"name": "",
					"type": "uint256"
				}
			],
			"stateMutability": "view",
			"type": "function"
		},
		{
			"inputs": [
				{
					"internalType": "bytes32",
					"name": "role",
					"type": "bytes32"
				},
				{
					"internalType": "address",
					"name": "account",
					"type": "address"
				}
			],
			"name": "hasRole",
			"outputs": [
				{
					"internalType": "bool",
					"name": "",
					"type": "bool"
				}
			],
			"stateMutability": "view",
			"type": "function"
		},
		{
			"inputs": [
				{
					"internalType": "address",
					"name": "owner",
					"type": "address"
				},
				{
					"internalType": "address",
					"name": "operator",
					"type": "address"
				}
			],
			"name": "isApprovedForAll",
			"outputs": [
				{
					"internalType": "bool",
					"name": "",
					"type": "bool"
				}
			],
			"stateMutability": "view",
			"type": "function"
		},
		{
			"inputs": [],
			"name": "name",
			"outputs": [
				{
					"internalType": "string",
					"name": "",
					"type": "string"
				}
			],
			"stateMutability": "view",
			"type": "function"
		},
		{
			"inputs": [],
			"name": "owner",
			"outputs": [
				{
					"internalType": "address",
					"name": "",
					"type": "address"
				}
			],
			"stateMutability": "view",
			"type": "function"
		},
		{
			"inputs": [
				{
					"internalType": "uint256",
					"name": "tokenId",
					"type": "uint256"
				}
			],
			"name": "ownerOf",
			"outputs": [
				{
					"internalType": "address",
					"name": "",
					"type": "address"
				}
			],
			"stateMutability": "view",
			"type": "function"
		},
		{
			"inputs": [],
			"name": "paused",
			"outputs": [
				{
					"internalType": "bool",
					"name": "",
					"type": "bool"
				}
			],
			"stateMutability": "view",
			"type": "function"
		},
		{
			"inputs": [],
			"name": "proxiableUUID",
			"outputs": [
				{
					"internalType": "bytes32",
					"name": "",
					"type": "bytes32"
				}
			],
			"stateMutability": "view",
			"type": "function"
		},
		{
			"inputs": [
				{
					"internalType": "uint256",
					"name": "tokenId",
					"type": "uint256"
				},
				{
					"internalType": "uint256",
					"name": "salePrice",
					"type": "uint256"
				}
			],
			"name": "royaltyInfo",
			"outputs": [
				{
					"internalType": "address",
					"name": "",
					"type": "address"
				},
				{
					"internalType": "uint256",
					"name": "",
					"type": "uint256"
				}
			],
			"stateMutability": "view",
			"type": "function"
		},
		{
			"inputs": [
				{
					"internalType": "bytes4",
					"name": "interfaceId",
					"type": "bytes4"
				}
			],
			"name": "supportsInterface",
			"outputs": [
				{
					"internalType": "bool",
					"name": "",
					"type": "bool"
				}
			],
			"stateMutability": "view",
			"type": "function"
		},
		{
			"inputs": [],
			"name": "symbol",
			"outputs": [
				{
					"internalType": "string",
					"name": "",
					"type": "string"
				}
			],
			"stateMutability": "view",
			"type": "function"
		},
		{
			"inputs": [
				{
					"internalType": "uint256",
					"name": "index",
					"type": "uint256"
				}
			],
			"name": "tokenByIndex",
			"outputs": [
				{
					"internalType": "uint256",
					"name": "",
					"type": "uint256"
				}
			],
			"stateMutability": "view",
			"type": "function"
		},
		{
			"inputs": [
				{
					"internalType": "address",
					"name": "owner",
					"type": "address"
				},
				{
					"internalType": "uint256",
					"name": "index",
					"type": "uint256"
				}
			],
			"name": "tokenOfOwnerByIndex",
			"outputs": [
				{
					"internalType": "uint256",
					"name": "",
					"type": "uint256"
				}
			],
			"stateMutability": "view",
			"type": "function"
		},
		{
			"inputs": [
				{
					"internalType": "uint256",
					"name": "tokenId",
					"type": "uint256"
				}
			],
			"name": "tokenURI",
			"outputs": [
				{
					"internalType": "string",
					"name": "",
					"type": "string"
				}
			],
			"stateMutability": "view",
			"type": "function"
		},
		{
			"inputs": [],
			"name": "totalSupply",
			"outputs": [
				{
					"internalType": "uint256",
					"name": "",
					"type": "uint256"
				}
			],
			"stateMutability": "view",
			"type": "function"
		},
		{
			"inputs": [],
			"name": "UPGRADE_INTERFACE_VERSION",
			"outputs": [
				{
					"internalType": "string",
					"name": "",
					"type": "string"
				}
			],
			"stateMutability": "view",
			"type": "function"
		}
	],
	"storageLayout": {
		"storage": [
			{
				"astId": 10110,
				"contract": "contracts/ERC721ESUpgradeable.sol:SCUMWalkers",
				"label": "_nextTokenId",
				"offset": 0,
				"slot": "0",
				"type": "t_uint256"
			},
			{
				"astId": 10112,
				"contract": "contracts/ERC721ESUpgradeable.sol:SCUMWalkers",
				"label": "_baseTokenURI",
				"offset": 0,
				"slot": "1",
				"type": "t_string_storage"
			}
		],
		"types": {
			"t_string_storage": {
				"encoding": "bytes",
				"label": "string",
				"numberOfBytes": "32"
			},
			"t_uint256": {
				"encoding": "inplace",
				"label": "uint256",
				"numberOfBytes": "32"
			}
		}
	},
	"web3Deploy": "var scumwalkersContract = new web3.eth.Contract([{\"inputs\":[],\"stateMutability\":\"nonpayable\",\"type\":\"constructor\"},{\"inputs\":[],\"name\":\"AccessControlBadConfirmation\",\"type\":\"error\"},{\"inputs\":[{\"internalType\":\"address\",\"name\":\"account\",\"type\":\"address\"},{\"internalType\":\"bytes32\",\"name\":\"neededRole\",\"type\":\"bytes32\"}],\"name\":\"AccessControlUnauthorizedAccount\",\"type\":\"error\"},{\"inputs\":[{\"internalType\":\"address\",\"name\":\"target\",\"type\":\"address\"}],\"name\":\"AddressEmptyCode\",\"type\":\"error\"},{\"inputs\":[{\"internalType\":\"address\",\"name\":\"implementation\",\"type\":\"address\"}],\"name\":\"ERC1967InvalidImplementation\",\"type\":\"error\"},{\"inputs\":[],\"name\":\"ERC1967NonPayable\",\"type\":\"error\"},{\"inputs\":[{\"internalType\":\"uint256\",\"name\":\"numerator\",\"type\":\"uint256\"},{\"internalType\":\"uint256\",\"name\":\"denominator\",\"type\":\"uint256\"}],\"name\":\"ERC2981InvalidDefaultRoyalty\",\"type\":\"error\"},{\"inputs\":[{\"internalType\":\"address\",\"name\":\"receiver\",\"type\":\"address\"}],\"name\":\"ERC2981InvalidDefaultRoyaltyReceiver\",\"type\":\"error\"},{\"inputs\":[{\"internalType\":\"uint256\",\"name\":\"tokenId\",\"type\":\"uint256\"},{\"internalType\":\"uint256\",\"name\":\"numerator\",\"type\":\"uint256\"},{\"internalType\":\"uint256\",\"name\":\"denominator\",\"type\":\"uint256\"}],\"name\":\"ERC2981InvalidTokenRoyalty\",\"type\":\"error\"},{\"inputs\":[{\"internalType\":\"uint256\",\"name\":\"tokenId\",\"type\":\"uint256\"},{\"internalType\":\"address\",\"name\":\"receiver\",\"type\":\"address\"}],\"name\":\"ERC2981InvalidTokenRoyaltyReceiver\",\"type\":\"error\"},{\"inputs\":[],\"name\":\"ERC721EnumerableForbiddenBatchMint\",\"type\":\"error\"},{\"inputs\":[{\"internalType\":\"uint256\",\"name\":\"batchSize\",\"type\":\"uint256\"},{\"internalType\":\"uint256\",\"name\":\"maxBatch\",\"type\":\"uint256\"}],\"name\":\"ERC721ExceededMaxBatchMint\",\"type\":\"error\"},{\"inputs\":[],\"name\":\"ERC721ForbiddenBatchBurn\",\"type\":\"error\"},{\"inputs\":[],\"name\":\"ERC721ForbiddenBatchMint\",\"type\":\"error\"},{\"inputs\":[],\"name\":\"ERC721ForbiddenMint\",\"type\":\"error\"},{\"inputs\":[{\"internalType\":\"address\",\"name\":\"sender\",\"type\":\"address\"},{\"internalType\":\"uint256\",\"name\":\"tokenId\",\"type\":\"uint256\"},{\"internalType\":\"address\",\"name\":\"owner\",\"type\":\"address\"}],\"name\":\"ERC721IncorrectOwner\",\"type\":\"error\"},{\"inputs\":[{\"internalType\":\"address\",\"name\":\"operator\",\"type\":\"address\"},{\"internalType\":\"uint256\",\"name\":\"tokenId\",\"type\":\"uint256\"}],\"name\":\"ERC721InsufficientApproval\",\"type\":\"error\"},{\"inputs\":[{\"internalType\":\"address\",\"name\":\"approver\",\"type\":\"address\"}],\"name\":\"ERC721InvalidApprover\",\"type\":\"error\"},{\"inputs\":[{\"internalType\":\"address\",\"name\":\"operator\",\"type\":\"address\"}],\"name\":\"ERC721InvalidOperator\",\"type\":\"error\"},{\"inputs\":[{\"internalType\":\"address\",\"name\":\"owner\",\"type\":\"address\"}],\"name\":\"ERC721InvalidOwner\",\"type\":\"error\"},{\"inputs\":[{\"internalType\":\"address\",\"name\":\"receiver\",\"type\":\"address\"}],\"name\":\"ERC721InvalidReceiver\",\"type\":\"error\"},{\"inputs\":[{\"internalType\":\"address\",\"name\":\"sender\",\"type\":\"address\"}],\"name\":\"ERC721InvalidSender\",\"type\":\"error\"},{\"inputs\":[{\"internalType\":\"uint256\",\"name\":\"tokenId\",\"type\":\"uint256\"}],\"name\":\"ERC721NonexistentToken\",\"type\":\"error\"},{\"inputs\":[{\"internalType\":\"address\",\"name\":\"owner\",\"type\":\"address\"},{\"internalType\":\"uint256\",\"name\":\"index\",\"type\":\"uint256\"}],\"name\":\"ERC721OutOfBoundsIndex\",\"type\":\"error\"},{\"inputs\":[],\"name\":\"EnforcedPause\",\"type\":\"error\"},{\"inputs\":[],\"name\":\"ExpectedPause\",\"type\":\"error\"},{\"inputs\":[],\"name\":\"FailedInnerCall\",\"type\":\"error\"},{\"inputs\":[],\"name\":\"InvalidInitialization\",\"type\":\"error\"},{\"inputs\":[],\"name\":\"NotInitializing\",\"type\":\"error\"},{\"inputs\":[{\"internalType\":\"address\",\"name\":\"owner\",\"type\":\"address\"}],\"name\":\"OwnableInvalidOwner\",\"type\":\"error\"},{\"inputs\":[{\"internalType\":\"address\",\"name\":\"account\",\"type\":\"address\"}],\"name\":\"OwnableUnauthorizedAccount\",\"type\":\"error\"},{\"inputs\":[],\"name\":\"UUPSUnauthorizedCallContext\",\"type\":\"error\"},{\"inputs\":[{\"internalType\":\"bytes32\",\"name\":\"slot\",\"type\":\"bytes32\"}],\"name\":\"UUPSUnsupportedProxiableUUID\",\"type\":\"error\"},{\"anonymous\":false,\"inputs\":[{\"indexed\":true,\"internalType\":\"address\",\"name\":\"owner\",\"type\":\"address\"},{\"indexed\":true,\"internalType\":\"address\",\"name\":\"approved\",\"type\":\"address\"},{\"indexed\":true,\"internalType\":\"uint256\",\"name\":\"tokenId\",\"type\":\"uint256\"}],\"name\":\"Approval\",\"type\":\"event\"},{\"anonymous\":false,\"inputs\":[{\"indexed\":true,\"internalType\":\"address\",\"name\":\"owner\",\"type\":\"address\"},{\"indexed\":true,\"internalType\":\"address\",\"name\":\"operator\",\"type\":\"address\"},{\"indexed\":false,\"internalType\":\"bool\",\"name\":\"approved\",\"type\":\"bool\"}],\"name\":\"ApprovalForAll\",\"type\":\"event\"},{\"anonymous\":false,\"inputs\":[{\"indexed\":false,\"internalType\":\"uint256\",\"name\":\"_fromTokenId\",\"type\":\"uint256\"},{\"indexed\":false,\"internalType\":\"uint256\",\"name\":\"_toTokenId\",\"type\":\"uint256\"}],\"name\":\"BatchMetadataUpdate\",\"type\":\"event\"},{\"anonymous\":false,\"inputs\":[{\"indexed\":true,\"internalType\":\"uint256\",\"name\":\"fromTokenId\",\"type\":\"uint256\"},{\"indexed\":false,\"internalType\":\"uint256\",\"name\":\"toTokenId\",\"type\":\"uint256\"},{\"indexed\":true,\"internalType\":\"address\",\"name\":\"fromAddress\",\"type\":\"address\"},{\"indexed\":true,\"internalType\":\"address\",\"name\":\"toAddress\",\"type\":\"address\"}],\"name\":\"ConsecutiveTransfer\",\"type\":\"event\"},{\"anonymous\":false,\"inputs\":[],\"name\":\"EIP712DomainChanged\",\"type\":\"event\"},{\"anonymous\":false,\"inputs\":[{\"indexed\":false,\"internalType\":\"uint64\",\"name\":\"version\",\"type\":\"uint64\"}],\"name\":\"Initialized\",\"type\":\"event\"},{\"anonymous\":false,\"inputs\":[{\"indexed\":false,\"internalType\":\"uint256\",\"name\":\"_tokenId\",\"type\":\"uint256\"}],\"name\":\"MetadataUpdate\",\"type\":\"event\"},{\"anonymous\":false,\"inputs\":[{\"indexed\":true,\"internalType\":\"address\",\"name\":\"previousOwner\",\"type\":\"address\"},{\"indexed\":true,\"internalType\":\"address\",\"name\":\"newOwner\",\"type\":\"address\"}],\"name\":\"OwnershipTransferred\",\"type\":\"event\"},{\"anonymous\":false,\"inputs\":[{\"indexed\":false,\"internalType\":\"address\",\"name\":\"account\",\"type\":\"address\"}],\"name\":\"Paused\",\"type\":\"event\"},{\"anonymous\":false,\"inputs\":[{\"indexed\":true,\"internalType\":\"bytes32\",\"name\":\"role\",\"type\":\"bytes32\"},{\"indexed\":true,\"internalType\":\"bytes32\",\"name\":\"previousAdminRole\",\"type\":\"bytes32\"},{\"indexed\":true,\"internalType\":\"bytes32\",\"name\":\"newAdminRole\",\"type\":\"bytes32\"}],\"name\":\"RoleAdminChanged\",\"type\":\"event\"},{\"anonymous\":false,\"inputs\":[{\"indexed\":true,\"internalType\":\"bytes32\",\"name\":\"role\",\"type\":\"bytes32\"},{\"indexed\":true,\"internalType\":\"address\",\"name\":\"account\",\"type\":\"address\"},{\"indexed\":true,\"internalType\":\"address\",\"name\":\"sender\",\"type\":\"address\"}],\"name\":\"RoleGranted\",\"type\":\"event\"},{\"anonymous\":false,\"inputs\":[{\"indexed\":true,\"internalType\":\"bytes32\",\"name\":\"role\",\"type\":\"bytes32\"},{\"indexed\":true,\"internalType\":\"address\",\"name\":\"account\",\"type\":\"address\"},{\"indexed\":true,\"internalType\":\"address\",\"name\":\"sender\",\"type\":\"address\"}],\"name\":\"RoleRevoked\",\"type\":\"event\"},{\"anonymous\":false,\"inputs\":[{\"indexed\":true,\"internalType\":\"address\",\"name\":\"from\",\"type\":\"address\"},{\"indexed\":true,\"internalType\":\"address\",\"name\":\"to\",\"type\":\"address\"},{\"indexed\":true,\"internalType\":\"uint256\",\"name\":\"tokenId\",\"type\":\"uint256\"}],\"name\":\"Transfer\",\"type\":\"event\"},{\"anonymous\":false,\"inputs\":[{\"indexed\":false,\"internalType\":\"address\",\"name\":\"account\",\"type\":\"address\"}],\"name\":\"Unpaused\",\"type\":\"event\"},{\"anonymous\":false,\"inputs\":[{\"indexed\":true,\"internalType\":\"address\",\"name\":\"implementation\",\"type\":\"address\"}],\"name\":\"Upgraded\",\"type\":\"event\"},{\"inputs\":[],\"name\":\"DEFAULT_ADMIN_ROLE\",\"outputs\":[{\"internalType\":\"bytes32\",\"name\":\"\",\"type\":\"bytes32\"}],\"stateMutability\":\"view\",\"type\":\"function\"},{\"inputs\":[],\"name\":\"UPGRADE_INTERFACE_VERSION\",\"outputs\":[{\"internalType\":\"string\",\"name\":\"\",\"type\":\"string\"}],\"stateMutability\":\"view\",\"type\":\"function\"},{\"inputs\":[],\"name\":\"_BaseURI\",\"outputs\":[{\"internalType\":\"string\",\"name\":\"\",\"type\":\"string\"}],\"stateMutability\":\"view\",\"type\":\"function\"},{\"inputs\":[{\"internalType\":\"address\",\"name\":\"to\",\"type\":\"address\"},{\"internalType\":\"uint256\",\"name\":\"tokenId\",\"type\":\"uint256\"}],\"name\":\"approve\",\"outputs\":[],\"stateMutability\":\"nonpayable\",\"type\":\"function\"},{\"inputs\":[{\"internalType\":\"address\",\"name\":\"owner\",\"type\":\"address\"}],\"name\":\"balanceOf\",\"outputs\":[{\"internalType\":\"uint256\",\"name\":\"\",\"type\":\"uint256\"}],\"stateMutability\":\"view\",\"type\":\"function\"},{\"inputs\":[{\"internalType\":\"uint256\",\"name\":\"tokenId\",\"type\":\"uint256\"}],\"name\":\"burn\",\"outputs\":[],\"stateMutability\":\"nonpayable\",\"type\":\"function\"},{\"inputs\":[],\"name\":\"eip712Domain\",\"outputs\":[{\"internalType\":\"bytes1\",\"name\":\"fields\",\"type\":\"bytes1\"},{\"internalType\":\"string\",\"name\":\"name\",\"type\":\"string\"},{\"internalType\":\"string\",\"name\":\"version\",\"type\":\"string\"},{\"internalType\":\"uint256\",\"name\":\"chainId\",\"type\":\"uint256\"},{\"internalType\":\"address\",\"name\":\"verifyingContract\",\"type\":\"address\"},{\"internalType\":\"bytes32\",\"name\":\"salt\",\"type\":\"bytes32\"},{\"internalType\":\"uint256[]\",\"name\":\"extensions\",\"type\":\"uint256[]\"}],\"stateMutability\":\"view\",\"type\":\"function\"},{\"inputs\":[{\"internalType\":\"uint256\",\"name\":\"tokenId\",\"type\":\"uint256\"}],\"name\":\"getApproved\",\"outputs\":[{\"internalType\":\"address\",\"name\":\"\",\"type\":\"address\"}],\"stateMutability\":\"view\",\"type\":\"function\"},{\"inputs\":[{\"internalType\":\"bytes32\",\"name\":\"role\",\"type\":\"bytes32\"}],\"name\":\"getRoleAdmin\",\"outputs\":[{\"internalType\":\"bytes32\",\"name\":\"\",\"type\":\"bytes32\"}],\"stateMutability\":\"view\",\"type\":\"function\"},{\"inputs\":[{\"internalType\":\"bytes32\",\"name\":\"role\",\"type\":\"bytes32\"},{\"internalType\":\"uint256\",\"name\":\"index\",\"type\":\"uint256\"}],\"name\":\"getRoleMember\",\"outputs\":[{\"internalType\":\"address\",\"name\":\"\",\"type\":\"address\"}],\"stateMutability\":\"view\",\"type\":\"function\"},{\"inputs\":[{\"internalType\":\"bytes32\",\"name\":\"role\",\"type\":\"bytes32\"}],\"name\":\"getRoleMemberCount\",\"outputs\":[{\"internalType\":\"uint256\",\"name\":\"\",\"type\":\"uint256\"}],\"stateMutability\":\"view\",\"type\":\"function\"},{\"inputs\":[{\"internalType\":\"bytes32\",\"name\":\"role\",\"type\":\"bytes32\"},{\"internalType\":\"address\",\"name\":\"account\",\"type\":\"address\"}],\"name\":\"grantRole\",\"outputs\":[],\"stateMutability\":\"nonpayable\",\"type\":\"function\"},{\"inputs\":[{\"internalType\":\"bytes32\",\"name\":\"role\",\"type\":\"bytes32\"},{\"internalType\":\"address\",\"name\":\"account\",\"type\":\"address\"}],\"name\":\"hasRole\",\"outputs\":[{\"internalType\":\"bool\",\"name\":\"\",\"type\":\"bool\"}],\"stateMutability\":\"view\",\"type\":\"function\"},{\"inputs\":[{\"internalType\":\"address\",\"name\":\"initialowner\",\"type\":\"address\"}],\"name\":\"initialize\",\"outputs\":[],\"stateMutability\":\"nonpayable\",\"type\":\"function\"},{\"inputs\":[{\"internalType\":\"address\",\"name\":\"owner\",\"type\":\"address\"},{\"internalType\":\"address\",\"name\":\"operator\",\"type\":\"address\"}],\"name\":\"isApprovedForAll\",\"outputs\":[{\"internalType\":\"bool\",\"name\":\"\",\"type\":\"bool\"}],\"stateMutability\":\"view\",\"type\":\"function\"},{\"inputs\":[],\"name\":\"name\",\"outputs\":[{\"internalType\":\"string\",\"name\":\"\",\"type\":\"string\"}],\"stateMutability\":\"view\",\"type\":\"function\"},{\"inputs\":[],\"name\":\"owner\",\"outputs\":[{\"internalType\":\"address\",\"name\":\"\",\"type\":\"address\"}],\"stateMutability\":\"view\",\"type\":\"function\"},{\"inputs\":[{\"internalType\":\"uint256\",\"name\":\"tokenId\",\"type\":\"uint256\"}],\"name\":\"ownerOf\",\"outputs\":[{\"internalType\":\"address\",\"name\":\"\",\"type\":\"address\"}],\"stateMutability\":\"view\",\"type\":\"function\"},{\"inputs\":[],\"name\":\"pause\",\"outputs\":[],\"stateMutability\":\"nonpayable\",\"type\":\"function\"},{\"inputs\":[],\"name\":\"paused\",\"outputs\":[{\"internalType\":\"bool\",\"name\":\"\",\"type\":\"bool\"}],\"stateMutability\":\"view\",\"type\":\"function\"},{\"inputs\":[],\"name\":\"proxiableUUID\",\"outputs\":[{\"internalType\":\"bytes32\",\"name\":\"\",\"type\":\"bytes32\"}],\"stateMutability\":\"view\",\"type\":\"function\"},{\"inputs\":[],\"name\":\"renounceOwnership\",\"outputs\":[],\"stateMutability\":\"nonpayable\",\"type\":\"function\"},{\"inputs\":[{\"internalType\":\"bytes32\",\"name\":\"role\",\"type\":\"bytes32\"},{\"internalType\":\"address\",\"name\":\"callerConfirmation\",\"type\":\"address\"}],\"name\":\"renounceRole\",\"outputs\":[],\"stateMutability\":\"nonpayable\",\"type\":\"function\"},{\"inputs\":[{\"internalType\":\"bytes32\",\"name\":\"role\",\"type\":\"bytes32\"},{\"internalType\":\"address\",\"name\":\"account\",\"type\":\"address\"}],\"name\":\"revokeRole\",\"outputs\":[],\"stateMutability\":\"nonpayable\",\"type\":\"function\"},{\"inputs\":[{\"internalType\":\"uint256\",\"name\":\"tokenId\",\"type\":\"uint256\"},{\"internalType\":\"uint256\",\"name\":\"salePrice\",\"type\":\"uint256\"}],\"name\":\"royaltyInfo\",\"outputs\":[{\"internalType\":\"address\",\"name\":\"\",\"type\":\"address\"},{\"internalType\":\"uint256\",\"name\":\"\",\"type\":\"uint256\"}],\"stateMutability\":\"view\",\"type\":\"function\"},{\"inputs\":[{\"internalType\":\"address\",\"name\":\"to\",\"type\":\"address\"},{\"internalType\":\"string\",\"name\":\"uri\",\"type\":\"string\"}],\"name\":\"safeMint\",\"outputs\":[],\"stateMutability\":\"nonpayable\",\"type\":\"function\"},{\"inputs\":[{\"internalType\":\"address\",\"name\":\"from\",\"type\":\"address\"},{\"internalType\":\"address\",\"name\":\"to\",\"type\":\"address\"},{\"internalType\":\"uint256\",\"name\":\"tokenId\",\"type\":\"uint256\"}],\"name\":\"safeTransferFrom\",\"outputs\":[],\"stateMutability\":\"nonpayable\",\"type\":\"function\"},{\"inputs\":[{\"internalType\":\"address\",\"name\":\"from\",\"type\":\"address\"},{\"internalType\":\"address\",\"name\":\"to\",\"type\":\"address\"},{\"internalType\":\"uint256\",\"name\":\"tokenId\",\"type\":\"uint256\"},{\"internalType\":\"bytes\",\"name\":\"data\",\"type\":\"bytes\"}],\"name\":\"safeTransferFrom\",\"outputs\":[],\"stateMutability\":\"nonpayable\",\"type\":\"function\"},{\"inputs\":[{\"internalType\":\"address\",\"name\":\"operator\",\"type\":\"address\"},{\"internalType\":\"bool\",\"name\":\"approved\",\"type\":\"bool\"}],\"name\":\"setApprovalForAll\",\"outputs\":[],\"stateMutability\":\"nonpayable\",\"type\":\"function\"},{\"inputs\":[{\"internalType\":\"string\",\"name\":\"baseURI\",\"type\":\"string\"}],\"name\":\"setBaseURI\",\"outputs\":[],\"stateMutability\":\"nonpayable\",\"type\":\"function\"},{\"inputs\":[{\"internalType\":\"bytes4\",\"name\":\"interfaceId\",\"type\":\"bytes4\"}],\"name\":\"supportsInterface\",\"outputs\":[{\"internalType\":\"bool\",\"name\":\"\",\"type\":\"bool\"}],\"stateMutability\":\"view\",\"type\":\"function\"},{\"inputs\":[],\"name\":\"symbol\",\"outputs\":[{\"internalType\":\"string\",\"name\":\"\",\"type\":\"string\"}],\"stateMutability\":\"view\",\"type\":\"function\"},{\"inputs\":[{\"internalType\":\"uint256\",\"name\":\"index\",\"type\":\"uint256\"}],\"name\":\"tokenByIndex\",\"outputs\":[{\"internalType\":\"uint256\",\"name\":\"\",\"type\":\"uint256\"}],\"stateMutability\":\"view\",\"type\":\"function\"},{\"inputs\":[{\"internalType\":\"address\",\"name\":\"owner\",\"type\":\"address\"},{\"internalType\":\"uint256\",\"name\":\"index\",\"type\":\"uint256\"}],\"name\":\"tokenOfOwnerByIndex\",\"outputs\":[{\"internalType\":\"uint256\",\"name\":\"\",\"type\":\"uint256\"}],\"stateMutability\":\"view\",\"type\":\"function\"},{\"inputs\":[{\"internalType\":\"uint256\",\"name\":\"tokenId\",\"type\":\"uint256\"}],\"name\":\"tokenURI\",\"outputs\":[{\"internalType\":\"string\",\"name\":\"\",\"type\":\"string\"}],\"stateMutability\":\"view\",\"type\":\"function\"},{\"inputs\":[],\"name\":\"totalSupply\",\"outputs\":[{\"internalType\":\"uint256\",\"name\":\"\",\"type\":\"uint256\"}],\"stateMutability\":\"view\",\"type\":\"function\"},{\"inputs\":[{\"internalType\":\"address\",\"name\":\"from\",\"type\":\"address\"},{\"internalType\":\"address\",\"name\":\"to\",\"type\":\"address\"},{\"internalType\":\"uint256\",\"name\":\"tokenId\",\"type\":\"uint256\"}],\"name\":\"transferFrom\",\"outputs\":[],\"stateMutability\":\"nonpayable\",\"type\":\"function\"},{\"inputs\":[{\"internalType\":\"address\",\"name\":\"newOwner\",\"type\":\"address\"}],\"name\":\"transferOwnership\",\"outputs\":[],\"stateMutability\":\"nonpayable\",\"type\":\"function\"},{\"inputs\":[],\"name\":\"unpause\",\"outputs\":[],\"stateMutability\":\"nonpayable\",\"type\":\"function\"},{\"inputs\":[{\"internalType\":\"address\",\"name\":\"newImplementation\",\"type\":\"address\"},{\"internalType\":\"bytes\",\"name\":\"data\",\"type\":\"bytes\"}],\"name\":\"upgradeToAndCall\",\"outputs\":[],\"stateMutability\":\"payable\",\"type\":\"function\"}]);\nvar scumwalkers = scumwalkersContract.deploy({\n     data: '0x60a06040523073ffffffffffffffffffffffffffffffffffffffff1660809073ffffffffffffffffffffffffffffffffffffffff1681525034801562000043575f80fd5b50620000546200005a60201b60201c565b620001c4565b5f6200006b6200015e60201b60201c565b9050805f0160089054906101000a900460ff1615620000b6576040517ff92ee8a900000000000000000000000000000000000000000000000000000000815260040160405180910390fd5b67ffffffffffffffff8016815f015f9054906101000a900467ffffffffffffffff1667ffffffffffffffff16146200015b5767ffffffffffffffff815f015f6101000a81548167ffffffffffffffff021916908367ffffffffffffffff1602179055507fc7f505b2f371ae2175ee4913f4499e1f2633a7b5936321eed1cdaeb6115181d267ffffffffffffffff604051620001529190620001a9565b60405180910390a15b50565b5f7ff0c57e16840df040f15088dc2f81fe391c3923bec73e23a9662efc9c229c6a00905090565b5f67ffffffffffffffff82169050919050565b620001a38162000185565b82525050565b5f602082019050620001be5f83018462000198565b92915050565b608051615754620001eb5f395f8181611c7b01528181611cd00152611e8a01526157545ff3fe60806040526004361061023a575f3560e01c806370a082311161012d578063a22cb465116100aa578063ca15c8731161006e578063ca15c8731461086b578063d204c45e146108a7578063d547741f146108cf578063e985e9c5146108f7578063f2fde38b146109335761023a565b8063a22cb4651461078d578063ad3cb1cc146107b5578063b88d4fde146107df578063c4d66de814610807578063c87b56dd1461082f5761023a565b80638da5cb5b116100f15780638da5cb5b146106975780639010d07c146106c157806391d14854146106fd57806395d89b4114610739578063a217fddf146107635761023a565b806370a08231146105d5578063715018a6146106115780638456cb591461062757806384b0196e1461063d57806384d6e6e21461066d5761023a565b806336568abe116101bb5780634f6ccce71161017f5780634f6ccce7146104e157806352d1902d1461051d57806355f804b3146105475780635c975abb1461056f5780636352211e146105995761023a565b806336568abe146104375780633f4ba83a1461045f57806342842e0e1461047557806342966c681461049d5780634f1ef286146104c55761023a565b806323b872dd1161020257806323b872dd14610332578063248a9ca31461035a5780632a55205a146103965780632f2ff15d146103d35780632f745c59146103fb5761023a565b806301ffc9a71461023e57806306fdde031461027a578063081812fc146102a4578063095ea7b3146102e057806318160ddd14610308575b5f80fd5b348015610249575f80fd5b50610264600480360381019061025f91906145e2565b61095b565b6040516102719190614627565b60405180910390f35b348015610285575f80fd5b5061028e61096c565b60405161029b91906146ca565b60405180910390f35b3480156102af575f80fd5b506102ca60048036038101906102c5919061471d565b610a09565b6040516102d79190614787565b60405180910390f35b3480156102eb575f80fd5b50610306600480360381019061030191906147ca565b610a24565b005b348015610313575f80fd5b5061031c610a3a565b6040516103299190614817565b60405180910390f35b34801561033d575f80fd5b5061035860048036038101906103539190614830565b610a54565b005b348015610365575f80fd5b50610380600480360381019061037b91906148b3565b610b53565b60405161038d91906148ed565b60405180910390f35b3480156103a1575f80fd5b506103bc60048036038101906103b79190614906565b610b7d565b6040516103ca929190614944565b60405180910390f35b3480156103de575f80fd5b506103f960048036038101906103f4919061496b565b610d68565b005b348015610406575f80fd5b50610421600480360381019061041c91906147ca565b610d8a565b60405161042e9190614817565b60405180910390f35b348015610442575f80fd5b5061045d6004803603810190610458919061496b565b610e3b565b005b34801561046a575f80fd5b50610473610eb6565b005b348015610480575f80fd5b5061049b60048036038101906104969190614830565b610ec8565b005b3480156104a8575f80fd5b506104c360048036038101906104be919061471d565b610ee7565b005b6104df60048036038101906104da9190614ad5565b610efd565b005b3480156104ec575f80fd5b506105076004803603810190610502919061471d565b610f1c565b6040516105149190614817565b60405180910390f35b348015610528575f80fd5b50610531610f9c565b60405161053e91906148ed565b60405180910390f35b348015610552575f80fd5b5061056d60048036038101906105689190614bcd565b610fcd565b005b34801561057a575f80fd5b50610583610fe8565b6040516105909190614627565b60405180910390f35b3480156105a4575f80fd5b506105bf60048036038101906105ba919061471d565b61100a565b6040516105cc9190614787565b60405180910390f35b3480156105e0575f80fd5b506105fb60048036038101906105f69190614c14565b61101b565b6040516106089190614817565b60405180910390f35b34801561061c575f80fd5b506106256110df565b005b348015610632575f80fd5b5061063b6110f2565b005b348015610648575f80fd5b50610651611104565b6040516106649796959493929190614d30565b60405180910390f35b348015610678575f80fd5b5061068161120d565b60405161068e91906146ca565b60405180910390f35b3480156106a2575f80fd5b506106ab61129d565b6040516106b89190614787565b60405180910390f35b3480156106cc575f80fd5b506106e760048036038101906106e29190614db2565b6112d2565b6040516106f49190614787565b60405180910390f35b348015610708575f80fd5b50610723600480360381019061071e919061496b565b61130b565b6040516107309190614627565b60405180910390f35b348015610744575f80fd5b5061074d61137c565b60405161075a91906146ca565b60405180910390f35b34801561076e575f80fd5b5061077761141a565b60405161078491906148ed565b60405180910390f35b348015610798575f80fd5b506107b360048036038101906107ae9190614e1a565b611420565b005b3480156107c0575f80fd5b506107c9611436565b6040516107d691906146ca565b60405180910390f35b3480156107ea575f80fd5b5061080560048036038101906108009190614e58565b61146f565b005b348015610812575f80fd5b5061082d60048036038101906108289190614c14565b61148c565b005b34801561083a575f80fd5b506108556004803603810190610850919061471d565b611715565b60405161086291906146ca565b60405180910390f35b348015610876575f80fd5b50610891600480360381019061088c91906148b3565b611727565b60405161089e9190614817565b60405180910390f35b3480156108b2575f80fd5b506108cd60048036038101906108c89190614ed8565b611755565b005b3480156108da575f80fd5b506108f560048036038101906108f0919061496b565b61178e565b005b348015610902575f80fd5b5061091d60048036038101906109189190614f32565b6117b0565b60405161092a9190614627565b60405180910390f35b34801561093e575f80fd5b5061095960048036038101906109549190614c14565b61184c565b005b5f610965826118d0565b9050919050565b60605f610977611930565b9050805f01805461098790614f9d565b80601f01602080910402602001604051908101604052809291908181526020018280546109b390614f9d565b80156109fe5780601f106109d5576101008083540402835291602001916109fe565b820191905f5260205f20905b8154815290600101906020018083116109e157829003601f168201915b505050505091505090565b5f610a1382611957565b50610a1d826119dd565b9050919050565b610a368282610a31611a24565b611a2b565b5050565b5f80610a44611a3d565b9050806002018054905091505090565b5f73ffffffffffffffffffffffffffffffffffffffff168273ffffffffffffffffffffffffffffffffffffffff1603610ac4575f6040517f64a0ae92000000000000000000000000000000000000000000000000000000008152600401610abb9190614787565b60405180910390fd5b5f610ad78383610ad2611a24565b611a64565b90508373ffffffffffffffffffffffffffffffffffffffff168173ffffffffffffffffffffffffffffffffffffffff1614610b4d578382826040517f64283d7b000000000000000000000000000000000000000000000000000000008152600401610b4493929190614fcd565b60405180910390fd5b50505050565b5f80610b5d611a79565b9050805f015f8481526020019081526020015f2060010154915050919050565b5f805f610b88611aa0565b90505f816001015f8781526020019081526020015f206040518060400160405290815f82015f9054906101000a900473ffffffffffffffffffffffffffffffffffffffff1673ffffffffffffffffffffffffffffffffffffffff1673ffffffffffffffffffffffffffffffffffffffff1681526020015f820160149054906101000a90046bffffffffffffffffffffffff166bffffffffffffffffffffffff166bffffffffffffffffffffffff168152505090505f73ffffffffffffffffffffffffffffffffffffffff16815f015173ffffffffffffffffffffffffffffffffffffffff1603610d1457815f016040518060400160405290815f82015f9054906101000a900473ffffffffffffffffffffffffffffffffffffffff1673ffffffffffffffffffffffffffffffffffffffff1673ffffffffffffffffffffffffffffffffffffffff1681526020015f820160149054906101000a90046bffffffffffffffffffffffff166bffffffffffffffffffffffff166bffffffffffffffffffffffff168152505090505b5f610d1d611ac7565b6bffffffffffffffffffffffff1682602001516bffffffffffffffffffffffff1687610d49919061502f565b610d53919061509d565b9050815f015181945094505050509250929050565b610d7182610b53565b610d7a81611ad0565b610d848383611ae4565b50505050565b5f80610d94611a3d565b9050610d9f8461101b565b8310610de45783836040517fa57d13dc000000000000000000000000000000000000000000000000000000008152600401610ddb929190614944565b60405180910390fd5b805f015f8573ffffffffffffffffffffffffffffffffffffffff1673ffffffffffffffffffffffffffffffffffffffff1681526020019081526020015f205f8481526020019081526020015f205491505092915050565b610e43611a24565b73ffffffffffffffffffffffffffffffffffffffff168173ffffffffffffffffffffffffffffffffffffffff1614610ea7576040517f6697b23200000000000000000000000000000000000000000000000000000000815260040160405180910390fd5b610eb18282611b34565b505050565b610ebe611b84565b610ec6611c0b565b565b610ee283838360405180602001604052805f81525061146f565b505050565b610ef95f82610ef4611a24565b611a64565b5050565b610f05611c79565b610f0e82611d5f565b610f188282611d6a565b5050565b5f80610f26611a3d565b9050610f30610a3a565b8310610f75575f836040517fa57d13dc000000000000000000000000000000000000000000000000000000008152600401610f6c929190614944565b60405180910390fd5b806002018381548110610f8b57610f8a6150cd565b5b905f5260205f200154915050919050565b5f610fa5611e88565b7f360894a13ba1a3210667c828492db98dca3e2076cc3735a920a3ca505d382bbc5f1b905090565b610fd5611b84565b8060019081610fe49190615297565b5050565b5f80610ff2611f0f565b9050805f015f9054906101000a900460ff1691505090565b5f61101482611957565b9050919050565b5f80611025611930565b90505f73ffffffffffffffffffffffffffffffffffffffff168373ffffffffffffffffffffffffffffffffffffffff1603611097575f6040517f89c62b6400000000000000000000000000000000000000000000000000000000815260040161108e9190614787565b60405180910390fd5b806003015f8473ffffffffffffffffffffffffffffffffffffffff1673ffffffffffffffffffffffffffffffffffffffff1681526020019081526020015f2054915050919050565b6110e7611b84565b6110f05f611f36565b565b6110fa611b84565b611102612007565b565b5f6060805f805f60605f611116612076565b90505f801b815f015414801561113157505f801b8160010154145b611170576040517f08c379a0000000000000000000000000000000000000000000000000000000008152600401611167906153b0565b60405180910390fd5b61117861209d565b61118061213b565b46305f801b5f67ffffffffffffffff81111561119f5761119e6149b1565b5b6040519080825280602002602001820160405280156111cd5781602001602082028036833780820191505090505b507f0f0000000000000000000000000000000000000000000000000000000000000095949392919097509750975097509750975097505090919293949596565b60606001805461121c90614f9d565b80601f016020809104026020016040519081016040528092919081815260200182805461124890614f9d565b80156112935780601f1061126a57610100808354040283529160200191611293565b820191905f5260205f20905b81548152906001019060200180831161127657829003601f168201915b5050505050905090565b5f806112a76121d9565b9050805f015f9054906101000a900473ffffffffffffffffffffffffffffffffffffffff1691505090565b5f806112dc612200565b905061130283825f015f8781526020019081526020015f2061222790919063ffffffff16565b91505092915050565b5f80611315611a79565b9050805f015f8581526020019081526020015f205f015f8473ffffffffffffffffffffffffffffffffffffffff1673ffffffffffffffffffffffffffffffffffffffff1681526020019081526020015f205f9054906101000a900460ff1691505092915050565b60605f611387611930565b905080600101805461139890614f9d565b80601f01602080910402602001604051908101604052809291908181526020018280546113c490614f9d565b801561140f5780601f106113e65761010080835404028352916020019161140f565b820191905f5260205f20905b8154815290600101906020018083116113f257829003601f168201915b505050505091505090565b5f801b81565b61143261142b611a24565b838361223e565b5050565b6040518060400160405280600581526020017f352e302e3000000000000000000000000000000000000000000000000000000081525081565b61147a848484610a54565b611486848484846123b5565b50505050565b5f611495612567565b90505f815f0160089054906101000a900460ff161590505f825f015f9054906101000a900467ffffffffffffffff1690505f808267ffffffffffffffff161480156114dd5750825b90505f60018367ffffffffffffffff1614801561151057505f3073ffffffffffffffffffffffffffffffffffffffff163b145b90508115801561151e575080155b15611555576040517ff92ee8a900000000000000000000000000000000000000000000000000000000815260040160405180910390fd5b6001855f015f6101000a81548167ffffffffffffffff021916908367ffffffffffffffff16021790555083156115a2576001855f0160086101000a81548160ff0219169083151502179055505b6116166040518060400160405280600b81526020017f5343554d57616c6b6572730000000000000000000000000000000000000000008152506040518060400160405280600281526020017f535700000000000000000000000000000000000000000000000000000000000081525061258e565b61161e6125a4565b6116266125ae565b61162e6125b8565b611637866125ca565b61163f6125de565b6116b36040518060400160405280600b81526020017f5343554d57616c6b6572730000000000000000000000000000000000000000008152506040518060400160405280600181526020017f31000000000000000000000000000000000000000000000000000000000000008152506125e8565b831561170d575f855f0160086101000a81548160ff0219169083151502179055507fc7f505b2f371ae2175ee4913f4499e1f2633a7b5936321eed1cdaeb6115181d26001604051611704919061541a565b60405180910390a15b505050505050565b6060611720826125fe565b9050919050565b5f80611731612200565b905061174d815f015f8581526020019081526020015f20612718565b915050919050565b61175d611b84565b5f805f81548092919061176f90615433565b91905055905061177f838261272b565b6117898183612748565b505050565b61179782610b53565b6117a081611ad0565b6117aa8383611b34565b50505050565b5f806117ba611930565b9050806005015f8573ffffffffffffffffffffffffffffffffffffffff1673ffffffffffffffffffffffffffffffffffffffff1681526020019081526020015f205f8473ffffffffffffffffffffffffffffffffffffffff1673ffffffffffffffffffffffffffffffffffffffff1681526020019081526020015f205f9054906101000a900460ff1691505092915050565b611854611b84565b5f73ffffffffffffffffffffffffffffffffffffffff168173ffffffffffffffffffffffffffffffffffffffff16036118c4575f6040517f1e4fbdf70000000000000000000000000000000000000000000000000000000081526004016118bb9190614787565b60405180910390fd5b6118cd81611f36565b50565b5f634906490660e01b7bffffffffffffffffffffffffffffffffffffffffffffffffffffffff1916827bffffffffffffffffffffffffffffffffffffffffffffffffffffffff191614806119295750611928826127af565b5b9050919050565b5f7f80bb2b638cc20bc4d0a60d66940f3ab4a00c1d7b313497ca82fb0b4ab0079300905090565b5f8061196283612828565b90505f73ffffffffffffffffffffffffffffffffffffffff168173ffffffffffffffffffffffffffffffffffffffff16036119d457826040517f7e2732890000000000000000000000000000000000000000000000000000000081526004016119cb9190614817565b60405180910390fd5b80915050919050565b5f806119e7611930565b9050806004015f8481526020019081526020015f205f9054906101000a900473ffffffffffffffffffffffffffffffffffffffff16915050919050565b5f33905090565b611a388383836001612839565b505050565b5f7f645e039705490088daad89bae25049a34f4a9072d398537b1ab2425f24cbed00905090565b5f611a70848484612a06565b90509392505050565b5f7f02dd7bc7dec4dceedda775e58dd541e08a116c6c53815c0bd028192f7b626800905090565b5f7fdaedc9ab023613a7caf35e703657e986ccfad7e3eb0af93a2853f8d65dd86b00905090565b5f612710905090565b611ae181611adc611a24565b612a23565b50565b5f80611aee612200565b90505f611afb8585612a74565b90508015611b2957611b2784835f015f8881526020019081526020015f20612b6c90919063ffffffff16565b505b809250505092915050565b5f80611b3e612200565b90505f611b4b8585612b99565b90508015611b7957611b7784835f015f8881526020019081526020015f20612c9190919063ffffffff16565b505b809250505092915050565b611b8c611a24565b73ffffffffffffffffffffffffffffffffffffffff16611baa61129d565b73ffffffffffffffffffffffffffffffffffffffff1614611c0957611bcd611a24565b6040517f118cdaa7000000000000000000000000000000000000000000000000000000008152600401611c009190614787565b60405180910390fd5b565b611c13612cbe565b5f611c1c611f0f565b90505f815f015f6101000a81548160ff0219169083151502179055507f5db9ee0a495bf2e6ff9c91a7834c1ba4fdd244a5e8aa4e537bd38aeae4b073aa611c61611a24565b604051611c6e9190614787565b60405180910390a150565b7f000000000000000000000000000000000000000000000000000000000000000073ffffffffffffffffffffffffffffffffffffffff163073ffffffffffffffffffffffffffffffffffffffff161480611d2657507f000000000000000000000000000000000000000000000000000000000000000073ffffffffffffffffffffffffffffffffffffffff16611d0d612cfe565b73ffffffffffffffffffffffffffffffffffffffff1614155b15611d5d576040517fe07c8dba00000000000000000000000000000000000000000000000000000000815260040160405180910390fd5b565b611d67611b84565b50565b8173ffffffffffffffffffffffffffffffffffffffff166352d1902d6040518163ffffffff1660e01b8152600401602060405180830381865afa925050508015611dd257506040513d601f19601f82011682018060405250810190611dcf919061548e565b60015b611e1357816040517f4c9c8ce3000000000000000000000000000000000000000000000000000000008152600401611e0a9190614787565b60405180910390fd5b7f360894a13ba1a3210667c828492db98dca3e2076cc3735a920a3ca505d382bbc5f1b8114611e7957806040517faa1d49a4000000000000000000000000000000000000000000000000000000008152600401611e7091906148ed565b60405180910390fd5b611e838383612d51565b505050565b7f000000000000000000000000000000000000000000000000000000000000000073ffffffffffffffffffffffffffffffffffffffff163073ffffffffffffffffffffffffffffffffffffffff1614611f0d576040517fe07c8dba00000000000000000000000000000000000000000000000000000000815260040160405180910390fd5b565b5f7fcd5ed15c6e187e77e9aee88184c21f4f2182ab5827cb3b7e07fbedcd63f03300905090565b5f611f3f6121d9565b90505f815f015f9054906101000a900473ffffffffffffffffffffffffffffffffffffffff16905082825f015f6101000a81548173ffffffffffffffffffffffffffffffffffffffff021916908373ffffffffffffffffffffffffffffffffffffffff1602179055508273ffffffffffffffffffffffffffffffffffffffff168173ffffffffffffffffffffffffffffffffffffffff167f8be0079c531659141344cd1fd0a4f28419497f9722a3daafe3b4186f6b6457e060405160405180910390a3505050565b61200f612dc3565b5f612018611f0f565b90506001815f015f6101000a81548160ff0219169083151502179055507f62e78cea01bee320cd4e420270b5ea74000d11b0c9f74754ebdbfc544b05a25861205e611a24565b60405161206b9190614787565b60405180910390a150565b5f7fa16a46d94261c7517cc8ff89f61c0ce93598e3c849801011dee649a6a557d100905090565b60605f6120a8612076565b90508060020180546120b990614f9d565b80601f01602080910402602001604051908101604052809291908181526020018280546120e590614f9d565b80156121305780601f1061210757610100808354040283529160200191612130565b820191905f5260205f20905b81548152906001019060200180831161211357829003601f168201915b505050505091505090565b60605f612146612076565b905080600301805461215790614f9d565b80601f016020809104026020016040519081016040528092919081815260200182805461218390614f9d565b80156121ce5780601f106121a5576101008083540402835291602001916121ce565b820191905f5260205f20905b8154815290600101906020018083116121b157829003601f168201915b505050505091505090565b5f7f9016d09d72d40fdae2fd8ceac6b6234c7706214fd39c1cd1e609a0528c199300905090565b5f7fc1f6fe24621ce81ec5827caf0253cadb74709b061630e6b55e82371705932000905090565b5f612234835f0183612e04565b5f1c905092915050565b5f612247611930565b90505f73ffffffffffffffffffffffffffffffffffffffff168373ffffffffffffffffffffffffffffffffffffffff16036122b957826040517f5b08ba180000000000000000000000000000000000000000000000000000000081526004016122b09190614787565b60405180910390fd5b81816005015f8673ffffffffffffffffffffffffffffffffffffffff1673ffffffffffffffffffffffffffffffffffffffff1681526020019081526020015f205f8573ffffffffffffffffffffffffffffffffffffffff1673ffffffffffffffffffffffffffffffffffffffff1681526020019081526020015f205f6101000a81548160ff0219169083151502179055508273ffffffffffffffffffffffffffffffffffffffff168473ffffffffffffffffffffffffffffffffffffffff167f17307eab39ab6107e8899845ad3d59bd9653f200f220920489ca2b5937696c31846040516123a79190614627565b60405180910390a350505050565b5f8373ffffffffffffffffffffffffffffffffffffffff163b1115612561578273ffffffffffffffffffffffffffffffffffffffff1663150b7a026123f8611a24565b8685856040518563ffffffff1660e01b815260040161241a949392919061550b565b6020604051808303815f875af192505050801561245557506040513d601f19601f820116820180604052508101906124529190615569565b60015b6124d6573d805f8114612483576040519150601f19603f3d011682016040523d82523d5f602084013e612488565b606091505b505f8151036124ce57836040517f64a0ae920000000000000000000000000000000000000000000000000000000081526004016124c59190614787565b60405180910390fd5b805181602001fd5b63150b7a0260e01b7bffffffffffffffffffffffffffffffffffffffffffffffffffffffff1916817bffffffffffffffffffffffffffffffffffffffffffffffffffffffff19161461255f57836040517f64a0ae920000000000000000000000000000000000000000000000000000000081526004016125569190614787565b60405180910390fd5b505b50505050565b5f7ff0c57e16840df040f15088dc2f81fe391c3923bec73e23a9662efc9c229c6a00905090565b612596612e2b565b6125a08282612e6b565b5050565b6125ac612e2b565b565b6125b6612e2b565b565b6125c0612e2b565b6125c8612ea6565b565b6125d2612e2b565b6125db81612ed6565b50565b6125e6612e2b565b565b6125f0612e2b565b6125fa8282612f5a565b5050565b60605f612609612fab565b905061261483611957565b505f815f015f8581526020019081526020015f20805461263390614f9d565b80601f016020809104026020016040519081016040528092919081815260200182805461265f90614f9d565b80156126aa5780601f10612681576101008083540402835291602001916126aa565b820191905f5260205f20905b81548152906001019060200180831161268d57829003601f168201915b505050505090505f6126ba612fd2565b90505f8151036126cf57819350505050612713565b5f825111156127045780826040516020016126eb9291906155ce565b6040516020818303038152906040529350505050612713565b61270d85612fe8565b93505050505b919050565b5f612724825f0161304e565b9050919050565b612744828260405180602001604052805f81525061305d565b5050565b5f612751612fab565b905081815f015f8581526020019081526020015f2090816127729190615297565b507ff8e1a15aba9398e019f0b49df1a4fde98ee17ae345cb5f6b5e2c27f5033e8ce7836040516127a29190614817565b60405180910390a1505050565b5f7f780e9d63000000000000000000000000000000000000000000000000000000007bffffffffffffffffffffffffffffffffffffffffffffffffffffffff1916827bffffffffffffffffffffffffffffffffffffffffffffffffffffffff19161480612821575061282082613078565b5b9050919050565b5f612832826130f1565b9050919050565b5f612842611930565b9050818061287c57505f73ffffffffffffffffffffffffffffffffffffffff168373ffffffffffffffffffffffffffffffffffffffff1614155b156129ae575f61288b85611957565b90505f73ffffffffffffffffffffffffffffffffffffffff168473ffffffffffffffffffffffffffffffffffffffff16141580156128f557508373ffffffffffffffffffffffffffffffffffffffff168173ffffffffffffffffffffffffffffffffffffffff1614155b8015612908575061290681856117b0565b155b1561294a57836040517fa9fbf51f0000000000000000000000000000000000000000000000000000000081526004016129419190614787565b60405180910390fd5b82156129ac57848673ffffffffffffffffffffffffffffffffffffffff168273ffffffffffffffffffffffffffffffffffffffff167f8c5be1e5ebec7d5bd14f71427d1e84f3dd0314c0f7b2291e5b200ac8c7c3b92560405160405180910390a45b505b84816004015f8681526020019081526020015f205f6101000a81548173ffffffffffffffffffffffffffffffffffffffff021916908373ffffffffffffffffffffffffffffffffffffffff1602179055505050505050565b5f612a0f612dc3565b612a1a848484613138565b90509392505050565b612a2d828261130b565b612a705780826040517fe2517d3f000000000000000000000000000000000000000000000000000000008152600401612a679291906155f1565b60405180910390fd5b5050565b5f80612a7e611a79565b9050612a8a848461130b565b612b61576001815f015f8681526020019081526020015f205f015f8573ffffffffffffffffffffffffffffffffffffffff1673ffffffffffffffffffffffffffffffffffffffff1681526020019081526020015f205f6101000a81548160ff021916908315150217905550612afd611a24565b73ffffffffffffffffffffffffffffffffffffffff168373ffffffffffffffffffffffffffffffffffffffff16857f2f8788117e7eff1d82e926ec794901d17c78024a50270940304540a733656f0d60405160405180910390a46001915050612b66565b5f9150505b92915050565b5f612b91835f018373ffffffffffffffffffffffffffffffffffffffff165f1b613252565b905092915050565b5f80612ba3611a79565b9050612baf848461130b565b15612c86575f815f015f8681526020019081526020015f205f015f8573ffffffffffffffffffffffffffffffffffffffff1673ffffffffffffffffffffffffffffffffffffffff1681526020019081526020015f205f6101000a81548160ff021916908315150217905550612c22611a24565b73ffffffffffffffffffffffffffffffffffffffff168373ffffffffffffffffffffffffffffffffffffffff16857ff6391f5c32d9c69d2a47ea670b442974b53935d1edc7fd64eb21e047a839171b60405160405180910390a46001915050612c8b565b5f9150505b92915050565b5f612cb6835f018373ffffffffffffffffffffffffffffffffffffffff165f1b6132b9565b905092915050565b612cc6610fe8565b612cfc576040517f8dfc202b00000000000000000000000000000000000000000000000000000000815260040160405180910390fd5b565b5f612d2a7f360894a13ba1a3210667c828492db98dca3e2076cc3735a920a3ca505d382bbc5f1b6133b5565b5f015f9054906101000a900473ffffffffffffffffffffffffffffffffffffffff16905090565b612d5a826133be565b8173ffffffffffffffffffffffffffffffffffffffff167fbc7cd75a20ee27fd9adebab32041f755214dbc6bffa90cc0225b39da2e5c2d3b60405160405180910390a25f81511115612db657612db08282613487565b50612dbf565b612dbe613507565b5b5050565b612dcb610fe8565b15612e02576040517fd93c066500000000000000000000000000000000000000000000000000000000815260040160405180910390fd5b565b5f825f018281548110612e1a57612e196150cd565b5b905f5260205f200154905092915050565b612e33613543565b612e69576040517fd7e6bcf800000000000000000000000000000000000000000000000000000000815260040160405180910390fd5b565b612e73612e2b565b5f612e7c611930565b905082815f019081612e8e9190615297565b5081816001019081612ea09190615297565b50505050565b612eae612e2b565b5f612eb7611f0f565b90505f815f015f6101000a81548160ff02191690831515021790555050565b612ede612e2b565b5f73ffffffffffffffffffffffffffffffffffffffff168173ffffffffffffffffffffffffffffffffffffffff1603612f4e575f6040517f1e4fbdf7000000000000000000000000000000000000000000000000000000008152600401612f459190614787565b60405180910390fd5b612f5781611f36565b50565b612f62612e2b565b5f612f6b612076565b905082816002019081612f7e9190615297565b5081816003019081612f909190615297565b505f801b815f01819055505f801b8160010181905550505050565b5f7f0542a41881ee128a365a727b282c86fa859579490b9bb45aab8503648c8e7900905090565b606060405180602001604052805f815250905090565b6060612ff382611957565b505f612ffd612fd2565b90505f81511161301b5760405180602001604052805f815250613046565b8061302584613561565b6040516020016130369291906155ce565b6040516020818303038152906040525b915050919050565b5f815f01805490509050919050565b613067838361362b565b6130735f8484846123b5565b505050565b5f7f2a55205a000000000000000000000000000000000000000000000000000000007bffffffffffffffffffffffffffffffffffffffffffffffffffffffff1916827bffffffffffffffffffffffffffffffffffffffffffffffffffffffff191614806130ea57506130e98261371e565b5b9050919050565b5f806130fb611930565b9050806002015f8481526020019081526020015f205f9054906101000a900473ffffffffffffffffffffffffffffffffffffffff16915050919050565b5f80613145858585613797565b90505f73ffffffffffffffffffffffffffffffffffffffff168173ffffffffffffffffffffffffffffffffffffffff160361318857613183846138cf565b6131c7565b8473ffffffffffffffffffffffffffffffffffffffff168173ffffffffffffffffffffffffffffffffffffffff16146131c6576131c58185613925565b5b5b5f73ffffffffffffffffffffffffffffffffffffffff168573ffffffffffffffffffffffffffffffffffffffff16036132085761320384613a84565b613247565b8473ffffffffffffffffffffffffffffffffffffffff168173ffffffffffffffffffffffffffffffffffffffff1614613246576132458585613b5e565b5b5b809150509392505050565b5f61325d8383613bf1565b6132af57825f0182908060018154018082558091505060019003905f5260205f20015f9091909190915055825f0180549050836001015f8481526020019081526020015f2081905550600190506132b3565b5f90505b92915050565b5f80836001015f8481526020019081526020015f205490505f81146133aa575f6001826132e69190615618565b90505f6001865f01805490506132fc9190615618565b9050808214613362575f865f01828154811061331b5761331a6150cd565b5b905f5260205f200154905080875f01848154811061333c5761333b6150cd565b5b905f5260205f20018190555083876001015f8381526020019081526020015f2081905550505b855f018054806133755761337461564b565b5b600190038181905f5260205f20015f90559055856001015f8681526020019081526020015f205f9055600193505050506133af565b5f9150505b92915050565b5f819050919050565b5f8173ffffffffffffffffffffffffffffffffffffffff163b0361341957806040517f4c9c8ce30000000000000000000000000000000000000000000000000000000081526004016134109190614787565b60405180910390fd5b806134457f360894a13ba1a3210667c828492db98dca3e2076cc3735a920a3ca505d382bbc5f1b6133b5565b5f015f6101000a81548173ffffffffffffffffffffffffffffffffffffffff021916908373ffffffffffffffffffffffffffffffffffffffff16021790555050565b60605f808473ffffffffffffffffffffffffffffffffffffffff16846040516134b091906156b2565b5f60405180830381855af49150503d805f81146134e8576040519150601f19603f3d011682016040523d82523d5f602084013e6134ed565b606091505b50915091506134fd858383613c11565b9250505092915050565b5f341115613541576040517fb398979f00000000000000000000000000000000000000000000000000000000815260040160405180910390fd5b565b5f61354c612567565b5f0160089054906101000a900460ff16905090565b60605f600161356f84613c9e565b0190505f8167ffffffffffffffff81111561358d5761358c6149b1565b5b6040519080825280601f01601f1916602001820160405280156135bf5781602001600182028036833780820191505090505b5090505f82602001820190505b600115613620578080600190039150507f3031323334353637383961626364656600000000000000000000000000000000600a86061a8153600a858161361557613614615070565b5b0494505f85036135cc575b819350505050919050565b5f73ffffffffffffffffffffffffffffffffffffffff168273ffffffffffffffffffffffffffffffffffffffff160361369b575f6040517f64a0ae920000000000000000000000000000000000000000000000000000000081526004016136929190614787565b60405180910390fd5b5f6136a783835f611a64565b90505f73ffffffffffffffffffffffffffffffffffffffff168173ffffffffffffffffffffffffffffffffffffffff1614613719575f6040517f73c6ac6e0000000000000000000000000000000000000000000000000000000081526004016137109190614787565b60405180910390fd5b505050565b5f7f5a05180f000000000000000000000000000000000000000000000000000000007bffffffffffffffffffffffffffffffffffffffffffffffffffffffff1916827bffffffffffffffffffffffffffffffffffffffffffffffffffffffff19161480613790575061378f82613def565b5b9050919050565b5f806137a1613ed0565b90505f6137af868686613ef7565b90505f73ffffffffffffffffffffffffffffffffffffffff168173ffffffffffffffffffffffffffffffffffffffff1614801561380257505f3073ffffffffffffffffffffffffffffffffffffffff163b145b15613839576040517fad89505200000000000000000000000000000000000000000000000000000000815260040160405180910390fd5b5f73ffffffffffffffffffffffffffffffffffffffff168673ffffffffffffffffffffffffffffffffffffffff161480156138885750613877614114565b6bffffffffffffffffffffffff1685105b80156138a757506138a5858360010161415a90919063ffffffff16565b155b156138c3576138c2858360010161419090919063ffffffff16565b5b80925050509392505050565b5f6138d8611a3d565b90508060020180549050816003015f8481526020019081526020015f20819055508060020182908060018154018082558091505060019003905f5260205f20015f90919091909150555050565b5f61392e611a3d565b90505f61393a8461101b565b90505f826001015f8581526020019081526020015f20549050818114613a17575f835f015f8773ffffffffffffffffffffffffffffffffffffffff1673ffffffffffffffffffffffffffffffffffffffff1681526020019081526020015f205f8481526020019081526020015f2054905080845f015f8873ffffffffffffffffffffffffffffffffffffffff1673ffffffffffffffffffffffffffffffffffffffff1681526020019081526020015f205f8481526020019081526020015f208190555081846001015f8381526020019081526020015f2081905550505b826001015f8581526020019081526020015f205f9055825f015f8673ffffffffffffffffffffffffffffffffffffffff1673ffffffffffffffffffffffffffffffffffffffff1681526020019081526020015f205f8381526020019081526020015f205f90555050505050565b5f613a8d611a3d565b90505f60018260020180549050613aa49190615618565b90505f826003015f8581526020019081526020015f205490505f836002018381548110613ad457613ad36150cd565b5b905f5260205f200154905080846002018381548110613af657613af56150cd565b5b905f5260205f20018190555081846003015f8381526020019081526020015f2081905550836003015f8681526020019081526020015f205f905583600201805480613b4457613b4361564b565b5b600190038181905f5260205f20015f905590555050505050565b5f613b67611a3d565b90505f6001613b758561101b565b613b7f9190615618565b905082825f015f8673ffffffffffffffffffffffffffffffffffffffff1673ffffffffffffffffffffffffffffffffffffffff1681526020019081526020015f205f8381526020019081526020015f208190555080826001015f8581526020019081526020015f208190555050505050565b5f80836001015f8481526020019081526020015f20541415905092915050565b606082613c2657613c21826141c8565b613c96565b5f8251148015613c4c57505f8473ffffffffffffffffffffffffffffffffffffffff163b145b15613c8e57836040517f9996b315000000000000000000000000000000000000000000000000000000008152600401613c859190614787565b60405180910390fd5b819050613c97565b5b9392505050565b5f805f90507a184f03e93ff9f4daa797ed6e38ed64bf6a1f0100000000000000008310613cfa577a184f03e93ff9f4daa797ed6e38ed64bf6a1f0100000000000000008381613cf057613cef615070565b5b0492506040810190505b6d04ee2d6d415b85acef81000000008310613d37576d04ee2d6d415b85acef81000000008381613d2d57613d2c615070565b5b0492506020810190505b662386f26fc100008310613d6657662386f26fc100008381613d5c57613d5b615070565b5b0492506010810190505b6305f5e1008310613d8f576305f5e1008381613d8557613d84615070565b5b0492506008810190505b6127108310613db4576127108381613daa57613da9615070565b5b0492506004810190505b60648310613dd75760648381613dcd57613dcc615070565b5b0492506002810190505b600a8310613de6576001810190505b80915050919050565b5f7f80ac58cd000000000000000000000000000000000000000000000000000000007bffffffffffffffffffffffffffffffffffffffffffffffffffffffff1916827bffffffffffffffffffffffffffffffffffffffffffffffffffffffff19161480613eb957507f5b5e139f000000000000000000000000000000000000000000000000000000007bffffffffffffffffffffffffffffffffffffffffffffffffffffffff1916827bffffffffffffffffffffffffffffffffffffffffffffffffffffffff1916145b80613ec95750613ec88261420c565b5b9050919050565b5f7f24de1071a22e1e6f709b09cc0dadb696f919b85b456665cd36195df4bc89ff00905090565b5f80613f01611930565b90505f613f0d85612828565b90505f73ffffffffffffffffffffffffffffffffffffffff168473ffffffffffffffffffffffffffffffffffffffff1614613f4e57613f4d818587614285565b5b5f73ffffffffffffffffffffffffffffffffffffffff168173ffffffffffffffffffffffffffffffffffffffff1614613fdb57613f8d5f865f80612839565b6001826003015f8373ffffffffffffffffffffffffffffffffffffffff1673ffffffffffffffffffffffffffffffffffffffff1681526020019081526020015f205f82825403925050819055505b5f73ffffffffffffffffffffffffffffffffffffffff168673ffffffffffffffffffffffffffffffffffffffff161461405c576001826003015f8873ffffffffffffffffffffffffffffffffffffffff1673ffffffffffffffffffffffffffffffffffffffff1681526020019081526020015f205f82825401925050819055505b85826002015f8781526020019081526020015f205f6101000a81548173ffffffffffffffffffffffffffffffffffffffff021916908373ffffffffffffffffffffffffffffffffffffffff160217905550848673ffffffffffffffffffffffffffffffffffffffff168273ffffffffffffffffffffffffffffffffffffffff167fddf252ad1be2c89b69c2b068fc378daa952ba7f163c4a11628f55a4df523b3ef60405160405180910390a480925050509392505050565b5f8061411e613ed0565b90505f8061412d835f01614348565b5091509150816141445761413f61443d565b614152565b60018161415191906156df565b5b935050505090565b5f80600883901c90505f60ff84166001901b90505f81865f015f8581526020019081526020015f20541614159250505092915050565b5f600882901c90505f60ff83166001901b905080845f015f8481526020019081526020015f205f828254179250508190555050505050565b5f815111156141da5780518082602001fd5b6040517f1425ea4200000000000000000000000000000000000000000000000000000000815260040160405180910390fd5b5f7f7965db0b000000000000000000000000000000000000000000000000000000007bffffffffffffffffffffffffffffffffffffffffffffffffffffffff1916827bffffffffffffffffffffffffffffffffffffffffffffffffffffffff1916148061427e575061427d82614441565b5b9050919050565b6142908383836144aa565b614343575f73ffffffffffffffffffffffffffffffffffffffff168373ffffffffffffffffffffffffffffffffffffffff160361430457806040517f7e2732890000000000000000000000000000000000000000000000000000000081526004016142fb9190614817565b60405180910390fd5b81816040517f177e802f00000000000000000000000000000000000000000000000000000000815260040161433a929190614944565b60405180910390fd5b505050565b5f805f80845f018054905090505f810361436b575f805f93509350935050614436565b5f614384865f0160018461437f9190615618565b61456a565b6040518060400160405290815f82015f9054906101000a90046bffffffffffffffffffffffff166bffffffffffffffffffffffff166bffffffffffffffffffffffff1681526020015f8201600c9054906101000a900473ffffffffffffffffffffffffffffffffffffffff1673ffffffffffffffffffffffffffffffffffffffff1673ffffffffffffffffffffffffffffffffffffffff168152505090506001815f0151826020015194509450945050505b9193909250565b5f90565b5f7f01ffc9a7000000000000000000000000000000000000000000000000000000007bffffffffffffffffffffffffffffffffffffffffffffffffffffffff1916827bffffffffffffffffffffffffffffffffffffffffffffffffffffffff1916149050919050565b5f8073ffffffffffffffffffffffffffffffffffffffff168373ffffffffffffffffffffffffffffffffffffffff161415801561456157508273ffffffffffffffffffffffffffffffffffffffff168473ffffffffffffffffffffffffffffffffffffffff161480614522575061452184846117b0565b5b8061456057508273ffffffffffffffffffffffffffffffffffffffff16614548836119dd565b73ffffffffffffffffffffffffffffffffffffffff16145b5b90509392505050565b5f825f528160205f2001905092915050565b5f604051905090565b5f80fd5b5f80fd5b5f7fffffffff0000000000000000000000000000000000000000000000000000000082169050919050565b6145c18161458d565b81146145cb575f80fd5b50565b5f813590506145dc816145b8565b92915050565b5f602082840312156145f7576145f6614585565b5b5f614604848285016145ce565b91505092915050565b5f8115159050919050565b6146218161460d565b82525050565b5f60208201905061463a5f830184614618565b92915050565b5f81519050919050565b5f82825260208201905092915050565b5f5b8381101561467757808201518184015260208101905061465c565b5f8484015250505050565b5f601f19601f8301169050919050565b5f61469c82614640565b6146a6818561464a565b93506146b681856020860161465a565b6146bf81614682565b840191505092915050565b5f6020820190508181035f8301526146e28184614692565b905092915050565b5f819050919050565b6146fc816146ea565b8114614706575f80fd5b50565b5f81359050614717816146f3565b92915050565b5f6020828403121561473257614731614585565b5b5f61473f84828501614709565b91505092915050565b5f73ffffffffffffffffffffffffffffffffffffffff82169050919050565b5f61477182614748565b9050919050565b61478181614767565b82525050565b5f60208201905061479a5f830184614778565b92915050565b6147a981614767565b81146147b3575f80fd5b50565b5f813590506147c4816147a0565b92915050565b5f80604083850312156147e0576147df614585565b5b5f6147ed858286016147b6565b92505060206147fe85828601614709565b9150509250929050565b614811816146ea565b82525050565b5f60208201905061482a5f830184614808565b92915050565b5f805f6060848603121561484757614846614585565b5b5f614854868287016147b6565b9350506020614865868287016147b6565b925050604061487686828701614709565b9150509250925092565b5f819050919050565b61489281614880565b811461489c575f80fd5b50565b5f813590506148ad81614889565b92915050565b5f602082840312156148c8576148c7614585565b5b5f6148d58482850161489f565b91505092915050565b6148e781614880565b82525050565b5f6020820190506149005f8301846148de565b92915050565b5f806040838503121561491c5761491b614585565b5b5f61492985828601614709565b925050602061493a85828601614709565b9150509250929050565b5f6040820190506149575f830185614778565b6149646020830184614808565b9392505050565b5f806040838503121561498157614980614585565b5b5f61498e8582860161489f565b925050602061499f858286016147b6565b9150509250929050565b5f80fd5b5f80fd5b7f4e487b71000000000000000000000000000000000000000000000000000000005f52604160045260245ffd5b6149e782614682565b810181811067ffffffffffffffff82111715614a0657614a056149b1565b5b80604052505050565b5f614a1861457c565b9050614a2482826149de565b919050565b5f67ffffffffffffffff821115614a4357614a426149b1565b5b614a4c82614682565b9050602081019050919050565b828183375f83830152505050565b5f614a79614a7484614a29565b614a0f565b905082815260208101848484011115614a9557614a946149ad565b5b614aa0848285614a59565b509392505050565b5f82601f830112614abc57614abb6149a9565b5b8135614acc848260208601614a67565b91505092915050565b5f8060408385031215614aeb57614aea614585565b5b5f614af8858286016147b6565b925050602083013567ffffffffffffffff811115614b1957614b18614589565b5b614b2585828601614aa8565b9150509250929050565b5f67ffffffffffffffff821115614b4957614b486149b1565b5b614b5282614682565b9050602081019050919050565b5f614b71614b6c84614b2f565b614a0f565b905082815260208101848484011115614b8d57614b8c6149ad565b5b614b98848285614a59565b509392505050565b5f82601f830112614bb457614bb36149a9565b5b8135614bc4848260208601614b5f565b91505092915050565b5f60208284031215614be257614be1614585565b5b5f82013567ffffffffffffffff811115614bff57614bfe614589565b5b614c0b84828501614ba0565b91505092915050565b5f60208284031215614c2957614c28614585565b5b5f614c36848285016147b6565b91505092915050565b5f7fff0000000000000000000000000000000000000000000000000000000000000082169050919050565b614c7381614c3f565b82525050565b5f81519050919050565b5f82825260208201905092915050565b5f819050602082019050919050565b614cab816146ea565b82525050565b5f614cbc8383614ca2565b60208301905092915050565b5f602082019050919050565b5f614cde82614c79565b614ce88185614c83565b9350614cf383614c93565b805f5b83811015614d23578151614d0a8882614cb1565b9750614d1583614cc8565b925050600181019050614cf6565b5085935050505092915050565b5f60e082019050614d435f83018a614c6a565b8181036020830152614d558189614692565b90508181036040830152614d698188614692565b9050614d786060830187614808565b614d856080830186614778565b614d9260a08301856148de565b81810360c0830152614da48184614cd4565b905098975050505050505050565b5f8060408385031215614dc857614dc7614585565b5b5f614dd58582860161489f565b9250506020614de685828601614709565b9150509250929050565b614df98161460d565b8114614e03575f80fd5b50565b5f81359050614e1481614df0565b92915050565b5f8060408385031215614e3057614e2f614585565b5b5f614e3d858286016147b6565b9250506020614e4e85828601614e06565b9150509250929050565b5f805f8060808587031215614e7057614e6f614585565b5b5f614e7d878288016147b6565b9450506020614e8e878288016147b6565b9350506040614e9f87828801614709565b925050606085013567ffffffffffffffff811115614ec057614ebf614589565b5b614ecc87828801614aa8565b91505092959194509250565b5f8060408385031215614eee57614eed614585565b5b5f614efb858286016147b6565b925050602083013567ffffffffffffffff811115614f1c57614f1b614589565b5b614f2885828601614ba0565b9150509250929050565b5f8060408385031215614f4857614f47614585565b5b5f614f55858286016147b6565b9250506020614f66858286016147b6565b9150509250929050565b7f4e487b71000000000000000000000000000000000000000000000000000000005f52602260045260245ffd5b5f6002820490506001821680614fb457607f821691505b602082108103614fc757614fc6614f70565b5b50919050565b5f606082019050614fe05f830186614778565b614fed6020830185614808565b614ffa6040830184614778565b949350505050565b7f4e487b71000000000000000000000000000000000000000000000000000000005f52601160045260245ffd5b5f615039826146ea565b9150615044836146ea565b9250828202615052816146ea565b9150828204841483151761506957615068615002565b5b5092915050565b7f4e487b71000000000000000000000000000000000000000000000000000000005f52601260045260245ffd5b5f6150a7826146ea565b91506150b2836146ea565b9250826150c2576150c1615070565b5b828204905092915050565b7f4e487b71000000000000000000000000000000000000000000000000000000005f52603260045260245ffd5b5f819050815f5260205f209050919050565b5f6020601f8301049050919050565b5f82821b905092915050565b5f600883026151567fffffffffffffffffffffffffffffffffffffffffffffffffffffffffffffffff8261511b565b615160868361511b565b95508019841693508086168417925050509392505050565b5f819050919050565b5f61519b615196615191846146ea565b615178565b6146ea565b9050919050565b5f819050919050565b6151b483615181565b6151c86151c0826151a2565b848454615127565b825550505050565b5f90565b6151dc6151d0565b6151e78184846151ab565b505050565b5b8181101561520a576151ff5f826151d4565b6001810190506151ed565b5050565b601f82111561524f57615220816150fa565b6152298461510c565b81016020851015615238578190505b61524c6152448561510c565b8301826151ec565b50505b505050565b5f82821c905092915050565b5f61526f5f1984600802615254565b1980831691505092915050565b5f6152878383615260565b9150826002028217905092915050565b6152a082614640565b67ffffffffffffffff8111156152b9576152b86149b1565b5b6152c38254614f9d565b6152ce82828561520e565b5f60209050601f8311600181146152ff575f84156152ed578287015190505b6152f7858261527c565b86555061535e565b601f19841661530d866150fa565b5f5b828110156153345784890151825560018201915060208501945060208101905061530f565b86831015615351578489015161534d601f891682615260565b8355505b6001600288020188555050505b505050505050565b7f4549503731323a20556e696e697469616c697a656400000000000000000000005f82015250565b5f61539a60158361464a565b91506153a582615366565b602082019050919050565b5f6020820190508181035f8301526153c78161538e565b9050919050565b5f819050919050565b5f67ffffffffffffffff82169050919050565b5f6154046153ff6153fa846153ce565b615178565b6153d7565b9050919050565b615414816153ea565b82525050565b5f60208201905061542d5f83018461540b565b92915050565b5f61543d826146ea565b91507fffffffffffffffffffffffffffffffffffffffffffffffffffffffffffffffff820361546f5761546e615002565b5b600182019050919050565b5f8151905061548881614889565b92915050565b5f602082840312156154a3576154a2614585565b5b5f6154b08482850161547a565b91505092915050565b5f81519050919050565b5f82825260208201905092915050565b5f6154dd826154b9565b6154e781856154c3565b93506154f781856020860161465a565b61550081614682565b840191505092915050565b5f60808201905061551e5f830187614778565b61552b6020830186614778565b6155386040830185614808565b818103606083015261554a81846154d3565b905095945050505050565b5f81519050615563816145b8565b92915050565b5f6020828403121561557e5761557d614585565b5b5f61558b84828501615555565b91505092915050565b5f81905092915050565b5f6155a882614640565b6155b28185615594565b93506155c281856020860161465a565b80840191505092915050565b5f6155d9828561559e565b91506155e5828461559e565b91508190509392505050565b5f6040820190506156045f830185614778565b61561160208301846148de565b9392505050565b5f615622826146ea565b915061562d836146ea565b925082820390508181111561564557615644615002565b5b92915050565b7f4e487b71000000000000000000000000000000000000000000000000000000005f52603160045260245ffd5b5f81905092915050565b5f61568c826154b9565b6156968185615678565b93506156a681856020860161465a565b80840191505092915050565b5f6156bd8284615682565b915081905092915050565b5f6bffffffffffffffffffffffff82169050919050565b5f6156e9826156c8565b91506156f4836156c8565b925082820190506bffffffffffffffffffffffff81111561571857615717615002565b5b9291505056fea264697066735822122035b42aa9c478eed139cf78150d994e8e264cdbca5c2eebf2039e1d7eddc0917764736f6c63430008170033', \n     arguments: [\n     ]\n}).send({\n     from: web3.eth.accounts[0], \n     gas: '4700000'\n   }, function (e, contract){\n    console.log(e, contract);\n    if (typeof contract.address !== 'undefined') {\n         console.log('Contract mined! address: ' + contract.address + ' transactionHash: ' + contract.transactionHash);\n    }\n })",
	"functionHashes": {
		"a217fddf": "DEFAULT_ADMIN_ROLE()",
		"ad3cb1cc": "UPGRADE_INTERFACE_VERSION()",
		"84d6e6e2": "_BaseURI()",
		"095ea7b3": "approve(address,uint256)",
		"70a08231": "balanceOf(address)",
		"42966c68": "burn(uint256)",
		"84b0196e": "eip712Domain()",
		"081812fc": "getApproved(uint256)",
		"248a9ca3": "getRoleAdmin(bytes32)",
		"9010d07c": "getRoleMember(bytes32,uint256)",
		"ca15c873": "getRoleMemberCount(bytes32)",
		"2f2ff15d": "grantRole(bytes32,address)",
		"91d14854": "hasRole(bytes32,address)",
		"c4d66de8": "initialize(address)",
		"e985e9c5": "isApprovedForAll(address,address)",
		"06fdde03": "name()",
		"8da5cb5b": "owner()",
		"6352211e": "ownerOf(uint256)",
		"8456cb59": "pause()",
		"5c975abb": "paused()",
		"52d1902d": "proxiableUUID()",
		"715018a6": "renounceOwnership()",
		"36568abe": "renounceRole(bytes32,address)",
		"d547741f": "revokeRole(bytes32,address)",
		"2a55205a": "royaltyInfo(uint256,uint256)",
		"d204c45e": "safeMint(address,string)",
		"42842e0e": "safeTransferFrom(address,address,uint256)",
		"b88d4fde": "safeTransferFrom(address,address,uint256,bytes)",
		"a22cb465": "setApprovalForAll(address,bool)",
		"55f804b3": "setBaseURI(string)",
		"01ffc9a7": "supportsInterface(bytes4)",
		"95d89b41": "symbol()",
		"4f6ccce7": "tokenByIndex(uint256)",
		"2f745c59": "tokenOfOwnerByIndex(address,uint256)",
		"c87b56dd": "tokenURI(uint256)",
		"18160ddd": "totalSupply()",
		"23b872dd": "transferFrom(address,address,uint256)",
		"f2fde38b": "transferOwnership(address)",
		"3f4ba83a": "unpause()",
		"4f1ef286": "upgradeToAndCall(address,bytes)"
	},
	"gasEstimates": {
		"Creation": {
			"codeDepositCost": "4471200",
			"executionCost": "infinite",
			"totalCost": "infinite"
		},
		"External": {
			"DEFAULT_ADMIN_ROLE()": "463",
			"UPGRADE_INTERFACE_VERSION()": "infinite",
			"_BaseURI()": "infinite",
			"approve(address,uint256)": "infinite",
			"balanceOf(address)": "infinite",
			"burn(uint256)": "infinite",
			"eip712Domain()": "infinite",
			"getApproved(uint256)": "infinite",
			"getRoleAdmin(bytes32)": "infinite",
			"getRoleMember(bytes32,uint256)": "infinite",
			"getRoleMemberCount(bytes32)": "2967",
			"grantRole(bytes32,address)": "infinite",
			"hasRole(bytes32,address)": "3263",
			"initialize(address)": "infinite",
			"isApprovedForAll(address,address)": "infinite",
			"name()": "infinite",
			"owner()": "2612",
			"ownerOf(uint256)": "infinite",
			"pause()": "infinite",
			"paused()": "2636",
			"proxiableUUID()": "infinite",
			"renounceOwnership()": "infinite",
			"renounceRole(bytes32,address)": "infinite",
			"revokeRole(bytes32,address)": "infinite",
			"royaltyInfo(uint256,uint256)": "infinite",
			"safeMint(address,string)": "infinite",
			"safeTransferFrom(address,address,uint256)": "infinite",
			"safeTransferFrom(address,address,uint256,bytes)": "infinite",
			"setApprovalForAll(address,bool)": "infinite",
			"setBaseURI(string)": "infinite",
			"supportsInterface(bytes4)": "1298",
			"symbol()": "infinite",
			"tokenByIndex(uint256)": "infinite",
			"tokenOfOwnerByIndex(address,uint256)": "infinite",
			"tokenURI(uint256)": "infinite",
			"totalSupply()": "2628",
			"transferFrom(address,address,uint256)": "infinite",
			"transferOwnership(address)": "infinite",
			"unpause()": "infinite",
			"upgradeToAndCall(address,bytes)": "infinite"
		},
		"Internal": {
			"_authorizeUpgrade(address)": "infinite",
			"_increaseBalance(address,uint128)": "infinite",
			"_ownerOf(uint256)": "2339",
			"_update(address,uint256,address)": "infinite"
		}
	},
	"devdoc": {
		"custom:security-contact": "bedlam520@skiff.com",
		"errors": {
			"AccessControlBadConfirmation()": [
				{
					"details": "The caller of a function is not the expected one. NOTE: Don't confuse with {AccessControlUnauthorizedAccount}."
				}
			],
			"AccessControlUnauthorizedAccount(address,bytes32)": [
				{
					"details": "The `account` is missing a role."
				}
			],
			"AddressEmptyCode(address)": [
				{
					"details": "There's no code at `target` (it is not a contract)."
				}
			],
			"ERC1967InvalidImplementation(address)": [
				{
					"details": "The `implementation` of the proxy is invalid."
				}
			],
			"ERC1967NonPayable()": [
				{
					"details": "An upgrade function sees `msg.value > 0` that may be lost."
				}
			],
			"ERC2981InvalidDefaultRoyalty(uint256,uint256)": [
				{
					"details": "The default royalty set is invalid (eg. (numerator / denominator) >= 1)."
				}
			],
			"ERC2981InvalidDefaultRoyaltyReceiver(address)": [
				{
					"details": "The default royalty receiver is invalid."
				}
			],
			"ERC2981InvalidTokenRoyalty(uint256,uint256,uint256)": [
				{
					"details": "The royalty set for an specific `tokenId` is invalid (eg. (numerator / denominator) >= 1)."
				}
			],
			"ERC2981InvalidTokenRoyaltyReceiver(uint256,address)": [
				{
					"details": "The royalty receiver for `tokenId` is invalid."
				}
			],
			"ERC721EnumerableForbiddenBatchMint()": [
				{
					"details": "Batch mint is not allowed."
				}
			],
			"ERC721ExceededMaxBatchMint(uint256,uint256)": [
				{
					"details": "Exceeds the max amount of mints per batch."
				}
			],
			"ERC721ForbiddenBatchBurn()": [
				{
					"details": "Batch burn is not supported."
				}
			],
			"ERC721ForbiddenBatchMint()": [
				{
					"details": "Batch mint is restricted to the constructor. Any batch mint not emitting the {IERC721-Transfer} event outside of the constructor is non-ERC721 compliant."
				}
			],
			"ERC721ForbiddenMint()": [
				{
					"details": "Individual minting is not allowed."
				}
			],
			"ERC721IncorrectOwner(address,uint256,address)": [
				{
					"details": "Indicates an error related to the ownership over a particular token. Used in transfers.",
					"params": {
						"owner": "Address of the current owner of a token.",
						"sender": "Address whose tokens are being transferred.",
						"tokenId": "Identifier number of a token."
					}
				}
			],
			"ERC721InsufficientApproval(address,uint256)": [
				{
					"details": "Indicates a failure with the `operator`s approval. Used in transfers.",
					"params": {
						"operator": "Address that may be allowed to operate on tokens without being their owner.",
						"tokenId": "Identifier number of a token."
					}
				}
			],
			"ERC721InvalidApprover(address)": [
				{
					"details": "Indicates a failure with the `approver` of a token to be approved. Used in approvals.",
					"params": {
						"approver": "Address initiating an approval operation."
					}
				}
			],
			"ERC721InvalidOperator(address)": [
				{
					"details": "Indicates a failure with the `operator` to be approved. Used in approvals.",
					"params": {
						"operator": "Address that may be allowed to operate on tokens without being their owner."
					}
				}
			],
			"ERC721InvalidOwner(address)": [
				{
					"details": "Indicates that an address can't be an owner. For example, `address(0)` is a forbidden owner in EIP-20. Used in balance queries.",
					"params": {
						"owner": "Address of the current owner of a token."
					}
				}
			],
			"ERC721InvalidReceiver(address)": [
				{
					"details": "Indicates a failure with the token `receiver`. Used in transfers.",
					"params": {
						"receiver": "Address to which tokens are being transferred."
					}
				}
			],
			"ERC721InvalidSender(address)": [
				{
					"details": "Indicates a failure with the token `sender`. Used in transfers.",
					"params": {
						"sender": "Address whose tokens are being transferred."
					}
				}
			],
			"ERC721NonexistentToken(uint256)": [
				{
					"details": "Indicates a `tokenId` whose `owner` is the zero address.",
					"params": {
						"tokenId": "Identifier number of a token."
					}
				}
			],
			"ERC721OutOfBoundsIndex(address,uint256)": [
				{
					"details": "An `owner`'s token query was out of bounds for `index`. NOTE: The owner being `address(0)` indicates a global out of bounds index."
				}
			],
			"EnforcedPause()": [
				{
					"details": "The operation failed because the contract is paused."
				}
			],
			"ExpectedPause()": [
				{
					"details": "The operation failed because the contract is not paused."
				}
			],
			"FailedInnerCall()": [
				{
					"details": "A call to an address target failed. The target may have reverted."
				}
			],
			"InvalidInitialization()": [
				{
					"details": "The contract is already initialized."
				}
			],
			"NotInitializing()": [
				{
					"details": "The contract is not initializing."
				}
			],
			"OwnableInvalidOwner(address)": [
				{
					"details": "The owner is not a valid owner account. (eg. `address(0)`)"
				}
			],
			"OwnableUnauthorizedAccount(address)": [
				{
					"details": "The caller account is not authorized to perform an operation."
				}
			],
			"UUPSUnauthorizedCallContext()": [
				{
					"details": "The call is from an unauthorized context."
				}
			],
			"UUPSUnsupportedProxiableUUID(bytes32)": [
				{
					"details": "The storage `slot` is unsupported as a UUID."
				}
			]
		},
		"events": {
			"Approval(address,address,uint256)": {
				"details": "Emitted when `owner` enables `approved` to manage the `tokenId` token."
			},
			"ApprovalForAll(address,address,bool)": {
				"details": "Emitted when `owner` enables or disables (`approved`) `operator` to manage all of its assets."
			},
			"BatchMetadataUpdate(uint256,uint256)": {
				"details": "This event emits when the metadata of a range of tokens is changed. So that the third-party platforms such as NFT market could timely update the images and related attributes of the NFTs."
			},
			"ConsecutiveTransfer(uint256,uint256,address,address)": {
				"details": "Emitted when the tokens from `fromTokenId` to `toTokenId` are transferred from `fromAddress` to `toAddress`."
			},
			"EIP712DomainChanged()": {
				"details": "MAY be emitted to signal that the domain could have changed."
			},
			"Initialized(uint64)": {
				"details": "Triggered when the contract has been initialized or reinitialized."
			},
			"MetadataUpdate(uint256)": {
				"details": "This event emits when the metadata of a token is changed. So that the third-party platforms such as NFT market could timely update the images and related attributes of the NFT."
			},
			"Paused(address)": {
				"details": "Emitted when the pause is triggered by `account`."
			},
			"RoleAdminChanged(bytes32,bytes32,bytes32)": {
				"details": "Emitted when `newAdminRole` is set as ``role``'s admin role, replacing `previousAdminRole` `DEFAULT_ADMIN_ROLE` is the starting admin for all roles, despite {RoleAdminChanged} not being emitted signaling this."
			},
			"RoleGranted(bytes32,address,address)": {
				"details": "Emitted when `account` is granted `role`. `sender` is the account that originated the contract call, an admin role bearer except when using {AccessControl-_setupRole}."
			},
			"RoleRevoked(bytes32,address,address)": {
				"details": "Emitted when `account` is revoked `role`. `sender` is the account that originated the contract call:   - if using `revokeRole`, it is the admin role bearer   - if using `renounceRole`, it is the role bearer (i.e. `account`)"
			},
			"Transfer(address,address,uint256)": {
				"details": "Emitted when `tokenId` token is transferred from `from` to `to`."
			},
			"Unpaused(address)": {
				"details": "Emitted when the pause is lifted by `account`."
			},
			"Upgraded(address)": {
				"details": "Emitted when the implementation is upgraded."
			}
		},
		"kind": "dev",
		"methods": {
			"approve(address,uint256)": {
				"details": "See {IERC721-approve}."
			},
			"balanceOf(address)": {
				"details": "See {IERC721-balanceOf}."
			},
			"burn(uint256)": {
				"details": "Burns `tokenId`. See {ERC721-_burn}. Requirements: - The caller must own `tokenId` or be an approved operator."
			},
			"constructor": {
				"custom:oz-upgrades-unsafe-allow": "constructor"
			},
			"eip712Domain()": {
				"details": "See {IERC-5267}."
			},
			"getApproved(uint256)": {
				"details": "See {IERC721-getApproved}."
			},
			"getRoleAdmin(bytes32)": {
				"details": "Returns the admin role that controls `role`. See {grantRole} and {revokeRole}. To change a role's admin, use {_setRoleAdmin}."
			},
			"getRoleMember(bytes32,uint256)": {
				"details": "Returns one of the accounts that have `role`. `index` must be a value between 0 and {getRoleMemberCount}, non-inclusive. Role bearers are not sorted in any particular way, and their ordering may change at any point. WARNING: When using {getRoleMember} and {getRoleMemberCount}, make sure you perform all queries on the same block. See the following https://forum.openzeppelin.com/t/iterating-over-elements-on-enumerableset-in-openzeppelin-contracts/2296[forum post] for more information."
			},
			"getRoleMemberCount(bytes32)": {
				"details": "Returns the number of accounts that have `role`. Can be used together with {getRoleMember} to enumerate all bearers of a role."
			},
			"grantRole(bytes32,address)": {
				"details": "Grants `role` to `account`. If `account` had not been already granted `role`, emits a {RoleGranted} event. Requirements: - the caller must have ``role``'s admin role. May emit a {RoleGranted} event."
			},
			"hasRole(bytes32,address)": {
				"details": "Returns `true` if `account` has been granted `role`."
			},
			"isApprovedForAll(address,address)": {
				"details": "See {IERC721-isApprovedForAll}."
			},
			"name()": {
				"details": "See {IERC721Metadata-name}."
			},
			"owner()": {
				"details": "Returns the address of the current owner."
			},
			"ownerOf(uint256)": {
				"details": "See {IERC721-ownerOf}."
			},
			"paused()": {
				"details": "Returns true if the contract is paused, and false otherwise."
			},
			"proxiableUUID()": {
				"details": "Implementation of the ERC1822 {proxiableUUID} function. This returns the storage slot used by the implementation. It is used to validate the implementation's compatibility when performing an upgrade. IMPORTANT: A proxy pointing at a proxiable contract should not be considered proxiable itself, because this risks bricking a proxy that upgrades to it, by delegating to itself until out of gas. Thus it is critical that this function revert if invoked through a proxy. This is guaranteed by the `notDelegated` modifier."
			},
			"renounceOwnership()": {
				"details": "Leaves the contract without owner. It will not be possible to call `onlyOwner` functions. Can only be called by the current owner. NOTE: Renouncing ownership will leave the contract without an owner, thereby disabling any functionality that is only available to the owner."
			},
			"renounceRole(bytes32,address)": {
				"details": "Revokes `role` from the calling account. Roles are often managed via {grantRole} and {revokeRole}: this function's purpose is to provide a mechanism for accounts to lose their privileges if they are compromised (such as when a trusted device is misplaced). If the calling account had been revoked `role`, emits a {RoleRevoked} event. Requirements: - the caller must be `callerConfirmation`. May emit a {RoleRevoked} event."
			},
			"revokeRole(bytes32,address)": {
				"details": "Revokes `role` from `account`. If `account` had been granted `role`, emits a {RoleRevoked} event. Requirements: - the caller must have ``role``'s admin role. May emit a {RoleRevoked} event."
			},
			"royaltyInfo(uint256,uint256)": {
				"details": "Returns how much royalty is owed and to whom, based on a sale price that may be denominated in any unit of exchange. The royalty amount is denominated and should be paid in that same unit of exchange."
			},
			"safeTransferFrom(address,address,uint256)": {
				"details": "See {IERC721-safeTransferFrom}."
			},
			"safeTransferFrom(address,address,uint256,bytes)": {
				"details": "See {IERC721-safeTransferFrom}."
			},
			"setApprovalForAll(address,bool)": {
				"details": "See {IERC721-setApprovalForAll}."
			},
			"symbol()": {
				"details": "See {IERC721Metadata-symbol}."
			},
			"tokenByIndex(uint256)": {
				"details": "See {IERC721Enumerable-tokenByIndex}."
			},
			"tokenOfOwnerByIndex(address,uint256)": {
				"details": "See {IERC721Enumerable-tokenOfOwnerByIndex}."
			},
			"totalSupply()": {
				"details": "See {IERC721Enumerable-totalSupply}."
			},
			"transferFrom(address,address,uint256)": {
				"details": "See {IERC721-transferFrom}."
			},
			"transferOwnership(address)": {
				"details": "Transfers ownership of the contract to a new account (`newOwner`). Can only be called by the current owner."
			},
			"upgradeToAndCall(address,bytes)": {
				"custom:oz-upgrades-unsafe-allow-reachable": "delegatecall",
				"details": "Upgrade the implementation of the proxy to `newImplementation`, and subsequently execute the function call encoded in `data`. Calls {_authorizeUpgrade}. Emits an {Upgraded} event."
			}
		},
		"version": 1
	},
	"userdoc": {
		"kind": "user",
		"methods": {},
		"version": 1
	},
	"Runtime Bytecode": {
		"immutableReferences": {
			"1032": [
				{
					"length": 32,
					"start": 7291
				},
				{
					"length": 32,
					"start": 7376
				},
				{
					"length": 32,
					"start": 7818
				}
			]
		},
		"linkReferences": {},
		"object": "60806040526004361061023a575f3560e01c806370a082311161012d578063a22cb465116100aa578063ca15c8731161006e578063ca15c8731461086b578063d204c45e146108a7578063d547741f146108cf578063e985e9c5146108f7578063f2fde38b146109335761023a565b8063a22cb4651461078d578063ad3cb1cc146107b5578063b88d4fde146107df578063c4d66de814610807578063c87b56dd1461082f5761023a565b80638da5cb5b116100f15780638da5cb5b146106975780639010d07c146106c157806391d14854146106fd57806395d89b4114610739578063a217fddf146107635761023a565b806370a08231146105d5578063715018a6146106115780638456cb591461062757806384b0196e1461063d57806384d6e6e21461066d5761023a565b806336568abe116101bb5780634f6ccce71161017f5780634f6ccce7146104e157806352d1902d1461051d57806355f804b3146105475780635c975abb1461056f5780636352211e146105995761023a565b806336568abe146104375780633f4ba83a1461045f57806342842e0e1461047557806342966c681461049d5780634f1ef286146104c55761023a565b806323b872dd1161020257806323b872dd14610332578063248a9ca31461035a5780632a55205a146103965780632f2ff15d146103d35780632f745c59146103fb5761023a565b806301ffc9a71461023e57806306fdde031461027a578063081812fc146102a4578063095ea7b3146102e057806318160ddd14610308575b5f80fd5b348015610249575f80fd5b50610264600480360381019061025f91906145e2565b61095b565b6040516102719190614627565b60405180910390f35b348015610285575f80fd5b5061028e61096c565b60405161029b91906146ca565b60405180910390f35b3480156102af575f80fd5b506102ca60048036038101906102c5919061471d565b610a09565b6040516102d79190614787565b60405180910390f35b3480156102eb575f80fd5b50610306600480360381019061030191906147ca565b610a24565b005b348015610313575f80fd5b5061031c610a3a565b6040516103299190614817565b60405180910390f35b34801561033d575f80fd5b5061035860048036038101906103539190614830565b610a54565b005b348015610365575f80fd5b50610380600480360381019061037b91906148b3565b610b53565b60405161038d91906148ed565b60405180910390f35b3480156103a1575f80fd5b506103bc60048036038101906103b79190614906565b610b7d565b6040516103ca929190614944565b60405180910390f35b3480156103de575f80fd5b506103f960048036038101906103f4919061496b565b610d68565b005b348015610406575f80fd5b50610421600480360381019061041c91906147ca565b610d8a565b60405161042e9190614817565b60405180910390f35b348015610442575f80fd5b5061045d6004803603810190610458919061496b565b610e3b565b005b34801561046a575f80fd5b50610473610eb6565b005b348015610480575f80fd5b5061049b60048036038101906104969190614830565b610ec8565b005b3480156104a8575f80fd5b506104c360048036038101906104be919061471d565b610ee7565b005b6104df60048036038101906104da9190614ad5565b610efd565b005b3480156104ec575f80fd5b506105076004803603810190610502919061471d565b610f1c565b6040516105149190614817565b60405180910390f35b348015610528575f80fd5b50610531610f9c565b60405161053e91906148ed565b60405180910390f35b348015610552575f80fd5b5061056d60048036038101906105689190614bcd565b610fcd565b005b34801561057a575f80fd5b50610583610fe8565b6040516105909190614627565b60405180910390f35b3480156105a4575f80fd5b506105bf60048036038101906105ba919061471d565b61100a565b6040516105cc9190614787565b60405180910390f35b3480156105e0575f80fd5b506105fb60048036038101906105f69190614c14565b61101b565b6040516106089190614817565b60405180910390f35b34801561061c575f80fd5b506106256110df565b005b348015610632575f80fd5b5061063b6110f2565b005b348015610648575f80fd5b50610651611104565b6040516106649796959493929190614d30565b60405180910390f35b348015610678575f80fd5b5061068161120d565b60405161068e91906146ca565b60405180910390f35b3480156106a2575f80fd5b506106ab61129d565b6040516106b89190614787565b60405180910390f35b3480156106cc575f80fd5b506106e760048036038101906106e29190614db2565b6112d2565b6040516106f49190614787565b60405180910390f35b348015610708575f80fd5b50610723600480360381019061071e919061496b565b61130b565b6040516107309190614627565b60405180910390f35b348015610744575f80fd5b5061074d61137c565b60405161075a91906146ca565b60405180910390f35b34801561076e575f80fd5b5061077761141a565b60405161078491906148ed565b60405180910390f35b348015610798575f80fd5b506107b360048036038101906107ae9190614e1a565b611420565b005b3480156107c0575f80fd5b506107c9611436565b6040516107d691906146ca565b60405180910390f35b3480156107ea575f80fd5b5061080560048036038101906108009190614e58565b61146f565b005b348015610812575f80fd5b5061082d60048036038101906108289190614c14565b61148c565b005b34801561083a575f80fd5b506108556004803603810190610850919061471d565b611715565b60405161086291906146ca565b60405180910390f35b348015610876575f80fd5b50610891600480360381019061088c91906148b3565b611727565b60405161089e9190614817565b60405180910390f35b3480156108b2575f80fd5b506108cd60048036038101906108c89190614ed8565b611755565b005b3480156108da575f80fd5b506108f560048036038101906108f0919061496b565b61178e565b005b348015610902575f80fd5b5061091d60048036038101906109189190614f32565b6117b0565b60405161092a9190614627565b60405180910390f35b34801561093e575f80fd5b5061095960048036038101906109549190614c14565b61184c565b005b5f610965826118d0565b9050919050565b60605f610977611930565b9050805f01805461098790614f9d565b80601f01602080910402602001604051908101604052809291908181526020018280546109b390614f9d565b80156109fe5780601f106109d5576101008083540402835291602001916109fe565b820191905f5260205f20905b8154815290600101906020018083116109e157829003601f168201915b505050505091505090565b5f610a1382611957565b50610a1d826119dd565b9050919050565b610a368282610a31611a24565b611a2b565b5050565b5f80610a44611a3d565b9050806002018054905091505090565b5f73ffffffffffffffffffffffffffffffffffffffff168273ffffffffffffffffffffffffffffffffffffffff1603610ac4575f6040517f64a0ae92000000000000000000000000000000000000000000000000000000008152600401610abb9190614787565b60405180910390fd5b5f610ad78383610ad2611a24565b611a64565b90508373ffffffffffffffffffffffffffffffffffffffff168173ffffffffffffffffffffffffffffffffffffffff1614610b4d578382826040517f64283d7b000000000000000000000000000000000000000000000000000000008152600401610b4493929190614fcd565b60405180910390fd5b50505050565b5f80610b5d611a79565b9050805f015f8481526020019081526020015f2060010154915050919050565b5f805f610b88611aa0565b90505f816001015f8781526020019081526020015f206040518060400160405290815f82015f9054906101000a900473ffffffffffffffffffffffffffffffffffffffff1673ffffffffffffffffffffffffffffffffffffffff1673ffffffffffffffffffffffffffffffffffffffff1681526020015f820160149054906101000a90046bffffffffffffffffffffffff166bffffffffffffffffffffffff166bffffffffffffffffffffffff168152505090505f73ffffffffffffffffffffffffffffffffffffffff16815f015173ffffffffffffffffffffffffffffffffffffffff1603610d1457815f016040518060400160405290815f82015f9054906101000a900473ffffffffffffffffffffffffffffffffffffffff1673ffffffffffffffffffffffffffffffffffffffff1673ffffffffffffffffffffffffffffffffffffffff1681526020015f820160149054906101000a90046bffffffffffffffffffffffff166bffffffffffffffffffffffff166bffffffffffffffffffffffff168152505090505b5f610d1d611ac7565b6bffffffffffffffffffffffff1682602001516bffffffffffffffffffffffff1687610d49919061502f565b610d53919061509d565b9050815f015181945094505050509250929050565b610d7182610b53565b610d7a81611ad0565b610d848383611ae4565b50505050565b5f80610d94611a3d565b9050610d9f8461101b565b8310610de45783836040517fa57d13dc000000000000000000000000000000000000000000000000000000008152600401610ddb929190614944565b60405180910390fd5b805f015f8573ffffffffffffffffffffffffffffffffffffffff1673ffffffffffffffffffffffffffffffffffffffff1681526020019081526020015f205f8481526020019081526020015f205491505092915050565b610e43611a24565b73ffffffffffffffffffffffffffffffffffffffff168173ffffffffffffffffffffffffffffffffffffffff1614610ea7576040517f6697b23200000000000000000000000000000000000000000000000000000000815260040160405180910390fd5b610eb18282611b34565b505050565b610ebe611b84565b610ec6611c0b565b565b610ee283838360405180602001604052805f81525061146f565b505050565b610ef95f82610ef4611a24565b611a64565b5050565b610f05611c79565b610f0e82611d5f565b610f188282611d6a565b5050565b5f80610f26611a3d565b9050610f30610a3a565b8310610f75575f836040517fa57d13dc000000000000000000000000000000000000000000000000000000008152600401610f6c929190614944565b60405180910390fd5b806002018381548110610f8b57610f8a6150cd565b5b905f5260205f200154915050919050565b5f610fa5611e88565b7f360894a13ba1a3210667c828492db98dca3e2076cc3735a920a3ca505d382bbc5f1b905090565b610fd5611b84565b8060019081610fe49190615297565b5050565b5f80610ff2611f0f565b9050805f015f9054906101000a900460ff1691505090565b5f61101482611957565b9050919050565b5f80611025611930565b90505f73ffffffffffffffffffffffffffffffffffffffff168373ffffffffffffffffffffffffffffffffffffffff1603611097575f6040517f89c62b6400000000000000000000000000000000000000000000000000000000815260040161108e9190614787565b60405180910390fd5b806003015f8473ffffffffffffffffffffffffffffffffffffffff1673ffffffffffffffffffffffffffffffffffffffff1681526020019081526020015f2054915050919050565b6110e7611b84565b6110f05f611f36565b565b6110fa611b84565b611102612007565b565b5f6060805f805f60605f611116612076565b90505f801b815f015414801561113157505f801b8160010154145b611170576040517f08c379a0000000000000000000000000000000000000000000000000000000008152600401611167906153b0565b60405180910390fd5b61117861209d565b61118061213b565b46305f801b5f67ffffffffffffffff81111561119f5761119e6149b1565b5b6040519080825280602002602001820160405280156111cd5781602001602082028036833780820191505090505b507f0f0000000000000000000000000000000000000000000000000000000000000095949392919097509750975097509750975097505090919293949596565b60606001805461121c90614f9d565b80601f016020809104026020016040519081016040528092919081815260200182805461124890614f9d565b80156112935780601f1061126a57610100808354040283529160200191611293565b820191905f5260205f20905b81548152906001019060200180831161127657829003601f168201915b5050505050905090565b5f806112a76121d9565b9050805f015f9054906101000a900473ffffffffffffffffffffffffffffffffffffffff1691505090565b5f806112dc612200565b905061130283825f015f8781526020019081526020015f2061222790919063ffffffff16565b91505092915050565b5f80611315611a79565b9050805f015f8581526020019081526020015f205f015f8473ffffffffffffffffffffffffffffffffffffffff1673ffffffffffffffffffffffffffffffffffffffff1681526020019081526020015f205f9054906101000a900460ff1691505092915050565b60605f611387611930565b905080600101805461139890614f9d565b80601f01602080910402602001604051908101604052809291908181526020018280546113c490614f9d565b801561140f5780601f106113e65761010080835404028352916020019161140f565b820191905f5260205f20905b8154815290600101906020018083116113f257829003601f168201915b505050505091505090565b5f801b81565b61143261142b611a24565b838361223e565b5050565b6040518060400160405280600581526020017f352e302e3000000000000000000000000000000000000000000000000000000081525081565b61147a848484610a54565b611486848484846123b5565b50505050565b5f611495612567565b90505f815f0160089054906101000a900460ff161590505f825f015f9054906101000a900467ffffffffffffffff1690505f808267ffffffffffffffff161480156114dd5750825b90505f60018367ffffffffffffffff1614801561151057505f3073ffffffffffffffffffffffffffffffffffffffff163b145b90508115801561151e575080155b15611555576040517ff92ee8a900000000000000000000000000000000000000000000000000000000815260040160405180910390fd5b6001855f015f6101000a81548167ffffffffffffffff021916908367ffffffffffffffff16021790555083156115a2576001855f0160086101000a81548160ff0219169083151502179055505b6116166040518060400160405280600b81526020017f5343554d57616c6b6572730000000000000000000000000000000000000000008152506040518060400160405280600281526020017f535700000000000000000000000000000000000000000000000000000000000081525061258e565b61161e6125a4565b6116266125ae565b61162e6125b8565b611637866125ca565b61163f6125de565b6116b36040518060400160405280600b81526020017f5343554d57616c6b6572730000000000000000000000000000000000000000008152506040518060400160405280600181526020017f31000000000000000000000000000000000000000000000000000000000000008152506125e8565b831561170d575f855f0160086101000a81548160ff0219169083151502179055507fc7f505b2f371ae2175ee4913f4499e1f2633a7b5936321eed1cdaeb6115181d26001604051611704919061541a565b60405180910390a15b505050505050565b6060611720826125fe565b9050919050565b5f80611731612200565b905061174d815f015f8581526020019081526020015f20612718565b915050919050565b61175d611b84565b5f805f81548092919061176f90615433565b91905055905061177f838261272b565b6117898183612748565b505050565b61179782610b53565b6117a081611ad0565b6117aa8383611b34565b50505050565b5f806117ba611930565b9050806005015f8573ffffffffffffffffffffffffffffffffffffffff1673ffffffffffffffffffffffffffffffffffffffff1681526020019081526020015f205f8473ffffffffffffffffffffffffffffffffffffffff1673ffffffffffffffffffffffffffffffffffffffff1681526020019081526020015f205f9054906101000a900460ff1691505092915050565b611854611b84565b5f73ffffffffffffffffffffffffffffffffffffffff168173ffffffffffffffffffffffffffffffffffffffff16036118c4575f6040517f1e4fbdf70000000000000000000000000000000000000000000000000000000081526004016118bb9190614787565b60405180910390fd5b6118cd81611f36565b50565b5f634906490660e01b7bffffffffffffffffffffffffffffffffffffffffffffffffffffffff1916827bffffffffffffffffffffffffffffffffffffffffffffffffffffffff191614806119295750611928826127af565b5b9050919050565b5f7f80bb2b638cc20bc4d0a60d66940f3ab4a00c1d7b313497ca82fb0b4ab0079300905090565b5f8061196283612828565b90505f73ffffffffffffffffffffffffffffffffffffffff168173ffffffffffffffffffffffffffffffffffffffff16036119d457826040517f7e2732890000000000000000000000000000000000000000000000000000000081526004016119cb9190614817565b60405180910390fd5b80915050919050565b5f806119e7611930565b9050806004015f8481526020019081526020015f205f9054906101000a900473ffffffffffffffffffffffffffffffffffffffff16915050919050565b5f33905090565b611a388383836001612839565b505050565b5f7f645e039705490088daad89bae25049a34f4a9072d398537b1ab2425f24cbed00905090565b5f611a70848484612a06565b90509392505050565b5f7f02dd7bc7dec4dceedda775e58dd541e08a116c6c53815c0bd028192f7b626800905090565b5f7fdaedc9ab023613a7caf35e703657e986ccfad7e3eb0af93a2853f8d65dd86b00905090565b5f612710905090565b611ae181611adc611a24565b612a23565b50565b5f80611aee612200565b90505f611afb8585612a74565b90508015611b2957611b2784835f015f8881526020019081526020015f20612b6c90919063ffffffff16565b505b809250505092915050565b5f80611b3e612200565b90505f611b4b8585612b99565b90508015611b7957611b7784835f015f8881526020019081526020015f20612c9190919063ffffffff16565b505b809250505092915050565b611b8c611a24565b73ffffffffffffffffffffffffffffffffffffffff16611baa61129d565b73ffffffffffffffffffffffffffffffffffffffff1614611c0957611bcd611a24565b6040517f118cdaa7000000000000000000000000000000000000000000000000000000008152600401611c009190614787565b60405180910390fd5b565b611c13612cbe565b5f611c1c611f0f565b90505f815f015f6101000a81548160ff0219169083151502179055507f5db9ee0a495bf2e6ff9c91a7834c1ba4fdd244a5e8aa4e537bd38aeae4b073aa611c61611a24565b604051611c6e9190614787565b60405180910390a150565b7f000000000000000000000000000000000000000000000000000000000000000073ffffffffffffffffffffffffffffffffffffffff163073ffffffffffffffffffffffffffffffffffffffff161480611d2657507f000000000000000000000000000000000000000000000000000000000000000073ffffffffffffffffffffffffffffffffffffffff16611d0d612cfe565b73ffffffffffffffffffffffffffffffffffffffff1614155b15611d5d576040517fe07c8dba00000000000000000000000000000000000000000000000000000000815260040160405180910390fd5b565b611d67611b84565b50565b8173ffffffffffffffffffffffffffffffffffffffff166352d1902d6040518163ffffffff1660e01b8152600401602060405180830381865afa925050508015611dd257506040513d601f19601f82011682018060405250810190611dcf919061548e565b60015b611e1357816040517f4c9c8ce3000000000000000000000000000000000000000000000000000000008152600401611e0a9190614787565b60405180910390fd5b7f360894a13ba1a3210667c828492db98dca3e2076cc3735a920a3ca505d382bbc5f1b8114611e7957806040517faa1d49a4000000000000000000000000000000000000000000000000000000008152600401611e7091906148ed565b60405180910390fd5b611e838383612d51565b505050565b7f000000000000000000000000000000000000000000000000000000000000000073ffffffffffffffffffffffffffffffffffffffff163073ffffffffffffffffffffffffffffffffffffffff1614611f0d576040517fe07c8dba00000000000000000000000000000000000000000000000000000000815260040160405180910390fd5b565b5f7fcd5ed15c6e187e77e9aee88184c21f4f2182ab5827cb3b7e07fbedcd63f03300905090565b5f611f3f6121d9565b90505f815f015f9054906101000a900473ffffffffffffffffffffffffffffffffffffffff16905082825f015f6101000a81548173ffffffffffffffffffffffffffffffffffffffff021916908373ffffffffffffffffffffffffffffffffffffffff1602179055508273ffffffffffffffffffffffffffffffffffffffff168173ffffffffffffffffffffffffffffffffffffffff167f8be0079c531659141344cd1fd0a4f28419497f9722a3daafe3b4186f6b6457e060405160405180910390a3505050565b61200f612dc3565b5f612018611f0f565b90506001815f015f6101000a81548160ff0219169083151502179055507f62e78cea01bee320cd4e420270b5ea74000d11b0c9f74754ebdbfc544b05a25861205e611a24565b60405161206b9190614787565b60405180910390a150565b5f7fa16a46d94261c7517cc8ff89f61c0ce93598e3c849801011dee649a6a557d100905090565b60605f6120a8612076565b90508060020180546120b990614f9d565b80601f01602080910402602001604051908101604052809291908181526020018280546120e590614f9d565b80156121305780601f1061210757610100808354040283529160200191612130565b820191905f5260205f20905b81548152906001019060200180831161211357829003601f168201915b505050505091505090565b60605f612146612076565b905080600301805461215790614f9d565b80601f016020809104026020016040519081016040528092919081815260200182805461218390614f9d565b80156121ce5780601f106121a5576101008083540402835291602001916121ce565b820191905f5260205f20905b8154815290600101906020018083116121b157829003601f168201915b505050505091505090565b5f7f9016d09d72d40fdae2fd8ceac6b6234c7706214fd39c1cd1e609a0528c199300905090565b5f7fc1f6fe24621ce81ec5827caf0253cadb74709b061630e6b55e82371705932000905090565b5f612234835f0183612e04565b5f1c905092915050565b5f612247611930565b90505f73ffffffffffffffffffffffffffffffffffffffff168373ffffffffffffffffffffffffffffffffffffffff16036122b957826040517f5b08ba180000000000000000000000000000000000000000000000000000000081526004016122b09190614787565b60405180910390fd5b81816005015f8673ffffffffffffffffffffffffffffffffffffffff1673ffffffffffffffffffffffffffffffffffffffff1681526020019081526020015f205f8573ffffffffffffffffffffffffffffffffffffffff1673ffffffffffffffffffffffffffffffffffffffff1681526020019081526020015f205f6101000a81548160ff0219169083151502179055508273ffffffffffffffffffffffffffffffffffffffff168473ffffffffffffffffffffffffffffffffffffffff167f17307eab39ab6107e8899845ad3d59bd9653f200f220920489ca2b5937696c31846040516123a79190614627565b60405180910390a350505050565b5f8373ffffffffffffffffffffffffffffffffffffffff163b1115612561578273ffffffffffffffffffffffffffffffffffffffff1663150b7a026123f8611a24565b8685856040518563ffffffff1660e01b815260040161241a949392919061550b565b6020604051808303815f875af192505050801561245557506040513d601f19601f820116820180604052508101906124529190615569565b60015b6124d6573d805f8114612483576040519150601f19603f3d011682016040523d82523d5f602084013e612488565b606091505b505f8151036124ce57836040517f64a0ae920000000000000000000000000000000000000000000000000000000081526004016124c59190614787565b60405180910390fd5b805181602001fd5b63150b7a0260e01b7bffffffffffffffffffffffffffffffffffffffffffffffffffffffff1916817bffffffffffffffffffffffffffffffffffffffffffffffffffffffff19161461255f57836040517f64a0ae920000000000000000000000000000000000000000000000000000000081526004016125569190614787565b60405180910390fd5b505b50505050565b5f7ff0c57e16840df040f15088dc2f81fe391c3923bec73e23a9662efc9c229c6a00905090565b612596612e2b565b6125a08282612e6b565b5050565b6125ac612e2b565b565b6125b6612e2b565b565b6125c0612e2b565b6125c8612ea6565b565b6125d2612e2b565b6125db81612ed6565b50565b6125e6612e2b565b565b6125f0612e2b565b6125fa8282612f5a565b5050565b60605f612609612fab565b905061261483611957565b505f815f015f8581526020019081526020015f20805461263390614f9d565b80601f016020809104026020016040519081016040528092919081815260200182805461265f90614f9d565b80156126aa5780601f10612681576101008083540402835291602001916126aa565b820191905f5260205f20905b81548152906001019060200180831161268d57829003601f168201915b505050505090505f6126ba612fd2565b90505f8151036126cf57819350505050612713565b5f825111156127045780826040516020016126eb9291906155ce565b6040516020818303038152906040529350505050612713565b61270d85612fe8565b93505050505b919050565b5f612724825f0161304e565b9050919050565b612744828260405180602001604052805f81525061305d565b5050565b5f612751612fab565b905081815f015f8581526020019081526020015f2090816127729190615297565b507ff8e1a15aba9398e019f0b49df1a4fde98ee17ae345cb5f6b5e2c27f5033e8ce7836040516127a29190614817565b60405180910390a1505050565b5f7f780e9d63000000000000000000000000000000000000000000000000000000007bffffffffffffffffffffffffffffffffffffffffffffffffffffffff1916827bffffffffffffffffffffffffffffffffffffffffffffffffffffffff19161480612821575061282082613078565b5b9050919050565b5f612832826130f1565b9050919050565b5f612842611930565b9050818061287c57505f73ffffffffffffffffffffffffffffffffffffffff168373ffffffffffffffffffffffffffffffffffffffff1614155b156129ae575f61288b85611957565b90505f73ffffffffffffffffffffffffffffffffffffffff168473ffffffffffffffffffffffffffffffffffffffff16141580156128f557508373ffffffffffffffffffffffffffffffffffffffff168173ffffffffffffffffffffffffffffffffffffffff1614155b8015612908575061290681856117b0565b155b1561294a57836040517fa9fbf51f0000000000000000000000000000000000000000000000000000000081526004016129419190614787565b60405180910390fd5b82156129ac57848673ffffffffffffffffffffffffffffffffffffffff168273ffffffffffffffffffffffffffffffffffffffff167f8c5be1e5ebec7d5bd14f71427d1e84f3dd0314c0f7b2291e5b200ac8c7c3b92560405160405180910390a45b505b84816004015f8681526020019081526020015f205f6101000a81548173ffffffffffffffffffffffffffffffffffffffff021916908373ffffffffffffffffffffffffffffffffffffffff1602179055505050505050565b5f612a0f612dc3565b612a1a848484613138565b90509392505050565b612a2d828261130b565b612a705780826040517fe2517d3f000000000000000000000000000000000000000000000000000000008152600401612a679291906155f1565b60405180910390fd5b5050565b5f80612a7e611a79565b9050612a8a848461130b565b612b61576001815f015f8681526020019081526020015f205f015f8573ffffffffffffffffffffffffffffffffffffffff1673ffffffffffffffffffffffffffffffffffffffff1681526020019081526020015f205f6101000a81548160ff021916908315150217905550612afd611a24565b73ffffffffffffffffffffffffffffffffffffffff168373ffffffffffffffffffffffffffffffffffffffff16857f2f8788117e7eff1d82e926ec794901d17c78024a50270940304540a733656f0d60405160405180910390a46001915050612b66565b5f9150505b92915050565b5f612b91835f018373ffffffffffffffffffffffffffffffffffffffff165f1b613252565b905092915050565b5f80612ba3611a79565b9050612baf848461130b565b15612c86575f815f015f8681526020019081526020015f205f015f8573ffffffffffffffffffffffffffffffffffffffff1673ffffffffffffffffffffffffffffffffffffffff1681526020019081526020015f205f6101000a81548160ff021916908315150217905550612c22611a24565b73ffffffffffffffffffffffffffffffffffffffff168373ffffffffffffffffffffffffffffffffffffffff16857ff6391f5c32d9c69d2a47ea670b442974b53935d1edc7fd64eb21e047a839171b60405160405180910390a46001915050612c8b565b5f9150505b92915050565b5f612cb6835f018373ffffffffffffffffffffffffffffffffffffffff165f1b6132b9565b905092915050565b612cc6610fe8565b612cfc576040517f8dfc202b00000000000000000000000000000000000000000000000000000000815260040160405180910390fd5b565b5f612d2a7f360894a13ba1a3210667c828492db98dca3e2076cc3735a920a3ca505d382bbc5f1b6133b5565b5f015f9054906101000a900473ffffffffffffffffffffffffffffffffffffffff16905090565b612d5a826133be565b8173ffffffffffffffffffffffffffffffffffffffff167fbc7cd75a20ee27fd9adebab32041f755214dbc6bffa90cc0225b39da2e5c2d3b60405160405180910390a25f81511115612db657612db08282613487565b50612dbf565b612dbe613507565b5b5050565b612dcb610fe8565b15612e02576040517fd93c066500000000000000000000000000000000000000000000000000000000815260040160405180910390fd5b565b5f825f018281548110612e1a57612e196150cd565b5b905f5260205f200154905092915050565b612e33613543565b612e69576040517fd7e6bcf800000000000000000000000000000000000000000000000000000000815260040160405180910390fd5b565b612e73612e2b565b5f612e7c611930565b905082815f019081612e8e9190615297565b5081816001019081612ea09190615297565b50505050565b612eae612e2b565b5f612eb7611f0f565b90505f815f015f6101000a81548160ff02191690831515021790555050565b612ede612e2b565b5f73ffffffffffffffffffffffffffffffffffffffff168173ffffffffffffffffffffffffffffffffffffffff1603612f4e575f6040517f1e4fbdf7000000000000000000000000000000000000000000000000000000008152600401612f459190614787565b60405180910390fd5b612f5781611f36565b50565b612f62612e2b565b5f612f6b612076565b905082816002019081612f7e9190615297565b5081816003019081612f909190615297565b505f801b815f01819055505f801b8160010181905550505050565b5f7f0542a41881ee128a365a727b282c86fa859579490b9bb45aab8503648c8e7900905090565b606060405180602001604052805f815250905090565b6060612ff382611957565b505f612ffd612fd2565b90505f81511161301b5760405180602001604052805f815250613046565b8061302584613561565b6040516020016130369291906155ce565b6040516020818303038152906040525b915050919050565b5f815f01805490509050919050565b613067838361362b565b6130735f8484846123b5565b505050565b5f7f2a55205a000000000000000000000000000000000000000000000000000000007bffffffffffffffffffffffffffffffffffffffffffffffffffffffff1916827bffffffffffffffffffffffffffffffffffffffffffffffffffffffff191614806130ea57506130e98261371e565b5b9050919050565b5f806130fb611930565b9050806002015f8481526020019081526020015f205f9054906101000a900473ffffffffffffffffffffffffffffffffffffffff16915050919050565b5f80613145858585613797565b90505f73ffffffffffffffffffffffffffffffffffffffff168173ffffffffffffffffffffffffffffffffffffffff160361318857613183846138cf565b6131c7565b8473ffffffffffffffffffffffffffffffffffffffff168173ffffffffffffffffffffffffffffffffffffffff16146131c6576131c58185613925565b5b5b5f73ffffffffffffffffffffffffffffffffffffffff168573ffffffffffffffffffffffffffffffffffffffff16036132085761320384613a84565b613247565b8473ffffffffffffffffffffffffffffffffffffffff168173ffffffffffffffffffffffffffffffffffffffff1614613246576132458585613b5e565b5b5b809150509392505050565b5f61325d8383613bf1565b6132af57825f0182908060018154018082558091505060019003905f5260205f20015f9091909190915055825f0180549050836001015f8481526020019081526020015f2081905550600190506132b3565b5f90505b92915050565b5f80836001015f8481526020019081526020015f205490505f81146133aa575f6001826132e69190615618565b90505f6001865f01805490506132fc9190615618565b9050808214613362575f865f01828154811061331b5761331a6150cd565b5b905f5260205f200154905080875f01848154811061333c5761333b6150cd565b5b905f5260205f20018190555083876001015f8381526020019081526020015f2081905550505b855f018054806133755761337461564b565b5b600190038181905f5260205f20015f90559055856001015f8681526020019081526020015f205f9055600193505050506133af565b5f9150505b92915050565b5f819050919050565b5f8173ffffffffffffffffffffffffffffffffffffffff163b0361341957806040517f4c9c8ce30000000000000000000000000000000000000000000000000000000081526004016134109190614787565b60405180910390fd5b806134457f360894a13ba1a3210667c828492db98dca3e2076cc3735a920a3ca505d382bbc5f1b6133b5565b5f015f6101000a81548173ffffffffffffffffffffffffffffffffffffffff021916908373ffffffffffffffffffffffffffffffffffffffff16021790555050565b60605f808473ffffffffffffffffffffffffffffffffffffffff16846040516134b091906156b2565b5f60405180830381855af49150503d805f81146134e8576040519150601f19603f3d011682016040523d82523d5f602084013e6134ed565b606091505b50915091506134fd858383613c11565b9250505092915050565b5f341115613541576040517fb398979f00000000000000000000000000000000000000000000000000000000815260040160405180910390fd5b565b5f61354c612567565b5f0160089054906101000a900460ff16905090565b60605f600161356f84613c9e565b0190505f8167ffffffffffffffff81111561358d5761358c6149b1565b5b6040519080825280601f01601f1916602001820160405280156135bf5781602001600182028036833780820191505090505b5090505f82602001820190505b600115613620578080600190039150507f3031323334353637383961626364656600000000000000000000000000000000600a86061a8153600a858161361557613614615070565b5b0494505f85036135cc575b819350505050919050565b5f73ffffffffffffffffffffffffffffffffffffffff168273ffffffffffffffffffffffffffffffffffffffff160361369b575f6040517f64a0ae920000000000000000000000000000000000000000000000000000000081526004016136929190614787565b60405180910390fd5b5f6136a783835f611a64565b90505f73ffffffffffffffffffffffffffffffffffffffff168173ffffffffffffffffffffffffffffffffffffffff1614613719575f6040517f73c6ac6e0000000000000000000000000000000000000000000000000000000081526004016137109190614787565b60405180910390fd5b505050565b5f7f5a05180f000000000000000000000000000000000000000000000000000000007bffffffffffffffffffffffffffffffffffffffffffffffffffffffff1916827bffffffffffffffffffffffffffffffffffffffffffffffffffffffff19161480613790575061378f82613def565b5b9050919050565b5f806137a1613ed0565b90505f6137af868686613ef7565b90505f73ffffffffffffffffffffffffffffffffffffffff168173ffffffffffffffffffffffffffffffffffffffff1614801561380257505f3073ffffffffffffffffffffffffffffffffffffffff163b145b15613839576040517fad89505200000000000000000000000000000000000000000000000000000000815260040160405180910390fd5b5f73ffffffffffffffffffffffffffffffffffffffff168673ffffffffffffffffffffffffffffffffffffffff161480156138885750613877614114565b6bffffffffffffffffffffffff1685105b80156138a757506138a5858360010161415a90919063ffffffff16565b155b156138c3576138c2858360010161419090919063ffffffff16565b5b80925050509392505050565b5f6138d8611a3d565b90508060020180549050816003015f8481526020019081526020015f20819055508060020182908060018154018082558091505060019003905f5260205f20015f90919091909150555050565b5f61392e611a3d565b90505f61393a8461101b565b90505f826001015f8581526020019081526020015f20549050818114613a17575f835f015f8773ffffffffffffffffffffffffffffffffffffffff1673ffffffffffffffffffffffffffffffffffffffff1681526020019081526020015f205f8481526020019081526020015f2054905080845f015f8873ffffffffffffffffffffffffffffffffffffffff1673ffffffffffffffffffffffffffffffffffffffff1681526020019081526020015f205f8481526020019081526020015f208190555081846001015f8381526020019081526020015f2081905550505b826001015f8581526020019081526020015f205f9055825f015f8673ffffffffffffffffffffffffffffffffffffffff1673ffffffffffffffffffffffffffffffffffffffff1681526020019081526020015f205f8381526020019081526020015f205f90555050505050565b5f613a8d611a3d565b90505f60018260020180549050613aa49190615618565b90505f826003015f8581526020019081526020015f205490505f836002018381548110613ad457613ad36150cd565b5b905f5260205f200154905080846002018381548110613af657613af56150cd565b5b905f5260205f20018190555081846003015f8381526020019081526020015f2081905550836003015f8681526020019081526020015f205f905583600201805480613b4457613b4361564b565b5b600190038181905f5260205f20015f905590555050505050565b5f613b67611a3d565b90505f6001613b758561101b565b613b7f9190615618565b905082825f015f8673ffffffffffffffffffffffffffffffffffffffff1673ffffffffffffffffffffffffffffffffffffffff1681526020019081526020015f205f8381526020019081526020015f208190555080826001015f8581526020019081526020015f208190555050505050565b5f80836001015f8481526020019081526020015f20541415905092915050565b606082613c2657613c21826141c8565b613c96565b5f8251148015613c4c57505f8473ffffffffffffffffffffffffffffffffffffffff163b145b15613c8e57836040517f9996b315000000000000000000000000000000000000000000000000000000008152600401613c859190614787565b60405180910390fd5b819050613c97565b5b9392505050565b5f805f90507a184f03e93ff9f4daa797ed6e38ed64bf6a1f0100000000000000008310613cfa577a184f03e93ff9f4daa797ed6e38ed64bf6a1f0100000000000000008381613cf057613cef615070565b5b0492506040810190505b6d04ee2d6d415b85acef81000000008310613d37576d04ee2d6d415b85acef81000000008381613d2d57613d2c615070565b5b0492506020810190505b662386f26fc100008310613d6657662386f26fc100008381613d5c57613d5b615070565b5b0492506010810190505b6305f5e1008310613d8f576305f5e1008381613d8557613d84615070565b5b0492506008810190505b6127108310613db4576127108381613daa57613da9615070565b5b0492506004810190505b60648310613dd75760648381613dcd57613dcc615070565b5b0492506002810190505b600a8310613de6576001810190505b80915050919050565b5f7f80ac58cd000000000000000000000000000000000000000000000000000000007bffffffffffffffffffffffffffffffffffffffffffffffffffffffff1916827bffffffffffffffffffffffffffffffffffffffffffffffffffffffff19161480613eb957507f5b5e139f000000000000000000000000000000000000000000000000000000007bffffffffffffffffffffffffffffffffffffffffffffffffffffffff1916827bffffffffffffffffffffffffffffffffffffffffffffffffffffffff1916145b80613ec95750613ec88261420c565b5b9050919050565b5f7f24de1071a22e1e6f709b09cc0dadb696f919b85b456665cd36195df4bc89ff00905090565b5f80613f01611930565b90505f613f0d85612828565b90505f73ffffffffffffffffffffffffffffffffffffffff168473ffffffffffffffffffffffffffffffffffffffff1614613f4e57613f4d818587614285565b5b5f73ffffffffffffffffffffffffffffffffffffffff168173ffffffffffffffffffffffffffffffffffffffff1614613fdb57613f8d5f865f80612839565b6001826003015f8373ffffffffffffffffffffffffffffffffffffffff1673ffffffffffffffffffffffffffffffffffffffff1681526020019081526020015f205f82825403925050819055505b5f73ffffffffffffffffffffffffffffffffffffffff168673ffffffffffffffffffffffffffffffffffffffff161461405c576001826003015f8873ffffffffffffffffffffffffffffffffffffffff1673ffffffffffffffffffffffffffffffffffffffff1681526020019081526020015f205f82825401925050819055505b85826002015f8781526020019081526020015f205f6101000a81548173ffffffffffffffffffffffffffffffffffffffff021916908373ffffffffffffffffffffffffffffffffffffffff160217905550848673ffffffffffffffffffffffffffffffffffffffff168273ffffffffffffffffffffffffffffffffffffffff167fddf252ad1be2c89b69c2b068fc378daa952ba7f163c4a11628f55a4df523b3ef60405160405180910390a480925050509392505050565b5f8061411e613ed0565b90505f8061412d835f01614348565b5091509150816141445761413f61443d565b614152565b60018161415191906156df565b5b935050505090565b5f80600883901c90505f60ff84166001901b90505f81865f015f8581526020019081526020015f20541614159250505092915050565b5f600882901c90505f60ff83166001901b905080845f015f8481526020019081526020015f205f828254179250508190555050505050565b5f815111156141da5780518082602001fd5b6040517f1425ea4200000000000000000000000000000000000000000000000000000000815260040160405180910390fd5b5f7f7965db0b000000000000000000000000000000000000000000000000000000007bffffffffffffffffffffffffffffffffffffffffffffffffffffffff1916827bffffffffffffffffffffffffffffffffffffffffffffffffffffffff1916148061427e575061427d82614441565b5b9050919050565b6142908383836144aa565b614343575f73ffffffffffffffffffffffffffffffffffffffff168373ffffffffffffffffffffffffffffffffffffffff160361430457806040517f7e2732890000000000000000000000000000000000000000000000000000000081526004016142fb9190614817565b60405180910390fd5b81816040517f177e802f00000000000000000000000000000000000000000000000000000000815260040161433a929190614944565b60405180910390fd5b505050565b5f805f80845f018054905090505f810361436b575f805f93509350935050614436565b5f614384865f0160018461437f9190615618565b61456a565b6040518060400160405290815f82015f9054906101000a90046bffffffffffffffffffffffff166bffffffffffffffffffffffff166bffffffffffffffffffffffff1681526020015f8201600c9054906101000a900473ffffffffffffffffffffffffffffffffffffffff1673ffffffffffffffffffffffffffffffffffffffff1673ffffffffffffffffffffffffffffffffffffffff168152505090506001815f0151826020015194509450945050505b9193909250565b5f90565b5f7f01ffc9a7000000000000000000000000000000000000000000000000000000007bffffffffffffffffffffffffffffffffffffffffffffffffffffffff1916827bffffffffffffffffffffffffffffffffffffffffffffffffffffffff1916149050919050565b5f8073ffffffffffffffffffffffffffffffffffffffff168373ffffffffffffffffffffffffffffffffffffffff161415801561456157508273ffffffffffffffffffffffffffffffffffffffff168473ffffffffffffffffffffffffffffffffffffffff161480614522575061452184846117b0565b5b8061456057508273ffffffffffffffffffffffffffffffffffffffff16614548836119dd565b73ffffffffffffffffffffffffffffffffffffffff16145b5b90509392505050565b5f825f528160205f2001905092915050565b5f604051905090565b5f80fd5b5f80fd5b5f7fffffffff0000000000000000000000000000000000000000000000000000000082169050919050565b6145c18161458d565b81146145cb575f80fd5b50565b5f813590506145dc816145b8565b92915050565b5f602082840312156145f7576145f6614585565b5b5f614604848285016145ce565b91505092915050565b5f8115159050919050565b6146218161460d565b82525050565b5f60208201905061463a5f830184614618565b92915050565b5f81519050919050565b5f82825260208201905092915050565b5f5b8381101561467757808201518184015260208101905061465c565b5f8484015250505050565b5f601f19601f8301169050919050565b5f61469c82614640565b6146a6818561464a565b93506146b681856020860161465a565b6146bf81614682565b840191505092915050565b5f6020820190508181035f8301526146e28184614692565b905092915050565b5f819050919050565b6146fc816146ea565b8114614706575f80fd5b50565b5f81359050614717816146f3565b92915050565b5f6020828403121561473257614731614585565b5b5f61473f84828501614709565b91505092915050565b5f73ffffffffffffffffffffffffffffffffffffffff82169050919050565b5f61477182614748565b9050919050565b61478181614767565b82525050565b5f60208201905061479a5f830184614778565b92915050565b6147a981614767565b81146147b3575f80fd5b50565b5f813590506147c4816147a0565b92915050565b5f80604083850312156147e0576147df614585565b5b5f6147ed858286016147b6565b92505060206147fe85828601614709565b9150509250929050565b614811816146ea565b82525050565b5f60208201905061482a5f830184614808565b92915050565b5f805f6060848603121561484757614846614585565b5b5f614854868287016147b6565b9350506020614865868287016147b6565b925050604061487686828701614709565b9150509250925092565b5f819050919050565b61489281614880565b811461489c575f80fd5b50565b5f813590506148ad81614889565b92915050565b5f602082840312156148c8576148c7614585565b5b5f6148d58482850161489f565b91505092915050565b6148e781614880565b82525050565b5f6020820190506149005f8301846148de565b92915050565b5f806040838503121561491c5761491b614585565b5b5f61492985828601614709565b925050602061493a85828601614709565b9150509250929050565b5f6040820190506149575f830185614778565b6149646020830184614808565b9392505050565b5f806040838503121561498157614980614585565b5b5f61498e8582860161489f565b925050602061499f858286016147b6565b9150509250929050565b5f80fd5b5f80fd5b7f4e487b71000000000000000000000000000000000000000000000000000000005f52604160045260245ffd5b6149e782614682565b810181811067ffffffffffffffff82111715614a0657614a056149b1565b5b80604052505050565b5f614a1861457c565b9050614a2482826149de565b919050565b5f67ffffffffffffffff821115614a4357614a426149b1565b5b614a4c82614682565b9050602081019050919050565b828183375f83830152505050565b5f614a79614a7484614a29565b614a0f565b905082815260208101848484011115614a9557614a946149ad565b5b614aa0848285614a59565b509392505050565b5f82601f830112614abc57614abb6149a9565b5b8135614acc848260208601614a67565b91505092915050565b5f8060408385031215614aeb57614aea614585565b5b5f614af8858286016147b6565b925050602083013567ffffffffffffffff811115614b1957614b18614589565b5b614b2585828601614aa8565b9150509250929050565b5f67ffffffffffffffff821115614b4957614b486149b1565b5b614b5282614682565b9050602081019050919050565b5f614b71614b6c84614b2f565b614a0f565b905082815260208101848484011115614b8d57614b8c6149ad565b5b614b98848285614a59565b509392505050565b5f82601f830112614bb457614bb36149a9565b5b8135614bc4848260208601614b5f565b91505092915050565b5f60208284031215614be257614be1614585565b5b5f82013567ffffffffffffffff811115614bff57614bfe614589565b5b614c0b84828501614ba0565b91505092915050565b5f60208284031215614c2957614c28614585565b5b5f614c36848285016147b6565b91505092915050565b5f7fff0000000000000000000000000000000000000000000000000000000000000082169050919050565b614c7381614c3f565b82525050565b5f81519050919050565b5f82825260208201905092915050565b5f819050602082019050919050565b614cab816146ea565b82525050565b5f614cbc8383614ca2565b60208301905092915050565b5f602082019050919050565b5f614cde82614c79565b614ce88185614c83565b9350614cf383614c93565b805f5b83811015614d23578151614d0a8882614cb1565b9750614d1583614cc8565b925050600181019050614cf6565b5085935050505092915050565b5f60e082019050614d435f83018a614c6a565b8181036020830152614d558189614692565b90508181036040830152614d698188614692565b9050614d786060830187614808565b614d856080830186614778565b614d9260a08301856148de565b81810360c0830152614da48184614cd4565b905098975050505050505050565b5f8060408385031215614dc857614dc7614585565b5b5f614dd58582860161489f565b9250506020614de685828601614709565b9150509250929050565b614df98161460d565b8114614e03575f80fd5b50565b5f81359050614e1481614df0565b92915050565b5f8060408385031215614e3057614e2f614585565b5b5f614e3d858286016147b6565b9250506020614e4e85828601614e06565b9150509250929050565b5f805f8060808587031215614e7057614e6f614585565b5b5f614e7d878288016147b6565b9450506020614e8e878288016147b6565b9350506040614e9f87828801614709565b925050606085013567ffffffffffffffff811115614ec057614ebf614589565b5b614ecc87828801614aa8565b91505092959194509250565b5f8060408385031215614eee57614eed614585565b5b5f614efb858286016147b6565b925050602083013567ffffffffffffffff811115614f1c57614f1b614589565b5b614f2885828601614ba0565b9150509250929050565b5f8060408385031215614f4857614f47614585565b5b5f614f55858286016147b6565b9250506020614f66858286016147b6565b9150509250929050565b7f4e487b71000000000000000000000000000000000000000000000000000000005f52602260045260245ffd5b5f6002820490506001821680614fb457607f821691505b602082108103614fc757614fc6614f70565b5b50919050565b5f606082019050614fe05f830186614778565b614fed6020830185614808565b614ffa6040830184614778565b949350505050565b7f4e487b71000000000000000000000000000000000000000000000000000000005f52601160045260245ffd5b5f615039826146ea565b9150615044836146ea565b9250828202615052816146ea565b9150828204841483151761506957615068615002565b5b5092915050565b7f4e487b71000000000000000000000000000000000000000000000000000000005f52601260045260245ffd5b5f6150a7826146ea565b91506150b2836146ea565b9250826150c2576150c1615070565b5b828204905092915050565b7f4e487b71000000000000000000000000000000000000000000000000000000005f52603260045260245ffd5b5f819050815f5260205f209050919050565b5f6020601f8301049050919050565b5f82821b905092915050565b5f600883026151567fffffffffffffffffffffffffffffffffffffffffffffffffffffffffffffffff8261511b565b615160868361511b565b95508019841693508086168417925050509392505050565b5f819050919050565b5f61519b615196615191846146ea565b615178565b6146ea565b9050919050565b5f819050919050565b6151b483615181565b6151c86151c0826151a2565b848454615127565b825550505050565b5f90565b6151dc6151d0565b6151e78184846151ab565b505050565b5b8181101561520a576151ff5f826151d4565b6001810190506151ed565b5050565b601f82111561524f57615220816150fa565b6152298461510c565b81016020851015615238578190505b61524c6152448561510c565b8301826151ec565b50505b505050565b5f82821c905092915050565b5f61526f5f1984600802615254565b1980831691505092915050565b5f6152878383615260565b9150826002028217905092915050565b6152a082614640565b67ffffffffffffffff8111156152b9576152b86149b1565b5b6152c38254614f9d565b6152ce82828561520e565b5f60209050601f8311600181146152ff575f84156152ed578287015190505b6152f7858261527c565b86555061535e565b601f19841661530d866150fa565b5f5b828110156153345784890151825560018201915060208501945060208101905061530f565b86831015615351578489015161534d601f891682615260565b8355505b6001600288020188555050505b505050505050565b7f4549503731323a20556e696e697469616c697a656400000000000000000000005f82015250565b5f61539a60158361464a565b91506153a582615366565b602082019050919050565b5f6020820190508181035f8301526153c78161538e565b9050919050565b5f819050919050565b5f67ffffffffffffffff82169050919050565b5f6154046153ff6153fa846153ce565b615178565b6153d7565b9050919050565b615414816153ea565b82525050565b5f60208201905061542d5f83018461540b565b92915050565b5f61543d826146ea565b91507fffffffffffffffffffffffffffffffffffffffffffffffffffffffffffffffff820361546f5761546e615002565b5b600182019050919050565b5f8151905061548881614889565b92915050565b5f602082840312156154a3576154a2614585565b5b5f6154b08482850161547a565b91505092915050565b5f81519050919050565b5f82825260208201905092915050565b5f6154dd826154b9565b6154e781856154c3565b93506154f781856020860161465a565b61550081614682565b840191505092915050565b5f60808201905061551e5f830187614778565b61552b6020830186614778565b6155386040830185614808565b818103606083015261554a81846154d3565b905095945050505050565b5f81519050615563816145b8565b92915050565b5f6020828403121561557e5761557d614585565b5b5f61558b84828501615555565b91505092915050565b5f81905092915050565b5f6155a882614640565b6155b28185615594565b93506155c281856020860161465a565b80840191505092915050565b5f6155d9828561559e565b91506155e5828461559e565b91508190509392505050565b5f6040820190506156045f830185614778565b61561160208301846148de565b9392505050565b5f615622826146ea565b915061562d836146ea565b925082820390508181111561564557615644615002565b5b92915050565b7f4e487b71000000000000000000000000000000000000000000000000000000005f52603160045260245ffd5b5f81905092915050565b5f61568c826154b9565b6156968185615678565b93506156a681856020860161465a565b80840191505092915050565b5f6156bd8284615682565b915081905092915050565b5f6bffffffffffffffffffffffff82169050919050565b5f6156e9826156c8565b91506156f4836156c8565b925082820190506bffffffffffffffffffffffff81111561571857615717615002565b5b9291505056fea264697066735822122035b42aa9c478eed139cf78150d994e8e264cdbca5c2eebf2039e1d7eddc0917764736f6c63430008170033",
		"opcodes": "PUSH1 0x80 PUSH1 0x40 MSTORE PUSH1 0x4 CALLDATASIZE LT PUSH2 0x23A JUMPI PUSH0 CALLDATALOAD PUSH1 0xE0 SHR DUP1 PUSH4 0x70A08231 GT PUSH2 0x12D JUMPI DUP1 PUSH4 0xA22CB465 GT PUSH2 0xAA JUMPI DUP1 PUSH4 0xCA15C873 GT PUSH2 0x6E JUMPI DUP1 PUSH4 0xCA15C873 EQ PUSH2 0x86B JUMPI DUP1 PUSH4 0xD204C45E EQ PUSH2 0x8A7 JUMPI DUP1 PUSH4 0xD547741F EQ PUSH2 0x8CF JUMPI DUP1 PUSH4 0xE985E9C5 EQ PUSH2 0x8F7 JUMPI DUP1 PUSH4 0xF2FDE38B EQ PUSH2 0x933 JUMPI PUSH2 0x23A JUMP JUMPDEST DUP1 PUSH4 0xA22CB465 EQ PUSH2 0x78D JUMPI DUP1 PUSH4 0xAD3CB1CC EQ PUSH2 0x7B5 JUMPI DUP1 PUSH4 0xB88D4FDE EQ PUSH2 0x7DF JUMPI DUP1 PUSH4 0xC4D66DE8 EQ PUSH2 0x807 JUMPI DUP1 PUSH4 0xC87B56DD EQ PUSH2 0x82F JUMPI PUSH2 0x23A JUMP JUMPDEST DUP1 PUSH4 0x8DA5CB5B GT PUSH2 0xF1 JUMPI DUP1 PUSH4 0x8DA5CB5B EQ PUSH2 0x697 JUMPI DUP1 PUSH4 0x9010D07C EQ PUSH2 0x6C1 JUMPI DUP1 PUSH4 0x91D14854 EQ PUSH2 0x6FD JUMPI DUP1 PUSH4 0x95D89B41 EQ PUSH2 0x739 JUMPI DUP1 PUSH4 0xA217FDDF EQ PUSH2 0x763 JUMPI PUSH2 0x23A JUMP JUMPDEST DUP1 PUSH4 0x70A08231 EQ PUSH2 0x5D5 JUMPI DUP1 PUSH4 0x715018A6 EQ PUSH2 0x611 JUMPI DUP1 PUSH4 0x8456CB59 EQ PUSH2 0x627 JUMPI DUP1 PUSH4 0x84B0196E EQ PUSH2 0x63D JUMPI DUP1 PUSH4 0x84D6E6E2 EQ PUSH2 0x66D JUMPI PUSH2 0x23A JUMP JUMPDEST DUP1 PUSH4 0x36568ABE GT PUSH2 0x1BB JUMPI DUP1 PUSH4 0x4F6CCCE7 GT PUSH2 0x17F JUMPI DUP1 PUSH4 0x4F6CCCE7 EQ PUSH2 0x4E1 JUMPI DUP1 PUSH4 0x52D1902D EQ PUSH2 0x51D JUMPI DUP1 PUSH4 0x55F804B3 EQ PUSH2 0x547 JUMPI DUP1 PUSH4 0x5C975ABB EQ PUSH2 0x56F JUMPI DUP1 PUSH4 0x6352211E EQ PUSH2 0x599 JUMPI PUSH2 0x23A JUMP JUMPDEST DUP1 PUSH4 0x36568ABE EQ PUSH2 0x437 JUMPI DUP1 PUSH4 0x3F4BA83A EQ PUSH2 0x45F JUMPI DUP1 PUSH4 0x42842E0E EQ PUSH2 0x475 JUMPI DUP1 PUSH4 0x42966C68 EQ PUSH2 0x49D JUMPI DUP1 PUSH4 0x4F1EF286 EQ PUSH2 0x4C5 JUMPI PUSH2 0x23A JUMP JUMPDEST DUP1 PUSH4 0x23B872DD GT PUSH2 0x202 JUMPI DUP1 PUSH4 0x23B872DD EQ PUSH2 0x332 JUMPI DUP1 PUSH4 0x248A9CA3 EQ PUSH2 0x35A JUMPI DUP1 PUSH4 0x2A55205A EQ PUSH2 0x396 JUMPI DUP1 PUSH4 0x2F2FF15D EQ PUSH2 0x3D3 JUMPI DUP1 PUSH4 0x2F745C59 EQ PUSH2 0x3FB JUMPI PUSH2 0x23A JUMP JUMPDEST DUP1 PUSH4 0x1FFC9A7 EQ PUSH2 0x23E JUMPI DUP1 PUSH4 0x6FDDE03 EQ PUSH2 0x27A JUMPI DUP1 PUSH4 0x81812FC EQ PUSH2 0x2A4 JUMPI DUP1 PUSH4 0x95EA7B3 EQ PUSH2 0x2E0 JUMPI DUP1 PUSH4 0x18160DDD EQ PUSH2 0x308 JUMPI JUMPDEST PUSH0 DUP1 REVERT JUMPDEST CALLVALUE DUP1 ISZERO PUSH2 0x249 JUMPI PUSH0 DUP1 REVERT JUMPDEST POP PUSH2 0x264 PUSH1 0x4 DUP1 CALLDATASIZE SUB DUP2 ADD SWAP1 PUSH2 0x25F SWAP2 SWAP1 PUSH2 0x45E2 JUMP JUMPDEST PUSH2 0x95B JUMP JUMPDEST PUSH1 0x40 MLOAD PUSH2 0x271 SWAP2 SWAP1 PUSH2 0x4627 JUMP JUMPDEST PUSH1 0x40 MLOAD DUP1 SWAP2 SUB SWAP1 RETURN JUMPDEST CALLVALUE DUP1 ISZERO PUSH2 0x285 JUMPI PUSH0 DUP1 REVERT JUMPDEST POP PUSH2 0x28E PUSH2 0x96C JUMP JUMPDEST PUSH1 0x40 MLOAD PUSH2 0x29B SWAP2 SWAP1 PUSH2 0x46CA JUMP JUMPDEST PUSH1 0x40 MLOAD DUP1 SWAP2 SUB SWAP1 RETURN JUMPDEST CALLVALUE DUP1 ISZERO PUSH2 0x2AF JUMPI PUSH0 DUP1 REVERT JUMPDEST POP PUSH2 0x2CA PUSH1 0x4 DUP1 CALLDATASIZE SUB DUP2 ADD SWAP1 PUSH2 0x2C5 SWAP2 SWAP1 PUSH2 0x471D JUMP JUMPDEST PUSH2 0xA09 JUMP JUMPDEST PUSH1 0x40 MLOAD PUSH2 0x2D7 SWAP2 SWAP1 PUSH2 0x4787 JUMP JUMPDEST PUSH1 0x40 MLOAD DUP1 SWAP2 SUB SWAP1 RETURN JUMPDEST CALLVALUE DUP1 ISZERO PUSH2 0x2EB JUMPI PUSH0 DUP1 REVERT JUMPDEST POP PUSH2 0x306 PUSH1 0x4 DUP1 CALLDATASIZE SUB DUP2 ADD SWAP1 PUSH2 0x301 SWAP2 SWAP1 PUSH2 0x47CA JUMP JUMPDEST PUSH2 0xA24 JUMP JUMPDEST STOP JUMPDEST CALLVALUE DUP1 ISZERO PUSH2 0x313 JUMPI PUSH0 DUP1 REVERT JUMPDEST POP PUSH2 0x31C PUSH2 0xA3A JUMP JUMPDEST PUSH1 0x40 MLOAD PUSH2 0x329 SWAP2 SWAP1 PUSH2 0x4817 JUMP JUMPDEST PUSH1 0x40 MLOAD DUP1 SWAP2 SUB SWAP1 RETURN JUMPDEST CALLVALUE DUP1 ISZERO PUSH2 0x33D JUMPI PUSH0 DUP1 REVERT JUMPDEST POP PUSH2 0x358 PUSH1 0x4 DUP1 CALLDATASIZE SUB DUP2 ADD SWAP1 PUSH2 0x353 SWAP2 SWAP1 PUSH2 0x4830 JUMP JUMPDEST PUSH2 0xA54 JUMP JUMPDEST STOP JUMPDEST CALLVALUE DUP1 ISZERO PUSH2 0x365 JUMPI PUSH0 DUP1 REVERT JUMPDEST POP PUSH2 0x380 PUSH1 0x4 DUP1 CALLDATASIZE SUB DUP2 ADD SWAP1 PUSH2 0x37B SWAP2 SWAP1 PUSH2 0x48B3 JUMP JUMPDEST PUSH2 0xB53 JUMP JUMPDEST PUSH1 0x40 MLOAD PUSH2 0x38D SWAP2 SWAP1 PUSH2 0x48ED JUMP JUMPDEST PUSH1 0x40 MLOAD DUP1 SWAP2 SUB SWAP1 RETURN JUMPDEST CALLVALUE DUP1 ISZERO PUSH2 0x3A1 JUMPI PUSH0 DUP1 REVERT JUMPDEST POP PUSH2 0x3BC PUSH1 0x4 DUP1 CALLDATASIZE SUB DUP2 ADD SWAP1 PUSH2 0x3B7 SWAP2 SWAP1 PUSH2 0x4906 JUMP JUMPDEST PUSH2 0xB7D JUMP JUMPDEST PUSH1 0x40 MLOAD PUSH2 0x3CA SWAP3 SWAP2 SWAP1 PUSH2 0x4944 JUMP JUMPDEST PUSH1 0x40 MLOAD DUP1 SWAP2 SUB SWAP1 RETURN JUMPDEST CALLVALUE DUP1 ISZERO PUSH2 0x3DE JUMPI PUSH0 DUP1 REVERT JUMPDEST POP PUSH2 0x3F9 PUSH1 0x4 DUP1 CALLDATASIZE SUB DUP2 ADD SWAP1 PUSH2 0x3F4 SWAP2 SWAP1 PUSH2 0x496B JUMP JUMPDEST PUSH2 0xD68 JUMP JUMPDEST STOP JUMPDEST CALLVALUE DUP1 ISZERO PUSH2 0x406 JUMPI PUSH0 DUP1 REVERT JUMPDEST POP PUSH2 0x421 PUSH1 0x4 DUP1 CALLDATASIZE SUB DUP2 ADD SWAP1 PUSH2 0x41C SWAP2 SWAP1 PUSH2 0x47CA JUMP JUMPDEST PUSH2 0xD8A JUMP JUMPDEST PUSH1 0x40 MLOAD PUSH2 0x42E SWAP2 SWAP1 PUSH2 0x4817 JUMP JUMPDEST PUSH1 0x40 MLOAD DUP1 SWAP2 SUB SWAP1 RETURN JUMPDEST CALLVALUE DUP1 ISZERO PUSH2 0x442 JUMPI PUSH0 DUP1 REVERT JUMPDEST POP PUSH2 0x45D PUSH1 0x4 DUP1 CALLDATASIZE SUB DUP2 ADD SWAP1 PUSH2 0x458 SWAP2 SWAP1 PUSH2 0x496B JUMP JUMPDEST PUSH2 0xE3B JUMP JUMPDEST STOP JUMPDEST CALLVALUE DUP1 ISZERO PUSH2 0x46A JUMPI PUSH0 DUP1 REVERT JUMPDEST POP PUSH2 0x473 PUSH2 0xEB6 JUMP JUMPDEST STOP JUMPDEST CALLVALUE DUP1 ISZERO PUSH2 0x480 JUMPI PUSH0 DUP1 REVERT JUMPDEST POP PUSH2 0x49B PUSH1 0x4 DUP1 CALLDATASIZE SUB DUP2 ADD SWAP1 PUSH2 0x496 SWAP2 SWAP1 PUSH2 0x4830 JUMP JUMPDEST PUSH2 0xEC8 JUMP JUMPDEST STOP JUMPDEST CALLVALUE DUP1 ISZERO PUSH2 0x4A8 JUMPI PUSH0 DUP1 REVERT JUMPDEST POP PUSH2 0x4C3 PUSH1 0x4 DUP1 CALLDATASIZE SUB DUP2 ADD SWAP1 PUSH2 0x4BE SWAP2 SWAP1 PUSH2 0x471D JUMP JUMPDEST PUSH2 0xEE7 JUMP JUMPDEST STOP JUMPDEST PUSH2 0x4DF PUSH1 0x4 DUP1 CALLDATASIZE SUB DUP2 ADD SWAP1 PUSH2 0x4DA SWAP2 SWAP1 PUSH2 0x4AD5 JUMP JUMPDEST PUSH2 0xEFD JUMP JUMPDEST STOP JUMPDEST CALLVALUE DUP1 ISZERO PUSH2 0x4EC JUMPI PUSH0 DUP1 REVERT JUMPDEST POP PUSH2 0x507 PUSH1 0x4 DUP1 CALLDATASIZE SUB DUP2 ADD SWAP1 PUSH2 0x502 SWAP2 SWAP1 PUSH2 0x471D JUMP JUMPDEST PUSH2 0xF1C JUMP JUMPDEST PUSH1 0x40 MLOAD PUSH2 0x514 SWAP2 SWAP1 PUSH2 0x4817 JUMP JUMPDEST PUSH1 0x40 MLOAD DUP1 SWAP2 SUB SWAP1 RETURN JUMPDEST CALLVALUE DUP1 ISZERO PUSH2 0x528 JUMPI PUSH0 DUP1 REVERT JUMPDEST POP PUSH2 0x531 PUSH2 0xF9C JUMP JUMPDEST PUSH1 0x40 MLOAD PUSH2 0x53E SWAP2 SWAP1 PUSH2 0x48ED JUMP JUMPDEST PUSH1 0x40 MLOAD DUP1 SWAP2 SUB SWAP1 RETURN JUMPDEST CALLVALUE DUP1 ISZERO PUSH2 0x552 JUMPI PUSH0 DUP1 REVERT JUMPDEST POP PUSH2 0x56D PUSH1 0x4 DUP1 CALLDATASIZE SUB DUP2 ADD SWAP1 PUSH2 0x568 SWAP2 SWAP1 PUSH2 0x4BCD JUMP JUMPDEST PUSH2 0xFCD JUMP JUMPDEST STOP JUMPDEST CALLVALUE DUP1 ISZERO PUSH2 0x57A JUMPI PUSH0 DUP1 REVERT JUMPDEST POP PUSH2 0x583 PUSH2 0xFE8 JUMP JUMPDEST PUSH1 0x40 MLOAD PUSH2 0x590 SWAP2 SWAP1 PUSH2 0x4627 JUMP JUMPDEST PUSH1 0x40 MLOAD DUP1 SWAP2 SUB SWAP1 RETURN JUMPDEST CALLVALUE DUP1 ISZERO PUSH2 0x5A4 JUMPI PUSH0 DUP1 REVERT JUMPDEST POP PUSH2 0x5BF PUSH1 0x4 DUP1 CALLDATASIZE SUB DUP2 ADD SWAP1 PUSH2 0x5BA SWAP2 SWAP1 PUSH2 0x471D JUMP JUMPDEST PUSH2 0x100A JUMP JUMPDEST PUSH1 0x40 MLOAD PUSH2 0x5CC SWAP2 SWAP1 PUSH2 0x4787 JUMP JUMPDEST PUSH1 0x40 MLOAD DUP1 SWAP2 SUB SWAP1 RETURN JUMPDEST CALLVALUE DUP1 ISZERO PUSH2 0x5E0 JUMPI PUSH0 DUP1 REVERT JUMPDEST POP PUSH2 0x5FB PUSH1 0x4 DUP1 CALLDATASIZE SUB DUP2 ADD SWAP1 PUSH2 0x5F6 SWAP2 SWAP1 PUSH2 0x4C14 JUMP JUMPDEST PUSH2 0x101B JUMP JUMPDEST PUSH1 0x40 MLOAD PUSH2 0x608 SWAP2 SWAP1 PUSH2 0x4817 JUMP JUMPDEST PUSH1 0x40 MLOAD DUP1 SWAP2 SUB SWAP1 RETURN JUMPDEST CALLVALUE DUP1 ISZERO PUSH2 0x61C JUMPI PUSH0 DUP1 REVERT JUMPDEST POP PUSH2 0x625 PUSH2 0x10DF JUMP JUMPDEST STOP JUMPDEST CALLVALUE DUP1 ISZERO PUSH2 0x632 JUMPI PUSH0 DUP1 REVERT JUMPDEST POP PUSH2 0x63B PUSH2 0x10F2 JUMP JUMPDEST STOP JUMPDEST CALLVALUE DUP1 ISZERO PUSH2 0x648 JUMPI PUSH0 DUP1 REVERT JUMPDEST POP PUSH2 0x651 PUSH2 0x1104 JUMP JUMPDEST PUSH1 0x40 MLOAD PUSH2 0x664 SWAP8 SWAP7 SWAP6 SWAP5 SWAP4 SWAP3 SWAP2 SWAP1 PUSH2 0x4D30 JUMP JUMPDEST PUSH1 0x40 MLOAD DUP1 SWAP2 SUB SWAP1 RETURN JUMPDEST CALLVALUE DUP1 ISZERO PUSH2 0x678 JUMPI PUSH0 DUP1 REVERT JUMPDEST POP PUSH2 0x681 PUSH2 0x120D JUMP JUMPDEST PUSH1 0x40 MLOAD PUSH2 0x68E SWAP2 SWAP1 PUSH2 0x46CA JUMP JUMPDEST PUSH1 0x40 MLOAD DUP1 SWAP2 SUB SWAP1 RETURN JUMPDEST CALLVALUE DUP1 ISZERO PUSH2 0x6A2 JUMPI PUSH0 DUP1 REVERT JUMPDEST POP PUSH2 0x6AB PUSH2 0x129D JUMP JUMPDEST PUSH1 0x40 MLOAD PUSH2 0x6B8 SWAP2 SWAP1 PUSH2 0x4787 JUMP JUMPDEST PUSH1 0x40 MLOAD DUP1 SWAP2 SUB SWAP1 RETURN JUMPDEST CALLVALUE DUP1 ISZERO PUSH2 0x6CC JUMPI PUSH0 DUP1 REVERT JUMPDEST POP PUSH2 0x6E7 PUSH1 0x4 DUP1 CALLDATASIZE SUB DUP2 ADD SWAP1 PUSH2 0x6E2 SWAP2 SWAP1 PUSH2 0x4DB2 JUMP JUMPDEST PUSH2 0x12D2 JUMP JUMPDEST PUSH1 0x40 MLOAD PUSH2 0x6F4 SWAP2 SWAP1 PUSH2 0x4787 JUMP JUMPDEST PUSH1 0x40 MLOAD DUP1 SWAP2 SUB SWAP1 RETURN JUMPDEST CALLVALUE DUP1 ISZERO PUSH2 0x708 JUMPI PUSH0 DUP1 REVERT JUMPDEST POP PUSH2 0x723 PUSH1 0x4 DUP1 CALLDATASIZE SUB DUP2 ADD SWAP1 PUSH2 0x71E SWAP2 SWAP1 PUSH2 0x496B JUMP JUMPDEST PUSH2 0x130B JUMP JUMPDEST PUSH1 0x40 MLOAD PUSH2 0x730 SWAP2 SWAP1 PUSH2 0x4627 JUMP JUMPDEST PUSH1 0x40 MLOAD DUP1 SWAP2 SUB SWAP1 RETURN JUMPDEST CALLVALUE DUP1 ISZERO PUSH2 0x744 JUMPI PUSH0 DUP1 REVERT JUMPDEST POP PUSH2 0x74D PUSH2 0x137C JUMP JUMPDEST PUSH1 0x40 MLOAD PUSH2 0x75A SWAP2 SWAP1 PUSH2 0x46CA JUMP JUMPDEST PUSH1 0x40 MLOAD DUP1 SWAP2 SUB SWAP1 RETURN JUMPDEST CALLVALUE DUP1 ISZERO PUSH2 0x76E JUMPI PUSH0 DUP1 REVERT JUMPDEST POP PUSH2 0x777 PUSH2 0x141A JUMP JUMPDEST PUSH1 0x40 MLOAD PUSH2 0x784 SWAP2 SWAP1 PUSH2 0x48ED JUMP JUMPDEST PUSH1 0x40 MLOAD DUP1 SWAP2 SUB SWAP1 RETURN JUMPDEST CALLVALUE DUP1 ISZERO PUSH2 0x798 JUMPI PUSH0 DUP1 REVERT JUMPDEST POP PUSH2 0x7B3 PUSH1 0x4 DUP1 CALLDATASIZE SUB DUP2 ADD SWAP1 PUSH2 0x7AE SWAP2 SWAP1 PUSH2 0x4E1A JUMP JUMPDEST PUSH2 0x1420 JUMP JUMPDEST STOP JUMPDEST CALLVALUE DUP1 ISZERO PUSH2 0x7C0 JUMPI PUSH0 DUP1 REVERT JUMPDEST POP PUSH2 0x7C9 PUSH2 0x1436 JUMP JUMPDEST PUSH1 0x40 MLOAD PUSH2 0x7D6 SWAP2 SWAP1 PUSH2 0x46CA JUMP JUMPDEST PUSH1 0x40 MLOAD DUP1 SWAP2 SUB SWAP1 RETURN JUMPDEST CALLVALUE DUP1 ISZERO PUSH2 0x7EA JUMPI PUSH0 DUP1 REVERT JUMPDEST POP PUSH2 0x805 PUSH1 0x4 DUP1 CALLDATASIZE SUB DUP2 ADD SWAP1 PUSH2 0x800 SWAP2 SWAP1 PUSH2 0x4E58 JUMP JUMPDEST PUSH2 0x146F JUMP JUMPDEST STOP JUMPDEST CALLVALUE DUP1 ISZERO PUSH2 0x812 JUMPI PUSH0 DUP1 REVERT JUMPDEST POP PUSH2 0x82D PUSH1 0x4 DUP1 CALLDATASIZE SUB DUP2 ADD SWAP1 PUSH2 0x828 SWAP2 SWAP1 PUSH2 0x4C14 JUMP JUMPDEST PUSH2 0x148C JUMP JUMPDEST STOP JUMPDEST CALLVALUE DUP1 ISZERO PUSH2 0x83A JUMPI PUSH0 DUP1 REVERT JUMPDEST POP PUSH2 0x855 PUSH1 0x4 DUP1 CALLDATASIZE SUB DUP2 ADD SWAP1 PUSH2 0x850 SWAP2 SWAP1 PUSH2 0x471D JUMP JUMPDEST PUSH2 0x1715 JUMP JUMPDEST PUSH1 0x40 MLOAD PUSH2 0x862 SWAP2 SWAP1 PUSH2 0x46CA JUMP JUMPDEST PUSH1 0x40 MLOAD DUP1 SWAP2 SUB SWAP1 RETURN JUMPDEST CALLVALUE DUP1 ISZERO PUSH2 0x876 JUMPI PUSH0 DUP1 REVERT JUMPDEST POP PUSH2 0x891 PUSH1 0x4 DUP1 CALLDATASIZE SUB DUP2 ADD SWAP1 PUSH2 0x88C SWAP2 SWAP1 PUSH2 0x48B3 JUMP JUMPDEST PUSH2 0x1727 JUMP JUMPDEST PUSH1 0x40 MLOAD PUSH2 0x89E SWAP2 SWAP1 PUSH2 0x4817 JUMP JUMPDEST PUSH1 0x40 MLOAD DUP1 SWAP2 SUB SWAP1 RETURN JUMPDEST CALLVALUE DUP1 ISZERO PUSH2 0x8B2 JUMPI PUSH0 DUP1 REVERT JUMPDEST POP PUSH2 0x8CD PUSH1 0x4 DUP1 CALLDATASIZE SUB DUP2 ADD SWAP1 PUSH2 0x8C8 SWAP2 SWAP1 PUSH2 0x4ED8 JUMP JUMPDEST PUSH2 0x1755 JUMP JUMPDEST STOP JUMPDEST CALLVALUE DUP1 ISZERO PUSH2 0x8DA JUMPI PUSH0 DUP1 REVERT JUMPDEST POP PUSH2 0x8F5 PUSH1 0x4 DUP1 CALLDATASIZE SUB DUP2 ADD SWAP1 PUSH2 0x8F0 SWAP2 SWAP1 PUSH2 0x496B JUMP JUMPDEST PUSH2 0x178E JUMP JUMPDEST STOP JUMPDEST CALLVALUE DUP1 ISZERO PUSH2 0x902 JUMPI PUSH0 DUP1 REVERT JUMPDEST POP PUSH2 0x91D PUSH1 0x4 DUP1 CALLDATASIZE SUB DUP2 ADD SWAP1 PUSH2 0x918 SWAP2 SWAP1 PUSH2 0x4F32 JUMP JUMPDEST PUSH2 0x17B0 JUMP JUMPDEST PUSH1 0x40 MLOAD PUSH2 0x92A SWAP2 SWAP1 PUSH2 0x4627 JUMP JUMPDEST PUSH1 0x40 MLOAD DUP1 SWAP2 SUB SWAP1 RETURN JUMPDEST CALLVALUE DUP1 ISZERO PUSH2 0x93E JUMPI PUSH0 DUP1 REVERT JUMPDEST POP PUSH2 0x959 PUSH1 0x4 DUP1 CALLDATASIZE SUB DUP2 ADD SWAP1 PUSH2 0x954 SWAP2 SWAP1 PUSH2 0x4C14 JUMP JUMPDEST PUSH2 0x184C JUMP JUMPDEST STOP JUMPDEST PUSH0 PUSH2 0x965 DUP3 PUSH2 0x18D0 JUMP JUMPDEST SWAP1 POP SWAP2 SWAP1 POP JUMP JUMPDEST PUSH1 0x60 PUSH0 PUSH2 0x977 PUSH2 0x1930 JUMP JUMPDEST SWAP1 POP DUP1 PUSH0 ADD DUP1 SLOAD PUSH2 0x987 SWAP1 PUSH2 0x4F9D JUMP JUMPDEST DUP1 PUSH1 0x1F ADD PUSH1 0x20 DUP1 SWAP2 DIV MUL PUSH1 0x20 ADD PUSH1 0x40 MLOAD SWAP1 DUP2 ADD PUSH1 0x40 MSTORE DUP1 SWAP3 SWAP2 SWAP1 DUP2 DUP2 MSTORE PUSH1 0x20 ADD DUP3 DUP1 SLOAD PUSH2 0x9B3 SWAP1 PUSH2 0x4F9D JUMP JUMPDEST DUP1 ISZERO PUSH2 0x9FE JUMPI DUP1 PUSH1 0x1F LT PUSH2 0x9D5 JUMPI PUSH2 0x100 DUP1 DUP4 SLOAD DIV MUL DUP4 MSTORE SWAP2 PUSH1 0x20 ADD SWAP2 PUSH2 0x9FE JUMP JUMPDEST DUP3 ADD SWAP2 SWAP1 PUSH0 MSTORE PUSH1 0x20 PUSH0 KECCAK256 SWAP1 JUMPDEST DUP2 SLOAD DUP2 MSTORE SWAP1 PUSH1 0x1 ADD SWAP1 PUSH1 0x20 ADD DUP1 DUP4 GT PUSH2 0x9E1 JUMPI DUP3 SWAP1 SUB PUSH1 0x1F AND DUP3 ADD SWAP2 JUMPDEST POP POP POP POP POP SWAP2 POP POP SWAP1 JUMP JUMPDEST PUSH0 PUSH2 0xA13 DUP3 PUSH2 0x1957 JUMP JUMPDEST POP PUSH2 0xA1D DUP3 PUSH2 0x19DD JUMP JUMPDEST SWAP1 POP SWAP2 SWAP1 POP JUMP JUMPDEST PUSH2 0xA36 DUP3 DUP3 PUSH2 0xA31 PUSH2 0x1A24 JUMP JUMPDEST PUSH2 0x1A2B JUMP JUMPDEST POP POP JUMP JUMPDEST PUSH0 DUP1 PUSH2 0xA44 PUSH2 0x1A3D JUMP JUMPDEST SWAP1 POP DUP1 PUSH1 0x2 ADD DUP1 SLOAD SWAP1 POP SWAP2 POP POP SWAP1 JUMP JUMPDEST PUSH0 PUSH20 0xFFFFFFFFFFFFFFFFFFFFFFFFFFFFFFFFFFFFFFFF AND DUP3 PUSH20 0xFFFFFFFFFFFFFFFFFFFFFFFFFFFFFFFFFFFFFFFF AND SUB PUSH2 0xAC4 JUMPI PUSH0 PUSH1 0x40 MLOAD PUSH32 0x64A0AE9200000000000000000000000000000000000000000000000000000000 DUP2 MSTORE PUSH1 0x4 ADD PUSH2 0xABB SWAP2 SWAP1 PUSH2 0x4787 JUMP JUMPDEST PUSH1 0x40 MLOAD DUP1 SWAP2 SUB SWAP1 REVERT JUMPDEST PUSH0 PUSH2 0xAD7 DUP4 DUP4 PUSH2 0xAD2 PUSH2 0x1A24 JUMP JUMPDEST PUSH2 0x1A64 JUMP JUMPDEST SWAP1 POP DUP4 PUSH20 0xFFFFFFFFFFFFFFFFFFFFFFFFFFFFFFFFFFFFFFFF AND DUP2 PUSH20 0xFFFFFFFFFFFFFFFFFFFFFFFFFFFFFFFFFFFFFFFF AND EQ PUSH2 0xB4D JUMPI DUP4 DUP3 DUP3 PUSH1 0x40 MLOAD PUSH32 0x64283D7B00000000000000000000000000000000000000000000000000000000 DUP2 MSTORE PUSH1 0x4 ADD PUSH2 0xB44 SWAP4 SWAP3 SWAP2 SWAP1 PUSH2 0x4FCD JUMP JUMPDEST PUSH1 0x40 MLOAD DUP1 SWAP2 SUB SWAP1 REVERT JUMPDEST POP POP POP POP JUMP JUMPDEST PUSH0 DUP1 PUSH2 0xB5D PUSH2 0x1A79 JUMP JUMPDEST SWAP1 POP DUP1 PUSH0 ADD PUSH0 DUP5 DUP2 MSTORE PUSH1 0x20 ADD SWAP1 DUP2 MSTORE PUSH1 0x20 ADD PUSH0 KECCAK256 PUSH1 0x1 ADD SLOAD SWAP2 POP POP SWAP2 SWAP1 POP JUMP JUMPDEST PUSH0 DUP1 PUSH0 PUSH2 0xB88 PUSH2 0x1AA0 JUMP JUMPDEST SWAP1 POP PUSH0 DUP2 PUSH1 0x1 ADD PUSH0 DUP8 DUP2 MSTORE PUSH1 0x20 ADD SWAP1 DUP2 MSTORE PUSH1 0x20 ADD PUSH0 KECCAK256 PUSH1 0x40 MLOAD DUP1 PUSH1 0x40 ADD PUSH1 0x40 MSTORE SWAP1 DUP2 PUSH0 DUP3 ADD PUSH0 SWAP1 SLOAD SWAP1 PUSH2 0x100 EXP SWAP1 DIV PUSH20 0xFFFFFFFFFFFFFFFFFFFFFFFFFFFFFFFFFFFFFFFF AND PUSH20 0xFFFFFFFFFFFFFFFFFFFFFFFFFFFFFFFFFFFFFFFF AND PUSH20 0xFFFFFFFFFFFFFFFFFFFFFFFFFFFFFFFFFFFFFFFF AND DUP2 MSTORE PUSH1 0x20 ADD PUSH0 DUP3 ADD PUSH1 0x14 SWAP1 SLOAD SWAP1 PUSH2 0x100 EXP SWAP1 DIV PUSH12 0xFFFFFFFFFFFFFFFFFFFFFFFF AND PUSH12 0xFFFFFFFFFFFFFFFFFFFFFFFF AND PUSH12 0xFFFFFFFFFFFFFFFFFFFFFFFF AND DUP2 MSTORE POP POP SWAP1 POP PUSH0 PUSH20 0xFFFFFFFFFFFFFFFFFFFFFFFFFFFFFFFFFFFFFFFF AND DUP2 PUSH0 ADD MLOAD PUSH20 0xFFFFFFFFFFFFFFFFFFFFFFFFFFFFFFFFFFFFFFFF AND SUB PUSH2 0xD14 JUMPI DUP2 PUSH0 ADD PUSH1 0x40 MLOAD DUP1 PUSH1 0x40 ADD PUSH1 0x40 MSTORE SWAP1 DUP2 PUSH0 DUP3 ADD PUSH0 SWAP1 SLOAD SWAP1 PUSH2 0x100 EXP SWAP1 DIV PUSH20 0xFFFFFFFFFFFFFFFFFFFFFFFFFFFFFFFFFFFFFFFF AND PUSH20 0xFFFFFFFFFFFFFFFFFFFFFFFFFFFFFFFFFFFFFFFF AND PUSH20 0xFFFFFFFFFFFFFFFFFFFFFFFFFFFFFFFFFFFFFFFF AND DUP2 MSTORE PUSH1 0x20 ADD PUSH0 DUP3 ADD PUSH1 0x14 SWAP1 SLOAD SWAP1 PUSH2 0x100 EXP SWAP1 DIV PUSH12 0xFFFFFFFFFFFFFFFFFFFFFFFF AND PUSH12 0xFFFFFFFFFFFFFFFFFFFFFFFF AND PUSH12 0xFFFFFFFFFFFFFFFFFFFFFFFF AND DUP2 MSTORE POP POP SWAP1 POP JUMPDEST PUSH0 PUSH2 0xD1D PUSH2 0x1AC7 JUMP JUMPDEST PUSH12 0xFFFFFFFFFFFFFFFFFFFFFFFF AND DUP3 PUSH1 0x20 ADD MLOAD PUSH12 0xFFFFFFFFFFFFFFFFFFFFFFFF AND DUP8 PUSH2 0xD49 SWAP2 SWAP1 PUSH2 0x502F JUMP JUMPDEST PUSH2 0xD53 SWAP2 SWAP1 PUSH2 0x509D JUMP JUMPDEST SWAP1 POP DUP2 PUSH0 ADD MLOAD DUP2 SWAP5 POP SWAP5 POP POP POP POP SWAP3 POP SWAP3 SWAP1 POP JUMP JUMPDEST PUSH2 0xD71 DUP3 PUSH2 0xB53 JUMP JUMPDEST PUSH2 0xD7A DUP2 PUSH2 0x1AD0 JUMP JUMPDEST PUSH2 0xD84 DUP4 DUP4 PUSH2 0x1AE4 JUMP JUMPDEST POP POP POP POP JUMP JUMPDEST PUSH0 DUP1 PUSH2 0xD94 PUSH2 0x1A3D JUMP JUMPDEST SWAP1 POP PUSH2 0xD9F DUP5 PUSH2 0x101B JUMP JUMPDEST DUP4 LT PUSH2 0xDE4 JUMPI DUP4 DUP4 PUSH1 0x40 MLOAD PUSH32 0xA57D13DC00000000000000000000000000000000000000000000000000000000 DUP2 MSTORE PUSH1 0x4 ADD PUSH2 0xDDB SWAP3 SWAP2 SWAP1 PUSH2 0x4944 JUMP JUMPDEST PUSH1 0x40 MLOAD DUP1 SWAP2 SUB SWAP1 REVERT JUMPDEST DUP1 PUSH0 ADD PUSH0 DUP6 PUSH20 0xFFFFFFFFFFFFFFFFFFFFFFFFFFFFFFFFFFFFFFFF AND PUSH20 0xFFFFFFFFFFFFFFFFFFFFFFFFFFFFFFFFFFFFFFFF AND DUP2 MSTORE PUSH1 0x20 ADD SWAP1 DUP2 MSTORE PUSH1 0x20 ADD PUSH0 KECCAK256 PUSH0 DUP5 DUP2 MSTORE PUSH1 0x20 ADD SWAP1 DUP2 MSTORE PUSH1 0x20 ADD PUSH0 KECCAK256 SLOAD SWAP2 POP POP SWAP3 SWAP2 POP POP JUMP JUMPDEST PUSH2 0xE43 PUSH2 0x1A24 JUMP JUMPDEST PUSH20 0xFFFFFFFFFFFFFFFFFFFFFFFFFFFFFFFFFFFFFFFF AND DUP2 PUSH20 0xFFFFFFFFFFFFFFFFFFFFFFFFFFFFFFFFFFFFFFFF AND EQ PUSH2 0xEA7 JUMPI PUSH1 0x40 MLOAD PUSH32 0x6697B23200000000000000000000000000000000000000000000000000000000 DUP2 MSTORE PUSH1 0x4 ADD PUSH1 0x40 MLOAD DUP1 SWAP2 SUB SWAP1 REVERT JUMPDEST PUSH2 0xEB1 DUP3 DUP3 PUSH2 0x1B34 JUMP JUMPDEST POP POP POP JUMP JUMPDEST PUSH2 0xEBE PUSH2 0x1B84 JUMP JUMPDEST PUSH2 0xEC6 PUSH2 0x1C0B JUMP JUMPDEST JUMP JUMPDEST PUSH2 0xEE2 DUP4 DUP4 DUP4 PUSH1 0x40 MLOAD DUP1 PUSH1 0x20 ADD PUSH1 0x40 MSTORE DUP1 PUSH0 DUP2 MSTORE POP PUSH2 0x146F JUMP JUMPDEST POP POP POP JUMP JUMPDEST PUSH2 0xEF9 PUSH0 DUP3 PUSH2 0xEF4 PUSH2 0x1A24 JUMP JUMPDEST PUSH2 0x1A64 JUMP JUMPDEST POP POP JUMP JUMPDEST PUSH2 0xF05 PUSH2 0x1C79 JUMP JUMPDEST PUSH2 0xF0E DUP3 PUSH2 0x1D5F JUMP JUMPDEST PUSH2 0xF18 DUP3 DUP3 PUSH2 0x1D6A JUMP JUMPDEST POP POP JUMP JUMPDEST PUSH0 DUP1 PUSH2 0xF26 PUSH2 0x1A3D JUMP JUMPDEST SWAP1 POP PUSH2 0xF30 PUSH2 0xA3A JUMP JUMPDEST DUP4 LT PUSH2 0xF75 JUMPI PUSH0 DUP4 PUSH1 0x40 MLOAD PUSH32 0xA57D13DC00000000000000000000000000000000000000000000000000000000 DUP2 MSTORE PUSH1 0x4 ADD PUSH2 0xF6C SWAP3 SWAP2 SWAP1 PUSH2 0x4944 JUMP JUMPDEST PUSH1 0x40 MLOAD DUP1 SWAP2 SUB SWAP1 REVERT JUMPDEST DUP1 PUSH1 0x2 ADD DUP4 DUP2 SLOAD DUP2 LT PUSH2 0xF8B JUMPI PUSH2 0xF8A PUSH2 0x50CD JUMP JUMPDEST JUMPDEST SWAP1 PUSH0 MSTORE PUSH1 0x20 PUSH0 KECCAK256 ADD SLOAD SWAP2 POP POP SWAP2 SWAP1 POP JUMP JUMPDEST PUSH0 PUSH2 0xFA5 PUSH2 0x1E88 JUMP JUMPDEST PUSH32 0x360894A13BA1A3210667C828492DB98DCA3E2076CC3735A920A3CA505D382BBC PUSH0 SHL SWAP1 POP SWAP1 JUMP JUMPDEST PUSH2 0xFD5 PUSH2 0x1B84 JUMP JUMPDEST DUP1 PUSH1 0x1 SWAP1 DUP2 PUSH2 0xFE4 SWAP2 SWAP1 PUSH2 0x5297 JUMP JUMPDEST POP POP JUMP JUMPDEST PUSH0 DUP1 PUSH2 0xFF2 PUSH2 0x1F0F JUMP JUMPDEST SWAP1 POP DUP1 PUSH0 ADD PUSH0 SWAP1 SLOAD SWAP1 PUSH2 0x100 EXP SWAP1 DIV PUSH1 0xFF AND SWAP2 POP POP SWAP1 JUMP JUMPDEST PUSH0 PUSH2 0x1014 DUP3 PUSH2 0x1957 JUMP JUMPDEST SWAP1 POP SWAP2 SWAP1 POP JUMP JUMPDEST PUSH0 DUP1 PUSH2 0x1025 PUSH2 0x1930 JUMP JUMPDEST SWAP1 POP PUSH0 PUSH20 0xFFFFFFFFFFFFFFFFFFFFFFFFFFFFFFFFFFFFFFFF AND DUP4 PUSH20 0xFFFFFFFFFFFFFFFFFFFFFFFFFFFFFFFFFFFFFFFF AND SUB PUSH2 0x1097 JUMPI PUSH0 PUSH1 0x40 MLOAD PUSH32 0x89C62B6400000000000000000000000000000000000000000000000000000000 DUP2 MSTORE PUSH1 0x4 ADD PUSH2 0x108E SWAP2 SWAP1 PUSH2 0x4787 JUMP JUMPDEST PUSH1 0x40 MLOAD DUP1 SWAP2 SUB SWAP1 REVERT JUMPDEST DUP1 PUSH1 0x3 ADD PUSH0 DUP5 PUSH20 0xFFFFFFFFFFFFFFFFFFFFFFFFFFFFFFFFFFFFFFFF AND PUSH20 0xFFFFFFFFFFFFFFFFFFFFFFFFFFFFFFFFFFFFFFFF AND DUP2 MSTORE PUSH1 0x20 ADD SWAP1 DUP2 MSTORE PUSH1 0x20 ADD PUSH0 KECCAK256 SLOAD SWAP2 POP POP SWAP2 SWAP1 POP JUMP JUMPDEST PUSH2 0x10E7 PUSH2 0x1B84 JUMP JUMPDEST PUSH2 0x10F0 PUSH0 PUSH2 0x1F36 JUMP JUMPDEST JUMP JUMPDEST PUSH2 0x10FA PUSH2 0x1B84 JUMP JUMPDEST PUSH2 0x1102 PUSH2 0x2007 JUMP JUMPDEST JUMP JUMPDEST PUSH0 PUSH1 0x60 DUP1 PUSH0 DUP1 PUSH0 PUSH1 0x60 PUSH0 PUSH2 0x1116 PUSH2 0x2076 JUMP JUMPDEST SWAP1 POP PUSH0 DUP1 SHL DUP2 PUSH0 ADD SLOAD EQ DUP1 ISZERO PUSH2 0x1131 JUMPI POP PUSH0 DUP1 SHL DUP2 PUSH1 0x1 ADD SLOAD EQ JUMPDEST PUSH2 0x1170 JUMPI PUSH1 0x40 MLOAD PUSH32 0x8C379A000000000000000000000000000000000000000000000000000000000 DUP2 MSTORE PUSH1 0x4 ADD PUSH2 0x1167 SWAP1 PUSH2 0x53B0 JUMP JUMPDEST PUSH1 0x40 MLOAD DUP1 SWAP2 SUB SWAP1 REVERT JUMPDEST PUSH2 0x1178 PUSH2 0x209D JUMP JUMPDEST PUSH2 0x1180 PUSH2 0x213B JUMP JUMPDEST CHAINID ADDRESS PUSH0 DUP1 SHL PUSH0 PUSH8 0xFFFFFFFFFFFFFFFF DUP2 GT ISZERO PUSH2 0x119F JUMPI PUSH2 0x119E PUSH2 0x49B1 JUMP JUMPDEST JUMPDEST PUSH1 0x40 MLOAD SWAP1 DUP1 DUP3 MSTORE DUP1 PUSH1 0x20 MUL PUSH1 0x20 ADD DUP3 ADD PUSH1 0x40 MSTORE DUP1 ISZERO PUSH2 0x11CD JUMPI DUP2 PUSH1 0x20 ADD PUSH1 0x20 DUP3 MUL DUP1 CALLDATASIZE DUP4 CALLDATACOPY DUP1 DUP3 ADD SWAP2 POP POP SWAP1 POP JUMPDEST POP PUSH32 0xF00000000000000000000000000000000000000000000000000000000000000 SWAP6 SWAP5 SWAP4 SWAP3 SWAP2 SWAP1 SWAP8 POP SWAP8 POP SWAP8 POP SWAP8 POP SWAP8 POP SWAP8 POP SWAP8 POP POP SWAP1 SWAP2 SWAP3 SWAP4 SWAP5 SWAP6 SWAP7 JUMP JUMPDEST PUSH1 0x60 PUSH1 0x1 DUP1 SLOAD PUSH2 0x121C SWAP1 PUSH2 0x4F9D JUMP JUMPDEST DUP1 PUSH1 0x1F ADD PUSH1 0x20 DUP1 SWAP2 DIV MUL PUSH1 0x20 ADD PUSH1 0x40 MLOAD SWAP1 DUP2 ADD PUSH1 0x40 MSTORE DUP1 SWAP3 SWAP2 SWAP1 DUP2 DUP2 MSTORE PUSH1 0x20 ADD DUP3 DUP1 SLOAD PUSH2 0x1248 SWAP1 PUSH2 0x4F9D JUMP JUMPDEST DUP1 ISZERO PUSH2 0x1293 JUMPI DUP1 PUSH1 0x1F LT PUSH2 0x126A JUMPI PUSH2 0x100 DUP1 DUP4 SLOAD DIV MUL DUP4 MSTORE SWAP2 PUSH1 0x20 ADD SWAP2 PUSH2 0x1293 JUMP JUMPDEST DUP3 ADD SWAP2 SWAP1 PUSH0 MSTORE PUSH1 0x20 PUSH0 KECCAK256 SWAP1 JUMPDEST DUP2 SLOAD DUP2 MSTORE SWAP1 PUSH1 0x1 ADD SWAP1 PUSH1 0x20 ADD DUP1 DUP4 GT PUSH2 0x1276 JUMPI DUP3 SWAP1 SUB PUSH1 0x1F AND DUP3 ADD SWAP2 JUMPDEST POP POP POP POP POP SWAP1 POP SWAP1 JUMP JUMPDEST PUSH0 DUP1 PUSH2 0x12A7 PUSH2 0x21D9 JUMP JUMPDEST SWAP1 POP DUP1 PUSH0 ADD PUSH0 SWAP1 SLOAD SWAP1 PUSH2 0x100 EXP SWAP1 DIV PUSH20 0xFFFFFFFFFFFFFFFFFFFFFFFFFFFFFFFFFFFFFFFF AND SWAP2 POP POP SWAP1 JUMP JUMPDEST PUSH0 DUP1 PUSH2 0x12DC PUSH2 0x2200 JUMP JUMPDEST SWAP1 POP PUSH2 0x1302 DUP4 DUP3 PUSH0 ADD PUSH0 DUP8 DUP2 MSTORE PUSH1 0x20 ADD SWAP1 DUP2 MSTORE PUSH1 0x20 ADD PUSH0 KECCAK256 PUSH2 0x2227 SWAP1 SWAP2 SWAP1 PUSH4 0xFFFFFFFF AND JUMP JUMPDEST SWAP2 POP POP SWAP3 SWAP2 POP POP JUMP JUMPDEST PUSH0 DUP1 PUSH2 0x1315 PUSH2 0x1A79 JUMP JUMPDEST SWAP1 POP DUP1 PUSH0 ADD PUSH0 DUP6 DUP2 MSTORE PUSH1 0x20 ADD SWAP1 DUP2 MSTORE PUSH1 0x20 ADD PUSH0 KECCAK256 PUSH0 ADD PUSH0 DUP5 PUSH20 0xFFFFFFFFFFFFFFFFFFFFFFFFFFFFFFFFFFFFFFFF AND PUSH20 0xFFFFFFFFFFFFFFFFFFFFFFFFFFFFFFFFFFFFFFFF AND DUP2 MSTORE PUSH1 0x20 ADD SWAP1 DUP2 MSTORE PUSH1 0x20 ADD PUSH0 KECCAK256 PUSH0 SWAP1 SLOAD SWAP1 PUSH2 0x100 EXP SWAP1 DIV PUSH1 0xFF AND SWAP2 POP POP SWAP3 SWAP2 POP POP JUMP JUMPDEST PUSH1 0x60 PUSH0 PUSH2 0x1387 PUSH2 0x1930 JUMP JUMPDEST SWAP1 POP DUP1 PUSH1 0x1 ADD DUP1 SLOAD PUSH2 0x1398 SWAP1 PUSH2 0x4F9D JUMP JUMPDEST DUP1 PUSH1 0x1F ADD PUSH1 0x20 DUP1 SWAP2 DIV MUL PUSH1 0x20 ADD PUSH1 0x40 MLOAD SWAP1 DUP2 ADD PUSH1 0x40 MSTORE DUP1 SWAP3 SWAP2 SWAP1 DUP2 DUP2 MSTORE PUSH1 0x20 ADD DUP3 DUP1 SLOAD PUSH2 0x13C4 SWAP1 PUSH2 0x4F9D JUMP JUMPDEST DUP1 ISZERO PUSH2 0x140F JUMPI DUP1 PUSH1 0x1F LT PUSH2 0x13E6 JUMPI PUSH2 0x100 DUP1 DUP4 SLOAD DIV MUL DUP4 MSTORE SWAP2 PUSH1 0x20 ADD SWAP2 PUSH2 0x140F JUMP JUMPDEST DUP3 ADD SWAP2 SWAP1 PUSH0 MSTORE PUSH1 0x20 PUSH0 KECCAK256 SWAP1 JUMPDEST DUP2 SLOAD DUP2 MSTORE SWAP1 PUSH1 0x1 ADD SWAP1 PUSH1 0x20 ADD DUP1 DUP4 GT PUSH2 0x13F2 JUMPI DUP3 SWAP1 SUB PUSH1 0x1F AND DUP3 ADD SWAP2 JUMPDEST POP POP POP POP POP SWAP2 POP POP SWAP1 JUMP JUMPDEST PUSH0 DUP1 SHL DUP2 JUMP JUMPDEST PUSH2 0x1432 PUSH2 0x142B PUSH2 0x1A24 JUMP JUMPDEST DUP4 DUP4 PUSH2 0x223E JUMP JUMPDEST POP POP JUMP JUMPDEST PUSH1 0x40 MLOAD DUP1 PUSH1 0x40 ADD PUSH1 0x40 MSTORE DUP1 PUSH1 0x5 DUP2 MSTORE PUSH1 0x20 ADD PUSH32 0x352E302E30000000000000000000000000000000000000000000000000000000 DUP2 MSTORE POP DUP2 JUMP JUMPDEST PUSH2 0x147A DUP5 DUP5 DUP5 PUSH2 0xA54 JUMP JUMPDEST PUSH2 0x1486 DUP5 DUP5 DUP5 DUP5 PUSH2 0x23B5 JUMP JUMPDEST POP POP POP POP JUMP JUMPDEST PUSH0 PUSH2 0x1495 PUSH2 0x2567 JUMP JUMPDEST SWAP1 POP PUSH0 DUP2 PUSH0 ADD PUSH1 0x8 SWAP1 SLOAD SWAP1 PUSH2 0x100 EXP SWAP1 DIV PUSH1 0xFF AND ISZERO SWAP1 POP PUSH0 DUP3 PUSH0 ADD PUSH0 SWAP1 SLOAD SWAP1 PUSH2 0x100 EXP SWAP1 DIV PUSH8 0xFFFFFFFFFFFFFFFF AND SWAP1 POP PUSH0 DUP1 DUP3 PUSH8 0xFFFFFFFFFFFFFFFF AND EQ DUP1 ISZERO PUSH2 0x14DD JUMPI POP DUP3 JUMPDEST SWAP1 POP PUSH0 PUSH1 0x1 DUP4 PUSH8 0xFFFFFFFFFFFFFFFF AND EQ DUP1 ISZERO PUSH2 0x1510 JUMPI POP PUSH0 ADDRESS PUSH20 0xFFFFFFFFFFFFFFFFFFFFFFFFFFFFFFFFFFFFFFFF AND EXTCODESIZE EQ JUMPDEST SWAP1 POP DUP2 ISZERO DUP1 ISZERO PUSH2 0x151E JUMPI POP DUP1 ISZERO JUMPDEST ISZERO PUSH2 0x1555 JUMPI PUSH1 0x40 MLOAD PUSH32 0xF92EE8A900000000000000000000000000000000000000000000000000000000 DUP2 MSTORE PUSH1 0x4 ADD PUSH1 0x40 MLOAD DUP1 SWAP2 SUB SWAP1 REVERT JUMPDEST PUSH1 0x1 DUP6 PUSH0 ADD PUSH0 PUSH2 0x100 EXP DUP2 SLOAD DUP2 PUSH8 0xFFFFFFFFFFFFFFFF MUL NOT AND SWAP1 DUP4 PUSH8 0xFFFFFFFFFFFFFFFF AND MUL OR SWAP1 SSTORE POP DUP4 ISZERO PUSH2 0x15A2 JUMPI PUSH1 0x1 DUP6 PUSH0 ADD PUSH1 0x8 PUSH2 0x100 EXP DUP2 SLOAD DUP2 PUSH1 0xFF MUL NOT AND SWAP1 DUP4 ISZERO ISZERO MUL OR SWAP1 SSTORE POP JUMPDEST PUSH2 0x1616 PUSH1 0x40 MLOAD DUP1 PUSH1 0x40 ADD PUSH1 0x40 MSTORE DUP1 PUSH1 0xB DUP2 MSTORE PUSH1 0x20 ADD PUSH32 0x5343554D57616C6B657273000000000000000000000000000000000000000000 DUP2 MSTORE POP PUSH1 0x40 MLOAD DUP1 PUSH1 0x40 ADD PUSH1 0x40 MSTORE DUP1 PUSH1 0x2 DUP2 MSTORE PUSH1 0x20 ADD PUSH32 0x5357000000000000000000000000000000000000000000000000000000000000 DUP2 MSTORE POP PUSH2 0x258E JUMP JUMPDEST PUSH2 0x161E PUSH2 0x25A4 JUMP JUMPDEST PUSH2 0x1626 PUSH2 0x25AE JUMP JUMPDEST PUSH2 0x162E PUSH2 0x25B8 JUMP JUMPDEST PUSH2 0x1637 DUP7 PUSH2 0x25CA JUMP JUMPDEST PUSH2 0x163F PUSH2 0x25DE JUMP JUMPDEST PUSH2 0x16B3 PUSH1 0x40 MLOAD DUP1 PUSH1 0x40 ADD PUSH1 0x40 MSTORE DUP1 PUSH1 0xB DUP2 MSTORE PUSH1 0x20 ADD PUSH32 0x5343554D57616C6B657273000000000000000000000000000000000000000000 DUP2 MSTORE POP PUSH1 0x40 MLOAD DUP1 PUSH1 0x40 ADD PUSH1 0x40 MSTORE DUP1 PUSH1 0x1 DUP2 MSTORE PUSH1 0x20 ADD PUSH32 0x3100000000000000000000000000000000000000000000000000000000000000 DUP2 MSTORE POP PUSH2 0x25E8 JUMP JUMPDEST DUP4 ISZERO PUSH2 0x170D JUMPI PUSH0 DUP6 PUSH0 ADD PUSH1 0x8 PUSH2 0x100 EXP DUP2 SLOAD DUP2 PUSH1 0xFF MUL NOT AND SWAP1 DUP4 ISZERO ISZERO MUL OR SWAP1 SSTORE POP PUSH32 0xC7F505B2F371AE2175EE4913F4499E1F2633A7B5936321EED1CDAEB6115181D2 PUSH1 0x1 PUSH1 0x40 MLOAD PUSH2 0x1704 SWAP2 SWAP1 PUSH2 0x541A JUMP JUMPDEST PUSH1 0x40 MLOAD DUP1 SWAP2 SUB SWAP1 LOG1 JUMPDEST POP POP POP POP POP POP JUMP JUMPDEST PUSH1 0x60 PUSH2 0x1720 DUP3 PUSH2 0x25FE JUMP JUMPDEST SWAP1 POP SWAP2 SWAP1 POP JUMP JUMPDEST PUSH0 DUP1 PUSH2 0x1731 PUSH2 0x2200 JUMP JUMPDEST SWAP1 POP PUSH2 0x174D DUP2 PUSH0 ADD PUSH0 DUP6 DUP2 MSTORE PUSH1 0x20 ADD SWAP1 DUP2 MSTORE PUSH1 0x20 ADD PUSH0 KECCAK256 PUSH2 0x2718 JUMP JUMPDEST SWAP2 POP POP SWAP2 SWAP1 POP JUMP JUMPDEST PUSH2 0x175D PUSH2 0x1B84 JUMP JUMPDEST PUSH0 DUP1 PUSH0 DUP2 SLOAD DUP1 SWAP3 SWAP2 SWAP1 PUSH2 0x176F SWAP1 PUSH2 0x5433 JUMP JUMPDEST SWAP2 SWAP1 POP SSTORE SWAP1 POP PUSH2 0x177F DUP4 DUP3 PUSH2 0x272B JUMP JUMPDEST PUSH2 0x1789 DUP2 DUP4 PUSH2 0x2748 JUMP JUMPDEST POP POP POP JUMP JUMPDEST PUSH2 0x1797 DUP3 PUSH2 0xB53 JUMP JUMPDEST PUSH2 0x17A0 DUP2 PUSH2 0x1AD0 JUMP JUMPDEST PUSH2 0x17AA DUP4 DUP4 PUSH2 0x1B34 JUMP JUMPDEST POP POP POP POP JUMP JUMPDEST PUSH0 DUP1 PUSH2 0x17BA PUSH2 0x1930 JUMP JUMPDEST SWAP1 POP DUP1 PUSH1 0x5 ADD PUSH0 DUP6 PUSH20 0xFFFFFFFFFFFFFFFFFFFFFFFFFFFFFFFFFFFFFFFF AND PUSH20 0xFFFFFFFFFFFFFFFFFFFFFFFFFFFFFFFFFFFFFFFF AND DUP2 MSTORE PUSH1 0x20 ADD SWAP1 DUP2 MSTORE PUSH1 0x20 ADD PUSH0 KECCAK256 PUSH0 DUP5 PUSH20 0xFFFFFFFFFFFFFFFFFFFFFFFFFFFFFFFFFFFFFFFF AND PUSH20 0xFFFFFFFFFFFFFFFFFFFFFFFFFFFFFFFFFFFFFFFF AND DUP2 MSTORE PUSH1 0x20 ADD SWAP1 DUP2 MSTORE PUSH1 0x20 ADD PUSH0 KECCAK256 PUSH0 SWAP1 SLOAD SWAP1 PUSH2 0x100 EXP SWAP1 DIV PUSH1 0xFF AND SWAP2 POP POP SWAP3 SWAP2 POP POP JUMP JUMPDEST PUSH2 0x1854 PUSH2 0x1B84 JUMP JUMPDEST PUSH0 PUSH20 0xFFFFFFFFFFFFFFFFFFFFFFFFFFFFFFFFFFFFFFFF AND DUP2 PUSH20 0xFFFFFFFFFFFFFFFFFFFFFFFFFFFFFFFFFFFFFFFF AND SUB PUSH2 0x18C4 JUMPI PUSH0 PUSH1 0x40 MLOAD PUSH32 0x1E4FBDF700000000000000000000000000000000000000000000000000000000 DUP2 MSTORE PUSH1 0x4 ADD PUSH2 0x18BB SWAP2 SWAP1 PUSH2 0x4787 JUMP JUMPDEST PUSH1 0x40 MLOAD DUP1 SWAP2 SUB SWAP1 REVERT JUMPDEST PUSH2 0x18CD DUP2 PUSH2 0x1F36 JUMP JUMPDEST POP JUMP JUMPDEST PUSH0 PUSH4 0x49064906 PUSH1 0xE0 SHL PUSH28 0xFFFFFFFFFFFFFFFFFFFFFFFFFFFFFFFFFFFFFFFFFFFFFFFFFFFFFFFF NOT AND DUP3 PUSH28 0xFFFFFFFFFFFFFFFFFFFFFFFFFFFFFFFFFFFFFFFFFFFFFFFFFFFFFFFF NOT AND EQ DUP1 PUSH2 0x1929 JUMPI POP PUSH2 0x1928 DUP3 PUSH2 0x27AF JUMP JUMPDEST JUMPDEST SWAP1 POP SWAP2 SWAP1 POP JUMP JUMPDEST PUSH0 PUSH32 0x80BB2B638CC20BC4D0A60D66940F3AB4A00C1D7B313497CA82FB0B4AB0079300 SWAP1 POP SWAP1 JUMP JUMPDEST PUSH0 DUP1 PUSH2 0x1962 DUP4 PUSH2 0x2828 JUMP JUMPDEST SWAP1 POP PUSH0 PUSH20 0xFFFFFFFFFFFFFFFFFFFFFFFFFFFFFFFFFFFFFFFF AND DUP2 PUSH20 0xFFFFFFFFFFFFFFFFFFFFFFFFFFFFFFFFFFFFFFFF AND SUB PUSH2 0x19D4 JUMPI DUP3 PUSH1 0x40 MLOAD PUSH32 0x7E27328900000000000000000000000000000000000000000000000000000000 DUP2 MSTORE PUSH1 0x4 ADD PUSH2 0x19CB SWAP2 SWAP1 PUSH2 0x4817 JUMP JUMPDEST PUSH1 0x40 MLOAD DUP1 SWAP2 SUB SWAP1 REVERT JUMPDEST DUP1 SWAP2 POP POP SWAP2 SWAP1 POP JUMP JUMPDEST PUSH0 DUP1 PUSH2 0x19E7 PUSH2 0x1930 JUMP JUMPDEST SWAP1 POP DUP1 PUSH1 0x4 ADD PUSH0 DUP5 DUP2 MSTORE PUSH1 0x20 ADD SWAP1 DUP2 MSTORE PUSH1 0x20 ADD PUSH0 KECCAK256 PUSH0 SWAP1 SLOAD SWAP1 PUSH2 0x100 EXP SWAP1 DIV PUSH20 0xFFFFFFFFFFFFFFFFFFFFFFFFFFFFFFFFFFFFFFFF AND SWAP2 POP POP SWAP2 SWAP1 POP JUMP JUMPDEST PUSH0 CALLER SWAP1 POP SWAP1 JUMP JUMPDEST PUSH2 0x1A38 DUP4 DUP4 DUP4 PUSH1 0x1 PUSH2 0x2839 JUMP JUMPDEST POP POP POP JUMP JUMPDEST PUSH0 PUSH32 0x645E039705490088DAAD89BAE25049A34F4A9072D398537B1AB2425F24CBED00 SWAP1 POP SWAP1 JUMP JUMPDEST PUSH0 PUSH2 0x1A70 DUP5 DUP5 DUP5 PUSH2 0x2A06 JUMP JUMPDEST SWAP1 POP SWAP4 SWAP3 POP POP POP JUMP JUMPDEST PUSH0 PUSH32 0x2DD7BC7DEC4DCEEDDA775E58DD541E08A116C6C53815C0BD028192F7B626800 SWAP1 POP SWAP1 JUMP JUMPDEST PUSH0 PUSH32 0xDAEDC9AB023613A7CAF35E703657E986CCFAD7E3EB0AF93A2853F8D65DD86B00 SWAP1 POP SWAP1 JUMP JUMPDEST PUSH0 PUSH2 0x2710 SWAP1 POP SWAP1 JUMP JUMPDEST PUSH2 0x1AE1 DUP2 PUSH2 0x1ADC PUSH2 0x1A24 JUMP JUMPDEST PUSH2 0x2A23 JUMP JUMPDEST POP JUMP JUMPDEST PUSH0 DUP1 PUSH2 0x1AEE PUSH2 0x2200 JUMP JUMPDEST SWAP1 POP PUSH0 PUSH2 0x1AFB DUP6 DUP6 PUSH2 0x2A74 JUMP JUMPDEST SWAP1 POP DUP1 ISZERO PUSH2 0x1B29 JUMPI PUSH2 0x1B27 DUP5 DUP4 PUSH0 ADD PUSH0 DUP9 DUP2 MSTORE PUSH1 0x20 ADD SWAP1 DUP2 MSTORE PUSH1 0x20 ADD PUSH0 KECCAK256 PUSH2 0x2B6C SWAP1 SWAP2 SWAP1 PUSH4 0xFFFFFFFF AND JUMP JUMPDEST POP JUMPDEST DUP1 SWAP3 POP POP POP SWAP3 SWAP2 POP POP JUMP JUMPDEST PUSH0 DUP1 PUSH2 0x1B3E PUSH2 0x2200 JUMP JUMPDEST SWAP1 POP PUSH0 PUSH2 0x1B4B DUP6 DUP6 PUSH2 0x2B99 JUMP JUMPDEST SWAP1 POP DUP1 ISZERO PUSH2 0x1B79 JUMPI PUSH2 0x1B77 DUP5 DUP4 PUSH0 ADD PUSH0 DUP9 DUP2 MSTORE PUSH1 0x20 ADD SWAP1 DUP2 MSTORE PUSH1 0x20 ADD PUSH0 KECCAK256 PUSH2 0x2C91 SWAP1 SWAP2 SWAP1 PUSH4 0xFFFFFFFF AND JUMP JUMPDEST POP JUMPDEST DUP1 SWAP3 POP POP POP SWAP3 SWAP2 POP POP JUMP JUMPDEST PUSH2 0x1B8C PUSH2 0x1A24 JUMP JUMPDEST PUSH20 0xFFFFFFFFFFFFFFFFFFFFFFFFFFFFFFFFFFFFFFFF AND PUSH2 0x1BAA PUSH2 0x129D JUMP JUMPDEST PUSH20 0xFFFFFFFFFFFFFFFFFFFFFFFFFFFFFFFFFFFFFFFF AND EQ PUSH2 0x1C09 JUMPI PUSH2 0x1BCD PUSH2 0x1A24 JUMP JUMPDEST PUSH1 0x40 MLOAD PUSH32 0x118CDAA700000000000000000000000000000000000000000000000000000000 DUP2 MSTORE PUSH1 0x4 ADD PUSH2 0x1C00 SWAP2 SWAP1 PUSH2 0x4787 JUMP JUMPDEST PUSH1 0x40 MLOAD DUP1 SWAP2 SUB SWAP1 REVERT JUMPDEST JUMP JUMPDEST PUSH2 0x1C13 PUSH2 0x2CBE JUMP JUMPDEST PUSH0 PUSH2 0x1C1C PUSH2 0x1F0F JUMP JUMPDEST SWAP1 POP PUSH0 DUP2 PUSH0 ADD PUSH0 PUSH2 0x100 EXP DUP2 SLOAD DUP2 PUSH1 0xFF MUL NOT AND SWAP1 DUP4 ISZERO ISZERO MUL OR SWAP1 SSTORE POP PUSH32 0x5DB9EE0A495BF2E6FF9C91A7834C1BA4FDD244A5E8AA4E537BD38AEAE4B073AA PUSH2 0x1C61 PUSH2 0x1A24 JUMP JUMPDEST PUSH1 0x40 MLOAD PUSH2 0x1C6E SWAP2 SWAP1 PUSH2 0x4787 JUMP JUMPDEST PUSH1 0x40 MLOAD DUP1 SWAP2 SUB SWAP1 LOG1 POP JUMP JUMPDEST PUSH32 0x0 PUSH20 0xFFFFFFFFFFFFFFFFFFFFFFFFFFFFFFFFFFFFFFFF AND ADDRESS PUSH20 0xFFFFFFFFFFFFFFFFFFFFFFFFFFFFFFFFFFFFFFFF AND EQ DUP1 PUSH2 0x1D26 JUMPI POP PUSH32 0x0 PUSH20 0xFFFFFFFFFFFFFFFFFFFFFFFFFFFFFFFFFFFFFFFF AND PUSH2 0x1D0D PUSH2 0x2CFE JUMP JUMPDEST PUSH20 0xFFFFFFFFFFFFFFFFFFFFFFFFFFFFFFFFFFFFFFFF AND EQ ISZERO JUMPDEST ISZERO PUSH2 0x1D5D JUMPI PUSH1 0x40 MLOAD PUSH32 0xE07C8DBA00000000000000000000000000000000000000000000000000000000 DUP2 MSTORE PUSH1 0x4 ADD PUSH1 0x40 MLOAD DUP1 SWAP2 SUB SWAP1 REVERT JUMPDEST JUMP JUMPDEST PUSH2 0x1D67 PUSH2 0x1B84 JUMP JUMPDEST POP JUMP JUMPDEST DUP2 PUSH20 0xFFFFFFFFFFFFFFFFFFFFFFFFFFFFFFFFFFFFFFFF AND PUSH4 0x52D1902D PUSH1 0x40 MLOAD DUP2 PUSH4 0xFFFFFFFF AND PUSH1 0xE0 SHL DUP2 MSTORE PUSH1 0x4 ADD PUSH1 0x20 PUSH1 0x40 MLOAD DUP1 DUP4 SUB DUP2 DUP7 GAS STATICCALL SWAP3 POP POP POP DUP1 ISZERO PUSH2 0x1DD2 JUMPI POP PUSH1 0x40 MLOAD RETURNDATASIZE PUSH1 0x1F NOT PUSH1 0x1F DUP3 ADD AND DUP3 ADD DUP1 PUSH1 0x40 MSTORE POP DUP2 ADD SWAP1 PUSH2 0x1DCF SWAP2 SWAP1 PUSH2 0x548E JUMP JUMPDEST PUSH1 0x1 JUMPDEST PUSH2 0x1E13 JUMPI DUP2 PUSH1 0x40 MLOAD PUSH32 0x4C9C8CE300000000000000000000000000000000000000000000000000000000 DUP2 MSTORE PUSH1 0x4 ADD PUSH2 0x1E0A SWAP2 SWAP1 PUSH2 0x4787 JUMP JUMPDEST PUSH1 0x40 MLOAD DUP1 SWAP2 SUB SWAP1 REVERT JUMPDEST PUSH32 0x360894A13BA1A3210667C828492DB98DCA3E2076CC3735A920A3CA505D382BBC PUSH0 SHL DUP2 EQ PUSH2 0x1E79 JUMPI DUP1 PUSH1 0x40 MLOAD PUSH32 0xAA1D49A400000000000000000000000000000000000000000000000000000000 DUP2 MSTORE PUSH1 0x4 ADD PUSH2 0x1E70 SWAP2 SWAP1 PUSH2 0x48ED JUMP JUMPDEST PUSH1 0x40 MLOAD DUP1 SWAP2 SUB SWAP1 REVERT JUMPDEST PUSH2 0x1E83 DUP4 DUP4 PUSH2 0x2D51 JUMP JUMPDEST POP POP POP JUMP JUMPDEST PUSH32 0x0 PUSH20 0xFFFFFFFFFFFFFFFFFFFFFFFFFFFFFFFFFFFFFFFF AND ADDRESS PUSH20 0xFFFFFFFFFFFFFFFFFFFFFFFFFFFFFFFFFFFFFFFF AND EQ PUSH2 0x1F0D JUMPI PUSH1 0x40 MLOAD PUSH32 0xE07C8DBA00000000000000000000000000000000000000000000000000000000 DUP2 MSTORE PUSH1 0x4 ADD PUSH1 0x40 MLOAD DUP1 SWAP2 SUB SWAP1 REVERT JUMPDEST JUMP JUMPDEST PUSH0 PUSH32 0xCD5ED15C6E187E77E9AEE88184C21F4F2182AB5827CB3B7E07FBEDCD63F03300 SWAP1 POP SWAP1 JUMP JUMPDEST PUSH0 PUSH2 0x1F3F PUSH2 0x21D9 JUMP JUMPDEST SWAP1 POP PUSH0 DUP2 PUSH0 ADD PUSH0 SWAP1 SLOAD SWAP1 PUSH2 0x100 EXP SWAP1 DIV PUSH20 0xFFFFFFFFFFFFFFFFFFFFFFFFFFFFFFFFFFFFFFFF AND SWAP1 POP DUP3 DUP3 PUSH0 ADD PUSH0 PUSH2 0x100 EXP DUP2 SLOAD DUP2 PUSH20 0xFFFFFFFFFFFFFFFFFFFFFFFFFFFFFFFFFFFFFFFF MUL NOT AND SWAP1 DUP4 PUSH20 0xFFFFFFFFFFFFFFFFFFFFFFFFFFFFFFFFFFFFFFFF AND MUL OR SWAP1 SSTORE POP DUP3 PUSH20 0xFFFFFFFFFFFFFFFFFFFFFFFFFFFFFFFFFFFFFFFF AND DUP2 PUSH20 0xFFFFFFFFFFFFFFFFFFFFFFFFFFFFFFFFFFFFFFFF AND PUSH32 0x8BE0079C531659141344CD1FD0A4F28419497F9722A3DAAFE3B4186F6B6457E0 PUSH1 0x40 MLOAD PUSH1 0x40 MLOAD DUP1 SWAP2 SUB SWAP1 LOG3 POP POP POP JUMP JUMPDEST PUSH2 0x200F PUSH2 0x2DC3 JUMP JUMPDEST PUSH0 PUSH2 0x2018 PUSH2 0x1F0F JUMP JUMPDEST SWAP1 POP PUSH1 0x1 DUP2 PUSH0 ADD PUSH0 PUSH2 0x100 EXP DUP2 SLOAD DUP2 PUSH1 0xFF MUL NOT AND SWAP1 DUP4 ISZERO ISZERO MUL OR SWAP1 SSTORE POP PUSH32 0x62E78CEA01BEE320CD4E420270B5EA74000D11B0C9F74754EBDBFC544B05A258 PUSH2 0x205E PUSH2 0x1A24 JUMP JUMPDEST PUSH1 0x40 MLOAD PUSH2 0x206B SWAP2 SWAP1 PUSH2 0x4787 JUMP JUMPDEST PUSH1 0x40 MLOAD DUP1 SWAP2 SUB SWAP1 LOG1 POP JUMP JUMPDEST PUSH0 PUSH32 0xA16A46D94261C7517CC8FF89F61C0CE93598E3C849801011DEE649A6A557D100 SWAP1 POP SWAP1 JUMP JUMPDEST PUSH1 0x60 PUSH0 PUSH2 0x20A8 PUSH2 0x2076 JUMP JUMPDEST SWAP1 POP DUP1 PUSH1 0x2 ADD DUP1 SLOAD PUSH2 0x20B9 SWAP1 PUSH2 0x4F9D JUMP JUMPDEST DUP1 PUSH1 0x1F ADD PUSH1 0x20 DUP1 SWAP2 DIV MUL PUSH1 0x20 ADD PUSH1 0x40 MLOAD SWAP1 DUP2 ADD PUSH1 0x40 MSTORE DUP1 SWAP3 SWAP2 SWAP1 DUP2 DUP2 MSTORE PUSH1 0x20 ADD DUP3 DUP1 SLOAD PUSH2 0x20E5 SWAP1 PUSH2 0x4F9D JUMP JUMPDEST DUP1 ISZERO PUSH2 0x2130 JUMPI DUP1 PUSH1 0x1F LT PUSH2 0x2107 JUMPI PUSH2 0x100 DUP1 DUP4 SLOAD DIV MUL DUP4 MSTORE SWAP2 PUSH1 0x20 ADD SWAP2 PUSH2 0x2130 JUMP JUMPDEST DUP3 ADD SWAP2 SWAP1 PUSH0 MSTORE PUSH1 0x20 PUSH0 KECCAK256 SWAP1 JUMPDEST DUP2 SLOAD DUP2 MSTORE SWAP1 PUSH1 0x1 ADD SWAP1 PUSH1 0x20 ADD DUP1 DUP4 GT PUSH2 0x2113 JUMPI DUP3 SWAP1 SUB PUSH1 0x1F AND DUP3 ADD SWAP2 JUMPDEST POP POP POP POP POP SWAP2 POP POP SWAP1 JUMP JUMPDEST PUSH1 0x60 PUSH0 PUSH2 0x2146 PUSH2 0x2076 JUMP JUMPDEST SWAP1 POP DUP1 PUSH1 0x3 ADD DUP1 SLOAD PUSH2 0x2157 SWAP1 PUSH2 0x4F9D JUMP JUMPDEST DUP1 PUSH1 0x1F ADD PUSH1 0x20 DUP1 SWAP2 DIV MUL PUSH1 0x20 ADD PUSH1 0x40 MLOAD SWAP1 DUP2 ADD PUSH1 0x40 MSTORE DUP1 SWAP3 SWAP2 SWAP1 DUP2 DUP2 MSTORE PUSH1 0x20 ADD DUP3 DUP1 SLOAD PUSH2 0x2183 SWAP1 PUSH2 0x4F9D JUMP JUMPDEST DUP1 ISZERO PUSH2 0x21CE JUMPI DUP1 PUSH1 0x1F LT PUSH2 0x21A5 JUMPI PUSH2 0x100 DUP1 DUP4 SLOAD DIV MUL DUP4 MSTORE SWAP2 PUSH1 0x20 ADD SWAP2 PUSH2 0x21CE JUMP JUMPDEST DUP3 ADD SWAP2 SWAP1 PUSH0 MSTORE PUSH1 0x20 PUSH0 KECCAK256 SWAP1 JUMPDEST DUP2 SLOAD DUP2 MSTORE SWAP1 PUSH1 0x1 ADD SWAP1 PUSH1 0x20 ADD DUP1 DUP4 GT PUSH2 0x21B1 JUMPI DUP3 SWAP1 SUB PUSH1 0x1F AND DUP3 ADD SWAP2 JUMPDEST POP POP POP POP POP SWAP2 POP POP SWAP1 JUMP JUMPDEST PUSH0 PUSH32 0x9016D09D72D40FDAE2FD8CEAC6B6234C7706214FD39C1CD1E609A0528C199300 SWAP1 POP SWAP1 JUMP JUMPDEST PUSH0 PUSH32 0xC1F6FE24621CE81EC5827CAF0253CADB74709B061630E6B55E82371705932000 SWAP1 POP SWAP1 JUMP JUMPDEST PUSH0 PUSH2 0x2234 DUP4 PUSH0 ADD DUP4 PUSH2 0x2E04 JUMP JUMPDEST PUSH0 SHR SWAP1 POP SWAP3 SWAP2 POP POP JUMP JUMPDEST PUSH0 PUSH2 0x2247 PUSH2 0x1930 JUMP JUMPDEST SWAP1 POP PUSH0 PUSH20 0xFFFFFFFFFFFFFFFFFFFFFFFFFFFFFFFFFFFFFFFF AND DUP4 PUSH20 0xFFFFFFFFFFFFFFFFFFFFFFFFFFFFFFFFFFFFFFFF AND SUB PUSH2 0x22B9 JUMPI DUP3 PUSH1 0x40 MLOAD PUSH32 0x5B08BA1800000000000000000000000000000000000000000000000000000000 DUP2 MSTORE PUSH1 0x4 ADD PUSH2 0x22B0 SWAP2 SWAP1 PUSH2 0x4787 JUMP JUMPDEST PUSH1 0x40 MLOAD DUP1 SWAP2 SUB SWAP1 REVERT JUMPDEST DUP2 DUP2 PUSH1 0x5 ADD PUSH0 DUP7 PUSH20 0xFFFFFFFFFFFFFFFFFFFFFFFFFFFFFFFFFFFFFFFF AND PUSH20 0xFFFFFFFFFFFFFFFFFFFFFFFFFFFFFFFFFFFFFFFF AND DUP2 MSTORE PUSH1 0x20 ADD SWAP1 DUP2 MSTORE PUSH1 0x20 ADD PUSH0 KECCAK256 PUSH0 DUP6 PUSH20 0xFFFFFFFFFFFFFFFFFFFFFFFFFFFFFFFFFFFFFFFF AND PUSH20 0xFFFFFFFFFFFFFFFFFFFFFFFFFFFFFFFFFFFFFFFF AND DUP2 MSTORE PUSH1 0x20 ADD SWAP1 DUP2 MSTORE PUSH1 0x20 ADD PUSH0 KECCAK256 PUSH0 PUSH2 0x100 EXP DUP2 SLOAD DUP2 PUSH1 0xFF MUL NOT AND SWAP1 DUP4 ISZERO ISZERO MUL OR SWAP1 SSTORE POP DUP3 PUSH20 0xFFFFFFFFFFFFFFFFFFFFFFFFFFFFFFFFFFFFFFFF AND DUP5 PUSH20 0xFFFFFFFFFFFFFFFFFFFFFFFFFFFFFFFFFFFFFFFF AND PUSH32 0x17307EAB39AB6107E8899845AD3D59BD9653F200F220920489CA2B5937696C31 DUP5 PUSH1 0x40 MLOAD PUSH2 0x23A7 SWAP2 SWAP1 PUSH2 0x4627 JUMP JUMPDEST PUSH1 0x40 MLOAD DUP1 SWAP2 SUB SWAP1 LOG3 POP POP POP POP JUMP JUMPDEST PUSH0 DUP4 PUSH20 0xFFFFFFFFFFFFFFFFFFFFFFFFFFFFFFFFFFFFFFFF AND EXTCODESIZE GT ISZERO PUSH2 0x2561 JUMPI DUP3 PUSH20 0xFFFFFFFFFFFFFFFFFFFFFFFFFFFFFFFFFFFFFFFF AND PUSH4 0x150B7A02 PUSH2 0x23F8 PUSH2 0x1A24 JUMP JUMPDEST DUP7 DUP6 DUP6 PUSH1 0x40 MLOAD DUP6 PUSH4 0xFFFFFFFF AND PUSH1 0xE0 SHL DUP2 MSTORE PUSH1 0x4 ADD PUSH2 0x241A SWAP5 SWAP4 SWAP3 SWAP2 SWAP1 PUSH2 0x550B JUMP JUMPDEST PUSH1 0x20 PUSH1 0x40 MLOAD DUP1 DUP4 SUB DUP2 PUSH0 DUP8 GAS CALL SWAP3 POP POP POP DUP1 ISZERO PUSH2 0x2455 JUMPI POP PUSH1 0x40 MLOAD RETURNDATASIZE PUSH1 0x1F NOT PUSH1 0x1F DUP3 ADD AND DUP3 ADD DUP1 PUSH1 0x40 MSTORE POP DUP2 ADD SWAP1 PUSH2 0x2452 SWAP2 SWAP1 PUSH2 0x5569 JUMP JUMPDEST PUSH1 0x1 JUMPDEST PUSH2 0x24D6 JUMPI RETURNDATASIZE DUP1 PUSH0 DUP2 EQ PUSH2 0x2483 JUMPI PUSH1 0x40 MLOAD SWAP2 POP PUSH1 0x1F NOT PUSH1 0x3F RETURNDATASIZE ADD AND DUP3 ADD PUSH1 0x40 MSTORE RETURNDATASIZE DUP3 MSTORE RETURNDATASIZE PUSH0 PUSH1 0x20 DUP5 ADD RETURNDATACOPY PUSH2 0x2488 JUMP JUMPDEST PUSH1 0x60 SWAP2 POP JUMPDEST POP PUSH0 DUP2 MLOAD SUB PUSH2 0x24CE JUMPI DUP4 PUSH1 0x40 MLOAD PUSH32 0x64A0AE9200000000000000000000000000000000000000000000000000000000 DUP2 MSTORE PUSH1 0x4 ADD PUSH2 0x24C5 SWAP2 SWAP1 PUSH2 0x4787 JUMP JUMPDEST PUSH1 0x40 MLOAD DUP1 SWAP2 SUB SWAP1 REVERT JUMPDEST DUP1 MLOAD DUP2 PUSH1 0x20 ADD REVERT JUMPDEST PUSH4 0x150B7A02 PUSH1 0xE0 SHL PUSH28 0xFFFFFFFFFFFFFFFFFFFFFFFFFFFFFFFFFFFFFFFFFFFFFFFFFFFFFFFF NOT AND DUP2 PUSH28 0xFFFFFFFFFFFFFFFFFFFFFFFFFFFFFFFFFFFFFFFFFFFFFFFFFFFFFFFF NOT AND EQ PUSH2 0x255F JUMPI DUP4 PUSH1 0x40 MLOAD PUSH32 0x64A0AE9200000000000000000000000000000000000000000000000000000000 DUP2 MSTORE PUSH1 0x4 ADD PUSH2 0x2556 SWAP2 SWAP1 PUSH2 0x4787 JUMP JUMPDEST PUSH1 0x40 MLOAD DUP1 SWAP2 SUB SWAP1 REVERT JUMPDEST POP JUMPDEST POP POP POP POP JUMP JUMPDEST PUSH0 PUSH32 0xF0C57E16840DF040F15088DC2F81FE391C3923BEC73E23A9662EFC9C229C6A00 SWAP1 POP SWAP1 JUMP JUMPDEST PUSH2 0x2596 PUSH2 0x2E2B JUMP JUMPDEST PUSH2 0x25A0 DUP3 DUP3 PUSH2 0x2E6B JUMP JUMPDEST POP POP JUMP JUMPDEST PUSH2 0x25AC PUSH2 0x2E2B JUMP JUMPDEST JUMP JUMPDEST PUSH2 0x25B6 PUSH2 0x2E2B JUMP JUMPDEST JUMP JUMPDEST PUSH2 0x25C0 PUSH2 0x2E2B JUMP JUMPDEST PUSH2 0x25C8 PUSH2 0x2EA6 JUMP JUMPDEST JUMP JUMPDEST PUSH2 0x25D2 PUSH2 0x2E2B JUMP JUMPDEST PUSH2 0x25DB DUP2 PUSH2 0x2ED6 JUMP JUMPDEST POP JUMP JUMPDEST PUSH2 0x25E6 PUSH2 0x2E2B JUMP JUMPDEST JUMP JUMPDEST PUSH2 0x25F0 PUSH2 0x2E2B JUMP JUMPDEST PUSH2 0x25FA DUP3 DUP3 PUSH2 0x2F5A JUMP JUMPDEST POP POP JUMP JUMPDEST PUSH1 0x60 PUSH0 PUSH2 0x2609 PUSH2 0x2FAB JUMP JUMPDEST SWAP1 POP PUSH2 0x2614 DUP4 PUSH2 0x1957 JUMP JUMPDEST POP PUSH0 DUP2 PUSH0 ADD PUSH0 DUP6 DUP2 MSTORE PUSH1 0x20 ADD SWAP1 DUP2 MSTORE PUSH1 0x20 ADD PUSH0 KECCAK256 DUP1 SLOAD PUSH2 0x2633 SWAP1 PUSH2 0x4F9D JUMP JUMPDEST DUP1 PUSH1 0x1F ADD PUSH1 0x20 DUP1 SWAP2 DIV MUL PUSH1 0x20 ADD PUSH1 0x40 MLOAD SWAP1 DUP2 ADD PUSH1 0x40 MSTORE DUP1 SWAP3 SWAP2 SWAP1 DUP2 DUP2 MSTORE PUSH1 0x20 ADD DUP3 DUP1 SLOAD PUSH2 0x265F SWAP1 PUSH2 0x4F9D JUMP JUMPDEST DUP1 ISZERO PUSH2 0x26AA JUMPI DUP1 PUSH1 0x1F LT PUSH2 0x2681 JUMPI PUSH2 0x100 DUP1 DUP4 SLOAD DIV MUL DUP4 MSTORE SWAP2 PUSH1 0x20 ADD SWAP2 PUSH2 0x26AA JUMP JUMPDEST DUP3 ADD SWAP2 SWAP1 PUSH0 MSTORE PUSH1 0x20 PUSH0 KECCAK256 SWAP1 JUMPDEST DUP2 SLOAD DUP2 MSTORE SWAP1 PUSH1 0x1 ADD SWAP1 PUSH1 0x20 ADD DUP1 DUP4 GT PUSH2 0x268D JUMPI DUP3 SWAP1 SUB PUSH1 0x1F AND DUP3 ADD SWAP2 JUMPDEST POP POP POP POP POP SWAP1 POP PUSH0 PUSH2 0x26BA PUSH2 0x2FD2 JUMP JUMPDEST SWAP1 POP PUSH0 DUP2 MLOAD SUB PUSH2 0x26CF JUMPI DUP2 SWAP4 POP POP POP POP PUSH2 0x2713 JUMP JUMPDEST PUSH0 DUP3 MLOAD GT ISZERO PUSH2 0x2704 JUMPI DUP1 DUP3 PUSH1 0x40 MLOAD PUSH1 0x20 ADD PUSH2 0x26EB SWAP3 SWAP2 SWAP1 PUSH2 0x55CE JUMP JUMPDEST PUSH1 0x40 MLOAD PUSH1 0x20 DUP2 DUP4 SUB SUB DUP2 MSTORE SWAP1 PUSH1 0x40 MSTORE SWAP4 POP POP POP POP PUSH2 0x2713 JUMP JUMPDEST PUSH2 0x270D DUP6 PUSH2 0x2FE8 JUMP JUMPDEST SWAP4 POP POP POP POP JUMPDEST SWAP2 SWAP1 POP JUMP JUMPDEST PUSH0 PUSH2 0x2724 DUP3 PUSH0 ADD PUSH2 0x304E JUMP JUMPDEST SWAP1 POP SWAP2 SWAP1 POP JUMP JUMPDEST PUSH2 0x2744 DUP3 DUP3 PUSH1 0x40 MLOAD DUP1 PUSH1 0x20 ADD PUSH1 0x40 MSTORE DUP1 PUSH0 DUP2 MSTORE POP PUSH2 0x305D JUMP JUMPDEST POP POP JUMP JUMPDEST PUSH0 PUSH2 0x2751 PUSH2 0x2FAB JUMP JUMPDEST SWAP1 POP DUP2 DUP2 PUSH0 ADD PUSH0 DUP6 DUP2 MSTORE PUSH1 0x20 ADD SWAP1 DUP2 MSTORE PUSH1 0x20 ADD PUSH0 KECCAK256 SWAP1 DUP2 PUSH2 0x2772 SWAP2 SWAP1 PUSH2 0x5297 JUMP JUMPDEST POP PUSH32 0xF8E1A15ABA9398E019F0B49DF1A4FDE98EE17AE345CB5F6B5E2C27F5033E8CE7 DUP4 PUSH1 0x40 MLOAD PUSH2 0x27A2 SWAP2 SWAP1 PUSH2 0x4817 JUMP JUMPDEST PUSH1 0x40 MLOAD DUP1 SWAP2 SUB SWAP1 LOG1 POP POP POP JUMP JUMPDEST PUSH0 PUSH32 0x780E9D6300000000000000000000000000000000000000000000000000000000 PUSH28 0xFFFFFFFFFFFFFFFFFFFFFFFFFFFFFFFFFFFFFFFFFFFFFFFFFFFFFFFF NOT AND DUP3 PUSH28 0xFFFFFFFFFFFFFFFFFFFFFFFFFFFFFFFFFFFFFFFFFFFFFFFFFFFFFFFF NOT AND EQ DUP1 PUSH2 0x2821 JUMPI POP PUSH2 0x2820 DUP3 PUSH2 0x3078 JUMP JUMPDEST JUMPDEST SWAP1 POP SWAP2 SWAP1 POP JUMP JUMPDEST PUSH0 PUSH2 0x2832 DUP3 PUSH2 0x30F1 JUMP JUMPDEST SWAP1 POP SWAP2 SWAP1 POP JUMP JUMPDEST PUSH0 PUSH2 0x2842 PUSH2 0x1930 JUMP JUMPDEST SWAP1 POP DUP2 DUP1 PUSH2 0x287C JUMPI POP PUSH0 PUSH20 0xFFFFFFFFFFFFFFFFFFFFFFFFFFFFFFFFFFFFFFFF AND DUP4 PUSH20 0xFFFFFFFFFFFFFFFFFFFFFFFFFFFFFFFFFFFFFFFF AND EQ ISZERO JUMPDEST ISZERO PUSH2 0x29AE JUMPI PUSH0 PUSH2 0x288B DUP6 PUSH2 0x1957 JUMP JUMPDEST SWAP1 POP PUSH0 PUSH20 0xFFFFFFFFFFFFFFFFFFFFFFFFFFFFFFFFFFFFFFFF AND DUP5 PUSH20 0xFFFFFFFFFFFFFFFFFFFFFFFFFFFFFFFFFFFFFFFF AND EQ ISZERO DUP1 ISZERO PUSH2 0x28F5 JUMPI POP DUP4 PUSH20 0xFFFFFFFFFFFFFFFFFFFFFFFFFFFFFFFFFFFFFFFF AND DUP2 PUSH20 0xFFFFFFFFFFFFFFFFFFFFFFFFFFFFFFFFFFFFFFFF AND EQ ISZERO JUMPDEST DUP1 ISZERO PUSH2 0x2908 JUMPI POP PUSH2 0x2906 DUP2 DUP6 PUSH2 0x17B0 JUMP JUMPDEST ISZERO JUMPDEST ISZERO PUSH2 0x294A JUMPI DUP4 PUSH1 0x40 MLOAD PUSH32 0xA9FBF51F00000000000000000000000000000000000000000000000000000000 DUP2 MSTORE PUSH1 0x4 ADD PUSH2 0x2941 SWAP2 SWAP1 PUSH2 0x4787 JUMP JUMPDEST PUSH1 0x40 MLOAD DUP1 SWAP2 SUB SWAP1 REVERT JUMPDEST DUP3 ISZERO PUSH2 0x29AC JUMPI DUP5 DUP7 PUSH20 0xFFFFFFFFFFFFFFFFFFFFFFFFFFFFFFFFFFFFFFFF AND DUP3 PUSH20 0xFFFFFFFFFFFFFFFFFFFFFFFFFFFFFFFFFFFFFFFF AND PUSH32 0x8C5BE1E5EBEC7D5BD14F71427D1E84F3DD0314C0F7B2291E5B200AC8C7C3B925 PUSH1 0x40 MLOAD PUSH1 0x40 MLOAD DUP1 SWAP2 SUB SWAP1 LOG4 JUMPDEST POP JUMPDEST DUP5 DUP2 PUSH1 0x4 ADD PUSH0 DUP7 DUP2 MSTORE PUSH1 0x20 ADD SWAP1 DUP2 MSTORE PUSH1 0x20 ADD PUSH0 KECCAK256 PUSH0 PUSH2 0x100 EXP DUP2 SLOAD DUP2 PUSH20 0xFFFFFFFFFFFFFFFFFFFFFFFFFFFFFFFFFFFFFFFF MUL NOT AND SWAP1 DUP4 PUSH20 0xFFFFFFFFFFFFFFFFFFFFFFFFFFFFFFFFFFFFFFFF AND MUL OR SWAP1 SSTORE POP POP POP POP POP POP JUMP JUMPDEST PUSH0 PUSH2 0x2A0F PUSH2 0x2DC3 JUMP JUMPDEST PUSH2 0x2A1A DUP5 DUP5 DUP5 PUSH2 0x3138 JUMP JUMPDEST SWAP1 POP SWAP4 SWAP3 POP POP POP JUMP JUMPDEST PUSH2 0x2A2D DUP3 DUP3 PUSH2 0x130B JUMP JUMPDEST PUSH2 0x2A70 JUMPI DUP1 DUP3 PUSH1 0x40 MLOAD PUSH32 0xE2517D3F00000000000000000000000000000000000000000000000000000000 DUP2 MSTORE PUSH1 0x4 ADD PUSH2 0x2A67 SWAP3 SWAP2 SWAP1 PUSH2 0x55F1 JUMP JUMPDEST PUSH1 0x40 MLOAD DUP1 SWAP2 SUB SWAP1 REVERT JUMPDEST POP POP JUMP JUMPDEST PUSH0 DUP1 PUSH2 0x2A7E PUSH2 0x1A79 JUMP JUMPDEST SWAP1 POP PUSH2 0x2A8A DUP5 DUP5 PUSH2 0x130B JUMP JUMPDEST PUSH2 0x2B61 JUMPI PUSH1 0x1 DUP2 PUSH0 ADD PUSH0 DUP7 DUP2 MSTORE PUSH1 0x20 ADD SWAP1 DUP2 MSTORE PUSH1 0x20 ADD PUSH0 KECCAK256 PUSH0 ADD PUSH0 DUP6 PUSH20 0xFFFFFFFFFFFFFFFFFFFFFFFFFFFFFFFFFFFFFFFF AND PUSH20 0xFFFFFFFFFFFFFFFFFFFFFFFFFFFFFFFFFFFFFFFF AND DUP2 MSTORE PUSH1 0x20 ADD SWAP1 DUP2 MSTORE PUSH1 0x20 ADD PUSH0 KECCAK256 PUSH0 PUSH2 0x100 EXP DUP2 SLOAD DUP2 PUSH1 0xFF MUL NOT AND SWAP1 DUP4 ISZERO ISZERO MUL OR SWAP1 SSTORE POP PUSH2 0x2AFD PUSH2 0x1A24 JUMP JUMPDEST PUSH20 0xFFFFFFFFFFFFFFFFFFFFFFFFFFFFFFFFFFFFFFFF AND DUP4 PUSH20 0xFFFFFFFFFFFFFFFFFFFFFFFFFFFFFFFFFFFFFFFF AND DUP6 PUSH32 0x2F8788117E7EFF1D82E926EC794901D17C78024A50270940304540A733656F0D PUSH1 0x40 MLOAD PUSH1 0x40 MLOAD DUP1 SWAP2 SUB SWAP1 LOG4 PUSH1 0x1 SWAP2 POP POP PUSH2 0x2B66 JUMP JUMPDEST PUSH0 SWAP2 POP POP JUMPDEST SWAP3 SWAP2 POP POP JUMP JUMPDEST PUSH0 PUSH2 0x2B91 DUP4 PUSH0 ADD DUP4 PUSH20 0xFFFFFFFFFFFFFFFFFFFFFFFFFFFFFFFFFFFFFFFF AND PUSH0 SHL PUSH2 0x3252 JUMP JUMPDEST SWAP1 POP SWAP3 SWAP2 POP POP JUMP JUMPDEST PUSH0 DUP1 PUSH2 0x2BA3 PUSH2 0x1A79 JUMP JUMPDEST SWAP1 POP PUSH2 0x2BAF DUP5 DUP5 PUSH2 0x130B JUMP JUMPDEST ISZERO PUSH2 0x2C86 JUMPI PUSH0 DUP2 PUSH0 ADD PUSH0 DUP7 DUP2 MSTORE PUSH1 0x20 ADD SWAP1 DUP2 MSTORE PUSH1 0x20 ADD PUSH0 KECCAK256 PUSH0 ADD PUSH0 DUP6 PUSH20 0xFFFFFFFFFFFFFFFFFFFFFFFFFFFFFFFFFFFFFFFF AND PUSH20 0xFFFFFFFFFFFFFFFFFFFFFFFFFFFFFFFFFFFFFFFF AND DUP2 MSTORE PUSH1 0x20 ADD SWAP1 DUP2 MSTORE PUSH1 0x20 ADD PUSH0 KECCAK256 PUSH0 PUSH2 0x100 EXP DUP2 SLOAD DUP2 PUSH1 0xFF MUL NOT AND SWAP1 DUP4 ISZERO ISZERO MUL OR SWAP1 SSTORE POP PUSH2 0x2C22 PUSH2 0x1A24 JUMP JUMPDEST PUSH20 0xFFFFFFFFFFFFFFFFFFFFFFFFFFFFFFFFFFFFFFFF AND DUP4 PUSH20 0xFFFFFFFFFFFFFFFFFFFFFFFFFFFFFFFFFFFFFFFF AND DUP6 PUSH32 0xF6391F5C32D9C69D2A47EA670B442974B53935D1EDC7FD64EB21E047A839171B PUSH1 0x40 MLOAD PUSH1 0x40 MLOAD DUP1 SWAP2 SUB SWAP1 LOG4 PUSH1 0x1 SWAP2 POP POP PUSH2 0x2C8B JUMP JUMPDEST PUSH0 SWAP2 POP POP JUMPDEST SWAP3 SWAP2 POP POP JUMP JUMPDEST PUSH0 PUSH2 0x2CB6 DUP4 PUSH0 ADD DUP4 PUSH20 0xFFFFFFFFFFFFFFFFFFFFFFFFFFFFFFFFFFFFFFFF AND PUSH0 SHL PUSH2 0x32B9 JUMP JUMPDEST SWAP1 POP SWAP3 SWAP2 POP POP JUMP JUMPDEST PUSH2 0x2CC6 PUSH2 0xFE8 JUMP JUMPDEST PUSH2 0x2CFC JUMPI PUSH1 0x40 MLOAD PUSH32 0x8DFC202B00000000000000000000000000000000000000000000000000000000 DUP2 MSTORE PUSH1 0x4 ADD PUSH1 0x40 MLOAD DUP1 SWAP2 SUB SWAP1 REVERT JUMPDEST JUMP JUMPDEST PUSH0 PUSH2 0x2D2A PUSH32 0x360894A13BA1A3210667C828492DB98DCA3E2076CC3735A920A3CA505D382BBC PUSH0 SHL PUSH2 0x33B5 JUMP JUMPDEST PUSH0 ADD PUSH0 SWAP1 SLOAD SWAP1 PUSH2 0x100 EXP SWAP1 DIV PUSH20 0xFFFFFFFFFFFFFFFFFFFFFFFFFFFFFFFFFFFFFFFF AND SWAP1 POP SWAP1 JUMP JUMPDEST PUSH2 0x2D5A DUP3 PUSH2 0x33BE JUMP JUMPDEST DUP2 PUSH20 0xFFFFFFFFFFFFFFFFFFFFFFFFFFFFFFFFFFFFFFFF AND PUSH32 0xBC7CD75A20EE27FD9ADEBAB32041F755214DBC6BFFA90CC0225B39DA2E5C2D3B PUSH1 0x40 MLOAD PUSH1 0x40 MLOAD DUP1 SWAP2 SUB SWAP1 LOG2 PUSH0 DUP2 MLOAD GT ISZERO PUSH2 0x2DB6 JUMPI PUSH2 0x2DB0 DUP3 DUP3 PUSH2 0x3487 JUMP JUMPDEST POP PUSH2 0x2DBF JUMP JUMPDEST PUSH2 0x2DBE PUSH2 0x3507 JUMP JUMPDEST JUMPDEST POP POP JUMP JUMPDEST PUSH2 0x2DCB PUSH2 0xFE8 JUMP JUMPDEST ISZERO PUSH2 0x2E02 JUMPI PUSH1 0x40 MLOAD PUSH32 0xD93C066500000000000000000000000000000000000000000000000000000000 DUP2 MSTORE PUSH1 0x4 ADD PUSH1 0x40 MLOAD DUP1 SWAP2 SUB SWAP1 REVERT JUMPDEST JUMP JUMPDEST PUSH0 DUP3 PUSH0 ADD DUP3 DUP2 SLOAD DUP2 LT PUSH2 0x2E1A JUMPI PUSH2 0x2E19 PUSH2 0x50CD JUMP JUMPDEST JUMPDEST SWAP1 PUSH0 MSTORE PUSH1 0x20 PUSH0 KECCAK256 ADD SLOAD SWAP1 POP SWAP3 SWAP2 POP POP JUMP JUMPDEST PUSH2 0x2E33 PUSH2 0x3543 JUMP JUMPDEST PUSH2 0x2E69 JUMPI PUSH1 0x40 MLOAD PUSH32 0xD7E6BCF800000000000000000000000000000000000000000000000000000000 DUP2 MSTORE PUSH1 0x4 ADD PUSH1 0x40 MLOAD DUP1 SWAP2 SUB SWAP1 REVERT JUMPDEST JUMP JUMPDEST PUSH2 0x2E73 PUSH2 0x2E2B JUMP JUMPDEST PUSH0 PUSH2 0x2E7C PUSH2 0x1930 JUMP JUMPDEST SWAP1 POP DUP3 DUP2 PUSH0 ADD SWAP1 DUP2 PUSH2 0x2E8E SWAP2 SWAP1 PUSH2 0x5297 JUMP JUMPDEST POP DUP2 DUP2 PUSH1 0x1 ADD SWAP1 DUP2 PUSH2 0x2EA0 SWAP2 SWAP1 PUSH2 0x5297 JUMP JUMPDEST POP POP POP POP JUMP JUMPDEST PUSH2 0x2EAE PUSH2 0x2E2B JUMP JUMPDEST PUSH0 PUSH2 0x2EB7 PUSH2 0x1F0F JUMP JUMPDEST SWAP1 POP PUSH0 DUP2 PUSH0 ADD PUSH0 PUSH2 0x100 EXP DUP2 SLOAD DUP2 PUSH1 0xFF MUL NOT AND SWAP1 DUP4 ISZERO ISZERO MUL OR SWAP1 SSTORE POP POP JUMP JUMPDEST PUSH2 0x2EDE PUSH2 0x2E2B JUMP JUMPDEST PUSH0 PUSH20 0xFFFFFFFFFFFFFFFFFFFFFFFFFFFFFFFFFFFFFFFF AND DUP2 PUSH20 0xFFFFFFFFFFFFFFFFFFFFFFFFFFFFFFFFFFFFFFFF AND SUB PUSH2 0x2F4E JUMPI PUSH0 PUSH1 0x40 MLOAD PUSH32 0x1E4FBDF700000000000000000000000000000000000000000000000000000000 DUP2 MSTORE PUSH1 0x4 ADD PUSH2 0x2F45 SWAP2 SWAP1 PUSH2 0x4787 JUMP JUMPDEST PUSH1 0x40 MLOAD DUP1 SWAP2 SUB SWAP1 REVERT JUMPDEST PUSH2 0x2F57 DUP2 PUSH2 0x1F36 JUMP JUMPDEST POP JUMP JUMPDEST PUSH2 0x2F62 PUSH2 0x2E2B JUMP JUMPDEST PUSH0 PUSH2 0x2F6B PUSH2 0x2076 JUMP JUMPDEST SWAP1 POP DUP3 DUP2 PUSH1 0x2 ADD SWAP1 DUP2 PUSH2 0x2F7E SWAP2 SWAP1 PUSH2 0x5297 JUMP JUMPDEST POP DUP2 DUP2 PUSH1 0x3 ADD SWAP1 DUP2 PUSH2 0x2F90 SWAP2 SWAP1 PUSH2 0x5297 JUMP JUMPDEST POP PUSH0 DUP1 SHL DUP2 PUSH0 ADD DUP2 SWAP1 SSTORE POP PUSH0 DUP1 SHL DUP2 PUSH1 0x1 ADD DUP2 SWAP1 SSTORE POP POP POP POP JUMP JUMPDEST PUSH0 PUSH32 0x542A41881EE128A365A727B282C86FA859579490B9BB45AAB8503648C8E7900 SWAP1 POP SWAP1 JUMP JUMPDEST PUSH1 0x60 PUSH1 0x40 MLOAD DUP1 PUSH1 0x20 ADD PUSH1 0x40 MSTORE DUP1 PUSH0 DUP2 MSTORE POP SWAP1 POP SWAP1 JUMP JUMPDEST PUSH1 0x60 PUSH2 0x2FF3 DUP3 PUSH2 0x1957 JUMP JUMPDEST POP PUSH0 PUSH2 0x2FFD PUSH2 0x2FD2 JUMP JUMPDEST SWAP1 POP PUSH0 DUP2 MLOAD GT PUSH2 0x301B JUMPI PUSH1 0x40 MLOAD DUP1 PUSH1 0x20 ADD PUSH1 0x40 MSTORE DUP1 PUSH0 DUP2 MSTORE POP PUSH2 0x3046 JUMP JUMPDEST DUP1 PUSH2 0x3025 DUP5 PUSH2 0x3561 JUMP JUMPDEST PUSH1 0x40 MLOAD PUSH1 0x20 ADD PUSH2 0x3036 SWAP3 SWAP2 SWAP1 PUSH2 0x55CE JUMP JUMPDEST PUSH1 0x40 MLOAD PUSH1 0x20 DUP2 DUP4 SUB SUB DUP2 MSTORE SWAP1 PUSH1 0x40 MSTORE JUMPDEST SWAP2 POP POP SWAP2 SWAP1 POP JUMP JUMPDEST PUSH0 DUP2 PUSH0 ADD DUP1 SLOAD SWAP1 POP SWAP1 POP SWAP2 SWAP1 POP JUMP JUMPDEST PUSH2 0x3067 DUP4 DUP4 PUSH2 0x362B JUMP JUMPDEST PUSH2 0x3073 PUSH0 DUP5 DUP5 DUP5 PUSH2 0x23B5 JUMP JUMPDEST POP POP POP JUMP JUMPDEST PUSH0 PUSH32 0x2A55205A00000000000000000000000000000000000000000000000000000000 PUSH28 0xFFFFFFFFFFFFFFFFFFFFFFFFFFFFFFFFFFFFFFFFFFFFFFFFFFFFFFFF NOT AND DUP3 PUSH28 0xFFFFFFFFFFFFFFFFFFFFFFFFFFFFFFFFFFFFFFFFFFFFFFFFFFFFFFFF NOT AND EQ DUP1 PUSH2 0x30EA JUMPI POP PUSH2 0x30E9 DUP3 PUSH2 0x371E JUMP JUMPDEST JUMPDEST SWAP1 POP SWAP2 SWAP1 POP JUMP JUMPDEST PUSH0 DUP1 PUSH2 0x30FB PUSH2 0x1930 JUMP JUMPDEST SWAP1 POP DUP1 PUSH1 0x2 ADD PUSH0 DUP5 DUP2 MSTORE PUSH1 0x20 ADD SWAP1 DUP2 MSTORE PUSH1 0x20 ADD PUSH0 KECCAK256 PUSH0 SWAP1 SLOAD SWAP1 PUSH2 0x100 EXP SWAP1 DIV PUSH20 0xFFFFFFFFFFFFFFFFFFFFFFFFFFFFFFFFFFFFFFFF AND SWAP2 POP POP SWAP2 SWAP1 POP JUMP JUMPDEST PUSH0 DUP1 PUSH2 0x3145 DUP6 DUP6 DUP6 PUSH2 0x3797 JUMP JUMPDEST SWAP1 POP PUSH0 PUSH20 0xFFFFFFFFFFFFFFFFFFFFFFFFFFFFFFFFFFFFFFFF AND DUP2 PUSH20 0xFFFFFFFFFFFFFFFFFFFFFFFFFFFFFFFFFFFFFFFF AND SUB PUSH2 0x3188 JUMPI PUSH2 0x3183 DUP5 PUSH2 0x38CF JUMP JUMPDEST PUSH2 0x31C7 JUMP JUMPDEST DUP5 PUSH20 0xFFFFFFFFFFFFFFFFFFFFFFFFFFFFFFFFFFFFFFFF AND DUP2 PUSH20 0xFFFFFFFFFFFFFFFFFFFFFFFFFFFFFFFFFFFFFFFF AND EQ PUSH2 0x31C6 JUMPI PUSH2 0x31C5 DUP2 DUP6 PUSH2 0x3925 JUMP JUMPDEST JUMPDEST JUMPDEST PUSH0 PUSH20 0xFFFFFFFFFFFFFFFFFFFFFFFFFFFFFFFFFFFFFFFF AND DUP6 PUSH20 0xFFFFFFFFFFFFFFFFFFFFFFFFFFFFFFFFFFFFFFFF AND SUB PUSH2 0x3208 JUMPI PUSH2 0x3203 DUP5 PUSH2 0x3A84 JUMP JUMPDEST PUSH2 0x3247 JUMP JUMPDEST DUP5 PUSH20 0xFFFFFFFFFFFFFFFFFFFFFFFFFFFFFFFFFFFFFFFF AND DUP2 PUSH20 0xFFFFFFFFFFFFFFFFFFFFFFFFFFFFFFFFFFFFFFFF AND EQ PUSH2 0x3246 JUMPI PUSH2 0x3245 DUP6 DUP6 PUSH2 0x3B5E JUMP JUMPDEST JUMPDEST JUMPDEST DUP1 SWAP2 POP POP SWAP4 SWAP3 POP POP POP JUMP JUMPDEST PUSH0 PUSH2 0x325D DUP4 DUP4 PUSH2 0x3BF1 JUMP JUMPDEST PUSH2 0x32AF JUMPI DUP3 PUSH0 ADD DUP3 SWAP1 DUP1 PUSH1 0x1 DUP2 SLOAD ADD DUP1 DUP3 SSTORE DUP1 SWAP2 POP POP PUSH1 0x1 SWAP1 SUB SWAP1 PUSH0 MSTORE PUSH1 0x20 PUSH0 KECCAK256 ADD PUSH0 SWAP1 SWAP2 SWAP1 SWAP2 SWAP1 SWAP2 POP SSTORE DUP3 PUSH0 ADD DUP1 SLOAD SWAP1 POP DUP4 PUSH1 0x1 ADD PUSH0 DUP5 DUP2 MSTORE PUSH1 0x20 ADD SWAP1 DUP2 MSTORE PUSH1 0x20 ADD PUSH0 KECCAK256 DUP2 SWAP1 SSTORE POP PUSH1 0x1 SWAP1 POP PUSH2 0x32B3 JUMP JUMPDEST PUSH0 SWAP1 POP JUMPDEST SWAP3 SWAP2 POP POP JUMP JUMPDEST PUSH0 DUP1 DUP4 PUSH1 0x1 ADD PUSH0 DUP5 DUP2 MSTORE PUSH1 0x20 ADD SWAP1 DUP2 MSTORE PUSH1 0x20 ADD PUSH0 KECCAK256 SLOAD SWAP1 POP PUSH0 DUP2 EQ PUSH2 0x33AA JUMPI PUSH0 PUSH1 0x1 DUP3 PUSH2 0x32E6 SWAP2 SWAP1 PUSH2 0x5618 JUMP JUMPDEST SWAP1 POP PUSH0 PUSH1 0x1 DUP7 PUSH0 ADD DUP1 SLOAD SWAP1 POP PUSH2 0x32FC SWAP2 SWAP1 PUSH2 0x5618 JUMP JUMPDEST SWAP1 POP DUP1 DUP3 EQ PUSH2 0x3362 JUMPI PUSH0 DUP7 PUSH0 ADD DUP3 DUP2 SLOAD DUP2 LT PUSH2 0x331B JUMPI PUSH2 0x331A PUSH2 0x50CD JUMP JUMPDEST JUMPDEST SWAP1 PUSH0 MSTORE PUSH1 0x20 PUSH0 KECCAK256 ADD SLOAD SWAP1 POP DUP1 DUP8 PUSH0 ADD DUP5 DUP2 SLOAD DUP2 LT PUSH2 0x333C JUMPI PUSH2 0x333B PUSH2 0x50CD JUMP JUMPDEST JUMPDEST SWAP1 PUSH0 MSTORE PUSH1 0x20 PUSH0 KECCAK256 ADD DUP2 SWAP1 SSTORE POP DUP4 DUP8 PUSH1 0x1 ADD PUSH0 DUP4 DUP2 MSTORE PUSH1 0x20 ADD SWAP1 DUP2 MSTORE PUSH1 0x20 ADD PUSH0 KECCAK256 DUP2 SWAP1 SSTORE POP POP JUMPDEST DUP6 PUSH0 ADD DUP1 SLOAD DUP1 PUSH2 0x3375 JUMPI PUSH2 0x3374 PUSH2 0x564B JUMP JUMPDEST JUMPDEST PUSH1 0x1 SWAP1 SUB DUP2 DUP2 SWAP1 PUSH0 MSTORE PUSH1 0x20 PUSH0 KECCAK256 ADD PUSH0 SWAP1 SSTORE SWAP1 SSTORE DUP6 PUSH1 0x1 ADD PUSH0 DUP7 DUP2 MSTORE PUSH1 0x20 ADD SWAP1 DUP2 MSTORE PUSH1 0x20 ADD PUSH0 KECCAK256 PUSH0 SWAP1 SSTORE PUSH1 0x1 SWAP4 POP POP POP POP PUSH2 0x33AF JUMP JUMPDEST PUSH0 SWAP2 POP POP JUMPDEST SWAP3 SWAP2 POP POP JUMP JUMPDEST PUSH0 DUP2 SWAP1 POP SWAP2 SWAP1 POP JUMP JUMPDEST PUSH0 DUP2 PUSH20 0xFFFFFFFFFFFFFFFFFFFFFFFFFFFFFFFFFFFFFFFF AND EXTCODESIZE SUB PUSH2 0x3419 JUMPI DUP1 PUSH1 0x40 MLOAD PUSH32 0x4C9C8CE300000000000000000000000000000000000000000000000000000000 DUP2 MSTORE PUSH1 0x4 ADD PUSH2 0x3410 SWAP2 SWAP1 PUSH2 0x4787 JUMP JUMPDEST PUSH1 0x40 MLOAD DUP1 SWAP2 SUB SWAP1 REVERT JUMPDEST DUP1 PUSH2 0x3445 PUSH32 0x360894A13BA1A3210667C828492DB98DCA3E2076CC3735A920A3CA505D382BBC PUSH0 SHL PUSH2 0x33B5 JUMP JUMPDEST PUSH0 ADD PUSH0 PUSH2 0x100 EXP DUP2 SLOAD DUP2 PUSH20 0xFFFFFFFFFFFFFFFFFFFFFFFFFFFFFFFFFFFFFFFF MUL NOT AND SWAP1 DUP4 PUSH20 0xFFFFFFFFFFFFFFFFFFFFFFFFFFFFFFFFFFFFFFFF AND MUL OR SWAP1 SSTORE POP POP JUMP JUMPDEST PUSH1 0x60 PUSH0 DUP1 DUP5 PUSH20 0xFFFFFFFFFFFFFFFFFFFFFFFFFFFFFFFFFFFFFFFF AND DUP5 PUSH1 0x40 MLOAD PUSH2 0x34B0 SWAP2 SWAP1 PUSH2 0x56B2 JUMP JUMPDEST PUSH0 PUSH1 0x40 MLOAD DUP1 DUP4 SUB DUP2 DUP6 GAS DELEGATECALL SWAP2 POP POP RETURNDATASIZE DUP1 PUSH0 DUP2 EQ PUSH2 0x34E8 JUMPI PUSH1 0x40 MLOAD SWAP2 POP PUSH1 0x1F NOT PUSH1 0x3F RETURNDATASIZE ADD AND DUP3 ADD PUSH1 0x40 MSTORE RETURNDATASIZE DUP3 MSTORE RETURNDATASIZE PUSH0 PUSH1 0x20 DUP5 ADD RETURNDATACOPY PUSH2 0x34ED JUMP JUMPDEST PUSH1 0x60 SWAP2 POP JUMPDEST POP SWAP2 POP SWAP2 POP PUSH2 0x34FD DUP6 DUP4 DUP4 PUSH2 0x3C11 JUMP JUMPDEST SWAP3 POP POP POP SWAP3 SWAP2 POP POP JUMP JUMPDEST PUSH0 CALLVALUE GT ISZERO PUSH2 0x3541 JUMPI PUSH1 0x40 MLOAD PUSH32 0xB398979F00000000000000000000000000000000000000000000000000000000 DUP2 MSTORE PUSH1 0x4 ADD PUSH1 0x40 MLOAD DUP1 SWAP2 SUB SWAP1 REVERT JUMPDEST JUMP JUMPDEST PUSH0 PUSH2 0x354C PUSH2 0x2567 JUMP JUMPDEST PUSH0 ADD PUSH1 0x8 SWAP1 SLOAD SWAP1 PUSH2 0x100 EXP SWAP1 DIV PUSH1 0xFF AND SWAP1 POP SWAP1 JUMP JUMPDEST PUSH1 0x60 PUSH0 PUSH1 0x1 PUSH2 0x356F DUP5 PUSH2 0x3C9E JUMP JUMPDEST ADD SWAP1 POP PUSH0 DUP2 PUSH8 0xFFFFFFFFFFFFFFFF DUP2 GT ISZERO PUSH2 0x358D JUMPI PUSH2 0x358C PUSH2 0x49B1 JUMP JUMPDEST JUMPDEST PUSH1 0x40 MLOAD SWAP1 DUP1 DUP3 MSTORE DUP1 PUSH1 0x1F ADD PUSH1 0x1F NOT AND PUSH1 0x20 ADD DUP3 ADD PUSH1 0x40 MSTORE DUP1 ISZERO PUSH2 0x35BF JUMPI DUP2 PUSH1 0x20 ADD PUSH1 0x1 DUP3 MUL DUP1 CALLDATASIZE DUP4 CALLDATACOPY DUP1 DUP3 ADD SWAP2 POP POP SWAP1 POP JUMPDEST POP SWAP1 POP PUSH0 DUP3 PUSH1 0x20 ADD DUP3 ADD SWAP1 POP JUMPDEST PUSH1 0x1 ISZERO PUSH2 0x3620 JUMPI DUP1 DUP1 PUSH1 0x1 SWAP1 SUB SWAP2 POP POP PUSH32 0x3031323334353637383961626364656600000000000000000000000000000000 PUSH1 0xA DUP7 MOD BYTE DUP2 MSTORE8 PUSH1 0xA DUP6 DUP2 PUSH2 0x3615 JUMPI PUSH2 0x3614 PUSH2 0x5070 JUMP JUMPDEST JUMPDEST DIV SWAP5 POP PUSH0 DUP6 SUB PUSH2 0x35CC JUMPI JUMPDEST DUP2 SWAP4 POP POP POP POP SWAP2 SWAP1 POP JUMP JUMPDEST PUSH0 PUSH20 0xFFFFFFFFFFFFFFFFFFFFFFFFFFFFFFFFFFFFFFFF AND DUP3 PUSH20 0xFFFFFFFFFFFFFFFFFFFFFFFFFFFFFFFFFFFFFFFF AND SUB PUSH2 0x369B JUMPI PUSH0 PUSH1 0x40 MLOAD PUSH32 0x64A0AE9200000000000000000000000000000000000000000000000000000000 DUP2 MSTORE PUSH1 0x4 ADD PUSH2 0x3692 SWAP2 SWAP1 PUSH2 0x4787 JUMP JUMPDEST PUSH1 0x40 MLOAD DUP1 SWAP2 SUB SWAP1 REVERT JUMPDEST PUSH0 PUSH2 0x36A7 DUP4 DUP4 PUSH0 PUSH2 0x1A64 JUMP JUMPDEST SWAP1 POP PUSH0 PUSH20 0xFFFFFFFFFFFFFFFFFFFFFFFFFFFFFFFFFFFFFFFF AND DUP2 PUSH20 0xFFFFFFFFFFFFFFFFFFFFFFFFFFFFFFFFFFFFFFFF AND EQ PUSH2 0x3719 JUMPI PUSH0 PUSH1 0x40 MLOAD PUSH32 0x73C6AC6E00000000000000000000000000000000000000000000000000000000 DUP2 MSTORE PUSH1 0x4 ADD PUSH2 0x3710 SWAP2 SWAP1 PUSH2 0x4787 JUMP JUMPDEST PUSH1 0x40 MLOAD DUP1 SWAP2 SUB SWAP1 REVERT JUMPDEST POP POP POP JUMP JUMPDEST PUSH0 PUSH32 0x5A05180F00000000000000000000000000000000000000000000000000000000 PUSH28 0xFFFFFFFFFFFFFFFFFFFFFFFFFFFFFFFFFFFFFFFFFFFFFFFFFFFFFFFF NOT AND DUP3 PUSH28 0xFFFFFFFFFFFFFFFFFFFFFFFFFFFFFFFFFFFFFFFFFFFFFFFFFFFFFFFF NOT AND EQ DUP1 PUSH2 0x3790 JUMPI POP PUSH2 0x378F DUP3 PUSH2 0x3DEF JUMP JUMPDEST JUMPDEST SWAP1 POP SWAP2 SWAP1 POP JUMP JUMPDEST PUSH0 DUP1 PUSH2 0x37A1 PUSH2 0x3ED0 JUMP JUMPDEST SWAP1 POP PUSH0 PUSH2 0x37AF DUP7 DUP7 DUP7 PUSH2 0x3EF7 JUMP JUMPDEST SWAP1 POP PUSH0 PUSH20 0xFFFFFFFFFFFFFFFFFFFFFFFFFFFFFFFFFFFFFFFF AND DUP2 PUSH20 0xFFFFFFFFFFFFFFFFFFFFFFFFFFFFFFFFFFFFFFFF AND EQ DUP1 ISZERO PUSH2 0x3802 JUMPI POP PUSH0 ADDRESS PUSH20 0xFFFFFFFFFFFFFFFFFFFFFFFFFFFFFFFFFFFFFFFF AND EXTCODESIZE EQ JUMPDEST ISZERO PUSH2 0x3839 JUMPI PUSH1 0x40 MLOAD PUSH32 0xAD89505200000000000000000000000000000000000000000000000000000000 DUP2 MSTORE PUSH1 0x4 ADD PUSH1 0x40 MLOAD DUP1 SWAP2 SUB SWAP1 REVERT JUMPDEST PUSH0 PUSH20 0xFFFFFFFFFFFFFFFFFFFFFFFFFFFFFFFFFFFFFFFF AND DUP7 PUSH20 0xFFFFFFFFFFFFFFFFFFFFFFFFFFFFFFFFFFFFFFFF AND EQ DUP1 ISZERO PUSH2 0x3888 JUMPI POP PUSH2 0x3877 PUSH2 0x4114 JUMP JUMPDEST PUSH12 0xFFFFFFFFFFFFFFFFFFFFFFFF AND DUP6 LT JUMPDEST DUP1 ISZERO PUSH2 0x38A7 JUMPI POP PUSH2 0x38A5 DUP6 DUP4 PUSH1 0x1 ADD PUSH2 0x415A SWAP1 SWAP2 SWAP1 PUSH4 0xFFFFFFFF AND JUMP JUMPDEST ISZERO JUMPDEST ISZERO PUSH2 0x38C3 JUMPI PUSH2 0x38C2 DUP6 DUP4 PUSH1 0x1 ADD PUSH2 0x4190 SWAP1 SWAP2 SWAP1 PUSH4 0xFFFFFFFF AND JUMP JUMPDEST JUMPDEST DUP1 SWAP3 POP POP POP SWAP4 SWAP3 POP POP POP JUMP JUMPDEST PUSH0 PUSH2 0x38D8 PUSH2 0x1A3D JUMP JUMPDEST SWAP1 POP DUP1 PUSH1 0x2 ADD DUP1 SLOAD SWAP1 POP DUP2 PUSH1 0x3 ADD PUSH0 DUP5 DUP2 MSTORE PUSH1 0x20 ADD SWAP1 DUP2 MSTORE PUSH1 0x20 ADD PUSH0 KECCAK256 DUP2 SWAP1 SSTORE POP DUP1 PUSH1 0x2 ADD DUP3 SWAP1 DUP1 PUSH1 0x1 DUP2 SLOAD ADD DUP1 DUP3 SSTORE DUP1 SWAP2 POP POP PUSH1 0x1 SWAP1 SUB SWAP1 PUSH0 MSTORE PUSH1 0x20 PUSH0 KECCAK256 ADD PUSH0 SWAP1 SWAP2 SWAP1 SWAP2 SWAP1 SWAP2 POP SSTORE POP POP JUMP JUMPDEST PUSH0 PUSH2 0x392E PUSH2 0x1A3D JUMP JUMPDEST SWAP1 POP PUSH0 PUSH2 0x393A DUP5 PUSH2 0x101B JUMP JUMPDEST SWAP1 POP PUSH0 DUP3 PUSH1 0x1 ADD PUSH0 DUP6 DUP2 MSTORE PUSH1 0x20 ADD SWAP1 DUP2 MSTORE PUSH1 0x20 ADD PUSH0 KECCAK256 SLOAD SWAP1 POP DUP2 DUP2 EQ PUSH2 0x3A17 JUMPI PUSH0 DUP4 PUSH0 ADD PUSH0 DUP8 PUSH20 0xFFFFFFFFFFFFFFFFFFFFFFFFFFFFFFFFFFFFFFFF AND PUSH20 0xFFFFFFFFFFFFFFFFFFFFFFFFFFFFFFFFFFFFFFFF AND DUP2 MSTORE PUSH1 0x20 ADD SWAP1 DUP2 MSTORE PUSH1 0x20 ADD PUSH0 KECCAK256 PUSH0 DUP5 DUP2 MSTORE PUSH1 0x20 ADD SWAP1 DUP2 MSTORE PUSH1 0x20 ADD PUSH0 KECCAK256 SLOAD SWAP1 POP DUP1 DUP5 PUSH0 ADD PUSH0 DUP9 PUSH20 0xFFFFFFFFFFFFFFFFFFFFFFFFFFFFFFFFFFFFFFFF AND PUSH20 0xFFFFFFFFFFFFFFFFFFFFFFFFFFFFFFFFFFFFFFFF AND DUP2 MSTORE PUSH1 0x20 ADD SWAP1 DUP2 MSTORE PUSH1 0x20 ADD PUSH0 KECCAK256 PUSH0 DUP5 DUP2 MSTORE PUSH1 0x20 ADD SWAP1 DUP2 MSTORE PUSH1 0x20 ADD PUSH0 KECCAK256 DUP2 SWAP1 SSTORE POP DUP2 DUP5 PUSH1 0x1 ADD PUSH0 DUP4 DUP2 MSTORE PUSH1 0x20 ADD SWAP1 DUP2 MSTORE PUSH1 0x20 ADD PUSH0 KECCAK256 DUP2 SWAP1 SSTORE POP POP JUMPDEST DUP3 PUSH1 0x1 ADD PUSH0 DUP6 DUP2 MSTORE PUSH1 0x20 ADD SWAP1 DUP2 MSTORE PUSH1 0x20 ADD PUSH0 KECCAK256 PUSH0 SWAP1 SSTORE DUP3 PUSH0 ADD PUSH0 DUP7 PUSH20 0xFFFFFFFFFFFFFFFFFFFFFFFFFFFFFFFFFFFFFFFF AND PUSH20 0xFFFFFFFFFFFFFFFFFFFFFFFFFFFFFFFFFFFFFFFF AND DUP2 MSTORE PUSH1 0x20 ADD SWAP1 DUP2 MSTORE PUSH1 0x20 ADD PUSH0 KECCAK256 PUSH0 DUP4 DUP2 MSTORE PUSH1 0x20 ADD SWAP1 DUP2 MSTORE PUSH1 0x20 ADD PUSH0 KECCAK256 PUSH0 SWAP1 SSTORE POP POP POP POP POP JUMP JUMPDEST PUSH0 PUSH2 0x3A8D PUSH2 0x1A3D JUMP JUMPDEST SWAP1 POP PUSH0 PUSH1 0x1 DUP3 PUSH1 0x2 ADD DUP1 SLOAD SWAP1 POP PUSH2 0x3AA4 SWAP2 SWAP1 PUSH2 0x5618 JUMP JUMPDEST SWAP1 POP PUSH0 DUP3 PUSH1 0x3 ADD PUSH0 DUP6 DUP2 MSTORE PUSH1 0x20 ADD SWAP1 DUP2 MSTORE PUSH1 0x20 ADD PUSH0 KECCAK256 SLOAD SWAP1 POP PUSH0 DUP4 PUSH1 0x2 ADD DUP4 DUP2 SLOAD DUP2 LT PUSH2 0x3AD4 JUMPI PUSH2 0x3AD3 PUSH2 0x50CD JUMP JUMPDEST JUMPDEST SWAP1 PUSH0 MSTORE PUSH1 0x20 PUSH0 KECCAK256 ADD SLOAD SWAP1 POP DUP1 DUP5 PUSH1 0x2 ADD DUP4 DUP2 SLOAD DUP2 LT PUSH2 0x3AF6 JUMPI PUSH2 0x3AF5 PUSH2 0x50CD JUMP JUMPDEST JUMPDEST SWAP1 PUSH0 MSTORE PUSH1 0x20 PUSH0 KECCAK256 ADD DUP2 SWAP1 SSTORE POP DUP2 DUP5 PUSH1 0x3 ADD PUSH0 DUP4 DUP2 MSTORE PUSH1 0x20 ADD SWAP1 DUP2 MSTORE PUSH1 0x20 ADD PUSH0 KECCAK256 DUP2 SWAP1 SSTORE POP DUP4 PUSH1 0x3 ADD PUSH0 DUP7 DUP2 MSTORE PUSH1 0x20 ADD SWAP1 DUP2 MSTORE PUSH1 0x20 ADD PUSH0 KECCAK256 PUSH0 SWAP1 SSTORE DUP4 PUSH1 0x2 ADD DUP1 SLOAD DUP1 PUSH2 0x3B44 JUMPI PUSH2 0x3B43 PUSH2 0x564B JUMP JUMPDEST JUMPDEST PUSH1 0x1 SWAP1 SUB DUP2 DUP2 SWAP1 PUSH0 MSTORE PUSH1 0x20 PUSH0 KECCAK256 ADD PUSH0 SWAP1 SSTORE SWAP1 SSTORE POP POP POP POP POP JUMP JUMPDEST PUSH0 PUSH2 0x3B67 PUSH2 0x1A3D JUMP JUMPDEST SWAP1 POP PUSH0 PUSH1 0x1 PUSH2 0x3B75 DUP6 PUSH2 0x101B JUMP JUMPDEST PUSH2 0x3B7F SWAP2 SWAP1 PUSH2 0x5618 JUMP JUMPDEST SWAP1 POP DUP3 DUP3 PUSH0 ADD PUSH0 DUP7 PUSH20 0xFFFFFFFFFFFFFFFFFFFFFFFFFFFFFFFFFFFFFFFF AND PUSH20 0xFFFFFFFFFFFFFFFFFFFFFFFFFFFFFFFFFFFFFFFF AND DUP2 MSTORE PUSH1 0x20 ADD SWAP1 DUP2 MSTORE PUSH1 0x20 ADD PUSH0 KECCAK256 PUSH0 DUP4 DUP2 MSTORE PUSH1 0x20 ADD SWAP1 DUP2 MSTORE PUSH1 0x20 ADD PUSH0 KECCAK256 DUP2 SWAP1 SSTORE POP DUP1 DUP3 PUSH1 0x1 ADD PUSH0 DUP6 DUP2 MSTORE PUSH1 0x20 ADD SWAP1 DUP2 MSTORE PUSH1 0x20 ADD PUSH0 KECCAK256 DUP2 SWAP1 SSTORE POP POP POP POP POP JUMP JUMPDEST PUSH0 DUP1 DUP4 PUSH1 0x1 ADD PUSH0 DUP5 DUP2 MSTORE PUSH1 0x20 ADD SWAP1 DUP2 MSTORE PUSH1 0x20 ADD PUSH0 KECCAK256 SLOAD EQ ISZERO SWAP1 POP SWAP3 SWAP2 POP POP JUMP JUMPDEST PUSH1 0x60 DUP3 PUSH2 0x3C26 JUMPI PUSH2 0x3C21 DUP3 PUSH2 0x41C8 JUMP JUMPDEST PUSH2 0x3C96 JUMP JUMPDEST PUSH0 DUP3 MLOAD EQ DUP1 ISZERO PUSH2 0x3C4C JUMPI POP PUSH0 DUP5 PUSH20 0xFFFFFFFFFFFFFFFFFFFFFFFFFFFFFFFFFFFFFFFF AND EXTCODESIZE EQ JUMPDEST ISZERO PUSH2 0x3C8E JUMPI DUP4 PUSH1 0x40 MLOAD PUSH32 0x9996B31500000000000000000000000000000000000000000000000000000000 DUP2 MSTORE PUSH1 0x4 ADD PUSH2 0x3C85 SWAP2 SWAP1 PUSH2 0x4787 JUMP JUMPDEST PUSH1 0x40 MLOAD DUP1 SWAP2 SUB SWAP1 REVERT JUMPDEST DUP2 SWAP1 POP PUSH2 0x3C97 JUMP JUMPDEST JUMPDEST SWAP4 SWAP3 POP POP POP JUMP JUMPDEST PUSH0 DUP1 PUSH0 SWAP1 POP PUSH27 0x184F03E93FF9F4DAA797ED6E38ED64BF6A1F010000000000000000 DUP4 LT PUSH2 0x3CFA JUMPI PUSH27 0x184F03E93FF9F4DAA797ED6E38ED64BF6A1F010000000000000000 DUP4 DUP2 PUSH2 0x3CF0 JUMPI PUSH2 0x3CEF PUSH2 0x5070 JUMP JUMPDEST JUMPDEST DIV SWAP3 POP PUSH1 0x40 DUP2 ADD SWAP1 POP JUMPDEST PUSH14 0x4EE2D6D415B85ACEF8100000000 DUP4 LT PUSH2 0x3D37 JUMPI PUSH14 0x4EE2D6D415B85ACEF8100000000 DUP4 DUP2 PUSH2 0x3D2D JUMPI PUSH2 0x3D2C PUSH2 0x5070 JUMP JUMPDEST JUMPDEST DIV SWAP3 POP PUSH1 0x20 DUP2 ADD SWAP1 POP JUMPDEST PUSH7 0x2386F26FC10000 DUP4 LT PUSH2 0x3D66 JUMPI PUSH7 0x2386F26FC10000 DUP4 DUP2 PUSH2 0x3D5C JUMPI PUSH2 0x3D5B PUSH2 0x5070 JUMP JUMPDEST JUMPDEST DIV SWAP3 POP PUSH1 0x10 DUP2 ADD SWAP1 POP JUMPDEST PUSH4 0x5F5E100 DUP4 LT PUSH2 0x3D8F JUMPI PUSH4 0x5F5E100 DUP4 DUP2 PUSH2 0x3D85 JUMPI PUSH2 0x3D84 PUSH2 0x5070 JUMP JUMPDEST JUMPDEST DIV SWAP3 POP PUSH1 0x8 DUP2 ADD SWAP1 POP JUMPDEST PUSH2 0x2710 DUP4 LT PUSH2 0x3DB4 JUMPI PUSH2 0x2710 DUP4 DUP2 PUSH2 0x3DAA JUMPI PUSH2 0x3DA9 PUSH2 0x5070 JUMP JUMPDEST JUMPDEST DIV SWAP3 POP PUSH1 0x4 DUP2 ADD SWAP1 POP JUMPDEST PUSH1 0x64 DUP4 LT PUSH2 0x3DD7 JUMPI PUSH1 0x64 DUP4 DUP2 PUSH2 0x3DCD JUMPI PUSH2 0x3DCC PUSH2 0x5070 JUMP JUMPDEST JUMPDEST DIV SWAP3 POP PUSH1 0x2 DUP2 ADD SWAP1 POP JUMPDEST PUSH1 0xA DUP4 LT PUSH2 0x3DE6 JUMPI PUSH1 0x1 DUP2 ADD SWAP1 POP JUMPDEST DUP1 SWAP2 POP POP SWAP2 SWAP1 POP JUMP JUMPDEST PUSH0 PUSH32 0x80AC58CD00000000000000000000000000000000000000000000000000000000 PUSH28 0xFFFFFFFFFFFFFFFFFFFFFFFFFFFFFFFFFFFFFFFFFFFFFFFFFFFFFFFF NOT AND DUP3 PUSH28 0xFFFFFFFFFFFFFFFFFFFFFFFFFFFFFFFFFFFFFFFFFFFFFFFFFFFFFFFF NOT AND EQ DUP1 PUSH2 0x3EB9 JUMPI POP PUSH32 0x5B5E139F00000000000000000000000000000000000000000000000000000000 PUSH28 0xFFFFFFFFFFFFFFFFFFFFFFFFFFFFFFFFFFFFFFFFFFFFFFFFFFFFFFFF NOT AND DUP3 PUSH28 0xFFFFFFFFFFFFFFFFFFFFFFFFFFFFFFFFFFFFFFFFFFFFFFFFFFFFFFFF NOT AND EQ JUMPDEST DUP1 PUSH2 0x3EC9 JUMPI POP PUSH2 0x3EC8 DUP3 PUSH2 0x420C JUMP JUMPDEST JUMPDEST SWAP1 POP SWAP2 SWAP1 POP JUMP JUMPDEST PUSH0 PUSH32 0x24DE1071A22E1E6F709B09CC0DADB696F919B85B456665CD36195DF4BC89FF00 SWAP1 POP SWAP1 JUMP JUMPDEST PUSH0 DUP1 PUSH2 0x3F01 PUSH2 0x1930 JUMP JUMPDEST SWAP1 POP PUSH0 PUSH2 0x3F0D DUP6 PUSH2 0x2828 JUMP JUMPDEST SWAP1 POP PUSH0 PUSH20 0xFFFFFFFFFFFFFFFFFFFFFFFFFFFFFFFFFFFFFFFF AND DUP5 PUSH20 0xFFFFFFFFFFFFFFFFFFFFFFFFFFFFFFFFFFFFFFFF AND EQ PUSH2 0x3F4E JUMPI PUSH2 0x3F4D DUP2 DUP6 DUP8 PUSH2 0x4285 JUMP JUMPDEST JUMPDEST PUSH0 PUSH20 0xFFFFFFFFFFFFFFFFFFFFFFFFFFFFFFFFFFFFFFFF AND DUP2 PUSH20 0xFFFFFFFFFFFFFFFFFFFFFFFFFFFFFFFFFFFFFFFF AND EQ PUSH2 0x3FDB JUMPI PUSH2 0x3F8D PUSH0 DUP7 PUSH0 DUP1 PUSH2 0x2839 JUMP JUMPDEST PUSH1 0x1 DUP3 PUSH1 0x3 ADD PUSH0 DUP4 PUSH20 0xFFFFFFFFFFFFFFFFFFFFFFFFFFFFFFFFFFFFFFFF AND PUSH20 0xFFFFFFFFFFFFFFFFFFFFFFFFFFFFFFFFFFFFFFFF AND DUP2 MSTORE PUSH1 0x20 ADD SWAP1 DUP2 MSTORE PUSH1 0x20 ADD PUSH0 KECCAK256 PUSH0 DUP3 DUP3 SLOAD SUB SWAP3 POP POP DUP2 SWAP1 SSTORE POP JUMPDEST PUSH0 PUSH20 0xFFFFFFFFFFFFFFFFFFFFFFFFFFFFFFFFFFFFFFFF AND DUP7 PUSH20 0xFFFFFFFFFFFFFFFFFFFFFFFFFFFFFFFFFFFFFFFF AND EQ PUSH2 0x405C JUMPI PUSH1 0x1 DUP3 PUSH1 0x3 ADD PUSH0 DUP9 PUSH20 0xFFFFFFFFFFFFFFFFFFFFFFFFFFFFFFFFFFFFFFFF AND PUSH20 0xFFFFFFFFFFFFFFFFFFFFFFFFFFFFFFFFFFFFFFFF AND DUP2 MSTORE PUSH1 0x20 ADD SWAP1 DUP2 MSTORE PUSH1 0x20 ADD PUSH0 KECCAK256 PUSH0 DUP3 DUP3 SLOAD ADD SWAP3 POP POP DUP2 SWAP1 SSTORE POP JUMPDEST DUP6 DUP3 PUSH1 0x2 ADD PUSH0 DUP8 DUP2 MSTORE PUSH1 0x20 ADD SWAP1 DUP2 MSTORE PUSH1 0x20 ADD PUSH0 KECCAK256 PUSH0 PUSH2 0x100 EXP DUP2 SLOAD DUP2 PUSH20 0xFFFFFFFFFFFFFFFFFFFFFFFFFFFFFFFFFFFFFFFF MUL NOT AND SWAP1 DUP4 PUSH20 0xFFFFFFFFFFFFFFFFFFFFFFFFFFFFFFFFFFFFFFFF AND MUL OR SWAP1 SSTORE POP DUP5 DUP7 PUSH20 0xFFFFFFFFFFFFFFFFFFFFFFFFFFFFFFFFFFFFFFFF AND DUP3 PUSH20 0xFFFFFFFFFFFFFFFFFFFFFFFFFFFFFFFFFFFFFFFF AND PUSH32 0xDDF252AD1BE2C89B69C2B068FC378DAA952BA7F163C4A11628F55A4DF523B3EF PUSH1 0x40 MLOAD PUSH1 0x40 MLOAD DUP1 SWAP2 SUB SWAP1 LOG4 DUP1 SWAP3 POP POP POP SWAP4 SWAP3 POP POP POP JUMP JUMPDEST PUSH0 DUP1 PUSH2 0x411E PUSH2 0x3ED0 JUMP JUMPDEST SWAP1 POP PUSH0 DUP1 PUSH2 0x412D DUP4 PUSH0 ADD PUSH2 0x4348 JUMP JUMPDEST POP SWAP2 POP SWAP2 POP DUP2 PUSH2 0x4144 JUMPI PUSH2 0x413F PUSH2 0x443D JUMP JUMPDEST PUSH2 0x4152 JUMP JUMPDEST PUSH1 0x1 DUP2 PUSH2 0x4151 SWAP2 SWAP1 PUSH2 0x56DF JUMP JUMPDEST JUMPDEST SWAP4 POP POP POP POP SWAP1 JUMP JUMPDEST PUSH0 DUP1 PUSH1 0x8 DUP4 SWAP1 SHR SWAP1 POP PUSH0 PUSH1 0xFF DUP5 AND PUSH1 0x1 SWAP1 SHL SWAP1 POP PUSH0 DUP2 DUP7 PUSH0 ADD PUSH0 DUP6 DUP2 MSTORE PUSH1 0x20 ADD SWAP1 DUP2 MSTORE PUSH1 0x20 ADD PUSH0 KECCAK256 SLOAD AND EQ ISZERO SWAP3 POP POP POP SWAP3 SWAP2 POP POP JUMP JUMPDEST PUSH0 PUSH1 0x8 DUP3 SWAP1 SHR SWAP1 POP PUSH0 PUSH1 0xFF DUP4 AND PUSH1 0x1 SWAP1 SHL SWAP1 POP DUP1 DUP5 PUSH0 ADD PUSH0 DUP5 DUP2 MSTORE PUSH1 0x20 ADD SWAP1 DUP2 MSTORE PUSH1 0x20 ADD PUSH0 KECCAK256 PUSH0 DUP3 DUP3 SLOAD OR SWAP3 POP POP DUP2 SWAP1 SSTORE POP POP POP POP POP JUMP JUMPDEST PUSH0 DUP2 MLOAD GT ISZERO PUSH2 0x41DA JUMPI DUP1 MLOAD DUP1 DUP3 PUSH1 0x20 ADD REVERT JUMPDEST PUSH1 0x40 MLOAD PUSH32 0x1425EA4200000000000000000000000000000000000000000000000000000000 DUP2 MSTORE PUSH1 0x4 ADD PUSH1 0x40 MLOAD DUP1 SWAP2 SUB SWAP1 REVERT JUMPDEST PUSH0 PUSH32 0x7965DB0B00000000000000000000000000000000000000000000000000000000 PUSH28 0xFFFFFFFFFFFFFFFFFFFFFFFFFFFFFFFFFFFFFFFFFFFFFFFFFFFFFFFF NOT AND DUP3 PUSH28 0xFFFFFFFFFFFFFFFFFFFFFFFFFFFFFFFFFFFFFFFFFFFFFFFFFFFFFFFF NOT AND EQ DUP1 PUSH2 0x427E JUMPI POP PUSH2 0x427D DUP3 PUSH2 0x4441 JUMP JUMPDEST JUMPDEST SWAP1 POP SWAP2 SWAP1 POP JUMP JUMPDEST PUSH2 0x4290 DUP4 DUP4 DUP4 PUSH2 0x44AA JUMP JUMPDEST PUSH2 0x4343 JUMPI PUSH0 PUSH20 0xFFFFFFFFFFFFFFFFFFFFFFFFFFFFFFFFFFFFFFFF AND DUP4 PUSH20 0xFFFFFFFFFFFFFFFFFFFFFFFFFFFFFFFFFFFFFFFF AND SUB PUSH2 0x4304 JUMPI DUP1 PUSH1 0x40 MLOAD PUSH32 0x7E27328900000000000000000000000000000000000000000000000000000000 DUP2 MSTORE PUSH1 0x4 ADD PUSH2 0x42FB SWAP2 SWAP1 PUSH2 0x4817 JUMP JUMPDEST PUSH1 0x40 MLOAD DUP1 SWAP2 SUB SWAP1 REVERT JUMPDEST DUP2 DUP2 PUSH1 0x40 MLOAD PUSH32 0x177E802F00000000000000000000000000000000000000000000000000000000 DUP2 MSTORE PUSH1 0x4 ADD PUSH2 0x433A SWAP3 SWAP2 SWAP1 PUSH2 0x4944 JUMP JUMPDEST PUSH1 0x40 MLOAD DUP1 SWAP2 SUB SWAP1 REVERT JUMPDEST POP POP POP JUMP JUMPDEST PUSH0 DUP1 PUSH0 DUP1 DUP5 PUSH0 ADD DUP1 SLOAD SWAP1 POP SWAP1 POP PUSH0 DUP2 SUB PUSH2 0x436B JUMPI PUSH0 DUP1 PUSH0 SWAP4 POP SWAP4 POP SWAP4 POP POP PUSH2 0x4436 JUMP JUMPDEST PUSH0 PUSH2 0x4384 DUP7 PUSH0 ADD PUSH1 0x1 DUP5 PUSH2 0x437F SWAP2 SWAP1 PUSH2 0x5618 JUMP JUMPDEST PUSH2 0x456A JUMP JUMPDEST PUSH1 0x40 MLOAD DUP1 PUSH1 0x40 ADD PUSH1 0x40 MSTORE SWAP1 DUP2 PUSH0 DUP3 ADD PUSH0 SWAP1 SLOAD SWAP1 PUSH2 0x100 EXP SWAP1 DIV PUSH12 0xFFFFFFFFFFFFFFFFFFFFFFFF AND PUSH12 0xFFFFFFFFFFFFFFFFFFFFFFFF AND PUSH12 0xFFFFFFFFFFFFFFFFFFFFFFFF AND DUP2 MSTORE PUSH1 0x20 ADD PUSH0 DUP3 ADD PUSH1 0xC SWAP1 SLOAD SWAP1 PUSH2 0x100 EXP SWAP1 DIV PUSH20 0xFFFFFFFFFFFFFFFFFFFFFFFFFFFFFFFFFFFFFFFF AND PUSH20 0xFFFFFFFFFFFFFFFFFFFFFFFFFFFFFFFFFFFFFFFF AND PUSH20 0xFFFFFFFFFFFFFFFFFFFFFFFFFFFFFFFFFFFFFFFF AND DUP2 MSTORE POP POP SWAP1 POP PUSH1 0x1 DUP2 PUSH0 ADD MLOAD DUP3 PUSH1 0x20 ADD MLOAD SWAP5 POP SWAP5 POP SWAP5 POP POP POP JUMPDEST SWAP2 SWAP4 SWAP1 SWAP3 POP JUMP JUMPDEST PUSH0 SWAP1 JUMP JUMPDEST PUSH0 PUSH32 0x1FFC9A700000000000000000000000000000000000000000000000000000000 PUSH28 0xFFFFFFFFFFFFFFFFFFFFFFFFFFFFFFFFFFFFFFFFFFFFFFFFFFFFFFFF NOT AND DUP3 PUSH28 0xFFFFFFFFFFFFFFFFFFFFFFFFFFFFFFFFFFFFFFFFFFFFFFFFFFFFFFFF NOT AND EQ SWAP1 POP SWAP2 SWAP1 POP JUMP JUMPDEST PUSH0 DUP1 PUSH20 0xFFFFFFFFFFFFFFFFFFFFFFFFFFFFFFFFFFFFFFFF AND DUP4 PUSH20 0xFFFFFFFFFFFFFFFFFFFFFFFFFFFFFFFFFFFFFFFF AND EQ ISZERO DUP1 ISZERO PUSH2 0x4561 JUMPI POP DUP3 PUSH20 0xFFFFFFFFFFFFFFFFFFFFFFFFFFFFFFFFFFFFFFFF AND DUP5 PUSH20 0xFFFFFFFFFFFFFFFFFFFFFFFFFFFFFFFFFFFFFFFF AND EQ DUP1 PUSH2 0x4522 JUMPI POP PUSH2 0x4521 DUP5 DUP5 PUSH2 0x17B0 JUMP JUMPDEST JUMPDEST DUP1 PUSH2 0x4560 JUMPI POP DUP3 PUSH20 0xFFFFFFFFFFFFFFFFFFFFFFFFFFFFFFFFFFFFFFFF AND PUSH2 0x4548 DUP4 PUSH2 0x19DD JUMP JUMPDEST PUSH20 0xFFFFFFFFFFFFFFFFFFFFFFFFFFFFFFFFFFFFFFFF AND EQ JUMPDEST JUMPDEST SWAP1 POP SWAP4 SWAP3 POP POP POP JUMP JUMPDEST PUSH0 DUP3 PUSH0 MSTORE DUP2 PUSH1 0x20 PUSH0 KECCAK256 ADD SWAP1 POP SWAP3 SWAP2 POP POP JUMP JUMPDEST PUSH0 PUSH1 0x40 MLOAD SWAP1 POP SWAP1 JUMP JUMPDEST PUSH0 DUP1 REVERT JUMPDEST PUSH0 DUP1 REVERT JUMPDEST PUSH0 PUSH32 0xFFFFFFFF00000000000000000000000000000000000000000000000000000000 DUP3 AND SWAP1 POP SWAP2 SWAP1 POP JUMP JUMPDEST PUSH2 0x45C1 DUP2 PUSH2 0x458D JUMP JUMPDEST DUP2 EQ PUSH2 0x45CB JUMPI PUSH0 DUP1 REVERT JUMPDEST POP JUMP JUMPDEST PUSH0 DUP2 CALLDATALOAD SWAP1 POP PUSH2 0x45DC DUP2 PUSH2 0x45B8 JUMP JUMPDEST SWAP3 SWAP2 POP POP JUMP JUMPDEST PUSH0 PUSH1 0x20 DUP3 DUP5 SUB SLT ISZERO PUSH2 0x45F7 JUMPI PUSH2 0x45F6 PUSH2 0x4585 JUMP JUMPDEST JUMPDEST PUSH0 PUSH2 0x4604 DUP5 DUP3 DUP6 ADD PUSH2 0x45CE JUMP JUMPDEST SWAP2 POP POP SWAP3 SWAP2 POP POP JUMP JUMPDEST PUSH0 DUP2 ISZERO ISZERO SWAP1 POP SWAP2 SWAP1 POP JUMP JUMPDEST PUSH2 0x4621 DUP2 PUSH2 0x460D JUMP JUMPDEST DUP3 MSTORE POP POP JUMP JUMPDEST PUSH0 PUSH1 0x20 DUP3 ADD SWAP1 POP PUSH2 0x463A PUSH0 DUP4 ADD DUP5 PUSH2 0x4618 JUMP JUMPDEST SWAP3 SWAP2 POP POP JUMP JUMPDEST PUSH0 DUP2 MLOAD SWAP1 POP SWAP2 SWAP1 POP JUMP JUMPDEST PUSH0 DUP3 DUP3 MSTORE PUSH1 0x20 DUP3 ADD SWAP1 POP SWAP3 SWAP2 POP POP JUMP JUMPDEST PUSH0 JUMPDEST DUP4 DUP2 LT ISZERO PUSH2 0x4677 JUMPI DUP1 DUP3 ADD MLOAD DUP2 DUP5 ADD MSTORE PUSH1 0x20 DUP2 ADD SWAP1 POP PUSH2 0x465C JUMP JUMPDEST PUSH0 DUP5 DUP5 ADD MSTORE POP POP POP POP JUMP JUMPDEST PUSH0 PUSH1 0x1F NOT PUSH1 0x1F DUP4 ADD AND SWAP1 POP SWAP2 SWAP1 POP JUMP JUMPDEST PUSH0 PUSH2 0x469C DUP3 PUSH2 0x4640 JUMP JUMPDEST PUSH2 0x46A6 DUP2 DUP6 PUSH2 0x464A JUMP JUMPDEST SWAP4 POP PUSH2 0x46B6 DUP2 DUP6 PUSH1 0x20 DUP7 ADD PUSH2 0x465A JUMP JUMPDEST PUSH2 0x46BF DUP2 PUSH2 0x4682 JUMP JUMPDEST DUP5 ADD SWAP2 POP POP SWAP3 SWAP2 POP POP JUMP JUMPDEST PUSH0 PUSH1 0x20 DUP3 ADD SWAP1 POP DUP2 DUP2 SUB PUSH0 DUP4 ADD MSTORE PUSH2 0x46E2 DUP2 DUP5 PUSH2 0x4692 JUMP JUMPDEST SWAP1 POP SWAP3 SWAP2 POP POP JUMP JUMPDEST PUSH0 DUP2 SWAP1 POP SWAP2 SWAP1 POP JUMP JUMPDEST PUSH2 0x46FC DUP2 PUSH2 0x46EA JUMP JUMPDEST DUP2 EQ PUSH2 0x4706 JUMPI PUSH0 DUP1 REVERT JUMPDEST POP JUMP JUMPDEST PUSH0 DUP2 CALLDATALOAD SWAP1 POP PUSH2 0x4717 DUP2 PUSH2 0x46F3 JUMP JUMPDEST SWAP3 SWAP2 POP POP JUMP JUMPDEST PUSH0 PUSH1 0x20 DUP3 DUP5 SUB SLT ISZERO PUSH2 0x4732 JUMPI PUSH2 0x4731 PUSH2 0x4585 JUMP JUMPDEST JUMPDEST PUSH0 PUSH2 0x473F DUP5 DUP3 DUP6 ADD PUSH2 0x4709 JUMP JUMPDEST SWAP2 POP POP SWAP3 SWAP2 POP POP JUMP JUMPDEST PUSH0 PUSH20 0xFFFFFFFFFFFFFFFFFFFFFFFFFFFFFFFFFFFFFFFF DUP3 AND SWAP1 POP SWAP2 SWAP1 POP JUMP JUMPDEST PUSH0 PUSH2 0x4771 DUP3 PUSH2 0x4748 JUMP JUMPDEST SWAP1 POP SWAP2 SWAP1 POP JUMP JUMPDEST PUSH2 0x4781 DUP2 PUSH2 0x4767 JUMP JUMPDEST DUP3 MSTORE POP POP JUMP JUMPDEST PUSH0 PUSH1 0x20 DUP3 ADD SWAP1 POP PUSH2 0x479A PUSH0 DUP4 ADD DUP5 PUSH2 0x4778 JUMP JUMPDEST SWAP3 SWAP2 POP POP JUMP JUMPDEST PUSH2 0x47A9 DUP2 PUSH2 0x4767 JUMP JUMPDEST DUP2 EQ PUSH2 0x47B3 JUMPI PUSH0 DUP1 REVERT JUMPDEST POP JUMP JUMPDEST PUSH0 DUP2 CALLDATALOAD SWAP1 POP PUSH2 0x47C4 DUP2 PUSH2 0x47A0 JUMP JUMPDEST SWAP3 SWAP2 POP POP JUMP JUMPDEST PUSH0 DUP1 PUSH1 0x40 DUP4 DUP6 SUB SLT ISZERO PUSH2 0x47E0 JUMPI PUSH2 0x47DF PUSH2 0x4585 JUMP JUMPDEST JUMPDEST PUSH0 PUSH2 0x47ED DUP6 DUP3 DUP7 ADD PUSH2 0x47B6 JUMP JUMPDEST SWAP3 POP POP PUSH1 0x20 PUSH2 0x47FE DUP6 DUP3 DUP7 ADD PUSH2 0x4709 JUMP JUMPDEST SWAP2 POP POP SWAP3 POP SWAP3 SWAP1 POP JUMP JUMPDEST PUSH2 0x4811 DUP2 PUSH2 0x46EA JUMP JUMPDEST DUP3 MSTORE POP POP JUMP JUMPDEST PUSH0 PUSH1 0x20 DUP3 ADD SWAP1 POP PUSH2 0x482A PUSH0 DUP4 ADD DUP5 PUSH2 0x4808 JUMP JUMPDEST SWAP3 SWAP2 POP POP JUMP JUMPDEST PUSH0 DUP1 PUSH0 PUSH1 0x60 DUP5 DUP7 SUB SLT ISZERO PUSH2 0x4847 JUMPI PUSH2 0x4846 PUSH2 0x4585 JUMP JUMPDEST JUMPDEST PUSH0 PUSH2 0x4854 DUP7 DUP3 DUP8 ADD PUSH2 0x47B6 JUMP JUMPDEST SWAP4 POP POP PUSH1 0x20 PUSH2 0x4865 DUP7 DUP3 DUP8 ADD PUSH2 0x47B6 JUMP JUMPDEST SWAP3 POP POP PUSH1 0x40 PUSH2 0x4876 DUP7 DUP3 DUP8 ADD PUSH2 0x4709 JUMP JUMPDEST SWAP2 POP POP SWAP3 POP SWAP3 POP SWAP3 JUMP JUMPDEST PUSH0 DUP2 SWAP1 POP SWAP2 SWAP1 POP JUMP JUMPDEST PUSH2 0x4892 DUP2 PUSH2 0x4880 JUMP JUMPDEST DUP2 EQ PUSH2 0x489C JUMPI PUSH0 DUP1 REVERT JUMPDEST POP JUMP JUMPDEST PUSH0 DUP2 CALLDATALOAD SWAP1 POP PUSH2 0x48AD DUP2 PUSH2 0x4889 JUMP JUMPDEST SWAP3 SWAP2 POP POP JUMP JUMPDEST PUSH0 PUSH1 0x20 DUP3 DUP5 SUB SLT ISZERO PUSH2 0x48C8 JUMPI PUSH2 0x48C7 PUSH2 0x4585 JUMP JUMPDEST JUMPDEST PUSH0 PUSH2 0x48D5 DUP5 DUP3 DUP6 ADD PUSH2 0x489F JUMP JUMPDEST SWAP2 POP POP SWAP3 SWAP2 POP POP JUMP JUMPDEST PUSH2 0x48E7 DUP2 PUSH2 0x4880 JUMP JUMPDEST DUP3 MSTORE POP POP JUMP JUMPDEST PUSH0 PUSH1 0x20 DUP3 ADD SWAP1 POP PUSH2 0x4900 PUSH0 DUP4 ADD DUP5 PUSH2 0x48DE JUMP JUMPDEST SWAP3 SWAP2 POP POP JUMP JUMPDEST PUSH0 DUP1 PUSH1 0x40 DUP4 DUP6 SUB SLT ISZERO PUSH2 0x491C JUMPI PUSH2 0x491B PUSH2 0x4585 JUMP JUMPDEST JUMPDEST PUSH0 PUSH2 0x4929 DUP6 DUP3 DUP7 ADD PUSH2 0x4709 JUMP JUMPDEST SWAP3 POP POP PUSH1 0x20 PUSH2 0x493A DUP6 DUP3 DUP7 ADD PUSH2 0x4709 JUMP JUMPDEST SWAP2 POP POP SWAP3 POP SWAP3 SWAP1 POP JUMP JUMPDEST PUSH0 PUSH1 0x40 DUP3 ADD SWAP1 POP PUSH2 0x4957 PUSH0 DUP4 ADD DUP6 PUSH2 0x4778 JUMP JUMPDEST PUSH2 0x4964 PUSH1 0x20 DUP4 ADD DUP5 PUSH2 0x4808 JUMP JUMPDEST SWAP4 SWAP3 POP POP POP JUMP JUMPDEST PUSH0 DUP1 PUSH1 0x40 DUP4 DUP6 SUB SLT ISZERO PUSH2 0x4981 JUMPI PUSH2 0x4980 PUSH2 0x4585 JUMP JUMPDEST JUMPDEST PUSH0 PUSH2 0x498E DUP6 DUP3 DUP7 ADD PUSH2 0x489F JUMP JUMPDEST SWAP3 POP POP PUSH1 0x20 PUSH2 0x499F DUP6 DUP3 DUP7 ADD PUSH2 0x47B6 JUMP JUMPDEST SWAP2 POP POP SWAP3 POP SWAP3 SWAP1 POP JUMP JUMPDEST PUSH0 DUP1 REVERT JUMPDEST PUSH0 DUP1 REVERT JUMPDEST PUSH32 0x4E487B7100000000000000000000000000000000000000000000000000000000 PUSH0 MSTORE PUSH1 0x41 PUSH1 0x4 MSTORE PUSH1 0x24 PUSH0 REVERT JUMPDEST PUSH2 0x49E7 DUP3 PUSH2 0x4682 JUMP JUMPDEST DUP2 ADD DUP2 DUP2 LT PUSH8 0xFFFFFFFFFFFFFFFF DUP3 GT OR ISZERO PUSH2 0x4A06 JUMPI PUSH2 0x4A05 PUSH2 0x49B1 JUMP JUMPDEST JUMPDEST DUP1 PUSH1 0x40 MSTORE POP POP POP JUMP JUMPDEST PUSH0 PUSH2 0x4A18 PUSH2 0x457C JUMP JUMPDEST SWAP1 POP PUSH2 0x4A24 DUP3 DUP3 PUSH2 0x49DE JUMP JUMPDEST SWAP2 SWAP1 POP JUMP JUMPDEST PUSH0 PUSH8 0xFFFFFFFFFFFFFFFF DUP3 GT ISZERO PUSH2 0x4A43 JUMPI PUSH2 0x4A42 PUSH2 0x49B1 JUMP JUMPDEST JUMPDEST PUSH2 0x4A4C DUP3 PUSH2 0x4682 JUMP JUMPDEST SWAP1 POP PUSH1 0x20 DUP2 ADD SWAP1 POP SWAP2 SWAP1 POP JUMP JUMPDEST DUP3 DUP2 DUP4 CALLDATACOPY PUSH0 DUP4 DUP4 ADD MSTORE POP POP POP JUMP JUMPDEST PUSH0 PUSH2 0x4A79 PUSH2 0x4A74 DUP5 PUSH2 0x4A29 JUMP JUMPDEST PUSH2 0x4A0F JUMP JUMPDEST SWAP1 POP DUP3 DUP2 MSTORE PUSH1 0x20 DUP2 ADD DUP5 DUP5 DUP5 ADD GT ISZERO PUSH2 0x4A95 JUMPI PUSH2 0x4A94 PUSH2 0x49AD JUMP JUMPDEST JUMPDEST PUSH2 0x4AA0 DUP5 DUP3 DUP6 PUSH2 0x4A59 JUMP JUMPDEST POP SWAP4 SWAP3 POP POP POP JUMP JUMPDEST PUSH0 DUP3 PUSH1 0x1F DUP4 ADD SLT PUSH2 0x4ABC JUMPI PUSH2 0x4ABB PUSH2 0x49A9 JUMP JUMPDEST JUMPDEST DUP2 CALLDATALOAD PUSH2 0x4ACC DUP5 DUP3 PUSH1 0x20 DUP7 ADD PUSH2 0x4A67 JUMP JUMPDEST SWAP2 POP POP SWAP3 SWAP2 POP POP JUMP JUMPDEST PUSH0 DUP1 PUSH1 0x40 DUP4 DUP6 SUB SLT ISZERO PUSH2 0x4AEB JUMPI PUSH2 0x4AEA PUSH2 0x4585 JUMP JUMPDEST JUMPDEST PUSH0 PUSH2 0x4AF8 DUP6 DUP3 DUP7 ADD PUSH2 0x47B6 JUMP JUMPDEST SWAP3 POP POP PUSH1 0x20 DUP4 ADD CALLDATALOAD PUSH8 0xFFFFFFFFFFFFFFFF DUP2 GT ISZERO PUSH2 0x4B19 JUMPI PUSH2 0x4B18 PUSH2 0x4589 JUMP JUMPDEST JUMPDEST PUSH2 0x4B25 DUP6 DUP3 DUP7 ADD PUSH2 0x4AA8 JUMP JUMPDEST SWAP2 POP POP SWAP3 POP SWAP3 SWAP1 POP JUMP JUMPDEST PUSH0 PUSH8 0xFFFFFFFFFFFFFFFF DUP3 GT ISZERO PUSH2 0x4B49 JUMPI PUSH2 0x4B48 PUSH2 0x49B1 JUMP JUMPDEST JUMPDEST PUSH2 0x4B52 DUP3 PUSH2 0x4682 JUMP JUMPDEST SWAP1 POP PUSH1 0x20 DUP2 ADD SWAP1 POP SWAP2 SWAP1 POP JUMP JUMPDEST PUSH0 PUSH2 0x4B71 PUSH2 0x4B6C DUP5 PUSH2 0x4B2F JUMP JUMPDEST PUSH2 0x4A0F JUMP JUMPDEST SWAP1 POP DUP3 DUP2 MSTORE PUSH1 0x20 DUP2 ADD DUP5 DUP5 DUP5 ADD GT ISZERO PUSH2 0x4B8D JUMPI PUSH2 0x4B8C PUSH2 0x49AD JUMP JUMPDEST JUMPDEST PUSH2 0x4B98 DUP5 DUP3 DUP6 PUSH2 0x4A59 JUMP JUMPDEST POP SWAP4 SWAP3 POP POP POP JUMP JUMPDEST PUSH0 DUP3 PUSH1 0x1F DUP4 ADD SLT PUSH2 0x4BB4 JUMPI PUSH2 0x4BB3 PUSH2 0x49A9 JUMP JUMPDEST JUMPDEST DUP2 CALLDATALOAD PUSH2 0x4BC4 DUP5 DUP3 PUSH1 0x20 DUP7 ADD PUSH2 0x4B5F JUMP JUMPDEST SWAP2 POP POP SWAP3 SWAP2 POP POP JUMP JUMPDEST PUSH0 PUSH1 0x20 DUP3 DUP5 SUB SLT ISZERO PUSH2 0x4BE2 JUMPI PUSH2 0x4BE1 PUSH2 0x4585 JUMP JUMPDEST JUMPDEST PUSH0 DUP3 ADD CALLDATALOAD PUSH8 0xFFFFFFFFFFFFFFFF DUP2 GT ISZERO PUSH2 0x4BFF JUMPI PUSH2 0x4BFE PUSH2 0x4589 JUMP JUMPDEST JUMPDEST PUSH2 0x4C0B DUP5 DUP3 DUP6 ADD PUSH2 0x4BA0 JUMP JUMPDEST SWAP2 POP POP SWAP3 SWAP2 POP POP JUMP JUMPDEST PUSH0 PUSH1 0x20 DUP3 DUP5 SUB SLT ISZERO PUSH2 0x4C29 JUMPI PUSH2 0x4C28 PUSH2 0x4585 JUMP JUMPDEST JUMPDEST PUSH0 PUSH2 0x4C36 DUP5 DUP3 DUP6 ADD PUSH2 0x47B6 JUMP JUMPDEST SWAP2 POP POP SWAP3 SWAP2 POP POP JUMP JUMPDEST PUSH0 PUSH32 0xFF00000000000000000000000000000000000000000000000000000000000000 DUP3 AND SWAP1 POP SWAP2 SWAP1 POP JUMP JUMPDEST PUSH2 0x4C73 DUP2 PUSH2 0x4C3F JUMP JUMPDEST DUP3 MSTORE POP POP JUMP JUMPDEST PUSH0 DUP2 MLOAD SWAP1 POP SWAP2 SWAP1 POP JUMP JUMPDEST PUSH0 DUP3 DUP3 MSTORE PUSH1 0x20 DUP3 ADD SWAP1 POP SWAP3 SWAP2 POP POP JUMP JUMPDEST PUSH0 DUP2 SWAP1 POP PUSH1 0x20 DUP3 ADD SWAP1 POP SWAP2 SWAP1 POP JUMP JUMPDEST PUSH2 0x4CAB DUP2 PUSH2 0x46EA JUMP JUMPDEST DUP3 MSTORE POP POP JUMP JUMPDEST PUSH0 PUSH2 0x4CBC DUP4 DUP4 PUSH2 0x4CA2 JUMP JUMPDEST PUSH1 0x20 DUP4 ADD SWAP1 POP SWAP3 SWAP2 POP POP JUMP JUMPDEST PUSH0 PUSH1 0x20 DUP3 ADD SWAP1 POP SWAP2 SWAP1 POP JUMP JUMPDEST PUSH0 PUSH2 0x4CDE DUP3 PUSH2 0x4C79 JUMP JUMPDEST PUSH2 0x4CE8 DUP2 DUP6 PUSH2 0x4C83 JUMP JUMPDEST SWAP4 POP PUSH2 0x4CF3 DUP4 PUSH2 0x4C93 JUMP JUMPDEST DUP1 PUSH0 JUMPDEST DUP4 DUP2 LT ISZERO PUSH2 0x4D23 JUMPI DUP2 MLOAD PUSH2 0x4D0A DUP9 DUP3 PUSH2 0x4CB1 JUMP JUMPDEST SWAP8 POP PUSH2 0x4D15 DUP4 PUSH2 0x4CC8 JUMP JUMPDEST SWAP3 POP POP PUSH1 0x1 DUP2 ADD SWAP1 POP PUSH2 0x4CF6 JUMP JUMPDEST POP DUP6 SWAP4 POP POP POP POP SWAP3 SWAP2 POP POP JUMP JUMPDEST PUSH0 PUSH1 0xE0 DUP3 ADD SWAP1 POP PUSH2 0x4D43 PUSH0 DUP4 ADD DUP11 PUSH2 0x4C6A JUMP JUMPDEST DUP2 DUP2 SUB PUSH1 0x20 DUP4 ADD MSTORE PUSH2 0x4D55 DUP2 DUP10 PUSH2 0x4692 JUMP JUMPDEST SWAP1 POP DUP2 DUP2 SUB PUSH1 0x40 DUP4 ADD MSTORE PUSH2 0x4D69 DUP2 DUP9 PUSH2 0x4692 JUMP JUMPDEST SWAP1 POP PUSH2 0x4D78 PUSH1 0x60 DUP4 ADD DUP8 PUSH2 0x4808 JUMP JUMPDEST PUSH2 0x4D85 PUSH1 0x80 DUP4 ADD DUP7 PUSH2 0x4778 JUMP JUMPDEST PUSH2 0x4D92 PUSH1 0xA0 DUP4 ADD DUP6 PUSH2 0x48DE JUMP JUMPDEST DUP2 DUP2 SUB PUSH1 0xC0 DUP4 ADD MSTORE PUSH2 0x4DA4 DUP2 DUP5 PUSH2 0x4CD4 JUMP JUMPDEST SWAP1 POP SWAP9 SWAP8 POP POP POP POP POP POP POP POP JUMP JUMPDEST PUSH0 DUP1 PUSH1 0x40 DUP4 DUP6 SUB SLT ISZERO PUSH2 0x4DC8 JUMPI PUSH2 0x4DC7 PUSH2 0x4585 JUMP JUMPDEST JUMPDEST PUSH0 PUSH2 0x4DD5 DUP6 DUP3 DUP7 ADD PUSH2 0x489F JUMP JUMPDEST SWAP3 POP POP PUSH1 0x20 PUSH2 0x4DE6 DUP6 DUP3 DUP7 ADD PUSH2 0x4709 JUMP JUMPDEST SWAP2 POP POP SWAP3 POP SWAP3 SWAP1 POP JUMP JUMPDEST PUSH2 0x4DF9 DUP2 PUSH2 0x460D JUMP JUMPDEST DUP2 EQ PUSH2 0x4E03 JUMPI PUSH0 DUP1 REVERT JUMPDEST POP JUMP JUMPDEST PUSH0 DUP2 CALLDATALOAD SWAP1 POP PUSH2 0x4E14 DUP2 PUSH2 0x4DF0 JUMP JUMPDEST SWAP3 SWAP2 POP POP JUMP JUMPDEST PUSH0 DUP1 PUSH1 0x40 DUP4 DUP6 SUB SLT ISZERO PUSH2 0x4E30 JUMPI PUSH2 0x4E2F PUSH2 0x4585 JUMP JUMPDEST JUMPDEST PUSH0 PUSH2 0x4E3D DUP6 DUP3 DUP7 ADD PUSH2 0x47B6 JUMP JUMPDEST SWAP3 POP POP PUSH1 0x20 PUSH2 0x4E4E DUP6 DUP3 DUP7 ADD PUSH2 0x4E06 JUMP JUMPDEST SWAP2 POP POP SWAP3 POP SWAP3 SWAP1 POP JUMP JUMPDEST PUSH0 DUP1 PUSH0 DUP1 PUSH1 0x80 DUP6 DUP8 SUB SLT ISZERO PUSH2 0x4E70 JUMPI PUSH2 0x4E6F PUSH2 0x4585 JUMP JUMPDEST JUMPDEST PUSH0 PUSH2 0x4E7D DUP8 DUP3 DUP9 ADD PUSH2 0x47B6 JUMP JUMPDEST SWAP5 POP POP PUSH1 0x20 PUSH2 0x4E8E DUP8 DUP3 DUP9 ADD PUSH2 0x47B6 JUMP JUMPDEST SWAP4 POP POP PUSH1 0x40 PUSH2 0x4E9F DUP8 DUP3 DUP9 ADD PUSH2 0x4709 JUMP JUMPDEST SWAP3 POP POP PUSH1 0x60 DUP6 ADD CALLDATALOAD PUSH8 0xFFFFFFFFFFFFFFFF DUP2 GT ISZERO PUSH2 0x4EC0 JUMPI PUSH2 0x4EBF PUSH2 0x4589 JUMP JUMPDEST JUMPDEST PUSH2 0x4ECC DUP8 DUP3 DUP9 ADD PUSH2 0x4AA8 JUMP JUMPDEST SWAP2 POP POP SWAP3 SWAP6 SWAP2 SWAP5 POP SWAP3 POP JUMP JUMPDEST PUSH0 DUP1 PUSH1 0x40 DUP4 DUP6 SUB SLT ISZERO PUSH2 0x4EEE JUMPI PUSH2 0x4EED PUSH2 0x4585 JUMP JUMPDEST JUMPDEST PUSH0 PUSH2 0x4EFB DUP6 DUP3 DUP7 ADD PUSH2 0x47B6 JUMP JUMPDEST SWAP3 POP POP PUSH1 0x20 DUP4 ADD CALLDATALOAD PUSH8 0xFFFFFFFFFFFFFFFF DUP2 GT ISZERO PUSH2 0x4F1C JUMPI PUSH2 0x4F1B PUSH2 0x4589 JUMP JUMPDEST JUMPDEST PUSH2 0x4F28 DUP6 DUP3 DUP7 ADD PUSH2 0x4BA0 JUMP JUMPDEST SWAP2 POP POP SWAP3 POP SWAP3 SWAP1 POP JUMP JUMPDEST PUSH0 DUP1 PUSH1 0x40 DUP4 DUP6 SUB SLT ISZERO PUSH2 0x4F48 JUMPI PUSH2 0x4F47 PUSH2 0x4585 JUMP JUMPDEST JUMPDEST PUSH0 PUSH2 0x4F55 DUP6 DUP3 DUP7 ADD PUSH2 0x47B6 JUMP JUMPDEST SWAP3 POP POP PUSH1 0x20 PUSH2 0x4F66 DUP6 DUP3 DUP7 ADD PUSH2 0x47B6 JUMP JUMPDEST SWAP2 POP POP SWAP3 POP SWAP3 SWAP1 POP JUMP JUMPDEST PUSH32 0x4E487B7100000000000000000000000000000000000000000000000000000000 PUSH0 MSTORE PUSH1 0x22 PUSH1 0x4 MSTORE PUSH1 0x24 PUSH0 REVERT JUMPDEST PUSH0 PUSH1 0x2 DUP3 DIV SWAP1 POP PUSH1 0x1 DUP3 AND DUP1 PUSH2 0x4FB4 JUMPI PUSH1 0x7F DUP3 AND SWAP2 POP JUMPDEST PUSH1 0x20 DUP3 LT DUP2 SUB PUSH2 0x4FC7 JUMPI PUSH2 0x4FC6 PUSH2 0x4F70 JUMP JUMPDEST JUMPDEST POP SWAP2 SWAP1 POP JUMP JUMPDEST PUSH0 PUSH1 0x60 DUP3 ADD SWAP1 POP PUSH2 0x4FE0 PUSH0 DUP4 ADD DUP7 PUSH2 0x4778 JUMP JUMPDEST PUSH2 0x4FED PUSH1 0x20 DUP4 ADD DUP6 PUSH2 0x4808 JUMP JUMPDEST PUSH2 0x4FFA PUSH1 0x40 DUP4 ADD DUP5 PUSH2 0x4778 JUMP JUMPDEST SWAP5 SWAP4 POP POP POP POP JUMP JUMPDEST PUSH32 0x4E487B7100000000000000000000000000000000000000000000000000000000 PUSH0 MSTORE PUSH1 0x11 PUSH1 0x4 MSTORE PUSH1 0x24 PUSH0 REVERT JUMPDEST PUSH0 PUSH2 0x5039 DUP3 PUSH2 0x46EA JUMP JUMPDEST SWAP2 POP PUSH2 0x5044 DUP4 PUSH2 0x46EA JUMP JUMPDEST SWAP3 POP DUP3 DUP3 MUL PUSH2 0x5052 DUP2 PUSH2 0x46EA JUMP JUMPDEST SWAP2 POP DUP3 DUP3 DIV DUP5 EQ DUP4 ISZERO OR PUSH2 0x5069 JUMPI PUSH2 0x5068 PUSH2 0x5002 JUMP JUMPDEST JUMPDEST POP SWAP3 SWAP2 POP POP JUMP JUMPDEST PUSH32 0x4E487B7100000000000000000000000000000000000000000000000000000000 PUSH0 MSTORE PUSH1 0x12 PUSH1 0x4 MSTORE PUSH1 0x24 PUSH0 REVERT JUMPDEST PUSH0 PUSH2 0x50A7 DUP3 PUSH2 0x46EA JUMP JUMPDEST SWAP2 POP PUSH2 0x50B2 DUP4 PUSH2 0x46EA JUMP JUMPDEST SWAP3 POP DUP3 PUSH2 0x50C2 JUMPI PUSH2 0x50C1 PUSH2 0x5070 JUMP JUMPDEST JUMPDEST DUP3 DUP3 DIV SWAP1 POP SWAP3 SWAP2 POP POP JUMP JUMPDEST PUSH32 0x4E487B7100000000000000000000000000000000000000000000000000000000 PUSH0 MSTORE PUSH1 0x32 PUSH1 0x4 MSTORE PUSH1 0x24 PUSH0 REVERT JUMPDEST PUSH0 DUP2 SWAP1 POP DUP2 PUSH0 MSTORE PUSH1 0x20 PUSH0 KECCAK256 SWAP1 POP SWAP2 SWAP1 POP JUMP JUMPDEST PUSH0 PUSH1 0x20 PUSH1 0x1F DUP4 ADD DIV SWAP1 POP SWAP2 SWAP1 POP JUMP JUMPDEST PUSH0 DUP3 DUP3 SHL SWAP1 POP SWAP3 SWAP2 POP POP JUMP JUMPDEST PUSH0 PUSH1 0x8 DUP4 MUL PUSH2 0x5156 PUSH32 0xFFFFFFFFFFFFFFFFFFFFFFFFFFFFFFFFFFFFFFFFFFFFFFFFFFFFFFFFFFFFFFFF DUP3 PUSH2 0x511B JUMP JUMPDEST PUSH2 0x5160 DUP7 DUP4 PUSH2 0x511B JUMP JUMPDEST SWAP6 POP DUP1 NOT DUP5 AND SWAP4 POP DUP1 DUP7 AND DUP5 OR SWAP3 POP POP POP SWAP4 SWAP3 POP POP POP JUMP JUMPDEST PUSH0 DUP2 SWAP1 POP SWAP2 SWAP1 POP JUMP JUMPDEST PUSH0 PUSH2 0x519B PUSH2 0x5196 PUSH2 0x5191 DUP5 PUSH2 0x46EA JUMP JUMPDEST PUSH2 0x5178 JUMP JUMPDEST PUSH2 0x46EA JUMP JUMPDEST SWAP1 POP SWAP2 SWAP1 POP JUMP JUMPDEST PUSH0 DUP2 SWAP1 POP SWAP2 SWAP1 POP JUMP JUMPDEST PUSH2 0x51B4 DUP4 PUSH2 0x5181 JUMP JUMPDEST PUSH2 0x51C8 PUSH2 0x51C0 DUP3 PUSH2 0x51A2 JUMP JUMPDEST DUP5 DUP5 SLOAD PUSH2 0x5127 JUMP JUMPDEST DUP3 SSTORE POP POP POP POP JUMP JUMPDEST PUSH0 SWAP1 JUMP JUMPDEST PUSH2 0x51DC PUSH2 0x51D0 JUMP JUMPDEST PUSH2 0x51E7 DUP2 DUP5 DUP5 PUSH2 0x51AB JUMP JUMPDEST POP POP POP JUMP JUMPDEST JUMPDEST DUP2 DUP2 LT ISZERO PUSH2 0x520A JUMPI PUSH2 0x51FF PUSH0 DUP3 PUSH2 0x51D4 JUMP JUMPDEST PUSH1 0x1 DUP2 ADD SWAP1 POP PUSH2 0x51ED JUMP JUMPDEST POP POP JUMP JUMPDEST PUSH1 0x1F DUP3 GT ISZERO PUSH2 0x524F JUMPI PUSH2 0x5220 DUP2 PUSH2 0x50FA JUMP JUMPDEST PUSH2 0x5229 DUP5 PUSH2 0x510C JUMP JUMPDEST DUP2 ADD PUSH1 0x20 DUP6 LT ISZERO PUSH2 0x5238 JUMPI DUP2 SWAP1 POP JUMPDEST PUSH2 0x524C PUSH2 0x5244 DUP6 PUSH2 0x510C JUMP JUMPDEST DUP4 ADD DUP3 PUSH2 0x51EC JUMP JUMPDEST POP POP JUMPDEST POP POP POP JUMP JUMPDEST PUSH0 DUP3 DUP3 SHR SWAP1 POP SWAP3 SWAP2 POP POP JUMP JUMPDEST PUSH0 PUSH2 0x526F PUSH0 NOT DUP5 PUSH1 0x8 MUL PUSH2 0x5254 JUMP JUMPDEST NOT DUP1 DUP4 AND SWAP2 POP POP SWAP3 SWAP2 POP POP JUMP JUMPDEST PUSH0 PUSH2 0x5287 DUP4 DUP4 PUSH2 0x5260 JUMP JUMPDEST SWAP2 POP DUP3 PUSH1 0x2 MUL DUP3 OR SWAP1 POP SWAP3 SWAP2 POP POP JUMP JUMPDEST PUSH2 0x52A0 DUP3 PUSH2 0x4640 JUMP JUMPDEST PUSH8 0xFFFFFFFFFFFFFFFF DUP2 GT ISZERO PUSH2 0x52B9 JUMPI PUSH2 0x52B8 PUSH2 0x49B1 JUMP JUMPDEST JUMPDEST PUSH2 0x52C3 DUP3 SLOAD PUSH2 0x4F9D JUMP JUMPDEST PUSH2 0x52CE DUP3 DUP3 DUP6 PUSH2 0x520E JUMP JUMPDEST PUSH0 PUSH1 0x20 SWAP1 POP PUSH1 0x1F DUP4 GT PUSH1 0x1 DUP2 EQ PUSH2 0x52FF JUMPI PUSH0 DUP5 ISZERO PUSH2 0x52ED JUMPI DUP3 DUP8 ADD MLOAD SWAP1 POP JUMPDEST PUSH2 0x52F7 DUP6 DUP3 PUSH2 0x527C JUMP JUMPDEST DUP7 SSTORE POP PUSH2 0x535E JUMP JUMPDEST PUSH1 0x1F NOT DUP5 AND PUSH2 0x530D DUP7 PUSH2 0x50FA JUMP JUMPDEST PUSH0 JUMPDEST DUP3 DUP2 LT ISZERO PUSH2 0x5334 JUMPI DUP5 DUP10 ADD MLOAD DUP3 SSTORE PUSH1 0x1 DUP3 ADD SWAP2 POP PUSH1 0x20 DUP6 ADD SWAP5 POP PUSH1 0x20 DUP2 ADD SWAP1 POP PUSH2 0x530F JUMP JUMPDEST DUP7 DUP4 LT ISZERO PUSH2 0x5351 JUMPI DUP5 DUP10 ADD MLOAD PUSH2 0x534D PUSH1 0x1F DUP10 AND DUP3 PUSH2 0x5260 JUMP JUMPDEST DUP4 SSTORE POP JUMPDEST PUSH1 0x1 PUSH1 0x2 DUP9 MUL ADD DUP9 SSTORE POP POP POP JUMPDEST POP POP POP POP POP POP JUMP JUMPDEST PUSH32 0x4549503731323A20556E696E697469616C697A65640000000000000000000000 PUSH0 DUP3 ADD MSTORE POP JUMP JUMPDEST PUSH0 PUSH2 0x539A PUSH1 0x15 DUP4 PUSH2 0x464A JUMP JUMPDEST SWAP2 POP PUSH2 0x53A5 DUP3 PUSH2 0x5366 JUMP JUMPDEST PUSH1 0x20 DUP3 ADD SWAP1 POP SWAP2 SWAP1 POP JUMP JUMPDEST PUSH0 PUSH1 0x20 DUP3 ADD SWAP1 POP DUP2 DUP2 SUB PUSH0 DUP4 ADD MSTORE PUSH2 0x53C7 DUP2 PUSH2 0x538E JUMP JUMPDEST SWAP1 POP SWAP2 SWAP1 POP JUMP JUMPDEST PUSH0 DUP2 SWAP1 POP SWAP2 SWAP1 POP JUMP JUMPDEST PUSH0 PUSH8 0xFFFFFFFFFFFFFFFF DUP3 AND SWAP1 POP SWAP2 SWAP1 POP JUMP JUMPDEST PUSH0 PUSH2 0x5404 PUSH2 0x53FF PUSH2 0x53FA DUP5 PUSH2 0x53CE JUMP JUMPDEST PUSH2 0x5178 JUMP JUMPDEST PUSH2 0x53D7 JUMP JUMPDEST SWAP1 POP SWAP2 SWAP1 POP JUMP JUMPDEST PUSH2 0x5414 DUP2 PUSH2 0x53EA JUMP JUMPDEST DUP3 MSTORE POP POP JUMP JUMPDEST PUSH0 PUSH1 0x20 DUP3 ADD SWAP1 POP PUSH2 0x542D PUSH0 DUP4 ADD DUP5 PUSH2 0x540B JUMP JUMPDEST SWAP3 SWAP2 POP POP JUMP JUMPDEST PUSH0 PUSH2 0x543D DUP3 PUSH2 0x46EA JUMP JUMPDEST SWAP2 POP PUSH32 0xFFFFFFFFFFFFFFFFFFFFFFFFFFFFFFFFFFFFFFFFFFFFFFFFFFFFFFFFFFFFFFFF DUP3 SUB PUSH2 0x546F JUMPI PUSH2 0x546E PUSH2 0x5002 JUMP JUMPDEST JUMPDEST PUSH1 0x1 DUP3 ADD SWAP1 POP SWAP2 SWAP1 POP JUMP JUMPDEST PUSH0 DUP2 MLOAD SWAP1 POP PUSH2 0x5488 DUP2 PUSH2 0x4889 JUMP JUMPDEST SWAP3 SWAP2 POP POP JUMP JUMPDEST PUSH0 PUSH1 0x20 DUP3 DUP5 SUB SLT ISZERO PUSH2 0x54A3 JUMPI PUSH2 0x54A2 PUSH2 0x4585 JUMP JUMPDEST JUMPDEST PUSH0 PUSH2 0x54B0 DUP5 DUP3 DUP6 ADD PUSH2 0x547A JUMP JUMPDEST SWAP2 POP POP SWAP3 SWAP2 POP POP JUMP JUMPDEST PUSH0 DUP2 MLOAD SWAP1 POP SWAP2 SWAP1 POP JUMP JUMPDEST PUSH0 DUP3 DUP3 MSTORE PUSH1 0x20 DUP3 ADD SWAP1 POP SWAP3 SWAP2 POP POP JUMP JUMPDEST PUSH0 PUSH2 0x54DD DUP3 PUSH2 0x54B9 JUMP JUMPDEST PUSH2 0x54E7 DUP2 DUP6 PUSH2 0x54C3 JUMP JUMPDEST SWAP4 POP PUSH2 0x54F7 DUP2 DUP6 PUSH1 0x20 DUP7 ADD PUSH2 0x465A JUMP JUMPDEST PUSH2 0x5500 DUP2 PUSH2 0x4682 JUMP JUMPDEST DUP5 ADD SWAP2 POP POP SWAP3 SWAP2 POP POP JUMP JUMPDEST PUSH0 PUSH1 0x80 DUP3 ADD SWAP1 POP PUSH2 0x551E PUSH0 DUP4 ADD DUP8 PUSH2 0x4778 JUMP JUMPDEST PUSH2 0x552B PUSH1 0x20 DUP4 ADD DUP7 PUSH2 0x4778 JUMP JUMPDEST PUSH2 0x5538 PUSH1 0x40 DUP4 ADD DUP6 PUSH2 0x4808 JUMP JUMPDEST DUP2 DUP2 SUB PUSH1 0x60 DUP4 ADD MSTORE PUSH2 0x554A DUP2 DUP5 PUSH2 0x54D3 JUMP JUMPDEST SWAP1 POP SWAP6 SWAP5 POP POP POP POP POP JUMP JUMPDEST PUSH0 DUP2 MLOAD SWAP1 POP PUSH2 0x5563 DUP2 PUSH2 0x45B8 JUMP JUMPDEST SWAP3 SWAP2 POP POP JUMP JUMPDEST PUSH0 PUSH1 0x20 DUP3 DUP5 SUB SLT ISZERO PUSH2 0x557E JUMPI PUSH2 0x557D PUSH2 0x4585 JUMP JUMPDEST JUMPDEST PUSH0 PUSH2 0x558B DUP5 DUP3 DUP6 ADD PUSH2 0x5555 JUMP JUMPDEST SWAP2 POP POP SWAP3 SWAP2 POP POP JUMP JUMPDEST PUSH0 DUP2 SWAP1 POP SWAP3 SWAP2 POP POP JUMP JUMPDEST PUSH0 PUSH2 0x55A8 DUP3 PUSH2 0x4640 JUMP JUMPDEST PUSH2 0x55B2 DUP2 DUP6 PUSH2 0x5594 JUMP JUMPDEST SWAP4 POP PUSH2 0x55C2 DUP2 DUP6 PUSH1 0x20 DUP7 ADD PUSH2 0x465A JUMP JUMPDEST DUP1 DUP5 ADD SWAP2 POP POP SWAP3 SWAP2 POP POP JUMP JUMPDEST PUSH0 PUSH2 0x55D9 DUP3 DUP6 PUSH2 0x559E JUMP JUMPDEST SWAP2 POP PUSH2 0x55E5 DUP3 DUP5 PUSH2 0x559E JUMP JUMPDEST SWAP2 POP DUP2 SWAP1 POP SWAP4 SWAP3 POP POP POP JUMP JUMPDEST PUSH0 PUSH1 0x40 DUP3 ADD SWAP1 POP PUSH2 0x5604 PUSH0 DUP4 ADD DUP6 PUSH2 0x4778 JUMP JUMPDEST PUSH2 0x5611 PUSH1 0x20 DUP4 ADD DUP5 PUSH2 0x48DE JUMP JUMPDEST SWAP4 SWAP3 POP POP POP JUMP JUMPDEST PUSH0 PUSH2 0x5622 DUP3 PUSH2 0x46EA JUMP JUMPDEST SWAP2 POP PUSH2 0x562D DUP4 PUSH2 0x46EA JUMP JUMPDEST SWAP3 POP DUP3 DUP3 SUB SWAP1 POP DUP2 DUP2 GT ISZERO PUSH2 0x5645 JUMPI PUSH2 0x5644 PUSH2 0x5002 JUMP JUMPDEST JUMPDEST SWAP3 SWAP2 POP POP JUMP JUMPDEST PUSH32 0x4E487B7100000000000000000000000000000000000000000000000000000000 PUSH0 MSTORE PUSH1 0x31 PUSH1 0x4 MSTORE PUSH1 0x24 PUSH0 REVERT JUMPDEST PUSH0 DUP2 SWAP1 POP SWAP3 SWAP2 POP POP JUMP JUMPDEST PUSH0 PUSH2 0x568C DUP3 PUSH2 0x54B9 JUMP JUMPDEST PUSH2 0x5696 DUP2 DUP6 PUSH2 0x5678 JUMP JUMPDEST SWAP4 POP PUSH2 0x56A6 DUP2 DUP6 PUSH1 0x20 DUP7 ADD PUSH2 0x465A JUMP JUMPDEST DUP1 DUP5 ADD SWAP2 POP POP SWAP3 SWAP2 POP POP JUMP JUMPDEST PUSH0 PUSH2 0x56BD DUP3 DUP5 PUSH2 0x5682 JUMP JUMPDEST SWAP2 POP DUP2 SWAP1 POP SWAP3 SWAP2 POP POP JUMP JUMPDEST PUSH0 PUSH12 0xFFFFFFFFFFFFFFFFFFFFFFFF DUP3 AND SWAP1 POP SWAP2 SWAP1 POP JUMP JUMPDEST PUSH0 PUSH2 0x56E9 DUP3 PUSH2 0x56C8 JUMP JUMPDEST SWAP2 POP PUSH2 0x56F4 DUP4 PUSH2 0x56C8 JUMP JUMPDEST SWAP3 POP DUP3 DUP3 ADD SWAP1 POP PUSH12 0xFFFFFFFFFFFFFFFFFFFFFFFF DUP2 GT ISZERO PUSH2 0x5718 JUMPI PUSH2 0x5717 PUSH2 0x5002 JUMP JUMPDEST JUMPDEST SWAP3 SWAP2 POP POP JUMP INVALID LOG2 PUSH5 0x6970667358 0x22 SLT KECCAK256 CALLDATALOAD 0xB4 0x2A 0xA9 0xC4 PUSH25 0xEED139CF78150D994E8E264CDBCA5C2EEBF2039E1D7EDDC091 PUSH24 0x64736F6C6343000817003300000000000000000000000000 "
	},
	"Assembly": ".code\n  PUSH A0\t\t\tcontract SCUMWalkers is Initia...\n  PUSH 40\t\t\tcontract SCUMWalkers is Initia...\n  MSTORE \t\t\tcontract SCUMWalkers is Initia...\n  ADDRESS \t\t\t@5.0\n  PUSH FFFFFFFFFFFFFFFFFFFFFFFFFFFFFFFFFFFFFFFF\t\t\timport \"@openzeppelin/contract...\n  AND \t\t\timport \"@openzeppelin/contract...\n  PUSH 80\t\t\timport \"@openzeppelin/contract...\n  SWAP1 \t\t\timport \"@openzeppelin/contract...\n  PUSH FFFFFFFFFFFFFFFFFFFFFFFFFFFFFFFFFFFFFFFF\t\t\timport \"@openzeppelin/contract...\n  AND \t\t\timport \"@openzeppelin/contract...\n  DUP2 \t\t\timport \"@openzeppelin/contract...\n  MSTORE \t\t\timport \"@openzeppelin/contract...\n  POP \t\t\timport \"@openzeppelin/contract...\n  CALLVALUE \t\t\tconstructor() {\\n        _disa...\n  DUP1 \t\t\tconstructor() {\\n        _disa...\n  ISZERO \t\t\tconstructor() {\\n        _disa...\n  PUSH [tag] 1\t\t\tconstructor() {\\n        _disa...\n  JUMPI \t\t\tconstructor() {\\n        _disa...\n  PUSH 0\t\t\tconstructor() {\\n        _disa...\n  DUP1 \t\t\tconstructor() {\\n        _disa...\n  REVERT \t\t\tconstructor() {\\n        _disa...\ntag 1\t\t\tconstructor() {\\n        _disa...\n  JUMPDEST \t\t\tconstructor() {\\n        _disa...\n  POP \t\t\tconstructor() {\\n        _disa...\n  PUSH [tag] 4\t\t\t_disableInitializers()\n  PUSH [tag] 5\t\t\t_disableInitializers\n  PUSH 20\t\t\t_disableInitializers\n  SHL \t\t\t_disableInitializers\n  PUSH 20\t\t\t_disableInitializers()\n  SHR \t\t\t_disableInitializers()\n  JUMP \t\t\t_disableInitializers()\ntag 4\t\t\t_disableInitializers()\n  JUMPDEST \t\t\t_disableInitializers()\n  PUSH [tag] 6\t\t\tcontract SCUMWalkers is Initia...\n  JUMP \t\t\tcontract SCUMWalkers is Initia...\ntag 5\t\t\t\n  JUMPDEST \t\t\t\n  PUSH 0\t\t\t\n  PUSH [tag] 8\t\t\t\n  PUSH [tag] 9\t\t\t\n  PUSH 20\t\t\t\n  SHL \t\t\t\n  PUSH 20\t\t\t\n  SHR \t\t\t\n  JUMP \t\t\t\ntag 8\t\t\t\n  JUMPDEST \t\t\t\n  SWAP1 \t\t\t\n  POP \t\t\t\n  DUP1 \t\t\t\n  PUSH 0\t\t\t\n  ADD \t\t\t\n  PUSH 8\t\t\t\n  SWAP1 \t\t\t\n  SLOAD \t\t\t\n  SWAP1 \t\t\t\n  PUSH 100\t\t\t\n  EXP \t\t\t\n  SWAP1 \t\t\t\n  DIV \t\t\t\n  PUSH FF\t\t\t\n  AND \t\t\t\n  ISZERO \t\t\t\n  PUSH [tag] 10\t\t\t\n  JUMPI \t\t\t\n  PUSH 40\t\t\t\n  MLOAD \t\t\t\n  PUSH F92EE8A900000000000000000000000000000000000000000000000000000000\t\t\t\n  DUP2 \t\t\t\n  MSTORE \t\t\t\n  PUSH 4\t\t\t\n  ADD \t\t\t\n  PUSH 40\t\t\t\n  MLOAD \t\t\t\n  DUP1 \t\t\t\n  SWAP2 \t\t\t\n  SUB \t\t\t\n  SWAP1 \t\t\t\n  REVERT \t\t\t\ntag 10\t\t\t\n  JUMPDEST \t\t\t\n  PUSH FFFFFFFFFFFFFFFF\t\t\t\n  DUP1 \t\t\t\n  AND \t\t\t\n  DUP2 \t\t\t\n  PUSH 0\t\t\t\n  ADD \t\t\t\n  PUSH 0\t\t\t\n  SWAP1 \t\t\t\n  SLOAD \t\t\t\n  SWAP1 \t\t\t\n  PUSH 100\t\t\t\n  EXP \t\t\t\n  SWAP1 \t\t\t\n  DIV \t\t\t\n  PUSH FFFFFFFFFFFFFFFF\t\t\t\n  AND \t\t\t\n  PUSH FFFFFFFFFFFFFFFF\t\t\t\n  AND \t\t\t\n  EQ \t\t\t\n  PUSH [tag] 11\t\t\t\n  JUMPI \t\t\t\n  PUSH FFFFFFFFFFFFFFFF\t\t\t\n  DUP2 \t\t\t\n  PUSH 0\t\t\t\n  ADD \t\t\t\n  PUSH 0\t\t\t\n  PUSH 100\t\t\t\n  EXP \t\t\t\n  DUP2 \t\t\t\n  SLOAD \t\t\t\n  DUP2 \t\t\t\n  PUSH FFFFFFFFFFFFFFFF\t\t\t\n  MUL \t\t\t\n  NOT \t\t\t\n  AND \t\t\t\n  SWAP1 \t\t\t\n  DUP4 \t\t\t\n  PUSH FFFFFFFFFFFFFFFF\t\t\t\n  AND \t\t\t\n  MUL \t\t\t\n  OR \t\t\t\n  SWAP1 \t\t\t\n  SSTORE \t\t\t\n  POP \t\t\t\n  PUSH C7F505B2F371AE2175EE4913F4499E1F2633A7B5936321EED1CDAEB6115181D2\t\t\t\n  PUSH FFFFFFFFFFFFFFFF\t\t\t\n  PUSH 40\t\t\t\n  MLOAD \t\t\t\n  PUSH [tag] 12\t\t\t\n  SWAP2 \t\t\t\n  SWAP1 \t\t\t\n  PUSH [tag] 13\t\t\t\n  JUMP \t\t\t\ntag 12\t\t\t\n  JUMPDEST \t\t\t\n  PUSH 40\t\t\t\n  MLOAD \t\t\t\n  DUP1 \t\t\t\n  SWAP2 \t\t\t\n  SUB \t\t\t\n  SWAP1 \t\t\t\n  LOG1 \t\t\t\ntag 11\t\t\t\n  JUMPDEST \t\t\t\n  POP \t\t\t\n  JUMP \t\t\t\ntag 9\t\t\t\n  JUMPDEST \t\t\t\n  PUSH 0\t\t\t\n  PUSH F0C57E16840DF040F15088DC2F81FE391C3923BEC73E23A9662EFC9C229C6A00\t\t\t\n  SWAP1 \t\t\t\n  POP \t\t\t\n  SWAP1 \t\t\t\n  JUMP \t\t\t\ntag 15\t\t\t-License-Identifier: MIT\\nprag...\n  JUMPDEST \t\t\t-License-Identifier: MIT\\nprag...\n  PUSH 0\t\t\tdity ^0\n  PUSH FFFFFFFFFFFFFFFF\t\t\ttracts-upgradeable\n  DUP3 \t\t\tlin/c\n  AND \t\t\teppelin/contracts-upgradeable@\n  SWAP1 \t\t\tort \"@openzeppelin/contracts-u...\n  POP \t\t\tort \"@openzeppelin/contracts-u...\n  SWAP2 \t\t\t-License-Identifier: MIT\\nprag...\n  SWAP1 \t\t\t-License-Identifier: MIT\\nprag...\n  POP \t\t\t-License-Identifier: MIT\\nprag...\n  JUMP \t\t\t-License-Identifier: MIT\\nprag...\ntag 16\t\t\tutils/Initializable.sol\";\\nimp...\n  JUMPDEST \t\t\tutils/Initializable.sol\";\\nimp...\n  PUSH [tag] 20\t\t\t721/ERC721Upgradeable.s\n  DUP2 \t\t\table.\n  PUSH [tag] 15\t\t\t721/ERC721Upgradeable.s\n  JUMP \t\t\t721/ERC721Upgradeable.s\ntag 20\t\t\t721/ERC721Upgradeable.s\n  JUMPDEST \t\t\t721/ERC721Upgradeable.s\n  DUP3 \t\t\tn/E\n  MSTORE \t\t\t.0/token/ERC721/ERC721Upgradea...\n  POP \t\t\tutils/Initializable.sol\";\\nimp...\n  POP \t\t\tutils/Initializable.sol\";\\nimp...\n  JUMP \t\t\tutils/Initializable.sol\";\\nimp...\ntag 13\t\t\t@openzeppelin/contracts-upgrad...\n  JUMPDEST \t\t\t@openzeppelin/contracts-upgrad...\n  PUSH 0\t\t\tble.\n  PUSH 20\t\t\tct\n  DUP3 \t\t\telin/cont\n  ADD \t\t\tzeppelin/contracts\n  SWAP1 \t\t\tt \"@openzeppelin/contracts\n  POP \t\t\tt \"@openzeppelin/contracts\n  PUSH [tag] 22\t\t\tle@5.0.0/access/AccessControlU...\n  PUSH 0\t\t\ti\n  DUP4 \t\t\t@openzepp\n  ADD \t\t\trt \"@openzeppelin\n  DUP5 \t\t\tol\";\\ni\n  PUSH [tag] 16\t\t\tle@5.0.0/access/AccessControlU...\n  JUMP \t\t\tle@5.0.0/access/AccessControlU...\ntag 22\t\t\tle@5.0.0/access/AccessControlU...\n  JUMPDEST \t\t\tle@5.0.0/access/AccessControlU...\n  SWAP3 \t\t\t@openzeppelin/contracts-upgrad...\n  SWAP2 \t\t\t@openzeppelin/contracts-upgrad...\n  POP \t\t\t@openzeppelin/contracts-upgrad...\n  POP \t\t\t@openzeppelin/contracts-upgrad...\n  JUMP \t\t\t@openzeppelin/contracts-upgrad...\ntag 6\t\t\tcontract SCUMWalkers is Initia...\n  JUMPDEST \t\t\tcontract SCUMWalkers is Initia...\n  PUSH 80\t\t\tcontract SCUMWalkers is Initia...\n  MLOAD \t\t\tcontract SCUMWalkers is Initia...\n  PUSH #[$] 0000000000000000000000000000000000000000000000000000000000000000\t\t\tcontract SCUMWalkers is Initia...\n  PUSH [$] 0000000000000000000000000000000000000000000000000000000000000000\t\t\tcontract SCUMWalkers is Initia...\n  PUSH 0\t\t\tcontract SCUMWalkers is Initia...\n  CODECOPY \t\t\tcontract SCUMWalkers is Initia...\n  PUSH 0\t\t\tcontract SCUMWalkers is Initia...\n  ASSIGNIMMUTABLE 1032\t\t\tcontract SCUMWalkers is Initia...\n  PUSH #[$] 0000000000000000000000000000000000000000000000000000000000000000\t\t\tcontract SCUMWalkers is Initia...\n  PUSH 0\t\t\tcontract SCUMWalkers is Initia...\n  RETURN \t\t\tcontract SCUMWalkers is Initia...\n.data\n  0:\n    .code\n      PUSH 80\t\t\tcontract SCUMWalkers is Initia...\n      PUSH 40\t\t\tcontract SCUMWalkers is Initia...\n      MSTORE \t\t\tcontract SCUMWalkers is Initia...\n      PUSH 4\t\t\tcontract SCUMWalkers is Initia...\n      CALLDATASIZE \t\t\tcontract SCUMWalkers is Initia...\n      LT \t\t\tcontract SCUMWalkers is Initia...\n      PUSH [tag] 1\t\t\tcontract SCUMWalkers is Initia...\n      JUMPI \t\t\tcontract SCUMWalkers is Initia...\n      PUSH 0\t\t\tcontract SCUMWalkers is Initia...\n      CALLDATALOAD \t\t\tcontract SCUMWalkers is Initia...\n      PUSH E0\t\t\tcontract SCUMWalkers is Initia...\n      SHR \t\t\tcontract SCUMWalkers is Initia...\n      DUP1 \t\t\tcontract SCUMWalkers is Initia...\n      PUSH 70A08231\t\t\tcontract SCUMWalkers is Initia...\n      GT \t\t\tcontract SCUMWalkers is Initia...\n      PUSH [tag] 42\t\t\tcontract SCUMWalkers is Initia...\n      JUMPI \t\t\tcontract SCUMWalkers is Initia...\n      DUP1 \t\t\tcontract SCUMWalkers is Initia...\n      PUSH A22CB465\t\t\tcontract SCUMWalkers is Initia...\n      GT \t\t\tcontract SCUMWalkers is Initia...\n      PUSH [tag] 43\t\t\tcontract SCUMWalkers is Initia...\n      JUMPI \t\t\tcontract SCUMWalkers is Initia...\n      DUP1 \t\t\tcontract SCUMWalkers is Initia...\n      PUSH CA15C873\t\t\tcontract SCUMWalkers is Initia...\n      GT \t\t\tcontract SCUMWalkers is Initia...\n      PUSH [tag] 44\t\t\tcontract SCUMWalkers is Initia...\n      JUMPI \t\t\tcontract SCUMWalkers is Initia...\n      DUP1 \t\t\tcontract SCUMWalkers is Initia...\n      PUSH CA15C873\t\t\tcontract SCUMWalkers is Initia...\n      EQ \t\t\tcontract SCUMWalkers is Initia...\n      PUSH [tag] 37\t\t\tcontract SCUMWalkers is Initia...\n      JUMPI \t\t\tcontract SCUMWalkers is Initia...\n      DUP1 \t\t\tcontract SCUMWalkers is Initia...\n      PUSH D204C45E\t\t\tcontract SCUMWalkers is Initia...\n      EQ \t\t\tcontract SCUMWalkers is Initia...\n      PUSH [tag] 38\t\t\tcontract SCUMWalkers is Initia...\n      JUMPI \t\t\tcontract SCUMWalkers is Initia...\n      DUP1 \t\t\tcontract SCUMWalkers is Initia...\n      PUSH D547741F\t\t\tcontract SCUMWalkers is Initia...\n      EQ \t\t\tcontract SCUMWalkers is Initia...\n      PUSH [tag] 39\t\t\tcontract SCUMWalkers is Initia...\n      JUMPI \t\t\tcontract SCUMWalkers is Initia...\n      DUP1 \t\t\tcontract SCUMWalkers is Initia...\n      PUSH E985E9C5\t\t\tcontract SCUMWalkers is Initia...\n      EQ \t\t\tcontract SCUMWalkers is Initia...\n      PUSH [tag] 40\t\t\tcontract SCUMWalkers is Initia...\n      JUMPI \t\t\tcontract SCUMWalkers is Initia...\n      DUP1 \t\t\tcontract SCUMWalkers is Initia...\n      PUSH F2FDE38B\t\t\tcontract SCUMWalkers is Initia...\n      EQ \t\t\tcontract SCUMWalkers is Initia...\n      PUSH [tag] 41\t\t\tcontract SCUMWalkers is Initia...\n      JUMPI \t\t\tcontract SCUMWalkers is Initia...\n      PUSH [tag] 1\t\t\tcontract SCUMWalkers is Initia...\n      JUMP \t\t\tcontract SCUMWalkers is Initia...\n    tag 44\t\t\tcontract SCUMWalkers is Initia...\n      JUMPDEST \t\t\tcontract SCUMWalkers is Initia...\n      DUP1 \t\t\tcontract SCUMWalkers is Initia...\n      PUSH A22CB465\t\t\tcontract SCUMWalkers is Initia...\n      EQ \t\t\tcontract SCUMWalkers is Initia...\n      PUSH [tag] 32\t\t\tcontract SCUMWalkers is Initia...\n      JUMPI \t\t\tcontract SCUMWalkers is Initia...\n      DUP1 \t\t\tcontract SCUMWalkers is Initia...\n      PUSH AD3CB1CC\t\t\tcontract SCUMWalkers is Initia...\n      EQ \t\t\tcontract SCUMWalkers is Initia...\n      PUSH [tag] 33\t\t\tcontract SCUMWalkers is Initia...\n      JUMPI \t\t\tcontract SCUMWalkers is Initia...\n      DUP1 \t\t\tcontract SCUMWalkers is Initia...\n      PUSH B88D4FDE\t\t\tcontract SCUMWalkers is Initia...\n      EQ \t\t\tcontract SCUMWalkers is Initia...\n      PUSH [tag] 34\t\t\tcontract SCUMWalkers is Initia...\n      JUMPI \t\t\tcontract SCUMWalkers is Initia...\n      DUP1 \t\t\tcontract SCUMWalkers is Initia...\n      PUSH C4D66DE8\t\t\tcontract SCUMWalkers is Initia...\n      EQ \t\t\tcontract SCUMWalkers is Initia...\n      PUSH [tag] 35\t\t\tcontract SCUMWalkers is Initia...\n      JUMPI \t\t\tcontract SCUMWalkers is Initia...\n      DUP1 \t\t\tcontract SCUMWalkers is Initia...\n      PUSH C87B56DD\t\t\tcontract SCUMWalkers is Initia...\n      EQ \t\t\tcontract SCUMWalkers is Initia...\n      PUSH [tag] 36\t\t\tcontract SCUMWalkers is Initia...\n      JUMPI \t\t\tcontract SCUMWalkers is Initia...\n      PUSH [tag] 1\t\t\tcontract SCUMWalkers is Initia...\n      JUMP \t\t\tcontract SCUMWalkers is Initia...\n    tag 43\t\t\tcontract SCUMWalkers is Initia...\n      JUMPDEST \t\t\tcontract SCUMWalkers is Initia...\n      DUP1 \t\t\tcontract SCUMWalkers is Initia...\n      PUSH 8DA5CB5B\t\t\tcontract SCUMWalkers is Initia...\n      GT \t\t\tcontract SCUMWalkers is Initia...\n      PUSH [tag] 45\t\t\tcontract SCUMWalkers is Initia...\n      JUMPI \t\t\tcontract SCUMWalkers is Initia...\n      DUP1 \t\t\tcontract SCUMWalkers is Initia...\n      PUSH 8DA5CB5B\t\t\tcontract SCUMWalkers is Initia...\n      EQ \t\t\tcontract SCUMWalkers is Initia...\n      PUSH [tag] 27\t\t\tcontract SCUMWalkers is Initia...\n      JUMPI \t\t\tcontract SCUMWalkers is Initia...\n      DUP1 \t\t\tcontract SCUMWalkers is Initia...\n      PUSH 9010D07C\t\t\tcontract SCUMWalkers is Initia...\n      EQ \t\t\tcontract SCUMWalkers is Initia...\n      PUSH [tag] 28\t\t\tcontract SCUMWalkers is Initia...\n      JUMPI \t\t\tcontract SCUMWalkers is Initia...\n      DUP1 \t\t\tcontract SCUMWalkers is Initia...\n      PUSH 91D14854\t\t\tcontract SCUMWalkers is Initia...\n      EQ \t\t\tcontract SCUMWalkers is Initia...\n      PUSH [tag] 29\t\t\tcontract SCUMWalkers is Initia...\n      JUMPI \t\t\tcontract SCUMWalkers is Initia...\n      DUP1 \t\t\tcontract SCUMWalkers is Initia...\n      PUSH 95D89B41\t\t\tcontract SCUMWalkers is Initia...\n      EQ \t\t\tcontract SCUMWalkers is Initia...\n      PUSH [tag] 30\t\t\tcontract SCUMWalkers is Initia...\n      JUMPI \t\t\tcontract SCUMWalkers is Initia...\n      DUP1 \t\t\tcontract SCUMWalkers is Initia...\n      PUSH A217FDDF\t\t\tcontract SCUMWalkers is Initia...\n      EQ \t\t\tcontract SCUMWalkers is Initia...\n      PUSH [tag] 31\t\t\tcontract SCUMWalkers is Initia...\n      JUMPI \t\t\tcontract SCUMWalkers is Initia...\n      PUSH [tag] 1\t\t\tcontract SCUMWalkers is Initia...\n      JUMP \t\t\tcontract SCUMWalkers is Initia...\n    tag 45\t\t\tcontract SCUMWalkers is Initia...\n      JUMPDEST \t\t\tcontract SCUMWalkers is Initia...\n      DUP1 \t\t\tcontract SCUMWalkers is Initia...\n      PUSH 70A08231\t\t\tcontract SCUMWalkers is Initia...\n      EQ \t\t\tcontract SCUMWalkers is Initia...\n      PUSH [tag] 22\t\t\tcontract SCUMWalkers is Initia...\n      JUMPI \t\t\tcontract SCUMWalkers is Initia...\n      DUP1 \t\t\tcontract SCUMWalkers is Initia...\n      PUSH 715018A6\t\t\tcontract SCUMWalkers is Initia...\n      EQ \t\t\tcontract SCUMWalkers is Initia...\n      PUSH [tag] 23\t\t\tcontract SCUMWalkers is Initia...\n      JUMPI \t\t\tcontract SCUMWalkers is Initia...\n      DUP1 \t\t\tcontract SCUMWalkers is Initia...\n      PUSH 8456CB59\t\t\tcontract SCUMWalkers is Initia...\n      EQ \t\t\tcontract SCUMWalkers is Initia...\n      PUSH [tag] 24\t\t\tcontract SCUMWalkers is Initia...\n      JUMPI \t\t\tcontract SCUMWalkers is Initia...\n      DUP1 \t\t\tcontract SCUMWalkers is Initia...\n      PUSH 84B0196E\t\t\tcontract SCUMWalkers is Initia...\n      EQ \t\t\tcontract SCUMWalkers is Initia...\n      PUSH [tag] 25\t\t\tcontract SCUMWalkers is Initia...\n      JUMPI \t\t\tcontract SCUMWalkers is Initia...\n      DUP1 \t\t\tcontract SCUMWalkers is Initia...\n      PUSH 84D6E6E2\t\t\tcontract SCUMWalkers is Initia...\n      EQ \t\t\tcontract SCUMWalkers is Initia...\n      PUSH [tag] 26\t\t\tcontract SCUMWalkers is Initia...\n      JUMPI \t\t\tcontract SCUMWalkers is Initia...\n      PUSH [tag] 1\t\t\tcontract SCUMWalkers is Initia...\n      JUMP \t\t\tcontract SCUMWalkers is Initia...\n    tag 42\t\t\tcontract SCUMWalkers is Initia...\n      JUMPDEST \t\t\tcontract SCUMWalkers is Initia...\n      DUP1 \t\t\tcontract SCUMWalkers is Initia...\n      PUSH 36568ABE\t\t\tcontract SCUMWalkers is Initia...\n      GT \t\t\tcontract SCUMWalkers is Initia...\n      PUSH [tag] 46\t\t\tcontract SCUMWalkers is Initia...\n      JUMPI \t\t\tcontract SCUMWalkers is Initia...\n      DUP1 \t\t\tcontract SCUMWalkers is Initia...\n      PUSH 4F6CCCE7\t\t\tcontract SCUMWalkers is Initia...\n      GT \t\t\tcontract SCUMWalkers is Initia...\n      PUSH [tag] 47\t\t\tcontract SCUMWalkers is Initia...\n      JUMPI \t\t\tcontract SCUMWalkers is Initia...\n      DUP1 \t\t\tcontract SCUMWalkers is Initia...\n      PUSH 4F6CCCE7\t\t\tcontract SCUMWalkers is Initia...\n      EQ \t\t\tcontract SCUMWalkers is Initia...\n      PUSH [tag] 17\t\t\tcontract SCUMWalkers is Initia...\n      JUMPI \t\t\tcontract SCUMWalkers is Initia...\n      DUP1 \t\t\tcontract SCUMWalkers is Initia...\n      PUSH 52D1902D\t\t\tcontract SCUMWalkers is Initia...\n      EQ \t\t\tcontract SCUMWalkers is Initia...\n      PUSH [tag] 18\t\t\tcontract SCUMWalkers is Initia...\n      JUMPI \t\t\tcontract SCUMWalkers is Initia...\n      DUP1 \t\t\tcontract SCUMWalkers is Initia...\n      PUSH 55F804B3\t\t\tcontract SCUMWalkers is Initia...\n      EQ \t\t\tcontract SCUMWalkers is Initia...\n      PUSH [tag] 19\t\t\tcontract SCUMWalkers is Initia...\n      JUMPI \t\t\tcontract SCUMWalkers is Initia...\n      DUP1 \t\t\tcontract SCUMWalkers is Initia...\n      PUSH 5C975ABB\t\t\tcontract SCUMWalkers is Initia...\n      EQ \t\t\tcontract SCUMWalkers is Initia...\n      PUSH [tag] 20\t\t\tcontract SCUMWalkers is Initia...\n      JUMPI \t\t\tcontract SCUMWalkers is Initia...\n      DUP1 \t\t\tcontract SCUMWalkers is Initia...\n      PUSH 6352211E\t\t\tcontract SCUMWalkers is Initia...\n      EQ \t\t\tcontract SCUMWalkers is Initia...\n      PUSH [tag] 21\t\t\tcontract SCUMWalkers is Initia...\n      JUMPI \t\t\tcontract SCUMWalkers is Initia...\n      PUSH [tag] 1\t\t\tcontract SCUMWalkers is Initia...\n      JUMP \t\t\tcontract SCUMWalkers is Initia...\n    tag 47\t\t\tcontract SCUMWalkers is Initia...\n      JUMPDEST \t\t\tcontract SCUMWalkers is Initia...\n      DUP1 \t\t\tcontract SCUMWalkers is Initia...\n      PUSH 36568ABE\t\t\tcontract SCUMWalkers is Initia...\n      EQ \t\t\tcontract SCUMWalkers is Initia...\n      PUSH [tag] 12\t\t\tcontract SCUMWalkers is Initia...\n      JUMPI \t\t\tcontract SCUMWalkers is Initia...\n      DUP1 \t\t\tcontract SCUMWalkers is Initia...\n      PUSH 3F4BA83A\t\t\tcontract SCUMWalkers is Initia...\n      EQ \t\t\tcontract SCUMWalkers is Initia...\n      PUSH [tag] 13\t\t\tcontract SCUMWalkers is Initia...\n      JUMPI \t\t\tcontract SCUMWalkers is Initia...\n      DUP1 \t\t\tcontract SCUMWalkers is Initia...\n      PUSH 42842E0E\t\t\tcontract SCUMWalkers is Initia...\n      EQ \t\t\tcontract SCUMWalkers is Initia...\n      PUSH [tag] 14\t\t\tcontract SCUMWalkers is Initia...\n      JUMPI \t\t\tcontract SCUMWalkers is Initia...\n      DUP1 \t\t\tcontract SCUMWalkers is Initia...\n      PUSH 42966C68\t\t\tcontract SCUMWalkers is Initia...\n      EQ \t\t\tcontract SCUMWalkers is Initia...\n      PUSH [tag] 15\t\t\tcontract SCUMWalkers is Initia...\n      JUMPI \t\t\tcontract SCUMWalkers is Initia...\n      DUP1 \t\t\tcontract SCUMWalkers is Initia...\n      PUSH 4F1EF286\t\t\tcontract SCUMWalkers is Initia...\n      EQ \t\t\tcontract SCUMWalkers is Initia...\n      PUSH [tag] 16\t\t\tcontract SCUMWalkers is Initia...\n      JUMPI \t\t\tcontract SCUMWalkers is Initia...\n      PUSH [tag] 1\t\t\tcontract SCUMWalkers is Initia...\n      JUMP \t\t\tcontract SCUMWalkers is Initia...\n    tag 46\t\t\tcontract SCUMWalkers is Initia...\n      JUMPDEST \t\t\tcontract SCUMWalkers is Initia...\n      DUP1 \t\t\tcontract SCUMWalkers is Initia...\n      PUSH 23B872DD\t\t\tcontract SCUMWalkers is Initia...\n      GT \t\t\tcontract SCUMWalkers is Initia...\n      PUSH [tag] 48\t\t\tcontract SCUMWalkers is Initia...\n      JUMPI \t\t\tcontract SCUMWalkers is Initia...\n      DUP1 \t\t\tcontract SCUMWalkers is Initia...\n      PUSH 23B872DD\t\t\tcontract SCUMWalkers is Initia...\n      EQ \t\t\tcontract SCUMWalkers is Initia...\n      PUSH [tag] 7\t\t\tcontract SCUMWalkers is Initia...\n      JUMPI \t\t\tcontract SCUMWalkers is Initia...\n      DUP1 \t\t\tcontract SCUMWalkers is Initia...\n      PUSH 248A9CA3\t\t\tcontract SCUMWalkers is Initia...\n      EQ \t\t\tcontract SCUMWalkers is Initia...\n      PUSH [tag] 8\t\t\tcontract SCUMWalkers is Initia...\n      JUMPI \t\t\tcontract SCUMWalkers is Initia...\n      DUP1 \t\t\tcontract SCUMWalkers is Initia...\n      PUSH 2A55205A\t\t\tcontract SCUMWalkers is Initia...\n      EQ \t\t\tcontract SCUMWalkers is Initia...\n      PUSH [tag] 9\t\t\tcontract SCUMWalkers is Initia...\n      JUMPI \t\t\tcontract SCUMWalkers is Initia...\n      DUP1 \t\t\tcontract SCUMWalkers is Initia...\n      PUSH 2F2FF15D\t\t\tcontract SCUMWalkers is Initia...\n      EQ \t\t\tcontract SCUMWalkers is Initia...\n      PUSH [tag] 10\t\t\tcontract SCUMWalkers is Initia...\n      JUMPI \t\t\tcontract SCUMWalkers is Initia...\n      DUP1 \t\t\tcontract SCUMWalkers is Initia...\n      PUSH 2F745C59\t\t\tcontract SCUMWalkers is Initia...\n      EQ \t\t\tcontract SCUMWalkers is Initia...\n      PUSH [tag] 11\t\t\tcontract SCUMWalkers is Initia...\n      JUMPI \t\t\tcontract SCUMWalkers is Initia...\n      PUSH [tag] 1\t\t\tcontract SCUMWalkers is Initia...\n      JUMP \t\t\tcontract SCUMWalkers is Initia...\n    tag 48\t\t\tcontract SCUMWalkers is Initia...\n      JUMPDEST \t\t\tcontract SCUMWalkers is Initia...\n      DUP1 \t\t\tcontract SCUMWalkers is Initia...\n      PUSH 1FFC9A7\t\t\tcontract SCUMWalkers is Initia...\n      EQ \t\t\tcontract SCUMWalkers is Initia...\n      PUSH [tag] 2\t\t\tcontract SCUMWalkers is Initia...\n      JUMPI \t\t\tcontract SCUMWalkers is Initia...\n      DUP1 \t\t\tcontract SCUMWalkers is Initia...\n      PUSH 6FDDE03\t\t\tcontract SCUMWalkers is Initia...\n      EQ \t\t\tcontract SCUMWalkers is Initia...\n      PUSH [tag] 3\t\t\tcontract SCUMWalkers is Initia...\n      JUMPI \t\t\tcontract SCUMWalkers is Initia...\n      DUP1 \t\t\tcontract SCUMWalkers is Initia...\n      PUSH 81812FC\t\t\tcontract SCUMWalkers is Initia...\n      EQ \t\t\tcontract SCUMWalkers is Initia...\n      PUSH [tag] 4\t\t\tcontract SCUMWalkers is Initia...\n      JUMPI \t\t\tcontract SCUMWalkers is Initia...\n      DUP1 \t\t\tcontract SCUMWalkers is Initia...\n      PUSH 95EA7B3\t\t\tcontract SCUMWalkers is Initia...\n      EQ \t\t\tcontract SCUMWalkers is Initia...\n      PUSH [tag] 5\t\t\tcontract SCUMWalkers is Initia...\n      JUMPI \t\t\tcontract SCUMWalkers is Initia...\n      DUP1 \t\t\tcontract SCUMWalkers is Initia...\n      PUSH 18160DDD\t\t\tcontract SCUMWalkers is Initia...\n      EQ \t\t\tcontract SCUMWalkers is Initia...\n      PUSH [tag] 6\t\t\tcontract SCUMWalkers is Initia...\n      JUMPI \t\t\tcontract SCUMWalkers is Initia...\n    tag 1\t\t\tcontract SCUMWalkers is Initia...\n      JUMPDEST \t\t\tcontract SCUMWalkers is Initia...\n      PUSH 0\t\t\tcontract SCUMWalkers is Initia...\n      DUP1 \t\t\tcontract SCUMWalkers is Initia...\n      REVERT \t\t\tcontract SCUMWalkers is Initia...\n    tag 2\t\t\tfunction supportsInterface(byt...\n      JUMPDEST \t\t\tfunction supportsInterface(byt...\n      CALLVALUE \t\t\tfunction supportsInterface(byt...\n      DUP1 \t\t\tfunction supportsInterface(byt...\n      ISZERO \t\t\tfunction supportsInterface(byt...\n      PUSH [tag] 49\t\t\tfunction supportsInterface(byt...\n      JUMPI \t\t\tfunction supportsInterface(byt...\n      PUSH 0\t\t\tfunction supportsInterface(byt...\n      DUP1 \t\t\tfunction supportsInterface(byt...\n      REVERT \t\t\tfunction supportsInterface(byt...\n    tag 49\t\t\tfunction supportsInterface(byt...\n      JUMPDEST \t\t\tfunction supportsInterface(byt...\n      POP \t\t\tfunction supportsInterface(byt...\n      PUSH [tag] 50\t\t\tfunction supportsInterface(byt...\n      PUSH 4\t\t\tfunction supportsInterface(byt...\n      DUP1 \t\t\tfunction supportsInterface(byt...\n      CALLDATASIZE \t\t\tfunction supportsInterface(byt...\n      SUB \t\t\tfunction supportsInterface(byt...\n      DUP2 \t\t\tfunction supportsInterface(byt...\n      ADD \t\t\tfunction supportsInterface(byt...\n      SWAP1 \t\t\tfunction supportsInterface(byt...\n      PUSH [tag] 51\t\t\tfunction supportsInterface(byt...\n      SWAP2 \t\t\tfunction supportsInterface(byt...\n      SWAP1 \t\t\tfunction supportsInterface(byt...\n      PUSH [tag] 52\t\t\tfunction supportsInterface(byt...\n      JUMP \t\t\tfunction supportsInterface(byt...\n    tag 51\t\t\tfunction supportsInterface(byt...\n      JUMPDEST \t\t\tfunction supportsInterface(byt...\n      PUSH [tag] 53\t\t\tfunction supportsInterface(byt...\n      JUMP \t\t\tfunction supportsInterface(byt...\n    tag 50\t\t\tfunction supportsInterface(byt...\n      JUMPDEST \t\t\tfunction supportsInterface(byt...\n      PUSH 40\t\t\tfunction supportsInterface(byt...\n      MLOAD \t\t\tfunction supportsInterface(byt...\n      PUSH [tag] 54\t\t\tfunction supportsInterface(byt...\n      SWAP2 \t\t\tfunction supportsInterface(byt...\n      SWAP1 \t\t\tfunction supportsInterface(byt...\n      PUSH [tag] 55\t\t\tfunction supportsInterface(byt...\n      JUMP \t\t\tfunction supportsInterface(byt...\n    tag 54\t\t\tfunction supportsInterface(byt...\n      JUMPDEST \t\t\tfunction supportsInterface(byt...\n      PUSH 40\t\t\tfunction supportsInterface(byt...\n      MLOAD \t\t\tfunction supportsInterface(byt...\n      DUP1 \t\t\tfunction supportsInterface(byt...\n      SWAP2 \t\t\tfunction supportsInterface(byt...\n      SUB \t\t\tfunction supportsInterface(byt...\n      SWAP1 \t\t\tfunction supportsInterface(byt...\n      RETURN \t\t\tfunction supportsInterface(byt...\n    tag 3\t\t\tns (address) {\\n    // Add you...\n      JUMPDEST \t\t\tns (address) {\\n    // Add you...\n      CALLVALUE \t\t\tns (address) {\\n    // Add you...\n      DUP1 \t\t\tns (address) {\\n    // Add you...\n      ISZERO \t\t\tns (address) {\\n    // Add you...\n      PUSH [tag] 56\t\t\tns (address) {\\n    // Add you...\n      JUMPI \t\t\tns (address) {\\n    // Add you...\n      PUSH 0\t\t\tns (address) {\\n    // Add you...\n      DUP1 \t\t\tns (address) {\\n    // Add you...\n      REVERT \t\t\tns (address) {\\n    // Add you...\n    tag 56\t\t\tns (address) {\\n    // Add you...\n      JUMPDEST \t\t\tns (address) {\\n    // Add you...\n      POP \t\t\tns (address) {\\n    // Add you...\n      PUSH [tag] 57\t\t\tns (address) {\\n    // Add you...\n      PUSH [tag] 58\t\t\tns (address) {\\n    // Add you...\n      JUMP \t\t\tns (address) {\\n    // Add you...\n    tag 57\t\t\tns (address) {\\n    // Add you...\n      JUMPDEST \t\t\tns (address) {\\n    // Add you...\n      PUSH 40\t\t\tns (address) {\\n    // Add you...\n      MLOAD \t\t\tns (address) {\\n    // Add you...\n      PUSH [tag] 59\t\t\tns (address) {\\n    // Add you...\n      SWAP2 \t\t\tns (address) {\\n    // Add you...\n      SWAP1 \t\t\tns (address) {\\n    // Add you...\n      PUSH [tag] 60\t\t\tns (address) {\\n    // Add you...\n      JUMP \t\t\tns (address) {\\n    // Add you...\n    tag 59\t\t\tns (address) {\\n    // Add you...\n      JUMPDEST \t\t\tns (address) {\\n    // Add you...\n      PUSH 40\t\t\tns (address) {\\n    // Add you...\n      MLOAD \t\t\tns (address) {\\n    // Add you...\n      DUP1 \t\t\tns (address) {\\n    // Add you...\n      SWAP2 \t\t\tns (address) {\\n    // Add you...\n      SUB \t\t\tns (address) {\\n    // Add you...\n      SWAP1 \t\t\tns (address) {\\n    // Add you...\n      RETURN \t\t\tns (address) {\\n    // Add you...\n    tag 4\t\t\t  {\\n        return super.supp...\n      JUMPDEST \t\t\t  {\\n        return super.supp...\n      CALLVALUE \t\t\t  {\\n        return super.supp...\n      DUP1 \t\t\t  {\\n        return super.supp...\n      ISZERO \t\t\t  {\\n        return super.supp...\n      PUSH [tag] 61\t\t\t  {\\n        return super.supp...\n      JUMPI \t\t\t  {\\n        return super.supp...\n      PUSH 0\t\t\t  {\\n        return super.supp...\n      DUP1 \t\t\t  {\\n        return super.supp...\n      REVERT \t\t\t  {\\n        return super.supp...\n    tag 61\t\t\t  {\\n        return super.supp...\n      JUMPDEST \t\t\t  {\\n        return super.supp...\n      POP \t\t\t  {\\n        return super.supp...\n      PUSH [tag] 62\t\t\t  {\\n        return super.supp...\n      PUSH 4\t\t\t  {\\n        return super.supp...\n      DUP1 \t\t\t  {\\n        return super.supp...\n      CALLDATASIZE \t\t\t  {\\n        return super.supp...\n      SUB \t\t\t  {\\n        return super.supp...\n      DUP2 \t\t\t  {\\n        return super.supp...\n      ADD \t\t\t  {\\n        return super.supp...\n      SWAP1 \t\t\t  {\\n        return super.supp...\n      PUSH [tag] 63\t\t\t  {\\n        return super.supp...\n      SWAP2 \t\t\t  {\\n        return super.supp...\n      SWAP1 \t\t\t  {\\n        return super.supp...\n      PUSH [tag] 64\t\t\t  {\\n        return super.supp...\n      JUMP \t\t\t  {\\n        return super.supp...\n    tag 63\t\t\t  {\\n        return super.supp...\n      JUMPDEST \t\t\t  {\\n        return super.supp...\n      PUSH [tag] 65\t\t\t  {\\n        return super.supp...\n      JUMP \t\t\t  {\\n        return super.supp...\n    tag 62\t\t\t  {\\n        return super.supp...\n      JUMPDEST \t\t\t  {\\n        return super.supp...\n      PUSH 40\t\t\t  {\\n        return super.supp...\n      MLOAD \t\t\t  {\\n        return super.supp...\n      PUSH [tag] 66\t\t\t  {\\n        return super.supp...\n      SWAP2 \t\t\t  {\\n        return super.supp...\n      SWAP1 \t\t\t  {\\n        return super.supp...\n      PUSH [tag] 67\t\t\t  {\\n        return super.supp...\n      JUMP \t\t\t  {\\n        return super.supp...\n    tag 66\t\t\t  {\\n        return super.supp...\n      JUMPDEST \t\t\t  {\\n        return super.supp...\n      PUSH 40\t\t\t  {\\n        return super.supp...\n      MLOAD \t\t\t  {\\n        return super.supp...\n      DUP1 \t\t\t  {\\n        return super.supp...\n      SWAP2 \t\t\t  {\\n        return super.supp...\n      SUB \t\t\t  {\\n        return super.supp...\n      SWAP1 \t\t\t  {\\n        return super.supp...\n      RETURN \t\t\t  {\\n        return super.supp...\n    tag 5\t\t\t       override(AccessControlE...\n      JUMPDEST \t\t\t       override(AccessControlE...\n      CALLVALUE \t\t\t       override(AccessControlE...\n      DUP1 \t\t\t       override(AccessControlE...\n      ISZERO \t\t\t       override(AccessControlE...\n      PUSH [tag] 68\t\t\t       override(AccessControlE...\n      JUMPI \t\t\t       override(AccessControlE...\n      PUSH 0\t\t\t       override(AccessControlE...\n      DUP1 \t\t\t       override(AccessControlE...\n      REVERT \t\t\t       override(AccessControlE...\n    tag 68\t\t\t       override(AccessControlE...\n      JUMPDEST \t\t\t       override(AccessControlE...\n      POP \t\t\t       override(AccessControlE...\n      PUSH [tag] 69\t\t\t       override(AccessControlE...\n      PUSH 4\t\t\t       override(AccessControlE...\n      DUP1 \t\t\t       override(AccessControlE...\n      CALLDATASIZE \t\t\t       override(AccessControlE...\n      SUB \t\t\t       override(AccessControlE...\n      DUP2 \t\t\t       override(AccessControlE...\n      ADD \t\t\t       override(AccessControlE...\n      SWAP1 \t\t\t       override(AccessControlE...\n      PUSH [tag] 70\t\t\t       override(AccessControlE...\n      SWAP2 \t\t\t       override(AccessControlE...\n      SWAP1 \t\t\t       override(AccessControlE...\n      PUSH [tag] 71\t\t\t       override(AccessControlE...\n      JUMP \t\t\t       override(AccessControlE...\n    tag 70\t\t\t       override(AccessControlE...\n      JUMPDEST \t\t\t       override(AccessControlE...\n      PUSH [tag] 72\t\t\t       override(AccessControlE...\n      JUMP \t\t\t       override(AccessControlE...\n    tag 69\t\t\t       override(AccessControlE...\n      JUMPDEST \t\t\t       override(AccessControlE...\n      STOP \t\t\t       override(AccessControlE...\n    tag 6\t\t\tnlyOwner {\\n        _pause();\\...\n      JUMPDEST \t\t\tnlyOwner {\\n        _pause();\\...\n      CALLVALUE \t\t\tnlyOwner {\\n        _pause();\\...\n      DUP1 \t\t\tnlyOwner {\\n        _pause();\\...\n      ISZERO \t\t\tnlyOwner {\\n        _pause();\\...\n      PUSH [tag] 73\t\t\tnlyOwner {\\n        _pause();\\...\n      JUMPI \t\t\tnlyOwner {\\n        _pause();\\...\n      PUSH 0\t\t\tnlyOwner {\\n        _pause();\\...\n      DUP1 \t\t\tnlyOwner {\\n        _pause();\\...\n      REVERT \t\t\tnlyOwner {\\n        _pause();\\...\n    tag 73\t\t\tnlyOwner {\\n        _pause();\\...\n      JUMPDEST \t\t\tnlyOwner {\\n        _pause();\\...\n      POP \t\t\tnlyOwner {\\n        _pause();\\...\n      PUSH [tag] 74\t\t\tnlyOwner {\\n        _pause();\\...\n      PUSH [tag] 75\t\t\tnlyOwner {\\n        _pause();\\...\n      JUMP \t\t\tnlyOwner {\\n        _pause();\\...\n    tag 74\t\t\tnlyOwner {\\n        _pause();\\...\n      JUMPDEST \t\t\tnlyOwner {\\n        _pause();\\...\n      PUSH 40\t\t\tnlyOwner {\\n        _pause();\\...\n      MLOAD \t\t\tnlyOwner {\\n        _pause();\\...\n      PUSH [tag] 76\t\t\tnlyOwner {\\n        _pause();\\...\n      SWAP2 \t\t\tnlyOwner {\\n        _pause();\\...\n      SWAP1 \t\t\tnlyOwner {\\n        _pause();\\...\n      PUSH [tag] 77\t\t\tnlyOwner {\\n        _pause();\\...\n      JUMP \t\t\tnlyOwner {\\n        _pause();\\...\n    tag 76\t\t\tnlyOwner {\\n        _pause();\\...\n      JUMPDEST \t\t\tnlyOwner {\\n        _pause();\\...\n      PUSH 40\t\t\tnlyOwner {\\n        _pause();\\...\n      MLOAD \t\t\tnlyOwner {\\n        _pause();\\...\n      DUP1 \t\t\tnlyOwner {\\n        _pause();\\...\n      SWAP2 \t\t\tnlyOwner {\\n        _pause();\\...\n      SUB \t\t\tnlyOwner {\\n        _pause();\\...\n      SWAP1 \t\t\tnlyOwner {\\n        _pause();\\...\n      RETURN \t\t\tnlyOwner {\\n        _pause();\\...\n    tag 7\t\t\t\n      JUMPDEST \t\t\t\n      CALLVALUE \t\t\t\n      DUP1 \t\t\t\n      ISZERO \t\t\t\n      PUSH [tag] 78\t\t\t\n      JUMPI \t\t\t\n      PUSH 0\t\t\t\n      DUP1 \t\t\t\n      REVERT \t\t\t\n    tag 78\t\t\t\n      JUMPDEST \t\t\t\n      POP \t\t\t\n      PUSH [tag] 79\t\t\t\n      PUSH 4\t\t\t\n      DUP1 \t\t\t\n      CALLDATASIZE \t\t\t\n      SUB \t\t\t\n      DUP2 \t\t\t\n      ADD \t\t\t\n      SWAP1 \t\t\t\n      PUSH [tag] 80\t\t\t\n      SWAP2 \t\t\t\n      SWAP1 \t\t\t\n      PUSH [tag] 81\t\t\t\n      JUMP \t\t\t\n    tag 80\t\t\t\n      JUMPDEST \t\t\t\n      PUSH [tag] 82\t\t\t\n      JUMP \t\t\t\n    tag 79\t\t\t\n      JUMPDEST \t\t\t\n      STOP \t\t\t\n    tag 8\t\t\tdeable)\\n        returns (bool...\n      JUMPDEST \t\t\tdeable)\\n        returns (bool...\n      CALLVALUE \t\t\tdeable)\\n        returns (bool...\n      DUP1 \t\t\tdeable)\\n        returns (bool...\n      ISZERO \t\t\tdeable)\\n        returns (bool...\n      PUSH [tag] 83\t\t\tdeable)\\n        returns (bool...\n      JUMPI \t\t\tdeable)\\n        returns (bool...\n      PUSH 0\t\t\tdeable)\\n        returns (bool...\n      DUP1 \t\t\tdeable)\\n        returns (bool...\n      REVERT \t\t\tdeable)\\n        returns (bool...\n    tag 83\t\t\tdeable)\\n        returns (bool...\n      JUMPDEST \t\t\tdeable)\\n        returns (bool...\n      POP \t\t\tdeable)\\n        returns (bool...\n      PUSH [tag] 84\t\t\tdeable)\\n        returns (bool...\n      PUSH 4\t\t\tdeable)\\n        returns (bool...\n      DUP1 \t\t\tdeable)\\n        returns (bool...\n      CALLDATASIZE \t\t\tdeable)\\n        returns (bool...\n      SUB \t\t\tdeable)\\n        returns (bool...\n      DUP2 \t\t\tdeable)\\n        returns (bool...\n      ADD \t\t\tdeable)\\n        returns (bool...\n      SWAP1 \t\t\tdeable)\\n        returns (bool...\n      PUSH [tag] 85\t\t\tdeable)\\n        returns (bool...\n      SWAP2 \t\t\tdeable)\\n        returns (bool...\n      SWAP1 \t\t\tdeable)\\n        returns (bool...\n      PUSH [tag] 86\t\t\tdeable)\\n        returns (bool...\n      JUMP \t\t\tdeable)\\n        returns (bool...\n    tag 85\t\t\tdeable)\\n        returns (bool...\n      JUMPDEST \t\t\tdeable)\\n        returns (bool...\n      PUSH [tag] 87\t\t\tdeable)\\n        returns (bool...\n      JUMP \t\t\tdeable)\\n        returns (bool...\n    tag 84\t\t\tdeable)\\n        returns (bool...\n      JUMPDEST \t\t\tdeable)\\n        returns (bool...\n      PUSH 40\t\t\tdeable)\\n        returns (bool...\n      MLOAD \t\t\tdeable)\\n        returns (bool...\n      PUSH [tag] 88\t\t\tdeable)\\n        returns (bool...\n      SWAP2 \t\t\tdeable)\\n        returns (bool...\n      SWAP1 \t\t\tdeable)\\n        returns (bool...\n      PUSH [tag] 89\t\t\tdeable)\\n        returns (bool...\n      JUMP \t\t\tdeable)\\n        returns (bool...\n    tag 88\t\t\tdeable)\\n        returns (bool...\n      JUMPDEST \t\t\tdeable)\\n        returns (bool...\n      PUSH 40\t\t\tdeable)\\n        returns (bool...\n      MLOAD \t\t\tdeable)\\n        returns (bool...\n      DUP1 \t\t\tdeable)\\n        returns (bool...\n      SWAP2 \t\t\tdeable)\\n        returns (bool...\n      SUB \t\t\tdeable)\\n        returns (bool...\n      SWAP1 \t\t\tdeable)\\n        returns (bool...\n      RETURN \t\t\tdeable)\\n        returns (bool...\n    tag 9\t\t\t\\n    function safeMint(addres...\n      JUMPDEST \t\t\t\\n    function safeMint(addres...\n      CALLVALUE \t\t\t\\n    function safeMint(addres...\n      DUP1 \t\t\t\\n    function safeMint(addres...\n      ISZERO \t\t\t\\n    function safeMint(addres...\n      PUSH [tag] 90\t\t\t\\n    function safeMint(addres...\n      JUMPI \t\t\t\\n    function safeMint(addres...\n      PUSH 0\t\t\t\\n    function safeMint(addres...\n      DUP1 \t\t\t\\n    function safeMint(addres...\n      REVERT \t\t\t\\n    function safeMint(addres...\n    tag 90\t\t\t\\n    function safeMint(addres...\n      JUMPDEST \t\t\t\\n    function safeMint(addres...\n      POP \t\t\t\\n    function safeMint(addres...\n      PUSH [tag] 91\t\t\t\\n    function safeMint(addres...\n      PUSH 4\t\t\t\\n    function safeMint(addres...\n      DUP1 \t\t\t\\n    function safeMint(addres...\n      CALLDATASIZE \t\t\t\\n    function safeMint(addres...\n      SUB \t\t\t\\n    function safeMint(addres...\n      DUP2 \t\t\t\\n    function safeMint(addres...\n      ADD \t\t\t\\n    function safeMint(addres...\n      SWAP1 \t\t\t\\n    function safeMint(addres...\n      PUSH [tag] 92\t\t\t\\n    function safeMint(addres...\n      SWAP2 \t\t\t\\n    function safeMint(addres...\n      SWAP1 \t\t\t\\n    function safeMint(addres...\n      PUSH [tag] 93\t\t\t\\n    function safeMint(addres...\n      JUMP \t\t\t\\n    function safeMint(addres...\n    tag 92\t\t\t\\n    function safeMint(addres...\n      JUMPDEST \t\t\t\\n    function safeMint(addres...\n      PUSH [tag] 94\t\t\t\\n    function safeMint(addres...\n      JUMP \t\t\t\\n    function safeMint(addres...\n    tag 91\t\t\t\\n    function safeMint(addres...\n      JUMPDEST \t\t\t\\n    function safeMint(addres...\n      PUSH 40\t\t\t\\n    function safeMint(addres...\n      MLOAD \t\t\t\\n    function safeMint(addres...\n      PUSH [tag] 95\t\t\t\\n    function safeMint(addres...\n      SWAP3 \t\t\t\\n    function safeMint(addres...\n      SWAP2 \t\t\t\\n    function safeMint(addres...\n      SWAP1 \t\t\t\\n    function safeMint(addres...\n      PUSH [tag] 96\t\t\t\\n    function safeMint(addres...\n      JUMP \t\t\t\\n    function safeMint(addres...\n    tag 95\t\t\t\\n    function safeMint(addres...\n      JUMPDEST \t\t\t\\n    function safeMint(addres...\n      PUSH 40\t\t\t\\n    function safeMint(addres...\n      MLOAD \t\t\t\\n    function safeMint(addres...\n      DUP1 \t\t\t\\n    function safeMint(addres...\n      SWAP2 \t\t\t\\n    function safeMint(addres...\n      SUB \t\t\t\\n    function safeMint(addres...\n      SWAP1 \t\t\t\\n    function safeMint(addres...\n      RETURN \t\t\t\\n    function safeMint(addres...\n    tag 10\t\t\t\n      JUMPDEST \t\t\t\n      CALLVALUE \t\t\t\n      DUP1 \t\t\t\n      ISZERO \t\t\t\n      PUSH [tag] 97\t\t\t\n      JUMPI \t\t\t\n      PUSH 0\t\t\t\n      DUP1 \t\t\t\n      REVERT \t\t\t\n    tag 97\t\t\t\n      JUMPDEST \t\t\t\n      POP \t\t\t\n      PUSH [tag] 98\t\t\t\n      PUSH 4\t\t\t\n      DUP1 \t\t\t\n      CALLDATASIZE \t\t\t\n      SUB \t\t\t\n      DUP2 \t\t\t\n      ADD \t\t\t\n      SWAP1 \t\t\t\n      PUSH [tag] 99\t\t\t\n      SWAP2 \t\t\t\n      SWAP1 \t\t\t\n      PUSH [tag] 100\t\t\t\n      JUMP \t\t\t\n    tag 99\t\t\t\n      JUMPDEST \t\t\t\n      PUSH [tag] 101\t\t\t\n      JUMP \t\t\t\n    tag 98\t\t\t\n      JUMPDEST \t\t\t\n      STOP \t\t\t\n    tag 11\t\t\t       _disableInitializers();...\n      JUMPDEST \t\t\t       _disableInitializers();...\n      CALLVALUE \t\t\t       _disableInitializers();...\n      DUP1 \t\t\t       _disableInitializers();...\n      ISZERO \t\t\t       _disableInitializers();...\n      PUSH [tag] 102\t\t\t       _disableInitializers();...\n      JUMPI \t\t\t       _disableInitializers();...\n      PUSH 0\t\t\t       _disableInitializers();...\n      DUP1 \t\t\t       _disableInitializers();...\n      REVERT \t\t\t       _disableInitializers();...\n    tag 102\t\t\t       _disableInitializers();...\n      JUMPDEST \t\t\t       _disableInitializers();...\n      POP \t\t\t       _disableInitializers();...\n      PUSH [tag] 103\t\t\t       _disableInitializers();...\n      PUSH 4\t\t\t       _disableInitializers();...\n      DUP1 \t\t\t       _disableInitializers();...\n      CALLDATASIZE \t\t\t       _disableInitializers();...\n      SUB \t\t\t       _disableInitializers();...\n      DUP2 \t\t\t       _disableInitializers();...\n      ADD \t\t\t       _disableInitializers();...\n      SWAP1 \t\t\t       _disableInitializers();...\n      PUSH [tag] 104\t\t\t       _disableInitializers();...\n      SWAP2 \t\t\t       _disableInitializers();...\n      SWAP1 \t\t\t       _disableInitializers();...\n      PUSH [tag] 71\t\t\t       _disableInitializers();...\n      JUMP \t\t\t       _disableInitializers();...\n    tag 104\t\t\t       _disableInitializers();...\n      JUMPDEST \t\t\t       _disableInitializers();...\n      PUSH [tag] 105\t\t\t       _disableInitializers();...\n      JUMP \t\t\t       _disableInitializers();...\n    tag 103\t\t\t       _disableInitializers();...\n      JUMPDEST \t\t\t       _disableInitializers();...\n      PUSH 40\t\t\t       _disableInitializers();...\n      MLOAD \t\t\t       _disableInitializers();...\n      PUSH [tag] 106\t\t\t       _disableInitializers();...\n      SWAP2 \t\t\t       _disableInitializers();...\n      SWAP1 \t\t\t       _disableInitializers();...\n      PUSH [tag] 77\t\t\t       _disableInitializers();...\n      JUMP \t\t\t       _disableInitializers();...\n    tag 106\t\t\t       _disableInitializers();...\n      JUMPDEST \t\t\t       _disableInitializers();...\n      PUSH 40\t\t\t       _disableInitializers();...\n      MLOAD \t\t\t       _disableInitializers();...\n      DUP1 \t\t\t       _disableInitializers();...\n      SWAP2 \t\t\t       _disableInitializers();...\n      SUB \t\t\t       _disableInitializers();...\n      SWAP1 \t\t\t       _disableInitializers();...\n      RETURN \t\t\t       _disableInitializers();...\n    tag 12\t\t\t\n      JUMPDEST \t\t\t\n      CALLVALUE \t\t\t\n      DUP1 \t\t\t\n      ISZERO \t\t\t\n      PUSH [tag] 107\t\t\t\n      JUMPI \t\t\t\n      PUSH 0\t\t\t\n      DUP1 \t\t\t\n      REVERT \t\t\t\n    tag 107\t\t\t\n      JUMPDEST \t\t\t\n      POP \t\t\t\n      PUSH [tag] 108\t\t\t\n      PUSH 4\t\t\t\n      DUP1 \t\t\t\n      CALLDATASIZE \t\t\t\n      SUB \t\t\t\n      DUP2 \t\t\t\n      ADD \t\t\t\n      SWAP1 \t\t\t\n      PUSH [tag] 109\t\t\t\n      SWAP2 \t\t\t\n      SWAP1 \t\t\t\n      PUSH [tag] 100\t\t\t\n      JUMP \t\t\t\n    tag 109\t\t\t\n      JUMPDEST \t\t\t\n      PUSH [tag] 110\t\t\t\n      JUMP \t\t\t\n    tag 108\t\t\t\n      JUMPDEST \t\t\t\n      STOP \t\t\t\n    tag 13\t\t\tfunction unpause() public only...\n      JUMPDEST \t\t\tfunction unpause() public only...\n      CALLVALUE \t\t\tfunction unpause() public only...\n      DUP1 \t\t\tfunction unpause() public only...\n      ISZERO \t\t\tfunction unpause() public only...\n      PUSH [tag] 111\t\t\tfunction unpause() public only...\n      JUMPI \t\t\tfunction unpause() public only...\n      PUSH 0\t\t\tfunction unpause() public only...\n      DUP1 \t\t\tfunction unpause() public only...\n      REVERT \t\t\tfunction unpause() public only...\n    tag 111\t\t\tfunction unpause() public only...\n      JUMPDEST \t\t\tfunction unpause() public only...\n      POP \t\t\tfunction unpause() public only...\n      PUSH [tag] 112\t\t\tfunction unpause() public only...\n      PUSH [tag] 113\t\t\tfunction unpause() public only...\n      JUMP \t\t\tfunction unpause() public only...\n    tag 112\t\t\tfunction unpause() public only...\n      JUMPDEST \t\t\tfunction unpause() public only...\n      STOP \t\t\tfunction unpause() public only...\n    tag 14\t\t\t\n      JUMPDEST \t\t\t\n      CALLVALUE \t\t\t\n      DUP1 \t\t\t\n      ISZERO \t\t\t\n      PUSH [tag] 114\t\t\t\n      JUMPI \t\t\t\n      PUSH 0\t\t\t\n      DUP1 \t\t\t\n      REVERT \t\t\t\n    tag 114\t\t\t\n      JUMPDEST \t\t\t\n      POP \t\t\t\n      PUSH [tag] 115\t\t\t\n      PUSH 4\t\t\t\n      DUP1 \t\t\t\n      CALLDATASIZE \t\t\t\n      SUB \t\t\t\n      DUP2 \t\t\t\n      ADD \t\t\t\n      SWAP1 \t\t\t\n      PUSH [tag] 116\t\t\t\n      SWAP2 \t\t\t\n      SWAP1 \t\t\t\n      PUSH [tag] 81\t\t\t\n      JUMP \t\t\t\n    tag 116\t\t\t\n      JUMPDEST \t\t\t\n      PUSH [tag] 117\t\t\t\n      JUMP \t\t\t\n    tag 115\t\t\t\n      JUMPDEST \t\t\t\n      STOP \t\t\t\n    tag 15\t\t\tnsions/ERC721EnumerableUpgrade...\n      JUMPDEST \t\t\tnsions/ERC721EnumerableUpgrade...\n      CALLVALUE \t\t\tnsions/ERC721EnumerableUpgrade...\n      DUP1 \t\t\tnsions/ERC721EnumerableUpgrade...\n      ISZERO \t\t\tnsions/ERC721EnumerableUpgrade...\n      PUSH [tag] 118\t\t\tnsions/ERC721EnumerableUpgrade...\n      JUMPI \t\t\tnsions/ERC721EnumerableUpgrade...\n      PUSH 0\t\t\tnsions/ERC721EnumerableUpgrade...\n      DUP1 \t\t\tnsions/ERC721EnumerableUpgrade...\n      REVERT \t\t\tnsions/ERC721EnumerableUpgrade...\n    tag 118\t\t\tnsions/ERC721EnumerableUpgrade...\n      JUMPDEST \t\t\tnsions/ERC721EnumerableUpgrade...\n      POP \t\t\tnsions/ERC721EnumerableUpgrade...\n      PUSH [tag] 119\t\t\tnsions/ERC721EnumerableUpgrade...\n      PUSH 4\t\t\tnsions/ERC721EnumerableUpgrade...\n      DUP1 \t\t\tnsions/ERC721EnumerableUpgrade...\n      CALLDATASIZE \t\t\tnsions/ERC721EnumerableUpgrade...\n      SUB \t\t\tnsions/ERC721EnumerableUpgrade...\n      DUP2 \t\t\tnsions/ERC721EnumerableUpgrade...\n      ADD \t\t\tnsions/ERC721EnumerableUpgrade...\n      SWAP1 \t\t\tnsions/ERC721EnumerableUpgrade...\n      PUSH [tag] 120\t\t\tnsions/ERC721EnumerableUpgrade...\n      SWAP2 \t\t\tnsions/ERC721EnumerableUpgrade...\n      SWAP1 \t\t\tnsions/ERC721EnumerableUpgrade...\n      PUSH [tag] 64\t\t\tnsions/ERC721EnumerableUpgrade...\n      JUMP \t\t\tnsions/ERC721EnumerableUpgrade...\n    tag 120\t\t\tnsions/ERC721EnumerableUpgrade...\n      JUMPDEST \t\t\tnsions/ERC721EnumerableUpgrade...\n      PUSH [tag] 121\t\t\tnsions/ERC721EnumerableUpgrade...\n      JUMP \t\t\tnsions/ERC721EnumerableUpgrade...\n    tag 119\t\t\tnsions/ERC721EnumerableUpgrade...\n      JUMPDEST \t\t\tnsions/ERC721EnumerableUpgrade...\n      STOP \t\t\tnsions/ERC721EnumerableUpgrade...\n    tag 16\t\t\t   {\\n        super._increaseB...\n      JUMPDEST \t\t\t   {\\n        super._increaseB...\n      PUSH [tag] 122\t\t\t   {\\n        super._increaseB...\n      PUSH 4\t\t\t   {\\n        super._increaseB...\n      DUP1 \t\t\t   {\\n        super._increaseB...\n      CALLDATASIZE \t\t\t   {\\n        super._increaseB...\n      SUB \t\t\t   {\\n        super._increaseB...\n      DUP2 \t\t\t   {\\n        super._increaseB...\n      ADD \t\t\t   {\\n        super._increaseB...\n      SWAP1 \t\t\t   {\\n        super._increaseB...\n      PUSH [tag] 123\t\t\t   {\\n        super._increaseB...\n      SWAP2 \t\t\t   {\\n        super._increaseB...\n      SWAP1 \t\t\t   {\\n        super._increaseB...\n      PUSH [tag] 124\t\t\t   {\\n        super._increaseB...\n      JUMP \t\t\t   {\\n        super._increaseB...\n    tag 123\t\t\t   {\\n        super._increaseB...\n      JUMPDEST \t\t\t   {\\n        super._increaseB...\n      PUSH [tag] 125\t\t\t   {\\n        super._increaseB...\n      JUMP \t\t\t   {\\n        super._increaseB...\n    tag 122\t\t\t   {\\n        super._increaseB...\n      JUMPDEST \t\t\t   {\\n        super._increaseB...\n      STOP \t\t\t   {\\n        super._increaseB...\n    tag 17\t\t\tc onlyOwner {\\n        uint256...\n      JUMPDEST \t\t\tc onlyOwner {\\n        uint256...\n      CALLVALUE \t\t\tc onlyOwner {\\n        uint256...\n      DUP1 \t\t\tc onlyOwner {\\n        uint256...\n      ISZERO \t\t\tc onlyOwner {\\n        uint256...\n      PUSH [tag] 126\t\t\tc onlyOwner {\\n        uint256...\n      JUMPI \t\t\tc onlyOwner {\\n        uint256...\n      PUSH 0\t\t\tc onlyOwner {\\n        uint256...\n      DUP1 \t\t\tc onlyOwner {\\n        uint256...\n      REVERT \t\t\tc onlyOwner {\\n        uint256...\n    tag 126\t\t\tc onlyOwner {\\n        uint256...\n      JUMPDEST \t\t\tc onlyOwner {\\n        uint256...\n      POP \t\t\tc onlyOwner {\\n        uint256...\n      PUSH [tag] 127\t\t\tc onlyOwner {\\n        uint256...\n      PUSH 4\t\t\tc onlyOwner {\\n        uint256...\n      DUP1 \t\t\tc onlyOwner {\\n        uint256...\n      CALLDATASIZE \t\t\tc onlyOwner {\\n        uint256...\n      SUB \t\t\tc onlyOwner {\\n        uint256...\n      DUP2 \t\t\tc onlyOwner {\\n        uint256...\n      ADD \t\t\tc onlyOwner {\\n        uint256...\n      SWAP1 \t\t\tc onlyOwner {\\n        uint256...\n      PUSH [tag] 128\t\t\tc onlyOwner {\\n        uint256...\n      SWAP2 \t\t\tc onlyOwner {\\n        uint256...\n      SWAP1 \t\t\tc onlyOwner {\\n        uint256...\n      PUSH [tag] 64\t\t\tc onlyOwner {\\n        uint256...\n      JUMP \t\t\tc onlyOwner {\\n        uint256...\n    tag 128\t\t\tc onlyOwner {\\n        uint256...\n      JUMPDEST \t\t\tc onlyOwner {\\n        uint256...\n      PUSH [tag] 129\t\t\tc onlyOwner {\\n        uint256...\n      JUMP \t\t\tc onlyOwner {\\n        uint256...\n    tag 127\t\t\tc onlyOwner {\\n        uint256...\n      JUMPDEST \t\t\tc onlyOwner {\\n        uint256...\n      PUSH 40\t\t\tc onlyOwner {\\n        uint256...\n      MLOAD \t\t\tc onlyOwner {\\n        uint256...\n      PUSH [tag] 130\t\t\tc onlyOwner {\\n        uint256...\n      SWAP2 \t\t\tc onlyOwner {\\n        uint256...\n      SWAP1 \t\t\tc onlyOwner {\\n        uint256...\n      PUSH [tag] 77\t\t\tc onlyOwner {\\n        uint256...\n      JUMP \t\t\tc onlyOwner {\\n        uint256...\n    tag 130\t\t\tc onlyOwner {\\n        uint256...\n      JUMPDEST \t\t\tc onlyOwner {\\n        uint256...\n      PUSH 40\t\t\tc onlyOwner {\\n        uint256...\n      MLOAD \t\t\tc onlyOwner {\\n        uint256...\n      DUP1 \t\t\tc onlyOwner {\\n        uint256...\n      SWAP2 \t\t\tc onlyOwner {\\n        uint256...\n      SUB \t\t\tc onlyOwner {\\n        uint256...\n      SWAP1 \t\t\tc onlyOwner {\\n        uint256...\n      RETURN \t\t\tc onlyOwner {\\n        uint256...\n    tag 18\t\t\ted by Solidity.\\n\\n    functio...\n      JUMPDEST \t\t\ted by Solidity.\\n\\n    functio...\n      CALLVALUE \t\t\ted by Solidity.\\n\\n    functio...\n      DUP1 \t\t\ted by Solidity.\\n\\n    functio...\n      ISZERO \t\t\ted by Solidity.\\n\\n    functio...\n      PUSH [tag] 131\t\t\ted by Solidity.\\n\\n    functio...\n      JUMPI \t\t\ted by Solidity.\\n\\n    functio...\n      PUSH 0\t\t\ted by Solidity.\\n\\n    functio...\n      DUP1 \t\t\ted by Solidity.\\n\\n    functio...\n      REVERT \t\t\ted by Solidity.\\n\\n    functio...\n    tag 131\t\t\ted by Solidity.\\n\\n    functio...\n      JUMPDEST \t\t\ted by Solidity.\\n\\n    functio...\n      POP \t\t\ted by Solidity.\\n\\n    functio...\n      PUSH [tag] 132\t\t\ted by Solidity.\\n\\n    functio...\n      PUSH [tag] 133\t\t\ted by Solidity.\\n\\n    functio...\n      JUMP \t\t\ted by Solidity.\\n\\n    functio...\n    tag 132\t\t\ted by Solidity.\\n\\n    functio...\n      JUMPDEST \t\t\ted by Solidity.\\n\\n    functio...\n      PUSH 40\t\t\ted by Solidity.\\n\\n    functio...\n      MLOAD \t\t\ted by Solidity.\\n\\n    functio...\n      PUSH [tag] 134\t\t\ted by Solidity.\\n\\n    functio...\n      SWAP2 \t\t\ted by Solidity.\\n\\n    functio...\n      SWAP1 \t\t\ted by Solidity.\\n\\n    functio...\n      PUSH [tag] 89\t\t\ted by Solidity.\\n\\n    functio...\n      JUMP \t\t\ted by Solidity.\\n\\n    functio...\n    tag 134\t\t\ted by Solidity.\\n\\n    functio...\n      JUMPDEST \t\t\ted by Solidity.\\n\\n    functio...\n      PUSH 40\t\t\ted by Solidity.\\n\\n    functio...\n      MLOAD \t\t\ted by Solidity.\\n\\n    functio...\n      DUP1 \t\t\ted by Solidity.\\n\\n    functio...\n      SWAP2 \t\t\ted by Solidity.\\n\\n    functio...\n      SUB \t\t\ted by Solidity.\\n\\n    functio...\n      SWAP1 \t\t\ted by Solidity.\\n\\n    functio...\n      RETURN \t\t\ted by Solidity.\\n\\n    functio...\n    tag 19\t\t\tfunction setBaseURI(string mem...\n      JUMPDEST \t\t\tfunction setBaseURI(string mem...\n      CALLVALUE \t\t\tfunction setBaseURI(string mem...\n      DUP1 \t\t\tfunction setBaseURI(string mem...\n      ISZERO \t\t\tfunction setBaseURI(string mem...\n      PUSH [tag] 135\t\t\tfunction setBaseURI(string mem...\n      JUMPI \t\t\tfunction setBaseURI(string mem...\n      PUSH 0\t\t\tfunction setBaseURI(string mem...\n      DUP1 \t\t\tfunction setBaseURI(string mem...\n      REVERT \t\t\tfunction setBaseURI(string mem...\n    tag 135\t\t\tfunction setBaseURI(string mem...\n      JUMPDEST \t\t\tfunction setBaseURI(string mem...\n      POP \t\t\tfunction setBaseURI(string mem...\n      PUSH [tag] 136\t\t\tfunction setBaseURI(string mem...\n      PUSH 4\t\t\tfunction setBaseURI(string mem...\n      DUP1 \t\t\tfunction setBaseURI(string mem...\n      CALLDATASIZE \t\t\tfunction setBaseURI(string mem...\n      SUB \t\t\tfunction setBaseURI(string mem...\n      DUP2 \t\t\tfunction setBaseURI(string mem...\n      ADD \t\t\tfunction setBaseURI(string mem...\n      SWAP1 \t\t\tfunction setBaseURI(string mem...\n      PUSH [tag] 137\t\t\tfunction setBaseURI(string mem...\n      SWAP2 \t\t\tfunction setBaseURI(string mem...\n      SWAP1 \t\t\tfunction setBaseURI(string mem...\n      PUSH [tag] 138\t\t\tfunction setBaseURI(string mem...\n      JUMP \t\t\tfunction setBaseURI(string mem...\n    tag 137\t\t\tfunction setBaseURI(string mem...\n      JUMPDEST \t\t\tfunction setBaseURI(string mem...\n      PUSH [tag] 139\t\t\tfunction setBaseURI(string mem...\n      JUMP \t\t\tfunction setBaseURI(string mem...\n    tag 136\t\t\tfunction setBaseURI(string mem...\n      JUMPDEST \t\t\tfunction setBaseURI(string mem...\n      STOP \t\t\tfunction setBaseURI(string mem...\n    tag 20\t\t\tion initialize(address initial...\n      JUMPDEST \t\t\tion initialize(address initial...\n      CALLVALUE \t\t\tion initialize(address initial...\n      DUP1 \t\t\tion initialize(address initial...\n      ISZERO \t\t\tion initialize(address initial...\n      PUSH [tag] 140\t\t\tion initialize(address initial...\n      JUMPI \t\t\tion initialize(address initial...\n      PUSH 0\t\t\tion initialize(address initial...\n      DUP1 \t\t\tion initialize(address initial...\n      REVERT \t\t\tion initialize(address initial...\n    tag 140\t\t\tion initialize(address initial...\n      JUMPDEST \t\t\tion initialize(address initial...\n      POP \t\t\tion initialize(address initial...\n      PUSH [tag] 141\t\t\tion initialize(address initial...\n      PUSH [tag] 142\t\t\tion initialize(address initial...\n      JUMP \t\t\tion initialize(address initial...\n    tag 141\t\t\tion initialize(address initial...\n      JUMPDEST \t\t\tion initialize(address initial...\n      PUSH 40\t\t\tion initialize(address initial...\n      MLOAD \t\t\tion initialize(address initial...\n      PUSH [tag] 143\t\t\tion initialize(address initial...\n      SWAP2 \t\t\tion initialize(address initial...\n      SWAP1 \t\t\tion initialize(address initial...\n      PUSH [tag] 55\t\t\tion initialize(address initial...\n      JUMP \t\t\tion initialize(address initial...\n    tag 143\t\t\tion initialize(address initial...\n      JUMPDEST \t\t\tion initialize(address initial...\n      PUSH 40\t\t\tion initialize(address initial...\n      MLOAD \t\t\tion initialize(address initial...\n      DUP1 \t\t\tion initialize(address initial...\n      SWAP2 \t\t\tion initialize(address initial...\n      SUB \t\t\tion initialize(address initial...\n      SWAP1 \t\t\tion initialize(address initial...\n      RETURN \t\t\tion initialize(address initial...\n    tag 21\t\t\tfeMint(to, tokenId);\\n        ...\n      JUMPDEST \t\t\tfeMint(to, tokenId);\\n        ...\n      CALLVALUE \t\t\tfeMint(to, tokenId);\\n        ...\n      DUP1 \t\t\tfeMint(to, tokenId);\\n        ...\n      ISZERO \t\t\tfeMint(to, tokenId);\\n        ...\n      PUSH [tag] 144\t\t\tfeMint(to, tokenId);\\n        ...\n      JUMPI \t\t\tfeMint(to, tokenId);\\n        ...\n      PUSH 0\t\t\tfeMint(to, tokenId);\\n        ...\n      DUP1 \t\t\tfeMint(to, tokenId);\\n        ...\n      REVERT \t\t\tfeMint(to, tokenId);\\n        ...\n    tag 144\t\t\tfeMint(to, tokenId);\\n        ...\n      JUMPDEST \t\t\tfeMint(to, tokenId);\\n        ...\n      POP \t\t\tfeMint(to, tokenId);\\n        ...\n      PUSH [tag] 145\t\t\tfeMint(to, tokenId);\\n        ...\n      PUSH 4\t\t\tfeMint(to, tokenId);\\n        ...\n      DUP1 \t\t\tfeMint(to, tokenId);\\n        ...\n      CALLDATASIZE \t\t\tfeMint(to, tokenId);\\n        ...\n      SUB \t\t\tfeMint(to, tokenId);\\n        ...\n      DUP2 \t\t\tfeMint(to, tokenId);\\n        ...\n      ADD \t\t\tfeMint(to, tokenId);\\n        ...\n      SWAP1 \t\t\tfeMint(to, tokenId);\\n        ...\n      PUSH [tag] 146\t\t\tfeMint(to, tokenId);\\n        ...\n      SWAP2 \t\t\tfeMint(to, tokenId);\\n        ...\n      SWAP1 \t\t\tfeMint(to, tokenId);\\n        ...\n      PUSH [tag] 64\t\t\tfeMint(to, tokenId);\\n        ...\n      JUMP \t\t\tfeMint(to, tokenId);\\n        ...\n    tag 146\t\t\tfeMint(to, tokenId);\\n        ...\n      JUMPDEST \t\t\tfeMint(to, tokenId);\\n        ...\n      PUSH [tag] 147\t\t\tfeMint(to, tokenId);\\n        ...\n      JUMP \t\t\tfeMint(to, tokenId);\\n        ...\n    tag 145\t\t\tfeMint(to, tokenId);\\n        ...\n      JUMPDEST \t\t\tfeMint(to, tokenId);\\n        ...\n      PUSH 40\t\t\tfeMint(to, tokenId);\\n        ...\n      MLOAD \t\t\tfeMint(to, tokenId);\\n        ...\n      PUSH [tag] 148\t\t\tfeMint(to, tokenId);\\n        ...\n      SWAP2 \t\t\tfeMint(to, tokenId);\\n        ...\n      SWAP1 \t\t\tfeMint(to, tokenId);\\n        ...\n      PUSH [tag] 67\t\t\tfeMint(to, tokenId);\\n        ...\n      JUMP \t\t\tfeMint(to, tokenId);\\n        ...\n    tag 148\t\t\tfeMint(to, tokenId);\\n        ...\n      JUMPDEST \t\t\tfeMint(to, tokenId);\\n        ...\n      PUSH 40\t\t\tfeMint(to, tokenId);\\n        ...\n      MLOAD \t\t\tfeMint(to, tokenId);\\n        ...\n      DUP1 \t\t\tfeMint(to, tokenId);\\n        ...\n      SWAP2 \t\t\tfeMint(to, tokenId);\\n        ...\n      SUB \t\t\tfeMint(to, tokenId);\\n        ...\n      SWAP1 \t\t\tfeMint(to, tokenId);\\n        ...\n      RETURN \t\t\tfeMint(to, tokenId);\\n        ...\n    tag 22\t\t\tic onlyOwner {\\n        _pause...\n      JUMPDEST \t\t\tic onlyOwner {\\n        _pause...\n      CALLVALUE \t\t\tic onlyOwner {\\n        _pause...\n      DUP1 \t\t\tic onlyOwner {\\n        _pause...\n      ISZERO \t\t\tic onlyOwner {\\n        _pause...\n      PUSH [tag] 149\t\t\tic onlyOwner {\\n        _pause...\n      JUMPI \t\t\tic onlyOwner {\\n        _pause...\n      PUSH 0\t\t\tic onlyOwner {\\n        _pause...\n      DUP1 \t\t\tic onlyOwner {\\n        _pause...\n      REVERT \t\t\tic onlyOwner {\\n        _pause...\n    tag 149\t\t\tic onlyOwner {\\n        _pause...\n      JUMPDEST \t\t\tic onlyOwner {\\n        _pause...\n      POP \t\t\tic onlyOwner {\\n        _pause...\n      PUSH [tag] 150\t\t\tic onlyOwner {\\n        _pause...\n      PUSH 4\t\t\tic onlyOwner {\\n        _pause...\n      DUP1 \t\t\tic onlyOwner {\\n        _pause...\n      CALLDATASIZE \t\t\tic onlyOwner {\\n        _pause...\n      SUB \t\t\tic onlyOwner {\\n        _pause...\n      DUP2 \t\t\tic onlyOwner {\\n        _pause...\n      ADD \t\t\tic onlyOwner {\\n        _pause...\n      SWAP1 \t\t\tic onlyOwner {\\n        _pause...\n      PUSH [tag] 151\t\t\tic onlyOwner {\\n        _pause...\n      SWAP2 \t\t\tic onlyOwner {\\n        _pause...\n      SWAP1 \t\t\tic onlyOwner {\\n        _pause...\n      PUSH [tag] 152\t\t\tic onlyOwner {\\n        _pause...\n      JUMP \t\t\tic onlyOwner {\\n        _pause...\n    tag 151\t\t\tic onlyOwner {\\n        _pause...\n      JUMPDEST \t\t\tic onlyOwner {\\n        _pause...\n      PUSH [tag] 153\t\t\tic onlyOwner {\\n        _pause...\n      JUMP \t\t\tic onlyOwner {\\n        _pause...\n    tag 150\t\t\tic onlyOwner {\\n        _pause...\n      JUMPDEST \t\t\tic onlyOwner {\\n        _pause...\n      PUSH 40\t\t\tic onlyOwner {\\n        _pause...\n      MLOAD \t\t\tic onlyOwner {\\n        _pause...\n      PUSH [tag] 154\t\t\tic onlyOwner {\\n        _pause...\n      SWAP2 \t\t\tic onlyOwner {\\n        _pause...\n      SWAP1 \t\t\tic onlyOwner {\\n        _pause...\n      PUSH [tag] 77\t\t\tic onlyOwner {\\n        _pause...\n      JUMP \t\t\tic onlyOwner {\\n        _pause...\n    tag 154\t\t\tic onlyOwner {\\n        _pause...\n      JUMPDEST \t\t\tic onlyOwner {\\n        _pause...\n      PUSH 40\t\t\tic onlyOwner {\\n        _pause...\n      MLOAD \t\t\tic onlyOwner {\\n        _pause...\n      DUP1 \t\t\tic onlyOwner {\\n        _pause...\n      SWAP2 \t\t\tic onlyOwner {\\n        _pause...\n      SUB \t\t\tic onlyOwner {\\n        _pause...\n      SWAP1 \t\t\tic onlyOwner {\\n        _pause...\n      RETURN \t\t\tic onlyOwner {\\n        _pause...\n    tag 23\t\t\tnction _authorizeUpgrade(addre...\n      JUMPDEST \t\t\tnction _authorizeUpgrade(addre...\n      CALLVALUE \t\t\tnction _authorizeUpgrade(addre...\n      DUP1 \t\t\tnction _authorizeUpgrade(addre...\n      ISZERO \t\t\tnction _authorizeUpgrade(addre...\n      PUSH [tag] 155\t\t\tnction _authorizeUpgrade(addre...\n      JUMPI \t\t\tnction _authorizeUpgrade(addre...\n      PUSH 0\t\t\tnction _authorizeUpgrade(addre...\n      DUP1 \t\t\tnction _authorizeUpgrade(addre...\n      REVERT \t\t\tnction _authorizeUpgrade(addre...\n    tag 155\t\t\tnction _authorizeUpgrade(addre...\n      JUMPDEST \t\t\tnction _authorizeUpgrade(addre...\n      POP \t\t\tnction _authorizeUpgrade(addre...\n      PUSH [tag] 156\t\t\tnction _authorizeUpgrade(addre...\n      PUSH [tag] 157\t\t\tnction _authorizeUpgrade(addre...\n      JUMP \t\t\tnction _authorizeUpgrade(addre...\n    tag 156\t\t\tnction _authorizeUpgrade(addre...\n      JUMPDEST \t\t\tnction _authorizeUpgrade(addre...\n      STOP \t\t\tnction _authorizeUpgrade(addre...\n    tag 24\t\t\tfunction pause() public onlyOw...\n      JUMPDEST \t\t\tfunction pause() public onlyOw...\n      CALLVALUE \t\t\tfunction pause() public onlyOw...\n      DUP1 \t\t\tfunction pause() public onlyOw...\n      ISZERO \t\t\tfunction pause() public onlyOw...\n      PUSH [tag] 158\t\t\tfunction pause() public onlyOw...\n      JUMPI \t\t\tfunction pause() public onlyOw...\n      PUSH 0\t\t\tfunction pause() public onlyOw...\n      DUP1 \t\t\tfunction pause() public onlyOw...\n      REVERT \t\t\tfunction pause() public onlyOw...\n    tag 158\t\t\tfunction pause() public onlyOw...\n      JUMPDEST \t\t\tfunction pause() public onlyOw...\n      POP \t\t\tfunction pause() public onlyOw...\n      PUSH [tag] 159\t\t\tfunction pause() public onlyOw...\n      PUSH [tag] 160\t\t\tfunction pause() public onlyOw...\n      JUMP \t\t\tfunction pause() public onlyOw...\n    tag 159\t\t\tfunction pause() public onlyOw...\n      JUMPDEST \t\t\tfunction pause() public onlyOw...\n      STOP \t\t\tfunction pause() public onlyOw...\n    tag 25\t\t\t\n      JUMPDEST \t\t\t\n      CALLVALUE \t\t\t\n      DUP1 \t\t\t\n      ISZERO \t\t\t\n      PUSH [tag] 161\t\t\t\n      JUMPI \t\t\t\n      PUSH 0\t\t\t\n      DUP1 \t\t\t\n      REVERT \t\t\t\n    tag 161\t\t\t\n      JUMPDEST \t\t\t\n      POP \t\t\t\n      PUSH [tag] 162\t\t\t\n      PUSH [tag] 163\t\t\t\n      JUMP \t\t\t\n    tag 162\t\t\t\n      JUMPDEST \t\t\t\n      PUSH 40\t\t\t\n      MLOAD \t\t\t\n      PUSH [tag] 164\t\t\t\n      SWAP8 \t\t\t\n      SWAP7 \t\t\t\n      SWAP6 \t\t\t\n      SWAP5 \t\t\t\n      SWAP4 \t\t\t\n      SWAP3 \t\t\t\n      SWAP2 \t\t\t\n      SWAP1 \t\t\t\n      PUSH [tag] 165\t\t\t\n      JUMP \t\t\t\n    tag 164\t\t\t\n      JUMPDEST \t\t\t\n      PUSH 40\t\t\t\n      MLOAD \t\t\t\n      DUP1 \t\t\t\n      SWAP2 \t\t\t\n      SUB \t\t\t\n      SWAP1 \t\t\t\n      RETURN \t\t\t\n    tag 26\t\t\tfunction _BaseURI() public vie...\n      JUMPDEST \t\t\tfunction _BaseURI() public vie...\n      CALLVALUE \t\t\tfunction _BaseURI() public vie...\n      DUP1 \t\t\tfunction _BaseURI() public vie...\n      ISZERO \t\t\tfunction _BaseURI() public vie...\n      PUSH [tag] 166\t\t\tfunction _BaseURI() public vie...\n      JUMPI \t\t\tfunction _BaseURI() public vie...\n      PUSH 0\t\t\tfunction _BaseURI() public vie...\n      DUP1 \t\t\tfunction _BaseURI() public vie...\n      REVERT \t\t\tfunction _BaseURI() public vie...\n    tag 166\t\t\tfunction _BaseURI() public vie...\n      JUMPDEST \t\t\tfunction _BaseURI() public vie...\n      POP \t\t\tfunction _BaseURI() public vie...\n      PUSH [tag] 167\t\t\tfunction _BaseURI() public vie...\n      PUSH [tag] 168\t\t\tfunction _BaseURI() public vie...\n      JUMP \t\t\tfunction _BaseURI() public vie...\n    tag 167\t\t\tfunction _BaseURI() public vie...\n      JUMPDEST \t\t\tfunction _BaseURI() public vie...\n      PUSH 40\t\t\tfunction _BaseURI() public vie...\n      MLOAD \t\t\tfunction _BaseURI() public vie...\n      PUSH [tag] 169\t\t\tfunction _BaseURI() public vie...\n      SWAP2 \t\t\tfunction _BaseURI() public vie...\n      SWAP1 \t\t\tfunction _BaseURI() public vie...\n      PUSH [tag] 60\t\t\tfunction _BaseURI() public vie...\n      JUMP \t\t\tfunction _BaseURI() public vie...\n    tag 169\t\t\tfunction _BaseURI() public vie...\n      JUMPDEST \t\t\tfunction _BaseURI() public vie...\n      PUSH 40\t\t\tfunction _BaseURI() public vie...\n      MLOAD \t\t\tfunction _BaseURI() public vie...\n      DUP1 \t\t\tfunction _BaseURI() public vie...\n      SWAP2 \t\t\tfunction _BaseURI() public vie...\n      SUB \t\t\tfunction _BaseURI() public vie...\n      SWAP1 \t\t\tfunction _BaseURI() public vie...\n      RETURN \t\t\tfunction _BaseURI() public vie...\n    tag 27\t\t\tte _baseTokenURI;\\n\\n    funct...\n      JUMPDEST \t\t\tte _baseTokenURI;\\n\\n    funct...\n      CALLVALUE \t\t\tte _baseTokenURI;\\n\\n    funct...\n      DUP1 \t\t\tte _baseTokenURI;\\n\\n    funct...\n      ISZERO \t\t\tte _baseTokenURI;\\n\\n    funct...\n      PUSH [tag] 170\t\t\tte _baseTokenURI;\\n\\n    funct...\n      JUMPI \t\t\tte _baseTokenURI;\\n\\n    funct...\n      PUSH 0\t\t\tte _baseTokenURI;\\n\\n    funct...\n      DUP1 \t\t\tte _baseTokenURI;\\n\\n    funct...\n      REVERT \t\t\tte _baseTokenURI;\\n\\n    funct...\n    tag 170\t\t\tte _baseTokenURI;\\n\\n    funct...\n      JUMPDEST \t\t\tte _baseTokenURI;\\n\\n    funct...\n      POP \t\t\tte _baseTokenURI;\\n\\n    funct...\n      PUSH [tag] 171\t\t\tte _baseTokenURI;\\n\\n    funct...\n      PUSH [tag] 172\t\t\tte _baseTokenURI;\\n\\n    funct...\n      JUMP \t\t\tte _baseTokenURI;\\n\\n    funct...\n    tag 171\t\t\tte _baseTokenURI;\\n\\n    funct...\n      JUMPDEST \t\t\tte _baseTokenURI;\\n\\n    funct...\n      PUSH 40\t\t\tte _baseTokenURI;\\n\\n    funct...\n      MLOAD \t\t\tte _baseTokenURI;\\n\\n    funct...\n      PUSH [tag] 173\t\t\tte _baseTokenURI;\\n\\n    funct...\n      SWAP2 \t\t\tte _baseTokenURI;\\n\\n    funct...\n      SWAP1 \t\t\tte _baseTokenURI;\\n\\n    funct...\n      PUSH [tag] 67\t\t\tte _baseTokenURI;\\n\\n    funct...\n      JUMP \t\t\tte _baseTokenURI;\\n\\n    funct...\n    tag 173\t\t\tte _baseTokenURI;\\n\\n    funct...\n      JUMPDEST \t\t\tte _baseTokenURI;\\n\\n    funct...\n      PUSH 40\t\t\tte _baseTokenURI;\\n\\n    funct...\n      MLOAD \t\t\tte _baseTokenURI;\\n\\n    funct...\n      DUP1 \t\t\tte _baseTokenURI;\\n\\n    funct...\n      SWAP2 \t\t\tte _baseTokenURI;\\n\\n    funct...\n      SUB \t\t\tte _baseTokenURI;\\n\\n    funct...\n      SWAP1 \t\t\tte _baseTokenURI;\\n\\n    funct...\n      RETURN \t\t\tte _baseTokenURI;\\n\\n    funct...\n    tag 28\t\t\temory baseURI) external onlyOw...\n      JUMPDEST \t\t\temory baseURI) external onlyOw...\n      CALLVALUE \t\t\temory baseURI) external onlyOw...\n      DUP1 \t\t\temory baseURI) external onlyOw...\n      ISZERO \t\t\temory baseURI) external onlyOw...\n      PUSH [tag] 174\t\t\temory baseURI) external onlyOw...\n      JUMPI \t\t\temory baseURI) external onlyOw...\n      PUSH 0\t\t\temory baseURI) external onlyOw...\n      DUP1 \t\t\temory baseURI) external onlyOw...\n      REVERT \t\t\temory baseURI) external onlyOw...\n    tag 174\t\t\temory baseURI) external onlyOw...\n      JUMPDEST \t\t\temory baseURI) external onlyOw...\n      POP \t\t\temory baseURI) external onlyOw...\n      PUSH [tag] 175\t\t\temory baseURI) external onlyOw...\n      PUSH 4\t\t\temory baseURI) external onlyOw...\n      DUP1 \t\t\temory baseURI) external onlyOw...\n      CALLDATASIZE \t\t\temory baseURI) external onlyOw...\n      SUB \t\t\temory baseURI) external onlyOw...\n      DUP2 \t\t\temory baseURI) external onlyOw...\n      ADD \t\t\temory baseURI) external onlyOw...\n      SWAP1 \t\t\temory baseURI) external onlyOw...\n      PUSH [tag] 176\t\t\temory baseURI) external onlyOw...\n      SWAP2 \t\t\temory baseURI) external onlyOw...\n      SWAP1 \t\t\temory baseURI) external onlyOw...\n      PUSH [tag] 177\t\t\temory baseURI) external onlyOw...\n      JUMP \t\t\temory baseURI) external onlyOw...\n    tag 176\t\t\temory baseURI) external onlyOw...\n      JUMPDEST \t\t\temory baseURI) external onlyOw...\n      PUSH [tag] 178\t\t\temory baseURI) external onlyOw...\n      JUMP \t\t\temory baseURI) external onlyOw...\n    tag 175\t\t\temory baseURI) external onlyOw...\n      JUMPDEST \t\t\temory baseURI) external onlyOw...\n      PUSH 40\t\t\temory baseURI) external onlyOw...\n      MLOAD \t\t\temory baseURI) external onlyOw...\n      PUSH [tag] 179\t\t\temory baseURI) external onlyOw...\n      SWAP2 \t\t\temory baseURI) external onlyOw...\n      SWAP1 \t\t\temory baseURI) external onlyOw...\n      PUSH [tag] 67\t\t\temory baseURI) external onlyOw...\n      JUMP \t\t\temory baseURI) external onlyOw...\n    tag 179\t\t\temory baseURI) external onlyOw...\n      JUMPDEST \t\t\temory baseURI) external onlyOw...\n      PUSH 40\t\t\temory baseURI) external onlyOw...\n      MLOAD \t\t\temory baseURI) external onlyOw...\n      DUP1 \t\t\temory baseURI) external onlyOw...\n      SWAP2 \t\t\temory baseURI) external onlyOw...\n      SUB \t\t\temory baseURI) external onlyOw...\n      SWAP1 \t\t\temory baseURI) external onlyOw...\n      RETURN \t\t\temory baseURI) external onlyOw...\n    tag 29\t\t\ton _update(address to, uint256...\n      JUMPDEST \t\t\ton _update(address to, uint256...\n      CALLVALUE \t\t\ton _update(address to, uint256...\n      DUP1 \t\t\ton _update(address to, uint256...\n      ISZERO \t\t\ton _update(address to, uint256...\n      PUSH [tag] 180\t\t\ton _update(address to, uint256...\n      JUMPI \t\t\ton _update(address to, uint256...\n      PUSH 0\t\t\ton _update(address to, uint256...\n      DUP1 \t\t\ton _update(address to, uint256...\n      REVERT \t\t\ton _update(address to, uint256...\n    tag 180\t\t\ton _update(address to, uint256...\n      JUMPDEST \t\t\ton _update(address to, uint256...\n      POP \t\t\ton _update(address to, uint256...\n      PUSH [tag] 181\t\t\ton _update(address to, uint256...\n      PUSH 4\t\t\ton _update(address to, uint256...\n      DUP1 \t\t\ton _update(address to, uint256...\n      CALLDATASIZE \t\t\ton _update(address to, uint256...\n      SUB \t\t\ton _update(address to, uint256...\n      DUP2 \t\t\ton _update(address to, uint256...\n      ADD \t\t\ton _update(address to, uint256...\n      SWAP1 \t\t\ton _update(address to, uint256...\n      PUSH [tag] 182\t\t\ton _update(address to, uint256...\n      SWAP2 \t\t\ton _update(address to, uint256...\n      SWAP1 \t\t\ton _update(address to, uint256...\n      PUSH [tag] 100\t\t\ton _update(address to, uint256...\n      JUMP \t\t\ton _update(address to, uint256...\n    tag 182\t\t\ton _update(address to, uint256...\n      JUMPDEST \t\t\ton _update(address to, uint256...\n      PUSH [tag] 183\t\t\ton _update(address to, uint256...\n      JUMP \t\t\ton _update(address to, uint256...\n    tag 181\t\t\ton _update(address to, uint256...\n      JUMPDEST \t\t\ton _update(address to, uint256...\n      PUSH 40\t\t\ton _update(address to, uint256...\n      MLOAD \t\t\ton _update(address to, uint256...\n      PUSH [tag] 184\t\t\ton _update(address to, uint256...\n      SWAP2 \t\t\ton _update(address to, uint256...\n      SWAP1 \t\t\ton _update(address to, uint256...\n      PUSH [tag] 55\t\t\ton _update(address to, uint256...\n      JUMP \t\t\ton _update(address to, uint256...\n    tag 184\t\t\ton _update(address to, uint256...\n      JUMPDEST \t\t\ton _update(address to, uint256...\n      PUSH 40\t\t\ton _update(address to, uint256...\n      MLOAD \t\t\ton _update(address to, uint256...\n      DUP1 \t\t\ton _update(address to, uint256...\n      SWAP2 \t\t\ton _update(address to, uint256...\n      SUB \t\t\ton _update(address to, uint256...\n      SWAP1 \t\t\ton _update(address to, uint256...\n      RETURN \t\t\ton _update(address to, uint256...\n    tag 30\t\t\tint256 tokenId, address auth)\\...\n      JUMPDEST \t\t\tint256 tokenId, address auth)\\...\n      CALLVALUE \t\t\tint256 tokenId, address auth)\\...\n      DUP1 \t\t\tint256 tokenId, address auth)\\...\n      ISZERO \t\t\tint256 tokenId, address auth)\\...\n      PUSH [tag] 185\t\t\tint256 tokenId, address auth)\\...\n      JUMPI \t\t\tint256 tokenId, address auth)\\...\n      PUSH 0\t\t\tint256 tokenId, address auth)\\...\n      DUP1 \t\t\tint256 tokenId, address auth)\\...\n      REVERT \t\t\tint256 tokenId, address auth)\\...\n    tag 185\t\t\tint256 tokenId, address auth)\\...\n      JUMPDEST \t\t\tint256 tokenId, address auth)\\...\n      POP \t\t\tint256 tokenId, address auth)\\...\n      PUSH [tag] 186\t\t\tint256 tokenId, address auth)\\...\n      PUSH [tag] 187\t\t\tint256 tokenId, address auth)\\...\n      JUMP \t\t\tint256 tokenId, address auth)\\...\n    tag 186\t\t\tint256 tokenId, address auth)\\...\n      JUMPDEST \t\t\tint256 tokenId, address auth)\\...\n      PUSH 40\t\t\tint256 tokenId, address auth)\\...\n      MLOAD \t\t\tint256 tokenId, address auth)\\...\n      PUSH [tag] 188\t\t\tint256 tokenId, address auth)\\...\n      SWAP2 \t\t\tint256 tokenId, address auth)\\...\n      SWAP1 \t\t\tint256 tokenId, address auth)\\...\n      PUSH [tag] 60\t\t\tint256 tokenId, address auth)\\...\n      JUMP \t\t\tint256 tokenId, address auth)\\...\n    tag 188\t\t\tint256 tokenId, address auth)\\...\n      JUMPDEST \t\t\tint256 tokenId, address auth)\\...\n      PUSH 40\t\t\tint256 tokenId, address auth)\\...\n      MLOAD \t\t\tint256 tokenId, address auth)\\...\n      DUP1 \t\t\tint256 tokenId, address auth)\\...\n      SWAP2 \t\t\tint256 tokenId, address auth)\\...\n      SUB \t\t\tint256 tokenId, address auth)\\...\n      SWAP1 \t\t\tint256 tokenId, address auth)\\...\n      RETURN \t\t\tint256 tokenId, address auth)\\...\n    tag 31\t\t\t721PausableUpgradeable, ERC721...\n      JUMPDEST \t\t\t721PausableUpgradeable, ERC721...\n      CALLVALUE \t\t\t721PausableUpgradeable, ERC721...\n      DUP1 \t\t\t721PausableUpgradeable, ERC721...\n      ISZERO \t\t\t721PausableUpgradeable, ERC721...\n      PUSH [tag] 189\t\t\t721PausableUpgradeable, ERC721...\n      JUMPI \t\t\t721PausableUpgradeable, ERC721...\n      PUSH 0\t\t\t721PausableUpgradeable, ERC721...\n      DUP1 \t\t\t721PausableUpgradeable, ERC721...\n      REVERT \t\t\t721PausableUpgradeable, ERC721...\n    tag 189\t\t\t721PausableUpgradeable, ERC721...\n      JUMPDEST \t\t\t721PausableUpgradeable, ERC721...\n      POP \t\t\t721PausableUpgradeable, ERC721...\n      PUSH [tag] 190\t\t\t721PausableUpgradeable, ERC721...\n      PUSH [tag] 191\t\t\t721PausableUpgradeable, ERC721...\n      JUMP \t\t\t721PausableUpgradeable, ERC721...\n    tag 190\t\t\t721PausableUpgradeable, ERC721...\n      JUMPDEST \t\t\t721PausableUpgradeable, ERC721...\n      PUSH 40\t\t\t721PausableUpgradeable, ERC721...\n      MLOAD \t\t\t721PausableUpgradeable, ERC721...\n      PUSH [tag] 192\t\t\t721PausableUpgradeable, ERC721...\n      SWAP2 \t\t\t721PausableUpgradeable, ERC721...\n      SWAP1 \t\t\t721PausableUpgradeable, ERC721...\n      PUSH [tag] 89\t\t\t721PausableUpgradeable, ERC721...\n      JUMP \t\t\t721PausableUpgradeable, ERC721...\n    tag 192\t\t\t721PausableUpgradeable, ERC721...\n      JUMPDEST \t\t\t721PausableUpgradeable, ERC721...\n      PUSH 40\t\t\t721PausableUpgradeable, ERC721...\n      MLOAD \t\t\t721PausableUpgradeable, ERC721...\n      DUP1 \t\t\t721PausableUpgradeable, ERC721...\n      SWAP2 \t\t\t721PausableUpgradeable, ERC721...\n      SUB \t\t\t721PausableUpgradeable, ERC721...\n      SWAP1 \t\t\t721PausableUpgradeable, ERC721...\n      RETURN \t\t\t721PausableUpgradeable, ERC721...\n    tag 32\t\t\t\n      JUMPDEST \t\t\t\n      CALLVALUE \t\t\t\n      DUP1 \t\t\t\n      ISZERO \t\t\t\n      PUSH [tag] 193\t\t\t\n      JUMPI \t\t\t\n      PUSH 0\t\t\t\n      DUP1 \t\t\t\n      REVERT \t\t\t\n    tag 193\t\t\t\n      JUMPDEST \t\t\t\n      POP \t\t\t\n      PUSH [tag] 194\t\t\t\n      PUSH 4\t\t\t\n      DUP1 \t\t\t\n      CALLDATASIZE \t\t\t\n      SUB \t\t\t\n      DUP2 \t\t\t\n      ADD \t\t\t\n      SWAP1 \t\t\t\n      PUSH [tag] 195\t\t\t\n      SWAP2 \t\t\t\n      SWAP1 \t\t\t\n      PUSH [tag] 196\t\t\t\n      JUMP \t\t\t\n    tag 195\t\t\t\n      JUMPDEST \t\t\t\n      PUSH [tag] 197\t\t\t\n      JUMP \t\t\t\n    tag 194\t\t\t\n      JUMPDEST \t\t\t\n      STOP \t\t\t\n    tag 33\t\t\t.0/utils/PausableUpgradeable.s...\n      JUMPDEST \t\t\t.0/utils/PausableUpgradeable.s...\n      CALLVALUE \t\t\t.0/utils/PausableUpgradeable.s...\n      DUP1 \t\t\t.0/utils/PausableUpgradeable.s...\n      ISZERO \t\t\t.0/utils/PausableUpgradeable.s...\n      PUSH [tag] 198\t\t\t.0/utils/PausableUpgradeable.s...\n      JUMPI \t\t\t.0/utils/PausableUpgradeable.s...\n      PUSH 0\t\t\t.0/utils/PausableUpgradeable.s...\n      DUP1 \t\t\t.0/utils/PausableUpgradeable.s...\n      REVERT \t\t\t.0/utils/PausableUpgradeable.s...\n    tag 198\t\t\t.0/utils/PausableUpgradeable.s...\n      JUMPDEST \t\t\t.0/utils/PausableUpgradeable.s...\n      POP \t\t\t.0/utils/PausableUpgradeable.s...\n      PUSH [tag] 199\t\t\t.0/utils/PausableUpgradeable.s...\n      PUSH [tag] 200\t\t\t.0/utils/PausableUpgradeable.s...\n      JUMP \t\t\t.0/utils/PausableUpgradeable.s...\n    tag 199\t\t\t.0/utils/PausableUpgradeable.s...\n      JUMPDEST \t\t\t.0/utils/PausableUpgradeable.s...\n      PUSH 40\t\t\t.0/utils/PausableUpgradeable.s...\n      MLOAD \t\t\t.0/utils/PausableUpgradeable.s...\n      PUSH [tag] 201\t\t\t.0/utils/PausableUpgradeable.s...\n      SWAP2 \t\t\t.0/utils/PausableUpgradeable.s...\n      SWAP1 \t\t\t.0/utils/PausableUpgradeable.s...\n      PUSH [tag] 60\t\t\t.0/utils/PausableUpgradeable.s...\n      JUMP \t\t\t.0/utils/PausableUpgradeable.s...\n    tag 201\t\t\t.0/utils/PausableUpgradeable.s...\n      JUMPDEST \t\t\t.0/utils/PausableUpgradeable.s...\n      PUSH 40\t\t\t.0/utils/PausableUpgradeable.s...\n      MLOAD \t\t\t.0/utils/PausableUpgradeable.s...\n      DUP1 \t\t\t.0/utils/PausableUpgradeable.s...\n      SWAP2 \t\t\t.0/utils/PausableUpgradeable.s...\n      SUB \t\t\t.0/utils/PausableUpgradeable.s...\n      SWAP1 \t\t\t.0/utils/PausableUpgradeable.s...\n      RETURN \t\t\t.0/utils/PausableUpgradeable.s...\n    tag 34\t\t\t\n      JUMPDEST \t\t\t\n      CALLVALUE \t\t\t\n      DUP1 \t\t\t\n      ISZERO \t\t\t\n      PUSH [tag] 202\t\t\t\n      JUMPI \t\t\t\n      PUSH 0\t\t\t\n      DUP1 \t\t\t\n      REVERT \t\t\t\n    tag 202\t\t\t\n      JUMPDEST \t\t\t\n      POP \t\t\t\n      PUSH [tag] 203\t\t\t\n      PUSH 4\t\t\t\n      DUP1 \t\t\t\n      CALLDATASIZE \t\t\t\n      SUB \t\t\t\n      DUP2 \t\t\t\n      ADD \t\t\t\n      SWAP1 \t\t\t\n      PUSH [tag] 204\t\t\t\n      SWAP2 \t\t\t\n      SWAP1 \t\t\t\n      PUSH [tag] 205\t\t\t\n      JUMP \t\t\t\n    tag 204\t\t\t\n      JUMPDEST \t\t\t\n      PUSH [tag] 206\t\t\t\n      JUMP \t\t\t\n    tag 203\t\t\t\n      JUMPDEST \t\t\t\n      STOP \t\t\t\n    tag 35\t\t\tfunction initialize(address in...\n      JUMPDEST \t\t\tfunction initialize(address in...\n      CALLVALUE \t\t\tfunction initialize(address in...\n      DUP1 \t\t\tfunction initialize(address in...\n      ISZERO \t\t\tfunction initialize(address in...\n      PUSH [tag] 207\t\t\tfunction initialize(address in...\n      JUMPI \t\t\tfunction initialize(address in...\n      PUSH 0\t\t\tfunction initialize(address in...\n      DUP1 \t\t\tfunction initialize(address in...\n      REVERT \t\t\tfunction initialize(address in...\n    tag 207\t\t\tfunction initialize(address in...\n      JUMPDEST \t\t\tfunction initialize(address in...\n      POP \t\t\tfunction initialize(address in...\n      PUSH [tag] 208\t\t\tfunction initialize(address in...\n      PUSH 4\t\t\tfunction initialize(address in...\n      DUP1 \t\t\tfunction initialize(address in...\n      CALLDATASIZE \t\t\tfunction initialize(address in...\n      SUB \t\t\tfunction initialize(address in...\n      DUP2 \t\t\tfunction initialize(address in...\n      ADD \t\t\tfunction initialize(address in...\n      SWAP1 \t\t\tfunction initialize(address in...\n      PUSH [tag] 209\t\t\tfunction initialize(address in...\n      SWAP2 \t\t\tfunction initialize(address in...\n      SWAP1 \t\t\tfunction initialize(address in...\n      PUSH [tag] 152\t\t\tfunction initialize(address in...\n      JUMP \t\t\tfunction initialize(address in...\n    tag 209\t\t\tfunction initialize(address in...\n      JUMPDEST \t\t\tfunction initialize(address in...\n      PUSH [tag] 210\t\t\tfunction initialize(address in...\n      JUMP \t\t\tfunction initialize(address in...\n    tag 208\t\t\tfunction initialize(address in...\n      JUMPDEST \t\t\tfunction initialize(address in...\n      STOP \t\t\tfunction initialize(address in...\n    tag 36\t\t\tfunction tokenURI(uint256 toke...\n      JUMPDEST \t\t\tfunction tokenURI(uint256 toke...\n      CALLVALUE \t\t\tfunction tokenURI(uint256 toke...\n      DUP1 \t\t\tfunction tokenURI(uint256 toke...\n      ISZERO \t\t\tfunction tokenURI(uint256 toke...\n      PUSH [tag] 211\t\t\tfunction tokenURI(uint256 toke...\n      JUMPI \t\t\tfunction tokenURI(uint256 toke...\n      PUSH 0\t\t\tfunction tokenURI(uint256 toke...\n      DUP1 \t\t\tfunction tokenURI(uint256 toke...\n      REVERT \t\t\tfunction tokenURI(uint256 toke...\n    tag 211\t\t\tfunction tokenURI(uint256 toke...\n      JUMPDEST \t\t\tfunction tokenURI(uint256 toke...\n      POP \t\t\tfunction tokenURI(uint256 toke...\n      PUSH [tag] 212\t\t\tfunction tokenURI(uint256 toke...\n      PUSH 4\t\t\tfunction tokenURI(uint256 toke...\n      DUP1 \t\t\tfunction tokenURI(uint256 toke...\n      CALLDATASIZE \t\t\tfunction tokenURI(uint256 toke...\n      SUB \t\t\tfunction tokenURI(uint256 toke...\n      DUP2 \t\t\tfunction tokenURI(uint256 toke...\n      ADD \t\t\tfunction tokenURI(uint256 toke...\n      SWAP1 \t\t\tfunction tokenURI(uint256 toke...\n      PUSH [tag] 213\t\t\tfunction tokenURI(uint256 toke...\n      SWAP2 \t\t\tfunction tokenURI(uint256 toke...\n      SWAP1 \t\t\tfunction tokenURI(uint256 toke...\n      PUSH [tag] 64\t\t\tfunction tokenURI(uint256 toke...\n      JUMP \t\t\tfunction tokenURI(uint256 toke...\n    tag 213\t\t\tfunction tokenURI(uint256 toke...\n      JUMPDEST \t\t\tfunction tokenURI(uint256 toke...\n      PUSH [tag] 214\t\t\tfunction tokenURI(uint256 toke...\n      JUMP \t\t\tfunction tokenURI(uint256 toke...\n    tag 212\t\t\tfunction tokenURI(uint256 toke...\n      JUMPDEST \t\t\tfunction tokenURI(uint256 toke...\n      PUSH 40\t\t\tfunction tokenURI(uint256 toke...\n      MLOAD \t\t\tfunction tokenURI(uint256 toke...\n      PUSH [tag] 215\t\t\tfunction tokenURI(uint256 toke...\n      SWAP2 \t\t\tfunction tokenURI(uint256 toke...\n      SWAP1 \t\t\tfunction tokenURI(uint256 toke...\n      PUSH [tag] 60\t\t\tfunction tokenURI(uint256 toke...\n      JUMP \t\t\tfunction tokenURI(uint256 toke...\n    tag 215\t\t\tfunction tokenURI(uint256 toke...\n      JUMPDEST \t\t\tfunction tokenURI(uint256 toke...\n      PUSH 40\t\t\tfunction tokenURI(uint256 toke...\n      MLOAD \t\t\tfunction tokenURI(uint256 toke...\n      DUP1 \t\t\tfunction tokenURI(uint256 toke...\n      SWAP2 \t\t\tfunction tokenURI(uint256 toke...\n      SUB \t\t\tfunction tokenURI(uint256 toke...\n      SWAP1 \t\t\tfunction tokenURI(uint256 toke...\n      RETURN \t\t\tfunction tokenURI(uint256 toke...\n    tag 37\t\t\t();\\n        __Ownable_init(in...\n      JUMPDEST \t\t\t();\\n        __Ownable_init(in...\n      CALLVALUE \t\t\t();\\n        __Ownable_init(in...\n      DUP1 \t\t\t();\\n        __Ownable_init(in...\n      ISZERO \t\t\t();\\n        __Ownable_init(in...\n      PUSH [tag] 216\t\t\t();\\n        __Ownable_init(in...\n      JUMPI \t\t\t();\\n        __Ownable_init(in...\n      PUSH 0\t\t\t();\\n        __Ownable_init(in...\n      DUP1 \t\t\t();\\n        __Ownable_init(in...\n      REVERT \t\t\t();\\n        __Ownable_init(in...\n    tag 216\t\t\t();\\n        __Ownable_init(in...\n      JUMPDEST \t\t\t();\\n        __Ownable_init(in...\n      POP \t\t\t();\\n        __Ownable_init(in...\n      PUSH [tag] 217\t\t\t();\\n        __Ownable_init(in...\n      PUSH 4\t\t\t();\\n        __Ownable_init(in...\n      DUP1 \t\t\t();\\n        __Ownable_init(in...\n      CALLDATASIZE \t\t\t();\\n        __Ownable_init(in...\n      SUB \t\t\t();\\n        __Ownable_init(in...\n      DUP2 \t\t\t();\\n        __Ownable_init(in...\n      ADD \t\t\t();\\n        __Ownable_init(in...\n      SWAP1 \t\t\t();\\n        __Ownable_init(in...\n      PUSH [tag] 218\t\t\t();\\n        __Ownable_init(in...\n      SWAP2 \t\t\t();\\n        __Ownable_init(in...\n      SWAP1 \t\t\t();\\n        __Ownable_init(in...\n      PUSH [tag] 86\t\t\t();\\n        __Ownable_init(in...\n      JUMP \t\t\t();\\n        __Ownable_init(in...\n    tag 218\t\t\t();\\n        __Ownable_init(in...\n      JUMPDEST \t\t\t();\\n        __Ownable_init(in...\n      PUSH [tag] 219\t\t\t();\\n        __Ownable_init(in...\n      JUMP \t\t\t();\\n        __Ownable_init(in...\n    tag 217\t\t\t();\\n        __Ownable_init(in...\n      JUMPDEST \t\t\t();\\n        __Ownable_init(in...\n      PUSH 40\t\t\t();\\n        __Ownable_init(in...\n      MLOAD \t\t\t();\\n        __Ownable_init(in...\n      PUSH [tag] 220\t\t\t();\\n        __Ownable_init(in...\n      SWAP2 \t\t\t();\\n        __Ownable_init(in...\n      SWAP1 \t\t\t();\\n        __Ownable_init(in...\n      PUSH [tag] 77\t\t\t();\\n        __Ownable_init(in...\n      JUMP \t\t\t();\\n        __Ownable_init(in...\n    tag 220\t\t\t();\\n        __Ownable_init(in...\n      JUMPDEST \t\t\t();\\n        __Ownable_init(in...\n      PUSH 40\t\t\t();\\n        __Ownable_init(in...\n      MLOAD \t\t\t();\\n        __Ownable_init(in...\n      DUP1 \t\t\t();\\n        __Ownable_init(in...\n      SWAP2 \t\t\t();\\n        __Ownable_init(in...\n      SUB \t\t\t();\\n        __Ownable_init(in...\n      SWAP1 \t\t\t();\\n        __Ownable_init(in...\n      RETURN \t\t\t();\\n        __Ownable_init(in...\n    tag 38\t\t\tfunction safeMint(address to, ...\n      JUMPDEST \t\t\tfunction safeMint(address to, ...\n      CALLVALUE \t\t\tfunction safeMint(address to, ...\n      DUP1 \t\t\tfunction safeMint(address to, ...\n      ISZERO \t\t\tfunction safeMint(address to, ...\n      PUSH [tag] 221\t\t\tfunction safeMint(address to, ...\n      JUMPI \t\t\tfunction safeMint(address to, ...\n      PUSH 0\t\t\tfunction safeMint(address to, ...\n      DUP1 \t\t\tfunction safeMint(address to, ...\n      REVERT \t\t\tfunction safeMint(address to, ...\n    tag 221\t\t\tfunction safeMint(address to, ...\n      JUMPDEST \t\t\tfunction safeMint(address to, ...\n      POP \t\t\tfunction safeMint(address to, ...\n      PUSH [tag] 222\t\t\tfunction safeMint(address to, ...\n      PUSH 4\t\t\tfunction safeMint(address to, ...\n      DUP1 \t\t\tfunction safeMint(address to, ...\n      CALLDATASIZE \t\t\tfunction safeMint(address to, ...\n      SUB \t\t\tfunction safeMint(address to, ...\n      DUP2 \t\t\tfunction safeMint(address to, ...\n      ADD \t\t\tfunction safeMint(address to, ...\n      SWAP1 \t\t\tfunction safeMint(address to, ...\n      PUSH [tag] 223\t\t\tfunction safeMint(address to, ...\n      SWAP2 \t\t\tfunction safeMint(address to, ...\n      SWAP1 \t\t\tfunction safeMint(address to, ...\n      PUSH [tag] 224\t\t\tfunction safeMint(address to, ...\n      JUMP \t\t\tfunction safeMint(address to, ...\n    tag 223\t\t\tfunction safeMint(address to, ...\n      JUMPDEST \t\t\tfunction safeMint(address to, ...\n      PUSH [tag] 225\t\t\tfunction safeMint(address to, ...\n      JUMP \t\t\tfunction safeMint(address to, ...\n    tag 222\t\t\tfunction safeMint(address to, ...\n      JUMPDEST \t\t\tfunction safeMint(address to, ...\n      STOP \t\t\tfunction safeMint(address to, ...\n    tag 39\t\t\t\n      JUMPDEST \t\t\t\n      CALLVALUE \t\t\t\n      DUP1 \t\t\t\n      ISZERO \t\t\t\n      PUSH [tag] 226\t\t\t\n      JUMPI \t\t\t\n      PUSH 0\t\t\t\n      DUP1 \t\t\t\n      REVERT \t\t\t\n    tag 226\t\t\t\n      JUMPDEST \t\t\t\n      POP \t\t\t\n      PUSH [tag] 227\t\t\t\n      PUSH 4\t\t\t\n      DUP1 \t\t\t\n      CALLDATASIZE \t\t\t\n      SUB \t\t\t\n      DUP2 \t\t\t\n      ADD \t\t\t\n      SWAP1 \t\t\t\n      PUSH [tag] 228\t\t\t\n      SWAP2 \t\t\t\n      SWAP1 \t\t\t\n      PUSH [tag] 100\t\t\t\n      JUMP \t\t\t\n    tag 228\t\t\t\n      JUMPDEST \t\t\t\n      PUSH [tag] 229\t\t\t\n      JUMP \t\t\t\n    tag 227\t\t\t\n      JUMPDEST \t\t\t\n      STOP \t\t\t\n    tag 40\t\t\t\n      JUMPDEST \t\t\t\n      CALLVALUE \t\t\t\n      DUP1 \t\t\t\n      ISZERO \t\t\t\n      PUSH [tag] 230\t\t\t\n      JUMPI \t\t\t\n      PUSH 0\t\t\t\n      DUP1 \t\t\t\n      REVERT \t\t\t\n    tag 230\t\t\t\n      JUMPDEST \t\t\t\n      POP \t\t\t\n      PUSH [tag] 231\t\t\t\n      PUSH 4\t\t\t\n      DUP1 \t\t\t\n      CALLDATASIZE \t\t\t\n      SUB \t\t\t\n      DUP2 \t\t\t\n      ADD \t\t\t\n      SWAP1 \t\t\t\n      PUSH [tag] 232\t\t\t\n      SWAP2 \t\t\t\n      SWAP1 \t\t\t\n      PUSH [tag] 233\t\t\t\n      JUMP \t\t\t\n    tag 232\t\t\t\n      JUMPDEST \t\t\t\n      PUSH [tag] 234\t\t\t\n      JUMP \t\t\t\n    tag 231\t\t\t\n      JUMPDEST \t\t\t\n      PUSH 40\t\t\t\n      MLOAD \t\t\t\n      PUSH [tag] 235\t\t\t\n      SWAP2 \t\t\t\n      SWAP1 \t\t\t\n      PUSH [tag] 55\t\t\t\n      JUMP \t\t\t\n    tag 235\t\t\t\n      JUMPDEST \t\t\t\n      PUSH 40\t\t\t\n      MLOAD \t\t\t\n      DUP1 \t\t\t\n      SWAP2 \t\t\t\n      SUB \t\t\t\n      SWAP1 \t\t\t\n      RETURN \t\t\t\n    tag 41\t\t\tRI(tokenId, uri);\\n    }\\n\\n  ...\n      JUMPDEST \t\t\tRI(tokenId, uri);\\n    }\\n\\n  ...\n      CALLVALUE \t\t\tRI(tokenId, uri);\\n    }\\n\\n  ...\n      DUP1 \t\t\tRI(tokenId, uri);\\n    }\\n\\n  ...\n      ISZERO \t\t\tRI(tokenId, uri);\\n    }\\n\\n  ...\n      PUSH [tag] 236\t\t\tRI(tokenId, uri);\\n    }\\n\\n  ...\n      JUMPI \t\t\tRI(tokenId, uri);\\n    }\\n\\n  ...\n      PUSH 0\t\t\tRI(tokenId, uri);\\n    }\\n\\n  ...\n      DUP1 \t\t\tRI(tokenId, uri);\\n    }\\n\\n  ...\n      REVERT \t\t\tRI(tokenId, uri);\\n    }\\n\\n  ...\n    tag 236\t\t\tRI(tokenId, uri);\\n    }\\n\\n  ...\n      JUMPDEST \t\t\tRI(tokenId, uri);\\n    }\\n\\n  ...\n      POP \t\t\tRI(tokenId, uri);\\n    }\\n\\n  ...\n      PUSH [tag] 237\t\t\tRI(tokenId, uri);\\n    }\\n\\n  ...\n      PUSH 4\t\t\tRI(tokenId, uri);\\n    }\\n\\n  ...\n      DUP1 \t\t\tRI(tokenId, uri);\\n    }\\n\\n  ...\n      CALLDATASIZE \t\t\tRI(tokenId, uri);\\n    }\\n\\n  ...\n      SUB \t\t\tRI(tokenId, uri);\\n    }\\n\\n  ...\n      DUP2 \t\t\tRI(tokenId, uri);\\n    }\\n\\n  ...\n      ADD \t\t\tRI(tokenId, uri);\\n    }\\n\\n  ...\n      SWAP1 \t\t\tRI(tokenId, uri);\\n    }\\n\\n  ...\n      PUSH [tag] 238\t\t\tRI(tokenId, uri);\\n    }\\n\\n  ...\n      SWAP2 \t\t\tRI(tokenId, uri);\\n    }\\n\\n  ...\n      SWAP1 \t\t\tRI(tokenId, uri);\\n    }\\n\\n  ...\n      PUSH [tag] 152\t\t\tRI(tokenId, uri);\\n    }\\n\\n  ...\n      JUMP \t\t\tRI(tokenId, uri);\\n    }\\n\\n  ...\n    tag 238\t\t\tRI(tokenId, uri);\\n    }\\n\\n  ...\n      JUMPDEST \t\t\tRI(tokenId, uri);\\n    }\\n\\n  ...\n      PUSH [tag] 239\t\t\tRI(tokenId, uri);\\n    }\\n\\n  ...\n      JUMP \t\t\tRI(tokenId, uri);\\n    }\\n\\n  ...\n    tag 237\t\t\tRI(tokenId, uri);\\n    }\\n\\n  ...\n      JUMPDEST \t\t\tRI(tokenId, uri);\\n    }\\n\\n  ...\n      STOP \t\t\tRI(tokenId, uri);\\n    }\\n\\n  ...\n    tag 53\t\t\tfunction supportsInterface(byt...\n      JUMPDEST \t\t\tfunction supportsInterface(byt...\n      PUSH 0\t\t\tbool\n      PUSH [tag] 241\t\t\tsuper.supportsInterface(interf...\n      DUP3 \t\t\tinterfaceId\n      PUSH [tag] 242\t\t\tsuper.supportsInterface\n      JUMP \t\t\tsuper.supportsInterface(interf...\n    tag 241\t\t\tsuper.supportsInterface(interf...\n      JUMPDEST \t\t\tsuper.supportsInterface(interf...\n      SWAP1 \t\t\treturn super.supportsInterface...\n      POP \t\t\treturn super.supportsInterface...\n      SWAP2 \t\t\tfunction supportsInterface(byt...\n      SWAP1 \t\t\tfunction supportsInterface(byt...\n      POP \t\t\tfunction supportsInterface(byt...\n      JUMP \t\t\tfunction supportsInterface(byt...\n    tag 58\t\t\tns (address) {\\n    // Add you...\n      JUMPDEST \t\t\tns (address) {\\n    // Add you...\n      PUSH 60\t\t\t logic here\\n \n      PUSH 0\t\t\tC721Upgradeable._ownerO\n      PUSH [tag] 244\t\t\tokenId);\\n}\\n\\n    // \n      PUSH [tag] 245\t\t\tokenId);\\n}\\n\\n    /\n      JUMP \t\t\tokenId);\\n}\\n\\n    // \n    tag 244\t\t\tokenId);\\n}\\n\\n    // \n      JUMPDEST \t\t\tokenId);\\n}\\n\\n    // \n      SWAP1 \t\t\tC721Upgradeable._ownerOf(token...\n      POP \t\t\tC721Upgradeable._ownerOf(token...\n      DUP1 \t\t\tc\n      PUSH 0\t\t\tctions \n      ADD \t\t\tctions \n      DUP1 \t\t\ting functions \n      SLOAD \t\t\ting functions \n      PUSH [tag] 246\t\t\ting functions \n      SWAP1 \t\t\ting functions \n      PUSH [tag] 247\t\t\ting functions \n      JUMP \t\t\ting functions \n    tag 246\t\t\ting functions \n      JUMPDEST \t\t\ting functions \n      DUP1 \t\t\ting functions \n      PUSH 1F\t\t\ting functions \n      ADD \t\t\ting functions \n      PUSH 20\t\t\ting functions \n      DUP1 \t\t\ting functions \n      SWAP2 \t\t\ting functions \n      DIV \t\t\ting functions \n      MUL \t\t\ting functions \n      PUSH 20\t\t\ting functions \n      ADD \t\t\ting functions \n      PUSH 40\t\t\ting functions \n      MLOAD \t\t\ting functions \n      SWAP1 \t\t\ting functions \n      DUP2 \t\t\ting functions \n      ADD \t\t\ting functions \n      PUSH 40\t\t\ting functions \n      MSTORE \t\t\ting functions \n      DUP1 \t\t\ting functions \n      SWAP3 \t\t\ting functions \n      SWAP2 \t\t\ting functions \n      SWAP1 \t\t\ting functions \n      DUP2 \t\t\ting functions \n      DUP2 \t\t\ting functions \n      MSTORE \t\t\ting functions \n      PUSH 20\t\t\ting functions \n      ADD \t\t\ting functions \n      DUP3 \t\t\ting functions \n      DUP1 \t\t\ting functions \n      SLOAD \t\t\ting functions \n      PUSH [tag] 248\t\t\ting functions \n      SWAP1 \t\t\ting functions \n      PUSH [tag] 247\t\t\ting functions \n      JUMP \t\t\ting functions \n    tag 248\t\t\ting functions \n      JUMPDEST \t\t\ting functions \n      DUP1 \t\t\ting functions \n      ISZERO \t\t\ting functions \n      PUSH [tag] 249\t\t\ting functions \n      JUMPI \t\t\ting functions \n      DUP1 \t\t\ting functions \n      PUSH 1F\t\t\ting functions \n      LT \t\t\ting functions \n      PUSH [tag] 250\t\t\ting functions \n      JUMPI \t\t\ting functions \n      PUSH 100\t\t\ting functions \n      DUP1 \t\t\ting functions \n      DUP4 \t\t\ting functions \n      SLOAD \t\t\ting functions \n      DIV \t\t\ting functions \n      MUL \t\t\ting functions \n      DUP4 \t\t\ting functions \n      MSTORE \t\t\ting functions \n      SWAP2 \t\t\ting functions \n      PUSH 20\t\t\ting functions \n      ADD \t\t\ting functions \n      SWAP2 \t\t\ting functions \n      PUSH [tag] 249\t\t\ting functions \n      JUMP \t\t\ting functions \n    tag 250\t\t\ting functions \n      JUMPDEST \t\t\ting functions \n      DUP3 \t\t\ting functions \n      ADD \t\t\ting functions \n      SWAP2 \t\t\ting functions \n      SWAP1 \t\t\ting functions \n      PUSH 0\t\t\ting functions \n      MSTORE \t\t\ting functions \n      PUSH 20\t\t\ting functions \n      PUSH 0\t\t\ting functions \n      KECCAK256 \t\t\ting functions \n      SWAP1 \t\t\ting functions \n    tag 251\t\t\ting functions \n      JUMPDEST \t\t\ting functions \n      DUP2 \t\t\ting functions \n      SLOAD \t\t\ting functions \n      DUP2 \t\t\ting functions \n      MSTORE \t\t\ting functions \n      SWAP1 \t\t\ting functions \n      PUSH 1\t\t\ting functions \n      ADD \t\t\ting functions \n      SWAP1 \t\t\ting functions \n      PUSH 20\t\t\ting functions \n      ADD \t\t\ting functions \n      DUP1 \t\t\ting functions \n      DUP4 \t\t\ting functions \n      GT \t\t\ting functions \n      PUSH [tag] 251\t\t\ting functions \n      JUMPI \t\t\ting functions \n      DUP3 \t\t\ting functions \n      SWAP1 \t\t\ting functions \n      SUB \t\t\ting functions \n      PUSH 1F\t\t\ting functions \n      AND \t\t\ting functions \n      DUP3 \t\t\ting functions \n      ADD \t\t\ting functions \n      SWAP2 \t\t\ting functions \n    tag 249\t\t\ting functions \n      JUMPDEST \t\t\ting functions \n      POP \t\t\ting functions \n      POP \t\t\ting functions \n      POP \t\t\ting functions \n      POP \t\t\ting functions \n      POP \t\t\ting functions \n      SWAP2 \t\t\ting functions \n      POP \t\t\ting functions \n      POP \t\t\ting functions \n      SWAP1 \t\t\tns (address) {\\n    // Add you...\n      JUMP \t\t\tns (address) {\\n    // Add you...\n    tag 65\t\t\t  {\\n        return super.supp...\n      JUMPDEST \t\t\t  {\\n        return super.supp...\n      PUSH 0\t\t\t\n      PUSH [tag] 253\t\t\t\n      DUP3 \t\t\t\n      PUSH [tag] 254\t\t\t\n      JUMP \t\t\t\n    tag 253\t\t\t\n      JUMPDEST \t\t\t\n      POP \t\t\t\n      PUSH [tag] 255\t\t\t\n      DUP3 \t\t\t\n      PUSH [tag] 256\t\t\t\n      JUMP \t\t\t\n    tag 255\t\t\t\n      JUMPDEST \t\t\t\n      SWAP1 \t\t\t\n      POP \t\t\t\n      SWAP2 \t\t\t  {\\n        return super.supp...\n      SWAP1 \t\t\t  {\\n        return super.supp...\n      POP \t\t\t  {\\n        return super.supp...\n      JUMP \t\t\t  {\\n        return super.supp...\n    tag 72\t\t\t       override(AccessControlE...\n      JUMPDEST \t\t\t       override(AccessControlE...\n      PUSH [tag] 258\t\t\t ERC721Upgradeable, ERC721Enum...\n      DUP3 \t\t\tgr\n      DUP3 \t\t\teable, \n      PUSH [tag] 259\t\t\tC721Enumerab\n      PUSH [tag] 260\t\t\tC721Enumer\n      JUMP \t\t\tC721Enumerab\n    tag 259\t\t\tC721Enumerab\n      JUMPDEST \t\t\tC721Enumerab\n      PUSH [tag] 261\t\t\t ERC721U\n      JUMP \t\t\t ERC721Upgradeable, ERC721Enum...\n    tag 258\t\t\t ERC721Upgradeable, ERC721Enum...\n      JUMPDEST \t\t\t ERC721Upgradeable, ERC721Enum...\n      POP \t\t\t       override(AccessControlE...\n      POP \t\t\t       override(AccessControlE...\n      JUMP \t\t\t       override(AccessControlE...\n    tag 75\t\t\tnlyOwner {\\n        _pause();\\...\n      JUMPDEST \t\t\tnlyOwner {\\n        _pause();\\...\n      PUSH 0\t\t\tause() \n      DUP1 \t\t\twner {\\n        _unpause();\\n ...\n      PUSH [tag] 263\t\t\tnction _authorizeUpgrade(addr\n      PUSH [tag] 264\t\t\tnction _authorizeUpgrade(ad\n      JUMP \t\t\tnction _authorizeUpgrade(addr\n    tag 263\t\t\tnction _authorizeUpgrade(addr\n      JUMPDEST \t\t\tnction _authorizeUpgrade(addr\n      SWAP1 \t\t\twner {\\n        _unpause();\\n ...\n      POP \t\t\twner {\\n        _unpause();\\n ...\n      DUP1 \t\t\ta\n      PUSH 2\t\t\tation) inter\n      ADD \t\t\tation) inter\n      DUP1 \t\t\tation) internal ove\n      SLOAD \t\t\tation) internal ove\n      SWAP1 \t\t\tation) internal ove\n      POP \t\t\tation) internal ove\n      SWAP2 \t\t\tplementation) internal ove\n      POP \t\t\tplementation) internal ove\n      POP \t\t\tplementation) internal ove\n      SWAP1 \t\t\tnlyOwner {\\n        _pause();\\...\n      JUMP \t\t\tnlyOwner {\\n        _pause();\\...\n    tag 82\t\t\t\n      JUMPDEST \t\t\t\n      PUSH 0\t\t\t\n      PUSH FFFFFFFFFFFFFFFFFFFFFFFFFFFFFFFFFFFFFFFF\t\t\t\n      AND \t\t\t\n      DUP3 \t\t\t\n      PUSH FFFFFFFFFFFFFFFFFFFFFFFFFFFFFFFFFFFFFFFF\t\t\t\n      AND \t\t\t\n      SUB \t\t\t\n      PUSH [tag] 266\t\t\t\n      JUMPI \t\t\t\n      PUSH 0\t\t\t\n      PUSH 40\t\t\t\n      MLOAD \t\t\t\n      PUSH 64A0AE9200000000000000000000000000000000000000000000000000000000\t\t\t\n      DUP2 \t\t\t\n      MSTORE \t\t\t\n      PUSH 4\t\t\t\n      ADD \t\t\t\n      PUSH [tag] 267\t\t\t\n      SWAP2 \t\t\t\n      SWAP1 \t\t\t\n      PUSH [tag] 67\t\t\t\n      JUMP \t\t\t\n    tag 267\t\t\t\n      JUMPDEST \t\t\t\n      PUSH 40\t\t\t\n      MLOAD \t\t\t\n      DUP1 \t\t\t\n      SWAP2 \t\t\t\n      SUB \t\t\t\n      SWAP1 \t\t\t\n      REVERT \t\t\t\n    tag 266\t\t\t\n      JUMPDEST \t\t\t\n      PUSH 0\t\t\t\n      PUSH [tag] 268\t\t\t\n      DUP4 \t\t\t\n      DUP4 \t\t\t\n      PUSH [tag] 269\t\t\t\n      PUSH [tag] 260\t\t\t\n      JUMP \t\t\t\n    tag 269\t\t\t\n      JUMPDEST \t\t\t\n      PUSH [tag] 270\t\t\t\n      JUMP \t\t\t\n    tag 268\t\t\t\n      JUMPDEST \t\t\t\n      SWAP1 \t\t\t\n      POP \t\t\t\n      DUP4 \t\t\t\n      PUSH FFFFFFFFFFFFFFFFFFFFFFFFFFFFFFFFFFFFFFFF\t\t\t\n      AND \t\t\t\n      DUP2 \t\t\t\n      PUSH FFFFFFFFFFFFFFFFFFFFFFFFFFFFFFFFFFFFFFFF\t\t\t\n      AND \t\t\t\n      EQ \t\t\t\n      PUSH [tag] 271\t\t\t\n      JUMPI \t\t\t\n      DUP4 \t\t\t\n      DUP3 \t\t\t\n      DUP3 \t\t\t\n      PUSH 40\t\t\t\n      MLOAD \t\t\t\n      PUSH 64283D7B00000000000000000000000000000000000000000000000000000000\t\t\t\n      DUP2 \t\t\t\n      MSTORE \t\t\t\n      PUSH 4\t\t\t\n      ADD \t\t\t\n      PUSH [tag] 272\t\t\t\n      SWAP4 \t\t\t\n      SWAP3 \t\t\t\n      SWAP2 \t\t\t\n      SWAP1 \t\t\t\n      PUSH [tag] 273\t\t\t\n      JUMP \t\t\t\n    tag 272\t\t\t\n      JUMPDEST \t\t\t\n      PUSH 40\t\t\t\n      MLOAD \t\t\t\n      DUP1 \t\t\t\n      SWAP2 \t\t\t\n      SUB \t\t\t\n      SWAP1 \t\t\t\n      REVERT \t\t\t\n    tag 271\t\t\t\n      JUMPDEST \t\t\t\n      POP \t\t\t\n      POP \t\t\t\n      POP \t\t\t\n      POP \t\t\t\n      JUMP \t\t\t\n    tag 87\t\t\tdeable)\\n        returns (bool...\n      JUMPDEST \t\t\tdeable)\\n        returns (bool...\n      PUSH 0\t\t\tsInterf\n      DUP1 \t\t\teId);\\n    }\\n}\\n\n      PUSH [tag] 275\t\t\t\n      PUSH [tag] 276\t\t\t\n      JUMP \t\t\t\n    tag 275\t\t\t\n      JUMPDEST \t\t\t\n      SWAP1 \t\t\teId);\\n    }\\n}\\n\n      POP \t\t\teId);\\n    }\\n}\\n\n      DUP1 \t\t\t\n      PUSH 0\t\t\t\n      ADD \t\t\t\n      PUSH 0\t\t\t\n      DUP5 \t\t\t\n      DUP2 \t\t\t\n      MSTORE \t\t\t\n      PUSH 20\t\t\t\n      ADD \t\t\t\n      SWAP1 \t\t\t\n      DUP2 \t\t\t\n      MSTORE \t\t\t\n      PUSH 20\t\t\t\n      ADD \t\t\t\n      PUSH 0\t\t\t\n      KECCAK256 \t\t\t\n      PUSH 1\t\t\t\n      ADD \t\t\t\n      SLOAD \t\t\t\n      SWAP2 \t\t\t\n      POP \t\t\t\n      POP \t\t\t\n      SWAP2 \t\t\tdeable)\\n        returns (bool...\n      SWAP1 \t\t\tdeable)\\n        returns (bool...\n      POP \t\t\tdeable)\\n        returns (bool...\n      JUMP \t\t\tdeable)\\n        returns (bool...\n    tag 94\t\t\t\\n    function safeMint(addres...\n      JUMPDEST \t\t\t\\n    function safeMint(addres...\n      PUSH 0\t\t\t56 toke\n      DUP1 \t\t\td = _ne\n      PUSH 0\t\t\t\\n        _safeMint(to, t\n      PUSH [tag] 278\t\t\tnId);\\n        _setTo\n      PUSH [tag] 279\t\t\tnId);\\n        _set\n      JUMP \t\t\tnId);\\n        _setTo\n    tag 278\t\t\tnId);\\n        _setTo\n      JUMPDEST \t\t\tnId);\\n        _setTo\n      SWAP1 \t\t\t\\n        _safeMint(to, tokenI...\n      POP \t\t\t\\n        _safeMint(to, tokenI...\n      PUSH 0\t\t\tenId, uri);\\n    }\\n\\n    fun\n      DUP2 \t\t\to\n      PUSH 1\t\t\ton _ownerOf(uint256\n      ADD \t\t\ton _ownerOf(uint256\n      PUSH 0\t\t\ton _ownerOf(uint256 tokenId)\n      DUP8 \t\t\ttokenId\n      DUP2 \t\t\ton _ownerOf(uint256 tokenId)\n      MSTORE \t\t\ton _ownerOf(uint256 tokenId)\n      PUSH 20\t\t\ton _ownerOf(uint256 tokenId)\n      ADD \t\t\ton _ownerOf(uint256 tokenId)\n      SWAP1 \t\t\ton _ownerOf(uint256 tokenId)\n      DUP2 \t\t\ton _ownerOf(uint256 tokenId)\n      MSTORE \t\t\ton _ownerOf(uint256 tokenId)\n      PUSH 20\t\t\ton _ownerOf(uint256 tokenId)\n      ADD \t\t\ton _ownerOf(uint256 tokenId)\n      PUSH 0\t\t\ton _ownerOf(uint256 tokenId)\n      KECCAK256 \t\t\ton _ownerOf(uint256 tokenId)\n      PUSH 40\t\t\tenId, uri);\\n    }\\n\\n    func...\n      MLOAD \t\t\tenId, uri);\\n    }\\n\\n    func...\n      DUP1 \t\t\tenId, uri);\\n    }\\n\\n    func...\n      PUSH 40\t\t\tenId, uri);\\n    }\\n\\n    func...\n      ADD \t\t\tenId, uri);\\n    }\\n\\n    func...\n      PUSH 40\t\t\tenId, uri);\\n    }\\n\\n    func...\n      MSTORE \t\t\tenId, uri);\\n    }\\n\\n    func...\n      SWAP1 \t\t\tenId, uri);\\n    }\\n\\n    func...\n      DUP2 \t\t\tenId, uri);\\n    }\\n\\n    func...\n      PUSH 0\t\t\tenId, uri);\\n    }\\n\\n    func...\n      DUP3 \t\t\tenId, uri);\\n    }\\n\\n    func...\n      ADD \t\t\tenId, uri);\\n    }\\n\\n    func...\n      PUSH 0\t\t\tenId, uri);\\n    }\\n\\n    func...\n      SWAP1 \t\t\tenId, uri);\\n    }\\n\\n    func...\n      SLOAD \t\t\tenId, uri);\\n    }\\n\\n    func...\n      SWAP1 \t\t\tenId, uri);\\n    }\\n\\n    func...\n      PUSH 100\t\t\tenId, uri);\\n    }\\n\\n    func...\n      EXP \t\t\tenId, uri);\\n    }\\n\\n    func...\n      SWAP1 \t\t\tenId, uri);\\n    }\\n\\n    func...\n      DIV \t\t\tenId, uri);\\n    }\\n\\n    func...\n      PUSH FFFFFFFFFFFFFFFFFFFFFFFFFFFFFFFFFFFFFFFF\t\t\tenId, uri);\\n    }\\n\\n    func...\n      AND \t\t\tenId, uri);\\n    }\\n\\n    func...\n      PUSH FFFFFFFFFFFFFFFFFFFFFFFFFFFFFFFFFFFFFFFF\t\t\tenId, uri);\\n    }\\n\\n    func...\n      AND \t\t\tenId, uri);\\n    }\\n\\n    func...\n      PUSH FFFFFFFFFFFFFFFFFFFFFFFFFFFFFFFFFFFFFFFF\t\t\tenId, uri);\\n    }\\n\\n    func...\n      AND \t\t\tenId, uri);\\n    }\\n\\n    func...\n      DUP2 \t\t\tenId, uri);\\n    }\\n\\n    func...\n      MSTORE \t\t\tenId, uri);\\n    }\\n\\n    func...\n      PUSH 20\t\t\tenId, uri);\\n    }\\n\\n    func...\n      ADD \t\t\tenId, uri);\\n    }\\n\\n    func...\n      PUSH 0\t\t\tenId, uri);\\n    }\\n\\n    func...\n      DUP3 \t\t\tenId, uri);\\n    }\\n\\n    func...\n      ADD \t\t\tenId, uri);\\n    }\\n\\n    func...\n      PUSH 14\t\t\tenId, uri);\\n    }\\n\\n    func...\n      SWAP1 \t\t\tenId, uri);\\n    }\\n\\n    func...\n      SLOAD \t\t\tenId, uri);\\n    }\\n\\n    func...\n      SWAP1 \t\t\tenId, uri);\\n    }\\n\\n    func...\n      PUSH 100\t\t\tenId, uri);\\n    }\\n\\n    func...\n      EXP \t\t\tenId, uri);\\n    }\\n\\n    func...\n      SWAP1 \t\t\tenId, uri);\\n    }\\n\\n    func...\n      DIV \t\t\tenId, uri);\\n    }\\n\\n    func...\n      PUSH FFFFFFFFFFFFFFFFFFFFFFFF\t\t\tenId, uri);\\n    }\\n\\n    func...\n      AND \t\t\tenId, uri);\\n    }\\n\\n    func...\n      PUSH FFFFFFFFFFFFFFFFFFFFFFFF\t\t\tenId, uri);\\n    }\\n\\n    func...\n      AND \t\t\tenId, uri);\\n    }\\n\\n    func...\n      PUSH FFFFFFFFFFFFFFFFFFFFFFFF\t\t\tenId, uri);\\n    }\\n\\n    func...\n      AND \t\t\tenId, uri);\\n    }\\n\\n    func...\n      DUP2 \t\t\tenId, uri);\\n    }\\n\\n    func...\n      MSTORE \t\t\tenId, uri);\\n    }\\n\\n    func...\n      POP \t\t\tenId, uri);\\n    }\\n\\n    func...\n      POP \t\t\tenId, uri);\\n    }\\n\\n    func...\n      SWAP1 \t\t\tenId, uri);\\n    }\\n\\n    func...\n      POP \t\t\tenId, uri);\\n    }\\n\\n    func...\n      PUSH 0\t\t\tE\n      PUSH FFFFFFFFFFFFFFFFFFFFFFFFFFFFFFFFFFFFFFFF\t\t\toverride(ERC721Upgradeable, ER\n      AND \t\t\toverride(ERC721Upgradeable, ER\n      DUP2 \t\t\toverrid\n      PUSH 0\t\t\toverride(ERC721U\n      ADD \t\t\toverride(ERC721U\n      MLOAD \t\t\toverride(ERC721U\n      PUSH FFFFFFFFFFFFFFFFFFFFFFFFFFFFFFFFFFFFFFFF\t\t\toverride(ERC721Upgradeable, ER\n      AND \t\t\toverride(ERC721Upgradeable, ER\n      SUB \t\t\toverride(ERC721Upgradeable, ER\n      PUSH [tag] 280\t\t\tiew override(ERC721Upgradeable...\n      JUMPI \t\t\tiew override(ERC721Upgradeable...\n      DUP2 \t\t\t)\n      PUSH 0\t\t\t) returns (address) {\n      ADD \t\t\t) returns (address) {\n      PUSH 40\t\t\tpgradeable) returns (address) ...\n      MLOAD \t\t\tpgradeable) returns (address) ...\n      DUP1 \t\t\tpgradeable) returns (address) ...\n      PUSH 40\t\t\tpgradeable) returns (address) ...\n      ADD \t\t\tpgradeable) returns (address) ...\n      PUSH 40\t\t\tpgradeable) returns (address) ...\n      MSTORE \t\t\tpgradeable) returns (address) ...\n      SWAP1 \t\t\tpgradeable) returns (address) ...\n      DUP2 \t\t\tpgradeable) returns (address) ...\n      PUSH 0\t\t\tpgradeable) returns (address) ...\n      DUP3 \t\t\tpgradeable) returns (address) ...\n      ADD \t\t\tpgradeable) returns (address) ...\n      PUSH 0\t\t\tpgradeable) returns (address) ...\n      SWAP1 \t\t\tpgradeable) returns (address) ...\n      SLOAD \t\t\tpgradeable) returns (address) ...\n      SWAP1 \t\t\tpgradeable) returns (address) ...\n      PUSH 100\t\t\tpgradeable) returns (address) ...\n      EXP \t\t\tpgradeable) returns (address) ...\n      SWAP1 \t\t\tpgradeable) returns (address) ...\n      DIV \t\t\tpgradeable) returns (address) ...\n      PUSH FFFFFFFFFFFFFFFFFFFFFFFFFFFFFFFFFFFFFFFF\t\t\tpgradeable) returns (address) ...\n      AND \t\t\tpgradeable) returns (address) ...\n      PUSH FFFFFFFFFFFFFFFFFFFFFFFFFFFFFFFFFFFFFFFF\t\t\tpgradeable) returns (address) ...\n      AND \t\t\tpgradeable) returns (address) ...\n      PUSH FFFFFFFFFFFFFFFFFFFFFFFFFFFFFFFFFFFFFFFF\t\t\tpgradeable) returns (address) ...\n      AND \t\t\tpgradeable) returns (address) ...\n      DUP2 \t\t\tpgradeable) returns (address) ...\n      MSTORE \t\t\tpgradeable) returns (address) ...\n      PUSH 20\t\t\tpgradeable) returns (address) ...\n      ADD \t\t\tpgradeable) returns (address) ...\n      PUSH 0\t\t\tpgradeable) returns (address) ...\n      DUP3 \t\t\tpgradeable) returns (address) ...\n      ADD \t\t\tpgradeable) returns (address) ...\n      PUSH 14\t\t\tpgradeable) returns (address) ...\n      SWAP1 \t\t\tpgradeable) returns (address) ...\n      SLOAD \t\t\tpgradeable) returns (address) ...\n      SWAP1 \t\t\tpgradeable) returns (address) ...\n      PUSH 100\t\t\tpgradeable) returns (address) ...\n      EXP \t\t\tpgradeable) returns (address) ...\n      SWAP1 \t\t\tpgradeable) returns (address) ...\n      DIV \t\t\tpgradeable) returns (address) ...\n      PUSH FFFFFFFFFFFFFFFFFFFFFFFF\t\t\tpgradeable) returns (address) ...\n      AND \t\t\tpgradeable) returns (address) ...\n      PUSH FFFFFFFFFFFFFFFFFFFFFFFF\t\t\tpgradeable) returns (address) ...\n      AND \t\t\tpgradeable) returns (address) ...\n      PUSH FFFFFFFFFFFFFFFFFFFFFFFF\t\t\tpgradeable) returns (address) ...\n      AND \t\t\tpgradeable) returns (address) ...\n      DUP2 \t\t\tpgradeable) returns (address) ...\n      MSTORE \t\t\tpgradeable) returns (address) ...\n      POP \t\t\tpgradeable) returns (address) ...\n      POP \t\t\tpgradeable) returns (address) ...\n      SWAP1 \t\t\tpgradeable) returns (address) ...\n      POP \t\t\tpgradeable) returns (address) ...\n    tag 280\t\t\tiew override(ERC721Upgradeable...\n      JUMPDEST \t\t\tiew override(ERC721Upgradeable...\n      PUSH 0\t\t\tementation logic here\n      PUSH [tag] 281\t\t\tnId);\\n}\\n\\n    // T\n      PUSH [tag] 282\t\t\tnId);\\n}\\n\\n    //\n      JUMP \t\t\tnId);\\n}\\n\\n    // T\n    tag 281\t\t\tnId);\\n}\\n\\n    // T\n      JUMPDEST \t\t\tnId);\\n}\\n\\n    // T\n      PUSH FFFFFFFFFFFFFFFFFFFFFFFF\t\t\t  return ERC721Upgradeable._ow...\n      AND \t\t\t  return ERC721Upgradeable._ow...\n      DUP3 \t\t\t21Upgra\n      PUSH 20\t\t\t21Upgradeable._ownerOf(\n      ADD \t\t\t21Upgradeable._ownerOf(\n      MLOAD \t\t\t21Upgradeable._ownerOf(\n      PUSH FFFFFFFFFFFFFFFFFFFFFFFF\t\t\t return ERC721Upgradeable._own...\n      AND \t\t\t return ERC721Upgradeable._own...\n      DUP8 \t\t\t return E\n      PUSH [tag] 283\t\t\t return ERC721Upgradeable._own...\n      SWAP2 \t\t\t return ERC721Upgradeable._own...\n      SWAP1 \t\t\t return ERC721Upgradeable._own...\n      PUSH [tag] 284\t\t\t return ERC721Upgradeable._own...\n      JUMP \t\t\t return ERC721Upgradeable._own...\n    tag 283\t\t\t return ERC721Upgradeable._own...\n      JUMPDEST \t\t\t return ERC721Upgradeable._own...\n      PUSH [tag] 285\t\t\t  return ERC721Upgradeable._ow...\n      SWAP2 \t\t\t  return ERC721Upgradeable._ow...\n      SWAP1 \t\t\t  return ERC721Upgradeable._ow...\n      PUSH [tag] 286\t\t\t  return ERC721Upgradeable._ow...\n      JUMP \t\t\t  return ERC721Upgradeable._ow...\n    tag 285\t\t\t  return ERC721Upgradeable._ow...\n      JUMPDEST \t\t\t  return ERC721Upgradeable._ow...\n      SWAP1 \t\t\tementation logic here\\n    ret...\n      POP \t\t\tementation logic here\\n    ret...\n      DUP2 \t\t\tons are\n      PUSH 0\t\t\tons are override\n      ADD \t\t\tons are override\n      MLOAD \t\t\tons are override\n      DUP2 \t\t\trequired by S\n      SWAP5 \t\t\tg functions are overrides requ...\n      POP \t\t\tg functions are overrides requ...\n      SWAP5 \t\t\tg functions are overrides requ...\n      POP \t\t\tg functions are overrides requ...\n      POP \t\t\tg functions are overrides requ...\n      POP \t\t\tg functions are overrides requ...\n      POP \t\t\tg functions are overrides requ...\n      SWAP3 \t\t\t\\n    function safeMint(addres...\n      POP \t\t\t\\n    function safeMint(addres...\n      SWAP3 \t\t\t\\n    function safeMint(addres...\n      SWAP1 \t\t\t\\n    function safeMint(addres...\n      POP \t\t\t\\n    function safeMint(addres...\n      JUMP \t\t\t\\n    function safeMint(addres...\n    tag 101\t\t\t\n      JUMPDEST \t\t\t\n      PUSH [tag] 287\t\t\t\n      DUP3 \t\t\t\n      PUSH [tag] 87\t\t\t\n      JUMP \t\t\t\n    tag 287\t\t\t\n      JUMPDEST \t\t\t\n      PUSH [tag] 289\t\t\twImplementation)\n      DUP2 \t\t\ttion\n      PUSH [tag] 290\t\t\twImplement\n      JUMP \t\t\twImplementation)\n    tag 289\t\t\twImplementation)\n      JUMPDEST \t\t\twImplementation)\n      PUSH [tag] 292\t\t\t\n      DUP4 \t\t\t\n      DUP4 \t\t\t\n      PUSH [tag] 293\t\t\t\n      JUMP \t\t\t\n    tag 292\t\t\t\n      JUMPDEST \t\t\t\n      POP \t\t\t\n      POP \t\t\t\n      POP \t\t\t\n      POP \t\t\t\n      JUMP \t\t\t\n    tag 105\t\t\t       _disableInitializers();...\n      JUMPDEST \t\t\t       _disableInitializers();...\n      PUSH 0\t\t\tializer\n      DUP1 \t\t\t      __ERC721_init(\"SCUMWalke...\n      PUSH [tag] 295\t\t\tSW\");\\n        __ERC721Enumera\n      PUSH [tag] 264\t\t\tSW\");\\n        __ERC721Enume\n      JUMP \t\t\tSW\");\\n        __ERC721Enumera\n    tag 295\t\t\tSW\");\\n        __ERC721Enumera\n      JUMPDEST \t\t\tSW\");\\n        __ERC721Enumera\n      SWAP1 \t\t\t      __ERC721_init(\"SCUMWalke...\n      POP \t\t\t      __ERC721_init(\"SCUMWalke...\n      PUSH [tag] 296\t\t\tRC721URIStorage_\n      DUP5 \t\t\torage\n      PUSH [tag] 153\t\t\tRC721URIS\n      JUMP \t\t\tRC721URIStorage_\n    tag 296\t\t\tRC721URIStorage_\n      JUMPDEST \t\t\tRC721URIStorage_\n      DUP4 \t\t\t     \n      LT \t\t\t      __ERC721URIStorage_\n      PUSH [tag] 297\t\t\t;\\n        __ERC721URIStorage_...\n      JUMPI \t\t\t;\\n        __ERC721URIStorage_...\n      DUP4 \t\t\t   __\n      DUP4 \t\t\tnable\n      PUSH 40\t\t\t1Pausable_init();\\n        __O...\n      MLOAD \t\t\t1Pausable_init();\\n        __O...\n      PUSH A57D13DC00000000000000000000000000000000000000000000000000000000\t\t\t1Pausable_init();\\n        __O...\n      DUP2 \t\t\t1Pausable_init();\\n        __O...\n      MSTORE \t\t\t1Pausable_init();\\n        __O...\n      PUSH 4\t\t\t1Pausable_init();\\n        __O...\n      ADD \t\t\t1Pausable_init();\\n        __O...\n      PUSH [tag] 298\t\t\t1Pausable_init();\\n        __O...\n      SWAP3 \t\t\t1Pausable_init();\\n        __O...\n      SWAP2 \t\t\t1Pausable_init();\\n        __O...\n      SWAP1 \t\t\t1Pausable_init();\\n        __O...\n      PUSH [tag] 96\t\t\t1Pausable_init();\\n        __O...\n      JUMP \t\t\t1Pausable_init();\\n        __O...\n    tag 298\t\t\t1Pausable_init();\\n        __O...\n      JUMPDEST \t\t\t1Pausable_init();\\n        __O...\n      PUSH 40\t\t\t1Pausable_init();\\n        __O...\n      MLOAD \t\t\t1Pausable_init();\\n        __O...\n      DUP1 \t\t\t1Pausable_init();\\n        __O...\n      SWAP2 \t\t\t1Pausable_init();\\n        __O...\n      SUB \t\t\t1Pausable_init();\\n        __O...\n      SWAP1 \t\t\t1Pausable_init();\\n        __O...\n      REVERT \t\t\t1Pausable_init();\\n        __O...\n    tag 297\t\t\t;\\n        __ERC721URIStorage_...\n      JUMPDEST \t\t\t;\\n        __ERC721URIStorage_...\n      DUP1 \t\t\t \n      PUSH 0\t\t\t __UUPSUpgrade\n      ADD \t\t\t __UUPSUpgrade\n      PUSH 0\t\t\t __UUPSUpgradeable_in\n      DUP6 \t\t\tble_i\n      PUSH FFFFFFFFFFFFFFFFFFFFFFFFFFFFFFFFFFFFFFFF\t\t\t __UUPSUpgradeable_in\n      AND \t\t\t __UUPSUpgradeable_in\n      PUSH FFFFFFFFFFFFFFFFFFFFFFFFFFFFFFFFFFFFFFFF\t\t\t __UUPSUpgradeable_in\n      AND \t\t\t __UUPSUpgradeable_in\n      DUP2 \t\t\t __UUPSUpgradeable_in\n      MSTORE \t\t\t __UUPSUpgradeable_in\n      PUSH 20\t\t\t __UUPSUpgradeable_in\n      ADD \t\t\t __UUPSUpgradeable_in\n      SWAP1 \t\t\t __UUPSUpgradeable_in\n      DUP2 \t\t\t __UUPSUpgradeable_in\n      MSTORE \t\t\t __UUPSUpgradeable_in\n      PUSH 20\t\t\t __UUPSUpgradeable_in\n      ADD \t\t\t __UUPSUpgradeable_in\n      PUSH 0\t\t\t __UUPSUpgradeable_in\n      KECCAK256 \t\t\t __UUPSUpgradeable_in\n      PUSH 0\t\t\t __UUPSUpgradeable_init();\\n \n      DUP5 \t\t\tt();\\n\n      DUP2 \t\t\t __UUPSUpgradeable_init();\\n \n      MSTORE \t\t\t __UUPSUpgradeable_init();\\n \n      PUSH 20\t\t\t __UUPSUpgradeable_init();\\n \n      ADD \t\t\t __UUPSUpgradeable_init();\\n \n      SWAP1 \t\t\t __UUPSUpgradeable_init();\\n \n      DUP2 \t\t\t __UUPSUpgradeable_init();\\n \n      MSTORE \t\t\t __UUPSUpgradeable_init();\\n \n      PUSH 20\t\t\t __UUPSUpgradeable_init();\\n \n      ADD \t\t\t __UUPSUpgradeable_init();\\n \n      PUSH 0\t\t\t __UUPSUpgradeable_init();\\n \n      KECCAK256 \t\t\t __UUPSUpgradeable_init();\\n \n      SLOAD \t\t\t __UUPSUpgradeable_init();\\n \n      SWAP2 \t\t\t        __UUPSUpgradeable_init...\n      POP \t\t\t        __UUPSUpgradeable_init...\n      POP \t\t\t        __UUPSUpgradeable_init...\n      SWAP3 \t\t\t       _disableInitializers();...\n      SWAP2 \t\t\t       _disableInitializers();...\n      POP \t\t\t       _disableInitializers();...\n      POP \t\t\t       _disableInitializers();...\n      JUMP \t\t\t       _disableInitializers();...\n    tag 110\t\t\t\n      JUMPDEST \t\t\t\n      PUSH [tag] 300\t\t\t\n      PUSH [tag] 260\t\t\t\n      JUMP \t\t\t\n    tag 300\t\t\t\n      JUMPDEST \t\t\t\n      PUSH FFFFFFFFFFFFFFFFFFFFFFFFFFFFFFFFFFFFFFFF\t\t\t\n      AND \t\t\t\n      DUP2 \t\t\t\n      PUSH FFFFFFFFFFFFFFFFFFFFFFFFFFFFFFFFFFFFFFFF\t\t\t\n      AND \t\t\t\n      EQ \t\t\t\n      PUSH [tag] 301\t\t\t\n      JUMPI \t\t\t\n      PUSH 40\t\t\t\n      MLOAD \t\t\t\n      PUSH 6697B23200000000000000000000000000000000000000000000000000000000\t\t\t\n      DUP2 \t\t\t\n      MSTORE \t\t\t\n      PUSH 4\t\t\t\n      ADD \t\t\t\n      PUSH 40\t\t\t\n      MLOAD \t\t\t\n      DUP1 \t\t\t\n      SWAP2 \t\t\t\n      SUB \t\t\t\n      SWAP1 \t\t\t\n      REVERT \t\t\t\n    tag 301\t\t\t\n      JUMPDEST \t\t\t\n      PUSH [tag] 302\t\t\t\n      DUP3 \t\t\t\n      DUP3 \t\t\t\n      PUSH [tag] 303\t\t\t\n      JUMP \t\t\t\n    tag 302\t\t\t\n      JUMPDEST \t\t\t\n      POP \t\t\t\n      POP \t\t\t\n      POP \t\t\t\n      JUMP \t\t\t\n    tag 113\t\t\tfunction unpause() public only...\n      JUMPDEST \t\t\tfunction unpause() public only...\n      PUSH [tag] 305\t\t\teable, ERC721\n      PUSH [tag] 306\t\t\teable, ERC7\n      JUMP \t\t\teable, ERC721\n    tag 305\t\t\teable, ERC721\n      JUMPDEST \t\t\teable, ERC721\n      PUSH [tag] 308\t\t\t_unpause()\n      PUSH [tag] 309\t\t\t_unpause\n      JUMP \t\t\t_unpause()\n    tag 308\t\t\t_unpause()\n      JUMPDEST \t\t\t_unpause()\n      JUMP \t\t\tfunction unpause() public only...\n    tag 117\t\t\t\n      JUMPDEST \t\t\t\n      PUSH [tag] 311\t\t\t\n      DUP4 \t\t\t\n      DUP4 \t\t\t\n      DUP4 \t\t\t\n      PUSH 40\t\t\t\n      MLOAD \t\t\t\n      DUP1 \t\t\t\n      PUSH 20\t\t\t\n      ADD \t\t\t\n      PUSH 40\t\t\t\n      MSTORE \t\t\t\n      DUP1 \t\t\t\n      PUSH 0\t\t\t\n      DUP2 \t\t\t\n      MSTORE \t\t\t\n      POP \t\t\t\n      PUSH [tag] 206\t\t\t\n      JUMP \t\t\t\n    tag 311\t\t\t\n      JUMPDEST \t\t\t\n      POP \t\t\t\n      POP \t\t\t\n      POP \t\t\t\n      JUMP \t\t\t\n    tag 121\t\t\tnsions/ERC721EnumerableUpgrade...\n      JUMPDEST \t\t\tnsions/ERC721EnumerableUpgrade...\n      PUSH [tag] 313\t\t\tzeppelin/contracts-upgradeable...\n      PUSH 0\t\t\tt\n      DUP3 \t\t\tpgradea\n      PUSH [tag] 314\t\t\te@5.0.0/toke\n      PUSH [tag] 260\t\t\te@5.0.0/to\n      JUMP \t\t\te@5.0.0/toke\n    tag 314\t\t\te@5.0.0/toke\n      JUMPDEST \t\t\te@5.0.0/toke\n      PUSH [tag] 270\t\t\tzeppeli\n      JUMP \t\t\tzeppelin/contracts-upgradeable...\n    tag 313\t\t\tzeppelin/contracts-upgradeable...\n      JUMPDEST \t\t\tzeppelin/contracts-upgradeable...\n      POP \t\t\tzeppelin/contracts-upgradeable...\n      POP \t\t\tnsions/ERC721EnumerableUpgrade...\n      JUMP \t\t\tnsions/ERC721EnumerableUpgrade...\n    tag 125\t\t\t   {\\n        super._increaseB...\n      JUMPDEST \t\t\t   {\\n        super._increaseB...\n      PUSH [tag] 316\t\t\tdisableInitia\n      PUSH [tag] 317\t\t\tdisableInit\n      JUMP \t\t\tdisableInitia\n    tag 316\t\t\tdisableInitia\n      JUMPDEST \t\t\tdisableInitia\n      PUSH [tag] 319\t\t\tory) {\\n        return _baseTo...\n      DUP3 \t\t\turn _baseTokenURI\n      PUSH [tag] 320\t\t\tory) {\\n        re\n      JUMP \t\t\tory) {\\n        return _baseTo...\n    tag 319\t\t\tory) {\\n        return _baseTo...\n      JUMPDEST \t\t\tory) {\\n        return _baseTo...\n      PUSH [tag] 321\t\t\t \\n    function tokenURI(uint2...\n      DUP3 \t\t\tI(uint256 tokenId\n      DUP3 \t\t\t    \n      PUSH [tag] 322\t\t\t \\n    function tokenU\n      JUMP \t\t\t \\n    function tokenURI(uint2...\n    tag 321\t\t\t \\n    function tokenURI(uint2...\n      JUMPDEST \t\t\t \\n    function tokenURI(uint2...\n      POP \t\t\t   {\\n        super._increaseB...\n      POP \t\t\t   {\\n        super._increaseB...\n      JUMP \t\t\t   {\\n        super._increaseB...\n    tag 129\t\t\tc onlyOwner {\\n        uint256...\n      JUMPDEST \t\t\tc onlyOwner {\\n        uint256...\n      PUSH 0\t\t\tafeMint\n      DUP1 \t\t\t);\\n        _setTokenURI(token...\n      PUSH [tag] 324\t\t\t);\\n    }\\n\\n    function _own...\n      PUSH [tag] 264\t\t\t);\\n    }\\n\\n    function _own\n      JUMP \t\t\t);\\n    }\\n\\n    function _own...\n    tag 324\t\t\t);\\n    }\\n\\n    function _own...\n      JUMPDEST \t\t\t);\\n    }\\n\\n    function _own...\n      SWAP1 \t\t\t);\\n        _setTokenURI(token...\n      POP \t\t\t);\\n        _setTokenURI(token...\n      PUSH [tag] 325\t\t\ternal view ov\n      PUSH [tag] 75\t\t\ternal view \n      JUMP \t\t\ternal view ov\n    tag 325\t\t\ternal view ov\n      JUMPDEST \t\t\ternal view ov\n      DUP4 \t\t\tenId)\n      LT \t\t\tenId) internal view ov\n      PUSH [tag] 326\t\t\t tokenId) internal view overri...\n      JUMPI \t\t\t tokenId) internal view overri...\n      PUSH 0\t\t\t)\n      DUP4 \t\t\tturns\n      PUSH 40\t\t\te, ERC721ConsecutiveUpgradeabl...\n      MLOAD \t\t\te, ERC721ConsecutiveUpgradeabl...\n      PUSH A57D13DC00000000000000000000000000000000000000000000000000000000\t\t\te, ERC721ConsecutiveUpgradeabl...\n      DUP2 \t\t\te, ERC721ConsecutiveUpgradeabl...\n      MSTORE \t\t\te, ERC721ConsecutiveUpgradeabl...\n      PUSH 4\t\t\te, ERC721ConsecutiveUpgradeabl...\n      ADD \t\t\te, ERC721ConsecutiveUpgradeabl...\n      PUSH [tag] 327\t\t\te, ERC721ConsecutiveUpgradeabl...\n      SWAP3 \t\t\te, ERC721ConsecutiveUpgradeabl...\n      SWAP2 \t\t\te, ERC721ConsecutiveUpgradeabl...\n      SWAP1 \t\t\te, ERC721ConsecutiveUpgradeabl...\n      PUSH [tag] 96\t\t\te, ERC721ConsecutiveUpgradeabl...\n      JUMP \t\t\te, ERC721ConsecutiveUpgradeabl...\n    tag 327\t\t\te, ERC721ConsecutiveUpgradeabl...\n      JUMPDEST \t\t\te, ERC721ConsecutiveUpgradeabl...\n      PUSH 40\t\t\te, ERC721ConsecutiveUpgradeabl...\n      MLOAD \t\t\te, ERC721ConsecutiveUpgradeabl...\n      DUP1 \t\t\te, ERC721ConsecutiveUpgradeabl...\n      SWAP2 \t\t\te, ERC721ConsecutiveUpgradeabl...\n      SUB \t\t\te, ERC721ConsecutiveUpgradeabl...\n      SWAP1 \t\t\te, ERC721ConsecutiveUpgradeabl...\n      REVERT \t\t\te, ERC721ConsecutiveUpgradeabl...\n    tag 326\t\t\t tokenId) internal view overri...\n      JUMPDEST \t\t\t tokenId) internal view overri...\n      DUP1 \t\t\t \n      PUSH 2\t\t\t implementat\n      ADD \t\t\t implementat\n      DUP4 \t\t\ton lo\n      DUP2 \t\t\t implementation log\n      SLOAD \t\t\t implementation log\n      DUP2 \t\t\t implementation log\n      LT \t\t\t implementation log\n      PUSH [tag] 328\t\t\t implementation log\n      JUMPI \t\t\t implementation log\n      PUSH [tag] 329\t\t\t implementation log\n      PUSH [tag] 330\t\t\t implementation log\n      JUMP \t\t\t implementation log\n    tag 329\t\t\t implementation log\n      JUMPDEST \t\t\t implementation log\n    tag 328\t\t\t implementation log\n      JUMPDEST \t\t\t implementation log\n      SWAP1 \t\t\t implementation log\n      PUSH 0\t\t\t implementation log\n      MSTORE \t\t\t implementation log\n      PUSH 20\t\t\t implementation log\n      PUSH 0\t\t\t implementation log\n      KECCAK256 \t\t\t implementation log\n      ADD \t\t\t implementation log\n      SLOAD \t\t\t implementation log\n      SWAP2 \t\t\tdd your implementation log\n      POP \t\t\tdd your implementation log\n      POP \t\t\tdd your implementation log\n      SWAP2 \t\t\tc onlyOwner {\\n        uint256...\n      SWAP1 \t\t\tc onlyOwner {\\n        uint256...\n      POP \t\t\tc onlyOwner {\\n        uint256...\n      JUMP \t\t\tc onlyOwner {\\n        uint256...\n    tag 133\t\t\ted by Solidity.\\n\\n    functio...\n      JUMPDEST \t\t\ted by Solidity.\\n\\n    functio...\n      PUSH 0\t\t\tdress a\n      PUSH [tag] 333\t\t\tialowner);\\n        _\n      PUSH [tag] 334\t\t\tialowner);\\n       \n      JUMP \t\t\tialowner);\\n        _\n    tag 333\t\t\tialowner);\\n        _\n      JUMPDEST \t\t\tialowner);\\n        _\n      PUSH 360894A13BA1A3210667C828492DB98DCA3E2076CC3735A920A3CA505D382BBC\t\t\tadeable.sol\";\\nimport \"@openze...\n      PUSH 0\t\t\tal\\n        override(ERC721Con...\n      SHL \t\t\tal\\n        override(ERC721Con...\n      SWAP1 \t\t\t internal\\n        override(ER...\n      POP \t\t\t internal\\n        override(ER...\n      SWAP1 \t\t\ted by Solidity.\\n\\n    functio...\n      JUMP \t\t\ted by Solidity.\\n\\n    functio...\n    tag 139\t\t\tfunction setBaseURI(string mem...\n      JUMPDEST \t\t\tfunction setBaseURI(string mem...\n      PUSH [tag] 337\t\t\teable, ERC721\n      PUSH [tag] 306\t\t\teable, ERC7\n      JUMP \t\t\teable, ERC721\n    tag 337\t\t\teable, ERC721\n      JUMPDEST \t\t\teable, ERC721\n      DUP1 \t\t\tbaseURI\n      PUSH 1\t\t\t_baseTokenURI\n      SWAP1 \t\t\t_baseTokenURI = baseURI\n      DUP2 \t\t\t_baseTokenURI = baseURI\n      PUSH [tag] 339\t\t\t_baseTokenURI = baseURI\n      SWAP2 \t\t\t_baseTokenURI = baseURI\n      SWAP1 \t\t\t_baseTokenURI = baseURI\n      PUSH [tag] 340\t\t\t_baseTokenURI = baseURI\n      JUMP \t\t\t_baseTokenURI = baseURI\n    tag 339\t\t\t_baseTokenURI = baseURI\n      JUMPDEST \t\t\t_baseTokenURI = baseURI\n      POP \t\t\t_baseTokenURI = baseURI\n      POP \t\t\tfunction setBaseURI(string mem...\n      JUMP \t\t\tfunction setBaseURI(string mem...\n    tag 142\t\t\tion initialize(address initial...\n      JUMPDEST \t\t\tion initialize(address initial...\n      PUSH 0\t\t\tr pu\n      DUP1 \t\t\t   __ERC721_init(\"SCUMWal\n      PUSH [tag] 342\t\t\ts\", \"SW\");\\n        __\n      PUSH [tag] 343\t\t\ts\", \"SW\");\\n        \n      JUMP \t\t\ts\", \"SW\");\\n        __\n    tag 342\t\t\ts\", \"SW\");\\n        __\n      JUMPDEST \t\t\ts\", \"SW\");\\n        __\n      SWAP1 \t\t\t   __ERC721_init(\"SCUMWalkers\"...\n      POP \t\t\t   __ERC721_init(\"SCUMWalkers\"...\n      DUP1 \t\t\ti\n      PUSH 0\t\t\tinit();\\n \n      ADD \t\t\tinit();\\n \n      PUSH 0\t\t\tinit();\\n \n      SWAP1 \t\t\tinit();\\n \n      SLOAD \t\t\tinit();\\n \n      SWAP1 \t\t\tinit();\\n \n      PUSH 100\t\t\tinit();\\n \n      EXP \t\t\tinit();\\n \n      SWAP1 \t\t\tinit();\\n \n      DIV \t\t\tinit();\\n \n      PUSH FF\t\t\tinit();\\n \n      AND \t\t\tinit();\\n \n      SWAP2 \t\t\terable_init();\\n \n      POP \t\t\terable_init();\\n \n      POP \t\t\terable_init();\\n \n      SWAP1 \t\t\tion initialize(address initial...\n      JUMP \t\t\tion initialize(address initial...\n    tag 147\t\t\tfeMint(to, tokenId);\\n        ...\n      JUMPDEST \t\t\tfeMint(to, tokenId);\\n        ...\n      PUSH 0\t\t\t\\n    fu\n      PUSH [tag] 345\t\t\tt256 tokenId) internal\n      DUP3 \t\t\tinterna\n      PUSH [tag] 254\t\t\tt256 tokenId)\n      JUMP \t\t\tt256 tokenId) internal\n    tag 345\t\t\tt256 tokenId) internal\n      JUMPDEST \t\t\tt256 tokenId) internal\n      SWAP1 \t\t\trOf(uint256 tokenId) internal\n      POP \t\t\trOf(uint256 tokenId) internal\n      SWAP2 \t\t\tfeMint(to, tokenId);\\n        ...\n      SWAP1 \t\t\tfeMint(to, tokenId);\\n        ...\n      POP \t\t\tfeMint(to, tokenId);\\n        ...\n      JUMP \t\t\tfeMint(to, tokenId);\\n        ...\n    tag 153\t\t\tic onlyOwner {\\n        _pause...\n      JUMPDEST \t\t\tic onlyOwner {\\n        _pause...\n      PUSH 0\t\t\tpublic \n      DUP1 \t\t\t        _unpause();\\n   \n      PUSH [tag] 347\t\t\t\\nfunction _authoriz\n      PUSH [tag] 245\t\t\t\\nfunction _author\n      JUMP \t\t\t\\nfunction _authoriz\n    tag 347\t\t\t\\nfunction _authoriz\n      JUMPDEST \t\t\t\\nfunction _authoriz\n      SWAP1 \t\t\t        _unpause();\\n    }\\n\\n...\n      POP \t\t\t        _unpause();\\n    }\\n\\n...\n      PUSH 0\t\t\tt\n      PUSH FFFFFFFFFFFFFFFFFFFFFFFFFFFFFFFFFFFFFFFF\t\t\tss _newImplementati\n      AND \t\t\tss _newImplementati\n      DUP4 \t\t\tss _n\n      PUSH FFFFFFFFFFFFFFFFFFFFFFFFFFFFFFFFFFFFFFFF\t\t\tss _newImplementati\n      AND \t\t\tss _newImplementati\n      SUB \t\t\tss _newImplementati\n      PUSH [tag] 348\t\t\tddress _newImplementation) int...\n      JUMPI \t\t\tddress _newImplementation) int...\n      PUSH 0\t\t\ts\n      PUSH 40\t\t\tnlyOwner {}\\n\\n\\n    function ...\n      MLOAD \t\t\tnlyOwner {}\\n\\n\\n    function ...\n      PUSH 89C62B6400000000000000000000000000000000000000000000000000000000\t\t\tnlyOwner {}\\n\\n\\n    function ...\n      DUP2 \t\t\tnlyOwner {}\\n\\n\\n    function ...\n      MSTORE \t\t\tnlyOwner {}\\n\\n\\n    function ...\n      PUSH 4\t\t\tnlyOwner {}\\n\\n\\n    function ...\n      ADD \t\t\tnlyOwner {}\\n\\n\\n    function ...\n      PUSH [tag] 349\t\t\tnlyOwner {}\\n\\n\\n    function ...\n      SWAP2 \t\t\tnlyOwner {}\\n\\n\\n    function ...\n      SWAP1 \t\t\tnlyOwner {}\\n\\n\\n    function ...\n      PUSH [tag] 67\t\t\tnlyOwner {}\\n\\n\\n    function ...\n      JUMP \t\t\tnlyOwner {}\\n\\n\\n    function ...\n    tag 349\t\t\tnlyOwner {}\\n\\n\\n    function ...\n      JUMPDEST \t\t\tnlyOwner {}\\n\\n\\n    function ...\n      PUSH 40\t\t\tnlyOwner {}\\n\\n\\n    function ...\n      MLOAD \t\t\tnlyOwner {}\\n\\n\\n    function ...\n      DUP1 \t\t\tnlyOwner {}\\n\\n\\n    function ...\n      SWAP2 \t\t\tnlyOwner {}\\n\\n\\n    function ...\n      SUB \t\t\tnlyOwner {}\\n\\n\\n    function ...\n      SWAP1 \t\t\tnlyOwner {}\\n\\n\\n    function ...\n      REVERT \t\t\tnlyOwner {}\\n\\n\\n    function ...\n    tag 348\t\t\tddress _newImplementation) int...\n      JUMPDEST \t\t\tddress _newImplementation) int...\n      DUP1 \t\t\tm\n      PUSH 3\t\t\tmory uri) p\n      ADD \t\t\tmory uri) p\n      PUSH 0\t\t\tmory uri) public o\n      DUP5 \t\t\tblic \n      PUSH FFFFFFFFFFFFFFFFFFFFFFFFFFFFFFFFFFFFFFFF\t\t\tmory uri) public o\n      AND \t\t\tmory uri) public o\n      PUSH FFFFFFFFFFFFFFFFFFFFFFFFFFFFFFFFFFFFFFFF\t\t\tmory uri) public o\n      AND \t\t\tmory uri) public o\n      DUP2 \t\t\tmory uri) public o\n      MSTORE \t\t\tmory uri) public o\n      PUSH 20\t\t\tmory uri) public o\n      ADD \t\t\tmory uri) public o\n      SWAP1 \t\t\tmory uri) public o\n      DUP2 \t\t\tmory uri) public o\n      MSTORE \t\t\tmory uri) public o\n      PUSH 20\t\t\tmory uri) public o\n      ADD \t\t\tmory uri) public o\n      PUSH 0\t\t\tmory uri) public o\n      KECCAK256 \t\t\tmory uri) public o\n      SLOAD \t\t\tmory uri) public o\n      SWAP2 \t\t\tring memory uri) public o\n      POP \t\t\tring memory uri) public o\n      POP \t\t\tring memory uri) public o\n      SWAP2 \t\t\tic onlyOwner {\\n        _pause...\n      SWAP1 \t\t\tic onlyOwner {\\n        _pause...\n      POP \t\t\tic onlyOwner {\\n        _pause...\n      JUMP \t\t\tic onlyOwner {\\n        _pause...\n    tag 157\t\t\tnction _authorizeUpgrade(addre...\n      JUMPDEST \t\t\tnction _authorizeUpgrade(addre...\n      PUSH [tag] 351\t\t\teable, ERC721\n      PUSH [tag] 306\t\t\teable, ERC7\n      JUMP \t\t\teable, ERC721\n    tag 351\t\t\teable, ERC721\n      JUMPDEST \t\t\teable, ERC721\n      PUSH [tag] 353\t\t\terride onlyOwner {}\\n\\n\\n    f...\n      PUSH 0\t\t\tu\n      PUSH [tag] 354\t\t\terride onlyOwner {\n      JUMP \t\t\terride onlyOwner {}\\n\\n\\n    f...\n    tag 353\t\t\terride onlyOwner {}\\n\\n\\n    f...\n      JUMPDEST \t\t\terride onlyOwner {}\\n\\n\\n    f...\n      JUMP \t\t\tnction _authorizeUpgrade(addre...\n    tag 160\t\t\tfunction pause() public onlyOw...\n      JUMPDEST \t\t\tfunction pause() public onlyOw...\n      PUSH [tag] 356\t\t\teable, ERC721\n      PUSH [tag] 306\t\t\teable, ERC7\n      JUMP \t\t\teable, ERC721\n    tag 356\t\t\teable, ERC721\n      JUMPDEST \t\t\teable, ERC721\n      PUSH [tag] 358\t\t\t_pause()\n      PUSH [tag] 359\t\t\t_pause\n      JUMP \t\t\t_pause()\n    tag 358\t\t\t_pause()\n      JUMPDEST \t\t\t_pause()\n      JUMP \t\t\tfunction pause() public onlyOw...\n    tag 163\t\t\t\n      JUMPDEST \t\t\t\n      PUSH 0\t\t\t\n      PUSH 60\t\t\t\n      DUP1 \t\t\t\n      PUSH 0\t\t\t\n      DUP1 \t\t\t\n      PUSH 0\t\t\t\n      PUSH 60\t\t\t\n      PUSH 0\t\t\t\n      PUSH [tag] 361\t\t\t\n      PUSH [tag] 362\t\t\t\n      JUMP \t\t\t\n    tag 361\t\t\t\n      JUMPDEST \t\t\t\n      SWAP1 \t\t\t\n      POP \t\t\t\n      PUSH 0\t\t\t\n      DUP1 \t\t\t\n      SHL \t\t\t\n      DUP2 \t\t\t\n      PUSH 0\t\t\t\n      ADD \t\t\t\n      SLOAD \t\t\t\n      EQ \t\t\t\n      DUP1 \t\t\t\n      ISZERO \t\t\t\n      PUSH [tag] 363\t\t\t\n      JUMPI \t\t\t\n      POP \t\t\t\n      PUSH 0\t\t\t\n      DUP1 \t\t\t\n      SHL \t\t\t\n      DUP2 \t\t\t\n      PUSH 1\t\t\t\n      ADD \t\t\t\n      SLOAD \t\t\t\n      EQ \t\t\t\n    tag 363\t\t\t\n      JUMPDEST \t\t\t\n      PUSH [tag] 364\t\t\t\n      JUMPI \t\t\t\n      PUSH 40\t\t\t\n      MLOAD \t\t\t\n      PUSH 8C379A000000000000000000000000000000000000000000000000000000000\t\t\t\n      DUP2 \t\t\t\n      MSTORE \t\t\t\n      PUSH 4\t\t\t\n      ADD \t\t\t\n      PUSH [tag] 365\t\t\t\n      SWAP1 \t\t\t\n      PUSH [tag] 366\t\t\t\n      JUMP \t\t\t\n    tag 365\t\t\t\n      JUMPDEST \t\t\t\n      PUSH 40\t\t\t\n      MLOAD \t\t\t\n      DUP1 \t\t\t\n      SWAP2 \t\t\t\n      SUB \t\t\t\n      SWAP1 \t\t\t\n      REVERT \t\t\t\n    tag 364\t\t\t\n      JUMPDEST \t\t\t\n      PUSH [tag] 367\t\t\t\n      PUSH [tag] 368\t\t\t\n      JUMP \t\t\t\n    tag 367\t\t\t\n      JUMPDEST \t\t\t\n      PUSH [tag] 369\t\t\t\n      PUSH [tag] 370\t\t\t\n      JUMP \t\t\t\n    tag 369\t\t\t\n      JUMPDEST \t\t\t\n      CHAINID \t\t\t\n      ADDRESS \t\t\t\n      PUSH 0\t\t\t\n      DUP1 \t\t\t\n      SHL \t\t\t\n      PUSH 0\t\t\t\n      PUSH FFFFFFFFFFFFFFFF\t\t\t\n      DUP2 \t\t\t\n      GT \t\t\t\n      ISZERO \t\t\t\n      PUSH [tag] 371\t\t\t\n      JUMPI \t\t\t\n      PUSH [tag] 372\t\t\t\n      PUSH [tag] 373\t\t\t\n      JUMP \t\t\t\n    tag 372\t\t\t\n      JUMPDEST \t\t\t\n    tag 371\t\t\t\n      JUMPDEST \t\t\t\n      PUSH 40\t\t\t\n      MLOAD \t\t\t\n      SWAP1 \t\t\t\n      DUP1 \t\t\t\n      DUP3 \t\t\t\n      MSTORE \t\t\t\n      DUP1 \t\t\t\n      PUSH 20\t\t\t\n      MUL \t\t\t\n      PUSH 20\t\t\t\n      ADD \t\t\t\n      DUP3 \t\t\t\n      ADD \t\t\t\n      PUSH 40\t\t\t\n      MSTORE \t\t\t\n      DUP1 \t\t\t\n      ISZERO \t\t\t\n      PUSH [tag] 374\t\t\t\n      JUMPI \t\t\t\n      DUP2 \t\t\t\n      PUSH 20\t\t\t\n      ADD \t\t\t\n      PUSH 20\t\t\t\n      DUP3 \t\t\t\n      MUL \t\t\t\n      DUP1 \t\t\t\n      CALLDATASIZE \t\t\t\n      DUP4 \t\t\t\n      CALLDATACOPY \t\t\t\n      DUP1 \t\t\t\n      DUP3 \t\t\t\n      ADD \t\t\t\n      SWAP2 \t\t\t\n      POP \t\t\t\n      POP \t\t\t\n      SWAP1 \t\t\t\n      POP \t\t\t\n    tag 374\t\t\t\n      JUMPDEST \t\t\t\n      POP \t\t\t\n      PUSH F00000000000000000000000000000000000000000000000000000000000000\t\t\t\n      SWAP6 \t\t\t\n      SWAP5 \t\t\t\n      SWAP4 \t\t\t\n      SWAP3 \t\t\t\n      SWAP2 \t\t\t\n      SWAP1 \t\t\t\n      SWAP8 \t\t\t\n      POP \t\t\t\n      SWAP8 \t\t\t\n      POP \t\t\t\n      SWAP8 \t\t\t\n      POP \t\t\t\n      SWAP8 \t\t\t\n      POP \t\t\t\n      SWAP8 \t\t\t\n      POP \t\t\t\n      SWAP8 \t\t\t\n      POP \t\t\t\n      SWAP8 \t\t\t\n      POP \t\t\t\n      POP \t\t\t\n      SWAP1 \t\t\t\n      SWAP2 \t\t\t\n      SWAP3 \t\t\t\n      SWAP4 \t\t\t\n      SWAP5 \t\t\t\n      SWAP6 \t\t\t\n      SWAP7 \t\t\t\n      JUMP \t\t\t\n    tag 168\t\t\tfunction _BaseURI() public vie...\n      JUMPDEST \t\t\tfunction _BaseURI() public vie...\n      PUSH 60\t\t\tstring memory\n      PUSH 1\t\t\t_baseTokenURI\n      DUP1 \t\t\treturn _baseTokenURI\n      SLOAD \t\t\treturn _baseTokenURI\n      PUSH [tag] 376\t\t\treturn _baseTokenURI\n      SWAP1 \t\t\treturn _baseTokenURI\n      PUSH [tag] 247\t\t\treturn _baseTokenURI\n      JUMP \t\t\treturn _baseTokenURI\n    tag 376\t\t\treturn _baseTokenURI\n      JUMPDEST \t\t\treturn _baseTokenURI\n      DUP1 \t\t\treturn _baseTokenURI\n      PUSH 1F\t\t\treturn _baseTokenURI\n      ADD \t\t\treturn _baseTokenURI\n      PUSH 20\t\t\treturn _baseTokenURI\n      DUP1 \t\t\treturn _baseTokenURI\n      SWAP2 \t\t\treturn _baseTokenURI\n      DIV \t\t\treturn _baseTokenURI\n      MUL \t\t\treturn _baseTokenURI\n      PUSH 20\t\t\treturn _baseTokenURI\n      ADD \t\t\treturn _baseTokenURI\n      PUSH 40\t\t\treturn _baseTokenURI\n      MLOAD \t\t\treturn _baseTokenURI\n      SWAP1 \t\t\treturn _baseTokenURI\n      DUP2 \t\t\treturn _baseTokenURI\n      ADD \t\t\treturn _baseTokenURI\n      PUSH 40\t\t\treturn _baseTokenURI\n      MSTORE \t\t\treturn _baseTokenURI\n      DUP1 \t\t\treturn _baseTokenURI\n      SWAP3 \t\t\treturn _baseTokenURI\n      SWAP2 \t\t\treturn _baseTokenURI\n      SWAP1 \t\t\treturn _baseTokenURI\n      DUP2 \t\t\treturn _baseTokenURI\n      DUP2 \t\t\treturn _baseTokenURI\n      MSTORE \t\t\treturn _baseTokenURI\n      PUSH 20\t\t\treturn _baseTokenURI\n      ADD \t\t\treturn _baseTokenURI\n      DUP3 \t\t\treturn _baseTokenURI\n      DUP1 \t\t\treturn _baseTokenURI\n      SLOAD \t\t\treturn _baseTokenURI\n      PUSH [tag] 377\t\t\treturn _baseTokenURI\n      SWAP1 \t\t\treturn _baseTokenURI\n      PUSH [tag] 247\t\t\treturn _baseTokenURI\n      JUMP \t\t\treturn _baseTokenURI\n    tag 377\t\t\treturn _baseTokenURI\n      JUMPDEST \t\t\treturn _baseTokenURI\n      DUP1 \t\t\treturn _baseTokenURI\n      ISZERO \t\t\treturn _baseTokenURI\n      PUSH [tag] 378\t\t\treturn _baseTokenURI\n      JUMPI \t\t\treturn _baseTokenURI\n      DUP1 \t\t\treturn _baseTokenURI\n      PUSH 1F\t\t\treturn _baseTokenURI\n      LT \t\t\treturn _baseTokenURI\n      PUSH [tag] 379\t\t\treturn _baseTokenURI\n      JUMPI \t\t\treturn _baseTokenURI\n      PUSH 100\t\t\treturn _baseTokenURI\n      DUP1 \t\t\treturn _baseTokenURI\n      DUP4 \t\t\treturn _baseTokenURI\n      SLOAD \t\t\treturn _baseTokenURI\n      DIV \t\t\treturn _baseTokenURI\n      MUL \t\t\treturn _baseTokenURI\n      DUP4 \t\t\treturn _baseTokenURI\n      MSTORE \t\t\treturn _baseTokenURI\n      SWAP2 \t\t\treturn _baseTokenURI\n      PUSH 20\t\t\treturn _baseTokenURI\n      ADD \t\t\treturn _baseTokenURI\n      SWAP2 \t\t\treturn _baseTokenURI\n      PUSH [tag] 378\t\t\treturn _baseTokenURI\n      JUMP \t\t\treturn _baseTokenURI\n    tag 379\t\t\treturn _baseTokenURI\n      JUMPDEST \t\t\treturn _baseTokenURI\n      DUP3 \t\t\treturn _baseTokenURI\n      ADD \t\t\treturn _baseTokenURI\n      SWAP2 \t\t\treturn _baseTokenURI\n      SWAP1 \t\t\treturn _baseTokenURI\n      PUSH 0\t\t\treturn _baseTokenURI\n      MSTORE \t\t\treturn _baseTokenURI\n      PUSH 20\t\t\treturn _baseTokenURI\n      PUSH 0\t\t\treturn _baseTokenURI\n      KECCAK256 \t\t\treturn _baseTokenURI\n      SWAP1 \t\t\treturn _baseTokenURI\n    tag 380\t\t\treturn _baseTokenURI\n      JUMPDEST \t\t\treturn _baseTokenURI\n      DUP2 \t\t\treturn _baseTokenURI\n      SLOAD \t\t\treturn _baseTokenURI\n      DUP2 \t\t\treturn _baseTokenURI\n      MSTORE \t\t\treturn _baseTokenURI\n      SWAP1 \t\t\treturn _baseTokenURI\n      PUSH 1\t\t\treturn _baseTokenURI\n      ADD \t\t\treturn _baseTokenURI\n      SWAP1 \t\t\treturn _baseTokenURI\n      PUSH 20\t\t\treturn _baseTokenURI\n      ADD \t\t\treturn _baseTokenURI\n      DUP1 \t\t\treturn _baseTokenURI\n      DUP4 \t\t\treturn _baseTokenURI\n      GT \t\t\treturn _baseTokenURI\n      PUSH [tag] 380\t\t\treturn _baseTokenURI\n      JUMPI \t\t\treturn _baseTokenURI\n      DUP3 \t\t\treturn _baseTokenURI\n      SWAP1 \t\t\treturn _baseTokenURI\n      SUB \t\t\treturn _baseTokenURI\n      PUSH 1F\t\t\treturn _baseTokenURI\n      AND \t\t\treturn _baseTokenURI\n      DUP3 \t\t\treturn _baseTokenURI\n      ADD \t\t\treturn _baseTokenURI\n      SWAP2 \t\t\treturn _baseTokenURI\n    tag 378\t\t\treturn _baseTokenURI\n      JUMPDEST \t\t\treturn _baseTokenURI\n      POP \t\t\treturn _baseTokenURI\n      POP \t\t\treturn _baseTokenURI\n      POP \t\t\treturn _baseTokenURI\n      POP \t\t\treturn _baseTokenURI\n      POP \t\t\treturn _baseTokenURI\n      SWAP1 \t\t\treturn _baseTokenURI\n      POP \t\t\treturn _baseTokenURI\n      SWAP1 \t\t\tfunction _BaseURI() public vie...\n      JUMP \t\t\tfunction _BaseURI() public vie...\n    tag 172\t\t\tte _baseTokenURI;\\n\\n    funct...\n      JUMPDEST \t\t\tte _baseTokenURI;\\n\\n    funct...\n      PUSH 0\t\t\ting mem\n      DUP1 \t\t\t external onlyOwner {\\n  \n      PUSH [tag] 382\t\t\t   _baseTokenURI = b\n      PUSH [tag] 383\t\t\t   _baseTokenURI =\n      JUMP \t\t\t   _baseTokenURI = b\n    tag 382\t\t\t   _baseTokenURI = b\n      JUMPDEST \t\t\t   _baseTokenURI = b\n      SWAP1 \t\t\t external onlyOwner {\\n       ...\n      POP \t\t\t external onlyOwner {\\n       ...\n      DUP1 \t\t\t\\n\n      PUSH 0\t\t\t\\n    ///\n      ADD \t\t\t\\n    ///\n      PUSH 0\t\t\t\\n    ///\n      SWAP1 \t\t\t\\n    ///\n      SLOAD \t\t\t\\n    ///\n      SWAP1 \t\t\t\\n    ///\n      PUSH 100\t\t\t\\n    ///\n      EXP \t\t\t\\n    ///\n      SWAP1 \t\t\t\\n    ///\n      DIV \t\t\t\\n    ///\n      PUSH FFFFFFFFFFFFFFFFFFFFFFFFFFFFFFFFFFFFFFFF\t\t\t\\n    ///\n      AND \t\t\t\\n    ///\n      SWAP2 \t\t\t  }\\n   \\n    ///\n      POP \t\t\t  }\\n   \\n    ///\n      POP \t\t\t  }\\n   \\n    ///\n      SWAP1 \t\t\tte _baseTokenURI;\\n\\n    funct...\n      JUMP \t\t\tte _baseTokenURI;\\n\\n    funct...\n    tag 178\t\t\temory baseURI) external onlyOw...\n      JUMPDEST \t\t\temory baseURI) external onlyOw...\n      PUSH 0\t\t\t  /// @\n      DUP1 \t\t\tgrades-unsafe-allow constructo...\n      PUSH [tag] 385\t\t\tctor() {\\n        _disableInit...\n      PUSH [tag] 386\t\t\tctor() {\\n        _disableInit...\n      JUMP \t\t\tctor() {\\n        _disableInit...\n    tag 385\t\t\tctor() {\\n        _disableInit...\n      JUMPDEST \t\t\tctor() {\\n        _disableInit...\n      SWAP1 \t\t\tgrades-unsafe-allow constructo...\n      POP \t\t\tgrades-unsafe-allow constructo...\n      PUSH [tag] 387\t\t\tunction initialize(address ini\n      DUP4 \t\t\tss in\n      DUP3 \t\t\tu\n      PUSH 0\t\t\tunction initia\n      ADD \t\t\tunction initia\n      PUSH 0\t\t\tunction initialize(a\n      DUP8 \t\t\tize(\n      DUP2 \t\t\tunction initialize(a\n      MSTORE \t\t\tunction initialize(a\n      PUSH 20\t\t\tunction initialize(a\n      ADD \t\t\tunction initialize(a\n      SWAP1 \t\t\tunction initialize(a\n      DUP2 \t\t\tunction initialize(a\n      MSTORE \t\t\tunction initialize(a\n      PUSH 20\t\t\tunction initialize(a\n      ADD \t\t\tunction initialize(a\n      PUSH 0\t\t\tunction initialize(a\n      KECCAK256 \t\t\tunction initialize(a\n      PUSH [tag] 388\t\t\tunction initialize(addr\n      SWAP1 \t\t\tunction initialize(addr\n      SWAP2 \t\t\tunction initialize(address ini\n      SWAP1 \t\t\tunction initialize(address ini\n      PUSH FFFFFFFF\t\t\tunction initialize(address ini\n      AND \t\t\tunction initialize(address ini\n      JUMP \t\t\tunction initialize(address ini\n    tag 387\t\t\tunction initialize(address ini\n      JUMPDEST \t\t\tunction initialize(address ini\n      SWAP2 \t\t\t\\n\\n    function initialize(ad...\n      POP \t\t\t\\n\\n    function initialize(ad...\n      POP \t\t\t\\n\\n    function initialize(ad...\n      SWAP3 \t\t\temory baseURI) external onlyOw...\n      SWAP2 \t\t\temory baseURI) external onlyOw...\n      POP \t\t\temory baseURI) external onlyOw...\n      POP \t\t\temory baseURI) external onlyOw...\n      JUMP \t\t\temory baseURI) external onlyOw...\n    tag 183\t\t\ton _update(address to, uint256...\n      JUMPDEST \t\t\ton _update(address to, uint256...\n      PUSH 0\t\t\t  ov\n      DUP1 \t\t\t1ConsecutiveUpgradeable, ERC72\n      PUSH [tag] 390\t\t\tumerableUpgradeable, ERC72\n      PUSH [tag] 276\t\t\tumerableUpgradeable, ERC\n      JUMP \t\t\tumerableUpgradeable, ERC72\n    tag 390\t\t\tumerableUpgradeable, ERC72\n      JUMPDEST \t\t\tumerableUpgradeable, ERC72\n      SWAP1 \t\t\t1ConsecutiveUpgradeable, ERC72...\n      POP \t\t\t1ConsecutiveUpgradeable, ERC72...\n      DUP1 \t\t\tb\n      PUSH 0\t\t\tble, ERC\n      ADD \t\t\tble, ERC\n      PUSH 0\t\t\tble, ERC721Upg\n      DUP6 \t\t\t21Up\n      DUP2 \t\t\tble, ERC721Upg\n      MSTORE \t\t\tble, ERC721Upg\n      PUSH 20\t\t\tble, ERC721Upg\n      ADD \t\t\tble, ERC721Upg\n      SWAP1 \t\t\tble, ERC721Upg\n      DUP2 \t\t\tble, ERC721Upg\n      MSTORE \t\t\tble, ERC721Upg\n      PUSH 20\t\t\tble, ERC721Upg\n      ADD \t\t\tble, ERC721Upg\n      PUSH 0\t\t\tble, ERC721Upg\n      KECCAK256 \t\t\tble, ERC721Upg\n      PUSH 0\t\t\tble, ERC721Upgradeable\n      ADD \t\t\tble, ERC721Upgradeable\n      PUSH 0\t\t\tble, ERC721Upgradeable)\\n     ...\n      DUP5 \t\t\t\\n      \n      PUSH FFFFFFFFFFFFFFFFFFFFFFFFFFFFFFFFFFFFFFFF\t\t\tble, ERC721Upgradeable)\\n     ...\n      AND \t\t\tble, ERC721Upgradeable)\\n     ...\n      PUSH FFFFFFFFFFFFFFFFFFFFFFFFFFFFFFFFFFFFFFFF\t\t\tble, ERC721Upgradeable)\\n     ...\n      AND \t\t\tble, ERC721Upgradeable)\\n     ...\n      DUP2 \t\t\tble, ERC721Upgradeable)\\n     ...\n      MSTORE \t\t\tble, ERC721Upgradeable)\\n     ...\n      PUSH 20\t\t\tble, ERC721Upgradeable)\\n     ...\n      ADD \t\t\tble, ERC721Upgradeable)\\n     ...\n      SWAP1 \t\t\tble, ERC721Upgradeable)\\n     ...\n      DUP2 \t\t\tble, ERC721Upgradeable)\\n     ...\n      MSTORE \t\t\tble, ERC721Upgradeable)\\n     ...\n      PUSH 20\t\t\tble, ERC721Upgradeable)\\n     ...\n      ADD \t\t\tble, ERC721Upgradeable)\\n     ...\n      PUSH 0\t\t\tble, ERC721Upgradeable)\\n     ...\n      KECCAK256 \t\t\tble, ERC721Upgradeable)\\n     ...\n      PUSH 0\t\t\tble, ERC721Upgradeable)\\n     ...\n      SWAP1 \t\t\tble, ERC721Upgradeable)\\n     ...\n      SLOAD \t\t\tble, ERC721Upgradeable)\\n     ...\n      SWAP1 \t\t\tble, ERC721Upgradeable)\\n     ...\n      PUSH 100\t\t\tble, ERC721Upgradeable)\\n     ...\n      EXP \t\t\tble, ERC721Upgradeable)\\n     ...\n      SWAP1 \t\t\tble, ERC721Upgradeable)\\n     ...\n      DIV \t\t\tble, ERC721Upgradeable)\\n     ...\n      PUSH FF\t\t\tble, ERC721Upgradeable)\\n     ...\n      AND \t\t\tble, ERC721Upgradeable)\\n     ...\n      SWAP2 \t\t\tpgradeable, ERC721Upgradeable)...\n      POP \t\t\tpgradeable, ERC721Upgradeable)...\n      POP \t\t\tpgradeable, ERC721Upgradeable)...\n      SWAP3 \t\t\ton _update(address to, uint256...\n      SWAP2 \t\t\ton _update(address to, uint256...\n      POP \t\t\ton _update(address to, uint256...\n      POP \t\t\ton _update(address to, uint256...\n      JUMP \t\t\ton _update(address to, uint256...\n    tag 187\t\t\tint256 tokenId, address auth)\\...\n      JUMPDEST \t\t\tint256 tokenId, address auth)\\...\n      PUSH 60\t\t\t        overr\n      PUSH 0\t\t\tnsecutiveUpgradeable, E\n      PUSH [tag] 392\t\t\t21EnumerableUpgrade\n      PUSH [tag] 245\t\t\t21EnumerableUpgra\n      JUMP \t\t\t21EnumerableUpgrade\n    tag 392\t\t\t21EnumerableUpgrade\n      JUMPDEST \t\t\t21EnumerableUpgrade\n      SWAP1 \t\t\tnsecutiveUpgradeable, ERC721En...\n      POP \t\t\tnsecutiveUpgradeable, ERC721En...\n      DUP1 \t\t\tb\n      PUSH 1\t\t\tbleUpgrad\n      ADD \t\t\tbleUpgrad\n      DUP1 \t\t\t21PausableUpgrad\n      SLOAD \t\t\t21PausableUpgrad\n      PUSH [tag] 393\t\t\t21PausableUpgrad\n      SWAP1 \t\t\t21PausableUpgrad\n      PUSH [tag] 247\t\t\t21PausableUpgrad\n      JUMP \t\t\t21PausableUpgrad\n    tag 393\t\t\t21PausableUpgrad\n      JUMPDEST \t\t\t21PausableUpgrad\n      DUP1 \t\t\t21PausableUpgrad\n      PUSH 1F\t\t\t21PausableUpgrad\n      ADD \t\t\t21PausableUpgrad\n      PUSH 20\t\t\t21PausableUpgrad\n      DUP1 \t\t\t21PausableUpgrad\n      SWAP2 \t\t\t21PausableUpgrad\n      DIV \t\t\t21PausableUpgrad\n      MUL \t\t\t21PausableUpgrad\n      PUSH 20\t\t\t21PausableUpgrad\n      ADD \t\t\t21PausableUpgrad\n      PUSH 40\t\t\t21PausableUpgrad\n      MLOAD \t\t\t21PausableUpgrad\n      SWAP1 \t\t\t21PausableUpgrad\n      DUP2 \t\t\t21PausableUpgrad\n      ADD \t\t\t21PausableUpgrad\n      PUSH 40\t\t\t21PausableUpgrad\n      MSTORE \t\t\t21PausableUpgrad\n      DUP1 \t\t\t21PausableUpgrad\n      SWAP3 \t\t\t21PausableUpgrad\n      SWAP2 \t\t\t21PausableUpgrad\n      SWAP1 \t\t\t21PausableUpgrad\n      DUP2 \t\t\t21PausableUpgrad\n      DUP2 \t\t\t21PausableUpgrad\n      MSTORE \t\t\t21PausableUpgrad\n      PUSH 20\t\t\t21PausableUpgrad\n      ADD \t\t\t21PausableUpgrad\n      DUP3 \t\t\t21PausableUpgrad\n      DUP1 \t\t\t21PausableUpgrad\n      SLOAD \t\t\t21PausableUpgrad\n      PUSH [tag] 394\t\t\t21PausableUpgrad\n      SWAP1 \t\t\t21PausableUpgrad\n      PUSH [tag] 247\t\t\t21PausableUpgrad\n      JUMP \t\t\t21PausableUpgrad\n    tag 394\t\t\t21PausableUpgrad\n      JUMPDEST \t\t\t21PausableUpgrad\n      DUP1 \t\t\t21PausableUpgrad\n      ISZERO \t\t\t21PausableUpgrad\n      PUSH [tag] 395\t\t\t21PausableUpgrad\n      JUMPI \t\t\t21PausableUpgrad\n      DUP1 \t\t\t21PausableUpgrad\n      PUSH 1F\t\t\t21PausableUpgrad\n      LT \t\t\t21PausableUpgrad\n      PUSH [tag] 396\t\t\t21PausableUpgrad\n      JUMPI \t\t\t21PausableUpgrad\n      PUSH 100\t\t\t21PausableUpgrad\n      DUP1 \t\t\t21PausableUpgrad\n      DUP4 \t\t\t21PausableUpgrad\n      SLOAD \t\t\t21PausableUpgrad\n      DIV \t\t\t21PausableUpgrad\n      MUL \t\t\t21PausableUpgrad\n      DUP4 \t\t\t21PausableUpgrad\n      MSTORE \t\t\t21PausableUpgrad\n      SWAP2 \t\t\t21PausableUpgrad\n      PUSH 20\t\t\t21PausableUpgrad\n      ADD \t\t\t21PausableUpgrad\n      SWAP2 \t\t\t21PausableUpgrad\n      PUSH [tag] 395\t\t\t21PausableUpgrad\n      JUMP \t\t\t21PausableUpgrad\n    tag 396\t\t\t21PausableUpgrad\n      JUMPDEST \t\t\t21PausableUpgrad\n      DUP3 \t\t\t21PausableUpgrad\n      ADD \t\t\t21PausableUpgrad\n      SWAP2 \t\t\t21PausableUpgrad\n      SWAP1 \t\t\t21PausableUpgrad\n      PUSH 0\t\t\t21PausableUpgrad\n      MSTORE \t\t\t21PausableUpgrad\n      PUSH 20\t\t\t21PausableUpgrad\n      PUSH 0\t\t\t21PausableUpgrad\n      KECCAK256 \t\t\t21PausableUpgrad\n      SWAP1 \t\t\t21PausableUpgrad\n    tag 397\t\t\t21PausableUpgrad\n      JUMPDEST \t\t\t21PausableUpgrad\n      DUP2 \t\t\t21PausableUpgrad\n      SLOAD \t\t\t21PausableUpgrad\n      DUP2 \t\t\t21PausableUpgrad\n      MSTORE \t\t\t21PausableUpgrad\n      SWAP1 \t\t\t21PausableUpgrad\n      PUSH 1\t\t\t21PausableUpgrad\n      ADD \t\t\t21PausableUpgrad\n      SWAP1 \t\t\t21PausableUpgrad\n      PUSH 20\t\t\t21PausableUpgrad\n      ADD \t\t\t21PausableUpgrad\n      DUP1 \t\t\t21PausableUpgrad\n      DUP4 \t\t\t21PausableUpgrad\n      GT \t\t\t21PausableUpgrad\n      PUSH [tag] 397\t\t\t21PausableUpgrad\n      JUMPI \t\t\t21PausableUpgrad\n      DUP3 \t\t\t21PausableUpgrad\n      SWAP1 \t\t\t21PausableUpgrad\n      SUB \t\t\t21PausableUpgrad\n      PUSH 1F\t\t\t21PausableUpgrad\n      AND \t\t\t21PausableUpgrad\n      DUP3 \t\t\t21PausableUpgrad\n      ADD \t\t\t21PausableUpgrad\n      SWAP2 \t\t\t21PausableUpgrad\n    tag 395\t\t\t21PausableUpgrad\n      JUMPDEST \t\t\t21PausableUpgrad\n      POP \t\t\t21PausableUpgrad\n      POP \t\t\t21PausableUpgrad\n      POP \t\t\t21PausableUpgrad\n      POP \t\t\t21PausableUpgrad\n      POP \t\t\t21PausableUpgrad\n      SWAP2 \t\t\t21PausableUpgrad\n      POP \t\t\t21PausableUpgrad\n      POP \t\t\t21PausableUpgrad\n      SWAP1 \t\t\tint256 tokenId, address auth)\\...\n      JUMP \t\t\tint256 tokenId, address auth)\\...\n    tag 191\t\t\t721PausableUpgradeable, ERC721...\n      JUMPDEST \t\t\t721PausableUpgradeable, ERC721...\n      PUSH 0\t\t\tdeab\n      DUP1 \t\t\t721PausableUpgradeable, ERC721...\n      SHL \t\t\t721PausableUpgradeable, ERC721...\n      DUP2 \t\t\t721PausableUpgradeable, ERC721...\n      JUMP \t\t\t721PausableUpgradeable, ERC721...\n    tag 197\t\t\t\n      JUMPDEST \t\t\t\n      PUSH [tag] 399\t\t\t\n      PUSH [tag] 400\t\t\t\n      PUSH [tag] 260\t\t\t\n      JUMP \t\t\t\n    tag 400\t\t\t\n      JUMPDEST \t\t\t\n      DUP4 \t\t\t\n      DUP4 \t\t\t\n      PUSH [tag] 401\t\t\t\n      JUMP \t\t\t\n    tag 399\t\t\t\n      JUMPDEST \t\t\t\n      POP \t\t\t\n      POP \t\t\t\n      JUMP \t\t\t\n    tag 200\t\t\t.0/utils/PausableUpgradeable.s...\n      JUMPDEST \t\t\t.0/utils/PausableUpgradeable.s...\n      PUSH 40\t\t\t.0/utils/PausableUpgradeable.s...\n      MLOAD \t\t\t.0/utils/PausableUpgradeable.s...\n      DUP1 \t\t\t.0/utils/PausableUpgradeable.s...\n      PUSH 40\t\t\t.0/utils/PausableUpgradeable.s...\n      ADD \t\t\t.0/utils/PausableUpgradeable.s...\n      PUSH 40\t\t\t.0/utils/PausableUpgradeable.s...\n      MSTORE \t\t\t.0/utils/PausableUpgradeable.s...\n      DUP1 \t\t\t.0/utils/PausableUpgradeable.s...\n      PUSH 5\t\t\t.0/utils/PausableUpgradeable.s...\n      DUP2 \t\t\t.0/utils/PausableUpgradeable.s...\n      MSTORE \t\t\t.0/utils/PausableUpgradeable.s...\n      PUSH 20\t\t\t.0/utils/PausableUpgradeable.s...\n      ADD \t\t\t.0/utils/PausableUpgradeable.s...\n      PUSH 352E302E30000000000000000000000000000000000000000000000000000000\t\t\t.0/utils/PausableUpgradeable.s...\n      DUP2 \t\t\t.0/utils/PausableUpgradeable.s...\n      MSTORE \t\t\t.0/utils/PausableUpgradeable.s...\n      POP \t\t\t.0/utils/PausableUpgradeable.s...\n      DUP2 \t\t\t.0/utils/PausableUpgradeable.s...\n      JUMP \t\t\t.0/utils/PausableUpgradeable.s...\n    tag 206\t\t\t\n      JUMPDEST \t\t\t\n      PUSH [tag] 403\t\t\t\n      DUP5 \t\t\t\n      DUP5 \t\t\t\n      DUP5 \t\t\t\n      PUSH [tag] 82\t\t\t\n      JUMP \t\t\t\n    tag 403\t\t\t\n      JUMPDEST \t\t\t\n      PUSH [tag] 404\t\t\t\n      DUP5 \t\t\t\n      DUP5 \t\t\t\n      DUP5 \t\t\t\n      DUP5 \t\t\t\n      PUSH [tag] 405\t\t\t\n      JUMP \t\t\t\n    tag 404\t\t\t\n      JUMPDEST \t\t\t\n      POP \t\t\t\n      POP \t\t\t\n      POP \t\t\t\n      POP \t\t\t\n      JUMP \t\t\t\n    tag 210\t\t\tfunction initialize(address in...\n      JUMPDEST \t\t\tfunction initialize(address in...\n      PUSH 0\t\t\t   {\\n        super._increaseB...\n      PUSH [tag] 407\t\t\tce(account, value);\\n    }\\n\n      PUSH [tag] 408\t\t\tce(account, value);\\n    \n      JUMP \t\t\tce(account, value);\\n    }\\n\n    tag 407\t\t\tce(account, value);\\n    }\\n\n      JUMPDEST \t\t\tce(account, value);\\n    }\\n\n      SWAP1 \t\t\t   {\\n        super._increaseB...\n      POP \t\t\t   {\\n        super._increaseB...\n      PUSH 0\t\t\t\\n        return _ba\n      DUP2 \t\t\tk\n      PUSH 0\t\t\tkenURI;\\n    }\\n \n      ADD \t\t\tkenURI;\\n    }\\n \n      PUSH 8\t\t\tkenURI;\\n    }\\n \n      SWAP1 \t\t\tkenURI;\\n    }\\n \n      SLOAD \t\t\tkenURI;\\n    }\\n \n      SWAP1 \t\t\tkenURI;\\n    }\\n \n      PUSH 100\t\t\tkenURI;\\n    }\\n \n      EXP \t\t\tkenURI;\\n    }\\n \n      SWAP1 \t\t\tkenURI;\\n    }\\n \n      DIV \t\t\tkenURI;\\n    }\\n \n      PUSH FF\t\t\tkenURI;\\n    }\\n \n      AND \t\t\tkenURI;\\n    }\\n \n      ISZERO \t\t\tokenURI;\\n    }\\n \n      SWAP1 \t\t\t\\n        return _baseTokenURI...\n      POP \t\t\t\\n        return _baseTokenURI...\n      PUSH 0\t\t\tnction tokenURI(ui\n      DUP3 \t\t\t5\n      PUSH 0\t\t\t56 tokenId)\\n  \n      ADD \t\t\t56 tokenId)\\n  \n      PUSH 0\t\t\t56 tokenId)\\n  \n      SWAP1 \t\t\t56 tokenId)\\n  \n      SLOAD \t\t\t56 tokenId)\\n  \n      SWAP1 \t\t\t56 tokenId)\\n  \n      PUSH 100\t\t\t56 tokenId)\\n  \n      EXP \t\t\t56 tokenId)\\n  \n      SWAP1 \t\t\t56 tokenId)\\n  \n      DIV \t\t\t56 tokenId)\\n  \n      PUSH FFFFFFFFFFFFFFFF\t\t\t56 tokenId)\\n  \n      AND \t\t\t56 tokenId)\\n  \n      SWAP1 \t\t\tnction tokenURI(uint256 tokenI...\n      POP \t\t\tnction tokenURI(uint256 tokenI...\n      PUSH 0\t\t\te, ERC721Enumerab\n      DUP1 \t\t\t7\n      DUP3 \t\t\tpgradeable,\n      PUSH FFFFFFFFFFFFFFFF\t\t\tpgradeable, ERC7\n      AND \t\t\tpgradeable, ERC7\n      EQ \t\t\tpgradeable, ERC7\n      DUP1 \t\t\tpgradeable, ERC721URIStorageUp...\n      ISZERO \t\t\tpgradeable, ERC721URIStorageUp...\n      PUSH [tag] 409\t\t\tpgradeable, ERC721URIStorageUp...\n      JUMPI \t\t\tpgradeable, ERC721URIStorageUp...\n      POP \t\t\tpgradeable, ERC721URIStorageUp...\n      DUP3 \t\t\tIStorageUpgrad\n    tag 409\t\t\tpgradeable, ERC721URIStorageUp...\n      JUMPDEST \t\t\tpgradeable, ERC721URIStorageUp...\n      SWAP1 \t\t\te, ERC721EnumerableUpgradeable...\n      POP \t\t\te, ERC721EnumerableUpgradeable...\n      PUSH 0\t\t\t     returns (boo\n      PUSH 1\t\t\te\n      DUP4 \t\t\t    {\\n     \n      PUSH FFFFFFFFFFFFFFFF\t\t\t    {\\n        re\n      AND \t\t\t    {\\n        re\n      EQ \t\t\t    {\\n        re\n      DUP1 \t\t\t    {\\n        return super.su...\n      ISZERO \t\t\t    {\\n        return super.su...\n      PUSH [tag] 410\t\t\t    {\\n        return super.su...\n      JUMPI \t\t\t    {\\n        return super.su...\n      POP \t\t\t    {\\n        return super.su...\n      PUSH 0\t\t\tr\n      ADDRESS \t\t\tuppo\n      PUSH FFFFFFFFFFFFFFFFFFFFFFFFFFFFFFFFFFFFFFFF\t\t\t super.supportsInterface(\n      AND \t\t\t super.supportsInterface(\n      EXTCODESIZE \t\t\t super.supportsInterface(\n      EQ \t\t\t super.supportsInterface(inter\n    tag 410\t\t\t    {\\n        return super.su...\n      JUMPDEST \t\t\t    {\\n        return super.su...\n      SWAP1 \t\t\t     returns (bool)\\n    {\\n  ...\n      POP \t\t\t     returns (bool)\\n    {\\n  ...\n      DUP2 \t\t\t\\n\n      ISZERO \t\t\t}\\n\n      DUP1 \t\t\t}\\n\n      ISZERO \t\t\t}\\n\n      PUSH [tag] 411\t\t\t}\\n\n      JUMPI \t\t\t}\\n\n      POP \t\t\t}\\n\n      DUP1 \t\t\t\n      ISZERO \t\t\t\n    tag 411\t\t\t}\\n\n      JUMPDEST \t\t\t}\\n\n      ISZERO \t\t\t  }\\n}\\n\n      PUSH [tag] 412\t\t\t  }\\n}\\n\n      JUMPI \t\t\t  }\\n}\\n\n      PUSH 40\t\t\t\n      MLOAD \t\t\t\n      PUSH F92EE8A900000000000000000000000000000000000000000000000000000000\t\t\t\n      DUP2 \t\t\t\n      MSTORE \t\t\t\n      PUSH 4\t\t\t\n      ADD \t\t\t\n      PUSH 40\t\t\t\n      MLOAD \t\t\t\n      DUP1 \t\t\t\n      SWAP2 \t\t\t\n      SUB \t\t\t\n      SWAP1 \t\t\t\n      REVERT \t\t\t\n    tag 412\t\t\t  }\\n}\\n\n      JUMPDEST \t\t\t  }\\n}\\n\n      PUSH 1\t\t\t\n      DUP6 \t\t\t\n      PUSH 0\t\t\t\n      ADD \t\t\t\n      PUSH 0\t\t\t\n      PUSH 100\t\t\t\n      EXP \t\t\t\n      DUP2 \t\t\t\n      SLOAD \t\t\t\n      DUP2 \t\t\t\n      PUSH FFFFFFFFFFFFFFFF\t\t\t\n      MUL \t\t\t\n      NOT \t\t\t\n      AND \t\t\t\n      SWAP1 \t\t\t\n      DUP4 \t\t\t\n      PUSH FFFFFFFFFFFFFFFF\t\t\t\n      AND \t\t\t\n      MUL \t\t\t\n      OR \t\t\t\n      SWAP1 \t\t\t\n      SSTORE \t\t\t\n      POP \t\t\t\n      DUP4 \t\t\t\n      ISZERO \t\t\t\n      PUSH [tag] 413\t\t\t\n      JUMPI \t\t\t\n      PUSH 1\t\t\t\n      DUP6 \t\t\t\n      PUSH 0\t\t\t\n      ADD \t\t\t\n      PUSH 8\t\t\t\n      PUSH 100\t\t\t\n      EXP \t\t\t\n      DUP2 \t\t\t\n      SLOAD \t\t\t\n      DUP2 \t\t\t\n      PUSH FF\t\t\t\n      MUL \t\t\t\n      NOT \t\t\t\n      AND \t\t\t\n      SWAP1 \t\t\t\n      DUP4 \t\t\t\n      ISZERO \t\t\t\n      ISZERO \t\t\t\n      MUL \t\t\t\n      OR \t\t\t\n      SWAP1 \t\t\t\n      SSTORE \t\t\t\n      POP \t\t\t\n    tag 413\t\t\t\n      JUMPDEST \t\t\t\n      PUSH [tag] 415\t\t\t__ERC721_init(\"SCUMWalkers\", \"...\n      PUSH 40\t\t\t__ERC721_init(\"SCUMWalkers\", \"...\n      MLOAD \t\t\t__ERC721_init(\"SCUMWalkers\", \"...\n      DUP1 \t\t\t__ERC721_init(\"SCUMWalkers\", \"...\n      PUSH 40\t\t\t__ERC721_init(\"SCUMWalkers\", \"...\n      ADD \t\t\t__ERC721_init(\"SCUMWalkers\", \"...\n      PUSH 40\t\t\t__ERC721_init(\"SCUMWalkers\", \"...\n      MSTORE \t\t\t__ERC721_init(\"SCUMWalkers\", \"...\n      DUP1 \t\t\t__ERC721_init(\"SCUMWalkers\", \"...\n      PUSH B\t\t\t__ERC721_init(\"SCUMWalkers\", \"...\n      DUP2 \t\t\t__ERC721_init(\"SCUMWalkers\", \"...\n      MSTORE \t\t\t__ERC721_init(\"SCUMWalkers\", \"...\n      PUSH 20\t\t\t__ERC721_init(\"SCUMWalkers\", \"...\n      ADD \t\t\t__ERC721_init(\"SCUMWalkers\", \"...\n      PUSH 5343554D57616C6B657273000000000000000000000000000000000000000000\t\t\t__ERC721_init(\"SCUMWalkers\", \"...\n      DUP2 \t\t\t__ERC721_init(\"SCUMWalkers\", \"...\n      MSTORE \t\t\t__ERC721_init(\"SCUMWalkers\", \"...\n      POP \t\t\t__ERC721_init(\"SCUMWalkers\", \"...\n      PUSH 40\t\t\t__ERC721_init(\"SCUMWalkers\", \"...\n      MLOAD \t\t\t__ERC721_init(\"SCUMWalkers\", \"...\n      DUP1 \t\t\t__ERC721_init(\"SCUMWalkers\", \"...\n      PUSH 40\t\t\t__ERC721_init(\"SCUMWalkers\", \"...\n      ADD \t\t\t__ERC721_init(\"SCUMWalkers\", \"...\n      PUSH 40\t\t\t__ERC721_init(\"SCUMWalkers\", \"...\n      MSTORE \t\t\t__ERC721_init(\"SCUMWalkers\", \"...\n      DUP1 \t\t\t__ERC721_init(\"SCUMWalkers\", \"...\n      PUSH 2\t\t\t__ERC721_init(\"SCUMWalkers\", \"...\n      DUP2 \t\t\t__ERC721_init(\"SCUMWalkers\", \"...\n      MSTORE \t\t\t__ERC721_init(\"SCUMWalkers\", \"...\n      PUSH 20\t\t\t__ERC721_init(\"SCUMWalkers\", \"...\n      ADD \t\t\t__ERC721_init(\"SCUMWalkers\", \"...\n      PUSH 5357000000000000000000000000000000000000000000000000000000000000\t\t\t__ERC721_init(\"SCUMWalkers\", \"...\n      DUP2 \t\t\t__ERC721_init(\"SCUMWalkers\", \"...\n      MSTORE \t\t\t__ERC721_init(\"SCUMWalkers\", \"...\n      POP \t\t\t__ERC721_init(\"SCUMWalkers\", \"...\n      PUSH [tag] 416\t\t\t__ERC721_init\n      JUMP \t\t\t__ERC721_init(\"SCUMWalkers\", \"...\n    tag 415\t\t\t__ERC721_init(\"SCUMWalkers\", \"...\n      JUMPDEST \t\t\t__ERC721_init(\"SCUMWalkers\", \"...\n      PUSH [tag] 417\t\t\t__ERC721Enumerable_init()\n      PUSH [tag] 418\t\t\t__ERC721Enumerable_init\n      JUMP \t\t\t__ERC721Enumerable_init()\n    tag 417\t\t\t__ERC721Enumerable_init()\n      JUMPDEST \t\t\t__ERC721Enumerable_init()\n      PUSH [tag] 419\t\t\t__ERC721URIStorage_init()\n      PUSH [tag] 420\t\t\t__ERC721URIStorage_init\n      JUMP \t\t\t__ERC721URIStorage_init()\n    tag 419\t\t\t__ERC721URIStorage_init()\n      JUMPDEST \t\t\t__ERC721URIStorage_init()\n      PUSH [tag] 421\t\t\t__ERC721Pausable_init()\n      PUSH [tag] 422\t\t\t__ERC721Pausable_init\n      JUMP \t\t\t__ERC721Pausable_init()\n    tag 421\t\t\t__ERC721Pausable_init()\n      JUMPDEST \t\t\t__ERC721Pausable_init()\n      PUSH [tag] 423\t\t\t__Ownable_init(initialowner)\n      DUP7 \t\t\tinitialowner\n      PUSH [tag] 424\t\t\t__Ownable_init\n      JUMP \t\t\t__Ownable_init(initialowner)\n    tag 423\t\t\t__Ownable_init(initialowner)\n      JUMPDEST \t\t\t__Ownable_init(initialowner)\n      PUSH [tag] 425\t\t\t__UUPSUpgradeable_init()\n      PUSH [tag] 426\t\t\t__UUPSUpgradeable_init\n      JUMP \t\t\t__UUPSUpgradeable_init()\n    tag 425\t\t\t__UUPSUpgradeable_init()\n      JUMPDEST \t\t\t__UUPSUpgradeable_init()\n      PUSH [tag] 427\t\t\t__EIP712_init(\"SCUMWalkers\", \"...\n      PUSH 40\t\t\t__EIP712_init(\"SCUMWalkers\", \"...\n      MLOAD \t\t\t__EIP712_init(\"SCUMWalkers\", \"...\n      DUP1 \t\t\t__EIP712_init(\"SCUMWalkers\", \"...\n      PUSH 40\t\t\t__EIP712_init(\"SCUMWalkers\", \"...\n      ADD \t\t\t__EIP712_init(\"SCUMWalkers\", \"...\n      PUSH 40\t\t\t__EIP712_init(\"SCUMWalkers\", \"...\n      MSTORE \t\t\t__EIP712_init(\"SCUMWalkers\", \"...\n      DUP1 \t\t\t__EIP712_init(\"SCUMWalkers\", \"...\n      PUSH B\t\t\t__EIP712_init(\"SCUMWalkers\", \"...\n      DUP2 \t\t\t__EIP712_init(\"SCUMWalkers\", \"...\n      MSTORE \t\t\t__EIP712_init(\"SCUMWalkers\", \"...\n      PUSH 20\t\t\t__EIP712_init(\"SCUMWalkers\", \"...\n      ADD \t\t\t__EIP712_init(\"SCUMWalkers\", \"...\n      PUSH 5343554D57616C6B657273000000000000000000000000000000000000000000\t\t\t__EIP712_init(\"SCUMWalkers\", \"...\n      DUP2 \t\t\t__EIP712_init(\"SCUMWalkers\", \"...\n      MSTORE \t\t\t__EIP712_init(\"SCUMWalkers\", \"...\n      POP \t\t\t__EIP712_init(\"SCUMWalkers\", \"...\n      PUSH 40\t\t\t__EIP712_init(\"SCUMWalkers\", \"...\n      MLOAD \t\t\t__EIP712_init(\"SCUMWalkers\", \"...\n      DUP1 \t\t\t__EIP712_init(\"SCUMWalkers\", \"...\n      PUSH 40\t\t\t__EIP712_init(\"SCUMWalkers\", \"...\n      ADD \t\t\t__EIP712_init(\"SCUMWalkers\", \"...\n      PUSH 40\t\t\t__EIP712_init(\"SCUMWalkers\", \"...\n      MSTORE \t\t\t__EIP712_init(\"SCUMWalkers\", \"...\n      DUP1 \t\t\t__EIP712_init(\"SCUMWalkers\", \"...\n      PUSH 1\t\t\t__EIP712_init(\"SCUMWalkers\", \"...\n      DUP2 \t\t\t__EIP712_init(\"SCUMWalkers\", \"...\n      MSTORE \t\t\t__EIP712_init(\"SCUMWalkers\", \"...\n      PUSH 20\t\t\t__EIP712_init(\"SCUMWalkers\", \"...\n      ADD \t\t\t__EIP712_init(\"SCUMWalkers\", \"...\n      PUSH 3100000000000000000000000000000000000000000000000000000000000000\t\t\t__EIP712_init(\"SCUMWalkers\", \"...\n      DUP2 \t\t\t__EIP712_init(\"SCUMWalkers\", \"...\n      MSTORE \t\t\t__EIP712_init(\"SCUMWalkers\", \"...\n      POP \t\t\t__EIP712_init(\"SCUMWalkers\", \"...\n      PUSH [tag] 428\t\t\t__EIP712_init\n      JUMP \t\t\t__EIP712_init(\"SCUMWalkers\", \"...\n    tag 427\t\t\t__EIP712_init(\"SCUMWalkers\", \"...\n      JUMPDEST \t\t\t__EIP712_init(\"SCUMWalkers\", \"...\n      DUP4 \t\t\t\n      ISZERO \t\t\t\n      PUSH [tag] 429\t\t\t\n      JUMPI \t\t\t\n      PUSH 0\t\t\t\n      DUP6 \t\t\t\n      PUSH 0\t\t\t\n      ADD \t\t\t\n      PUSH 8\t\t\t\n      PUSH 100\t\t\t\n      EXP \t\t\t\n      DUP2 \t\t\t\n      SLOAD \t\t\t\n      DUP2 \t\t\t\n      PUSH FF\t\t\t\n      MUL \t\t\t\n      NOT \t\t\t\n      AND \t\t\t\n      SWAP1 \t\t\t\n      DUP4 \t\t\t\n      ISZERO \t\t\t\n      ISZERO \t\t\t\n      MUL \t\t\t\n      OR \t\t\t\n      SWAP1 \t\t\t\n      SSTORE \t\t\t\n      POP \t\t\t\n      PUSH C7F505B2F371AE2175EE4913F4499E1F2633A7B5936321EED1CDAEB6115181D2\t\t\t\n      PUSH 1\t\t\t\n      PUSH 40\t\t\t\n      MLOAD \t\t\t\n      PUSH [tag] 430\t\t\t\n      SWAP2 \t\t\t\n      SWAP1 \t\t\t\n      PUSH [tag] 431\t\t\t\n      JUMP \t\t\t\n    tag 430\t\t\t\n      JUMPDEST \t\t\t\n      PUSH 40\t\t\t\n      MLOAD \t\t\t\n      DUP1 \t\t\t\n      SWAP2 \t\t\t\n      SUB \t\t\t\n      SWAP1 \t\t\t\n      LOG1 \t\t\t\n    tag 429\t\t\t\n      JUMPDEST \t\t\t\n      POP \t\t\t        override(ERC721Upgrade...\n      POP \t\t\t        override(ERC721Upgrade...\n      POP \t\t\t        override(ERC721Upgrade...\n      POP \t\t\t        override(ERC721Upgrade...\n      POP \t\t\t        override(ERC721Upgrade...\n      POP \t\t\tfunction initialize(address in...\n      JUMP \t\t\tfunction initialize(address in...\n    tag 214\t\t\tfunction tokenURI(uint256 toke...\n      JUMPDEST \t\t\tfunction tokenURI(uint256 toke...\n      PUSH 60\t\t\tstring memory\n      PUSH [tag] 433\t\t\tsuper.tokenURI(tokenId)\n      DUP3 \t\t\ttokenId\n      PUSH [tag] 434\t\t\tsuper.tokenURI\n      JUMP \t\t\tsuper.tokenURI(tokenId)\n    tag 433\t\t\tsuper.tokenURI(tokenId)\n      JUMPDEST \t\t\tsuper.tokenURI(tokenId)\n      SWAP1 \t\t\treturn super.tokenURI(tokenId)\n      POP \t\t\treturn super.tokenURI(tokenId)\n      SWAP2 \t\t\tfunction tokenURI(uint256 toke...\n      SWAP1 \t\t\tfunction tokenURI(uint256 toke...\n      POP \t\t\tfunction tokenURI(uint256 toke...\n      JUMP \t\t\tfunction tokenURI(uint256 toke...\n    tag 219\t\t\t();\\n        __Ownable_init(in...\n      JUMPDEST \t\t\t();\\n        __Ownable_init(in...\n      PUSH 0\t\t\tt();\\n  \n      DUP1 \t\t\t12_init(\"SCUMWalkers\", \"1\");\\n...\n      PUSH [tag] 436\t\t\tction pause() public onlyOwner...\n      PUSH [tag] 386\t\t\tction pause() public onlyOwner...\n      JUMP \t\t\tction pause() public onlyOwner...\n    tag 436\t\t\tction pause() public onlyOwner...\n      JUMPDEST \t\t\tction pause() public onlyOwner...\n      SWAP1 \t\t\t12_init(\"SCUMWalkers\", \"1\");\\n...\n      POP \t\t\t12_init(\"SCUMWalkers\", \"1\");\\n...\n      PUSH [tag] 437\t\t\t  }\\n\\n    function unpause() ...\n      DUP2 \t\t\t \n      PUSH 0\t\t\t  }\\n\\n    funct\n      ADD \t\t\t  }\\n\\n    funct\n      PUSH 0\t\t\t  }\\n\\n    function un\n      DUP6 \t\t\ton u\n      DUP2 \t\t\t  }\\n\\n    function un\n      MSTORE \t\t\t  }\\n\\n    function un\n      PUSH 20\t\t\t  }\\n\\n    function un\n      ADD \t\t\t  }\\n\\n    function un\n      SWAP1 \t\t\t  }\\n\\n    function un\n      DUP2 \t\t\t  }\\n\\n    function un\n      MSTORE \t\t\t  }\\n\\n    function un\n      PUSH 20\t\t\t  }\\n\\n    function un\n      ADD \t\t\t  }\\n\\n    function un\n      PUSH 0\t\t\t  }\\n\\n    function un\n      KECCAK256 \t\t\t  }\\n\\n    function un\n      PUSH [tag] 438\t\t\t  }\\n\\n    function unpause()\n      JUMP \t\t\t  }\\n\\n    function unpause() ...\n    tag 437\t\t\t  }\\n\\n    function unpause() ...\n      JUMPDEST \t\t\t  }\\n\\n    function unpause() ...\n      SWAP2 \t\t\te();\\n    }\\n\\n    function un...\n      POP \t\t\te();\\n    }\\n\\n    function un...\n      POP \t\t\te();\\n    }\\n\\n    function un...\n      SWAP2 \t\t\t();\\n        __Ownable_init(in...\n      SWAP1 \t\t\t();\\n        __Ownable_init(in...\n      POP \t\t\t();\\n        __Ownable_init(in...\n      JUMP \t\t\t();\\n        __Ownable_init(in...\n    tag 225\t\t\tfunction safeMint(address to, ...\n      JUMPDEST \t\t\tfunction safeMint(address to, ...\n      PUSH [tag] 440\t\t\teable, ERC721\n      PUSH [tag] 306\t\t\teable, ERC7\n      JUMP \t\t\teable, ERC721\n    tag 440\t\t\teable, ERC721\n      JUMPDEST \t\t\teable, ERC721\n      PUSH 0\t\t\tuint256 tokenId\n      DUP1 \t\t\t_nextTokenId\n      PUSH 0\t\t\t_nextTokenId\n      DUP2 \t\t\t_nextTokenId++\n      SLOAD \t\t\t_nextTokenId++\n      DUP1 \t\t\t_nextTokenId++\n      SWAP3 \t\t\t_nextTokenId++\n      SWAP2 \t\t\t_nextTokenId++\n      SWAP1 \t\t\t_nextTokenId++\n      PUSH [tag] 442\t\t\t_nextTokenId++\n      SWAP1 \t\t\t_nextTokenId++\n      PUSH [tag] 443\t\t\t_nextTokenId++\n      JUMP \t\t\t_nextTokenId++\n    tag 442\t\t\t_nextTokenId++\n      JUMPDEST \t\t\t_nextTokenId++\n      SWAP2 \t\t\t_nextTokenId++\n      SWAP1 \t\t\t_nextTokenId++\n      POP \t\t\t_nextTokenId++\n      SSTORE \t\t\t_nextTokenId++\n      SWAP1 \t\t\tuint256 tokenId = _nextTokenId...\n      POP \t\t\tuint256 tokenId = _nextTokenId...\n      PUSH [tag] 444\t\t\t_safeMint(to, tokenId)\n      DUP4 \t\t\tto\n      DUP3 \t\t\ttokenId\n      PUSH [tag] 445\t\t\t_safeMint\n      JUMP \t\t\t_safeMint(to, tokenId)\n    tag 444\t\t\t_safeMint(to, tokenId)\n      JUMPDEST \t\t\t_safeMint(to, tokenId)\n      PUSH [tag] 446\t\t\t_setTokenURI(tokenId, uri)\n      DUP2 \t\t\ttokenId\n      DUP4 \t\t\turi\n      PUSH [tag] 447\t\t\t_setTokenURI\n      JUMP \t\t\t_setTokenURI(tokenId, uri)\n    tag 446\t\t\t_setTokenURI(tokenId, uri)\n      JUMPDEST \t\t\t_setTokenURI(tokenId, uri)\n      POP \t\t\t{\\n        uint256 tokenId = _...\n      POP \t\t\tfunction safeMint(address to, ...\n      POP \t\t\tfunction safeMint(address to, ...\n      JUMP \t\t\tfunction safeMint(address to, ...\n    tag 229\t\t\t\n      JUMPDEST \t\t\t\n      PUSH [tag] 448\t\t\t\n      DUP3 \t\t\t\n      PUSH [tag] 87\t\t\t\n      JUMP \t\t\t\n    tag 448\t\t\t\n      JUMPDEST \t\t\t\n      PUSH [tag] 450\t\t\twImplementation)\n      DUP2 \t\t\ttion\n      PUSH [tag] 290\t\t\twImplement\n      JUMP \t\t\twImplementation)\n    tag 450\t\t\twImplementation)\n      JUMPDEST \t\t\twImplementation)\n      PUSH [tag] 452\t\t\t\n      DUP4 \t\t\t\n      DUP4 \t\t\t\n      PUSH [tag] 303\t\t\t\n      JUMP \t\t\t\n    tag 452\t\t\t\n      JUMPDEST \t\t\t\n      POP \t\t\t\n      POP \t\t\t\n      POP \t\t\t\n      POP \t\t\t\n      JUMP \t\t\t\n    tag 234\t\t\t\n      JUMPDEST \t\t\t\n      PUSH 0\t\t\t\n      DUP1 \t\t\t\n      PUSH [tag] 454\t\t\t\n      PUSH [tag] 245\t\t\t\n      JUMP \t\t\t\n    tag 454\t\t\t\n      JUMPDEST \t\t\t\n      SWAP1 \t\t\t\n      POP \t\t\t\n      DUP1 \t\t\t\n      PUSH 5\t\t\t\n      ADD \t\t\t\n      PUSH 0\t\t\t\n      DUP6 \t\t\t\n      PUSH FFFFFFFFFFFFFFFFFFFFFFFFFFFFFFFFFFFFFFFF\t\t\t\n      AND \t\t\t\n      PUSH FFFFFFFFFFFFFFFFFFFFFFFFFFFFFFFFFFFFFFFF\t\t\t\n      AND \t\t\t\n      DUP2 \t\t\t\n      MSTORE \t\t\t\n      PUSH 20\t\t\t\n      ADD \t\t\t\n      SWAP1 \t\t\t\n      DUP2 \t\t\t\n      MSTORE \t\t\t\n      PUSH 20\t\t\t\n      ADD \t\t\t\n      PUSH 0\t\t\t\n      KECCAK256 \t\t\t\n      PUSH 0\t\t\t\n      DUP5 \t\t\t\n      PUSH FFFFFFFFFFFFFFFFFFFFFFFFFFFFFFFFFFFFFFFF\t\t\t\n      AND \t\t\t\n      PUSH FFFFFFFFFFFFFFFFFFFFFFFFFFFFFFFFFFFFFFFF\t\t\t\n      AND \t\t\t\n      DUP2 \t\t\t\n      MSTORE \t\t\t\n      PUSH 20\t\t\t\n      ADD \t\t\t\n      SWAP1 \t\t\t\n      DUP2 \t\t\t\n      MSTORE \t\t\t\n      PUSH 20\t\t\t\n      ADD \t\t\t\n      PUSH 0\t\t\t\n      KECCAK256 \t\t\t\n      PUSH 0\t\t\t\n      SWAP1 \t\t\t\n      SLOAD \t\t\t\n      SWAP1 \t\t\t\n      PUSH 100\t\t\t\n      EXP \t\t\t\n      SWAP1 \t\t\t\n      DIV \t\t\t\n      PUSH FF\t\t\t\n      AND \t\t\t\n      SWAP2 \t\t\t\n      POP \t\t\t\n      POP \t\t\t\n      SWAP3 \t\t\t\n      SWAP2 \t\t\t\n      POP \t\t\t\n      POP \t\t\t\n      JUMP \t\t\t\n    tag 239\t\t\tRI(tokenId, uri);\\n    }\\n\\n  ...\n      JUMPDEST \t\t\tRI(tokenId, uri);\\n    }\\n\\n  ...\n      PUSH [tag] 456\t\t\teable, ERC721\n      PUSH [tag] 306\t\t\teable, ERC7\n      JUMP \t\t\teable, ERC721\n    tag 456\t\t\teable, ERC721\n      JUMPDEST \t\t\teable, ERC721\n      PUSH 0\t\t\t,\n      PUSH FFFFFFFFFFFFFFFFFFFFFFFFFFFFFFFFFFFFFFFF\t\t\tde(ERC721Upgradeable, \n      AND \t\t\tde(ERC721Upgradeable, \n      DUP2 \t\t\tde(ERC72\n      PUSH FFFFFFFFFFFFFFFFFFFFFFFFFFFFFFFFFFFFFFFF\t\t\tde(ERC721Upgradeable, \n      AND \t\t\tde(ERC721Upgradeable, \n      SUB \t\t\tde(ERC721Upgradeable, \n      PUSH [tag] 458\t\t\terride(ERC721Upgradeable, ERC7...\n      JUMPI \t\t\terride(ERC721Upgradeable, ERC7...\n      PUSH 0\t\t\t \n      PUSH 40\t\t\teable) returns (address) {\\n  ...\n      MLOAD \t\t\teable) returns (address) {\\n  ...\n      PUSH 1E4FBDF700000000000000000000000000000000000000000000000000000000\t\t\teable) returns (address) {\\n  ...\n      DUP2 \t\t\teable) returns (address) {\\n  ...\n      MSTORE \t\t\teable) returns (address) {\\n  ...\n      PUSH 4\t\t\teable) returns (address) {\\n  ...\n      ADD \t\t\teable) returns (address) {\\n  ...\n      PUSH [tag] 459\t\t\teable) returns (address) {\\n  ...\n      SWAP2 \t\t\teable) returns (address) {\\n  ...\n      SWAP1 \t\t\teable) returns (address) {\\n  ...\n      PUSH [tag] 67\t\t\teable) returns (address) {\\n  ...\n      JUMP \t\t\teable) returns (address) {\\n  ...\n    tag 459\t\t\teable) returns (address) {\\n  ...\n      JUMPDEST \t\t\teable) returns (address) {\\n  ...\n      PUSH 40\t\t\teable) returns (address) {\\n  ...\n      MLOAD \t\t\teable) returns (address) {\\n  ...\n      DUP1 \t\t\teable) returns (address) {\\n  ...\n      SWAP2 \t\t\teable) returns (address) {\\n  ...\n      SUB \t\t\teable) returns (address) {\\n  ...\n      SWAP1 \t\t\teable) returns (address) {\\n  ...\n      REVERT \t\t\teable) returns (address) {\\n  ...\n    tag 458\t\t\terride(ERC721Upgradeable, ERC7...\n      JUMPDEST \t\t\terride(ERC721Upgradeable, ERC7...\n      PUSH [tag] 460\t\t\ttation logic here\\n    return\n      DUP2 \t\t\t   retur\n      PUSH [tag] 354\t\t\ttation logic here\\n\n      JUMP \t\t\ttation logic here\\n    return\n    tag 460\t\t\ttation logic here\\n    return\n      JUMPDEST \t\t\ttation logic here\\n    return\n      POP \t\t\tRI(tokenId, uri);\\n    }\\n\\n  ...\n      JUMP \t\t\tRI(tokenId, uri);\\n    }\\n\\n  ...\n    tag 242\t\t\table.sol\";\\nimport \"@openzeppe...\n      JUMPDEST \t\t\table.sol\";\\nimport \"@openzeppe...\n      PUSH 0\t\t\tzepp\n      PUSH 49064906\t\t\tracts-upgr\n      PUSH E0\t\t\tin/contracts-upgra\n      SHL \t\t\tin/contracts-upgra\n      PUSH FFFFFFFFFFFFFFFFFFFFFFFFFFFFFFFFFFFFFFFFFFFFFFFFFFFFFFFF\t\t\tadeable@5.0.0/proxy/utils/UUPS...\n      NOT \t\t\tadeable@5.0.0/proxy/utils/UUPS...\n      AND \t\t\tadeable@5.0.0/proxy/utils/UUPS...\n      DUP3 \t\t\tadeable@5.0\n      PUSH FFFFFFFFFFFFFFFFFFFFFFFFFFFFFFFFFFFFFFFFFFFFFFFFFFFFFFFF\t\t\tadeable@5.0.0/proxy/utils/UUPS...\n      NOT \t\t\tadeable@5.0.0/proxy/utils/UUPS...\n      AND \t\t\tadeable@5.0.0/proxy/utils/UUPS...\n      EQ \t\t\tadeable@5.0.0/proxy/utils/UUPS...\n      DUP1 \t\t\tadeable@5.0.0/proxy/utils/UUPS...\n      PUSH [tag] 462\t\t\tadeable@5.0.0/proxy/utils/UUPS...\n      JUMPI \t\t\tadeable@5.0.0/proxy/utils/UUPS...\n      POP \t\t\tadeable@5.0.0/proxy/utils/UUPS...\n      PUSH [tag] 463\t\t\tle.sol\";\\n\\n/// @custom:securi...\n      DUP3 \t\t\tcurity-cont\n      PUSH [tag] 464\t\t\tle.sol\";\\n\\n/// @custom:s\n      JUMP \t\t\tle.sol\";\\n\\n/// @custom:securi...\n    tag 463\t\t\tle.sol\";\\n\\n/// @custom:securi...\n      JUMPDEST \t\t\tle.sol\";\\n\\n/// @custom:securi...\n    tag 462\t\t\tadeable@5.0.0/proxy/utils/UUPS...\n      JUMPDEST \t\t\tadeable@5.0.0/proxy/utils/UUPS...\n      SWAP1 \t\t\tts-upgradeable@5.0.0/proxy/uti...\n      POP \t\t\tts-upgradeable@5.0.0/proxy/uti...\n      SWAP2 \t\t\table.sol\";\\nimport \"@openzeppe...\n      SWAP1 \t\t\table.sol\";\\nimport \"@openzeppe...\n      POP \t\t\table.sol\";\\nimport \"@openzeppe...\n      JUMP \t\t\table.sol\";\\nimport \"@openzeppe...\n    tag 245\t\t\tppelin/contracts-upgradeable@5...\n      JUMPDEST \t\t\tppelin/contracts-upgradeable@5...\n      PUSH 0\t\t\tUpgradeable.sol\";\\n\\n/// \n      PUSH 80BB2B638CC20BC4D0A60D66940F3AB4A00C1D7B313497CA82FB0B4AB0079300\t\t\tcontract SCUMWalkers \n      SWAP1 \t\t\tskiff.com\\ncontract SCUMWalker...\n      POP \t\t\tskiff.com\\ncontract SCUMWalker...\n      SWAP1 \t\t\tppelin/contracts-upgradeable@5...\n      JUMP \t\t\tppelin/contracts-upgradeable@5...\n    tag 254\t\t\t\n      JUMPDEST \t\t\t\n      PUSH 0\t\t\t\n      DUP1 \t\t\t\n      PUSH [tag] 467\t\t\t\n      DUP4 \t\t\t\n      PUSH [tag] 468\t\t\t\n      JUMP \t\t\t\n    tag 467\t\t\t\n      JUMPDEST \t\t\t\n      SWAP1 \t\t\t\n      POP \t\t\t\n      PUSH 0\t\t\t\n      PUSH FFFFFFFFFFFFFFFFFFFFFFFFFFFFFFFFFFFFFFFF\t\t\t\n      AND \t\t\t\n      DUP2 \t\t\t\n      PUSH FFFFFFFFFFFFFFFFFFFFFFFFFFFFFFFFFFFFFFFF\t\t\t\n      AND \t\t\t\n      SUB \t\t\t\n      PUSH [tag] 469\t\t\t\n      JUMPI \t\t\t\n      DUP3 \t\t\t\n      PUSH 40\t\t\t\n      MLOAD \t\t\t\n      PUSH 7E27328900000000000000000000000000000000000000000000000000000000\t\t\t\n      DUP2 \t\t\t\n      MSTORE \t\t\t\n      PUSH 4\t\t\t\n      ADD \t\t\t\n      PUSH [tag] 470\t\t\t\n      SWAP2 \t\t\t\n      SWAP1 \t\t\t\n      PUSH [tag] 77\t\t\t\n      JUMP \t\t\t\n    tag 470\t\t\t\n      JUMPDEST \t\t\t\n      PUSH 40\t\t\t\n      MLOAD \t\t\t\n      DUP1 \t\t\t\n      SWAP2 \t\t\t\n      SUB \t\t\t\n      SWAP1 \t\t\t\n      REVERT \t\t\t\n    tag 469\t\t\t\n      JUMPDEST \t\t\t\n      DUP1 \t\t\t\n      SWAP2 \t\t\t\n      POP \t\t\t\n      POP \t\t\t\n      SWAP2 \t\t\t\n      SWAP1 \t\t\t\n      POP \t\t\t\n      JUMP \t\t\t\n    tag 256\t\t\t\n      JUMPDEST \t\t\t\n      PUSH 0\t\t\t\n      DUP1 \t\t\t\n      PUSH [tag] 472\t\t\t\n      PUSH [tag] 245\t\t\t\n      JUMP \t\t\t\n    tag 472\t\t\t\n      JUMPDEST \t\t\t\n      SWAP1 \t\t\t\n      POP \t\t\t\n      DUP1 \t\t\t\n      PUSH 4\t\t\t\n      ADD \t\t\t\n      PUSH 0\t\t\t\n      DUP5 \t\t\t\n      DUP2 \t\t\t\n      MSTORE \t\t\t\n      PUSH 20\t\t\t\n      ADD \t\t\t\n      SWAP1 \t\t\t\n      DUP2 \t\t\t\n      MSTORE \t\t\t\n      PUSH 20\t\t\t\n      ADD \t\t\t\n      PUSH 0\t\t\t\n      KECCAK256 \t\t\t\n      PUSH 0\t\t\t\n      SWAP1 \t\t\t\n      SLOAD \t\t\t\n      SWAP1 \t\t\t\n      PUSH 100\t\t\t\n      EXP \t\t\t\n      SWAP1 \t\t\t\n      DIV \t\t\t\n      PUSH FFFFFFFFFFFFFFFFFFFFFFFFFFFFFFFFFFFFFFFF\t\t\t\n      AND \t\t\t\n      SWAP2 \t\t\t\n      POP \t\t\t\n      POP \t\t\t\n      SWAP2 \t\t\t\n      SWAP1 \t\t\t\n      POP \t\t\t\n      JUMP \t\t\t\n    tag 260\t\t\t21EnumerableUpgradeable.sol\";\\...\n      JUMPDEST \t\t\t21EnumerableUpgradeable.sol\";\\...\n      PUSH 0\t\t\tontract\n      CALLER \t\t\t/token/ERC\n      SWAP1 \t\t\te@5.0.0/token/ERC\n      POP \t\t\te@5.0.0/token/ERC\n      SWAP1 \t\t\t21EnumerableUpgradeable.sol\";\\...\n      JUMP \t\t\t21EnumerableUpgradeable.sol\";\\...\n    tag 261\t\t\t\n      JUMPDEST \t\t\t\n      PUSH [tag] 475\t\t\t\n      DUP4 \t\t\t\n      DUP4 \t\t\t\n      DUP4 \t\t\t\n      PUSH 1\t\t\t\n      PUSH [tag] 476\t\t\t\n      JUMP \t\t\t\n    tag 475\t\t\t\n      JUMPDEST \t\t\t\n      POP \t\t\t\n      POP \t\t\t\n      POP \t\t\t\n      JUMP \t\t\t\n    tag 264\t\t\tls/ContextUpgradeable.sol\";\\ni...\n      JUMPDEST \t\t\tls/ContextUpgradeable.sol\";\\ni...\n      PUSH 0\t\t\tpgradeable@5.0.0/utils/Multica...\n      PUSH 645E039705490088DAAD89BAE25049A34F4A9072D398537B1AB2425F24CBED00\t\t\tcts-upgradeable@5.0.0/utils/No...\n      SWAP1 \t\t\tlin/contracts-upgradeable@5.0....\n      POP \t\t\tlin/contracts-upgradeable@5.0....\n      SWAP1 \t\t\tls/ContextUpgradeable.sol\";\\ni...\n      JUMP \t\t\tls/ContextUpgradeable.sol\";\\ni...\n    tag 270\t\t\tfunction _update(address to, u...\n      JUMPDEST \t\t\tfunction _update(address to, u...\n      PUSH 0\t\t\taddress\n      PUSH [tag] 479\t\t\tsuper._update(to, tokenId, aut...\n      DUP5 \t\t\tto\n      DUP5 \t\t\ttokenId\n      DUP5 \t\t\tauth\n      PUSH [tag] 480\t\t\tsuper._update\n      JUMP \t\t\tsuper._update(to, tokenId, aut...\n    tag 479\t\t\tsuper._update(to, tokenId, aut...\n      JUMPDEST \t\t\tsuper._update(to, tokenId, aut...\n      SWAP1 \t\t\treturn super._update(to, token...\n      POP \t\t\treturn super._update(to, token...\n      SWAP4 \t\t\tfunction _update(address to, u...\n      SWAP3 \t\t\tfunction _update(address to, u...\n      POP \t\t\tfunction _update(address to, u...\n      POP \t\t\tfunction _update(address to, u...\n      POP \t\t\tfunction _update(address to, u...\n      JUMP \t\t\tfunction _update(address to, u...\n    tag 276\t\t\t\"SW\");\\n        __ERC721Enumer...\n      JUMPDEST \t\t\t\"SW\");\\n        __ERC721Enumer...\n      PUSH 0\t\t\tURIStorage_init();\\n        __...\n      PUSH 2DD7BC7DEC4DCEEDDA775E58DD541E08A116C6C53815C0BD028192F7B626800\t\t\tinitialowner);\\n        __UUP\n      SWAP1 \t\t\table_init(initialowner);\\n    ...\n      POP \t\t\table_init(initialowner);\\n    ...\n      SWAP1 \t\t\t\"SW\");\\n        __ERC721Enumer...\n      JUMP \t\t\t\"SW\");\\n        __ERC721Enumer...\n    tag 279\t\t\teentrancyGuardUpgradeable.sol\"...\n      JUMPDEST \t\t\teentrancyGuardUpgradeable.sol\"...\n      PUSH 0\t\t\tn/contracts-upgradeable@\n      PUSH DAEDC9AB023613A7CAF35E703657E986CCFAD7E3EB0AF93A2853F8D65DD86B00\t\t\t@custom:security-conta\n      SWAP1 \t\t\tol\";\\n\\n/// @custom:security-c...\n      POP \t\t\tol\";\\n\\n/// @custom:security-c...\n      SWAP1 \t\t\teentrancyGuardUpgradeable.sol\"...\n      JUMP \t\t\teentrancyGuardUpgradeable.sol\"...\n    tag 282\t\t\tId, auth);\\n    }\\n\\n    funct...\n      JUMPDEST \t\t\tId, auth);\\n    }\\n\\n    funct...\n      PUSH 0\t\t\tcount,\n      PUSH 2710\t\t\t     \n      SWAP1 \t\t\tue)\\n        \n      POP \t\t\tue)\\n        \n      SWAP1 \t\t\tId, auth);\\n    }\\n\\n    funct...\n      JUMP \t\t\tId, auth);\\n    }\\n\\n    funct...\n    tag 290\t\t\tadeable)\\n    {\\n        super...\n      JUMPDEST \t\t\tadeable)\\n    {\\n        super...\n      PUSH [tag] 485\t\t\t }\\n\\n    function _BaseURI() ...\n      DUP2 \t\t\tctio\n      PUSH [tag] 486\t\t\t_BaseURI() p\n      PUSH [tag] 260\t\t\t_BaseURI()\n      JUMP \t\t\t_BaseURI() p\n    tag 486\t\t\t_BaseURI() p\n      JUMPDEST \t\t\t_BaseURI() p\n      PUSH [tag] 487\t\t\t }\\n\\n    fu\n      JUMP \t\t\t }\\n\\n    function _BaseURI() ...\n    tag 485\t\t\t }\\n\\n    function _BaseURI() ...\n      JUMPDEST \t\t\t }\\n\\n    function _BaseURI() ...\n      POP \t\t\tadeable)\\n    {\\n        super...\n      JUMP \t\t\tadeable)\\n    {\\n        super...\n    tag 293\t\t\toverride onlyOwner {}\\n\\n\\n   ...\n      JUMPDEST \t\t\toverride onlyOwner {}\\n\\n\\n   ...\n      PUSH 0\t\t\tlyOw\n      DUP1 \t\t\t  uint256 tokenId = _nextToken...\n      PUSH [tag] 489\t\t\t _safeMint(to, tokenId);\\n    ...\n      PUSH [tag] 386\t\t\t _safeMint(to, tokenId);\\n    ...\n      JUMP \t\t\t _safeMint(to, tokenId);\\n    ...\n    tag 489\t\t\t _safeMint(to, tokenId);\\n    ...\n      JUMPDEST \t\t\t _safeMint(to, tokenId);\\n    ...\n      SWAP1 \t\t\t  uint256 tokenId = _nextToken...\n      POP \t\t\t  uint256 tokenId = _nextToken...\n      PUSH 0\t\t\ttokenId, uri\n      PUSH [tag] 490\t\t\t    }\\n\\n    function _ownerOf...\n      DUP6 \t\t\ton _\n      DUP6 \t\t\tnerOf(u\n      PUSH [tag] 491\t\t\t    }\\n\\n    funct\n      JUMP \t\t\t    }\\n\\n    function _ownerOf...\n    tag 490\t\t\t    }\\n\\n    function _ownerOf...\n      JUMPDEST \t\t\t    }\\n\\n    function _ownerOf...\n      SWAP1 \t\t\ttokenId, uri);\\n    }\\n\\n    f...\n      POP \t\t\ttokenId, uri);\\n    }\\n\\n    f...\n      DUP1 \t\t\t intern\n      ISZERO \t\t\tnId) internal view override(ER...\n      PUSH [tag] 492\t\t\tnId) internal view override(ER...\n      JUMPI \t\t\tnId) internal view override(ER...\n      PUSH [tag] 493\t\t\t(ERC721Upgradeable, ERC721Cons...\n      DUP5 \t\t\t1Consec\n      DUP4 \t\t\t(\n      PUSH 0\t\t\t(ERC721Upgrade\n      ADD \t\t\t(ERC721Upgrade\n      PUSH 0\t\t\t(ERC721Upgradeable, \n      DUP9 \t\t\tble,\n      DUP2 \t\t\t(ERC721Upgradeable, \n      MSTORE \t\t\t(ERC721Upgradeable, \n      PUSH 20\t\t\t(ERC721Upgradeable, \n      ADD \t\t\t(ERC721Upgradeable, \n      SWAP1 \t\t\t(ERC721Upgradeable, \n      DUP2 \t\t\t(ERC721Upgradeable, \n      MSTORE \t\t\t(ERC721Upgradeable, \n      PUSH 20\t\t\t(ERC721Upgradeable, \n      ADD \t\t\t(ERC721Upgradeable, \n      PUSH 0\t\t\t(ERC721Upgradeable, \n      KECCAK256 \t\t\t(ERC721Upgradeable, \n      PUSH [tag] 494\t\t\t(ERC721Upgradeable, ERC7\n      SWAP1 \t\t\t(ERC721Upgradeable, ERC7\n      SWAP2 \t\t\t(ERC721Upgradeable, ERC721Cons...\n      SWAP1 \t\t\t(ERC721Upgradeable, ERC721Cons...\n      PUSH FFFFFFFF\t\t\t(ERC721Upgradeable, ERC721Cons...\n      AND \t\t\t(ERC721Upgradeable, ERC721Cons...\n      JUMP \t\t\t(ERC721Upgradeable, ERC721Cons...\n    tag 493\t\t\t(ERC721Upgradeable, ERC721Cons...\n      JUMPDEST \t\t\t(ERC721Upgradeable, ERC721Cons...\n      POP \t\t\t(ERC721Upgradeable, ERC721Cons...\n    tag 492\t\t\tnId) internal view override(ER...\n      JUMPDEST \t\t\tnId) internal view override(ER...\n      DUP1 \t\t\tddress)\n      SWAP3 \t\t\turns (address)\n      POP \t\t\turns (address)\n      POP \t\t\turns (address)\n      POP \t\t\turns (address)\n      SWAP3 \t\t\toverride onlyOwner {}\\n\\n\\n   ...\n      SWAP2 \t\t\toverride onlyOwner {}\\n\\n\\n   ...\n      POP \t\t\toverride onlyOwner {}\\n\\n\\n   ...\n      POP \t\t\toverride onlyOwner {}\\n\\n\\n   ...\n      JUMP \t\t\toverride onlyOwner {}\\n\\n\\n   ...\n    tag 303\t\t\tlowing functions are overrides...\n      JUMPDEST \t\t\tlowing functions are overrides...\n      PUSH 0\t\t\tuint\n      DUP1 \t\t\t address auth)\\n        intern...\n      PUSH [tag] 496\t\t\trride(ERC721ConsecutiveUpgrade...\n      PUSH [tag] 386\t\t\trride(ERC721ConsecutiveUpgrade...\n      JUMP \t\t\trride(ERC721ConsecutiveUpgrade...\n    tag 496\t\t\trride(ERC721ConsecutiveUpgrade...\n      JUMPDEST \t\t\trride(ERC721ConsecutiveUpgrade...\n      SWAP1 \t\t\t address auth)\\n        intern...\n      POP \t\t\t address auth)\\n        intern...\n      PUSH 0\t\t\terableUpgrad\n      PUSH [tag] 497\t\t\tle, ERC721PausableUpgradeable,...\n      DUP6 \t\t\tUpgr\n      DUP6 \t\t\teable, \n      PUSH [tag] 498\t\t\tle, ERC721Pausabl\n      JUMP \t\t\tle, ERC721PausableUpgradeable,...\n    tag 497\t\t\tle, ERC721PausableUpgradeable,...\n      JUMPDEST \t\t\tle, ERC721PausableUpgradeable,...\n      SWAP1 \t\t\terableUpgradeable, ERC721Pausa...\n      POP \t\t\terableUpgradeable, ERC721Pausa...\n      DUP1 \t\t\tle)\\n   \n      ISZERO \t\t\tdeable)\\n        returns (addr...\n      PUSH [tag] 499\t\t\tdeable)\\n        returns (addr...\n      JUMPI \t\t\tdeable)\\n        returns (addr...\n      PUSH [tag] 500\t\t\tdress)\\n    {\\n        return ...\n      DUP5 \t\t\tsuper._\n      DUP4 \t\t\td\n      PUSH 0\t\t\tdress)\\n    {\\n \n      ADD \t\t\tdress)\\n    {\\n \n      PUSH 0\t\t\tdress)\\n    {\\n       \n      DUP9 \t\t\t    \n      DUP2 \t\t\tdress)\\n    {\\n       \n      MSTORE \t\t\tdress)\\n    {\\n       \n      PUSH 20\t\t\tdress)\\n    {\\n       \n      ADD \t\t\tdress)\\n    {\\n       \n      SWAP1 \t\t\tdress)\\n    {\\n       \n      DUP2 \t\t\tdress)\\n    {\\n       \n      MSTORE \t\t\tdress)\\n    {\\n       \n      PUSH 20\t\t\tdress)\\n    {\\n       \n      ADD \t\t\tdress)\\n    {\\n       \n      PUSH 0\t\t\tdress)\\n    {\\n       \n      KECCAK256 \t\t\tdress)\\n    {\\n       \n      PUSH [tag] 501\t\t\tdress)\\n    {\\n        return\n      SWAP1 \t\t\tdress)\\n    {\\n        return\n      SWAP2 \t\t\tdress)\\n    {\\n        return ...\n      SWAP1 \t\t\tdress)\\n    {\\n        return ...\n      PUSH FFFFFFFF\t\t\tdress)\\n    {\\n        return ...\n      AND \t\t\tdress)\\n    {\\n        return ...\n      JUMP \t\t\tdress)\\n    {\\n        return ...\n    tag 500\t\t\tdress)\\n    {\\n        return ...\n      JUMPDEST \t\t\tdress)\\n    {\\n        return ...\n      POP \t\t\tdress)\\n    {\\n        return ...\n    tag 499\t\t\tdeable)\\n        returns (addr...\n      JUMPDEST \t\t\tdeable)\\n        returns (addr...\n      DUP1 \t\t\t   }\\n\\n \n      SWAP3 \t\t\tuth);\\n    }\\n\\n \n      POP \t\t\tuth);\\n    }\\n\\n \n      POP \t\t\tuth);\\n    }\\n\\n \n      POP \t\t\tuth);\\n    }\\n\\n \n      SWAP3 \t\t\tlowing functions are overrides...\n      SWAP2 \t\t\tlowing functions are overrides...\n      POP \t\t\tlowing functions are overrides...\n      POP \t\t\tlowing functions are overrides...\n      JUMP \t\t\tlowing functions are overrides...\n    tag 306\t\t\tleInitializers();\\n    }\\n\\n  ...\n      JUMPDEST \t\t\tleInitializers();\\n    }\\n\\n  ...\n      PUSH [tag] 503\t\t\t initializer\n      PUSH [tag] 260\t\t\t initializ\n      JUMP \t\t\t initializer\n    tag 503\t\t\t initializer\n      JUMPDEST \t\t\t initializer\n      PUSH FFFFFFFFFFFFFFFFFFFFFFFFFFFFFFFFFFFFFFFF\t\t\titialowner) initializer\n      AND \t\t\titialowner) initializer\n      PUSH [tag] 504\t\t\titialow\n      PUSH [tag] 172\t\t\titial\n      JUMP \t\t\titialow\n    tag 504\t\t\titialow\n      JUMPDEST \t\t\titialow\n      PUSH FFFFFFFFFFFFFFFFFFFFFFFFFFFFFFFFFFFFFFFF\t\t\titialowner) initializer\n      AND \t\t\titialowner) initializer\n      EQ \t\t\titialowner) initializer\n      PUSH [tag] 505\t\t\ts initialowner) initializer pu...\n      JUMPI \t\t\ts initialowner) initializer pu...\n      PUSH [tag] 506\t\t\t\");\\n        \n      PUSH [tag] 260\t\t\t\");\\n      \n      JUMP \t\t\t\");\\n        \n    tag 506\t\t\t\");\\n        \n      JUMPDEST \t\t\t\");\\n        \n      PUSH 40\t\t\t721_init(\"SCUMWalkers\", \"SW\");...\n      MLOAD \t\t\t721_init(\"SCUMWalkers\", \"SW\");...\n      PUSH 118CDAA700000000000000000000000000000000000000000000000000000000\t\t\t721_init(\"SCUMWalkers\", \"SW\");...\n      DUP2 \t\t\t721_init(\"SCUMWalkers\", \"SW\");...\n      MSTORE \t\t\t721_init(\"SCUMWalkers\", \"SW\");...\n      PUSH 4\t\t\t721_init(\"SCUMWalkers\", \"SW\");...\n      ADD \t\t\t721_init(\"SCUMWalkers\", \"SW\");...\n      PUSH [tag] 507\t\t\t721_init(\"SCUMWalkers\", \"SW\");...\n      SWAP2 \t\t\t721_init(\"SCUMWalkers\", \"SW\");...\n      SWAP1 \t\t\t721_init(\"SCUMWalkers\", \"SW\");...\n      PUSH [tag] 67\t\t\t721_init(\"SCUMWalkers\", \"SW\");...\n      JUMP \t\t\t721_init(\"SCUMWalkers\", \"SW\");...\n    tag 507\t\t\t721_init(\"SCUMWalkers\", \"SW\");...\n      JUMPDEST \t\t\t721_init(\"SCUMWalkers\", \"SW\");...\n      PUSH 40\t\t\t721_init(\"SCUMWalkers\", \"SW\");...\n      MLOAD \t\t\t721_init(\"SCUMWalkers\", \"SW\");...\n      DUP1 \t\t\t721_init(\"SCUMWalkers\", \"SW\");...\n      SWAP2 \t\t\t721_init(\"SCUMWalkers\", \"SW\");...\n      SUB \t\t\t721_init(\"SCUMWalkers\", \"SW\");...\n      SWAP1 \t\t\t721_init(\"SCUMWalkers\", \"SW\");...\n      REVERT \t\t\t721_init(\"SCUMWalkers\", \"SW\");...\n    tag 505\t\t\ts initialowner) initializer pu...\n      JUMPDEST \t\t\ts initialowner) initializer pu...\n      JUMP \t\t\tleInitializers();\\n    }\\n\\n  ...\n    tag 309\t\t\t functions are overrides requi...\n      JUMPDEST \t\t\t functions are overrides requi...\n      PUSH [tag] 509\t\t\t  }\\n   \\n    /// \n      PUSH [tag] 510\t\t\t  }\\n   \\n    //\n      JUMP \t\t\t  }\\n   \\n    /// \n    tag 509\t\t\t  }\\n   \\n    /// \n      JUMPDEST \t\t\t  }\\n   \\n    /// \n      PUSH 0\t\t\ton _update(address to, ui\n      PUSH [tag] 512\t\t\t56 tokenId, address a\n      PUSH [tag] 343\t\t\t56 tokenId, address\n      JUMP \t\t\t56 tokenId, address a\n    tag 512\t\t\t56 tokenId, address a\n      JUMPDEST \t\t\t56 tokenId, address a\n      SWAP1 \t\t\ton _update(address to, uint256...\n      POP \t\t\ton _update(address to, uint256...\n      PUSH 0\t\t\t     \n      DUP2 \t\t\t \n      PUSH 0\t\t\t   intern\n      ADD \t\t\t   intern\n      PUSH 0\t\t\t   intern\n      PUSH 100\t\t\t   internal\\n     \n      EXP \t\t\t   internal\\n     \n      DUP2 \t\t\t   internal\\n     \n      SLOAD \t\t\t   internal\\n     \n      DUP2 \t\t\t   internal\\n     \n      PUSH FF\t\t\t   internal\\n     \n      MUL \t\t\t   internal\\n     \n      NOT \t\t\t   internal\\n     \n      AND \t\t\t   internal\\n     \n      SWAP1 \t\t\t   internal\\n     \n      DUP4 \t\t\t   internal\\n     \n      ISZERO \t\t\t   internal\\n     \n      ISZERO \t\t\t   internal\\n     \n      MUL \t\t\t   internal\\n     \n      OR \t\t\t   internal\\n     \n      SWAP1 \t\t\t   internal\\n     \n      SSTORE \t\t\t   internal\\n     \n      POP \t\t\t   internal\\n     \n      PUSH 5DB9EE0A495BF2E6FF9C91A7834C1BA4FDD244A5E8AA4E537BD38AEAE4B073AA\t\t\t721ConsecutiveUpgradea\n      PUSH [tag] 513\t\t\tutiveUpgrade\n      PUSH [tag] 260\t\t\tutiveUpgra\n      JUMP \t\t\tutiveUpgrade\n    tag 513\t\t\tutiveUpgrade\n      JUMPDEST \t\t\tutiveUpgrade\n      PUSH 40\t\t\t721ConsecutiveUpgradea\n      MLOAD \t\t\t721ConsecutiveUpgradea\n      PUSH [tag] 514\t\t\t721ConsecutiveUpgradea\n      SWAP2 \t\t\t721ConsecutiveUpgradea\n      SWAP1 \t\t\t721ConsecutiveUpgradea\n      PUSH [tag] 67\t\t\t721ConsecutiveUpgradea\n      JUMP \t\t\t721ConsecutiveUpgradea\n    tag 514\t\t\t721ConsecutiveUpgradea\n      JUMPDEST \t\t\t721ConsecutiveUpgradea\n      PUSH 40\t\t\t721ConsecutiveUpgradea\n      MLOAD \t\t\t721ConsecutiveUpgradea\n      DUP1 \t\t\t721ConsecutiveUpgradea\n      SWAP2 \t\t\t721ConsecutiveUpgradea\n      SUB \t\t\t721ConsecutiveUpgradea\n      SWAP1 \t\t\t721ConsecutiveUpgradea\n      LOG1 \t\t\t721ConsecutiveUpgradea\n      POP \t\t\t    function _update(address t...\n      JUMP \t\t\t functions are overrides requi...\n    tag 317\t\t\tblic\\n        view\\n        ov...\n      JUMPDEST \t\t\tblic\\n        view\\n        ov...\n      PUSHIMMUTABLE 1032\t\t\t, ERC7\n      PUSH FFFFFFFFFFFFFFFFFFFFFFFFFFFFFFFFFFFFFFFF\t\t\tRC2981Upgradeable, ERC7\n      AND \t\t\tRC2981Upgradeable, ERC7\n      ADDRESS \t\t\tgrad\n      PUSH FFFFFFFFFFFFFFFFFFFFFFFFFFFFFFFFFFFFFFFF\t\t\tRC2981Upgradeable, ERC7\n      AND \t\t\tRC2981Upgradeable, ERC7\n      EQ \t\t\tRC2981Upgradeable, ERC7\n      DUP1 \t\t\tRC2981Upgradeable, ERC721Upgra...\n      PUSH [tag] 516\t\t\tRC2981Upgradeable, ERC721Upgra...\n      JUMPI \t\t\tRC2981Upgradeable, ERC721Upgra...\n      POP \t\t\tRC2981Upgradeable, ERC721Upgra...\n      PUSHIMMUTABLE 1032\t\t\tool)\\n \n      PUSH FFFFFFFFFFFFFFFFFFFFFFFFFFFFFFFFFFFFFFFF\t\t\torageUpgradeable)\\n        ret...\n      AND \t\t\torageUpgradeable)\\n        ret...\n      PUSH [tag] 517\t\t\torageUpgradeable)\\n        ret...\n      PUSH [tag] 518\t\t\torageUpgradeable)\\n        ret...\n      JUMP \t\t\torageUpgradeable)\\n        ret...\n    tag 517\t\t\torageUpgradeable)\\n        ret...\n      JUMPDEST \t\t\torageUpgradeable)\\n        ret...\n      PUSH FFFFFFFFFFFFFFFFFFFFFFFFFFFFFFFFFFFFFFFF\t\t\torageUpgradeable)\\n        ret...\n      AND \t\t\torageUpgradeable)\\n        ret...\n      EQ \t\t\torageUpgradeable)\\n        ret...\n      ISZERO \t\t\torageUpgradeable)\\n        ret...\n    tag 516\t\t\tRC2981Upgradeable, ERC721Upgra...\n      JUMPDEST \t\t\tRC2981Upgradeable, ERC721Upgra...\n      ISZERO \t\t\tbleUpgradeable, ERC2981Upgrade...\n      PUSH [tag] 519\t\t\tbleUpgradeable, ERC2981Upgrade...\n      JUMPI \t\t\tbleUpgradeable, ERC2981Upgrade...\n      PUSH 40\t\t\t\n      MLOAD \t\t\t\n      PUSH E07C8DBA00000000000000000000000000000000000000000000000000000000\t\t\t\n      DUP2 \t\t\t\n      MSTORE \t\t\t\n      PUSH 4\t\t\t\n      ADD \t\t\t\n      PUSH 40\t\t\t\n      MLOAD \t\t\t\n      DUP1 \t\t\t\n      SWAP2 \t\t\t\n      SUB \t\t\t\n      SWAP1 \t\t\t\n      REVERT \t\t\t\n    tag 519\t\t\tbleUpgradeable, ERC2981Upgrade...\n      JUMPDEST \t\t\tbleUpgradeable, ERC2981Upgrade...\n      JUMP \t\t\tblic\\n        view\\n        ov...\n    tag 320\t\t\tfunction _authorizeUpgrade(add...\n      JUMPDEST \t\t\tfunction _authorizeUpgrade(add...\n      PUSH [tag] 521\t\t\teable, ERC721\n      PUSH [tag] 306\t\t\teable, ERC7\n      JUMP \t\t\teable, ERC721\n    tag 521\t\t\teable, ERC721\n      JUMPDEST \t\t\teable, ERC721\n      POP \t\t\tfunction _authorizeUpgrade(add...\n      JUMP \t\t\tfunction _authorizeUpgrade(add...\n    tag 322\t\t\t\n      JUMPDEST \t\t\t\n      DUP2 \t\t\t\n      PUSH FFFFFFFFFFFFFFFFFFFFFFFFFFFFFFFFFFFFFFFF\t\t\t\n      AND \t\t\t\n      PUSH 52D1902D\t\t\t\n      PUSH 40\t\t\t\n      MLOAD \t\t\t\n      DUP2 \t\t\t\n      PUSH FFFFFFFF\t\t\t\n      AND \t\t\t\n      PUSH E0\t\t\t\n      SHL \t\t\t\n      DUP2 \t\t\t\n      MSTORE \t\t\t\n      PUSH 4\t\t\t\n      ADD \t\t\t\n      PUSH 20\t\t\t\n      PUSH 40\t\t\t\n      MLOAD \t\t\t\n      DUP1 \t\t\t\n      DUP4 \t\t\t\n      SUB \t\t\t\n      DUP2 \t\t\t\n      DUP7 \t\t\t\n      GAS \t\t\t\n      STATICCALL \t\t\t\n      SWAP3 \t\t\t\n      POP \t\t\t\n      POP \t\t\t\n      POP \t\t\t\n      DUP1 \t\t\t\n      ISZERO \t\t\t\n      PUSH [tag] 524\t\t\t\n      JUMPI \t\t\t\n      POP \t\t\t\n      PUSH 40\t\t\t\n      MLOAD \t\t\t\n      RETURNDATASIZE \t\t\t\n      PUSH 1F\t\t\t\n      NOT \t\t\t\n      PUSH 1F\t\t\t\n      DUP3 \t\t\t\n      ADD \t\t\t\n      AND \t\t\t\n      DUP3 \t\t\t\n      ADD \t\t\t\n      DUP1 \t\t\t\n      PUSH 40\t\t\t\n      MSTORE \t\t\t\n      POP \t\t\t\n      DUP2 \t\t\t\n      ADD \t\t\t\n      SWAP1 \t\t\t\n      PUSH [tag] 525\t\t\t\n      SWAP2 \t\t\t\n      SWAP1 \t\t\t\n      PUSH [tag] 526\t\t\t\n      JUMP \t\t\t\n    tag 525\t\t\t\n      JUMPDEST \t\t\t\n      PUSH 1\t\t\t\n    tag 524\t\t\t\n      JUMPDEST \t\t\t\n      PUSH [tag] 527\t\t\t\n      JUMPI \t\t\t\n      DUP2 \t\t\t\n      PUSH 40\t\t\t\n      MLOAD \t\t\t\n      PUSH 4C9C8CE300000000000000000000000000000000000000000000000000000000\t\t\t\n      DUP2 \t\t\t\n      MSTORE \t\t\t\n      PUSH 4\t\t\t\n      ADD \t\t\t\n      PUSH [tag] 531\t\t\t\n      SWAP2 \t\t\t\n      SWAP1 \t\t\t\n      PUSH [tag] 67\t\t\t\n      JUMP \t\t\t\n    tag 531\t\t\t\n      JUMPDEST \t\t\t\n      PUSH 40\t\t\t\n      MLOAD \t\t\t\n      DUP1 \t\t\t\n      SWAP2 \t\t\t\n      SUB \t\t\t\n      SWAP1 \t\t\t\n      REVERT \t\t\t\n    tag 527\t\t\t\n      JUMPDEST \t\t\t\n      PUSH 360894A13BA1A3210667C828492DB98DCA3E2076CC3735A920A3CA505D382BBC\t\t\tadeable.sol\";\\nimport \"@openze...\n      PUSH 0\t\t\t\n      SHL \t\t\t\n      DUP2 \t\t\t\n      EQ \t\t\t\n      PUSH [tag] 533\t\t\t\n      JUMPI \t\t\t\n      DUP1 \t\t\t\n      PUSH 40\t\t\t\n      MLOAD \t\t\t\n      PUSH AA1D49A400000000000000000000000000000000000000000000000000000000\t\t\t\n      DUP2 \t\t\t\n      MSTORE \t\t\t\n      PUSH 4\t\t\t\n      ADD \t\t\t\n      PUSH [tag] 534\t\t\t\n      SWAP2 \t\t\t\n      SWAP1 \t\t\t\n      PUSH [tag] 89\t\t\t\n      JUMP \t\t\t\n    tag 534\t\t\t\n      JUMPDEST \t\t\t\n      PUSH 40\t\t\t\n      MLOAD \t\t\t\n      DUP1 \t\t\t\n      SWAP2 \t\t\t\n      SUB \t\t\t\n      SWAP1 \t\t\t\n      REVERT \t\t\t\n    tag 533\t\t\t\n      JUMPDEST \t\t\t\n      PUSH [tag] 535\t\t\t\n      DUP4 \t\t\t\n      DUP4 \t\t\t\n      PUSH [tag] 536\t\t\t\n      JUMP \t\t\t\n    tag 535\t\t\t\n      JUMPDEST \t\t\t\n      POP \t\t\t\n      POP \t\t\t\n      POP \t\t\t\n      JUMP \t\t\t\n    tag 334\t\t\t\n      JUMPDEST \t\t\t\n      PUSHIMMUTABLE 1032\t\t\t\n      PUSH FFFFFFFFFFFFFFFFFFFFFFFFFFFFFFFFFFFFFFFF\t\t\t\n      AND \t\t\t\n      ADDRESS \t\t\t\n      PUSH FFFFFFFFFFFFFFFFFFFFFFFFFFFFFFFFFFFFFFFF\t\t\t\n      AND \t\t\t\n      EQ \t\t\t\n      PUSH [tag] 538\t\t\t\n      JUMPI \t\t\t\n      PUSH 40\t\t\t\n      MLOAD \t\t\t\n      PUSH E07C8DBA00000000000000000000000000000000000000000000000000000000\t\t\t\n      DUP2 \t\t\t\n      MSTORE \t\t\t\n      PUSH 4\t\t\t\n      ADD \t\t\t\n      PUSH 40\t\t\t\n      MLOAD \t\t\t\n      DUP1 \t\t\t\n      SWAP2 \t\t\t\n      SUB \t\t\t\n      SWAP1 \t\t\t\n      REVERT \t\t\t\n    tag 538\t\t\t\n      JUMPDEST \t\t\t\n      JUMP \t\t\t\n    tag 343\t\t\tin/contracts-upgradeable@5.0.0...\n      JUMPDEST \t\t\tin/contracts-upgradeable@5.0.0...\n      PUSH 0\t\t\ts/ERC721URIStorageUpgrade\n      PUSH CD5ED15C6E187E77E9AEE88184C21F4F2182AB5827CB3B7E07FBEDCD63F03300\t\t\tgradeable@5.0.0/token/E\n      SWAP1 \t\t\tntracts-upgradeable@5.0.0/toke...\n      POP \t\t\tntracts-upgradeable@5.0.0/toke...\n      SWAP1 \t\t\tin/contracts-upgradeable@5.0.0...\n      JUMP \t\t\tin/contracts-upgradeable@5.0.0...\n    tag 354\t\t\tdress auth)\\n        internal\\...\n      JUMPDEST \t\t\tdress auth)\\n        internal\\...\n      PUSH 0\t\t\te, ERC721EnumerableUpgra\n      PUSH [tag] 541\t\t\tble, ERC721PausableU\n      PUSH [tag] 383\t\t\tble, ERC721Pausabl\n      JUMP \t\t\tble, ERC721PausableU\n    tag 541\t\t\tble, ERC721PausableU\n      JUMPDEST \t\t\tble, ERC721PausableU\n      SWAP1 \t\t\te, ERC721EnumerableUpgradeable...\n      POP \t\t\te, ERC721EnumerableUpgradeable...\n      PUSH 0\t\t\t, ERC721Upgradea\n      DUP2 \t\t\t)\n      PUSH 0\t\t\t)\\n      \n      ADD \t\t\t)\\n      \n      PUSH 0\t\t\t)\\n      \n      SWAP1 \t\t\t)\\n      \n      SLOAD \t\t\t)\\n      \n      SWAP1 \t\t\t)\\n      \n      PUSH 100\t\t\t)\\n      \n      EXP \t\t\t)\\n      \n      SWAP1 \t\t\t)\\n      \n      DIV \t\t\t)\\n      \n      PUSH FFFFFFFFFFFFFFFFFFFFFFFFFFFFFFFFFFFFFFFF\t\t\t)\\n      \n      AND \t\t\t)\\n      \n      SWAP1 \t\t\t, ERC721Upgradeable)\\n      \n      POP \t\t\t, ERC721Upgradeable)\\n      \n      DUP3 \t\t\t   {\\n   \n      DUP3 \t\t\t(\n      PUSH 0\t\t\t(address\n      ADD \t\t\t(address\n      PUSH 0\t\t\t(address\n      PUSH 100\t\t\t(address)\\n    {\\n   \n      EXP \t\t\t(address)\\n    {\\n   \n      DUP2 \t\t\t(address)\\n    {\\n   \n      SLOAD \t\t\t(address)\\n    {\\n   \n      DUP2 \t\t\t(address)\\n    {\\n   \n      PUSH FFFFFFFFFFFFFFFFFFFFFFFFFFFFFFFFFFFFFFFF\t\t\t(address)\\n    {\\n   \n      MUL \t\t\t(address)\\n    {\\n   \n      NOT \t\t\t(address)\\n    {\\n   \n      AND \t\t\t(address)\\n    {\\n   \n      SWAP1 \t\t\t(address)\\n    {\\n   \n      DUP4 \t\t\t(address)\\n    {\\n   \n      PUSH FFFFFFFFFFFFFFFFFFFFFFFFFFFFFFFFFFFFFFFF\t\t\t(address)\\n    {\\n   \n      AND \t\t\t(address)\\n    {\\n   \n      MUL \t\t\t(address)\\n    {\\n   \n      OR \t\t\t(address)\\n    {\\n   \n      SWAP1 \t\t\t(address)\\n    {\\n   \n      SSTORE \t\t\t(address)\\n    {\\n   \n      POP \t\t\t(address)\\n    {\\n   \n      DUP3 \t\t\t    }\\n\\n \n      PUSH FFFFFFFFFFFFFFFFFFFFFFFFFFFFFFFFFFFFFFFF\t\t\ter._update(to, tokenId, auth);...\n      AND \t\t\ter._update(to, tokenId, auth);...\n      DUP2 \t\t\td, auth)\n      PUSH FFFFFFFFFFFFFFFFFFFFFFFFFFFFFFFFFFFFFFFF\t\t\ter._update(to, tokenId, auth);...\n      AND \t\t\ter._update(to, tokenId, auth);...\n      PUSH 8BE0079C531659141344CD1FD0A4F28419497F9722A3DAAFE3B4186F6B6457E0\t\t\ter._update(to, tokenId, auth);...\n      PUSH 40\t\t\ter._update(to, tokenId, auth);...\n      MLOAD \t\t\ter._update(to, tokenId, auth);...\n      PUSH 40\t\t\ter._update(to, tokenId, auth);...\n      MLOAD \t\t\ter._update(to, tokenId, auth);...\n      DUP1 \t\t\ter._update(to, tokenId, auth);...\n      SWAP2 \t\t\ter._update(to, tokenId, auth);...\n      SUB \t\t\ter._update(to, tokenId, auth);...\n      SWAP1 \t\t\ter._update(to, tokenId, auth);...\n      LOG3 \t\t\ter._update(to, tokenId, auth);...\n      POP \t\t\tUpgradeable, ERC721EnumerableU...\n      POP \t\t\tUpgradeable, ERC721EnumerableU...\n      POP \t\t\tdress auth)\\n        internal\\...\n      JUMP \t\t\tdress auth)\\n        internal\\...\n    tag 359\t\t\tfeMint(to, tokenId);\\n        ...\n      JUMPDEST \t\t\tfeMint(to, tokenId);\\n        ...\n      PUSH [tag] 543\t\t\tC721PausableUpgrade\n      PUSH [tag] 544\t\t\tC721PausableUpgra\n      JUMP \t\t\tC721PausableUpgrade\n    tag 543\t\t\tC721PausableUpgrade\n      JUMPDEST \t\t\tC721PausableUpgrade\n      PUSH 0\t\t\t  }\\n\\n    function _ownerO\n      PUSH [tag] 546\t\t\tint256 tokenId) inter\n      PUSH [tag] 343\t\t\tint256 tokenId) int\n      JUMP \t\t\tint256 tokenId) inter\n    tag 546\t\t\tint256 tokenId) inter\n      JUMPDEST \t\t\tint256 tokenId) inter\n      SWAP1 \t\t\t  }\\n\\n    function _ownerOf(u...\n      POP \t\t\t  }\\n\\n    function _ownerOf(u...\n      PUSH 1\t\t\t21Up\n      DUP2 \t\t\tv\n      PUSH 0\t\t\tverride(E\n      ADD \t\t\tverride(E\n      PUSH 0\t\t\tverride(E\n      PUSH 100\t\t\tverride(ERC721Up\n      EXP \t\t\tverride(ERC721Up\n      DUP2 \t\t\tverride(ERC721Up\n      SLOAD \t\t\tverride(ERC721Up\n      DUP2 \t\t\tverride(ERC721Up\n      PUSH FF\t\t\tverride(ERC721Up\n      MUL \t\t\tverride(ERC721Up\n      NOT \t\t\tverride(ERC721Up\n      AND \t\t\tverride(ERC721Up\n      SWAP1 \t\t\tverride(ERC721Up\n      DUP4 \t\t\tverride(ERC721Up\n      ISZERO \t\t\tverride(ERC721Up\n      ISZERO \t\t\tverride(ERC721Up\n      MUL \t\t\tverride(ERC721Up\n      OR \t\t\tverride(ERC721Up\n      SWAP1 \t\t\tverride(ERC721Up\n      SSTORE \t\t\tverride(ERC721Up\n      POP \t\t\tverride(ERC721Up\n      PUSH 62E78CEA01BEE320CD4E420270B5EA74000D11B0C9F74754EBDBFC544B05A258\t\t\t21ConsecutiveUpgrade\n      PUSH [tag] 547\t\t\tcutiveUpgrad\n      PUSH [tag] 260\t\t\tcutiveUpgr\n      JUMP \t\t\tcutiveUpgrad\n    tag 547\t\t\tcutiveUpgrad\n      JUMPDEST \t\t\tcutiveUpgrad\n      PUSH 40\t\t\t21ConsecutiveUpgrade\n      MLOAD \t\t\t21ConsecutiveUpgrade\n      PUSH [tag] 548\t\t\t21ConsecutiveUpgrade\n      SWAP2 \t\t\t21ConsecutiveUpgrade\n      SWAP1 \t\t\t21ConsecutiveUpgrade\n      PUSH [tag] 67\t\t\t21ConsecutiveUpgrade\n      JUMP \t\t\t21ConsecutiveUpgrade\n    tag 548\t\t\t21ConsecutiveUpgrade\n      JUMPDEST \t\t\t21ConsecutiveUpgrade\n      PUSH 40\t\t\t21ConsecutiveUpgrade\n      MLOAD \t\t\t21ConsecutiveUpgrade\n      DUP1 \t\t\t21ConsecutiveUpgrade\n      SWAP2 \t\t\t21ConsecutiveUpgrade\n      SUB \t\t\t21ConsecutiveUpgrade\n      SWAP1 \t\t\t21ConsecutiveUpgrade\n      LOG1 \t\t\t21ConsecutiveUpgrade\n      POP \t\t\t, uri);\\n    }\\n\\n    function...\n      JUMP \t\t\tfeMint(to, tokenId);\\n        ...\n    tag 362\t\t\talowner) initializer public {\\...\n      JUMPDEST \t\t\talowner) initializer public {\\...\n      PUSH 0\t\t\t(\"SCUMWalkers\", \"SW\");\\n\n      PUSH A16A46D94261C7517CC8FF89F61C0CE93598E3C849801011DEE649A6A557D100\t\t\tERC721URIStorage_init\n      SWAP1 \t\t\t        __ERC721URIStorage_ini...\n      POP \t\t\t        __ERC721URIStorage_ini...\n      SWAP1 \t\t\talowner) initializer public {\\...\n      JUMP \t\t\talowner) initializer public {\\...\n    tag 368\t\t\t\n      JUMPDEST \t\t\t\n      PUSH 60\t\t\t\n      PUSH 0\t\t\t\n      PUSH [tag] 551\t\t\t\n      PUSH [tag] 362\t\t\t\n      JUMP \t\t\t\n    tag 551\t\t\t\n      JUMPDEST \t\t\t\n      SWAP1 \t\t\t\n      POP \t\t\t\n      DUP1 \t\t\t\n      PUSH 2\t\t\t\n      ADD \t\t\t\n      DUP1 \t\t\t\n      SLOAD \t\t\t\n      PUSH [tag] 552\t\t\t\n      SWAP1 \t\t\t\n      PUSH [tag] 247\t\t\t\n      JUMP \t\t\t\n    tag 552\t\t\t\n      JUMPDEST \t\t\t\n      DUP1 \t\t\t\n      PUSH 1F\t\t\t\n      ADD \t\t\t\n      PUSH 20\t\t\t\n      DUP1 \t\t\t\n      SWAP2 \t\t\t\n      DIV \t\t\t\n      MUL \t\t\t\n      PUSH 20\t\t\t\n      ADD \t\t\t\n      PUSH 40\t\t\t\n      MLOAD \t\t\t\n      SWAP1 \t\t\t\n      DUP2 \t\t\t\n      ADD \t\t\t\n      PUSH 40\t\t\t\n      MSTORE \t\t\t\n      DUP1 \t\t\t\n      SWAP3 \t\t\t\n      SWAP2 \t\t\t\n      SWAP1 \t\t\t\n      DUP2 \t\t\t\n      DUP2 \t\t\t\n      MSTORE \t\t\t\n      PUSH 20\t\t\t\n      ADD \t\t\t\n      DUP3 \t\t\t\n      DUP1 \t\t\t\n      SLOAD \t\t\t\n      PUSH [tag] 553\t\t\t\n      SWAP1 \t\t\t\n      PUSH [tag] 247\t\t\t\n      JUMP \t\t\t\n    tag 553\t\t\t\n      JUMPDEST \t\t\t\n      DUP1 \t\t\t\n      ISZERO \t\t\t\n      PUSH [tag] 554\t\t\t\n      JUMPI \t\t\t\n      DUP1 \t\t\t\n      PUSH 1F\t\t\t\n      LT \t\t\t\n      PUSH [tag] 555\t\t\t\n      JUMPI \t\t\t\n      PUSH 100\t\t\t\n      DUP1 \t\t\t\n      DUP4 \t\t\t\n      SLOAD \t\t\t\n      DIV \t\t\t\n      MUL \t\t\t\n      DUP4 \t\t\t\n      MSTORE \t\t\t\n      SWAP2 \t\t\t\n      PUSH 20\t\t\t\n      ADD \t\t\t\n      SWAP2 \t\t\t\n      PUSH [tag] 554\t\t\t\n      JUMP \t\t\t\n    tag 555\t\t\t\n      JUMPDEST \t\t\t\n      DUP3 \t\t\t\n      ADD \t\t\t\n      SWAP2 \t\t\t\n      SWAP1 \t\t\t\n      PUSH 0\t\t\t\n      MSTORE \t\t\t\n      PUSH 20\t\t\t\n      PUSH 0\t\t\t\n      KECCAK256 \t\t\t\n      SWAP1 \t\t\t\n    tag 556\t\t\t\n      JUMPDEST \t\t\t\n      DUP2 \t\t\t\n      SLOAD \t\t\t\n      DUP2 \t\t\t\n      MSTORE \t\t\t\n      SWAP1 \t\t\t\n      PUSH 1\t\t\t\n      ADD \t\t\t\n      SWAP1 \t\t\t\n      PUSH 20\t\t\t\n      ADD \t\t\t\n      DUP1 \t\t\t\n      DUP4 \t\t\t\n      GT \t\t\t\n      PUSH [tag] 556\t\t\t\n      JUMPI \t\t\t\n      DUP3 \t\t\t\n      SWAP1 \t\t\t\n      SUB \t\t\t\n      PUSH 1F\t\t\t\n      AND \t\t\t\n      DUP3 \t\t\t\n      ADD \t\t\t\n      SWAP2 \t\t\t\n    tag 554\t\t\t\n      JUMPDEST \t\t\t\n      POP \t\t\t\n      POP \t\t\t\n      POP \t\t\t\n      POP \t\t\t\n      POP \t\t\t\n      SWAP2 \t\t\t\n      POP \t\t\t\n      POP \t\t\t\n      SWAP1 \t\t\t\n      JUMP \t\t\t\n    tag 370\t\t\t\n      JUMPDEST \t\t\t\n      PUSH 60\t\t\t\n      PUSH 0\t\t\t\n      PUSH [tag] 558\t\t\t\n      PUSH [tag] 362\t\t\t\n      JUMP \t\t\t\n    tag 558\t\t\t\n      JUMPDEST \t\t\t\n      SWAP1 \t\t\t\n      POP \t\t\t\n      DUP1 \t\t\t\n      PUSH 3\t\t\t\n      ADD \t\t\t\n      DUP1 \t\t\t\n      SLOAD \t\t\t\n      PUSH [tag] 559\t\t\t\n      SWAP1 \t\t\t\n      PUSH [tag] 247\t\t\t\n      JUMP \t\t\t\n    tag 559\t\t\t\n      JUMPDEST \t\t\t\n      DUP1 \t\t\t\n      PUSH 1F\t\t\t\n      ADD \t\t\t\n      PUSH 20\t\t\t\n      DUP1 \t\t\t\n      SWAP2 \t\t\t\n      DIV \t\t\t\n      MUL \t\t\t\n      PUSH 20\t\t\t\n      ADD \t\t\t\n      PUSH 40\t\t\t\n      MLOAD \t\t\t\n      SWAP1 \t\t\t\n      DUP2 \t\t\t\n      ADD \t\t\t\n      PUSH 40\t\t\t\n      MSTORE \t\t\t\n      DUP1 \t\t\t\n      SWAP3 \t\t\t\n      SWAP2 \t\t\t\n      SWAP1 \t\t\t\n      DUP2 \t\t\t\n      DUP2 \t\t\t\n      MSTORE \t\t\t\n      PUSH 20\t\t\t\n      ADD \t\t\t\n      DUP3 \t\t\t\n      DUP1 \t\t\t\n      SLOAD \t\t\t\n      PUSH [tag] 560\t\t\t\n      SWAP1 \t\t\t\n      PUSH [tag] 247\t\t\t\n      JUMP \t\t\t\n    tag 560\t\t\t\n      JUMPDEST \t\t\t\n      DUP1 \t\t\t\n      ISZERO \t\t\t\n      PUSH [tag] 561\t\t\t\n      JUMPI \t\t\t\n      DUP1 \t\t\t\n      PUSH 1F\t\t\t\n      LT \t\t\t\n      PUSH [tag] 562\t\t\t\n      JUMPI \t\t\t\n      PUSH 100\t\t\t\n      DUP1 \t\t\t\n      DUP4 \t\t\t\n      SLOAD \t\t\t\n      DIV \t\t\t\n      MUL \t\t\t\n      DUP4 \t\t\t\n      MSTORE \t\t\t\n      SWAP2 \t\t\t\n      PUSH 20\t\t\t\n      ADD \t\t\t\n      SWAP2 \t\t\t\n      PUSH [tag] 561\t\t\t\n      JUMP \t\t\t\n    tag 562\t\t\t\n      JUMPDEST \t\t\t\n      DUP3 \t\t\t\n      ADD \t\t\t\n      SWAP2 \t\t\t\n      SWAP1 \t\t\t\n      PUSH 0\t\t\t\n      MSTORE \t\t\t\n      PUSH 20\t\t\t\n      PUSH 0\t\t\t\n      KECCAK256 \t\t\t\n      SWAP1 \t\t\t\n    tag 563\t\t\t\n      JUMPDEST \t\t\t\n      DUP2 \t\t\t\n      SLOAD \t\t\t\n      DUP2 \t\t\t\n      MSTORE \t\t\t\n      SWAP1 \t\t\t\n      PUSH 1\t\t\t\n      ADD \t\t\t\n      SWAP1 \t\t\t\n      PUSH 20\t\t\t\n      ADD \t\t\t\n      DUP1 \t\t\t\n      DUP4 \t\t\t\n      GT \t\t\t\n      PUSH [tag] 563\t\t\t\n      JUMPI \t\t\t\n      DUP3 \t\t\t\n      SWAP1 \t\t\t\n      SUB \t\t\t\n      PUSH 1F\t\t\t\n      AND \t\t\t\n      DUP3 \t\t\t\n      ADD \t\t\t\n      SWAP2 \t\t\t\n    tag 561\t\t\t\n      JUMPDEST \t\t\t\n      POP \t\t\t\n      POP \t\t\t\n      POP \t\t\t\n      POP \t\t\t\n      POP \t\t\t\n      SWAP2 \t\t\t\n      POP \t\t\t\n      POP \t\t\t\n      SWAP1 \t\t\t\n      JUMP \t\t\t\n    tag 383\t\t\txtensions/ERC721URIStorageUpgr...\n      JUMPDEST \t\t\txtensions/ERC721URIStorageUpgr...\n      PUSH 0\t\t\t@openzeppelin/contracts-\n      PUSH 9016D09D72D40FDAE2FD8CEAC6B6234C7706214FD39C1CD1E609A0528C199300\t\t\t721WrapperUpgradeable.\n      SWAP1 \t\t\tnsions/ERC721WrapperUpgradeabl...\n      POP \t\t\tnsions/ERC721WrapperUpgradeabl...\n      SWAP1 \t\t\txtensions/ERC721URIStorageUpgr...\n      JUMP \t\t\txtensions/ERC721URIStorageUpgr...\n    tag 386\t\t\teppelin/contracts-upgradeable@...\n      JUMPDEST \t\t\teppelin/contracts-upgradeable@...\n      PUSH 0\t\t\tapperUpgradeable.sol\";\\nimport...\n      PUSH C1F6FE24621CE81EC5827CAF0253CADB74709B061630E6B55E82371705932000\t\t\tgraphy/EIP712Upgradeable.sol\";...\n      SWAP1 \t\t\tils/cryptography/EIP712Upgrade...\n      POP \t\t\tils/cryptography/EIP712Upgrade...\n      SWAP1 \t\t\teppelin/contracts-upgradeable@...\n      JUMP \t\t\teppelin/contracts-upgradeable@...\n    tag 388\t\t\t\n      JUMPDEST \t\t\t\n      PUSH 0\t\t\t\n      PUSH [tag] 567\t\t\t\n      DUP4 \t\t\t\n      PUSH 0\t\t\t\n      ADD \t\t\t\n      DUP4 \t\t\t\n      PUSH [tag] 568\t\t\t\n      JUMP \t\t\t\n    tag 567\t\t\t\n      JUMPDEST \t\t\t\n      PUSH 0\t\t\t\n      SHR \t\t\t\n      SWAP1 \t\t\t\n      POP \t\t\t\n      SWAP3 \t\t\t\n      SWAP2 \t\t\t\n      POP \t\t\t\n      POP \t\t\t\n      JUMP \t\t\t\n    tag 401\t\t\t\n      JUMPDEST \t\t\t\n      PUSH 0\t\t\t\n      PUSH [tag] 570\t\t\t\n      PUSH [tag] 245\t\t\t\n      JUMP \t\t\t\n    tag 570\t\t\t\n      JUMPDEST \t\t\t\n      SWAP1 \t\t\t\n      POP \t\t\t\n      PUSH 0\t\t\t\n      PUSH FFFFFFFFFFFFFFFFFFFFFFFFFFFFFFFFFFFFFFFF\t\t\t\n      AND \t\t\t\n      DUP4 \t\t\t\n      PUSH FFFFFFFFFFFFFFFFFFFFFFFFFFFFFFFFFFFFFFFF\t\t\t\n      AND \t\t\t\n      SUB \t\t\t\n      PUSH [tag] 571\t\t\t\n      JUMPI \t\t\t\n      DUP3 \t\t\t\n      PUSH 40\t\t\t\n      MLOAD \t\t\t\n      PUSH 5B08BA1800000000000000000000000000000000000000000000000000000000\t\t\t\n      DUP2 \t\t\t\n      MSTORE \t\t\t\n      PUSH 4\t\t\t\n      ADD \t\t\t\n      PUSH [tag] 572\t\t\t\n      SWAP2 \t\t\t\n      SWAP1 \t\t\t\n      PUSH [tag] 67\t\t\t\n      JUMP \t\t\t\n    tag 572\t\t\t\n      JUMPDEST \t\t\t\n      PUSH 40\t\t\t\n      MLOAD \t\t\t\n      DUP1 \t\t\t\n      SWAP2 \t\t\t\n      SUB \t\t\t\n      SWAP1 \t\t\t\n      REVERT \t\t\t\n    tag 571\t\t\t\n      JUMPDEST \t\t\t\n      DUP2 \t\t\t\n      DUP2 \t\t\t\n      PUSH 5\t\t\t\n      ADD \t\t\t\n      PUSH 0\t\t\t\n      DUP7 \t\t\t\n      PUSH FFFFFFFFFFFFFFFFFFFFFFFFFFFFFFFFFFFFFFFF\t\t\t\n      AND \t\t\t\n      PUSH FFFFFFFFFFFFFFFFFFFFFFFFFFFFFFFFFFFFFFFF\t\t\t\n      AND \t\t\t\n      DUP2 \t\t\t\n      MSTORE \t\t\t\n      PUSH 20\t\t\t\n      ADD \t\t\t\n      SWAP1 \t\t\t\n      DUP2 \t\t\t\n      MSTORE \t\t\t\n      PUSH 20\t\t\t\n      ADD \t\t\t\n      PUSH 0\t\t\t\n      KECCAK256 \t\t\t\n      PUSH 0\t\t\t\n      DUP6 \t\t\t\n      PUSH FFFFFFFFFFFFFFFFFFFFFFFFFFFFFFFFFFFFFFFF\t\t\t\n      AND \t\t\t\n      PUSH FFFFFFFFFFFFFFFFFFFFFFFFFFFFFFFFFFFFFFFF\t\t\t\n      AND \t\t\t\n      DUP2 \t\t\t\n      MSTORE \t\t\t\n      PUSH 20\t\t\t\n      ADD \t\t\t\n      SWAP1 \t\t\t\n      DUP2 \t\t\t\n      MSTORE \t\t\t\n      PUSH 20\t\t\t\n      ADD \t\t\t\n      PUSH 0\t\t\t\n      KECCAK256 \t\t\t\n      PUSH 0\t\t\t\n      PUSH 100\t\t\t\n      EXP \t\t\t\n      DUP2 \t\t\t\n      SLOAD \t\t\t\n      DUP2 \t\t\t\n      PUSH FF\t\t\t\n      MUL \t\t\t\n      NOT \t\t\t\n      AND \t\t\t\n      SWAP1 \t\t\t\n      DUP4 \t\t\t\n      ISZERO \t\t\t\n      ISZERO \t\t\t\n      MUL \t\t\t\n      OR \t\t\t\n      SWAP1 \t\t\t\n      SSTORE \t\t\t\n      POP \t\t\t\n      DUP3 \t\t\t\n      PUSH FFFFFFFFFFFFFFFFFFFFFFFFFFFFFFFFFFFFFFFF\t\t\t\n      AND \t\t\t\n      DUP5 \t\t\t\n      PUSH FFFFFFFFFFFFFFFFFFFFFFFFFFFFFFFFFFFFFFFF\t\t\t\n      AND \t\t\t\n      PUSH 17307EAB39AB6107E8899845AD3D59BD9653F200F220920489CA2B5937696C31\t\t\t\n      DUP5 \t\t\t\n      PUSH 40\t\t\t\n      MLOAD \t\t\t\n      PUSH [tag] 573\t\t\t\n      SWAP2 \t\t\t\n      SWAP1 \t\t\t\n      PUSH [tag] 55\t\t\t\n      JUMP \t\t\t\n    tag 573\t\t\t\n      JUMPDEST \t\t\t\n      PUSH 40\t\t\t\n      MLOAD \t\t\t\n      DUP1 \t\t\t\n      SWAP2 \t\t\t\n      SUB \t\t\t\n      SWAP1 \t\t\t\n      LOG3 \t\t\t\n      POP \t\t\t\n      POP \t\t\t\n      POP \t\t\t\n      POP \t\t\t\n      JUMP \t\t\t\n    tag 405\t\t\t\n      JUMPDEST \t\t\t\n      PUSH 0\t\t\t\n      DUP4 \t\t\t\n      PUSH FFFFFFFFFFFFFFFFFFFFFFFFFFFFFFFFFFFFFFFF\t\t\t\n      AND \t\t\t\n      EXTCODESIZE \t\t\t\n      GT \t\t\t\n      ISZERO \t\t\t\n      PUSH [tag] 575\t\t\t\n      JUMPI \t\t\t\n      DUP3 \t\t\t\n      PUSH FFFFFFFFFFFFFFFFFFFFFFFFFFFFFFFFFFFFFFFF\t\t\t\n      AND \t\t\t\n      PUSH 150B7A02\t\t\t\n      PUSH [tag] 576\t\t\t\n      PUSH [tag] 260\t\t\t\n      JUMP \t\t\t\n    tag 576\t\t\t\n      JUMPDEST \t\t\t\n      DUP7 \t\t\t\n      DUP6 \t\t\t\n      DUP6 \t\t\t\n      PUSH 40\t\t\t\n      MLOAD \t\t\t\n      DUP6 \t\t\t\n      PUSH FFFFFFFF\t\t\t\n      AND \t\t\t\n      PUSH E0\t\t\t\n      SHL \t\t\t\n      DUP2 \t\t\t\n      MSTORE \t\t\t\n      PUSH 4\t\t\t\n      ADD \t\t\t\n      PUSH [tag] 577\t\t\t\n      SWAP5 \t\t\t\n      SWAP4 \t\t\t\n      SWAP3 \t\t\t\n      SWAP2 \t\t\t\n      SWAP1 \t\t\t\n      PUSH [tag] 578\t\t\t\n      JUMP \t\t\t\n    tag 577\t\t\t\n      JUMPDEST \t\t\t\n      PUSH 20\t\t\t\n      PUSH 40\t\t\t\n      MLOAD \t\t\t\n      DUP1 \t\t\t\n      DUP4 \t\t\t\n      SUB \t\t\t\n      DUP2 \t\t\t\n      PUSH 0\t\t\t\n      DUP8 \t\t\t\n      GAS \t\t\t\n      CALL \t\t\t\n      SWAP3 \t\t\t\n      POP \t\t\t\n      POP \t\t\t\n      POP \t\t\t\n      DUP1 \t\t\t\n      ISZERO \t\t\t\n      PUSH [tag] 579\t\t\t\n      JUMPI \t\t\t\n      POP \t\t\t\n      PUSH 40\t\t\t\n      MLOAD \t\t\t\n      RETURNDATASIZE \t\t\t\n      PUSH 1F\t\t\t\n      NOT \t\t\t\n      PUSH 1F\t\t\t\n      DUP3 \t\t\t\n      ADD \t\t\t\n      AND \t\t\t\n      DUP3 \t\t\t\n      ADD \t\t\t\n      DUP1 \t\t\t\n      PUSH 40\t\t\t\n      MSTORE \t\t\t\n      POP \t\t\t\n      DUP2 \t\t\t\n      ADD \t\t\t\n      SWAP1 \t\t\t\n      PUSH [tag] 580\t\t\t\n      SWAP2 \t\t\t\n      SWAP1 \t\t\t\n      PUSH [tag] 581\t\t\t\n      JUMP \t\t\t\n    tag 580\t\t\t\n      JUMPDEST \t\t\t\n      PUSH 1\t\t\t\n    tag 579\t\t\t\n      JUMPDEST \t\t\t\n      PUSH [tag] 582\t\t\t\n      JUMPI \t\t\t\n      RETURNDATASIZE \t\t\t\n      DUP1 \t\t\t\n      PUSH 0\t\t\t\n      DUP2 \t\t\t\n      EQ \t\t\t\n      PUSH [tag] 587\t\t\t\n      JUMPI \t\t\t\n      PUSH 40\t\t\t\n      MLOAD \t\t\t\n      SWAP2 \t\t\t\n      POP \t\t\t\n      PUSH 1F\t\t\t\n      NOT \t\t\t\n      PUSH 3F\t\t\t\n      RETURNDATASIZE \t\t\t\n      ADD \t\t\t\n      AND \t\t\t\n      DUP3 \t\t\t\n      ADD \t\t\t\n      PUSH 40\t\t\t\n      MSTORE \t\t\t\n      RETURNDATASIZE \t\t\t\n      DUP3 \t\t\t\n      MSTORE \t\t\t\n      RETURNDATASIZE \t\t\t\n      PUSH 0\t\t\t\n      PUSH 20\t\t\t\n      DUP5 \t\t\t\n      ADD \t\t\t\n      RETURNDATACOPY \t\t\t\n      PUSH [tag] 586\t\t\t\n      JUMP \t\t\t\n    tag 587\t\t\t\n      JUMPDEST \t\t\t\n      PUSH 60\t\t\t\n      SWAP2 \t\t\t\n      POP \t\t\t\n    tag 586\t\t\t\n      JUMPDEST \t\t\t\n      POP \t\t\t\n      PUSH 0\t\t\t\n      DUP2 \t\t\t\n      MLOAD \t\t\t\n      SUB \t\t\t\n      PUSH [tag] 588\t\t\t\n      JUMPI \t\t\t\n      DUP4 \t\t\t\n      PUSH 40\t\t\t\n      MLOAD \t\t\t\n      PUSH 64A0AE9200000000000000000000000000000000000000000000000000000000\t\t\t\n      DUP2 \t\t\t\n      MSTORE \t\t\t\n      PUSH 4\t\t\t\n      ADD \t\t\t\n      PUSH [tag] 589\t\t\t\n      SWAP2 \t\t\t\n      SWAP1 \t\t\t\n      PUSH [tag] 67\t\t\t\n      JUMP \t\t\t\n    tag 589\t\t\t\n      JUMPDEST \t\t\t\n      PUSH 40\t\t\t\n      MLOAD \t\t\t\n      DUP1 \t\t\t\n      SWAP2 \t\t\t\n      SUB \t\t\t\n      SWAP1 \t\t\t\n      REVERT \t\t\t\n    tag 588\t\t\t\n      JUMPDEST \t\t\t\n      DUP1 \t\t\t\n      MLOAD \t\t\t\n      DUP2 \t\t\t\n      PUSH 20\t\t\t\n      ADD \t\t\t\n      REVERT \t\t\t\n    tag 582\t\t\t\n      JUMPDEST \t\t\t\n      PUSH 150B7A02\t\t\t\n      PUSH E0\t\t\t\n      SHL \t\t\t\n      PUSH FFFFFFFFFFFFFFFFFFFFFFFFFFFFFFFFFFFFFFFFFFFFFFFFFFFFFFFF\t\t\t\n      NOT \t\t\t\n      AND \t\t\t\n      DUP2 \t\t\t\n      PUSH FFFFFFFFFFFFFFFFFFFFFFFFFFFFFFFFFFFFFFFFFFFFFFFFFFFFFFFF\t\t\t\n      NOT \t\t\t\n      AND \t\t\t\n      EQ \t\t\t\n      PUSH [tag] 592\t\t\t\n      JUMPI \t\t\t\n      DUP4 \t\t\t\n      PUSH 40\t\t\t\n      MLOAD \t\t\t\n      PUSH 64A0AE9200000000000000000000000000000000000000000000000000000000\t\t\t\n      DUP2 \t\t\t\n      MSTORE \t\t\t\n      PUSH 4\t\t\t\n      ADD \t\t\t\n      PUSH [tag] 593\t\t\t\n      SWAP2 \t\t\t\n      SWAP1 \t\t\t\n      PUSH [tag] 67\t\t\t\n      JUMP \t\t\t\n    tag 593\t\t\t\n      JUMPDEST \t\t\t\n      PUSH 40\t\t\t\n      MLOAD \t\t\t\n      DUP1 \t\t\t\n      SWAP2 \t\t\t\n      SUB \t\t\t\n      SWAP1 \t\t\t\n      REVERT \t\t\t\n    tag 592\t\t\t\n      JUMPDEST \t\t\t\n      POP \t\t\t\n    tag 575\t\t\t\n      JUMPDEST \t\t\t\n      POP \t\t\t\n      POP \t\t\t\n      POP \t\t\t\n      POP \t\t\t\n      JUMP \t\t\t\n    tag 408\t\t\t\n      JUMPDEST \t\t\t\n      PUSH 0\t\t\t\n      PUSH F0C57E16840DF040F15088DC2F81FE391C3923BEC73E23A9662EFC9C229C6A00\t\t\t\n      SWAP1 \t\t\t\n      POP \t\t\t\n      SWAP1 \t\t\t\n      JUMP \t\t\t\n    tag 416\t\t\t1BurnableUpgradeable, ERC721Co...\n      JUMPDEST \t\t\t1BurnableUpgradeable, ERC721Co...\n      PUSH [tag] 596\t\t\t\n      PUSH [tag] 597\t\t\t\n      JUMP \t\t\t\n    tag 596\t\t\t\n      JUMPDEST \t\t\t\n      PUSH [tag] 599\t\t\tble, ERC721URIStorageUpgradeab...\n      DUP3 \t\t\tradea\n      DUP3 \t\t\te, EIP7\n      PUSH [tag] 600\t\t\tble, ERC721URIStorageUp\n      JUMP \t\t\tble, ERC721URIStorageUpgradeab...\n    tag 599\t\t\tble, ERC721URIStorageUpgradeab...\n      JUMPDEST \t\t\tble, ERC721URIStorageUpgradeab...\n      POP \t\t\t1BurnableUpgradeable, ERC721Co...\n      POP \t\t\t1BurnableUpgradeable, ERC721Co...\n      JUMP \t\t\t1BurnableUpgradeable, ERC721Co...\n    tag 418\t\t\t UUPSUpgradeable, ERC721Upgrad...\n      JUMPDEST \t\t\t UUPSUpgradeable, ERC721Upgrad...\n      PUSH [tag] 602\t\t\t\n      PUSH [tag] 597\t\t\t\n      JUMP \t\t\t\n    tag 602\t\t\t\n      JUMPDEST \t\t\t\n      JUMP \t\t\t UUPSUpgradeable, ERC721Upgrad...\n    tag 420\t\t\telin/contracts-upgradeable@5.0...\n      JUMPDEST \t\t\telin/contracts-upgradeable@5.0...\n      PUSH [tag] 605\t\t\t\n      PUSH [tag] 597\t\t\t\n      JUMP \t\t\t\n    tag 605\t\t\t\n      JUMPDEST \t\t\t\n      JUMP \t\t\telin/contracts-upgradeable@5.0...\n    tag 422\t\t\tacts-upgradeable@5.0.0/token/E...\n      JUMPDEST \t\t\tacts-upgradeable@5.0.0/token/E...\n      PUSH [tag] 608\t\t\t\n      PUSH [tag] 597\t\t\t\n      JUMP \t\t\t\n    tag 608\t\t\t\n      JUMPDEST \t\t\t\n      PUSH [tag] 610\t\t\teable.sol\";\\nimport \"@openze\n      PUSH [tag] 611\t\t\teable.sol\";\\nimport \"@open\n      JUMP \t\t\teable.sol\";\\nimport \"@openze\n    tag 610\t\t\teable.sol\";\\nimport \"@openze\n      JUMPDEST \t\t\teable.sol\";\\nimport \"@openze\n      JUMP \t\t\tacts-upgradeable@5.0.0/token/E...\n    tag 424\t\t\t.sol\";\\nimport \"@openzeppelin/...\n      JUMPDEST \t\t\t.sol\";\\nimport \"@openzeppelin/...\n      PUSH [tag] 613\t\t\t\n      PUSH [tag] 597\t\t\t\n      JUMP \t\t\t\n    tag 613\t\t\t\n      JUMPDEST \t\t\t\n      PUSH [tag] 615\t\t\tadeable.sol\";\\nimport \"@openze...\n      DUP2 \t\t\tenzeppelin/c\n      PUSH [tag] 616\t\t\tadeable.sol\";\\nimport \"@o\n      JUMP \t\t\tadeable.sol\";\\nimport \"@openze...\n    tag 615\t\t\tadeable.sol\";\\nimport \"@openze...\n      JUMPDEST \t\t\tadeable.sol\";\\nimport \"@openze...\n      POP \t\t\t.sol\";\\nimport \"@openzeppelin/...\n      JUMP \t\t\t.sol\";\\nimport \"@openzeppelin/...\n    tag 426\t\t\t\\n        __EIP712_init(\"SCUMW...\n      JUMPDEST \t\t\t\\n        __EIP712_init(\"SCUMW...\n      PUSH [tag] 618\t\t\t\n      PUSH [tag] 597\t\t\t\n      JUMP \t\t\t\n    tag 618\t\t\t\n      JUMPDEST \t\t\t\n      JUMP \t\t\t\\n        __EIP712_init(\"SCUMW...\n    tag 428\t\t\tnerOf(uint256 tokenId) interna...\n      JUMPDEST \t\t\tnerOf(uint256 tokenId) interna...\n      PUSH [tag] 621\t\t\t\n      PUSH [tag] 597\t\t\t\n      JUMP \t\t\t\n    tag 621\t\t\t\n      JUMPDEST \t\t\t\n      PUSH [tag] 623\t\t\t (address) {\\n    // Add your ...\n      DUP3 \t\t\tyour\n      DUP3 \t\t\tmplemen\n      PUSH [tag] 624\t\t\t (address) {\\n    // Add\n      JUMP \t\t\t (address) {\\n    // Add your ...\n    tag 623\t\t\t (address) {\\n    // Add your ...\n      JUMPDEST \t\t\t (address) {\\n    // Add your ...\n      POP \t\t\tnerOf(uint256 tokenId) interna...\n      POP \t\t\tnerOf(uint256 tokenId) interna...\n      JUMP \t\t\tnerOf(uint256 tokenId) interna...\n    tag 434\t\t\table, ERC721Upgradeable, Acces...\n      JUMPDEST \t\t\table, ERC721Upgradeable, Acces...\n      PUSH 60\t\t\tdeable, ERC29\n      PUSH 0\t\t\te, ERC721BurnableUpgradeable, ...\n      PUSH [tag] 626\t\t\tConsecutiveUpgradeable, ERC72\n      PUSH [tag] 627\t\t\tConsecutiveUpgradeable, ERC\n      JUMP \t\t\tConsecutiveUpgradeable, ERC72\n    tag 626\t\t\tConsecutiveUpgradeable, ERC72\n      JUMPDEST \t\t\tConsecutiveUpgradeable, ERC72\n      SWAP1 \t\t\te, ERC721BurnableUpgradeable, ...\n      POP \t\t\te, ERC721BurnableUpgradeable, ...\n      PUSH [tag] 628\t\t\teUpgradeable, ERC721Pa\n      DUP4 \t\t\tERC721P\n      PUSH [tag] 254\t\t\teUpgradeable,\n      JUMP \t\t\teUpgradeable, ERC721Pa\n    tag 628\t\t\teUpgradeable, ERC721Pa\n      JUMPDEST \t\t\teUpgradeable, ERC721Pa\n      POP \t\t\teUpgradeable, ERC721Pa\n      PUSH 0\t\t\tdeable, ERC721URIStorag\n      DUP2 \t\t\tg\n      PUSH 0\t\t\tgradeable, E\n      ADD \t\t\tgradeable, E\n      PUSH 0\t\t\tgradeable, EIP712Upgr\n      DUP6 \t\t\tP712Upg\n      DUP2 \t\t\tgradeable, EIP712Upgr\n      MSTORE \t\t\tgradeable, EIP712Upgr\n      PUSH 20\t\t\tgradeable, EIP712Upgr\n      ADD \t\t\tgradeable, EIP712Upgr\n      SWAP1 \t\t\tgradeable, EIP712Upgr\n      DUP2 \t\t\tgradeable, EIP712Upgr\n      MSTORE \t\t\tgradeable, EIP712Upgr\n      PUSH 20\t\t\tgradeable, EIP712Upgr\n      ADD \t\t\tgradeable, EIP712Upgr\n      PUSH 0\t\t\tgradeable, EIP712Upgr\n      KECCAK256 \t\t\tgradeable, EIP712Upgr\n      DUP1 \t\t\tdeable, ERC721URIStorageUpgrad...\n      SLOAD \t\t\tdeable, ERC721URIStorageUpgrad...\n      PUSH [tag] 629\t\t\tdeable, ERC721URIStorageUpgrad...\n      SWAP1 \t\t\tdeable, ERC721URIStorageUpgrad...\n      PUSH [tag] 247\t\t\tdeable, ERC721URIStorageUpgrad...\n      JUMP \t\t\tdeable, ERC721URIStorageUpgrad...\n    tag 629\t\t\tdeable, ERC721URIStorageUpgrad...\n      JUMPDEST \t\t\tdeable, ERC721URIStorageUpgrad...\n      DUP1 \t\t\tdeable, ERC721URIStorageUpgrad...\n      PUSH 1F\t\t\tdeable, ERC721URIStorageUpgrad...\n      ADD \t\t\tdeable, ERC721URIStorageUpgrad...\n      PUSH 20\t\t\tdeable, ERC721URIStorageUpgrad...\n      DUP1 \t\t\tdeable, ERC721URIStorageUpgrad...\n      SWAP2 \t\t\tdeable, ERC721URIStorageUpgrad...\n      DIV \t\t\tdeable, ERC721URIStorageUpgrad...\n      MUL \t\t\tdeable, ERC721URIStorageUpgrad...\n      PUSH 20\t\t\tdeable, ERC721URIStorageUpgrad...\n      ADD \t\t\tdeable, ERC721URIStorageUpgrad...\n      PUSH 40\t\t\tdeable, ERC721URIStorageUpgrad...\n      MLOAD \t\t\tdeable, ERC721URIStorageUpgrad...\n      SWAP1 \t\t\tdeable, ERC721URIStorageUpgrad...\n      DUP2 \t\t\tdeable, ERC721URIStorageUpgrad...\n      ADD \t\t\tdeable, ERC721URIStorageUpgrad...\n      PUSH 40\t\t\tdeable, ERC721URIStorageUpgrad...\n      MSTORE \t\t\tdeable, ERC721URIStorageUpgrad...\n      DUP1 \t\t\tdeable, ERC721URIStorageUpgrad...\n      SWAP3 \t\t\tdeable, ERC721URIStorageUpgrad...\n      SWAP2 \t\t\tdeable, ERC721URIStorageUpgrad...\n      SWAP1 \t\t\tdeable, ERC721URIStorageUpgrad...\n      DUP2 \t\t\tdeable, ERC721URIStorageUpgrad...\n      DUP2 \t\t\tdeable, ERC721URIStorageUpgrad...\n      MSTORE \t\t\tdeable, ERC721URIStorageUpgrad...\n      PUSH 20\t\t\tdeable, ERC721URIStorageUpgrad...\n      ADD \t\t\tdeable, ERC721URIStorageUpgrad...\n      DUP3 \t\t\tdeable, ERC721URIStorageUpgrad...\n      DUP1 \t\t\tdeable, ERC721URIStorageUpgrad...\n      SLOAD \t\t\tdeable, ERC721URIStorageUpgrad...\n      PUSH [tag] 630\t\t\tdeable, ERC721URIStorageUpgrad...\n      SWAP1 \t\t\tdeable, ERC721URIStorageUpgrad...\n      PUSH [tag] 247\t\t\tdeable, ERC721URIStorageUpgrad...\n      JUMP \t\t\tdeable, ERC721URIStorageUpgrad...\n    tag 630\t\t\tdeable, ERC721URIStorageUpgrad...\n      JUMPDEST \t\t\tdeable, ERC721URIStorageUpgrad...\n      DUP1 \t\t\tdeable, ERC721URIStorageUpgrad...\n      ISZERO \t\t\tdeable, ERC721URIStorageUpgrad...\n      PUSH [tag] 631\t\t\tdeable, ERC721URIStorageUpgrad...\n      JUMPI \t\t\tdeable, ERC721URIStorageUpgrad...\n      DUP1 \t\t\tdeable, ERC721URIStorageUpgrad...\n      PUSH 1F\t\t\tdeable, ERC721URIStorageUpgrad...\n      LT \t\t\tdeable, ERC721URIStorageUpgrad...\n      PUSH [tag] 632\t\t\tdeable, ERC721URIStorageUpgrad...\n      JUMPI \t\t\tdeable, ERC721URIStorageUpgrad...\n      PUSH 100\t\t\tdeable, ERC721URIStorageUpgrad...\n      DUP1 \t\t\tdeable, ERC721URIStorageUpgrad...\n      DUP4 \t\t\tdeable, ERC721URIStorageUpgrad...\n      SLOAD \t\t\tdeable, ERC721URIStorageUpgrad...\n      DIV \t\t\tdeable, ERC721URIStorageUpgrad...\n      MUL \t\t\tdeable, ERC721URIStorageUpgrad...\n      DUP4 \t\t\tdeable, ERC721URIStorageUpgrad...\n      MSTORE \t\t\tdeable, ERC721URIStorageUpgrad...\n      SWAP2 \t\t\tdeable, ERC721URIStorageUpgrad...\n      PUSH 20\t\t\tdeable, ERC721URIStorageUpgrad...\n      ADD \t\t\tdeable, ERC721URIStorageUpgrad...\n      SWAP2 \t\t\tdeable, ERC721URIStorageUpgrad...\n      PUSH [tag] 631\t\t\tdeable, ERC721URIStorageUpgrad...\n      JUMP \t\t\tdeable, ERC721URIStorageUpgrad...\n    tag 632\t\t\tdeable, ERC721URIStorageUpgrad...\n      JUMPDEST \t\t\tdeable, ERC721URIStorageUpgrad...\n      DUP3 \t\t\tdeable, ERC721URIStorageUpgrad...\n      ADD \t\t\tdeable, ERC721URIStorageUpgrad...\n      SWAP2 \t\t\tdeable, ERC721URIStorageUpgrad...\n      SWAP1 \t\t\tdeable, ERC721URIStorageUpgrad...\n      PUSH 0\t\t\tdeable, ERC721URIStorageUpgrad...\n      MSTORE \t\t\tdeable, ERC721URIStorageUpgrad...\n      PUSH 20\t\t\tdeable, ERC721URIStorageUpgrad...\n      PUSH 0\t\t\tdeable, ERC721URIStorageUpgrad...\n      KECCAK256 \t\t\tdeable, ERC721URIStorageUpgrad...\n      SWAP1 \t\t\tdeable, ERC721URIStorageUpgrad...\n    tag 633\t\t\tdeable, ERC721URIStorageUpgrad...\n      JUMPDEST \t\t\tdeable, ERC721URIStorageUpgrad...\n      DUP2 \t\t\tdeable, ERC721URIStorageUpgrad...\n      SLOAD \t\t\tdeable, ERC721URIStorageUpgrad...\n      DUP2 \t\t\tdeable, ERC721URIStorageUpgrad...\n      MSTORE \t\t\tdeable, ERC721URIStorageUpgrad...\n      SWAP1 \t\t\tdeable, ERC721URIStorageUpgrad...\n      PUSH 1\t\t\tdeable, ERC721URIStorageUpgrad...\n      ADD \t\t\tdeable, ERC721URIStorageUpgrad...\n      SWAP1 \t\t\tdeable, ERC721URIStorageUpgrad...\n      PUSH 20\t\t\tdeable, ERC721URIStorageUpgrad...\n      ADD \t\t\tdeable, ERC721URIStorageUpgrad...\n      DUP1 \t\t\tdeable, ERC721URIStorageUpgrad...\n      DUP4 \t\t\tdeable, ERC721URIStorageUpgrad...\n      GT \t\t\tdeable, ERC721URIStorageUpgrad...\n      PUSH [tag] 633\t\t\tdeable, ERC721URIStorageUpgrad...\n      JUMPI \t\t\tdeable, ERC721URIStorageUpgrad...\n      DUP3 \t\t\tdeable, ERC721URIStorageUpgrad...\n      SWAP1 \t\t\tdeable, ERC721URIStorageUpgrad...\n      SUB \t\t\tdeable, ERC721URIStorageUpgrad...\n      PUSH 1F\t\t\tdeable, ERC721URIStorageUpgrad...\n      AND \t\t\tdeable, ERC721URIStorageUpgrad...\n      DUP3 \t\t\tdeable, ERC721URIStorageUpgrad...\n      ADD \t\t\tdeable, ERC721URIStorageUpgrad...\n      SWAP2 \t\t\tdeable, ERC721URIStorageUpgrad...\n    tag 631\t\t\tdeable, ERC721URIStorageUpgrad...\n      JUMPDEST \t\t\tdeable, ERC721URIStorageUpgrad...\n      POP \t\t\tdeable, ERC721URIStorageUpgrad...\n      POP \t\t\tdeable, ERC721URIStorageUpgrad...\n      POP \t\t\tdeable, ERC721URIStorageUpgrad...\n      POP \t\t\tdeable, ERC721URIStorageUpgrad...\n      POP \t\t\tdeable, ERC721URIStorageUpgrad...\n      SWAP1 \t\t\tdeable, ERC721URIStorageUpgrad...\n      POP \t\t\tdeable, ERC721URIStorageUpgrad...\n      PUSH 0\t\t\t    uint256 privat\n      PUSH [tag] 634\t\t\tnextTokenI\n      PUSH [tag] 635\t\t\tnextToke\n      JUMP \t\t\tnextTokenI\n    tag 634\t\t\tnextTokenI\n      JUMPDEST \t\t\tnextTokenI\n      SWAP1 \t\t\t    uint256 private _nextToken...\n      POP \t\t\t    uint256 private _nextToken...\n      PUSH 0\t\t\to\n      DUP2 \t\t\tseUR\n      MLOAD \t\t\tory baseURI) exter\n      SUB \t\t\tory baseURI) external o\n      PUSH [tag] 636\t\t\t memory baseURI) external only...\n      JUMPI \t\t\t memory baseURI) external only...\n      DUP2 \t\t\teTokenURI\n      SWAP4 \t\t\t   _baseTokenURI\n      POP \t\t\t   _baseTokenURI\n      POP \t\t\t   _baseTokenURI\n      POP \t\t\t   _baseTokenURI\n      POP \t\t\t   _baseTokenURI\n      PUSH [tag] 625\t\t\t   _baseTokenURI\n      JUMP \t\t\t   _baseTokenURI\n    tag 636\t\t\t memory baseURI) external only...\n      JUMPDEST \t\t\t memory baseURI) external only...\n      PUSH 0\t\t\t \n      DUP3 \t\t\talizers()\n      MLOAD \t\t\teInitializers();\\n    }\\n\n      GT \t\t\teInitializers();\\n    }\\n\\n   \n      ISZERO \t\t\tsableInitializers();\\n    }\\n\\...\n      PUSH [tag] 637\t\t\tsableInitializers();\\n    }\\n\\...\n      JUMPI \t\t\tsableInitializers();\\n    }\\n\\...\n      DUP1 \t\t\twner\n      DUP3 \t\t\tinitializ\n      PUSH 40\t\t\tdress initialowner) initialize\n      MLOAD \t\t\tdress initialowner) initialize\n      PUSH 20\t\t\tdress initialowner) initialize\n      ADD \t\t\tdress initialowner) initialize\n      PUSH [tag] 638\t\t\tdress initialowner) initialize\n      SWAP3 \t\t\tdress initialowner) initialize\n      SWAP2 \t\t\tdress initialowner) initialize\n      SWAP1 \t\t\tdress initialowner) initialize\n      PUSH [tag] 639\t\t\tdress initialowner) initialize\n      JUMP \t\t\tdress initialowner) initialize\n    tag 638\t\t\tdress initialowner) initialize\n      JUMPDEST \t\t\tdress initialowner) initialize\n      PUSH 40\t\t\tdress initialowner) initialize\n      MLOAD \t\t\tdress initialowner) initialize\n      PUSH 20\t\t\tdress initialowner) initialize\n      DUP2 \t\t\tdress initialowner) initialize\n      DUP4 \t\t\tdress initialowner) initialize\n      SUB \t\t\tdress initialowner) initialize\n      SUB \t\t\tdress initialowner) initialize\n      DUP2 \t\t\tdress initialowner) initialize\n      MSTORE \t\t\tdress initialowner) initialize\n      SWAP1 \t\t\tdress initialowner) initialize\n      PUSH 40\t\t\tdress initialowner) initialize\n      MSTORE \t\t\tdress initialowner) initialize\n      SWAP4 \t\t\tlize(address initialowner) ini...\n      POP \t\t\tlize(address initialowner) ini...\n      POP \t\t\tlize(address initialowner) ini...\n      POP \t\t\tlize(address initialowner) ini...\n      POP \t\t\tlize(address initialowner) ini...\n      PUSH [tag] 625\t\t\tlize(address initialowner) ini...\n      JUMP \t\t\tlize(address initialowner) ini...\n    tag 637\t\t\tsableInitializers();\\n    }\\n\\...\n      JUMPDEST \t\t\tsableInitializers();\\n    }\\n\\...\n      PUSH [tag] 640\t\t\tinit(\"SCUMWalkers\", \"SW\n      DUP6 \t\t\trs\", \"S\n      PUSH [tag] 641\t\t\tinit(\"SCUMWalk\n      JUMP \t\t\tinit(\"SCUMWalkers\", \"SW\n    tag 640\t\t\tinit(\"SCUMWalkers\", \"SW\n      JUMPDEST \t\t\tinit(\"SCUMWalkers\", \"SW\n      SWAP4 \t\t\tERC721_init(\"SCUMWalkers\", \"SW\n      POP \t\t\tERC721_init(\"SCUMWalkers\", \"SW\n      POP \t\t\tERC721_init(\"SCUMWalkers\", \"SW\n      POP \t\t\tERC721_init(\"SCUMWalkers\", \"SW\n      POP \t\t\tERC721_init(\"SCUMWalkers\", \"SW\n    tag 625\t\t\table, ERC721Upgradeable, Acces...\n      JUMPDEST \t\t\table, ERC721Upgradeable, Acces...\n      SWAP2 \t\t\table, ERC721Upgradeable, Acces...\n      SWAP1 \t\t\table, ERC721Upgradeable, Acces...\n      POP \t\t\table, ERC721Upgradeable, Acces...\n      JUMP \t\t\table, ERC721Upgradeable, Acces...\n    tag 438\t\t\t\n      JUMPDEST \t\t\t\n      PUSH 0\t\t\t\n      PUSH [tag] 643\t\t\t\n      DUP3 \t\t\t\n      PUSH 0\t\t\t\n      ADD \t\t\t\n      PUSH [tag] 644\t\t\t\n      JUMP \t\t\t\n    tag 643\t\t\t\n      JUMPDEST \t\t\t\n      SWAP1 \t\t\t\n      POP \t\t\t\n      SWAP2 \t\t\t\n      SWAP1 \t\t\t\n      POP \t\t\t\n      JUMP \t\t\t\n    tag 445\t\t\t\n      JUMPDEST \t\t\t\n      PUSH [tag] 646\t\t\t\n      DUP3 \t\t\t\n      DUP3 \t\t\t\n      PUSH 40\t\t\t\n      MLOAD \t\t\t\n      DUP1 \t\t\t\n      PUSH 20\t\t\t\n      ADD \t\t\t\n      PUSH 40\t\t\t\n      MSTORE \t\t\t\n      DUP1 \t\t\t\n      PUSH 0\t\t\t\n      DUP2 \t\t\t\n      MSTORE \t\t\t\n      POP \t\t\t\n      PUSH [tag] 647\t\t\t\n      JUMP \t\t\t\n    tag 646\t\t\t\n      JUMPDEST \t\t\t\n      POP \t\t\t\n      POP \t\t\t\n      JUMP \t\t\t\n    tag 447\t\t\tnit(initialowner);\\n        __...\n      JUMPDEST \t\t\tnit(initialowner);\\n        __...\n      PUSH 0\t\t\t1\");\\n    }\\n\\n    function pa...\n      PUSH [tag] 649\t\t\tlic onlyOwner {\\n        _paus\n      PUSH [tag] 627\t\t\tlic onlyOwner {\\n        _pa\n      JUMP \t\t\tlic onlyOwner {\\n        _paus\n    tag 649\t\t\tlic onlyOwner {\\n        _paus\n      JUMPDEST \t\t\tlic onlyOwner {\\n        _paus\n      SWAP1 \t\t\t1\");\\n    }\\n\\n    function pa...\n      POP \t\t\t1\");\\n    }\\n\\n    function pa...\n      DUP2 \t\t\t public o\n      DUP2 \t\t\t\\n\n      PUSH 0\t\t\t\\n\\n    functi\n      ADD \t\t\t\\n\\n    functi\n      PUSH 0\t\t\t\\n\\n    function unpaus\n      DUP6 \t\t\tn unpau\n      DUP2 \t\t\t\\n\\n    function unpaus\n      MSTORE \t\t\t\\n\\n    function unpaus\n      PUSH 20\t\t\t\\n\\n    function unpaus\n      ADD \t\t\t\\n\\n    function unpaus\n      SWAP1 \t\t\t\\n\\n    function unpaus\n      DUP2 \t\t\t\\n\\n    function unpaus\n      MSTORE \t\t\t\\n\\n    function unpaus\n      PUSH 20\t\t\t\\n\\n    function unpaus\n      ADD \t\t\t\\n\\n    function unpaus\n      PUSH 0\t\t\t\\n\\n    function unpaus\n      KECCAK256 \t\t\t\\n\\n    function unpaus\n      SWAP1 \t\t\t\\n\\n    function unpause() pub...\n      DUP2 \t\t\t\\n\\n    function unpause() pub...\n      PUSH [tag] 650\t\t\t\\n\\n    function unpause() pub...\n      SWAP2 \t\t\t\\n\\n    function unpause() pub...\n      SWAP1 \t\t\t\\n\\n    function unpause() pub...\n      PUSH [tag] 340\t\t\t\\n\\n    function unpause() pub...\n      JUMP \t\t\t\\n\\n    function unpause() pub...\n    tag 650\t\t\t\\n\\n    function unpause() pub...\n      JUMPDEST \t\t\t\\n\\n    function unpause() pub...\n      POP \t\t\t\\n\\n    function unpause() pub...\n      PUSH F8E1A15ABA9398E019F0B49DF1A4FDE98EE17AE345CB5F6B5E2C27F5033E8CE7\t\t\t    _unpause();\\n    }\\n\\n\n      DUP4 \t\t\t\\n    }\\n\n      PUSH 40\t\t\t    _unpause();\\n    }\\n\\n\n      MLOAD \t\t\t    _unpause();\\n    }\\n\\n\n      PUSH [tag] 651\t\t\t    _unpause();\\n    }\\n\\n\n      SWAP2 \t\t\t    _unpause();\\n    }\\n\\n\n      SWAP1 \t\t\t    _unpause();\\n    }\\n\\n\n      PUSH [tag] 77\t\t\t    _unpause();\\n    }\\n\\n\n      JUMP \t\t\t    _unpause();\\n    }\\n\\n\n    tag 651\t\t\t    _unpause();\\n    }\\n\\n\n      JUMPDEST \t\t\t    _unpause();\\n    }\\n\\n\n      PUSH 40\t\t\t    _unpause();\\n    }\\n\\n\n      MLOAD \t\t\t    _unpause();\\n    }\\n\\n\n      DUP1 \t\t\t    _unpause();\\n    }\\n\\n\n      SWAP2 \t\t\t    _unpause();\\n    }\\n\\n\n      SUB \t\t\t    _unpause();\\n    }\\n\\n\n      SWAP1 \t\t\t    _unpause();\\n    }\\n\\n\n      LOG1 \t\t\t    _unpause();\\n    }\\n\\n\n      POP \t\t\talkers\", \"1\");\\n    }\\n\\n    f...\n      POP \t\t\tnit(initialowner);\\n        __...\n      POP \t\t\tnit(initialowner);\\n        __...\n      JUMP \t\t\tnit(initialowner);\\n        __...\n    tag 464\t\t\tdeable, ERC721URIStorageUpgrad...\n      JUMPDEST \t\t\tdeable, ERC721URIStorageUpgrad...\n      PUSH 0\t\t\taseT\n      PUSH 780E9D6300000000000000000000000000000000000000000000000000000000\t\t\tstring memory baseURI) externa...\n      PUSH FFFFFFFFFFFFFFFFFFFFFFFFFFFFFFFFFFFFFFFFFFFFFFFFFFFFFFFF\t\t\tion setBaseURI(string memory b...\n      NOT \t\t\tion setBaseURI(string memory b...\n      AND \t\t\tion setBaseURI(string memory b...\n      DUP3 \t\t\tion setBase\n      PUSH FFFFFFFFFFFFFFFFFFFFFFFFFFFFFFFFFFFFFFFFFFFFFFFFFFFFFFFF\t\t\tion setBaseURI(string memory b...\n      NOT \t\t\tion setBaseURI(string memory b...\n      AND \t\t\tion setBaseURI(string memory b...\n      EQ \t\t\tion setBaseURI(string memory b...\n      DUP1 \t\t\tion setBaseURI(string memory b...\n      PUSH [tag] 653\t\t\tion setBaseURI(string memory b...\n      JUMPI \t\t\tion setBaseURI(string memory b...\n      POP \t\t\tion setBaseURI(string memory b...\n      PUSH [tag] 654\t\t\ter {\\n        _baseTokenURI = ...\n      DUP3 \t\t\tRI = baseUR\n      PUSH [tag] 655\t\t\ter {\\n        _baseToken\n      JUMP \t\t\ter {\\n        _baseTokenURI = ...\n    tag 654\t\t\ter {\\n        _baseTokenURI = ...\n      JUMPDEST \t\t\ter {\\n        _baseTokenURI = ...\n    tag 653\t\t\tion setBaseURI(string memory b...\n      JUMPDEST \t\t\tion setBaseURI(string memory b...\n      SWAP1 \t\t\t  function setBaseURI(string m...\n      POP \t\t\t  function setBaseURI(string m...\n      SWAP2 \t\t\tdeable, ERC721URIStorageUpgrad...\n      SWAP1 \t\t\tdeable, ERC721URIStorageUpgrad...\n      POP \t\t\tdeable, ERC721URIStorageUpgrad...\n      JUMP \t\t\tdeable, ERC721URIStorageUpgrad...\n    tag 468\t\t\tfunction _ownerOf(uint256 toke...\n      JUMPDEST \t\t\tfunction _ownerOf(uint256 toke...\n      PUSH 0\t\t\taddress\n      PUSH [tag] 657\t\t\tERC721Upgradeable._ownerOf(tok...\n      DUP3 \t\t\ttokenId\n      PUSH [tag] 658\t\t\tERC721Upgradeable._ownerOf\n      JUMP \t\t\tERC721Upgradeable._ownerOf(tok...\n    tag 657\t\t\tERC721Upgradeable._ownerOf(tok...\n      JUMPDEST \t\t\tERC721Upgradeable._ownerOf(tok...\n      SWAP1 \t\t\treturn ERC721Upgradeable._owne...\n      POP \t\t\treturn ERC721Upgradeable._owne...\n      SWAP2 \t\t\tfunction _ownerOf(uint256 toke...\n      SWAP1 \t\t\tfunction _ownerOf(uint256 toke...\n      POP \t\t\tfunction _ownerOf(uint256 toke...\n      JUMP \t\t\tfunction _ownerOf(uint256 toke...\n    tag 476\t\t\t\n      JUMPDEST \t\t\t\n      PUSH 0\t\t\t\n      PUSH [tag] 660\t\t\t\n      PUSH [tag] 245\t\t\t\n      JUMP \t\t\t\n    tag 660\t\t\t\n      JUMPDEST \t\t\t\n      SWAP1 \t\t\t\n      POP \t\t\t\n      DUP2 \t\t\t\n      DUP1 \t\t\t\n      PUSH [tag] 661\t\t\t\n      JUMPI \t\t\t\n      POP \t\t\t\n      PUSH 0\t\t\t\n      PUSH FFFFFFFFFFFFFFFFFFFFFFFFFFFFFFFFFFFFFFFF\t\t\t\n      AND \t\t\t\n      DUP4 \t\t\t\n      PUSH FFFFFFFFFFFFFFFFFFFFFFFFFFFFFFFFFFFFFFFF\t\t\t\n      AND \t\t\t\n      EQ \t\t\t\n      ISZERO \t\t\t\n    tag 661\t\t\t\n      JUMPDEST \t\t\t\n      ISZERO \t\t\t\n      PUSH [tag] 662\t\t\t\n      JUMPI \t\t\t\n      PUSH 0\t\t\t\n      PUSH [tag] 663\t\t\t\n      DUP6 \t\t\t\n      PUSH [tag] 254\t\t\t\n      JUMP \t\t\t\n    tag 663\t\t\t\n      JUMPDEST \t\t\t\n      SWAP1 \t\t\t\n      POP \t\t\t\n      PUSH 0\t\t\t\n      PUSH FFFFFFFFFFFFFFFFFFFFFFFFFFFFFFFFFFFFFFFF\t\t\t\n      AND \t\t\t\n      DUP5 \t\t\t\n      PUSH FFFFFFFFFFFFFFFFFFFFFFFFFFFFFFFFFFFFFFFF\t\t\t\n      AND \t\t\t\n      EQ \t\t\t\n      ISZERO \t\t\t\n      DUP1 \t\t\t\n      ISZERO \t\t\t\n      PUSH [tag] 664\t\t\t\n      JUMPI \t\t\t\n      POP \t\t\t\n      DUP4 \t\t\t\n      PUSH FFFFFFFFFFFFFFFFFFFFFFFFFFFFFFFFFFFFFFFF\t\t\t\n      AND \t\t\t\n      DUP2 \t\t\t\n      PUSH FFFFFFFFFFFFFFFFFFFFFFFFFFFFFFFFFFFFFFFF\t\t\t\n      AND \t\t\t\n      EQ \t\t\t\n      ISZERO \t\t\t\n    tag 664\t\t\t\n      JUMPDEST \t\t\t\n      DUP1 \t\t\t\n      ISZERO \t\t\t\n      PUSH [tag] 665\t\t\t\n      JUMPI \t\t\t\n      POP \t\t\t\n      PUSH [tag] 666\t\t\t\n      DUP2 \t\t\t\n      DUP6 \t\t\t\n      PUSH [tag] 234\t\t\t\n      JUMP \t\t\t\n    tag 666\t\t\t\n      JUMPDEST \t\t\t\n      ISZERO \t\t\t\n    tag 665\t\t\t\n      JUMPDEST \t\t\t\n      ISZERO \t\t\t\n      PUSH [tag] 667\t\t\t\n      JUMPI \t\t\t\n      DUP4 \t\t\t\n      PUSH 40\t\t\t\n      MLOAD \t\t\t\n      PUSH A9FBF51F00000000000000000000000000000000000000000000000000000000\t\t\t\n      DUP2 \t\t\t\n      MSTORE \t\t\t\n      PUSH 4\t\t\t\n      ADD \t\t\t\n      PUSH [tag] 668\t\t\t\n      SWAP2 \t\t\t\n      SWAP1 \t\t\t\n      PUSH [tag] 67\t\t\t\n      JUMP \t\t\t\n    tag 668\t\t\t\n      JUMPDEST \t\t\t\n      PUSH 40\t\t\t\n      MLOAD \t\t\t\n      DUP1 \t\t\t\n      SWAP2 \t\t\t\n      SUB \t\t\t\n      SWAP1 \t\t\t\n      REVERT \t\t\t\n    tag 667\t\t\t\n      JUMPDEST \t\t\t\n      DUP3 \t\t\t\n      ISZERO \t\t\t\n      PUSH [tag] 669\t\t\t\n      JUMPI \t\t\t\n      DUP5 \t\t\t\n      DUP7 \t\t\t\n      PUSH FFFFFFFFFFFFFFFFFFFFFFFFFFFFFFFFFFFFFFFF\t\t\t\n      AND \t\t\t\n      DUP3 \t\t\t\n      PUSH FFFFFFFFFFFFFFFFFFFFFFFFFFFFFFFFFFFFFFFF\t\t\t\n      AND \t\t\t\n      PUSH 8C5BE1E5EBEC7D5BD14F71427D1E84F3DD0314C0F7B2291E5B200AC8C7C3B925\t\t\t\n      PUSH 40\t\t\t\n      MLOAD \t\t\t\n      PUSH 40\t\t\t\n      MLOAD \t\t\t\n      DUP1 \t\t\t\n      SWAP2 \t\t\t\n      SUB \t\t\t\n      SWAP1 \t\t\t\n      LOG4 \t\t\t\n    tag 669\t\t\t\n      JUMPDEST \t\t\t\n      POP \t\t\t\n    tag 662\t\t\t\n      JUMPDEST \t\t\t\n      DUP5 \t\t\t\n      DUP2 \t\t\t\n      PUSH 4\t\t\t\n      ADD \t\t\t\n      PUSH 0\t\t\t\n      DUP7 \t\t\t\n      DUP2 \t\t\t\n      MSTORE \t\t\t\n      PUSH 20\t\t\t\n      ADD \t\t\t\n      SWAP1 \t\t\t\n      DUP2 \t\t\t\n      MSTORE \t\t\t\n      PUSH 20\t\t\t\n      ADD \t\t\t\n      PUSH 0\t\t\t\n      KECCAK256 \t\t\t\n      PUSH 0\t\t\t\n      PUSH 100\t\t\t\n      EXP \t\t\t\n      DUP2 \t\t\t\n      SLOAD \t\t\t\n      DUP2 \t\t\t\n      PUSH FFFFFFFFFFFFFFFFFFFFFFFFFFFFFFFFFFFFFFFF\t\t\t\n      MUL \t\t\t\n      NOT \t\t\t\n      AND \t\t\t\n      SWAP1 \t\t\t\n      DUP4 \t\t\t\n      PUSH FFFFFFFFFFFFFFFFFFFFFFFFFFFFFFFFFFFFFFFF\t\t\t\n      AND \t\t\t\n      MUL \t\t\t\n      OR \t\t\t\n      SWAP1 \t\t\t\n      SSTORE \t\t\t\n      POP \t\t\t\n      POP \t\t\t\n      POP \t\t\t\n      POP \t\t\t\n      POP \t\t\t\n      POP \t\t\t\n      JUMP \t\t\t\n    tag 480\t\t\teable@5.0.0/utils/introspectio...\n      JUMPDEST \t\t\teable@5.0.0/utils/introspectio...\n      PUSH 0\t\t\tport \"@\n      PUSH [tag] 671\t\t\tC721PausableUpgrade\n      PUSH [tag] 544\t\t\tC721PausableUpgra\n      JUMP \t\t\tC721PausableUpgrade\n    tag 671\t\t\tC721PausableUpgrade\n      JUMPDEST \t\t\tC721PausableUpgrade\n      PUSH [tag] 673\t\t\tcts-upgradeable@5.0.0/utils/Mu...\n      DUP5 \t\t\te@\n      DUP5 \t\t\t0.0/uti\n      DUP5 \t\t\t/Mul\n      PUSH [tag] 674\t\t\tcts-upgradeab\n      JUMP \t\t\tcts-upgradeable@5.0.0/utils/Mu...\n    tag 673\t\t\tcts-upgradeable@5.0.0/utils/Mu...\n      JUMPDEST \t\t\tcts-upgradeable@5.0.0/utils/Mu...\n      SWAP1 \t\t\t/contracts-upgradeable@5.0.0/u...\n      POP \t\t\t/contracts-upgradeable@5.0.0/u...\n      SWAP4 \t\t\teable@5.0.0/utils/introspectio...\n      SWAP3 \t\t\teable@5.0.0/utils/introspectio...\n      POP \t\t\teable@5.0.0/utils/introspectio...\n      POP \t\t\teable@5.0.0/utils/introspectio...\n      POP \t\t\teable@5.0.0/utils/introspectio...\n      JUMP \t\t\teable@5.0.0/utils/introspectio...\n    tag 487\t\t\t  view\\n        override(ERC72...\n      JUMPDEST \t\t\t  view\\n        override(ERC72...\n      PUSH [tag] 676\t\t\t(string memory)\\n    {\\n\n      DUP3 \t\t\tmemo\n      DUP3 \t\t\t)\\n    {\n      PUSH [tag] 183\t\t\t(string\n      JUMP \t\t\t(string memory)\\n    {\\n\n    tag 676\t\t\t(string memory)\\n    {\\n\n      JUMPDEST \t\t\t(string memory)\\n    {\\n\n      PUSH [tag] 677\t\t\turns (string memory)\\n    {\\n ...\n      JUMPI \t\t\turns (string memory)\\n    {\\n ...\n      DUP1 \t\t\tion sup\n      DUP3 \t\t\trtsI\n      PUSH 40\t\t\tkenURI(tokenId);\\n    }\\n\\n   ...\n      MLOAD \t\t\tkenURI(tokenId);\\n    }\\n\\n   ...\n      PUSH E2517D3F00000000000000000000000000000000000000000000000000000000\t\t\tkenURI(tokenId);\\n    }\\n\\n   ...\n      DUP2 \t\t\tkenURI(tokenId);\\n    }\\n\\n   ...\n      MSTORE \t\t\tkenURI(tokenId);\\n    }\\n\\n   ...\n      PUSH 4\t\t\tkenURI(tokenId);\\n    }\\n\\n   ...\n      ADD \t\t\tkenURI(tokenId);\\n    }\\n\\n   ...\n      PUSH [tag] 678\t\t\tkenURI(tokenId);\\n    }\\n\\n   ...\n      SWAP3 \t\t\tkenURI(tokenId);\\n    }\\n\\n   ...\n      SWAP2 \t\t\tkenURI(tokenId);\\n    }\\n\\n   ...\n      SWAP1 \t\t\tkenURI(tokenId);\\n    }\\n\\n   ...\n      PUSH [tag] 679\t\t\tkenURI(tokenId);\\n    }\\n\\n   ...\n      JUMP \t\t\tkenURI(tokenId);\\n    }\\n\\n   ...\n    tag 678\t\t\tkenURI(tokenId);\\n    }\\n\\n   ...\n      JUMPDEST \t\t\tkenURI(tokenId);\\n    }\\n\\n   ...\n      PUSH 40\t\t\tkenURI(tokenId);\\n    }\\n\\n   ...\n      MLOAD \t\t\tkenURI(tokenId);\\n    }\\n\\n   ...\n      DUP1 \t\t\tkenURI(tokenId);\\n    }\\n\\n   ...\n      SWAP2 \t\t\tkenURI(tokenId);\\n    }\\n\\n   ...\n      SUB \t\t\tkenURI(tokenId);\\n    }\\n\\n   ...\n      SWAP1 \t\t\tkenURI(tokenId);\\n    }\\n\\n   ...\n      REVERT \t\t\tkenURI(tokenId);\\n    }\\n\\n   ...\n    tag 677\t\t\turns (string memory)\\n    {\\n ...\n      JUMPDEST \t\t\turns (string memory)\\n    {\\n ...\n      POP \t\t\t  view\\n        override(ERC72...\n      POP \t\t\t  view\\n        override(ERC72...\n      JUMP \t\t\t  view\\n        override(ERC72...\n    tag 491\t\t\t\n      JUMPDEST \t\t\t\n      PUSH 0\t\t\t\n      DUP1 \t\t\t\n      PUSH [tag] 681\t\t\t\n      PUSH [tag] 276\t\t\t\n      JUMP \t\t\t\n    tag 681\t\t\t\n      JUMPDEST \t\t\t\n      SWAP1 \t\t\t\n      POP \t\t\t\n      PUSH [tag] 682\t\t\t\n      DUP5 \t\t\t\n      DUP5 \t\t\t\n      PUSH [tag] 183\t\t\t\n      JUMP \t\t\t\n    tag 682\t\t\t\n      JUMPDEST \t\t\t\n      PUSH [tag] 683\t\t\t\n      JUMPI \t\t\t\n      PUSH 1\t\t\t\n      DUP2 \t\t\t\n      PUSH 0\t\t\t\n      ADD \t\t\t\n      PUSH 0\t\t\t\n      DUP7 \t\t\t\n      DUP2 \t\t\t\n      MSTORE \t\t\t\n      PUSH 20\t\t\t\n      ADD \t\t\t\n      SWAP1 \t\t\t\n      DUP2 \t\t\t\n      MSTORE \t\t\t\n      PUSH 20\t\t\t\n      ADD \t\t\t\n      PUSH 0\t\t\t\n      KECCAK256 \t\t\t\n      PUSH 0\t\t\t\n      ADD \t\t\t\n      PUSH 0\t\t\t\n      DUP6 \t\t\t\n      PUSH FFFFFFFFFFFFFFFFFFFFFFFFFFFFFFFFFFFFFFFF\t\t\t\n      AND \t\t\t\n      PUSH FFFFFFFFFFFFFFFFFFFFFFFFFFFFFFFFFFFFFFFF\t\t\t\n      AND \t\t\t\n      DUP2 \t\t\t\n      MSTORE \t\t\t\n      PUSH 20\t\t\t\n      ADD \t\t\t\n      SWAP1 \t\t\t\n      DUP2 \t\t\t\n      MSTORE \t\t\t\n      PUSH 20\t\t\t\n      ADD \t\t\t\n      PUSH 0\t\t\t\n      KECCAK256 \t\t\t\n      PUSH 0\t\t\t\n      PUSH 100\t\t\t\n      EXP \t\t\t\n      DUP2 \t\t\t\n      SLOAD \t\t\t\n      DUP2 \t\t\t\n      PUSH FF\t\t\t\n      MUL \t\t\t\n      NOT \t\t\t\n      AND \t\t\t\n      SWAP1 \t\t\t\n      DUP4 \t\t\t\n      ISZERO \t\t\t\n      ISZERO \t\t\t\n      MUL \t\t\t\n      OR \t\t\t\n      SWAP1 \t\t\t\n      SSTORE \t\t\t\n      POP \t\t\t\n      PUSH [tag] 684\t\t\t\n      PUSH [tag] 260\t\t\t\n      JUMP \t\t\t\n    tag 684\t\t\t\n      JUMPDEST \t\t\t\n      PUSH FFFFFFFFFFFFFFFFFFFFFFFFFFFFFFFFFFFFFFFF\t\t\t\n      AND \t\t\t\n      DUP4 \t\t\t\n      PUSH FFFFFFFFFFFFFFFFFFFFFFFFFFFFFFFFFFFFFFFF\t\t\t\n      AND \t\t\t\n      DUP6 \t\t\t\n      PUSH 2F8788117E7EFF1D82E926EC794901D17C78024A50270940304540A733656F0D\t\t\t\n      PUSH 40\t\t\t\n      MLOAD \t\t\t\n      PUSH 40\t\t\t\n      MLOAD \t\t\t\n      DUP1 \t\t\t\n      SWAP2 \t\t\t\n      SUB \t\t\t\n      SWAP1 \t\t\t\n      LOG4 \t\t\t\n      PUSH 1\t\t\t\n      SWAP2 \t\t\t\n      POP \t\t\t\n      POP \t\t\t\n      PUSH [tag] 680\t\t\t\n      JUMP \t\t\t\n    tag 683\t\t\t\n      JUMPDEST \t\t\t\n      PUSH 0\t\t\t\n      SWAP2 \t\t\t\n      POP \t\t\t\n      POP \t\t\t\n    tag 680\t\t\t\n      JUMPDEST \t\t\t\n      SWAP3 \t\t\t\n      SWAP2 \t\t\t\n      POP \t\t\t\n      POP \t\t\t\n      JUMP \t\t\t\n    tag 494\t\t\t\n      JUMPDEST \t\t\t\n      PUSH 0\t\t\t\n      PUSH [tag] 687\t\t\t\n      DUP4 \t\t\t\n      PUSH 0\t\t\t\n      ADD \t\t\t\n      DUP4 \t\t\t\n      PUSH FFFFFFFFFFFFFFFFFFFFFFFFFFFFFFFFFFFFFFFF\t\t\t\n      AND \t\t\t\n      PUSH 0\t\t\t\n      SHL \t\t\t\n      PUSH [tag] 688\t\t\t\n      JUMP \t\t\t\n    tag 687\t\t\t\n      JUMPDEST \t\t\t\n      SWAP1 \t\t\t\n      POP \t\t\t\n      SWAP3 \t\t\t\n      SWAP2 \t\t\t\n      POP \t\t\t\n      POP \t\t\t\n      JUMP \t\t\t\n    tag 498\t\t\t\n      JUMPDEST \t\t\t\n      PUSH 0\t\t\t\n      DUP1 \t\t\t\n      PUSH [tag] 690\t\t\t\n      PUSH [tag] 276\t\t\t\n      JUMP \t\t\t\n    tag 690\t\t\t\n      JUMPDEST \t\t\t\n      SWAP1 \t\t\t\n      POP \t\t\t\n      PUSH [tag] 691\t\t\t\n      DUP5 \t\t\t\n      DUP5 \t\t\t\n      PUSH [tag] 183\t\t\t\n      JUMP \t\t\t\n    tag 691\t\t\t\n      JUMPDEST \t\t\t\n      ISZERO \t\t\t\n      PUSH [tag] 692\t\t\t\n      JUMPI \t\t\t\n      PUSH 0\t\t\t\n      DUP2 \t\t\t\n      PUSH 0\t\t\t\n      ADD \t\t\t\n      PUSH 0\t\t\t\n      DUP7 \t\t\t\n      DUP2 \t\t\t\n      MSTORE \t\t\t\n      PUSH 20\t\t\t\n      ADD \t\t\t\n      SWAP1 \t\t\t\n      DUP2 \t\t\t\n      MSTORE \t\t\t\n      PUSH 20\t\t\t\n      ADD \t\t\t\n      PUSH 0\t\t\t\n      KECCAK256 \t\t\t\n      PUSH 0\t\t\t\n      ADD \t\t\t\n      PUSH 0\t\t\t\n      DUP6 \t\t\t\n      PUSH FFFFFFFFFFFFFFFFFFFFFFFFFFFFFFFFFFFFFFFF\t\t\t\n      AND \t\t\t\n      PUSH FFFFFFFFFFFFFFFFFFFFFFFFFFFFFFFFFFFFFFFF\t\t\t\n      AND \t\t\t\n      DUP2 \t\t\t\n      MSTORE \t\t\t\n      PUSH 20\t\t\t\n      ADD \t\t\t\n      SWAP1 \t\t\t\n      DUP2 \t\t\t\n      MSTORE \t\t\t\n      PUSH 20\t\t\t\n      ADD \t\t\t\n      PUSH 0\t\t\t\n      KECCAK256 \t\t\t\n      PUSH 0\t\t\t\n      PUSH 100\t\t\t\n      EXP \t\t\t\n      DUP2 \t\t\t\n      SLOAD \t\t\t\n      DUP2 \t\t\t\n      PUSH FF\t\t\t\n      MUL \t\t\t\n      NOT \t\t\t\n      AND \t\t\t\n      SWAP1 \t\t\t\n      DUP4 \t\t\t\n      ISZERO \t\t\t\n      ISZERO \t\t\t\n      MUL \t\t\t\n      OR \t\t\t\n      SWAP1 \t\t\t\n      SSTORE \t\t\t\n      POP \t\t\t\n      PUSH [tag] 693\t\t\t\n      PUSH [tag] 260\t\t\t\n      JUMP \t\t\t\n    tag 693\t\t\t\n      JUMPDEST \t\t\t\n      PUSH FFFFFFFFFFFFFFFFFFFFFFFFFFFFFFFFFFFFFFFF\t\t\t\n      AND \t\t\t\n      DUP4 \t\t\t\n      PUSH FFFFFFFFFFFFFFFFFFFFFFFFFFFFFFFFFFFFFFFF\t\t\t\n      AND \t\t\t\n      DUP6 \t\t\t\n      PUSH F6391F5C32D9C69D2A47EA670B442974B53935D1EDC7FD64EB21E047A839171B\t\t\t\n      PUSH 40\t\t\t\n      MLOAD \t\t\t\n      PUSH 40\t\t\t\n      MLOAD \t\t\t\n      DUP1 \t\t\t\n      SWAP2 \t\t\t\n      SUB \t\t\t\n      SWAP1 \t\t\t\n      LOG4 \t\t\t\n      PUSH 1\t\t\t\n      SWAP2 \t\t\t\n      POP \t\t\t\n      POP \t\t\t\n      PUSH [tag] 689\t\t\t\n      JUMP \t\t\t\n    tag 692\t\t\t\n      JUMPDEST \t\t\t\n      PUSH 0\t\t\t\n      SWAP2 \t\t\t\n      POP \t\t\t\n      POP \t\t\t\n    tag 689\t\t\t\n      JUMPDEST \t\t\t\n      SWAP3 \t\t\t\n      SWAP2 \t\t\t\n      POP \t\t\t\n      POP \t\t\t\n      JUMP \t\t\t\n    tag 501\t\t\t\n      JUMPDEST \t\t\t\n      PUSH 0\t\t\t\n      PUSH [tag] 696\t\t\t\n      DUP4 \t\t\t\n      PUSH 0\t\t\t\n      ADD \t\t\t\n      DUP4 \t\t\t\n      PUSH FFFFFFFFFFFFFFFFFFFFFFFFFFFFFFFFFFFFFFFF\t\t\t\n      AND \t\t\t\n      PUSH 0\t\t\t\n      SHL \t\t\t\n      PUSH [tag] 697\t\t\t\n      JUMP \t\t\t\n    tag 696\t\t\t\n      JUMPDEST \t\t\t\n      SWAP1 \t\t\t\n      POP \t\t\t\n      SWAP3 \t\t\t\n      SWAP2 \t\t\t\n      POP \t\t\t\n      POP \t\t\t\n      JUMP \t\t\t\n    tag 510\t\t\t) public onlyOwner {\\n        ...\n      JUMPDEST \t\t\t) public onlyOwner {\\n        ...\n      PUSH [tag] 699\t\t\trizeUpgr\n      PUSH [tag] 142\t\t\trizeUp\n      JUMP \t\t\trizeUpgr\n    tag 699\t\t\trizeUpgr\n      JUMPDEST \t\t\trizeUpgr\n      PUSH [tag] 700\t\t\tauthorizeUpgrade(address _newI...\n      JUMPI \t\t\tauthorizeUpgrade(address _newI...\n      PUSH 40\t\t\tntation) intern\n      MLOAD \t\t\tntation) intern\n      PUSH 8DFC202B00000000000000000000000000000000000000000000000000000000\t\t\tntation) intern\n      DUP2 \t\t\tntation) intern\n      MSTORE \t\t\tntation) intern\n      PUSH 4\t\t\tntation) intern\n      ADD \t\t\tntation) intern\n      PUSH 40\t\t\tntation) intern\n      MLOAD \t\t\tntation) intern\n      DUP1 \t\t\tntation) intern\n      SWAP2 \t\t\tntation) intern\n      SUB \t\t\tntation) intern\n      SWAP1 \t\t\tntation) intern\n      REVERT \t\t\tntation) intern\n    tag 700\t\t\tauthorizeUpgrade(address _newI...\n      JUMPDEST \t\t\tauthorizeUpgrade(address _newI...\n      JUMP \t\t\t) public onlyOwner {\\n        ...\n    tag 518\t\t\teppelin/contracts-upgradeable@...\n      JUMPDEST \t\t\teppelin/contracts-upgradeable@...\n      PUSH 0\t\t\tUpgrade\n      PUSH [tag] 702\t\t\tstom:security-contact bedlam52...\n      PUSH 360894A13BA1A3210667C828492DB98DCA3E2076CC3735A920A3CA505D382BBC\t\t\tadeable.sol\";\\nimport \"@openze...\n      PUSH 0\t\t\tm520@skiff.com\\ncont\n      SHL \t\t\tm520@skiff.com\\ncont\n      PUSH [tag] 703\t\t\tstom:security-contact bedl\n      JUMP \t\t\tstom:security-contact bedlam52...\n    tag 702\t\t\tstom:security-contact bedlam52...\n      JUMPDEST \t\t\tstom:security-contact bedlam52...\n      PUSH 0\t\t\tstom:security-contact bedlam52...\n      ADD \t\t\tstom:security-contact bedlam52...\n      PUSH 0\t\t\tstom:security-contact bedlam52...\n      SWAP1 \t\t\tstom:security-contact bedlam52...\n      SLOAD \t\t\tstom:security-contact bedlam52...\n      SWAP1 \t\t\tstom:security-contact bedlam52...\n      PUSH 100\t\t\tstom:security-contact bedlam52...\n      EXP \t\t\tstom:security-contact bedlam52...\n      SWAP1 \t\t\tstom:security-contact bedlam52...\n      DIV \t\t\tstom:security-contact bedlam52...\n      PUSH FFFFFFFFFFFFFFFFFFFFFFFFFFFFFFFFFFFFFFFF\t\t\tstom:security-contact bedlam52...\n      AND \t\t\tstom:security-contact bedlam52...\n      SWAP1 \t\t\t/// @custom:security-contact b...\n      POP \t\t\t/// @custom:security-contact b...\n      SWAP1 \t\t\teppelin/contracts-upgradeable@...\n      JUMP \t\t\teppelin/contracts-upgradeable@...\n    tag 536\t\t\tlkers\", \"SW\");\\n        __ERC7...\n      JUMPDEST \t\t\tlkers\", \"SW\");\\n        __ERC7...\n      PUSH [tag] 705\t\t\t  __ERC721Pausable_init();\\n  ...\n      DUP3 \t\t\tinit();\\n        _\n      PUSH [tag] 706\t\t\t  __ERC721Pausable\n      JUMP \t\t\t  __ERC721Pausable_init();\\n  ...\n    tag 705\t\t\t  __ERC721Pausable_init();\\n  ...\n      JUMPDEST \t\t\t  __ERC721Pausable_init();\\n  ...\n      DUP2 \t\t\tr);\\n        __UUP\n      PUSH FFFFFFFFFFFFFFFFFFFFFFFFFFFFFFFFFFFFFFFF\t\t\titialowner);\\n        __UUPS\n      AND \t\t\titialowner);\\n        __UUPS\n      PUSH BC7CD75A20EE27FD9ADEBAB32041F755214DBC6BFFA90CC0225B39DA2E5C2D3B\t\t\titialowner);\\n        __UUPS\n      PUSH 40\t\t\titialowner);\\n        __UUPS\n      MLOAD \t\t\titialowner);\\n        __UUPS\n      PUSH 40\t\t\titialowner);\\n        __UUPS\n      MLOAD \t\t\titialowner);\\n        __UUPS\n      DUP1 \t\t\titialowner);\\n        __UUPS\n      SWAP2 \t\t\titialowner);\\n        __UUPS\n      SUB \t\t\titialowner);\\n        __UUPS\n      SWAP1 \t\t\titialowner);\\n        __UUPS\n      LOG2 \t\t\titialowner);\\n        __UUPS\n      PUSH 0\t\t\t_\n      DUP2 \t\t\tt();\n      MLOAD \t\t\tt();\\n      \n      GT \t\t\tt();\\n        __\n      ISZERO \t\t\t_init();\\n        __EIP712_ini...\n      PUSH [tag] 707\t\t\t_init();\\n        __EIP712_ini...\n      JUMPI \t\t\t_init();\\n        __EIP712_ini...\n      PUSH [tag] 708\t\t\tMWalkers\", \"1\");\\n    }\\n\\n   ...\n      DUP3 \t\t\tunction pause() p\n      DUP3 \t\t\tlic \n      PUSH [tag] 709\t\t\tMWalkers\", \"1\");\\n    }\\n\\n   ...\n      JUMP \t\t\tMWalkers\", \"1\");\\n    }\\n\\n   ...\n    tag 708\t\t\tMWalkers\", \"1\");\\n    }\\n\\n   ...\n      JUMPDEST \t\t\tMWalkers\", \"1\");\\n    }\\n\\n   ...\n      POP \t\t\tMWalkers\", \"1\");\\n    }\\n\\n   ...\n      PUSH [tag] 710\t\t\t_init();\\n        __EIP712_ini...\n      JUMP \t\t\t_init();\\n        __EIP712_ini...\n    tag 707\t\t\t_init();\\n        __EIP712_ini...\n      JUMPDEST \t\t\t_init();\\n        __EIP712_ini...\n      PUSH [tag] 711\t\t\t  }\\n\\n    function \n      PUSH [tag] 712\t\t\t  }\\n\\n    functio\n      JUMP \t\t\t  }\\n\\n    function \n    tag 711\t\t\t  }\\n\\n    function \n      JUMPDEST \t\t\t  }\\n\\n    function \n    tag 710\t\t\t_init();\\n        __EIP712_ini...\n      JUMPDEST \t\t\t_init();\\n        __EIP712_ini...\n      POP \t\t\tlkers\", \"SW\");\\n        __ERC7...\n      POP \t\t\tlkers\", \"SW\");\\n        __ERC7...\n      JUMP \t\t\tlkers\", \"SW\");\\n        __ERC7...\n    tag 544\t\t\t__Ownable_init(initialowner);\\...\n      JUMPDEST \t\t\t__Ownable_init(initialowner);\\...\n      PUSH [tag] 714\t\t\t       _\n      PUSH [tag] 142\t\t\t      \n      JUMP \t\t\t       _\n    tag 714\t\t\t       _\n      JUMPDEST \t\t\t       _\n      ISZERO \t\t\t);\\n        __EIP712_init(\"SCU...\n      PUSH [tag] 715\t\t\t);\\n        __EIP712_init(\"SCU...\n      JUMPI \t\t\t);\\n        __EIP712_init(\"SCU...\n      PUSH 40\t\t\trs\", \"1\");\\n    \n      MLOAD \t\t\trs\", \"1\");\\n    \n      PUSH D93C066500000000000000000000000000000000000000000000000000000000\t\t\trs\", \"1\");\\n    \n      DUP2 \t\t\trs\", \"1\");\\n    \n      MSTORE \t\t\trs\", \"1\");\\n    \n      PUSH 4\t\t\trs\", \"1\");\\n    \n      ADD \t\t\trs\", \"1\");\\n    \n      PUSH 40\t\t\trs\", \"1\");\\n    \n      MLOAD \t\t\trs\", \"1\");\\n    \n      DUP1 \t\t\trs\", \"1\");\\n    \n      SWAP2 \t\t\trs\", \"1\");\\n    \n      SUB \t\t\trs\", \"1\");\\n    \n      SWAP1 \t\t\trs\", \"1\");\\n    \n      REVERT \t\t\trs\", \"1\");\\n    \n    tag 715\t\t\t);\\n        __EIP712_init(\"SCU...\n      JUMPDEST \t\t\t);\\n        __EIP712_init(\"SCU...\n      JUMP \t\t\t__Ownable_init(initialowner);\\...\n    tag 568\t\t\t\n      JUMPDEST \t\t\t\n      PUSH 0\t\t\t\n      DUP3 \t\t\t\n      PUSH 0\t\t\t\n      ADD \t\t\t\n      DUP3 \t\t\t\n      DUP2 \t\t\t\n      SLOAD \t\t\t\n      DUP2 \t\t\t\n      LT \t\t\t\n      PUSH [tag] 717\t\t\t\n      JUMPI \t\t\t\n      PUSH [tag] 718\t\t\t\n      PUSH [tag] 330\t\t\t\n      JUMP \t\t\t\n    tag 718\t\t\t\n      JUMPDEST \t\t\t\n    tag 717\t\t\t\n      JUMPDEST \t\t\t\n      SWAP1 \t\t\t\n      PUSH 0\t\t\t\n      MSTORE \t\t\t\n      PUSH 20\t\t\t\n      PUSH 0\t\t\t\n      KECCAK256 \t\t\t\n      ADD \t\t\t\n      SLOAD \t\t\t\n      SWAP1 \t\t\t\n      POP \t\t\t\n      SWAP3 \t\t\t\n      SWAP2 \t\t\t\n      POP \t\t\t\n      POP \t\t\t\n      JUMP \t\t\t\n    tag 597\t\t\t\n      JUMPDEST \t\t\t\n      PUSH [tag] 721\t\t\t\n      PUSH [tag] 722\t\t\t\n      JUMP \t\t\t\n    tag 721\t\t\t\n      JUMPDEST \t\t\t\n      PUSH [tag] 723\t\t\t\n      JUMPI \t\t\t\n      PUSH 40\t\t\t\n      MLOAD \t\t\t\n      PUSH D7E6BCF800000000000000000000000000000000000000000000000000000000\t\t\t\n      DUP2 \t\t\t\n      MSTORE \t\t\t\n      PUSH 4\t\t\t\n      ADD \t\t\t\n      PUSH 40\t\t\t\n      MLOAD \t\t\t\n      DUP1 \t\t\t\n      SWAP2 \t\t\t\n      SUB \t\t\t\n      SWAP1 \t\t\t\n      REVERT \t\t\t\n    tag 723\t\t\t\n      JUMPDEST \t\t\t\n      JUMP \t\t\t\n    tag 600\t\t\t{\\n    uint256 private _nextTo...\n      JUMPDEST \t\t\t{\\n    uint256 private _nextTo...\n      PUSH [tag] 725\t\t\t\n      PUSH [tag] 597\t\t\t\n      JUMP \t\t\t\n    tag 725\t\t\t\n      JUMPDEST \t\t\t\n      PUSH 0\t\t\teURI) external onlyOwne\n      PUSH [tag] 727\t\t\t\\n        _baseToken\n      PUSH [tag] 245\t\t\t\\n        _baseTok\n      JUMP \t\t\t\\n        _baseToken\n    tag 727\t\t\t\\n        _baseToken\n      JUMPDEST \t\t\t\\n        _baseToken\n      SWAP1 \t\t\teURI) external onlyOwner {\\n  ...\n      POP \t\t\teURI) external onlyOwner {\\n  ...\n      DUP3 \t\t\t\\n   \\n\n      DUP2 \t\t\tU\n      PUSH 0\t\t\tURI;\\n  \n      ADD \t\t\tURI;\\n  \n      SWAP1 \t\t\tURI;\\n    }\\n   \\n\n      DUP2 \t\t\tURI;\\n    }\\n   \\n\n      PUSH [tag] 728\t\t\tURI;\\n    }\\n   \\n\n      SWAP2 \t\t\tURI;\\n    }\\n   \\n\n      SWAP1 \t\t\tURI;\\n    }\\n   \\n\n      PUSH [tag] 340\t\t\tURI;\\n    }\\n   \\n\n      JUMP \t\t\tURI;\\n    }\\n   \\n\n    tag 728\t\t\tURI;\\n    }\\n   \\n\n      JUMPDEST \t\t\tURI;\\n    }\\n   \\n\n      POP \t\t\tURI;\\n    }\\n   \\n\n      DUP2 \t\t\trades-u\n      DUP2 \t\t\tu\n      PUSH 1\t\t\tustom:oz-\n      ADD \t\t\tustom:oz-\n      SWAP1 \t\t\tustom:oz-upgrades-u\n      DUP2 \t\t\tustom:oz-upgrades-u\n      PUSH [tag] 729\t\t\tustom:oz-upgrades-u\n      SWAP2 \t\t\tustom:oz-upgrades-u\n      SWAP1 \t\t\tustom:oz-upgrades-u\n      PUSH [tag] 340\t\t\tustom:oz-upgrades-u\n      JUMP \t\t\tustom:oz-upgrades-u\n    tag 729\t\t\tustom:oz-upgrades-u\n      JUMPDEST \t\t\tustom:oz-upgrades-u\n      POP \t\t\tustom:oz-upgrades-u\n      POP \t\t\tmemory baseURI) external onlyO...\n      POP \t\t\t{\\n    uint256 private _nextTo...\n      POP \t\t\t{\\n    uint256 private _nextTo...\n      JUMP \t\t\t{\\n    uint256 private _nextTo...\n    tag 611\t\t\tl\";\\nimport \"@openzeppelin/con...\n      JUMPDEST \t\t\tl\";\\nimport \"@openzeppelin/con...\n      PUSH [tag] 731\t\t\t\n      PUSH [tag] 597\t\t\t\n      JUMP \t\t\t\n    tag 731\t\t\t\n      JUMPDEST \t\t\t\n      PUSH 0\t\t\tradeable.sol\";\\n\\n/// @cust\n      PUSH [tag] 733\t\t\tsecurity-contact bedl\n      PUSH [tag] 343\t\t\tsecurity-contact be\n      JUMP \t\t\tsecurity-contact bedl\n    tag 733\t\t\tsecurity-contact bedl\n      JUMPDEST \t\t\tsecurity-contact bedl\n      SWAP1 \t\t\tradeable.sol\";\\n\\n/// @custom:...\n      POP \t\t\tradeable.sol\";\\n\\n/// @custom:...\n      PUSH 0\t\t\tct SC\n      DUP2 \t\t\tf\n      PUSH 0\t\t\tf.com\\ncon\n      ADD \t\t\tf.com\\ncon\n      PUSH 0\t\t\tf.com\\ncon\n      PUSH 100\t\t\tf.com\\ncontract SC\n      EXP \t\t\tf.com\\ncontract SC\n      DUP2 \t\t\tf.com\\ncontract SC\n      SLOAD \t\t\tf.com\\ncontract SC\n      DUP2 \t\t\tf.com\\ncontract SC\n      PUSH FF\t\t\tf.com\\ncontract SC\n      MUL \t\t\tf.com\\ncontract SC\n      NOT \t\t\tf.com\\ncontract SC\n      AND \t\t\tf.com\\ncontract SC\n      SWAP1 \t\t\tf.com\\ncontract SC\n      DUP4 \t\t\tf.com\\ncontract SC\n      ISZERO \t\t\tf.com\\ncontract SC\n      ISZERO \t\t\tf.com\\ncontract SC\n      MUL \t\t\tf.com\\ncontract SC\n      OR \t\t\tf.com\\ncontract SC\n      SWAP1 \t\t\tf.com\\ncontract SC\n      SSTORE \t\t\tf.com\\ncontract SC\n      POP \t\t\tf.com\\ncontract SC\n      POP \t\t\tls/UUPSUpgradeable.sol\";\\n\\n//...\n      JUMP \t\t\tl\";\\nimport \"@openzeppelin/con...\n    tag 616\t\t\tdeable@5.0.0/proxy/utils/UUPSU...\n      JUMPDEST \t\t\tdeable@5.0.0/proxy/utils/UUPSU...\n      PUSH [tag] 735\t\t\t\n      PUSH [tag] 597\t\t\t\n      JUMP \t\t\t\n    tag 735\t\t\t\n      JUMPDEST \t\t\t\n      PUSH 0\t\t\t \n      PUSH FFFFFFFFFFFFFFFFFFFFFFFFFFFFFFFFFFFFFFFF\t\t\t\\ncontract SCUMWalkers is I\n      AND \t\t\t\\ncontract SCUMWalkers is I\n      DUP2 \t\t\t\\ncontract SC\n      PUSH FFFFFFFFFFFFFFFFFFFFFFFFFFFFFFFFFFFFFFFF\t\t\t\\ncontract SCUMWalkers is I\n      AND \t\t\t\\ncontract SCUMWalkers is I\n      SUB \t\t\t\\ncontract SCUMWalkers is I\n      PUSH [tag] 737\t\t\t.com\\ncontract SCUMWalkers is ...\n      JUMPI \t\t\t.com\\ncontract SCUMWalkers is ...\n      PUSH 0\t\t\tc\n      PUSH 40\t\t\tdeable, ERC721Upgradeable, Acc...\n      MLOAD \t\t\tdeable, ERC721Upgradeable, Acc...\n      PUSH 1E4FBDF700000000000000000000000000000000000000000000000000000000\t\t\tdeable, ERC721Upgradeable, Acc...\n      DUP2 \t\t\tdeable, ERC721Upgradeable, Acc...\n      MSTORE \t\t\tdeable, ERC721Upgradeable, Acc...\n      PUSH 4\t\t\tdeable, ERC721Upgradeable, Acc...\n      ADD \t\t\tdeable, ERC721Upgradeable, Acc...\n      PUSH [tag] 738\t\t\tdeable, ERC721Upgradeable, Acc...\n      SWAP2 \t\t\tdeable, ERC721Upgradeable, Acc...\n      SWAP1 \t\t\tdeable, ERC721Upgradeable, Acc...\n      PUSH [tag] 67\t\t\tdeable, ERC721Upgradeable, Acc...\n      JUMP \t\t\tdeable, ERC721Upgradeable, Acc...\n    tag 738\t\t\tdeable, ERC721Upgradeable, Acc...\n      JUMPDEST \t\t\tdeable, ERC721Upgradeable, Acc...\n      PUSH 40\t\t\tdeable, ERC721Upgradeable, Acc...\n      MLOAD \t\t\tdeable, ERC721Upgradeable, Acc...\n      DUP1 \t\t\tdeable, ERC721Upgradeable, Acc...\n      SWAP2 \t\t\tdeable, ERC721Upgradeable, Acc...\n      SUB \t\t\tdeable, ERC721Upgradeable, Acc...\n      SWAP1 \t\t\tdeable, ERC721Upgradeable, Acc...\n      REVERT \t\t\tdeable, ERC721Upgradeable, Acc...\n    tag 737\t\t\t.com\\ncontract SCUMWalkers is ...\n      JUMPDEST \t\t\t.com\\ncontract SCUMWalkers is ...\n      PUSH [tag] 739\t\t\tpgradeable, OwnableUpgradeable...\n      DUP2 \t\t\tUpgradeable,\n      PUSH [tag] 354\t\t\tpgradeable, Ownabl\n      JUMP \t\t\tpgradeable, OwnableUpgradeable...\n    tag 739\t\t\tpgradeable, OwnableUpgradeable...\n      JUMPDEST \t\t\tpgradeable, OwnableUpgradeable...\n      POP \t\t\tdeable@5.0.0/proxy/utils/UUPSU...\n      JUMP \t\t\tdeable@5.0.0/proxy/utils/UUPSU...\n    tag 624\t\t\tere\\n    return ERC721Upgradea...\n      JUMPDEST \t\t\tere\\n    return ERC721Upgradea...\n      PUSH [tag] 741\t\t\t\n      PUSH [tag] 597\t\t\t\n      JUMP \t\t\t\n    tag 741\t\t\t\n      JUMPDEST \t\t\t\n      PUSH 0\t\t\tSolidity.\\n\\n    function\n      PUSH [tag] 743\t\t\tpdate(address to, u\n      PUSH [tag] 362\t\t\tpdate(address to,\n      JUMP \t\t\tpdate(address to, u\n    tag 743\t\t\tpdate(address to, u\n      JUMPDEST \t\t\tpdate(address to, u\n      SWAP1 \t\t\tSolidity.\\n\\n    function _upd...\n      POP \t\t\tSolidity.\\n\\n    function _upd...\n      DUP3 \t\t\tess \n      DUP2 \t\t\te\n      PUSH 2\t\t\tenId, a\n      ADD \t\t\tenId, a\n      SWAP1 \t\t\tenId, address \n      DUP2 \t\t\tenId, address \n      PUSH [tag] 744\t\t\tenId, address \n      SWAP2 \t\t\tenId, address \n      SWAP1 \t\t\tenId, address \n      PUSH [tag] 340\t\t\tenId, address \n      JUMP \t\t\tenId, address \n    tag 744\t\t\tenId, address \n      JUMPDEST \t\t\tenId, address \n      POP \t\t\tenId, address \n      DUP2 \t\t\t       \n      DUP2 \t\t\t \n      PUSH 3\t\t\t    intern\n      ADD \t\t\t    intern\n      SWAP1 \t\t\t    internal\\n       \n      DUP2 \t\t\t    internal\\n       \n      PUSH [tag] 745\t\t\t    internal\\n       \n      SWAP2 \t\t\t    internal\\n       \n      SWAP1 \t\t\t    internal\\n       \n      PUSH [tag] 340\t\t\t    internal\\n       \n      JUMP \t\t\t    internal\\n       \n    tag 745\t\t\t    internal\\n       \n      JUMPDEST \t\t\t    internal\\n       \n      POP \t\t\t    internal\\n       \n      PUSH 0\t\t\tl\n      DUP1 \t\t\tle, ERC721Pausabl\n      SHL \t\t\tle, ERC721Pausabl\n      DUP2 \t\t\tl\n      PUSH 0\t\t\tle, ERC721Pau\n      ADD \t\t\tle, ERC721Pau\n      DUP2 \t\t\tle, ERC721Pausabl\n      SWAP1 \t\t\tle, ERC721Pausabl\n      SSTORE \t\t\tle, ERC721Pausabl\n      POP \t\t\tle, ERC721Pausabl\n      PUSH 0\t\t\tl\n      DUP1 \t\t\tle, ERC721Upgradeabl\n      SHL \t\t\tle, ERC721Upgradeabl\n      DUP2 \t\t\tl\n      PUSH 1\t\t\tle, ERC721Upgrad\n      ADD \t\t\tle, ERC721Upgrad\n      DUP2 \t\t\tle, ERC721Upgradeabl\n      SWAP1 \t\t\tle, ERC721Upgradeabl\n      SSTORE \t\t\tle, ERC721Upgradeabl\n      POP \t\t\tle, ERC721Upgradeabl\n      POP \t\t\tquired by Solidity.\\n\\n    fun...\n      POP \t\t\tere\\n    return ERC721Upgradea...\n      POP \t\t\tere\\n    return ERC721Upgradea...\n      JUMP \t\t\tere\\n    return ERC721Upgradea...\n    tag 627\t\t\timport \"@openzeppelin/contract...\n      JUMPDEST \t\t\timport \"@openzeppelin/contract...\n      PUSH 0\t\t\tspection/ERC165Upgradeable.sol...\n      PUSH 542A41881EE128A365A727B282C86FA859579490B9BB45AAB8503648C8E7900\t\t\t.0.0/utils/ContextUpgradeable....\n      SWAP1 \t\t\tradeable@5.0.0/utils/ContextUp...\n      POP \t\t\tradeable@5.0.0/utils/ContextUp...\n      SWAP1 \t\t\timport \"@openzeppelin/contract...\n      JUMP \t\t\timport \"@openzeppelin/contract...\n    tag 635\t\t\t(string memory)\\n    {\\n      ...\n      JUMPDEST \t\t\t(string memory)\\n    {\\n      ...\n      PUSH 60\t\t\t(tokenId);\\n  \n      PUSH 40\t\t\tction sup\n      MLOAD \t\t\tction sup\n      DUP1 \t\t\tction sup\n      PUSH 20\t\t\tction sup\n      ADD \t\t\tction sup\n      PUSH 40\t\t\tction sup\n      MSTORE \t\t\tction sup\n      DUP1 \t\t\tction sup\n      PUSH 0\t\t\tction sup\n      DUP2 \t\t\tction sup\n      MSTORE \t\t\tction sup\n      POP \t\t\tction sup\n      SWAP1 \t\t\tction sup\n      POP \t\t\tction sup\n      SWAP1 \t\t\t(string memory)\\n    {\\n      ...\n      JUMP \t\t\t(string memory)\\n    {\\n      ...\n    tag 641\t\t\tsuper._update(to, tokenId, aut...\n      JUMPDEST \t\t\tsuper._update(to, tokenId, aut...\n      PUSH 60\t\t\talance(addres\n      PUSH [tag] 749\t\t\tint128 value)\\n        \n      DUP3 \t\t\t       \n      PUSH [tag] 254\t\t\tint128 value)\n      JUMP \t\t\tint128 value)\\n        \n    tag 749\t\t\tint128 value)\\n        \n      JUMPDEST \t\t\tint128 value)\\n        \n      POP \t\t\tint128 value)\\n        \n      PUSH 0\t\t\t      override(ERC721\n      PUSH [tag] 750\t\t\tradeable, \n      PUSH [tag] 635\t\t\tradeable\n      JUMP \t\t\tradeable, \n    tag 750\t\t\tradeable, \n      JUMPDEST \t\t\tradeable, \n      SWAP1 \t\t\t      override(ERC721Upgradeab...\n      POP \t\t\t      override(ERC721Upgradeab...\n      PUSH 0\t\t\t \n      DUP2 \t\t\table)\\n \n      MLOAD \t\t\tpgradeable)\\n    {\\n   \n      GT \t\t\tpgradeable)\\n    {\\n       \n      PUSH [tag] 751\t\t\tpgradeable)\\n    {\\n        su...\n      JUMPI \t\t\tpgradeable)\\n    {\\n        su...\n      PUSH 40\t\t\tpgradeable)\\n    {\\n        su...\n      MLOAD \t\t\tpgradeable)\\n    {\\n        su...\n      DUP1 \t\t\tpgradeable)\\n    {\\n        su...\n      PUSH 20\t\t\tpgradeable)\\n    {\\n        su...\n      ADD \t\t\tpgradeable)\\n    {\\n        su...\n      PUSH 40\t\t\tpgradeable)\\n    {\\n        su...\n      MSTORE \t\t\tpgradeable)\\n    {\\n        su...\n      DUP1 \t\t\tpgradeable)\\n    {\\n        su...\n      PUSH 0\t\t\tpgradeable)\\n    {\\n        su...\n      DUP2 \t\t\tpgradeable)\\n    {\\n        su...\n      MSTORE \t\t\tpgradeable)\\n    {\\n        su...\n      POP \t\t\tpgradeable)\\n    {\\n        su...\n      PUSH [tag] 752\t\t\tpgradeable)\\n    {\\n        su...\n      JUMP \t\t\tpgradeable)\\n    {\\n        su...\n    tag 751\t\t\tpgradeable)\\n    {\\n        su...\n      JUMPDEST \t\t\tpgradeable)\\n    {\\n        su...\n      DUP1 \t\t\talance(\n      PUSH [tag] 753\t\t\tcount, value);\\n   \n      DUP5 \t\t\tcount, \n      PUSH [tag] 754\t\t\tcount, value);\\n \n      JUMP \t\t\tcount, value);\\n   \n    tag 753\t\t\tcount, value);\\n   \n      JUMPDEST \t\t\tcount, value);\\n   \n      PUSH 40\t\t\tper._increaseBalance(account, ...\n      MLOAD \t\t\tper._increaseBalance(account, ...\n      PUSH 20\t\t\tper._increaseBalance(account, ...\n      ADD \t\t\tper._increaseBalance(account, ...\n      PUSH [tag] 755\t\t\tper._increaseBalance(account, ...\n      SWAP3 \t\t\tper._increaseBalance(account, ...\n      SWAP2 \t\t\tper._increaseBalance(account, ...\n      SWAP1 \t\t\tper._increaseBalance(account, ...\n      PUSH [tag] 639\t\t\tper._increaseBalance(account, ...\n      JUMP \t\t\tper._increaseBalance(account, ...\n    tag 755\t\t\tper._increaseBalance(account, ...\n      JUMPDEST \t\t\tper._increaseBalance(account, ...\n      PUSH 40\t\t\tper._increaseBalance(account, ...\n      MLOAD \t\t\tper._increaseBalance(account, ...\n      PUSH 20\t\t\tper._increaseBalance(account, ...\n      DUP2 \t\t\tper._increaseBalance(account, ...\n      DUP4 \t\t\tper._increaseBalance(account, ...\n      SUB \t\t\tper._increaseBalance(account, ...\n      SUB \t\t\tper._increaseBalance(account, ...\n      DUP2 \t\t\tper._increaseBalance(account, ...\n      MSTORE \t\t\tper._increaseBalance(account, ...\n      SWAP1 \t\t\tper._increaseBalance(account, ...\n      PUSH 40\t\t\tper._increaseBalance(account, ...\n      MSTORE \t\t\tper._increaseBalance(account, ...\n    tag 752\t\t\tpgradeable)\\n    {\\n        su...\n      JUMPDEST \t\t\tpgradeable)\\n    {\\n        su...\n      SWAP2 \t\t\terableUpgradeable)\\n    {\\n   ...\n      POP \t\t\terableUpgradeable)\\n    {\\n   ...\n      POP \t\t\terableUpgradeable)\\n    {\\n   ...\n      SWAP2 \t\t\tsuper._update(to, tokenId, aut...\n      SWAP1 \t\t\tsuper._update(to, tokenId, aut...\n      POP \t\t\tsuper._update(to, tokenId, aut...\n      JUMP \t\t\tsuper._update(to, tokenId, aut...\n    tag 644\t\t\tng memory)\\n    {\\n        ret...\n      JUMPDEST \t\t\tng memory)\\n    {\\n        ret...\n      PUSH 0\t\t\t\\n    }\\n\n      DUP2 \t\t\trts\n      PUSH 0\t\t\trtsInterfac\n      ADD \t\t\trtsInterfac\n      DUP1 \t\t\trtsInterface(bytes\n      SLOAD \t\t\trtsInterface(bytes\n      SWAP1 \t\t\trtsInterface(bytes\n      POP \t\t\trtsInterface(bytes\n      SWAP1 \t\t\tn supportsInterface(bytes\n      POP \t\t\tn supportsInterface(bytes\n      SWAP2 \t\t\tng memory)\\n    {\\n        ret...\n      SWAP1 \t\t\tng memory)\\n    {\\n        ret...\n      POP \t\t\tng memory)\\n    {\\n        ret...\n      JUMP \t\t\tng memory)\\n    {\\n        ret...\n    tag 647\t\t\t\n      JUMPDEST \t\t\t\n      PUSH [tag] 758\t\t\t\n      DUP4 \t\t\t\n      DUP4 \t\t\t\n      PUSH [tag] 759\t\t\t\n      JUMP \t\t\t\n    tag 758\t\t\t\n      JUMPDEST \t\t\t\n      PUSH [tag] 760\t\t\t\n      PUSH 0\t\t\t\n      DUP5 \t\t\t\n      DUP5 \t\t\t\n      DUP5 \t\t\t\n      PUSH [tag] 405\t\t\t\n      JUMP \t\t\t\n    tag 760\t\t\t\n      JUMPDEST \t\t\t\n      POP \t\t\t\n      POP \t\t\t\n      POP \t\t\t\n      JUMP \t\t\t\n    tag 655\t\t\t);\\n        __EIP712_init(\"SCU...\n      JUMPDEST \t\t\t);\\n        __EIP712_init(\"SCU...\n      PUSH 0\t\t\t  }\\n\n      PUSH 2A55205A00000000000000000000000000000000000000000000000000000000\t\t\tyOwner {\\n        _unpause(\n      PUSH FFFFFFFFFFFFFFFFFFFFFFFFFFFFFFFFFFFFFFFFFFFFFFFFFFFFFFFF\t\t\tse() public onlyOwner {\\n     ...\n      NOT \t\t\tse() public onlyOwner {\\n     ...\n      AND \t\t\tse() public onlyOwner {\\n     ...\n      DUP3 \t\t\tse() public\n      PUSH FFFFFFFFFFFFFFFFFFFFFFFFFFFFFFFFFFFFFFFFFFFFFFFFFFFFFFFF\t\t\tse() public onlyOwner {\\n     ...\n      NOT \t\t\tse() public onlyOwner {\\n     ...\n      AND \t\t\tse() public onlyOwner {\\n     ...\n      EQ \t\t\tse() public onlyOwner {\\n     ...\n      DUP1 \t\t\tse() public onlyOwner {\\n     ...\n      PUSH [tag] 762\t\t\tse() public onlyOwner {\\n     ...\n      JUMPI \t\t\tse() public onlyOwner {\\n     ...\n      POP \t\t\tse() public onlyOwner {\\n     ...\n      PUSH [tag] 763\t\t\t   }\\n\\nfunction _authorizeUpg...\n      DUP3 \t\t\teUpgrade(ad\n      PUSH [tag] 764\t\t\t   }\\n\\nfunction _authori\n      JUMP \t\t\t   }\\n\\nfunction _authorizeUpg...\n    tag 763\t\t\t   }\\n\\nfunction _authorizeUpg...\n      JUMPDEST \t\t\t   }\\n\\nfunction _authorizeUpg...\n    tag 762\t\t\tse() public onlyOwner {\\n     ...\n      JUMPDEST \t\t\tse() public onlyOwner {\\n     ...\n      SWAP1 \t\t\tn unpause() public onlyOwner {...\n      POP \t\t\tn unpause() public onlyOwner {...\n      SWAP2 \t\t\t);\\n        __EIP712_init(\"SCU...\n      SWAP1 \t\t\t);\\n        __EIP712_init(\"SCU...\n      POP \t\t\t);\\n        __EIP712_init(\"SCU...\n      JUMP \t\t\t);\\n        __EIP712_init(\"SCU...\n    tag 658\t\t\t\n      JUMPDEST \t\t\t\n      PUSH 0\t\t\t\n      DUP1 \t\t\t\n      PUSH [tag] 766\t\t\t\n      PUSH [tag] 245\t\t\t\n      JUMP \t\t\t\n    tag 766\t\t\t\n      JUMPDEST \t\t\t\n      SWAP1 \t\t\t\n      POP \t\t\t\n      DUP1 \t\t\t\n      PUSH 2\t\t\t\n      ADD \t\t\t\n      PUSH 0\t\t\t\n      DUP5 \t\t\t\n      DUP2 \t\t\t\n      MSTORE \t\t\t\n      PUSH 20\t\t\t\n      ADD \t\t\t\n      SWAP1 \t\t\t\n      DUP2 \t\t\t\n      MSTORE \t\t\t\n      PUSH 20\t\t\t\n      ADD \t\t\t\n      PUSH 0\t\t\t\n      KECCAK256 \t\t\t\n      PUSH 0\t\t\t\n      SWAP1 \t\t\t\n      SLOAD \t\t\t\n      SWAP1 \t\t\t\n      PUSH 100\t\t\t\n      EXP \t\t\t\n      SWAP1 \t\t\t\n      DIV \t\t\t\n      PUSH FFFFFFFFFFFFFFFFFFFFFFFFFFFFFFFFFFFFFFFF\t\t\t\n      AND \t\t\t\n      SWAP2 \t\t\t\n      POP \t\t\t\n      POP \t\t\t\n      SWAP2 \t\t\t\n      SWAP1 \t\t\t\n      POP \t\t\t\n      JUMP \t\t\t\n    tag 674\t\t\t// The following functions are...\n      JUMPDEST \t\t\t// The following functions are...\n      PUSH 0\t\t\t, uint2\n      DUP1 \t\t\taddress auth)\\n       \n      PUSH [tag] 768\t\t\tternal\\n        override(ERC72...\n      DUP6 \t\t\t o\n      DUP6 \t\t\trride(E\n      DUP6 \t\t\t721C\n      PUSH [tag] 769\t\t\tternal\\n      \n      JUMP \t\t\tternal\\n        override(ERC72...\n    tag 768\t\t\tternal\\n        override(ERC72...\n      JUMPDEST \t\t\tternal\\n        override(ERC72...\n      SWAP1 \t\t\taddress auth)\\n        interna...\n      POP \t\t\taddress auth)\\n        interna...\n      PUSH 0\t\t\tg\n      PUSH FFFFFFFFFFFFFFFFFFFFFFFFFFFFFFFFFFFFFFFF\t\t\teable, ERC721EnumerableUpgr\n      AND \t\t\teable, ERC721EnumerableUpgr\n      DUP2 \t\t\teable, ERC721\n      PUSH FFFFFFFFFFFFFFFFFFFFFFFFFFFFFFFFFFFFFFFF\t\t\teable, ERC721EnumerableUpgr\n      AND \t\t\teable, ERC721EnumerableUpgr\n      SUB \t\t\teable, ERC721EnumerableUpgr\n      PUSH [tag] 770\t\t\tgradeable, ERC721EnumerableUpg...\n      JUMPI \t\t\tgradeable, ERC721EnumerableUpg...\n      PUSH [tag] 771\t\t\tausableUpgradeable, ERC721Upgr...\n      DUP5 \t\t\teable)\\n\n      PUSH [tag] 772\t\t\tausableUpgradeable, ERC721Upgr...\n      JUMP \t\t\tausableUpgradeable, ERC721Upgr...\n    tag 771\t\t\tausableUpgradeable, ERC721Upgr...\n      JUMPDEST \t\t\tausableUpgradeable, ERC721Upgr...\n      PUSH [tag] 773\t\t\tgradeable, ERC721EnumerableUpg...\n      JUMP \t\t\tgradeable, ERC721EnumerableUpg...\n    tag 770\t\t\tgradeable, ERC721EnumerableUpg...\n      JUMPDEST \t\t\tgradeable, ERC721EnumerableUpg...\n      DUP5 \t\t\t r\n      PUSH FFFFFFFFFFFFFFFFFFFFFFFFFFFFFFFFFFFFFFFF\t\t\tss)\\n    {\\n        r\n      AND \t\t\tss)\\n    {\\n        r\n      DUP2 \t\t\tss)\\n    {\\n   \n      PUSH FFFFFFFFFFFFFFFFFFFFFFFFFFFFFFFFFFFFFFFF\t\t\tss)\\n    {\\n        r\n      AND \t\t\tss)\\n    {\\n        r\n      EQ \t\t\tss)\\n    {\\n        r\n      PUSH [tag] 774\t\t\tddress)\\n    {\\n        return...\n      JUMPI \t\t\tddress)\\n    {\\n        return...\n      PUSH [tag] 775\t\t\tate(to, tokenId, auth);\\n    }...\n      DUP2 \t\t\t  function _i\n      DUP6 \t\t\treaseBa\n      PUSH [tag] 776\t\t\tate(to, tokenId, auth);\\n    }...\n      JUMP \t\t\tate(to, tokenId, auth);\\n    }...\n    tag 775\t\t\tate(to, tokenId, auth);\\n    }...\n      JUMPDEST \t\t\tate(to, tokenId, auth);\\n    }...\n    tag 774\t\t\tddress)\\n    {\\n        return...\n      JUMPDEST \t\t\tddress)\\n    {\\n        return...\n    tag 773\t\t\tgradeable, ERC721EnumerableUpg...\n      JUMPDEST \t\t\tgradeable, ERC721EnumerableUpg...\n      PUSH 0\t\t\t \n      PUSH FFFFFFFFFFFFFFFFFFFFFFFFFFFFFFFFFFFFFFFF\t\t\tnt128 value)\\n   \n      AND \t\t\tnt128 value)\\n   \n      DUP6 \t\t\tnt\n      PUSH FFFFFFFFFFFFFFFFFFFFFFFFFFFFFFFFFFFFFFFF\t\t\tnt128 value)\\n   \n      AND \t\t\tnt128 value)\\n   \n      SUB \t\t\tnt128 value)\\n   \n      PUSH [tag] 777\t\t\t, uint128 value)\\n        inte...\n      JUMPI \t\t\t, uint128 value)\\n        inte...\n      PUSH [tag] 778\t\t\t      override(ERC721Upgradeab...\n      DUP5 \t\t\t721Enum\n      PUSH [tag] 779\t\t\t      override(ERC721Upgradeab...\n      JUMP \t\t\t      override(ERC721Upgradeab...\n    tag 778\t\t\t      override(ERC721Upgradeab...\n      JUMPDEST \t\t\t      override(ERC721Upgradeab...\n      PUSH [tag] 780\t\t\t, uint128 value)\\n        inte...\n      JUMP \t\t\t, uint128 value)\\n        inte...\n    tag 777\t\t\t, uint128 value)\\n        inte...\n      JUMPDEST \t\t\t, uint128 value)\\n        inte...\n      DUP5 \t\t\t_i\n      PUSH FFFFFFFFFFFFFFFFFFFFFFFFFFFFFFFFFFFFFFFF\t\t\t {\\n        super._i\n      AND \t\t\t {\\n        super._i\n      DUP2 \t\t\t {\\n        su\n      PUSH FFFFFFFFFFFFFFFFFFFFFFFFFFFFFFFFFFFFFFFF\t\t\t {\\n        super._i\n      AND \t\t\t {\\n        super._i\n      EQ \t\t\t {\\n        super._i\n      PUSH [tag] 781\t\t\t\\n    {\\n        super._increa...\n      JUMPI \t\t\t\\n    {\\n        super._increa...\n      PUSH [tag] 782\t\t\tccount, value);\\n    }\\n\\n    ...\n      DUP6 \t\t\tun\n      DUP6 \t\t\tion _Ba\n      PUSH [tag] 783\t\t\tccount, value);\\n    }\\n\\n    \n      JUMP \t\t\tccount, value);\\n    }\\n\\n    ...\n    tag 782\t\t\tccount, value);\\n    }\\n\\n    ...\n      JUMPDEST \t\t\tccount, value);\\n    }\\n\\n    ...\n    tag 781\t\t\t\\n    {\\n        super._increa...\n      JUMPDEST \t\t\t\\n    {\\n        super._increa...\n    tag 780\t\t\t, uint128 value)\\n        inte...\n      JUMPDEST \t\t\t, uint128 value)\\n        inte...\n      DUP1 \t\t\tstring memory\n      SWAP2 \t\t\tturns (string memory\n      POP \t\t\tturns (string memory\n      POP \t\t\tturns (string memory\n      SWAP4 \t\t\t// The following functions are...\n      SWAP3 \t\t\t// The following functions are...\n      POP \t\t\t// The following functions are...\n      POP \t\t\t// The following functions are...\n      POP \t\t\t// The following functions are...\n      JUMP \t\t\t// The following functions are...\n    tag 688\t\t\teUpgradeable, ERC721Consecutiv...\n      JUMPDEST \t\t\teUpgradeable, ERC721Consecutiv...\n      PUSH 0\t\t\trade\n      PUSH [tag] 785\t\t\tbleUpgradeable, ERC72\n      DUP4 \t\t\tabl\n      DUP4 \t\t\t ERC7\n      PUSH [tag] 786\t\t\tbleUpgrad\n      JUMP \t\t\tbleUpgradeable, ERC72\n    tag 785\t\t\tbleUpgradeable, ERC72\n      JUMPDEST \t\t\tbleUpgradeable, ERC72\n      PUSH [tag] 787\t\t\tPausableUpgradeable, ERC721URI...\n      JUMPI \t\t\tPausableUpgradeable, ERC721URI...\n      DUP3 \t\t\tdea\n      PUSH 0\t\t\tdeable, EIP\n      ADD \t\t\tdeable, EIP\n      DUP3 \t\t\tradea\n      SWAP1 \t\t\tdeable, EIP712Upgradeab\n      DUP1 \t\t\tdeable, EIP712Upgradeab\n      PUSH 1\t\t\tdeable, EIP712Upgradeab\n      DUP2 \t\t\tdeable, EIP712Upgradeab\n      SLOAD \t\t\tdeable, EIP712Upgradeab\n      ADD \t\t\tdeable, EIP712Upgradeab\n      DUP1 \t\t\tdeable, EIP712Upgradeab\n      DUP3 \t\t\tdeable, EIP712Upgradeab\n      SSTORE \t\t\tdeable, EIP712Upgradeab\n      DUP1 \t\t\tdeable, EIP712Upgradeab\n      SWAP2 \t\t\tdeable, EIP712Upgradeab\n      POP \t\t\tdeable, EIP712Upgradeab\n      POP \t\t\tdeable, EIP712Upgradeab\n      PUSH 1\t\t\tdeable, EIP712Upgradeab\n      SWAP1 \t\t\tdeable, EIP712Upgradeab\n      SUB \t\t\tdeable, EIP712Upgradeab\n      SWAP1 \t\t\tdeable, EIP712Upgradeab\n      PUSH 0\t\t\tdeable, EIP712Upgradeab\n      MSTORE \t\t\tdeable, EIP712Upgradeab\n      PUSH 20\t\t\tdeable, EIP712Upgradeab\n      PUSH 0\t\t\tdeable, EIP712Upgradeab\n      KECCAK256 \t\t\tdeable, EIP712Upgradeab\n      ADD \t\t\tdeable, EIP712Upgradeab\n      PUSH 0\t\t\tdeable, EIP712Upgradeab\n      SWAP1 \t\t\tdeable, EIP712Upgradeab\n      SWAP2 \t\t\tdeable, EIP712Upgradeab\n      SWAP1 \t\t\tdeable, EIP712Upgradeab\n      SWAP2 \t\t\tdeable, EIP712Upgradeab\n      SWAP1 \t\t\tdeable, EIP712Upgradeab\n      SWAP2 \t\t\tdeable, EIP712Upgradeab\n      POP \t\t\tdeable, EIP712Upgradeab\n      SSTORE \t\t\tdeable, EIP712Upgradeab\n      DUP3 \t\t\tenU\n      PUSH 0\t\t\tenURI = bas\n      ADD \t\t\tenURI = bas\n      DUP1 \t\t\tenURI = baseURI;\\n \n      SLOAD \t\t\tenURI = baseURI;\\n \n      SWAP1 \t\t\tenURI = baseURI;\\n \n      POP \t\t\tenURI = baseURI;\\n \n      DUP4 \t\t\tOwn\n      PUSH 1\t\t\tOwner {\\n      \n      ADD \t\t\tOwner {\\n      \n      PUSH 0\t\t\tOwner {\\n        _base\n      DUP5 \t\t\t _bas\n      DUP2 \t\t\tOwner {\\n        _base\n      MSTORE \t\t\tOwner {\\n        _base\n      PUSH 20\t\t\tOwner {\\n        _base\n      ADD \t\t\tOwner {\\n        _base\n      SWAP1 \t\t\tOwner {\\n        _base\n      DUP2 \t\t\tOwner {\\n        _base\n      MSTORE \t\t\tOwner {\\n        _base\n      PUSH 20\t\t\tOwner {\\n        _base\n      ADD \t\t\tOwner {\\n        _base\n      PUSH 0\t\t\tOwner {\\n        _base\n      KECCAK256 \t\t\tOwner {\\n        _base\n      DUP2 \t\t\tOwner {\\n        _baseTokenURI...\n      SWAP1 \t\t\tOwner {\\n        _baseTokenURI...\n      SSTORE \t\t\tOwner {\\n        _baseTokenURI...\n      POP \t\t\tOwner {\\n        _baseTokenURI...\n      PUSH 1\t\t\ttom:\n      SWAP1 \t\t\t// @custom:\n      POP \t\t\t// @custom:\n      PUSH [tag] 784\t\t\t// @custom:\n      JUMP \t\t\t// @custom:\n    tag 787\t\t\tPausableUpgradeable, ERC721URI...\n      JUMPDEST \t\t\tPausableUpgradeable, ERC721URI...\n      PUSH 0\t\t\t   co\n      SWAP1 \t\t\tuctor\\n    co\n      POP \t\t\tuctor\\n    co\n    tag 784\t\t\teUpgradeable, ERC721Consecutiv...\n      JUMPDEST \t\t\teUpgradeable, ERC721Consecutiv...\n      SWAP3 \t\t\teUpgradeable, ERC721Consecutiv...\n      SWAP2 \t\t\teUpgradeable, ERC721Consecutiv...\n      POP \t\t\teUpgradeable, ERC721Consecutiv...\n      POP \t\t\teUpgradeable, ERC721Consecutiv...\n      JUMP \t\t\teUpgradeable, ERC721Consecutiv...\n    tag 697\t\t\trable_init();\\n        __ERC72...\n      JUMPDEST \t\t\trable_init();\\n        __ERC72...\n      PUSH 0\t\t\tausa\n      DUP1 \t\t\t\"SCUMWalkers\", \"\n      DUP4 \t\t\t;\\n \n      PUSH 1\t\t\t;\\n    }\\n\\n    f\n      ADD \t\t\t;\\n    }\\n\\n    f\n      PUSH 0\t\t\t;\\n    }\\n\\n    function\n      DUP5 \t\t\tnctio\n      DUP2 \t\t\t;\\n    }\\n\\n    function\n      MSTORE \t\t\t;\\n    }\\n\\n    function\n      PUSH 20\t\t\t;\\n    }\\n\\n    function\n      ADD \t\t\t;\\n    }\\n\\n    function\n      SWAP1 \t\t\t;\\n    }\\n\\n    function\n      DUP2 \t\t\t;\\n    }\\n\\n    function\n      MSTORE \t\t\t;\\n    }\\n\\n    function\n      PUSH 20\t\t\t;\\n    }\\n\\n    function\n      ADD \t\t\t;\\n    }\\n\\n    function\n      PUSH 0\t\t\t;\\n    }\\n\\n    function\n      KECCAK256 \t\t\t;\\n    }\\n\\n    function\n      SLOAD \t\t\t;\\n    }\\n\\n    function\n      SWAP1 \t\t\t\"SCUMWalkers\", \"1\");\\n    }\\n\\...\n      POP \t\t\t\"SCUMWalkers\", \"1\");\\n    }\\n\\...\n      PUSH 0\t\t\t\\n\n      DUP2 \t\t\t onlyOwn\n      EQ \t\t\t onlyOwner {\\n\n      PUSH [tag] 791\t\t\tblic onlyOwner {\\n        _pau...\n      JUMPI \t\t\tblic onlyOwner {\\n        _pau...\n      PUSH 0\t\t\tId, uri);\\n    }\\n\\n \n      PUSH 1\t\t\tw\n      DUP3 \t\t\tfunction\n      PUSH [tag] 792\t\t\tfunction _ow\n      SWAP2 \t\t\tfunction _ow\n      SWAP1 \t\t\tfunction _ow\n      PUSH [tag] 793\t\t\tfunction _ow\n      JUMP \t\t\tfunction _ow\n    tag 792\t\t\tfunction _ow\n      JUMPDEST \t\t\tfunction _ow\n      SWAP1 \t\t\tId, uri);\\n    }\\n\\n    functi...\n      POP \t\t\tId, uri);\\n    }\\n\\n    functi...\n      PUSH 0\t\t\ttokenId) internal\n      PUSH 1\t\t\tr\n      DUP7 \t\t\tew \n      PUSH 0\t\t\tew override\n      ADD \t\t\tew override\n      DUP1 \t\t\tew override(ERC721\n      SLOAD \t\t\tew override(ERC721\n      SWAP1 \t\t\tew override(ERC721\n      POP \t\t\tew override(ERC721\n      PUSH [tag] 794\t\t\tew override(ERC721Upgr\n      SWAP2 \t\t\tew override(ERC721Upgr\n      SWAP1 \t\t\tew override(ERC721Upgr\n      PUSH [tag] 793\t\t\tew override(ERC721Upgr\n      JUMP \t\t\tew override(ERC721Upgr\n    tag 794\t\t\tew override(ERC721Upgr\n      JUMPDEST \t\t\tew override(ERC721Upgr\n      SWAP1 \t\t\ttokenId) internal view overrid...\n      POP \t\t\ttokenId) internal view overrid...\n      DUP1 \t\t\table) ret\n      DUP3 \t\t\tecutiveUpg\n      EQ \t\t\tecutiveUpgradeable) ret\n      PUSH [tag] 795\t\t\tConsecutiveUpgradeable) return...\n      JUMPI \t\t\tConsecutiveUpgradeable) return...\n      PUSH 0\t\t\t // Add your impl\n      DUP7 \t\t\tnta\n      PUSH 0\t\t\tntation log\n      ADD \t\t\tntation log\n      DUP3 \t\t\tc here\\n  \n      DUP2 \t\t\tntation logic here\\n   \n      SLOAD \t\t\tntation logic here\\n   \n      DUP2 \t\t\tntation logic here\\n   \n      LT \t\t\tntation logic here\\n   \n      PUSH [tag] 796\t\t\tntation logic here\\n   \n      JUMPI \t\t\tntation logic here\\n   \n      PUSH [tag] 797\t\t\tntation logic here\\n   \n      PUSH [tag] 330\t\t\tntation logic here\\n   \n      JUMP \t\t\tntation logic here\\n   \n    tag 797\t\t\tntation logic here\\n   \n      JUMPDEST \t\t\tntation logic here\\n   \n    tag 796\t\t\tntation logic here\\n   \n      JUMPDEST \t\t\tntation logic here\\n   \n      SWAP1 \t\t\tntation logic here\\n   \n      PUSH 0\t\t\tntation logic here\\n   \n      MSTORE \t\t\tntation logic here\\n   \n      PUSH 20\t\t\tntation logic here\\n   \n      PUSH 0\t\t\tntation logic here\\n   \n      KECCAK256 \t\t\tntation logic here\\n   \n      ADD \t\t\tntation logic here\\n   \n      SLOAD \t\t\tntation logic here\\n   \n      SWAP1 \t\t\t // Add your implementation lo...\n      POP \t\t\t // Add your implementation lo...\n      DUP1 \t\t\tion _upda\n      DUP8 \t\t\ted \n      PUSH 0\t\t\ted by Solid\n      ADD \t\t\ted by Solid\n      DUP5 \t\t\tty.\\n\\n    f\n      DUP2 \t\t\ted by Solidity.\\n\\n    fu\n      SLOAD \t\t\ted by Solidity.\\n\\n    fu\n      DUP2 \t\t\ted by Solidity.\\n\\n    fu\n      LT \t\t\ted by Solidity.\\n\\n    fu\n      PUSH [tag] 799\t\t\ted by Solidity.\\n\\n    fu\n      JUMPI \t\t\ted by Solidity.\\n\\n    fu\n      PUSH [tag] 800\t\t\ted by Solidity.\\n\\n    fu\n      PUSH [tag] 330\t\t\ted by Solidity.\\n\\n    fu\n      JUMP \t\t\ted by Solidity.\\n\\n    fu\n    tag 800\t\t\ted by Solidity.\\n\\n    fu\n      JUMPDEST \t\t\ted by Solidity.\\n\\n    fu\n    tag 799\t\t\ted by Solidity.\\n\\n    fu\n      JUMPDEST \t\t\ted by Solidity.\\n\\n    fu\n      SWAP1 \t\t\ted by Solidity.\\n\\n    fu\n      PUSH 0\t\t\ted by Solidity.\\n\\n    fu\n      MSTORE \t\t\ted by Solidity.\\n\\n    fu\n      PUSH 20\t\t\ted by Solidity.\\n\\n    fu\n      PUSH 0\t\t\ted by Solidity.\\n\\n    fu\n      KECCAK256 \t\t\ted by Solidity.\\n\\n    fu\n      ADD \t\t\ted by Solidity.\\n\\n    fu\n      DUP2 \t\t\ted by Solidity.\\n\\n    functio...\n      SWAP1 \t\t\ted by Solidity.\\n\\n    functio...\n      SSTORE \t\t\ted by Solidity.\\n\\n    functio...\n      POP \t\t\ted by Solidity.\\n\\n    functio...\n      DUP4 \t\t\teable, E\n      DUP8 \t\t\tabl\n      PUSH 1\t\t\table, ERC721En\n      ADD \t\t\table, ERC721En\n      PUSH 0\t\t\table, ERC721EnumerableUpg\n      DUP4 \t\t\tmerableUp\n      DUP2 \t\t\table, ERC721EnumerableUpg\n      MSTORE \t\t\table, ERC721EnumerableUpg\n      PUSH 20\t\t\table, ERC721EnumerableUpg\n      ADD \t\t\table, ERC721EnumerableUpg\n      SWAP1 \t\t\table, ERC721EnumerableUpg\n      DUP2 \t\t\table, ERC721EnumerableUpg\n      MSTORE \t\t\table, ERC721EnumerableUpg\n      PUSH 20\t\t\table, ERC721EnumerableUpg\n      ADD \t\t\table, ERC721EnumerableUpg\n      PUSH 0\t\t\table, ERC721EnumerableUpg\n      KECCAK256 \t\t\table, ERC721EnumerableUpg\n      DUP2 \t\t\table, ERC721EnumerableUpgradea...\n      SWAP1 \t\t\table, ERC721EnumerableUpgradea...\n      SSTORE \t\t\table, ERC721EnumerableUpgradea...\n      POP \t\t\table, ERC721EnumerableUpgradea...\n      POP \t\t\tns (address) {\\n    // Add you...\n    tag 795\t\t\tConsecutiveUpgradeable) return...\n      JUMPDEST \t\t\tConsecutiveUpgradeable) return...\n      DUP6 \t\t\tupe\n      PUSH 0\t\t\tuper._updat\n      ADD \t\t\tuper._updat\n      DUP1 \t\t\tuper._update(to, \n      SLOAD \t\t\tuper._update(to, \n      DUP1 \t\t\tuper._update(to, \n      PUSH [tag] 802\t\t\tuper._update(to, \n      JUMPI \t\t\tuper._update(to, \n      PUSH [tag] 803\t\t\tuper._update(to, \n      PUSH [tag] 804\t\t\tuper._update(to, \n      JUMP \t\t\tuper._update(to, \n    tag 803\t\t\tuper._update(to, \n      JUMPDEST \t\t\tuper._update(to, \n    tag 802\t\t\tuper._update(to, \n      JUMPDEST \t\t\tuper._update(to, \n      PUSH 1\t\t\tuper._update(to, \n      SWAP1 \t\t\tuper._update(to, \n      SUB \t\t\tuper._update(to, \n      DUP2 \t\t\tuper._update(to, \n      DUP2 \t\t\tuper._update(to, \n      SWAP1 \t\t\tuper._update(to, \n      PUSH 0\t\t\tuper._update(to, \n      MSTORE \t\t\tuper._update(to, \n      PUSH 20\t\t\tuper._update(to, \n      PUSH 0\t\t\tuper._update(to, \n      KECCAK256 \t\t\tuper._update(to, \n      ADD \t\t\tuper._update(to, \n      PUSH 0\t\t\tuper._update(to, \n      SWAP1 \t\t\tuper._update(to, \n      SSTORE \t\t\tuper._update(to, \n      SWAP1 \t\t\tuper._update(to, \n      SSTORE \t\t\tuper._update(to, \n      DUP6 \t\t\t   \n      PUSH 1\t\t\t       interna\n      ADD \t\t\t       interna\n      PUSH 0\t\t\t       internal\\n     \n      DUP7 \t\t\t\\n    \n      DUP2 \t\t\t       internal\\n     \n      MSTORE \t\t\t       internal\\n     \n      PUSH 20\t\t\t       internal\\n     \n      ADD \t\t\t       internal\\n     \n      SWAP1 \t\t\t       internal\\n     \n      DUP2 \t\t\t       internal\\n     \n      MSTORE \t\t\t       internal\\n     \n      PUSH 20\t\t\t       internal\\n     \n      ADD \t\t\t       internal\\n     \n      PUSH 0\t\t\t       internal\\n     \n      KECCAK256 \t\t\t       internal\\n     \n      PUSH 0\t\t\talue)\\n        internal\\n     \n      SWAP1 \t\t\talue)\\n        internal\\n     \n      SSTORE \t\t\talue)\\n        internal\\n     \n      PUSH 1\t\t\tadea\n      SWAP4 \t\t\t721Upgradea\n      POP \t\t\t721Upgradea\n      POP \t\t\t721Upgradea\n      POP \t\t\t721Upgradea\n      POP \t\t\t721Upgradea\n      PUSH [tag] 790\t\t\t721Upgradea\n      JUMP \t\t\t721Upgradea\n    tag 791\t\t\tblic onlyOwner {\\n        _pau...\n      JUMPDEST \t\t\tblic onlyOwner {\\n        _pau...\n      PUSH 0\t\t\t{\\n   \n      SWAP2 \t\t\te)\\n    {\\n   \n      POP \t\t\te)\\n    {\\n   \n      POP \t\t\te)\\n    {\\n   \n    tag 790\t\t\trable_init();\\n        __ERC72...\n      JUMPDEST \t\t\trable_init();\\n        __ERC72...\n      SWAP3 \t\t\trable_init();\\n        __ERC72...\n      SWAP2 \t\t\trable_init();\\n        __ERC72...\n      POP \t\t\trable_init();\\n        __ERC72...\n      POP \t\t\trable_init();\\n        __ERC72...\n      JUMP \t\t\trable_init();\\n        __ERC72...\n    tag 703\t\t\te.sol\";\\nimport \"@openzeppelin...\n      JUMPDEST \t\t\te.sol\";\\nimport \"@openzeppelin...\n      PUSH 0\t\t\tls/NoncesUpgradeable.\n      DUP2 \t\t\timpo\n      SWAP1 \t\t\tble.sol\";\\nimpo\n      POP \t\t\tble.sol\";\\nimpo\n      SWAP2 \t\t\te.sol\";\\nimport \"@openzeppelin...\n      SWAP1 \t\t\te.sol\";\\nimport \"@openzeppelin...\n      POP \t\t\te.sol\";\\nimport \"@openzeppelin...\n      JUMP \t\t\te.sol\";\\nimport \"@openzeppelin...\n    tag 706\t\t\t, OwnableUpgradeable, ERC2981U...\n      JUMPDEST \t\t\t, OwnableUpgradeable, ERC2981U...\n      PUSH 0\t\t\tr\n      DUP2 \t\t\tnsecutiveUpgradea\n      PUSH FFFFFFFFFFFFFFFFFFFFFFFFFFFFFFFFFFFFFFFF\t\t\tnsecutiveUpgradeable, ERC721E\n      AND \t\t\tnsecutiveUpgradeable, ERC721E\n      EXTCODESIZE \t\t\tnsecutiveUpgradeable, ERC721E\n      SUB \t\t\tnsecutiveUpgradeable, ERC721En...\n      PUSH [tag] 809\t\t\t21ConsecutiveUpgradeable, ERC7...\n      JUMPI \t\t\t21ConsecutiveUpgradeable, ERC7...\n      DUP1 \t\t\tIStorageUpgradeab\n      PUSH 40\t\t\tPausableUpgradeable, ERC721URI...\n      MLOAD \t\t\tPausableUpgradeable, ERC721URI...\n      PUSH 4C9C8CE300000000000000000000000000000000000000000000000000000000\t\t\tPausableUpgradeable, ERC721URI...\n      DUP2 \t\t\tPausableUpgradeable, ERC721URI...\n      MSTORE \t\t\tPausableUpgradeable, ERC721URI...\n      PUSH 4\t\t\tPausableUpgradeable, ERC721URI...\n      ADD \t\t\tPausableUpgradeable, ERC721URI...\n      PUSH [tag] 810\t\t\tPausableUpgradeable, ERC721URI...\n      SWAP2 \t\t\tPausableUpgradeable, ERC721URI...\n      SWAP1 \t\t\tPausableUpgradeable, ERC721URI...\n      PUSH [tag] 67\t\t\tPausableUpgradeable, ERC721URI...\n      JUMP \t\t\tPausableUpgradeable, ERC721URI...\n    tag 810\t\t\tPausableUpgradeable, ERC721URI...\n      JUMPDEST \t\t\tPausableUpgradeable, ERC721URI...\n      PUSH 40\t\t\tPausableUpgradeable, ERC721URI...\n      MLOAD \t\t\tPausableUpgradeable, ERC721URI...\n      DUP1 \t\t\tPausableUpgradeable, ERC721URI...\n      SWAP2 \t\t\tPausableUpgradeable, ERC721URI...\n      SUB \t\t\tPausableUpgradeable, ERC721URI...\n      SWAP1 \t\t\tPausableUpgradeable, ERC721URI...\n      REVERT \t\t\tPausableUpgradeable, ERC721URI...\n    tag 809\t\t\t21ConsecutiveUpgradeable, ERC7...\n      JUMPDEST \t\t\t21ConsecutiveUpgradeable, ERC7...\n      DUP1 \t\t\t _baseTokenURI;\\n\\n\n      PUSH [tag] 811\t\t\t {\\n    uint256 private _nextT...\n      PUSH 360894A13BA1A3210667C828492DB98DCA3E2076CC3735A920A3CA505D382BBC\t\t\tadeable.sol\";\\nimport \"@openze...\n      PUSH 0\t\t\ttTokenId;\\n\\n    stri\n      SHL \t\t\ttTokenId;\\n\\n    stri\n      PUSH [tag] 703\t\t\t {\\n    uint256 private _ne\n      JUMP \t\t\t {\\n    uint256 private _nextT...\n    tag 811\t\t\t {\\n    uint256 private _nextT...\n      JUMPDEST \t\t\t {\\n    uint256 private _nextT...\n      PUSH 0\t\t\t {\\n    uint256 private _nextT...\n      ADD \t\t\t {\\n    uint256 private _nextT...\n      PUSH 0\t\t\t {\\n    uint256 private _nextT...\n      PUSH 100\t\t\t {\\n    uint256 private _nextT...\n      EXP \t\t\t {\\n    uint256 private _nextT...\n      DUP2 \t\t\t {\\n    uint256 private _nextT...\n      SLOAD \t\t\t {\\n    uint256 private _nextT...\n      DUP2 \t\t\t {\\n    uint256 private _nextT...\n      PUSH FFFFFFFFFFFFFFFFFFFFFFFFFFFFFFFFFFFFFFFF\t\t\t {\\n    uint256 private _nextT...\n      MUL \t\t\t {\\n    uint256 private _nextT...\n      NOT \t\t\t {\\n    uint256 private _nextT...\n      AND \t\t\t {\\n    uint256 private _nextT...\n      SWAP1 \t\t\t {\\n    uint256 private _nextT...\n      DUP4 \t\t\t {\\n    uint256 private _nextT...\n      PUSH FFFFFFFFFFFFFFFFFFFFFFFFFFFFFFFFFFFFFFFF\t\t\t {\\n    uint256 private _nextT...\n      AND \t\t\t {\\n    uint256 private _nextT...\n      MUL \t\t\t {\\n    uint256 private _nextT...\n      OR \t\t\t {\\n    uint256 private _nextT...\n      SWAP1 \t\t\t {\\n    uint256 private _nextT...\n      SSTORE \t\t\t {\\n    uint256 private _nextT...\n      POP \t\t\t {\\n    uint256 private _nextT...\n      POP \t\t\t, OwnableUpgradeable, ERC2981U...\n      JUMP \t\t\t, OwnableUpgradeable, ERC2981U...\n    tag 709\t\t\tde(ERC721Upgradeable, ERC721En...\n      JUMPDEST \t\t\tde(ERC721Upgradeable, ERC721En...\n      PUSH 60\t\t\tance(account\n      PUSH 0\t\t\t }\\n\\n    func\n      DUP1 \t\t\ton _BaseURI() public vi\n      DUP5 \t\t\teturns\n      PUSH FFFFFFFFFFFFFFFFFFFFFFFFFFFFFFFFFFFFFFFF\t\t\teturns (string memo\n      AND \t\t\teturns (string memo\n      DUP5 \t\t\ty) {\n      PUSH 40\t\t\teturns (string memory) {\\n\n      MLOAD \t\t\teturns (string memory) {\\n\n      PUSH [tag] 813\t\t\teturns (string memory) {\\n\n      SWAP2 \t\t\teturns (string memory) {\\n\n      SWAP1 \t\t\teturns (string memory) {\\n\n      PUSH [tag] 814\t\t\teturns (string memory) {\\n\n      JUMP \t\t\teturns (string memory) {\\n\n    tag 813\t\t\teturns (string memory) {\\n\n      JUMPDEST \t\t\teturns (string memory) {\\n\n      PUSH 0\t\t\teturns (string memory) {\\n\n      PUSH 40\t\t\teturns (string memory) {\\n\n      MLOAD \t\t\teturns (string memory) {\\n\n      DUP1 \t\t\teturns (string memory) {\\n\n      DUP4 \t\t\teturns (string memory) {\\n\n      SUB \t\t\teturns (string memory) {\\n\n      DUP2 \t\t\teturns (string memory) {\\n\n      DUP6 \t\t\teturns (string memory) {\\n\n      GAS \t\t\teturns (string memory) {\\n\n      DELEGATECALL \t\t\teturns (string memory) {\\n\n      SWAP2 \t\t\teturns (string memory) {\\n\n      POP \t\t\teturns (string memory) {\\n\n      POP \t\t\teturns (string memory) {\\n\n      RETURNDATASIZE \t\t\teturns (string memory) {\\n\n      DUP1 \t\t\teturns (string memory) {\\n\n      PUSH 0\t\t\teturns (string memory) {\\n\n      DUP2 \t\t\teturns (string memory) {\\n\n      EQ \t\t\teturns (string memory) {\\n\n      PUSH [tag] 817\t\t\teturns (string memory) {\\n\n      JUMPI \t\t\teturns (string memory) {\\n\n      PUSH 40\t\t\teturns (string memory) {\\n\n      MLOAD \t\t\teturns (string memory) {\\n\n      SWAP2 \t\t\teturns (string memory) {\\n\n      POP \t\t\teturns (string memory) {\\n\n      PUSH 1F\t\t\teturns (string memory) {\\n\n      NOT \t\t\teturns (string memory) {\\n\n      PUSH 3F\t\t\teturns (string memory) {\\n\n      RETURNDATASIZE \t\t\teturns (string memory) {\\n\n      ADD \t\t\teturns (string memory) {\\n\n      AND \t\t\teturns (string memory) {\\n\n      DUP3 \t\t\teturns (string memory) {\\n\n      ADD \t\t\teturns (string memory) {\\n\n      PUSH 40\t\t\teturns (string memory) {\\n\n      MSTORE \t\t\teturns (string memory) {\\n\n      RETURNDATASIZE \t\t\teturns (string memory) {\\n\n      DUP3 \t\t\teturns (string memory) {\\n\n      MSTORE \t\t\teturns (string memory) {\\n\n      RETURNDATASIZE \t\t\teturns (string memory) {\\n\n      PUSH 0\t\t\teturns (string memory) {\\n\n      PUSH 20\t\t\teturns (string memory) {\\n\n      DUP5 \t\t\teturns (string memory) {\\n\n      ADD \t\t\teturns (string memory) {\\n\n      RETURNDATACOPY \t\t\teturns (string memory) {\\n\n      PUSH [tag] 816\t\t\teturns (string memory) {\\n\n      JUMP \t\t\teturns (string memory) {\\n\n    tag 817\t\t\teturns (string memory) {\\n\n      JUMPDEST \t\t\teturns (string memory) {\\n\n      PUSH 60\t\t\teturns (string memory) {\\n\n      SWAP2 \t\t\teturns (string memory) {\\n\n      POP \t\t\teturns (string memory) {\\n\n    tag 816\t\t\teturns (string memory) {\\n\n      JUMPDEST \t\t\teturns (string memory) {\\n\n      POP \t\t\teturns (string memory) {\\n\n      SWAP2 \t\t\t  }\\n\\n    function _BaseURI()...\n      POP \t\t\t  }\\n\\n    function _BaseURI()...\n      SWAP2 \t\t\t  }\\n\\n    function _BaseURI()...\n      POP \t\t\t  }\\n\\n    function _BaseURI()...\n      PUSH [tag] 818\t\t\taseTokenURI;\\n    }\\n    \\n   ...\n      DUP6 \t\t\t funct\n      DUP4 \t\t\tn token\n      DUP4 \t\t\tI(uint256 \n      PUSH [tag] 819\t\t\taseTokenURI;\\n    }\\n    \\n  \n      JUMP \t\t\taseTokenURI;\\n    }\\n    \\n   ...\n    tag 818\t\t\taseTokenURI;\\n    }\\n    \\n   ...\n      JUMPDEST \t\t\taseTokenURI;\\n    }\\n    \\n   ...\n      SWAP3 \t\t\tturn _baseTokenURI;\\n    }\\n  ...\n      POP \t\t\tturn _baseTokenURI;\\n    }\\n  ...\n      POP \t\t\tturn _baseTokenURI;\\n    }\\n  ...\n      POP \t\t\tturn _baseTokenURI;\\n    }\\n  ...\n      SWAP3 \t\t\tde(ERC721Upgradeable, ERC721En...\n      SWAP2 \t\t\tde(ERC721Upgradeable, ERC721En...\n      POP \t\t\tde(ERC721Upgradeable, ERC721En...\n      POP \t\t\tde(ERC721Upgradeable, ERC721En...\n      JUMP \t\t\tde(ERC721Upgradeable, ERC721En...\n    tag 712\t\t\t\n      JUMPDEST \t\t\t\n      PUSH 0\t\t\t\n      CALLVALUE \t\t\t\n      GT \t\t\t\n      ISZERO \t\t\t\n      PUSH [tag] 821\t\t\t\n      JUMPI \t\t\t\n      PUSH 40\t\t\t\n      MLOAD \t\t\t\n      PUSH B398979F00000000000000000000000000000000000000000000000000000000\t\t\t\n      DUP2 \t\t\t\n      MSTORE \t\t\t\n      PUSH 4\t\t\t\n      ADD \t\t\t\n      PUSH 40\t\t\t\n      MLOAD \t\t\t\n      DUP1 \t\t\t\n      SWAP2 \t\t\t\n      SUB \t\t\t\n      SWAP1 \t\t\t\n      REVERT \t\t\t\n    tag 821\t\t\t\n      JUMPDEST \t\t\t\n      JUMP \t\t\t\n    tag 722\t\t\t\n      JUMPDEST \t\t\t\n      PUSH 0\t\t\t\n      PUSH [tag] 823\t\t\t\n      PUSH [tag] 408\t\t\t\n      JUMP \t\t\t\n    tag 823\t\t\t\n      JUMPDEST \t\t\t\n      PUSH 0\t\t\t\n      ADD \t\t\t\n      PUSH 8\t\t\t\n      SWAP1 \t\t\t\n      SLOAD \t\t\t\n      SWAP1 \t\t\t\n      PUSH 100\t\t\t\n      EXP \t\t\t\n      SWAP1 \t\t\t\n      DIV \t\t\t\n      PUSH FF\t\t\t\n      AND \t\t\t\n      SWAP1 \t\t\t\n      POP \t\t\t\n      SWAP1 \t\t\t\n      JUMP \t\t\t\n    tag 754\t\t\t@5.0.0/token/ERC721/extensions...\n      JUMPDEST \t\t\t@5.0.0/token/ERC721/extensions...\n      PUSH 60\t\t\t.sol\";\\nimport\n      PUSH 0\t\t\te@5.0.0/token/\n      PUSH 1\t\t\t1\n      PUSH [tag] 825\t\t\t721/extensions/ER\n      DUP5 \t\t\tons/E\n      PUSH [tag] 826\t\t\t721/extens\n      JUMP \t\t\t721/extensions/ER\n    tag 825\t\t\t721/extensions/ER\n      JUMPDEST \t\t\t721/extensions/ER\n      ADD \t\t\t721/extensions/ERC721\n      SWAP1 \t\t\te@5.0.0/token/ERC721/extension...\n      POP \t\t\te@5.0.0/token/ERC721/extension...\n      PUSH 0\t\t\tradeable.sol\";\\nimpor\n      DUP2 \t\t\tin/con\n      PUSH FFFFFFFFFFFFFFFF\t\t\t@openzeppelin/cont\n      DUP2 \t\t\t@openzeppelin/cont\n      GT \t\t\t@openzeppelin/cont\n      ISZERO \t\t\t@openzeppelin/cont\n      PUSH [tag] 827\t\t\t@openzeppelin/cont\n      JUMPI \t\t\t@openzeppelin/cont\n      PUSH [tag] 828\t\t\t@openzeppelin/cont\n      PUSH [tag] 373\t\t\t@openzeppelin/cont\n      JUMP \t\t\t@openzeppelin/cont\n    tag 828\t\t\t@openzeppelin/cont\n      JUMPDEST \t\t\t@openzeppelin/cont\n    tag 827\t\t\t@openzeppelin/cont\n      JUMPDEST \t\t\t@openzeppelin/cont\n      PUSH 40\t\t\t@openzeppelin/cont\n      MLOAD \t\t\t@openzeppelin/cont\n      SWAP1 \t\t\t@openzeppelin/cont\n      DUP1 \t\t\t@openzeppelin/cont\n      DUP3 \t\t\t@openzeppelin/cont\n      MSTORE \t\t\t@openzeppelin/cont\n      DUP1 \t\t\t@openzeppelin/cont\n      PUSH 1F\t\t\t@openzeppelin/cont\n      ADD \t\t\t@openzeppelin/cont\n      PUSH 1F\t\t\t@openzeppelin/cont\n      NOT \t\t\t@openzeppelin/cont\n      AND \t\t\t@openzeppelin/cont\n      PUSH 20\t\t\t@openzeppelin/cont\n      ADD \t\t\t@openzeppelin/cont\n      DUP3 \t\t\t@openzeppelin/cont\n      ADD \t\t\t@openzeppelin/cont\n      PUSH 40\t\t\t@openzeppelin/cont\n      MSTORE \t\t\t@openzeppelin/cont\n      DUP1 \t\t\t@openzeppelin/cont\n      ISZERO \t\t\t@openzeppelin/cont\n      PUSH [tag] 829\t\t\t@openzeppelin/cont\n      JUMPI \t\t\t@openzeppelin/cont\n      DUP2 \t\t\t@openzeppelin/cont\n      PUSH 20\t\t\t@openzeppelin/cont\n      ADD \t\t\t@openzeppelin/cont\n      PUSH 1\t\t\t@openzeppelin/cont\n      DUP3 \t\t\t@openzeppelin/cont\n      MUL \t\t\t@openzeppelin/cont\n      DUP1 \t\t\t@openzeppelin/cont\n      CALLDATASIZE \t\t\t@openzeppelin/cont\n      DUP4 \t\t\t@openzeppelin/cont\n      CALLDATACOPY \t\t\t@openzeppelin/cont\n      DUP1 \t\t\t@openzeppelin/cont\n      DUP3 \t\t\t@openzeppelin/cont\n      ADD \t\t\t@openzeppelin/cont\n      SWAP2 \t\t\t@openzeppelin/cont\n      POP \t\t\t@openzeppelin/cont\n      POP \t\t\t@openzeppelin/cont\n      SWAP1 \t\t\t@openzeppelin/cont\n      POP \t\t\t@openzeppelin/cont\n    tag 829\t\t\t@openzeppelin/cont\n      JUMPDEST \t\t\t@openzeppelin/cont\n      POP \t\t\t@openzeppelin/cont\n      SWAP1 \t\t\tradeable.sol\";\\nimport \"@openz...\n      POP \t\t\tradeable.sol\";\\nimport \"@openz...\n      PUSH 0\t\t\tble@5.0.0/t\n      DUP3 \t\t\tC721/e\n      PUSH 20\t\t\tn/\n      ADD \t\t\ttoken/ERC721/ex\n      DUP3 \t\t\te@5.0.\n      ADD \t\t\teable@5.0.0/token/ERC721/ext\n      SWAP1 \t\t\t-upgradeable@5.0.0/token/ERC72...\n      POP \t\t\t-upgradeable@5.0.0/token/ERC72...\n    tag 830\t\t\tdeable.sol\";\\nimport \"@openzep...\n      JUMPDEST \t\t\tdeable.sol\";\\nimport \"@openzep...\n      PUSH 1\t\t\tsol\"\n      ISZERO \t\t\tdeable.sol\";\\nimport \"@openzep...\n      PUSH [tag] 831\t\t\tdeable.sol\";\\nimport \"@openzep...\n      JUMPI \t\t\tdeable.sol\";\\nimport \"@openzep...\n      DUP1 \t\t\tlin/c\n      DUP1 \t\t\tlin/c\n      PUSH 1\t\t\tlin/c\n      SWAP1 \t\t\tlin/c\n      SUB \t\t\tlin/c\n      SWAP2 \t\t\tlin/c\n      POP \t\t\tlin/c\n      POP \t\t\tlin/c\n      PUSH 3031323334353637383961626364656600000000000000000000000000000000\t\t\tken/ERC721\n      PUSH A\t\t\t.0\n      DUP7 \t\t\tble@5\n      MOD \t\t\tadeable@5.0.0/\n      BYTE \t\t\t-upgradeable@5.0.0/token/ERC72...\n      DUP2 \t\t\trac\n      MSTORE8 \t\t\tlin/contracts-upgradeable@5.0....\n      PUSH A\t\t\tim\n      DUP6 \t\t\tle.sol\";\\nim\n      DUP2 \t\t\tle.sol\";\\nim\n      PUSH [tag] 832\t\t\tle.sol\";\\nim\n      JUMPI \t\t\tle.sol\";\\nim\n      PUSH [tag] 833\t\t\tle.sol\";\\nim\n      PUSH [tag] 834\t\t\tle.sol\";\\nim\n      JUMP \t\t\tle.sol\";\\nim\n    tag 833\t\t\tle.sol\";\\nim\n      JUMPDEST \t\t\tle.sol\";\\nim\n    tag 832\t\t\tle.sol\";\\nim\n      JUMPDEST \t\t\tle.sol\";\\nim\n      DIV \t\t\tle.sol\";\\nim\n      SWAP5 \t\t\tle.sol\";\\nim\n      POP \t\t\tle.sol\";\\nim\n      PUSH 0\t\t\tp\n      DUP6 \t\t\tntrac\n      SUB \t\t\tntracts-up\n      PUSH [tag] 830\t\t\tdeable.sol\";\\nimport \"@openzep...\n      JUMPI \t\t\tn/contracts-upgradeab\n    tag 831\t\t\tdeable.sol\";\\nimport \"@openzep...\n      JUMPDEST \t\t\tdeable.sol\";\\nimport \"@openzep...\n      DUP2 \t\t\tC721Wr\n      SWAP4 \t\t\tions/ERC721Wr\n      POP \t\t\tions/ERC721Wr\n      POP \t\t\tions/ERC721Wr\n      POP \t\t\tions/ERC721Wr\n      POP \t\t\tions/ERC721Wr\n      SWAP2 \t\t\t@5.0.0/token/ERC721/extensions...\n      SWAP1 \t\t\t@5.0.0/token/ERC721/extensions...\n      POP \t\t\t@5.0.0/token/ERC721/extensions...\n      JUMP \t\t\t@5.0.0/token/ERC721/extensions...\n    tag 759\t\t\t\n      JUMPDEST \t\t\t\n      PUSH 0\t\t\t\n      PUSH FFFFFFFFFFFFFFFFFFFFFFFFFFFFFFFFFFFFFFFF\t\t\t\n      AND \t\t\t\n      DUP3 \t\t\t\n      PUSH FFFFFFFFFFFFFFFFFFFFFFFFFFFFFFFFFFFFFFFF\t\t\t\n      AND \t\t\t\n      SUB \t\t\t\n      PUSH [tag] 837\t\t\t\n      JUMPI \t\t\t\n      PUSH 0\t\t\t\n      PUSH 40\t\t\t\n      MLOAD \t\t\t\n      PUSH 64A0AE9200000000000000000000000000000000000000000000000000000000\t\t\t\n      DUP2 \t\t\t\n      MSTORE \t\t\t\n      PUSH 4\t\t\t\n      ADD \t\t\t\n      PUSH [tag] 838\t\t\t\n      SWAP2 \t\t\t\n      SWAP1 \t\t\t\n      PUSH [tag] 67\t\t\t\n      JUMP \t\t\t\n    tag 838\t\t\t\n      JUMPDEST \t\t\t\n      PUSH 40\t\t\t\n      MLOAD \t\t\t\n      DUP1 \t\t\t\n      SWAP2 \t\t\t\n      SUB \t\t\t\n      SWAP1 \t\t\t\n      REVERT \t\t\t\n    tag 837\t\t\t\n      JUMPDEST \t\t\t\n      PUSH 0\t\t\t\n      PUSH [tag] 839\t\t\t\n      DUP4 \t\t\t\n      DUP4 \t\t\t\n      PUSH 0\t\t\t\n      PUSH [tag] 270\t\t\t\n      JUMP \t\t\t\n    tag 839\t\t\t\n      JUMPDEST \t\t\t\n      SWAP1 \t\t\t\n      POP \t\t\t\n      PUSH 0\t\t\t\n      PUSH FFFFFFFFFFFFFFFFFFFFFFFFFFFFFFFFFFFFFFFF\t\t\t\n      AND \t\t\t\n      DUP2 \t\t\t\n      PUSH FFFFFFFFFFFFFFFFFFFFFFFFFFFFFFFFFFFFFFFF\t\t\t\n      AND \t\t\t\n      EQ \t\t\t\n      PUSH [tag] 840\t\t\t\n      JUMPI \t\t\t\n      PUSH 0\t\t\t\n      PUSH 40\t\t\t\n      MLOAD \t\t\t\n      PUSH 73C6AC6E00000000000000000000000000000000000000000000000000000000\t\t\t\n      DUP2 \t\t\t\n      MSTORE \t\t\t\n      PUSH 4\t\t\t\n      ADD \t\t\t\n      PUSH [tag] 841\t\t\t\n      SWAP2 \t\t\t\n      SWAP1 \t\t\t\n      PUSH [tag] 67\t\t\t\n      JUMP \t\t\t\n    tag 841\t\t\t\n      JUMPDEST \t\t\t\n      PUSH 40\t\t\t\n      MLOAD \t\t\t\n      DUP1 \t\t\t\n      SWAP2 \t\t\t\n      SUB \t\t\t\n      SWAP1 \t\t\t\n      REVERT \t\t\t\n    tag 840\t\t\t\n      JUMPDEST \t\t\t\n      POP \t\t\t\n      POP \t\t\t\n      POP \t\t\t\n      JUMP \t\t\t\n    tag 764\t\t\tort \"@openzeppelin/contracts-u...\n      JUMPDEST \t\t\tort \"@openzeppelin/contracts-u...\n      PUSH 0\t\t\t@ope\n      PUSH 5A05180F00000000000000000000000000000000000000000000000000000000\t\t\t0.0/utils/PausableUpgradeable....\n      PUSH FFFFFFFFFFFFFFFFFFFFFFFFFFFFFFFFFFFFFFFFFFFFFFFFFFFFFFFF\t\t\t-upgradeable@5.0.0/utils/Pausa...\n      NOT \t\t\t-upgradeable@5.0.0/utils/Pausa...\n      AND \t\t\t-upgradeable@5.0.0/utils/Pausa...\n      DUP3 \t\t\t-upgradeabl\n      PUSH FFFFFFFFFFFFFFFFFFFFFFFFFFFFFFFFFFFFFFFFFFFFFFFFFFFFFFFF\t\t\t-upgradeable@5.0.0/utils/Pausa...\n      NOT \t\t\t-upgradeable@5.0.0/utils/Pausa...\n      AND \t\t\t-upgradeable@5.0.0/utils/Pausa...\n      EQ \t\t\t-upgradeable@5.0.0/utils/Pausa...\n      DUP1 \t\t\t-upgradeable@5.0.0/utils/Pausa...\n      PUSH [tag] 843\t\t\t-upgradeable@5.0.0/utils/Pausa...\n      JUMPI \t\t\t-upgradeable@5.0.0/utils/Pausa...\n      POP \t\t\t-upgradeable@5.0.0/utils/Pausa...\n      PUSH [tag] 844\t\t\tpenzeppelin/contracts-upgradea...\n      DUP3 \t\t\tgradeable@5\n      PUSH [tag] 845\t\t\tpenzeppelin/contracts-u\n      JUMP \t\t\tpenzeppelin/contracts-upgradea...\n    tag 844\t\t\tpenzeppelin/contracts-upgradea...\n      JUMPDEST \t\t\tpenzeppelin/contracts-upgradea...\n    tag 843\t\t\t-upgradeable@5.0.0/utils/Pausa...\n      JUMPDEST \t\t\t-upgradeable@5.0.0/utils/Pausa...\n      SWAP1 \t\t\tntracts-upgradeable@5.0.0/util...\n      POP \t\t\tntracts-upgradeable@5.0.0/util...\n      SWAP2 \t\t\tort \"@openzeppelin/contracts-u...\n      SWAP1 \t\t\tort \"@openzeppelin/contracts-u...\n      POP \t\t\tort \"@openzeppelin/contracts-u...\n      JUMP \t\t\tort \"@openzeppelin/contracts-u...\n    tag 769\t\t\t\n      JUMPDEST \t\t\t\n      PUSH 0\t\t\t\n      DUP1 \t\t\t\n      PUSH [tag] 847\t\t\t\n      PUSH [tag] 848\t\t\t\n      JUMP \t\t\t\n    tag 847\t\t\t\n      JUMPDEST \t\t\t\n      SWAP1 \t\t\t\n      POP \t\t\t\n      PUSH 0\t\t\t\n      PUSH [tag] 849\t\t\t\n      DUP7 \t\t\t\n      DUP7 \t\t\t\n      DUP7 \t\t\t\n      PUSH [tag] 850\t\t\t\n      JUMP \t\t\t\n    tag 849\t\t\t\n      JUMPDEST \t\t\t\n      SWAP1 \t\t\t\n      POP \t\t\t\n      PUSH 0\t\t\t\n      PUSH FFFFFFFFFFFFFFFFFFFFFFFFFFFFFFFFFFFFFFFF\t\t\t\n      AND \t\t\t\n      DUP2 \t\t\t\n      PUSH FFFFFFFFFFFFFFFFFFFFFFFFFFFFFFFFFFFFFFFF\t\t\t\n      AND \t\t\t\n      EQ \t\t\t\n      DUP1 \t\t\t\n      ISZERO \t\t\t\n      PUSH [tag] 851\t\t\t\n      JUMPI \t\t\t\n      POP \t\t\t\n      PUSH 0\t\t\t\n      ADDRESS \t\t\t\n      PUSH FFFFFFFFFFFFFFFFFFFFFFFFFFFFFFFFFFFFFFFF\t\t\t\n      AND \t\t\t\n      EXTCODESIZE \t\t\t\n      EQ \t\t\t\n    tag 851\t\t\t\n      JUMPDEST \t\t\t\n      ISZERO \t\t\t\n      PUSH [tag] 852\t\t\t\n      JUMPI \t\t\t\n      PUSH 40\t\t\t\n      MLOAD \t\t\t\n      PUSH AD89505200000000000000000000000000000000000000000000000000000000\t\t\t\n      DUP2 \t\t\t\n      MSTORE \t\t\t\n      PUSH 4\t\t\t\n      ADD \t\t\t\n      PUSH 40\t\t\t\n      MLOAD \t\t\t\n      DUP1 \t\t\t\n      SWAP2 \t\t\t\n      SUB \t\t\t\n      SWAP1 \t\t\t\n      REVERT \t\t\t\n    tag 852\t\t\t\n      JUMPDEST \t\t\t\n      PUSH 0\t\t\t\n      PUSH FFFFFFFFFFFFFFFFFFFFFFFFFFFFFFFFFFFFFFFF\t\t\t\n      AND \t\t\t\n      DUP7 \t\t\t\n      PUSH FFFFFFFFFFFFFFFFFFFFFFFFFFFFFFFFFFFFFFFF\t\t\t\n      AND \t\t\t\n      EQ \t\t\t\n      DUP1 \t\t\t\n      ISZERO \t\t\t\n      PUSH [tag] 853\t\t\t\n      JUMPI \t\t\t\n      POP \t\t\t\n      PUSH [tag] 854\t\t\t\n      PUSH [tag] 855\t\t\t\n      JUMP \t\t\t\n    tag 854\t\t\t\n      JUMPDEST \t\t\t\n      PUSH FFFFFFFFFFFFFFFFFFFFFFFF\t\t\t\n      AND \t\t\t\n      DUP6 \t\t\t\n      LT \t\t\t\n    tag 853\t\t\t\n      JUMPDEST \t\t\t\n      DUP1 \t\t\t\n      ISZERO \t\t\t\n      PUSH [tag] 856\t\t\t\n      JUMPI \t\t\t\n      POP \t\t\t\n      PUSH [tag] 857\t\t\t\n      DUP6 \t\t\t\n      DUP4 \t\t\t\n      PUSH 1\t\t\t\n      ADD \t\t\t\n      PUSH [tag] 858\t\t\t\n      SWAP1 \t\t\t\n      SWAP2 \t\t\t\n      SWAP1 \t\t\t\n      PUSH FFFFFFFF\t\t\t\n      AND \t\t\t\n      JUMP \t\t\t\n    tag 857\t\t\t\n      JUMPDEST \t\t\t\n      ISZERO \t\t\t\n    tag 856\t\t\t\n      JUMPDEST \t\t\t\n      ISZERO \t\t\t\n      PUSH [tag] 859\t\t\t\n      JUMPI \t\t\t\n      PUSH [tag] 860\t\t\t\n      DUP6 \t\t\t\n      DUP4 \t\t\t\n      PUSH 1\t\t\t\n      ADD \t\t\t\n      PUSH [tag] 861\t\t\t\n      SWAP1 \t\t\t\n      SWAP2 \t\t\t\n      SWAP1 \t\t\t\n      PUSH FFFFFFFF\t\t\t\n      AND \t\t\t\n      JUMP \t\t\t\n    tag 860\t\t\t\n      JUMPDEST \t\t\t\n    tag 859\t\t\t\n      JUMPDEST \t\t\t\n      DUP1 \t\t\t\n      SWAP3 \t\t\t\n      POP \t\t\t\n      POP \t\t\t\n      POP \t\t\t\n      SWAP4 \t\t\t\n      SWAP3 \t\t\t\n      POP \t\t\t\n      POP \t\t\t\n      POP \t\t\t\n      JUMP \t\t\t\n    tag 772\t\t\t\n      JUMPDEST \t\t\t\n      PUSH 0\t\t\t\n      PUSH [tag] 863\t\t\t\n      PUSH [tag] 264\t\t\t\n      JUMP \t\t\t\n    tag 863\t\t\t\n      JUMPDEST \t\t\t\n      SWAP1 \t\t\t\n      POP \t\t\t\n      DUP1 \t\t\t\n      PUSH 2\t\t\t\n      ADD \t\t\t\n      DUP1 \t\t\t\n      SLOAD \t\t\t\n      SWAP1 \t\t\t\n      POP \t\t\t\n      DUP2 \t\t\t\n      PUSH 3\t\t\t\n      ADD \t\t\t\n      PUSH 0\t\t\t\n      DUP5 \t\t\t\n      DUP2 \t\t\t\n      MSTORE \t\t\t\n      PUSH 20\t\t\t\n      ADD \t\t\t\n      SWAP1 \t\t\t\n      DUP2 \t\t\t\n      MSTORE \t\t\t\n      PUSH 20\t\t\t\n      ADD \t\t\t\n      PUSH 0\t\t\t\n      KECCAK256 \t\t\t\n      DUP2 \t\t\t\n      SWAP1 \t\t\t\n      SSTORE \t\t\t\n      POP \t\t\t\n      DUP1 \t\t\t\n      PUSH 2\t\t\t\n      ADD \t\t\t\n      DUP3 \t\t\t\n      SWAP1 \t\t\t\n      DUP1 \t\t\t\n      PUSH 1\t\t\t\n      DUP2 \t\t\t\n      SLOAD \t\t\t\n      ADD \t\t\t\n      DUP1 \t\t\t\n      DUP3 \t\t\t\n      SSTORE \t\t\t\n      DUP1 \t\t\t\n      SWAP2 \t\t\t\n      POP \t\t\t\n      POP \t\t\t\n      PUSH 1\t\t\t\n      SWAP1 \t\t\t\n      SUB \t\t\t\n      SWAP1 \t\t\t\n      PUSH 0\t\t\t\n      MSTORE \t\t\t\n      PUSH 20\t\t\t\n      PUSH 0\t\t\t\n      KECCAK256 \t\t\t\n      ADD \t\t\t\n      PUSH 0\t\t\t\n      SWAP1 \t\t\t\n      SWAP2 \t\t\t\n      SWAP1 \t\t\t\n      SWAP2 \t\t\t\n      SWAP1 \t\t\t\n      SWAP2 \t\t\t\n      POP \t\t\t\n      SSTORE \t\t\t\n      POP \t\t\t\n      POP \t\t\t\n      JUMP \t\t\t\n    tag 776\t\t\t\n      JUMPDEST \t\t\t\n      PUSH 0\t\t\t\n      PUSH [tag] 866\t\t\t\n      PUSH [tag] 264\t\t\t\n      JUMP \t\t\t\n    tag 866\t\t\t\n      JUMPDEST \t\t\t\n      SWAP1 \t\t\t\n      POP \t\t\t\n      PUSH 0\t\t\t\n      PUSH [tag] 867\t\t\t\n      DUP5 \t\t\t\n      PUSH [tag] 153\t\t\t\n      JUMP \t\t\t\n    tag 867\t\t\t\n      JUMPDEST \t\t\t\n      SWAP1 \t\t\t\n      POP \t\t\t\n      PUSH 0\t\t\t\n      DUP3 \t\t\t\n      PUSH 1\t\t\t\n      ADD \t\t\t\n      PUSH 0\t\t\t\n      DUP6 \t\t\t\n      DUP2 \t\t\t\n      MSTORE \t\t\t\n      PUSH 20\t\t\t\n      ADD \t\t\t\n      SWAP1 \t\t\t\n      DUP2 \t\t\t\n      MSTORE \t\t\t\n      PUSH 20\t\t\t\n      ADD \t\t\t\n      PUSH 0\t\t\t\n      KECCAK256 \t\t\t\n      SLOAD \t\t\t\n      SWAP1 \t\t\t\n      POP \t\t\t\n      DUP2 \t\t\t\n      DUP2 \t\t\t\n      EQ \t\t\t\n      PUSH [tag] 868\t\t\t\n      JUMPI \t\t\t\n      PUSH 0\t\t\t\n      DUP4 \t\t\t\n      PUSH 0\t\t\t\n      ADD \t\t\t\n      PUSH 0\t\t\t\n      DUP8 \t\t\t\n      PUSH FFFFFFFFFFFFFFFFFFFFFFFFFFFFFFFFFFFFFFFF\t\t\t\n      AND \t\t\t\n      PUSH FFFFFFFFFFFFFFFFFFFFFFFFFFFFFFFFFFFFFFFF\t\t\t\n      AND \t\t\t\n      DUP2 \t\t\t\n      MSTORE \t\t\t\n      PUSH 20\t\t\t\n      ADD \t\t\t\n      SWAP1 \t\t\t\n      DUP2 \t\t\t\n      MSTORE \t\t\t\n      PUSH 20\t\t\t\n      ADD \t\t\t\n      PUSH 0\t\t\t\n      KECCAK256 \t\t\t\n      PUSH 0\t\t\t\n      DUP5 \t\t\t\n      DUP2 \t\t\t\n      MSTORE \t\t\t\n      PUSH 20\t\t\t\n      ADD \t\t\t\n      SWAP1 \t\t\t\n      DUP2 \t\t\t\n      MSTORE \t\t\t\n      PUSH 20\t\t\t\n      ADD \t\t\t\n      PUSH 0\t\t\t\n      KECCAK256 \t\t\t\n      SLOAD \t\t\t\n      SWAP1 \t\t\t\n      POP \t\t\t\n      DUP1 \t\t\t\n      DUP5 \t\t\t\n      PUSH 0\t\t\t\n      ADD \t\t\t\n      PUSH 0\t\t\t\n      DUP9 \t\t\t\n      PUSH FFFFFFFFFFFFFFFFFFFFFFFFFFFFFFFFFFFFFFFF\t\t\t\n      AND \t\t\t\n      PUSH FFFFFFFFFFFFFFFFFFFFFFFFFFFFFFFFFFFFFFFF\t\t\t\n      AND \t\t\t\n      DUP2 \t\t\t\n      MSTORE \t\t\t\n      PUSH 20\t\t\t\n      ADD \t\t\t\n      SWAP1 \t\t\t\n      DUP2 \t\t\t\n      MSTORE \t\t\t\n      PUSH 20\t\t\t\n      ADD \t\t\t\n      PUSH 0\t\t\t\n      KECCAK256 \t\t\t\n      PUSH 0\t\t\t\n      DUP5 \t\t\t\n      DUP2 \t\t\t\n      MSTORE \t\t\t\n      PUSH 20\t\t\t\n      ADD \t\t\t\n      SWAP1 \t\t\t\n      DUP2 \t\t\t\n      MSTORE \t\t\t\n      PUSH 20\t\t\t\n      ADD \t\t\t\n      PUSH 0\t\t\t\n      KECCAK256 \t\t\t\n      DUP2 \t\t\t\n      SWAP1 \t\t\t\n      SSTORE \t\t\t\n      POP \t\t\t\n      DUP2 \t\t\t\n      DUP5 \t\t\t\n      PUSH 1\t\t\t\n      ADD \t\t\t\n      PUSH 0\t\t\t\n      DUP4 \t\t\t\n      DUP2 \t\t\t\n      MSTORE \t\t\t\n      PUSH 20\t\t\t\n      ADD \t\t\t\n      SWAP1 \t\t\t\n      DUP2 \t\t\t\n      MSTORE \t\t\t\n      PUSH 20\t\t\t\n      ADD \t\t\t\n      PUSH 0\t\t\t\n      KECCAK256 \t\t\t\n      DUP2 \t\t\t\n      SWAP1 \t\t\t\n      SSTORE \t\t\t\n      POP \t\t\t\n      POP \t\t\t\n    tag 868\t\t\t\n      JUMPDEST \t\t\t\n      DUP3 \t\t\t\n      PUSH 1\t\t\t\n      ADD \t\t\t\n      PUSH 0\t\t\t\n      DUP6 \t\t\t\n      DUP2 \t\t\t\n      MSTORE \t\t\t\n      PUSH 20\t\t\t\n      ADD \t\t\t\n      SWAP1 \t\t\t\n      DUP2 \t\t\t\n      MSTORE \t\t\t\n      PUSH 20\t\t\t\n      ADD \t\t\t\n      PUSH 0\t\t\t\n      KECCAK256 \t\t\t\n      PUSH 0\t\t\t\n      SWAP1 \t\t\t\n      SSTORE \t\t\t\n      DUP3 \t\t\t\n      PUSH 0\t\t\t\n      ADD \t\t\t\n      PUSH 0\t\t\t\n      DUP7 \t\t\t\n      PUSH FFFFFFFFFFFFFFFFFFFFFFFFFFFFFFFFFFFFFFFF\t\t\t\n      AND \t\t\t\n      PUSH FFFFFFFFFFFFFFFFFFFFFFFFFFFFFFFFFFFFFFFF\t\t\t\n      AND \t\t\t\n      DUP2 \t\t\t\n      MSTORE \t\t\t\n      PUSH 20\t\t\t\n      ADD \t\t\t\n      SWAP1 \t\t\t\n      DUP2 \t\t\t\n      MSTORE \t\t\t\n      PUSH 20\t\t\t\n      ADD \t\t\t\n      PUSH 0\t\t\t\n      KECCAK256 \t\t\t\n      PUSH 0\t\t\t\n      DUP4 \t\t\t\n      DUP2 \t\t\t\n      MSTORE \t\t\t\n      PUSH 20\t\t\t\n      ADD \t\t\t\n      SWAP1 \t\t\t\n      DUP2 \t\t\t\n      MSTORE \t\t\t\n      PUSH 20\t\t\t\n      ADD \t\t\t\n      PUSH 0\t\t\t\n      KECCAK256 \t\t\t\n      PUSH 0\t\t\t\n      SWAP1 \t\t\t\n      SSTORE \t\t\t\n      POP \t\t\t\n      POP \t\t\t\n      POP \t\t\t\n      POP \t\t\t\n      POP \t\t\t\n      JUMP \t\t\t\n    tag 779\t\t\t\n      JUMPDEST \t\t\t\n      PUSH 0\t\t\t\n      PUSH [tag] 870\t\t\t\n      PUSH [tag] 264\t\t\t\n      JUMP \t\t\t\n    tag 870\t\t\t\n      JUMPDEST \t\t\t\n      SWAP1 \t\t\t\n      POP \t\t\t\n      PUSH 0\t\t\t\n      PUSH 1\t\t\t\n      DUP3 \t\t\t\n      PUSH 2\t\t\t\n      ADD \t\t\t\n      DUP1 \t\t\t\n      SLOAD \t\t\t\n      SWAP1 \t\t\t\n      POP \t\t\t\n      PUSH [tag] 871\t\t\t\n      SWAP2 \t\t\t\n      SWAP1 \t\t\t\n      PUSH [tag] 793\t\t\t\n      JUMP \t\t\t\n    tag 871\t\t\t\n      JUMPDEST \t\t\t\n      SWAP1 \t\t\t\n      POP \t\t\t\n      PUSH 0\t\t\t\n      DUP3 \t\t\t\n      PUSH 3\t\t\t\n      ADD \t\t\t\n      PUSH 0\t\t\t\n      DUP6 \t\t\t\n      DUP2 \t\t\t\n      MSTORE \t\t\t\n      PUSH 20\t\t\t\n      ADD \t\t\t\n      SWAP1 \t\t\t\n      DUP2 \t\t\t\n      MSTORE \t\t\t\n      PUSH 20\t\t\t\n      ADD \t\t\t\n      PUSH 0\t\t\t\n      KECCAK256 \t\t\t\n      SLOAD \t\t\t\n      SWAP1 \t\t\t\n      POP \t\t\t\n      PUSH 0\t\t\t\n      DUP4 \t\t\t\n      PUSH 2\t\t\t\n      ADD \t\t\t\n      DUP4 \t\t\t\n      DUP2 \t\t\t\n      SLOAD \t\t\t\n      DUP2 \t\t\t\n      LT \t\t\t\n      PUSH [tag] 872\t\t\t\n      JUMPI \t\t\t\n      PUSH [tag] 873\t\t\t\n      PUSH [tag] 330\t\t\t\n      JUMP \t\t\t\n    tag 873\t\t\t\n      JUMPDEST \t\t\t\n    tag 872\t\t\t\n      JUMPDEST \t\t\t\n      SWAP1 \t\t\t\n      PUSH 0\t\t\t\n      MSTORE \t\t\t\n      PUSH 20\t\t\t\n      PUSH 0\t\t\t\n      KECCAK256 \t\t\t\n      ADD \t\t\t\n      SLOAD \t\t\t\n      SWAP1 \t\t\t\n      POP \t\t\t\n      DUP1 \t\t\t\n      DUP5 \t\t\t\n      PUSH 2\t\t\t\n      ADD \t\t\t\n      DUP4 \t\t\t\n      DUP2 \t\t\t\n      SLOAD \t\t\t\n      DUP2 \t\t\t\n      LT \t\t\t\n      PUSH [tag] 875\t\t\t\n      JUMPI \t\t\t\n      PUSH [tag] 876\t\t\t\n      PUSH [tag] 330\t\t\t\n      JUMP \t\t\t\n    tag 876\t\t\t\n      JUMPDEST \t\t\t\n    tag 875\t\t\t\n      JUMPDEST \t\t\t\n      SWAP1 \t\t\t\n      PUSH 0\t\t\t\n      MSTORE \t\t\t\n      PUSH 20\t\t\t\n      PUSH 0\t\t\t\n      KECCAK256 \t\t\t\n      ADD \t\t\t\n      DUP2 \t\t\t\n      SWAP1 \t\t\t\n      SSTORE \t\t\t\n      POP \t\t\t\n      DUP2 \t\t\t\n      DUP5 \t\t\t\n      PUSH 3\t\t\t\n      ADD \t\t\t\n      PUSH 0\t\t\t\n      DUP4 \t\t\t\n      DUP2 \t\t\t\n      MSTORE \t\t\t\n      PUSH 20\t\t\t\n      ADD \t\t\t\n      SWAP1 \t\t\t\n      DUP2 \t\t\t\n      MSTORE \t\t\t\n      PUSH 20\t\t\t\n      ADD \t\t\t\n      PUSH 0\t\t\t\n      KECCAK256 \t\t\t\n      DUP2 \t\t\t\n      SWAP1 \t\t\t\n      SSTORE \t\t\t\n      POP \t\t\t\n      DUP4 \t\t\t\n      PUSH 3\t\t\t\n      ADD \t\t\t\n      PUSH 0\t\t\t\n      DUP7 \t\t\t\n      DUP2 \t\t\t\n      MSTORE \t\t\t\n      PUSH 20\t\t\t\n      ADD \t\t\t\n      SWAP1 \t\t\t\n      DUP2 \t\t\t\n      MSTORE \t\t\t\n      PUSH 20\t\t\t\n      ADD \t\t\t\n      PUSH 0\t\t\t\n      KECCAK256 \t\t\t\n      PUSH 0\t\t\t\n      SWAP1 \t\t\t\n      SSTORE \t\t\t\n      DUP4 \t\t\t\n      PUSH 2\t\t\t\n      ADD \t\t\t\n      DUP1 \t\t\t\n      SLOAD \t\t\t\n      DUP1 \t\t\t\n      PUSH [tag] 878\t\t\t\n      JUMPI \t\t\t\n      PUSH [tag] 879\t\t\t\n      PUSH [tag] 804\t\t\t\n      JUMP \t\t\t\n    tag 879\t\t\t\n      JUMPDEST \t\t\t\n    tag 878\t\t\t\n      JUMPDEST \t\t\t\n      PUSH 1\t\t\t\n      SWAP1 \t\t\t\n      SUB \t\t\t\n      DUP2 \t\t\t\n      DUP2 \t\t\t\n      SWAP1 \t\t\t\n      PUSH 0\t\t\t\n      MSTORE \t\t\t\n      PUSH 20\t\t\t\n      PUSH 0\t\t\t\n      KECCAK256 \t\t\t\n      ADD \t\t\t\n      PUSH 0\t\t\t\n      SWAP1 \t\t\t\n      SSTORE \t\t\t\n      SWAP1 \t\t\t\n      SSTORE \t\t\t\n      POP \t\t\t\n      POP \t\t\t\n      POP \t\t\t\n      POP \t\t\t\n      POP \t\t\t\n      JUMP \t\t\t\n    tag 783\t\t\tnterfaceId)\\n        public\\n ...\n      JUMPDEST \t\t\tnterfaceId)\\n        public\\n ...\n      PUSH 0\t\t\tadeable, ERC2981Upgradeable, E...\n      PUSH [tag] 882\t\t\tpgradeable, ERC721EnumerableU\n      PUSH [tag] 264\t\t\tpgradeable, ERC721Enumerabl\n      JUMP \t\t\tpgradeable, ERC721EnumerableU\n    tag 882\t\t\tpgradeable, ERC721EnumerableU\n      JUMPDEST \t\t\tpgradeable, ERC721EnumerableU\n      SWAP1 \t\t\tadeable, ERC2981Upgradeable, E...\n      POP \t\t\tadeable, ERC2981Upgradeable, E...\n      PUSH 0\t\t\t, ERC721URISto\n      PUSH 1\t\t\t \n      PUSH [tag] 883\t\t\teUpgradeable)\n      DUP6 \t\t\tle\n      PUSH [tag] 153\t\t\teUpgradea\n      JUMP \t\t\teUpgradeable)\n    tag 883\t\t\teUpgradeable)\n      JUMPDEST \t\t\teUpgradeable)\n      PUSH [tag] 884\t\t\teUpgradeable)\\n   \n      SWAP2 \t\t\teUpgradeable)\\n   \n      SWAP1 \t\t\teUpgradeable)\\n   \n      PUSH [tag] 793\t\t\teUpgradeable)\\n   \n      JUMP \t\t\teUpgradeable)\\n   \n    tag 884\t\t\teUpgradeable)\\n   \n      JUMPDEST \t\t\teUpgradeable)\\n   \n      SWAP1 \t\t\t, ERC721URIStorageUpgradeable)...\n      POP \t\t\t, ERC721URIStorageUpgradeable)...\n      DUP3 \t\t\tn super\n      DUP3 \t\t\tn\n      PUSH 0\t\t\tns (bool)\\n    \n      ADD \t\t\tns (bool)\\n    \n      PUSH 0\t\t\tns (bool)\\n    {\\n  \n      DUP7 \t\t\t\\n \n      PUSH FFFFFFFFFFFFFFFFFFFFFFFFFFFFFFFFFFFFFFFF\t\t\tns (bool)\\n    {\\n  \n      AND \t\t\tns (bool)\\n    {\\n  \n      PUSH FFFFFFFFFFFFFFFFFFFFFFFFFFFFFFFFFFFFFFFF\t\t\tns (bool)\\n    {\\n  \n      AND \t\t\tns (bool)\\n    {\\n  \n      DUP2 \t\t\tns (bool)\\n    {\\n  \n      MSTORE \t\t\tns (bool)\\n    {\\n  \n      PUSH 20\t\t\tns (bool)\\n    {\\n  \n      ADD \t\t\tns (bool)\\n    {\\n  \n      SWAP1 \t\t\tns (bool)\\n    {\\n  \n      DUP2 \t\t\tns (bool)\\n    {\\n  \n      MSTORE \t\t\tns (bool)\\n    {\\n  \n      PUSH 20\t\t\tns (bool)\\n    {\\n  \n      ADD \t\t\tns (bool)\\n    {\\n  \n      PUSH 0\t\t\tns (bool)\\n    {\\n  \n      KECCAK256 \t\t\tns (bool)\\n    {\\n  \n      PUSH 0\t\t\tns (bool)\\n    {\\n        re\n      DUP4 \t\t\t     r\n      DUP2 \t\t\tns (bool)\\n    {\\n        re\n      MSTORE \t\t\tns (bool)\\n    {\\n        re\n      PUSH 20\t\t\tns (bool)\\n    {\\n        re\n      ADD \t\t\tns (bool)\\n    {\\n        re\n      SWAP1 \t\t\tns (bool)\\n    {\\n        re\n      DUP2 \t\t\tns (bool)\\n    {\\n        re\n      MSTORE \t\t\tns (bool)\\n    {\\n        re\n      PUSH 20\t\t\tns (bool)\\n    {\\n        re\n      ADD \t\t\tns (bool)\\n    {\\n        re\n      PUSH 0\t\t\tns (bool)\\n    {\\n        re\n      KECCAK256 \t\t\tns (bool)\\n    {\\n        re\n      DUP2 \t\t\tns (bool)\\n    {\\n        retu...\n      SWAP1 \t\t\tns (bool)\\n    {\\n        retu...\n      SSTORE \t\t\tns (bool)\\n    {\\n        retu...\n      POP \t\t\tns (bool)\\n    {\\n        retu...\n      DUP1 \t\t\t\n      DUP3 \t\t\tn\n      PUSH 1\t\t\tnterface(interfaceI\n      ADD \t\t\tnterface(interfaceI\n      PUSH 0\t\t\tnterface(interfaceId);\\n    }\n      DUP6 \t\t\t);\\n    \n      DUP2 \t\t\tnterface(interfaceId);\\n    }\n      MSTORE \t\t\tnterface(interfaceId);\\n    }\n      PUSH 20\t\t\tnterface(interfaceId);\\n    }\n      ADD \t\t\tnterface(interfaceId);\\n    }\n      SWAP1 \t\t\tnterface(interfaceId);\\n    }\n      DUP2 \t\t\tnterface(interfaceId);\\n    }\n      MSTORE \t\t\tnterface(interfaceId);\\n    }\n      PUSH 20\t\t\tnterface(interfaceId);\\n    }\n      ADD \t\t\tnterface(interfaceId);\\n    }\n      PUSH 0\t\t\tnterface(interfaceId);\\n    }\n      KECCAK256 \t\t\tnterface(interfaceId);\\n    }\n      DUP2 \t\t\tnterface(interfaceId);\\n    }\\...\n      SWAP1 \t\t\tnterface(interfaceId);\\n    }\\...\n      SSTORE \t\t\tnterface(interfaceId);\\n    }\\...\n      POP \t\t\tnterface(interfaceId);\\n    }\\...\n      POP \t\t\terableUpgradeable, ERC2981Upgr...\n      POP \t\t\terableUpgradeable, ERC2981Upgr...\n      POP \t\t\tnterfaceId)\\n        public\\n ...\n      POP \t\t\tnterfaceId)\\n        public\\n ...\n      JUMP \t\t\tnterfaceId)\\n        public\\n ...\n    tag 786\t\t\ttring memory) {\\n        retur...\n      JUMPDEST \t\t\ttring memory) {\\n        retur...\n      PUSH 0\t\t\tenUR\n      DUP1 \t\t\te\n      DUP4 \t\t\t   \n      PUSH 1\t\t\t        public\n      ADD \t\t\t        public\n      PUSH 0\t\t\t        public\\n      \n      DUP5 \t\t\t     \n      DUP2 \t\t\t        public\\n      \n      MSTORE \t\t\t        public\\n      \n      PUSH 20\t\t\t        public\\n      \n      ADD \t\t\t        public\\n      \n      SWAP1 \t\t\t        public\\n      \n      DUP2 \t\t\t        public\\n      \n      MSTORE \t\t\t        public\\n      \n      PUSH 20\t\t\t        public\\n      \n      ADD \t\t\t        public\\n      \n      PUSH 0\t\t\t        public\\n      \n      KECCAK256 \t\t\t        public\\n      \n      SLOAD \t\t\t        public\\n      \n      EQ \t\t\t        public\\n        vie\n      ISZERO \t\t\t        public\\n        vie\n      SWAP1 \t\t\tkenId)\\n        public\\n      ...\n      POP \t\t\tkenId)\\n        public\\n      ...\n      SWAP3 \t\t\ttring memory) {\\n        retur...\n      SWAP2 \t\t\ttring memory) {\\n        retur...\n      POP \t\t\ttring memory) {\\n        retur...\n      POP \t\t\ttring memory) {\\n        retur...\n      JUMP \t\t\ttring memory) {\\n        retur...\n    tag 819\t\t\toverride(AccessControlEnumerab...\n      JUMPDEST \t\t\toverride(AccessControlEnumerab...\n      PUSH 60\t\t\t      return\n      DUP3 \t\t\t      r\n      PUSH [tag] 887\t\t\t {\\n        return super.suppo...\n      JUMPI \t\t\t {\\n        return super.suppo...\n      PUSH [tag] 888\t\t\tortsInterface(inter\n      DUP3 \t\t\trface(inte\n      PUSH [tag] 889\t\t\tortsInt\n      JUMP \t\t\tortsInterface(inter\n    tag 888\t\t\tortsInterface(inter\n      JUMPDEST \t\t\tortsInterface(inter\n      PUSH [tag] 890\t\t\t {\\n        return super.suppo...\n      JUMP \t\t\t {\\n        return super.suppo...\n    tag 887\t\t\t {\\n        return super.suppo...\n      JUMPDEST \t\t\t {\\n        return super.suppo...\n      PUSH 0\t\t\t\n      DUP3 \t\t\t\n      MLOAD \t\t\t\n      EQ \t\t\t\n      DUP1 \t\t\t\n      ISZERO \t\t\t\n      PUSH [tag] 891\t\t\t\n      JUMPI \t\t\t\n      POP \t\t\t\n      PUSH 0\t\t\t\n      DUP5 \t\t\t\n      PUSH FFFFFFFFFFFFFFFFFFFFFFFFFFFFFFFFFFFFFFFF\t\t\t\n      AND \t\t\t\n      EXTCODESIZE \t\t\t\n      EQ \t\t\t\n    tag 891\t\t\t\n      JUMPDEST \t\t\t\n      ISZERO \t\t\t\n      PUSH [tag] 892\t\t\t\n      JUMPI \t\t\t\n      DUP4 \t\t\t\n      PUSH 40\t\t\t\n      MLOAD \t\t\t\n      PUSH 9996B31500000000000000000000000000000000000000000000000000000000\t\t\t\n      DUP2 \t\t\t\n      MSTORE \t\t\t\n      PUSH 4\t\t\t\n      ADD \t\t\t\n      PUSH [tag] 893\t\t\t\n      SWAP2 \t\t\t\n      SWAP1 \t\t\t\n      PUSH [tag] 67\t\t\t\n      JUMP \t\t\t\n    tag 893\t\t\t\n      JUMPDEST \t\t\t\n      PUSH 40\t\t\t\n      MLOAD \t\t\t\n      DUP1 \t\t\t\n      SWAP2 \t\t\t\n      SUB \t\t\t\n      SWAP1 \t\t\t\n      REVERT \t\t\t\n    tag 892\t\t\t\n      JUMPDEST \t\t\t\n      DUP2 \t\t\t\n      SWAP1 \t\t\t\n      POP \t\t\t\n      PUSH [tag] 886\t\t\t\n      JUMP \t\t\t\n    tag 890\t\t\t {\\n        return super.suppo...\n      JUMPDEST \t\t\t {\\n        return super.suppo...\n    tag 886\t\t\toverride(AccessControlEnumerab...\n      JUMPDEST \t\t\toverride(AccessControlEnumerab...\n      SWAP4 \t\t\toverride(AccessControlEnumerab...\n      SWAP3 \t\t\toverride(AccessControlEnumerab...\n      POP \t\t\toverride(AccessControlEnumerab...\n      POP \t\t\toverride(AccessControlEnumerab...\n      POP \t\t\toverride(AccessControlEnumerab...\n      JUMP \t\t\toverride(AccessControlEnumerab...\n    tag 826\t\t\t\n      JUMPDEST \t\t\t\n      PUSH 0\t\t\t\n      DUP1 \t\t\t\n      PUSH 0\t\t\t\n      SWAP1 \t\t\t\n      POP \t\t\t\n      PUSH 184F03E93FF9F4DAA797ED6E38ED64BF6A1F010000000000000000\t\t\t\n      DUP4 \t\t\t\n      LT \t\t\t\n      PUSH [tag] 895\t\t\t\n      JUMPI \t\t\t\n      PUSH 184F03E93FF9F4DAA797ED6E38ED64BF6A1F010000000000000000\t\t\t\n      DUP4 \t\t\t\n      DUP2 \t\t\t\n      PUSH [tag] 896\t\t\t\n      JUMPI \t\t\t\n      PUSH [tag] 897\t\t\t\n      PUSH [tag] 834\t\t\t\n      JUMP \t\t\t\n    tag 897\t\t\t\n      JUMPDEST \t\t\t\n    tag 896\t\t\t\n      JUMPDEST \t\t\t\n      DIV \t\t\t\n      SWAP3 \t\t\t\n      POP \t\t\t\n      PUSH 40\t\t\t\n      DUP2 \t\t\t\n      ADD \t\t\t\n      SWAP1 \t\t\t\n      POP \t\t\t\n    tag 895\t\t\t\n      JUMPDEST \t\t\t\n      PUSH 4EE2D6D415B85ACEF8100000000\t\t\t\n      DUP4 \t\t\t\n      LT \t\t\t\n      PUSH [tag] 898\t\t\t\n      JUMPI \t\t\t\n      PUSH 4EE2D6D415B85ACEF8100000000\t\t\t\n      DUP4 \t\t\t\n      DUP2 \t\t\t\n      PUSH [tag] 899\t\t\t\n      JUMPI \t\t\t\n      PUSH [tag] 900\t\t\t\n      PUSH [tag] 834\t\t\t\n      JUMP \t\t\t\n    tag 900\t\t\t\n      JUMPDEST \t\t\t\n    tag 899\t\t\t\n      JUMPDEST \t\t\t\n      DIV \t\t\t\n      SWAP3 \t\t\t\n      POP \t\t\t\n      PUSH 20\t\t\t\n      DUP2 \t\t\t\n      ADD \t\t\t\n      SWAP1 \t\t\t\n      POP \t\t\t\n    tag 898\t\t\t\n      JUMPDEST \t\t\t\n      PUSH 2386F26FC10000\t\t\t\n      DUP4 \t\t\t\n      LT \t\t\t\n      PUSH [tag] 901\t\t\t\n      JUMPI \t\t\t\n      PUSH 2386F26FC10000\t\t\t\n      DUP4 \t\t\t\n      DUP2 \t\t\t\n      PUSH [tag] 902\t\t\t\n      JUMPI \t\t\t\n      PUSH [tag] 903\t\t\t\n      PUSH [tag] 834\t\t\t\n      JUMP \t\t\t\n    tag 903\t\t\t\n      JUMPDEST \t\t\t\n    tag 902\t\t\t\n      JUMPDEST \t\t\t\n      DIV \t\t\t\n      SWAP3 \t\t\t\n      POP \t\t\t\n      PUSH 10\t\t\t\n      DUP2 \t\t\t\n      ADD \t\t\t\n      SWAP1 \t\t\t\n      POP \t\t\t\n    tag 901\t\t\t\n      JUMPDEST \t\t\t\n      PUSH 5F5E100\t\t\t\n      DUP4 \t\t\t\n      LT \t\t\t\n      PUSH [tag] 904\t\t\t\n      JUMPI \t\t\t\n      PUSH 5F5E100\t\t\t\n      DUP4 \t\t\t\n      DUP2 \t\t\t\n      PUSH [tag] 905\t\t\t\n      JUMPI \t\t\t\n      PUSH [tag] 906\t\t\t\n      PUSH [tag] 834\t\t\t\n      JUMP \t\t\t\n    tag 906\t\t\t\n      JUMPDEST \t\t\t\n    tag 905\t\t\t\n      JUMPDEST \t\t\t\n      DIV \t\t\t\n      SWAP3 \t\t\t\n      POP \t\t\t\n      PUSH 8\t\t\t\n      DUP2 \t\t\t\n      ADD \t\t\t\n      SWAP1 \t\t\t\n      POP \t\t\t\n    tag 904\t\t\t\n      JUMPDEST \t\t\t\n      PUSH 2710\t\t\t\n      DUP4 \t\t\t\n      LT \t\t\t\n      PUSH [tag] 907\t\t\t\n      JUMPI \t\t\t\n      PUSH 2710\t\t\t\n      DUP4 \t\t\t\n      DUP2 \t\t\t\n      PUSH [tag] 908\t\t\t\n      JUMPI \t\t\t\n      PUSH [tag] 909\t\t\t\n      PUSH [tag] 834\t\t\t\n      JUMP \t\t\t\n    tag 909\t\t\t\n      JUMPDEST \t\t\t\n    tag 908\t\t\t\n      JUMPDEST \t\t\t\n      DIV \t\t\t\n      SWAP3 \t\t\t\n      POP \t\t\t\n      PUSH 4\t\t\t\n      DUP2 \t\t\t\n      ADD \t\t\t\n      SWAP1 \t\t\t\n      POP \t\t\t\n    tag 907\t\t\t\n      JUMPDEST \t\t\t\n      PUSH 64\t\t\t\n      DUP4 \t\t\t\n      LT \t\t\t\n      PUSH [tag] 910\t\t\t\n      JUMPI \t\t\t\n      PUSH 64\t\t\t\n      DUP4 \t\t\t\n      DUP2 \t\t\t\n      PUSH [tag] 911\t\t\t\n      JUMPI \t\t\t\n      PUSH [tag] 912\t\t\t\n      PUSH [tag] 834\t\t\t\n      JUMP \t\t\t\n    tag 912\t\t\t\n      JUMPDEST \t\t\t\n    tag 911\t\t\t\n      JUMPDEST \t\t\t\n      DIV \t\t\t\n      SWAP3 \t\t\t\n      POP \t\t\t\n      PUSH 2\t\t\t\n      DUP2 \t\t\t\n      ADD \t\t\t\n      SWAP1 \t\t\t\n      POP \t\t\t\n    tag 910\t\t\t\n      JUMPDEST \t\t\t\n      PUSH A\t\t\t\n      DUP4 \t\t\t\n      LT \t\t\t\n      PUSH [tag] 913\t\t\t\n      JUMPI \t\t\t\n      PUSH 1\t\t\t\n      DUP2 \t\t\t\n      ADD \t\t\t\n      SWAP1 \t\t\t\n      POP \t\t\t\n    tag 913\t\t\t\n      JUMPDEST \t\t\t\n      DUP1 \t\t\t\n      SWAP2 \t\t\t\n      POP \t\t\t\n      POP \t\t\t\n      SWAP2 \t\t\t\n      SWAP1 \t\t\t\n      POP \t\t\t\n      JUMP \t\t\t\n    tag 845\t\t\t;\\n    }\\n\\n    function initi...\n      JUMPDEST \t\t\t;\\n    }\\n\\n    function initi...\n      PUSH 0\t\t\t\"SW\"\n      PUSH 80AC58CD00000000000000000000000000000000000000000000000000000000\t\t\t__ERC721URIStorage_init()\n      PUSH FFFFFFFFFFFFFFFFFFFFFFFFFFFFFFFFFFFFFFFFFFFFFFFFFFFFFFFF\t\t\tnit();\\n        __ERC721URISto...\n      NOT \t\t\tnit();\\n        __ERC721URISto...\n      AND \t\t\tnit();\\n        __ERC721URISto...\n      DUP3 \t\t\tnit();\\n    \n      PUSH FFFFFFFFFFFFFFFFFFFFFFFFFFFFFFFFFFFFFFFFFFFFFFFFFFFFFFFF\t\t\tnit();\\n        __ERC721URISto...\n      NOT \t\t\tnit();\\n        __ERC721URISto...\n      AND \t\t\tnit();\\n        __ERC721URISto...\n      EQ \t\t\tnit();\\n        __ERC721URISto...\n      DUP1 \t\t\tnit();\\n        __ERC721URISto...\n      PUSH [tag] 915\t\t\tnit();\\n        __ERC721URISto...\n      JUMPI \t\t\tnit();\\n        __ERC721URISto...\n      POP \t\t\tnit();\\n        __ERC721URISto...\n      PUSH 5B5E139F00000000000000000000000000000000000000000000000000000000\t\t\t();\\n        __Ownable_init(in...\n      PUSH FFFFFFFFFFFFFFFFFFFFFFFFFFFFFFFFFFFFFFFFFFFFFFFFFFFFFFFF\t\t\t21Pausable_init();\\n        __...\n      NOT \t\t\t21Pausable_init();\\n        __...\n      AND \t\t\t21Pausable_init();\\n        __...\n      DUP3 \t\t\t21Pausable_\n      PUSH FFFFFFFFFFFFFFFFFFFFFFFFFFFFFFFFFFFFFFFFFFFFFFFFFFFFFFFF\t\t\t21Pausable_init();\\n        __...\n      NOT \t\t\t21Pausable_init();\\n        __...\n      AND \t\t\t21Pausable_init();\\n        __...\n      EQ \t\t\t21Pausable_init();\\n        __...\n    tag 915\t\t\tnit();\\n        __ERC721URISto...\n      JUMPDEST \t\t\tnit();\\n        __ERC721URISto...\n      DUP1 \t\t\tnit();\\n        __ERC721URISto...\n      PUSH [tag] 916\t\t\tnit();\\n        __ERC721URISto...\n      JUMPI \t\t\tnit();\\n        __ERC721URISto...\n      POP \t\t\tnit();\\n        __ERC721URISto...\n      PUSH [tag] 917\t\t\t __UUPSUpgradeable_init();\\n  ...\n      DUP3 \t\t\t);\\n        \n      PUSH [tag] 918\t\t\t __UUPSUpgradeable_init\n      JUMP \t\t\t __UUPSUpgradeable_init();\\n  ...\n    tag 917\t\t\t __UUPSUpgradeable_init();\\n  ...\n      JUMPDEST \t\t\t __UUPSUpgradeable_init();\\n  ...\n    tag 916\t\t\tnit();\\n        __ERC721URISto...\n      JUMPDEST \t\t\tnit();\\n        __ERC721URISto...\n      SWAP1 \t\t\t_ERC721Enumerable_init();\\n   ...\n      POP \t\t\t_ERC721Enumerable_init();\\n   ...\n      SWAP2 \t\t\t;\\n    }\\n\\n    function initi...\n      SWAP1 \t\t\t;\\n    }\\n\\n    function initi...\n      POP \t\t\t;\\n    }\\n\\n    function initi...\n      JUMP \t\t\t;\\n    }\\n\\n    function initi...\n    tag 848\t\t\tng private _baseTokenURI;\\n\\n ...\n      JUMPDEST \t\t\tng private _baseTokenURI;\\n\\n ...\n      PUSH 0\t\t\try baseURI) external onlyOwner...\n      PUSH 24DE1071A22E1E6F709B09CC0DADB696F919B85B456665CD36195DF4BC89FF00\t\t\t /// @custom:oz-upgrades-unsaf...\n      SWAP1 \t\t\t }\\n   \\n    /// @custom:oz-up...\n      POP \t\t\t }\\n   \\n    /// @custom:oz-up...\n      SWAP1 \t\t\tng private _baseTokenURI;\\n\\n ...\n      JUMP \t\t\tng private _baseTokenURI;\\n\\n ...\n    tag 850\t\t\t\n      JUMPDEST \t\t\t\n      PUSH 0\t\t\t\n      DUP1 \t\t\t\n      PUSH [tag] 921\t\t\t\n      PUSH [tag] 245\t\t\t\n      JUMP \t\t\t\n    tag 921\t\t\t\n      JUMPDEST \t\t\t\n      SWAP1 \t\t\t\n      POP \t\t\t\n      PUSH 0\t\t\t\n      PUSH [tag] 922\t\t\t\n      DUP6 \t\t\t\n      PUSH [tag] 468\t\t\t\n      JUMP \t\t\t\n    tag 922\t\t\t\n      JUMPDEST \t\t\t\n      SWAP1 \t\t\t\n      POP \t\t\t\n      PUSH 0\t\t\t\n      PUSH FFFFFFFFFFFFFFFFFFFFFFFFFFFFFFFFFFFFFFFF\t\t\t\n      AND \t\t\t\n      DUP5 \t\t\t\n      PUSH FFFFFFFFFFFFFFFFFFFFFFFFFFFFFFFFFFFFFFFF\t\t\t\n      AND \t\t\t\n      EQ \t\t\t\n      PUSH [tag] 923\t\t\t\n      JUMPI \t\t\t\n      PUSH [tag] 924\t\t\t\n      DUP2 \t\t\t\n      DUP6 \t\t\t\n      DUP8 \t\t\t\n      PUSH [tag] 925\t\t\t\n      JUMP \t\t\t\n    tag 924\t\t\t\n      JUMPDEST \t\t\t\n    tag 923\t\t\t\n      JUMPDEST \t\t\t\n      PUSH 0\t\t\t\n      PUSH FFFFFFFFFFFFFFFFFFFFFFFFFFFFFFFFFFFFFFFF\t\t\t\n      AND \t\t\t\n      DUP2 \t\t\t\n      PUSH FFFFFFFFFFFFFFFFFFFFFFFFFFFFFFFFFFFFFFFF\t\t\t\n      AND \t\t\t\n      EQ \t\t\t\n      PUSH [tag] 926\t\t\t\n      JUMPI \t\t\t\n      PUSH [tag] 927\t\t\t\n      PUSH 0\t\t\t\n      DUP7 \t\t\t\n      PUSH 0\t\t\t\n      DUP1 \t\t\t\n      PUSH [tag] 476\t\t\t\n      JUMP \t\t\t\n    tag 927\t\t\t\n      JUMPDEST \t\t\t\n      PUSH 1\t\t\t\n      DUP3 \t\t\t\n      PUSH 3\t\t\t\n      ADD \t\t\t\n      PUSH 0\t\t\t\n      DUP4 \t\t\t\n      PUSH FFFFFFFFFFFFFFFFFFFFFFFFFFFFFFFFFFFFFFFF\t\t\t\n      AND \t\t\t\n      PUSH FFFFFFFFFFFFFFFFFFFFFFFFFFFFFFFFFFFFFFFF\t\t\t\n      AND \t\t\t\n      DUP2 \t\t\t\n      MSTORE \t\t\t\n      PUSH 20\t\t\t\n      ADD \t\t\t\n      SWAP1 \t\t\t\n      DUP2 \t\t\t\n      MSTORE \t\t\t\n      PUSH 20\t\t\t\n      ADD \t\t\t\n      PUSH 0\t\t\t\n      KECCAK256 \t\t\t\n      PUSH 0\t\t\t\n      DUP3 \t\t\t\n      DUP3 \t\t\t\n      SLOAD \t\t\t\n      SUB \t\t\t\n      SWAP3 \t\t\t\n      POP \t\t\t\n      POP \t\t\t\n      DUP2 \t\t\t\n      SWAP1 \t\t\t\n      SSTORE \t\t\t\n      POP \t\t\t\n    tag 926\t\t\t\n      JUMPDEST \t\t\t\n      PUSH 0\t\t\t\n      PUSH FFFFFFFFFFFFFFFFFFFFFFFFFFFFFFFFFFFFFFFF\t\t\t\n      AND \t\t\t\n      DUP7 \t\t\t\n      PUSH FFFFFFFFFFFFFFFFFFFFFFFFFFFFFFFFFFFFFFFF\t\t\t\n      AND \t\t\t\n      EQ \t\t\t\n      PUSH [tag] 928\t\t\t\n      JUMPI \t\t\t\n      PUSH 1\t\t\t\n      DUP3 \t\t\t\n      PUSH 3\t\t\t\n      ADD \t\t\t\n      PUSH 0\t\t\t\n      DUP9 \t\t\t\n      PUSH FFFFFFFFFFFFFFFFFFFFFFFFFFFFFFFFFFFFFFFF\t\t\t\n      AND \t\t\t\n      PUSH FFFFFFFFFFFFFFFFFFFFFFFFFFFFFFFFFFFFFFFF\t\t\t\n      AND \t\t\t\n      DUP2 \t\t\t\n      MSTORE \t\t\t\n      PUSH 20\t\t\t\n      ADD \t\t\t\n      SWAP1 \t\t\t\n      DUP2 \t\t\t\n      MSTORE \t\t\t\n      PUSH 20\t\t\t\n      ADD \t\t\t\n      PUSH 0\t\t\t\n      KECCAK256 \t\t\t\n      PUSH 0\t\t\t\n      DUP3 \t\t\t\n      DUP3 \t\t\t\n      SLOAD \t\t\t\n      ADD \t\t\t\n      SWAP3 \t\t\t\n      POP \t\t\t\n      POP \t\t\t\n      DUP2 \t\t\t\n      SWAP1 \t\t\t\n      SSTORE \t\t\t\n      POP \t\t\t\n    tag 928\t\t\t\n      JUMPDEST \t\t\t\n      DUP6 \t\t\t\n      DUP3 \t\t\t\n      PUSH 2\t\t\t\n      ADD \t\t\t\n      PUSH 0\t\t\t\n      DUP8 \t\t\t\n      DUP2 \t\t\t\n      MSTORE \t\t\t\n      PUSH 20\t\t\t\n      ADD \t\t\t\n      SWAP1 \t\t\t\n      DUP2 \t\t\t\n      MSTORE \t\t\t\n      PUSH 20\t\t\t\n      ADD \t\t\t\n      PUSH 0\t\t\t\n      KECCAK256 \t\t\t\n      PUSH 0\t\t\t\n      PUSH 100\t\t\t\n      EXP \t\t\t\n      DUP2 \t\t\t\n      SLOAD \t\t\t\n      DUP2 \t\t\t\n      PUSH FFFFFFFFFFFFFFFFFFFFFFFFFFFFFFFFFFFFFFFF\t\t\t\n      MUL \t\t\t\n      NOT \t\t\t\n      AND \t\t\t\n      SWAP1 \t\t\t\n      DUP4 \t\t\t\n      PUSH FFFFFFFFFFFFFFFFFFFFFFFFFFFFFFFFFFFFFFFF\t\t\t\n      AND \t\t\t\n      MUL \t\t\t\n      OR \t\t\t\n      SWAP1 \t\t\t\n      SSTORE \t\t\t\n      POP \t\t\t\n      DUP5 \t\t\t\n      DUP7 \t\t\t\n      PUSH FFFFFFFFFFFFFFFFFFFFFFFFFFFFFFFFFFFFFFFF\t\t\t\n      AND \t\t\t\n      DUP3 \t\t\t\n      PUSH FFFFFFFFFFFFFFFFFFFFFFFFFFFFFFFFFFFFFFFF\t\t\t\n      AND \t\t\t\n      PUSH DDF252AD1BE2C89B69C2B068FC378DAA952BA7F163C4A11628F55A4DF523B3EF\t\t\t\n      PUSH 40\t\t\t\n      MLOAD \t\t\t\n      PUSH 40\t\t\t\n      MLOAD \t\t\t\n      DUP1 \t\t\t\n      SWAP2 \t\t\t\n      SUB \t\t\t\n      SWAP1 \t\t\t\n      LOG4 \t\t\t\n      DUP1 \t\t\t\n      SWAP3 \t\t\t\n      POP \t\t\t\n      POP \t\t\t\n      POP \t\t\t\n      SWAP4 \t\t\t\n      SWAP3 \t\t\t\n      POP \t\t\t\n      POP \t\t\t\n      POP \t\t\t\n      JUMP \t\t\t\n    tag 855\t\t\t\n      JUMPDEST \t\t\t\n      PUSH 0\t\t\t\n      DUP1 \t\t\t\n      PUSH [tag] 930\t\t\t\n      PUSH [tag] 848\t\t\t\n      JUMP \t\t\t\n    tag 930\t\t\t\n      JUMPDEST \t\t\t\n      SWAP1 \t\t\t\n      POP \t\t\t\n      PUSH 0\t\t\t\n      DUP1 \t\t\t\n      PUSH [tag] 931\t\t\t\n      DUP4 \t\t\t\n      PUSH 0\t\t\t\n      ADD \t\t\t\n      PUSH [tag] 932\t\t\t\n      JUMP \t\t\t\n    tag 931\t\t\t\n      JUMPDEST \t\t\t\n      POP \t\t\t\n      SWAP2 \t\t\t\n      POP \t\t\t\n      SWAP2 \t\t\t\n      POP \t\t\t\n      DUP2 \t\t\t\n      PUSH [tag] 933\t\t\t\n      JUMPI \t\t\t\n      PUSH [tag] 934\t\t\t\n      PUSH [tag] 935\t\t\t\n      JUMP \t\t\t\n    tag 934\t\t\t\n      JUMPDEST \t\t\t\n      PUSH [tag] 936\t\t\t\n      JUMP \t\t\t\n    tag 933\t\t\t\n      JUMPDEST \t\t\t\n      PUSH 1\t\t\t\n      DUP2 \t\t\t\n      PUSH [tag] 937\t\t\t\n      SWAP2 \t\t\t\n      SWAP1 \t\t\t\n      PUSH [tag] 938\t\t\t\n      JUMP \t\t\t\n    tag 937\t\t\t\n      JUMPDEST \t\t\t\n    tag 936\t\t\t\n      JUMPDEST \t\t\t\n      SWAP4 \t\t\t\n      POP \t\t\t\n      POP \t\t\t\n      POP \t\t\t\n      POP \t\t\t\n      SWAP1 \t\t\t\n      JUMP \t\t\t\n    tag 858\t\t\tt \"@openzeppelin/contracts-upg...\n      JUMPDEST \t\t\tt \"@openzeppelin/contracts-upg...\n      PUSH 0\t\t\t1Roy\n      DUP1 \t\t\tble.sol\";\\nimpo\n      PUSH 8\t\t\tp\n      DUP4 \t\t\t\"@ope\n      SWAP1 \t\t\t\"@openzepp\n      SHR \t\t\t\"@openzepp\n      SWAP1 \t\t\tble.sol\";\\nimport \"@openzepp\n      POP \t\t\tble.sol\";\\nimport \"@openzepp\n      PUSH 0\t\t\tacts-upgrade\n      PUSH FF\t\t\tERC7\n      DUP5 \t\t\t0/tok\n      AND \t\t\t0/token/ERC7\n      PUSH 1\t\t\te\n      SWAP1 \t\t\te@5.0.0/token/ERC72\n      SHL \t\t\te@5.0.0/token/ERC72\n      SWAP1 \t\t\tacts-upgradeable@5.0.0/token/E...\n      POP \t\t\tacts-upgradeable@5.0.0/token/E...\n      PUSH 0\t\t\tm\n      DUP2 \t\t\t.sol\n      DUP7 \t\t\t21URIS\n      PUSH 0\t\t\t21URIStorage\n      ADD \t\t\t21URIStorage\n      PUSH 0\t\t\t21URIStorageUpgradea\n      DUP6 \t\t\tpgrade\n      DUP2 \t\t\t21URIStorageUpgradea\n      MSTORE \t\t\t21URIStorageUpgradea\n      PUSH 20\t\t\t21URIStorageUpgradea\n      ADD \t\t\t21URIStorageUpgradea\n      SWAP1 \t\t\t21URIStorageUpgradea\n      DUP2 \t\t\t21URIStorageUpgradea\n      MSTORE \t\t\t21URIStorageUpgradea\n      PUSH 20\t\t\t21URIStorageUpgradea\n      ADD \t\t\t21URIStorageUpgradea\n      PUSH 0\t\t\t21URIStorageUpgradea\n      KECCAK256 \t\t\t21URIStorageUpgradea\n      SLOAD \t\t\t21URIStorageUpgradea\n      AND \t\t\t21URIStorageUpgradeable.sol\n      EQ \t\t\t21URIStorageUpgradeable.sol\";\\...\n      ISZERO \t\t\t21URIStorageUpgradeable.sol\";\\...\n      SWAP3 \t\t\tns/ERC721URIStorageUpgradeable...\n      POP \t\t\tns/ERC721URIStorageUpgradeable...\n      POP \t\t\tns/ERC721URIStorageUpgradeable...\n      POP \t\t\tns/ERC721URIStorageUpgradeable...\n      SWAP3 \t\t\tt \"@openzeppelin/contracts-upg...\n      SWAP2 \t\t\tt \"@openzeppelin/contracts-upg...\n      POP \t\t\tt \"@openzeppelin/contracts-upg...\n      POP \t\t\tt \"@openzeppelin/contracts-upg...\n      JUMP \t\t\tt \"@openzeppelin/contracts-upg...\n    tag 861\t\t\tls/ContextUpgradeable.sol\";\\ni...\n      JUMPDEST \t\t\tls/ContextUpgradeable.sol\";\\ni...\n      PUSH 0\t\t\te@5.0.0/utils/\n      PUSH 8\t\t\tr\n      DUP3 \t\t\ttical\n      SWAP1 \t\t\tticallUpgr\n      SHR \t\t\tticallUpgr\n      SWAP1 \t\t\te@5.0.0/utils/MulticallUpgr\n      POP \t\t\te@5.0.0/utils/MulticallUpgr\n      PUSH 0\t\t\tl\";\\nimport \"\n      PUSH FF\t\t\ttrac\n      DUP4 \t\t\telin/\n      AND \t\t\telin/contrac\n      PUSH 1\t\t\te\n      SWAP1 \t\t\tenzeppelin/contract\n      SHL \t\t\tenzeppelin/contract\n      SWAP1 \t\t\tl\";\\nimport \"@openzeppelin/con...\n      POP \t\t\tl\";\\nimport \"@openzeppelin/con...\n      DUP1 \t\t\tgrad\n      DUP5 \t\t\tble@5.\n      PUSH 0\t\t\tble@5.0.0/ut\n      ADD \t\t\tble@5.0.0/ut\n      PUSH 0\t\t\tble@5.0.0/utils/Nonc\n      DUP5 \t\t\tls/Non\n      DUP2 \t\t\tble@5.0.0/utils/Nonc\n      MSTORE \t\t\tble@5.0.0/utils/Nonc\n      PUSH 20\t\t\tble@5.0.0/utils/Nonc\n      ADD \t\t\tble@5.0.0/utils/Nonc\n      SWAP1 \t\t\tble@5.0.0/utils/Nonc\n      DUP2 \t\t\tble@5.0.0/utils/Nonc\n      MSTORE \t\t\tble@5.0.0/utils/Nonc\n      PUSH 20\t\t\tble@5.0.0/utils/Nonc\n      ADD \t\t\tble@5.0.0/utils/Nonc\n      PUSH 0\t\t\tble@5.0.0/utils/Nonc\n      KECCAK256 \t\t\tble@5.0.0/utils/Nonc\n      PUSH 0\t\t\tble@5.0.0/utils/Nonc\n      DUP3 \t\t\tble@5.0.0/utils/NoncesUpgrad\n      DUP3 \t\t\tble@5.0.0/utils/NoncesUpgrad\n      SLOAD \t\t\tble@5.0.0/utils/NoncesUpgrad\n      OR \t\t\tble@5.0.0/utils/NoncesUpgrad\n      SWAP3 \t\t\tble@5.0.0/utils/NoncesUpgrad\n      POP \t\t\tble@5.0.0/utils/NoncesUpgrad\n      POP \t\t\tble@5.0.0/utils/NoncesUpgrad\n      DUP2 \t\t\tble@5.0.0/utils/NoncesUpgrad\n      SWAP1 \t\t\tble@5.0.0/utils/NoncesUpgrad\n      SSTORE \t\t\tble@5.0.0/utils/NoncesUpgrad\n      POP \t\t\tble@5.0.0/utils/NoncesUpgrad\n      POP \t\t\tupgradeable@5.0.0/utils/Multic...\n      POP \t\t\tupgradeable@5.0.0/utils/Multic...\n      POP \t\t\tls/ContextUpgradeable.sol\";\\ni...\n      POP \t\t\tls/ContextUpgradeable.sol\";\\ni...\n      JUMP \t\t\tls/ContextUpgradeable.sol\";\\ni...\n    tag 889\t\t\t\n      JUMPDEST \t\t\t\n      PUSH 0\t\t\t\n      DUP2 \t\t\t\n      MLOAD \t\t\t\n      GT \t\t\t\n      ISZERO \t\t\t\n      PUSH [tag] 942\t\t\t\n      JUMPI \t\t\t\n      DUP1 \t\t\t\n      MLOAD \t\t\t\n      DUP1 \t\t\t\n      DUP3 \t\t\t\n      PUSH 20\t\t\t\n      ADD \t\t\t\n      REVERT \t\t\t\n    tag 942\t\t\t\n      JUMPDEST \t\t\t\n      PUSH 40\t\t\t\n      MLOAD \t\t\t\n      PUSH 1425EA4200000000000000000000000000000000000000000000000000000000\t\t\t\n      DUP2 \t\t\t\n      MSTORE \t\t\t\n      PUSH 4\t\t\t\n      ADD \t\t\t\n      PUSH 40\t\t\t\n      MLOAD \t\t\t\n      DUP1 \t\t\t\n      SWAP2 \t\t\t\n      SUB \t\t\t\n      SWAP1 \t\t\t\n      REVERT \t\t\t\n    tag 918\t\t\t_ownerOf(uint256 tokenId) inte...\n      JUMPDEST \t\t\t_ownerOf(uint256 tokenId) inte...\n      PUSH 0\t\t\tUpgr\n      PUSH 7965DB0B00000000000000000000000000000000000000000000000000000000\t\t\t/ Add your implementation logi...\n      PUSH FFFFFFFFFFFFFFFFFFFFFFFFFFFFFFFFFFFFFFFFFFFFFFFFFFFFFFFF\t\t\tddress) {\\n    // Add your imp...\n      NOT \t\t\tddress) {\\n    // Add your imp...\n      AND \t\t\tddress) {\\n    // Add your imp...\n      DUP3 \t\t\tddress) {\\n \n      PUSH FFFFFFFFFFFFFFFFFFFFFFFFFFFFFFFFFFFFFFFFFFFFFFFFFFFFFFFF\t\t\tddress) {\\n    // Add your imp...\n      NOT \t\t\tddress) {\\n    // Add your imp...\n      AND \t\t\tddress) {\\n    // Add your imp...\n      EQ \t\t\tddress) {\\n    // Add your imp...\n      DUP1 \t\t\tddress) {\\n    // Add your imp...\n      PUSH [tag] 945\t\t\tddress) {\\n    // Add your imp...\n      JUMPI \t\t\tddress) {\\n    // Add your imp...\n      POP \t\t\tddress) {\\n    // Add your imp...\n      PUSH [tag] 946\t\t\t\\n    return ERC721Upgradeable...\n      DUP3 \t\t\teable._owne\n      PUSH [tag] 947\t\t\t\\n    return ERC721Upgra\n      JUMP \t\t\t\\n    return ERC721Upgradeable...\n    tag 946\t\t\t\\n    return ERC721Upgradeable...\n      JUMPDEST \t\t\t\\n    return ERC721Upgradeable...\n    tag 945\t\t\tddress) {\\n    // Add your imp...\n      JUMPDEST \t\t\tddress) {\\n    // Add your imp...\n      SWAP1 \t\t\turns (address) {\\n    // Add y...\n      POP \t\t\turns (address) {\\n    // Add y...\n      SWAP2 \t\t\t_ownerOf(uint256 tokenId) inte...\n      SWAP1 \t\t\t_ownerOf(uint256 tokenId) inte...\n      POP \t\t\t_ownerOf(uint256 tokenId) inte...\n      JUMP \t\t\t_ownerOf(uint256 tokenId) inte...\n    tag 925\t\t\t\n      JUMPDEST \t\t\t\n      PUSH [tag] 949\t\t\t\n      DUP4 \t\t\t\n      DUP4 \t\t\t\n      DUP4 \t\t\t\n      PUSH [tag] 950\t\t\t\n      JUMP \t\t\t\n    tag 949\t\t\t\n      JUMPDEST \t\t\t\n      PUSH [tag] 951\t\t\t\n      JUMPI \t\t\t\n      PUSH 0\t\t\t\n      PUSH FFFFFFFFFFFFFFFFFFFFFFFFFFFFFFFFFFFFFFFF\t\t\t\n      AND \t\t\t\n      DUP4 \t\t\t\n      PUSH FFFFFFFFFFFFFFFFFFFFFFFFFFFFFFFFFFFFFFFF\t\t\t\n      AND \t\t\t\n      SUB \t\t\t\n      PUSH [tag] 952\t\t\t\n      JUMPI \t\t\t\n      DUP1 \t\t\t\n      PUSH 40\t\t\t\n      MLOAD \t\t\t\n      PUSH 7E27328900000000000000000000000000000000000000000000000000000000\t\t\t\n      DUP2 \t\t\t\n      MSTORE \t\t\t\n      PUSH 4\t\t\t\n      ADD \t\t\t\n      PUSH [tag] 953\t\t\t\n      SWAP2 \t\t\t\n      SWAP1 \t\t\t\n      PUSH [tag] 77\t\t\t\n      JUMP \t\t\t\n    tag 953\t\t\t\n      JUMPDEST \t\t\t\n      PUSH 40\t\t\t\n      MLOAD \t\t\t\n      DUP1 \t\t\t\n      SWAP2 \t\t\t\n      SUB \t\t\t\n      SWAP1 \t\t\t\n      REVERT \t\t\t\n    tag 952\t\t\t\n      JUMPDEST \t\t\t\n      DUP2 \t\t\t\n      DUP2 \t\t\t\n      PUSH 40\t\t\t\n      MLOAD \t\t\t\n      PUSH 177E802F00000000000000000000000000000000000000000000000000000000\t\t\t\n      DUP2 \t\t\t\n      MSTORE \t\t\t\n      PUSH 4\t\t\t\n      ADD \t\t\t\n      PUSH [tag] 955\t\t\t\n      SWAP3 \t\t\t\n      SWAP2 \t\t\t\n      SWAP1 \t\t\t\n      PUSH [tag] 96\t\t\t\n      JUMP \t\t\t\n    tag 955\t\t\t\n      JUMPDEST \t\t\t\n      PUSH 40\t\t\t\n      MLOAD \t\t\t\n      DUP1 \t\t\t\n      SWAP2 \t\t\t\n      SUB \t\t\t\n      SWAP1 \t\t\t\n      REVERT \t\t\t\n    tag 951\t\t\t\n      JUMPDEST \t\t\t\n      POP \t\t\t\n      POP \t\t\t\n      POP \t\t\t\n      JUMP \t\t\t\n    tag 932\t\t\t\n      JUMPDEST \t\t\t\n      PUSH 0\t\t\t\n      DUP1 \t\t\t\n      PUSH 0\t\t\t\n      DUP1 \t\t\t\n      DUP5 \t\t\t\n      PUSH 0\t\t\t\n      ADD \t\t\t\n      DUP1 \t\t\t\n      SLOAD \t\t\t\n      SWAP1 \t\t\t\n      POP \t\t\t\n      SWAP1 \t\t\t\n      POP \t\t\t\n      PUSH 0\t\t\t\n      DUP2 \t\t\t\n      SUB \t\t\t\n      PUSH [tag] 957\t\t\t\n      JUMPI \t\t\t\n      PUSH 0\t\t\t\n      DUP1 \t\t\t\n      PUSH 0\t\t\t\n      SWAP4 \t\t\t\n      POP \t\t\t\n      SWAP4 \t\t\t\n      POP \t\t\t\n      SWAP4 \t\t\t\n      POP \t\t\t\n      POP \t\t\t\n      PUSH [tag] 956\t\t\t\n      JUMP \t\t\t\n    tag 957\t\t\t\n      JUMPDEST \t\t\t\n      PUSH 0\t\t\t\n      PUSH [tag] 959\t\t\t\n      DUP7 \t\t\t\n      PUSH 0\t\t\t\n      ADD \t\t\t\n      PUSH 1\t\t\t\n      DUP5 \t\t\t\n      PUSH [tag] 960\t\t\t\n      SWAP2 \t\t\t\n      SWAP1 \t\t\t\n      PUSH [tag] 793\t\t\t\n      JUMP \t\t\t\n    tag 960\t\t\t\n      JUMPDEST \t\t\t\n      PUSH [tag] 961\t\t\t\n      JUMP \t\t\t\n    tag 959\t\t\t\n      JUMPDEST \t\t\t\n      PUSH 40\t\t\t\n      MLOAD \t\t\t\n      DUP1 \t\t\t\n      PUSH 40\t\t\t\n      ADD \t\t\t\n      PUSH 40\t\t\t\n      MSTORE \t\t\t\n      SWAP1 \t\t\t\n      DUP2 \t\t\t\n      PUSH 0\t\t\t\n      DUP3 \t\t\t\n      ADD \t\t\t\n      PUSH 0\t\t\t\n      SWAP1 \t\t\t\n      SLOAD \t\t\t\n      SWAP1 \t\t\t\n      PUSH 100\t\t\t\n      EXP \t\t\t\n      SWAP1 \t\t\t\n      DIV \t\t\t\n      PUSH FFFFFFFFFFFFFFFFFFFFFFFF\t\t\t\n      AND \t\t\t\n      PUSH FFFFFFFFFFFFFFFFFFFFFFFF\t\t\t\n      AND \t\t\t\n      PUSH FFFFFFFFFFFFFFFFFFFFFFFF\t\t\t\n      AND \t\t\t\n      DUP2 \t\t\t\n      MSTORE \t\t\t\n      PUSH 20\t\t\t\n      ADD \t\t\t\n      PUSH 0\t\t\t\n      DUP3 \t\t\t\n      ADD \t\t\t\n      PUSH C\t\t\t\n      SWAP1 \t\t\t\n      SLOAD \t\t\t\n      SWAP1 \t\t\t\n      PUSH 100\t\t\t\n      EXP \t\t\t\n      SWAP1 \t\t\t\n      DIV \t\t\t\n      PUSH FFFFFFFFFFFFFFFFFFFFFFFFFFFFFFFFFFFFFFFF\t\t\t\n      AND \t\t\t\n      PUSH FFFFFFFFFFFFFFFFFFFFFFFFFFFFFFFFFFFFFFFF\t\t\t\n      AND \t\t\t\n      PUSH FFFFFFFFFFFFFFFFFFFFFFFFFFFFFFFFFFFFFFFF\t\t\t\n      AND \t\t\t\n      DUP2 \t\t\t\n      MSTORE \t\t\t\n      POP \t\t\t\n      POP \t\t\t\n      SWAP1 \t\t\t\n      POP \t\t\t\n      PUSH 1\t\t\t\n      DUP2 \t\t\t\n      PUSH 0\t\t\t\n      ADD \t\t\t\n      MLOAD \t\t\t\n      DUP3 \t\t\t\n      PUSH 20\t\t\t\n      ADD \t\t\t\n      MLOAD \t\t\t\n      SWAP5 \t\t\t\n      POP \t\t\t\n      SWAP5 \t\t\t\n      POP \t\t\t\n      SWAP5 \t\t\t\n      POP \t\t\t\n      POP \t\t\t\n      POP \t\t\t\n    tag 956\t\t\t\n      JUMPDEST \t\t\t\n      SWAP2 \t\t\t\n      SWAP4 \t\t\t\n      SWAP1 \t\t\t\n      SWAP3 \t\t\t\n      POP \t\t\t\n      JUMP \t\t\t\n    tag 935\t\t\t\n      JUMPDEST \t\t\t\n      PUSH 0\t\t\t\n      SWAP1 \t\t\t\n      JUMP \t\t\t\n    tag 947\t\t\tenzeppelin/contracts-upgradeab...\n      JUMPDEST \t\t\tenzeppelin/contracts-upgradeab...\n      PUSH 0\t\t\tUpgr\n      PUSH 1FFC9A700000000000000000000000000000000000000000000000000000000\t\t\tn/contracts-upgradeable@5\n      PUSH FFFFFFFFFFFFFFFFFFFFFFFFFFFFFFFFFFFFFFFFFFFFFFFFFFFFFFFF\t\t\tt \"@openzeppelin/contracts-upg...\n      NOT \t\t\tt \"@openzeppelin/contracts-upg...\n      AND \t\t\tt \"@openzeppelin/contracts-upg...\n      DUP3 \t\t\tt \"@openzep\n      PUSH FFFFFFFFFFFFFFFFFFFFFFFFFFFFFFFFFFFFFFFFFFFFFFFFFFFFFFFF\t\t\tt \"@openzeppelin/contracts-upg...\n      NOT \t\t\tt \"@openzeppelin/contracts-upg...\n      AND \t\t\tt \"@openzeppelin/contracts-upg...\n      EQ \t\t\tt \"@openzeppelin/contracts-upg...\n      SWAP1 \t\t\t;\\nimport \"@openzeppelin/contr...\n      POP \t\t\t;\\nimport \"@openzeppelin/contr...\n      SWAP2 \t\t\tenzeppelin/contracts-upgradeab...\n      SWAP1 \t\t\tenzeppelin/contracts-upgradeab...\n      POP \t\t\tenzeppelin/contracts-upgradeab...\n      JUMP \t\t\tenzeppelin/contracts-upgradeab...\n    tag 950\t\t\t\n      JUMPDEST \t\t\t\n      PUSH 0\t\t\t\n      DUP1 \t\t\t\n      PUSH FFFFFFFFFFFFFFFFFFFFFFFFFFFFFFFFFFFFFFFF\t\t\t\n      AND \t\t\t\n      DUP4 \t\t\t\n      PUSH FFFFFFFFFFFFFFFFFFFFFFFFFFFFFFFFFFFFFFFF\t\t\t\n      AND \t\t\t\n      EQ \t\t\t\n      ISZERO \t\t\t\n      DUP1 \t\t\t\n      ISZERO \t\t\t\n      PUSH [tag] 965\t\t\t\n      JUMPI \t\t\t\n      POP \t\t\t\n      DUP3 \t\t\t\n      PUSH FFFFFFFFFFFFFFFFFFFFFFFFFFFFFFFFFFFFFFFF\t\t\t\n      AND \t\t\t\n      DUP5 \t\t\t\n      PUSH FFFFFFFFFFFFFFFFFFFFFFFFFFFFFFFFFFFFFFFF\t\t\t\n      AND \t\t\t\n      EQ \t\t\t\n      DUP1 \t\t\t\n      PUSH [tag] 966\t\t\t\n      JUMPI \t\t\t\n      POP \t\t\t\n      PUSH [tag] 967\t\t\t\n      DUP5 \t\t\t\n      DUP5 \t\t\t\n      PUSH [tag] 234\t\t\t\n      JUMP \t\t\t\n    tag 967\t\t\t\n      JUMPDEST \t\t\t\n    tag 966\t\t\t\n      JUMPDEST \t\t\t\n      DUP1 \t\t\t\n      PUSH [tag] 968\t\t\t\n      JUMPI \t\t\t\n      POP \t\t\t\n      DUP3 \t\t\t\n      PUSH FFFFFFFFFFFFFFFFFFFFFFFFFFFFFFFFFFFFFFFF\t\t\t\n      AND \t\t\t\n      PUSH [tag] 969\t\t\t\n      DUP4 \t\t\t\n      PUSH [tag] 256\t\t\t\n      JUMP \t\t\t\n    tag 969\t\t\t\n      JUMPDEST \t\t\t\n      PUSH FFFFFFFFFFFFFFFFFFFFFFFFFFFFFFFFFFFFFFFF\t\t\t\n      AND \t\t\t\n      EQ \t\t\t\n    tag 968\t\t\t\n      JUMPDEST \t\t\t\n    tag 965\t\t\t\n      JUMPDEST \t\t\t\n      SWAP1 \t\t\t\n      POP \t\t\t\n      SWAP4 \t\t\t\n      SWAP3 \t\t\t\n      POP \t\t\t\n      POP \t\t\t\n      POP \t\t\t\n      JUMP \t\t\t\n    tag 961\t\t\t\n      JUMPDEST \t\t\t\n      PUSH 0\t\t\t\n      DUP3 \t\t\t\n      PUSH 0\t\t\t\n      MSTORE \t\t\t\n      DUP2 \t\t\t\n      PUSH 20\t\t\t\n      PUSH 0\t\t\t\n      KECCAK256 \t\t\t\n      ADD \t\t\t\n      SWAP1 \t\t\t\n      POP \t\t\t\n      SWAP3 \t\t\t\n      SWAP2 \t\t\t\n      POP \t\t\t\n      POP \t\t\t\n      JUMP \t\t\t\n    tag 971\t\t\t-License-Identifier: MIT\\nprag...\n      JUMPDEST \t\t\t-License-Identifier: MIT\\nprag...\n      PUSH 0\t\t\tolidit\n      PUSH 40\t\t\tpp\n      MLOAD \t\t\topenzeppe\n      SWAP1 \t\t\t\\nimport \"@openzeppe\n      POP \t\t\t\\nimport \"@openzeppe\n      SWAP1 \t\t\t-License-Identifier: MIT\\nprag...\n      JUMP \t\t\t-License-Identifier: MIT\\nprag...\n    tag 972\t\t\ts-upgradeable@5.0.0/proxy/util...\n      JUMPDEST \t\t\ts-upgradeable@5.0.0/proxy/util...\n      PUSH 0\t\t\tR\n      DUP1 \t\t\tn\n      REVERT \t\t\t.0/token/ERC\n    tag 973\t\t\tgradeable.sol\";\\nimport \"@open...\n      JUMPDEST \t\t\tgradeable.sol\";\\nimport \"@open...\n      PUSH 0\t\t\tg\n      DUP1 \t\t\te\n      REVERT \t\t\tumerableUpgr\n    tag 974\t\t\t;\\nimport \"@openzeppelin/contr...\n      JUMPDEST \t\t\t;\\nimport \"@openzeppelin/contr...\n      PUSH 0\t\t\tgradeab\n      PUSH FFFFFFFF00000000000000000000000000000000000000000000000000000000\t\t\tadeable.sol\";\\nimport \"@openze...\n      DUP3 \t\t\trolUp\n      AND \t\t\tControlUpgradeable.sol\";\\nimpo...\n      SWAP1 \t\t\tcess/AccessControlUpgradeable....\n      POP \t\t\tcess/AccessControlUpgradeable....\n      SWAP2 \t\t\t;\\nimport \"@openzeppelin/contr...\n      SWAP1 \t\t\t;\\nimport \"@openzeppelin/contr...\n      POP \t\t\t;\\nimport \"@openzeppelin/contr...\n      JUMP \t\t\t;\\nimport \"@openzeppelin/contr...\n    tag 975\t\t\tpgradeable.sol\";\\nimport \"@ope...\n      JUMPDEST \t\t\tpgradeable.sol\";\\nimport \"@ope...\n      PUSH [tag] 1058\t\t\t/common/ERC2981Upgradea\n      DUP2 \t\t\tgrade\n      PUSH [tag] 974\t\t\t/common/ERC2981Upgradea\n      JUMP \t\t\t/common/ERC2981Upgradea\n    tag 1058\t\t\t/common/ERC2981Upgradea\n      JUMPDEST \t\t\t/common/ERC2981Upgradea\n      DUP2 \t\t\t0/tok\n      EQ \t\t\t.0.0/token/common/ERC2981Upgra...\n      PUSH [tag] 1059\t\t\tradeable@5.0.0/token/common/ER...\n      JUMPI \t\t\tradeable@5.0.0/token/common/ER...\n      PUSH 0\t\t\tt\n      DUP1 \t\t\tp\n      REVERT \t\t\tol\";\\nimport \n    tag 1059\t\t\tradeable@5.0.0/token/common/ER...\n      JUMPDEST \t\t\tradeable@5.0.0/token/common/ER...\n      POP \t\t\tpgradeable.sol\";\\nimport \"@ope...\n      JUMP \t\t\tpgradeable.sol\";\\nimport \"@ope...\n    tag 976\t\t\t/contracts-upgradeable@5.0.0/t...\n      JUMPDEST \t\t\t/contracts-upgradeable@5.0.0/t...\n      PUSH 0\t\t\tensio\n      DUP2 \t\t\t;\\nimpo\n      CALLDATALOAD \t\t\tradeable.sol\";\\nimpor\n      SWAP1 \t\t\trnableUpgradeable.sol\";\\nimpor\n      POP \t\t\trnableUpgradeable.sol\";\\nimpor\n      PUSH [tag] 1061\t\t\teppelin/contracts-upgradeable@...\n      DUP2 \t\t\tble@5\n      PUSH [tag] 975\t\t\teppelin/contracts-upgradeable@...\n      JUMP \t\t\teppelin/contracts-upgradeable@...\n    tag 1061\t\t\teppelin/contracts-upgradeable@...\n      JUMPDEST \t\t\teppelin/contracts-upgradeable@...\n      SWAP3 \t\t\t/contracts-upgradeable@5.0.0/t...\n      SWAP2 \t\t\t/contracts-upgradeable@5.0.0/t...\n      POP \t\t\t/contracts-upgradeable@5.0.0/t...\n      POP \t\t\t/contracts-upgradeable@5.0.0/t...\n      JUMP \t\t\t/contracts-upgradeable@5.0.0/t...\n    tag 52\t\t\tC721/extensions/ERC721Consecut...\n      JUMPDEST \t\t\tC721/extensions/ERC721Consecut...\n      PUSH 0\t\t\t\"@open\n      PUSH 20\t\t\tER\n      DUP3 \t\t\t5.0.0/tok\n      DUP5 \t\t\tradeabl\n      SUB \t\t\t-upgradeable@5.0.0/toke\n      SLT \t\t\tacts-upgradeable@5.0.0/token/E...\n      ISZERO \t\t\tntracts-upgradeable@5.0.0/toke...\n      PUSH [tag] 1063\t\t\tntracts-upgradeable@5.0.0/toke...\n      JUMPI \t\t\tntracts-upgradeable@5.0.0/toke...\n      PUSH [tag] 1064\t\t\t/extensions/ERC721EnumerableUp...\n      PUSH [tag] 972\t\t\t/extensions/ERC721EnumerableUp...\n      JUMP \t\t\t/extensions/ERC721EnumerableUp...\n    tag 1064\t\t\t/extensions/ERC721EnumerableUp...\n      JUMPDEST \t\t\t/extensions/ERC721EnumerableUp...\n    tag 1063\t\t\tntracts-upgradeable@5.0.0/toke...\n      JUMPDEST \t\t\tntracts-upgradeable@5.0.0/toke...\n      PUSH 0\t\t\tE\n      PUSH [tag] 1065\t\t\t.sol\";\\nimport \"@openzeppelin/...\n      DUP5 \t\t\tdeable@\n      DUP3 \t\t\tcts-up\n      DUP6 \t\t\telin/cont\n      ADD \t\t\tzeppelin/contracts-upg\n      PUSH [tag] 976\t\t\t.sol\";\\nimport \"@openzeppelin/...\n      JUMP \t\t\t.sol\";\\nimport \"@openzeppelin/...\n    tag 1065\t\t\t.sol\";\\nimport \"@openzeppelin/...\n      JUMPDEST \t\t\t.sol\";\\nimport \"@openzeppelin/...\n      SWAP2 \t\t\tpgradeable.sol\";\\nimport \"@ope...\n      POP \t\t\tpgradeable.sol\";\\nimport \"@ope...\n      POP \t\t\t.0.0/token/ERC721/extensions/E...\n      SWAP3 \t\t\tC721/extensions/ERC721Consecut...\n      SWAP2 \t\t\tC721/extensions/ERC721Consecut...\n      POP \t\t\tC721/extensions/ERC721Consecut...\n      POP \t\t\tC721/extensions/ERC721Consecut...\n      JUMP \t\t\tC721/extensions/ERC721Consecut...\n    tag 977\t\t\tsions/ERC721RoyaltyUpgradeable...\n      JUMPDEST \t\t\tsions/ERC721RoyaltyUpgradeable...\n      PUSH 0\t\t\t\";\\nimpo\n      DUP2 \t\t\tble@5\n      ISZERO \t\t\tpgradeable@5.\n      ISZERO \t\t\tracts-upgradeable@5.0\n      SWAP1 \t\t\tppelin/contracts-upgradeable@5...\n      POP \t\t\tppelin/contracts-upgradeable@5...\n      SWAP2 \t\t\tsions/ERC721RoyaltyUpgradeable...\n      SWAP1 \t\t\tsions/ERC721RoyaltyUpgradeable...\n      POP \t\t\tsions/ERC721RoyaltyUpgradeable...\n      JUMP \t\t\tsions/ERC721RoyaltyUpgradeable...\n    tag 978\t\t\t721/extensions/ERC721URIStorag...\n      JUMPDEST \t\t\t721/extensions/ERC721URIStorag...\n      PUSH [tag] 1068\t\t\tupgradeable@5.0.0/tok\n      DUP2 \t\t\t.0/to\n      PUSH [tag] 977\t\t\tupgradeable@5.0.0/tok\n      JUMP \t\t\tupgradeable@5.0.0/tok\n    tag 1068\t\t\tupgradeable@5.0.0/tok\n      JUMPDEST \t\t\tupgradeable@5.0.0/tok\n      DUP3 \t\t\tact\n      MSTORE \t\t\tn/contracts-upgradeable@5.0.0/...\n      POP \t\t\t721/extensions/ERC721URIStorag...\n      POP \t\t\t721/extensions/ERC721URIStorag...\n      JUMP \t\t\t721/extensions/ERC721URIStorag...\n    tag 55\t\t\tensions/ERC721WrapperUpgradeab...\n      JUMPDEST \t\t\tensions/ERC721WrapperUpgradeab...\n      PUSH 0\t\t\t0/ut\n      PUSH 20\t\t\t.s\n      DUP3 \t\t\tUpgradeab\n      ADD \t\t\tP712Upgradeable.so\n      SWAP1 \t\t\traphy/EIP712Upgradeable.so\n      POP \t\t\traphy/EIP712Upgradeable.so\n      PUSH [tag] 1070\t\t\t \"@openzeppelin/contracts-upgr...\n      PUSH 0\t\t\tn\n      DUP4 \t\t\tntrospect\n      ADD \t\t\tls/introspection/\n      DUP5 \t\t\t5.0.0/\n      PUSH [tag] 978\t\t\t \"@openzeppelin/contracts-upgr...\n      JUMP \t\t\t \"@openzeppelin/contracts-upgr...\n    tag 1070\t\t\t \"@openzeppelin/contracts-upgr...\n      JUMPDEST \t\t\t \"@openzeppelin/contracts-upgr...\n      SWAP3 \t\t\tensions/ERC721WrapperUpgradeab...\n      SWAP2 \t\t\tensions/ERC721WrapperUpgradeab...\n      POP \t\t\tensions/ERC721WrapperUpgradeab...\n      POP \t\t\tensions/ERC721WrapperUpgradeab...\n      JUMP \t\t\tensions/ERC721WrapperUpgradeab...\n    tag 979\t\t\tble.sol\";\\nimport \"@openzeppel...\n      JUMPDEST \t\t\tble.sol\";\\nimport \"@openzeppel...\n      PUSH 0\t\t\te@5.0.\n      DUP2 \t\t\tol\";\\n\n      MLOAD \t\t\table.sol\";\\ni\n      SWAP1 \t\t\textUpgradeable.sol\";\\ni\n      POP \t\t\textUpgradeable.sol\";\\ni\n      SWAP2 \t\t\tble.sol\";\\nimport \"@openzeppel...\n      SWAP1 \t\t\tble.sol\";\\nimport \"@openzeppel...\n      POP \t\t\tble.sol\";\\nimport \"@openzeppel...\n      JUMP \t\t\tble.sol\";\\nimport \"@openzeppel...\n    tag 980\t\t\teppelin/contracts-upgradeable@...\n      JUMPDEST \t\t\teppelin/contracts-upgradeable@...\n      PUSH 0\t\t\tppelin/cont\n      DUP3 \t\t\t/utils\n      DUP3 \t\t\t5.0\n      MSTORE \t\t\tdeable@5.0.0/utils/\n      PUSH 20\t\t\topen\n      DUP3 \t\t\trt \n      ADD \t\t\timport \"@openz\n      SWAP1 \t\t\tradeable.sol\";\\nimport \"@openz\n      POP \t\t\tradeable.sol\";\\nimport \"@openz\n      SWAP3 \t\t\teppelin/contracts-upgradeable@...\n      SWAP2 \t\t\teppelin/contracts-upgradeable@...\n      POP \t\t\teppelin/contracts-upgradeable@...\n      POP \t\t\teppelin/contracts-upgradeable@...\n      JUMP \t\t\teppelin/contracts-upgradeable@...\n    tag 981\t\t\tracts-upgradeable@5.0.0/utils/...\n      JUMPDEST \t\t\tracts-upgradeable@5.0.0/utils/...\n      PUSH 0\t\t\tt\n    tag 1074\t\t\tradeable@5.0.0/utils/Reentranc...\n      JUMPDEST \t\t\tradeable@5.0.0/utils/Reentranc...\n      DUP4 \t\t\t/utils\n      DUP2 \t\t\t0\n      LT \t\t\t@5.0.0/utils/\n      ISZERO \t\t\tradeable@5.0.0/utils/Reentranc...\n      PUSH [tag] 1076\t\t\tradeable@5.0.0/utils/Reentranc...\n      JUMPI \t\t\tradeable@5.0.0/utils/Reentranc...\n      DUP1 \t\t\t.\n      DUP3 \t\t\tble\n      ADD \t\t\tadeable@5.0\n      MLOAD \t\t\ts-upgradeable@5.0.\n      DUP2 \t\t\tr\n      DUP5 \t\t\t/co\n      ADD \t\t\telin/contra\n      MSTORE \t\t\tpenzeppelin/contracts-upgradea...\n      PUSH 20\t\t\tUp\n      DUP2 \t\t\ta\n      ADD \t\t\tcyGuardUpg\n      SWAP1 \t\t\tntrancyGuardUpg\n      POP \t\t\tntrancyGuardUpg\n      PUSH [tag] 1074\t\t\tradeable@5.0.0/utils/Reentranc...\n      JUMP \t\t\tradeable@5.0.0/utils/Reentranc...\n    tag 1076\t\t\tradeable@5.0.0/utils/Reentranc...\n      JUMPDEST \t\t\tradeable@5.0.0/utils/Reentranc...\n      PUSH 0\t\t\tt\n      DUP5 \t\t\t\\n/// @\n      DUP5 \t\t\tol\"\n      ADD \t\t\tle.sol\";\\n\\n/// @c\n      MSTORE \t\t\tgradeable.sol\";\\n\\n/// @custo\n      POP \t\t\t \"@openzeppelin/contracts-upgr...\n      POP \t\t\tracts-upgradeable@5.0.0/utils/...\n      POP \t\t\tracts-upgradeable@5.0.0/utils/...\n      POP \t\t\tracts-upgradeable@5.0.0/utils/...\n      JUMP \t\t\tracts-upgradeable@5.0.0/utils/...\n    tag 982\t\t\tontact bedlam520@skiff.com\\nco...\n      JUMPDEST \t\t\tontact bedlam520@skiff.com\\nco...\n      PUSH 0\t\t\talkers\n      PUSH 1F\t\t\tra\n      NOT \t\t\t1Upgrad\n      PUSH 1F\t\t\tER\n      DUP4 \t\t\teable\n      ADD \t\t\tgradeable, ERC\n      AND \t\t\tPSUpgradeable, ERC721Upgrade\n      SWAP1 \t\t\tizable, UUPSUpgradeable, ERC72...\n      POP \t\t\tizable, UUPSUpgradeable, ERC72...\n      SWAP2 \t\t\tontact bedlam520@skiff.com\\nco...\n      SWAP1 \t\t\tontact bedlam520@skiff.com\\nco...\n      POP \t\t\tontact bedlam520@skiff.com\\nco...\n      JUMP \t\t\tontact bedlam520@skiff.com\\nco...\n    tag 983\t\t\tControlEnumerableUpgradeable, ...\n      JUMPDEST \t\t\tControlEnumerableUpgradeable, ...\n      PUSH 0\t\t\tade\n      PUSH [tag] 1079\t\t\tgradeable, ERC721EnumerableUpg...\n      DUP3 \t\t\teable\n      PUSH [tag] 979\t\t\tgradeable, ERC721EnumerableUpg...\n      JUMP \t\t\tgradeable, ERC721EnumerableUpg...\n    tag 1079\t\t\tgradeable, ERC721EnumerableUpg...\n      JUMPDEST \t\t\tgradeable, ERC721EnumerableUpg...\n      PUSH [tag] 1080\t\t\tpgradeable, ERC721URIStorageUp...\n      DUP2 \t\t\t uint2\n      DUP6 \t\t\t{\\n \n      PUSH [tag] 980\t\t\tpgradeable, ERC721URIStorageUp...\n      JUMP \t\t\tpgradeable, ERC721URIStorageUp...\n    tag 1080\t\t\tpgradeable, ERC721URIStorageUp...\n      JUMPDEST \t\t\tpgradeable, ERC721URIStorageUp...\n      SWAP4 \t\t\tusableUpgradeable, ERC721URISt...\n      POP \t\t\tusableUpgradeable, ERC721URISt...\n      PUSH [tag] 1081\t\t\t _nextTokenId;\\n\\n    string p...\n      DUP2 \t\t\tction \n      DUP6 \t\t\t  f\n      PUSH 20\t\t\tRI;\\n\n      DUP7 \t\t\teToke\n      ADD \t\t\t_baseTokenURI;\\n\\n\n      PUSH [tag] 981\t\t\t _nextTokenId;\\n\\n    string p...\n      JUMP \t\t\t _nextTokenId;\\n\\n    string p...\n    tag 1081\t\t\t _nextTokenId;\\n\\n    string p...\n      JUMPDEST \t\t\t _nextTokenId;\\n\\n    string p...\n      PUSH [tag] 1082\t\t\taseURI) external onlyOwner {\\n\n      DUP2 \t\t\twner {\n      PUSH [tag] 982\t\t\taseURI) external onlyOwner {\\n\n      JUMP \t\t\taseURI) external onlyOwner {\\n\n    tag 1082\t\t\taseURI) external onlyOwner {\\n\n      JUMPDEST \t\t\taseURI) external onlyOwner {\\n\n      DUP5 \t\t\tory\n      ADD \t\t\t memory baseURI) external only...\n      SWAP2 \t\t\t(string memory baseURI) extern...\n      POP \t\t\t(string memory baseURI) extern...\n      POP \t\t\tble, ERC721ConsecutiveUpgradea...\n      SWAP3 \t\t\tControlEnumerableUpgradeable, ...\n      SWAP2 \t\t\tControlEnumerableUpgradeable, ...\n      POP \t\t\tControlEnumerableUpgradeable, ...\n      POP \t\t\tControlEnumerableUpgradeable, ...\n      JUMP \t\t\tControlEnumerableUpgradeable, ...\n    tag 60\t\t\tTokenURI = baseURI;\\n    }\\n  ...\n      JUMPDEST \t\t\tTokenURI = baseURI;\\n    }\\n  ...\n      PUSH 0\t\t\tisab\n      PUSH 20\t\t\tio\n      DUP3 \t\t\t\\n\\n    fun\n      ADD \t\t\t   }\\n\\n    function\n      SWAP1 \t\t\ters();\\n    }\\n\\n    function\n      POP \t\t\ters();\\n    }\\n\\n    function\n      DUP2 \t\t\tpublic {\\n\n      DUP2 \t\t\tlize\n      SUB \t\t\titializer public {\\n \n      PUSH 0\t\t\t)\n      DUP4 \t\t\tnitialown\n      ADD \t\t\tss initialowner) \n      MSTORE \t\t\te(address initialowner) initia...\n      PUSH [tag] 1084\t\t\tit(\"SCUMWalkers\", \"SW\");\\n    ...\n      DUP2 \t\t\t721U\n      DUP5 \t\t\t    __\n      PUSH [tag] 983\t\t\tit(\"SCUMWalkers\", \"SW\");\\n    ...\n      JUMP \t\t\tit(\"SCUMWalkers\", \"SW\");\\n    ...\n    tag 1084\t\t\tit(\"SCUMWalkers\", \"SW\");\\n    ...\n      JUMPDEST \t\t\tit(\"SCUMWalkers\", \"SW\");\\n    ...\n      SWAP1 \t\t\tRC721_init(\"SCUMWalkers\", \"SW\"...\n      POP \t\t\tRC721_init(\"SCUMWalkers\", \"SW\"...\n      SWAP3 \t\t\tTokenURI = baseURI;\\n    }\\n  ...\n      SWAP2 \t\t\tTokenURI = baseURI;\\n    }\\n  ...\n      POP \t\t\tTokenURI = baseURI;\\n    }\\n  ...\n      POP \t\t\tTokenURI = baseURI;\\n    }\\n  ...\n      JUMP \t\t\tTokenURI = baseURI;\\n    }\\n  ...\n    tag 984\t\t\t();\\n        __ERC721Pausable_...\n      JUMPDEST \t\t\t();\\n        __ERC721Pausable_...\n      PUSH 0\t\t\t       \n      DUP2 \t\t\tlowne\n      SWAP1 \t\t\tinit(initialowne\n      POP \t\t\tinit(initialowne\n      SWAP2 \t\t\t();\\n        __ERC721Pausable_...\n      SWAP1 \t\t\t();\\n        __ERC721Pausable_...\n      POP \t\t\t();\\n        __ERC721Pausable_...\n      JUMP \t\t\t();\\n        __ERC721Pausable_...\n    tag 985\t\t\t__UUPSUpgradeable_init();\\n   ...\n      JUMPDEST \t\t\t__UUPSUpgradeable_init();\\n   ...\n      PUSH [tag] 1087\t\t\t}\\n\\n    function pause() \n      DUP2 \t\t\tuse()\n      PUSH [tag] 984\t\t\t}\\n\\n    function pause() \n      JUMP \t\t\t}\\n\\n    function pause() \n    tag 1087\t\t\t}\\n\\n    function pause() \n      JUMPDEST \t\t\t}\\n\\n    function pause() \n      DUP2 \t\t\t);\\n  \n      EQ \t\t\t\"1\");\\n    }\\n\\n    function p...\n      PUSH [tag] 1088\t\t\tWalkers\", \"1\");\\n    }\\n\\n    ...\n      JUMPI \t\t\tWalkers\", \"1\");\\n    }\\n\\n    ...\n      PUSH 0\t\t\tr\n      DUP1 \t\t\tw\n      REVERT \t\t\tc onlyOwner \n    tag 1088\t\t\tWalkers\", \"1\");\\n    }\\n\\n    ...\n      JUMPDEST \t\t\tWalkers\", \"1\");\\n    }\\n\\n    ...\n      POP \t\t\t__UUPSUpgradeable_init();\\n   ...\n      JUMP \t\t\t__UUPSUpgradeable_init();\\n   ...\n    tag 986\t\t\tse();\\n    }\\n\\n    function u...\n      JUMPDEST \t\t\tse();\\n    }\\n\\n    function u...\n      PUSH 0\t\t\tyOwne\n      DUP2 \t\t\tnction\n      CALLDATALOAD \t\t\t();\\n    }\\n\\nfunction \n      SWAP1 \t\t\t _unpause();\\n    }\\n\\nfunctio...\n      POP \t\t\t _unpause();\\n    }\\n\\nfunctio...\n      PUSH [tag] 1090\t\t\teUpgrade(address _newImplement...\n      DUP2 \t\t\tentat\n      PUSH [tag] 985\t\t\teUpgrade(address _newImplement...\n      JUMP \t\t\teUpgrade(address _newImplement...\n    tag 1090\t\t\teUpgrade(address _newImplement...\n      JUMPDEST \t\t\teUpgrade(address _newImplement...\n      SWAP3 \t\t\tse();\\n    }\\n\\n    function u...\n      SWAP2 \t\t\tse();\\n    }\\n\\n    function u...\n      POP \t\t\tse();\\n    }\\n\\n    function u...\n      POP \t\t\tse();\\n    }\\n\\n    function u...\n      JUMP \t\t\tse();\\n    }\\n\\n    function u...\n    tag 64\t\t\t override onlyOwner {}\\n\\n\\n  ...\n      JUMPDEST \t\t\t override onlyOwner {}\\n\\n\\n  ...\n      PUSH 0\t\t\tstring\n      PUSH 20\t\t\tt2\n      DUP3 \t\t\t\\n        \n      DUP5 \t\t\tlyOwner\n      SUB \t\t\tc onlyOwner {\\n        u\n      SLT \t\t\tublic onlyOwner {\\n        uin...\n      ISZERO \t\t\t) public onlyOwner {\\n        ...\n      PUSH [tag] 1092\t\t\t) public onlyOwner {\\n        ...\n      JUMPI \t\t\t) public onlyOwner {\\n        ...\n      PUSH [tag] 1093\t\t\tokenId = _nextTokenId++;\\n    ...\n      PUSH [tag] 972\t\t\tokenId = _nextTokenId++;\\n    ...\n      JUMP \t\t\tokenId = _nextTokenId++;\\n    ...\n    tag 1093\t\t\tokenId = _nextTokenId++;\\n    ...\n      JUMPDEST \t\t\tokenId = _nextTokenId++;\\n    ...\n    tag 1092\t\t\t) public onlyOwner {\\n        ...\n      JUMPDEST \t\t\t) public onlyOwner {\\n        ...\n      PUSH 0\t\t\tf\n      PUSH [tag] 1094\t\t\tal view override(ERC721Upgrade...\n      DUP5 \t\t\tsecutiv\n      DUP3 \t\t\tERC721\n      DUP6 \t\t\tgradeable\n      ADD \t\t\t21Upgradeable, ERC721C\n      PUSH [tag] 986\t\t\tal view override(ERC721Upgrade...\n      JUMP \t\t\tal view override(ERC721Upgrade...\n    tag 1094\t\t\tal view override(ERC721Upgrade...\n      JUMPDEST \t\t\tal view override(ERC721Upgrade...\n      SWAP2 \t\t\tId) internal view override(ERC...\n      POP \t\t\tId) internal view override(ERC...\n      POP \t\t\t;\\n    }\\n\\n    function _owne...\n      SWAP3 \t\t\t override onlyOwner {}\\n\\n\\n  ...\n      SWAP2 \t\t\t override onlyOwner {}\\n\\n\\n  ...\n      POP \t\t\t override onlyOwner {}\\n\\n\\n  ...\n      POP \t\t\t override onlyOwner {}\\n\\n\\n  ...\n      JUMP \t\t\t override onlyOwner {}\\n\\n\\n  ...\n    tag 987\t\t\tddress) {\\n    // Add your imp...\n      JUMPDEST \t\t\tddress) {\\n    // Add your imp...\n      PUSH 0\t\t\tion log\n      PUSH FFFFFFFFFFFFFFFFFFFFFFFFFFFFFFFFFFFFFFFF\t\t\tble._ownerOf(tokenId);\\n}\\n\\n ...\n      DUP3 \t\t\tpgrad\n      AND \t\t\t721Upgradeable._ownerOf(tokenI...\n      SWAP1 \t\t\t return ERC721Upgradeable._own...\n      POP \t\t\t return ERC721Upgradeable._own...\n      SWAP2 \t\t\tddress) {\\n    // Add your imp...\n      SWAP1 \t\t\tddress) {\\n    // Add your imp...\n      POP \t\t\tddress) {\\n    // Add your imp...\n      JUMP \t\t\tddress) {\\n    // Add your imp...\n    tag 988\t\t\ts are overrides required by So...\n      JUMPDEST \t\t\ts are overrides required by So...\n      PUSH 0\t\t\t\\n\\n    f\n      PUSH [tag] 1097\t\t\ts to, uint256 tokenId, a\n      DUP3 \t\t\tnId, \n      PUSH [tag] 987\t\t\ts to, uint256 tokenId, a\n      JUMP \t\t\ts to, uint256 tokenId, a\n    tag 1097\t\t\ts to, uint256 tokenId, a\n      JUMPDEST \t\t\ts to, uint256 tokenId, a\n      SWAP1 \t\t\tdate(address to, uint256 token...\n      POP \t\t\tdate(address to, uint256 token...\n      SWAP2 \t\t\ts are overrides required by So...\n      SWAP1 \t\t\ts are overrides required by So...\n      POP \t\t\ts are overrides required by So...\n      JUMP \t\t\ts are overrides required by So...\n    tag 989\t\t\t\\n        internal\\n        ov...\n      JUMPDEST \t\t\t\\n        internal\\n        ov...\n      PUSH [tag] 1099\t\t\teable, ERC721PausableUpg\n      DUP2 \t\t\tbleUp\n      PUSH [tag] 988\t\t\teable, ERC721PausableUpg\n      JUMP \t\t\teable, ERC721PausableUpg\n    tag 1099\t\t\teable, ERC721PausableUpg\n      JUMPDEST \t\t\teable, ERC721PausableUpg\n      DUP3 \t\t\tpgr\n      MSTORE \t\t\terableUpgradeable, ERC721Pausa...\n      POP \t\t\t\\n        internal\\n        ov...\n      POP \t\t\t\\n        internal\\n        ov...\n      JUMP \t\t\t\\n        internal\\n        ov...\n    tag 67\t\t\t721Upgradeable)\\n        retur...\n      JUMPDEST \t\t\t721Upgradeable)\\n        retur...\n      PUSH 0\t\t\th);\\n\n      PUSH 20\t\t\tce\n      DUP3 \t\t\tcreaseBal\n      ADD \t\t\t _increaseBalance(\n      SWAP1 \t\t\tfunction _increaseBalance(\n      POP \t\t\tfunction _increaseBalance(\n      PUSH [tag] 1101\t\t\tcount, uint128 value)\\n       ...\n      PUSH 0\t\t\te\n      DUP4 \t\t\tRC721Upgr\n      ADD \t\t\tde(ERC721Upgradea\n      DUP5 \t\t\t   ove\n      PUSH [tag] 989\t\t\tcount, uint128 value)\\n       ...\n      JUMP \t\t\tcount, uint128 value)\\n       ...\n    tag 1101\t\t\tcount, uint128 value)\\n       ...\n      JUMPDEST \t\t\tcount, uint128 value)\\n       ...\n      SWAP3 \t\t\t721Upgradeable)\\n        retur...\n      SWAP2 \t\t\t721Upgradeable)\\n        retur...\n      POP \t\t\t721Upgradeable)\\n        retur...\n      POP \t\t\t721Upgradeable)\\n        retur...\n      JUMP \t\t\t721Upgradeable)\\n        retur...\n    tag 990\t\t\tmerableUpgradeable)\\n    {\\n  ...\n      JUMPDEST \t\t\tmerableUpgradeable)\\n    {\\n  ...\n      PUSH [tag] 1103\t\t\t\\n    }\\n\\n    function _Ba\n      DUP2 \t\t\ton _B\n      PUSH [tag] 988\t\t\t\\n    }\\n\\n    function _Ba\n      JUMP \t\t\t\\n    }\\n\\n    function _Ba\n    tag 1103\t\t\t\\n    }\\n\\n    function _Ba\n      JUMPDEST \t\t\t\\n    }\\n\\n    function _Ba\n      DUP2 \t\t\tvalue\n      EQ \t\t\tt, value);\\n    }\\n\\n    funct...\n      PUSH [tag] 1104\t\t\tnce(account, value);\\n    }\\n\\...\n      JUMPI \t\t\tnce(account, value);\\n    }\\n\\...\n      PUSH 0\t\t\tv\n      DUP1 \t\t\ti\n      REVERT \t\t\t() public vi\n    tag 1104\t\t\tnce(account, value);\\n    }\\n\\...\n      JUMPDEST \t\t\tnce(account, value);\\n    }\\n\\...\n      POP \t\t\tmerableUpgradeable)\\n    {\\n  ...\n      JUMP \t\t\tmerableUpgradeable)\\n    {\\n  ...\n    tag 991\t\t\tring memory) {\\n        return...\n      JUMPDEST \t\t\tring memory) {\\n        return...\n      PUSH 0\t\t\t   }\\n\n      DUP2 \t\t\t6 toke\n      CALLDATALOAD \t\t\tkenURI(uint256 token\n      SWAP1 \t\t\tnction tokenURI(uint256 token\n      POP \t\t\tnction tokenURI(uint256 token\n      PUSH [tag] 1106\t\t\t   public\\n        view\\n     ...\n      DUP2 \t\t\t    o\n      PUSH [tag] 990\t\t\t   public\\n        view\\n     ...\n      JUMP \t\t\t   public\\n        view\\n     ...\n    tag 1106\t\t\t   public\\n        view\\n     ...\n      JUMPDEST \t\t\t   public\\n        view\\n     ...\n      SWAP3 \t\t\tring memory) {\\n        return...\n      SWAP2 \t\t\tring memory) {\\n        return...\n      POP \t\t\tring memory) {\\n        return...\n      POP \t\t\tring memory) {\\n        return...\n      JUMP \t\t\tring memory) {\\n        return...\n    tag 71\t\t\t1Upgradeable, ERC721URIStorage...\n      JUMPDEST \t\t\t1Upgradeable, ERC721URIStorage...\n      PUSH 0\t\t\temory)\n      DUP1 \t\t\t   {\\n \n      PUSH 40\t\t\t}\\n\n      DUP4 \t\t\tkenId);\\n \n      DUP6 \t\t\tkenURI(\n      SUB \t\t\tr.tokenURI(tokenId);\\n  \n      SLT \t\t\tsuper.tokenURI(tokenId);\\n    ...\n      ISZERO \t\t\trn super.tokenURI(tokenId);\\n ...\n      PUSH [tag] 1108\t\t\trn super.tokenURI(tokenId);\\n ...\n      JUMPI \t\t\trn super.tokenURI(tokenId);\\n ...\n      PUSH [tag] 1109\t\t\t function supportsInterface(by...\n      PUSH [tag] 972\t\t\t function supportsInterface(by...\n      JUMP \t\t\t function supportsInterface(by...\n    tag 1109\t\t\t function supportsInterface(by...\n      JUMPDEST \t\t\t function supportsInterface(by...\n    tag 1108\t\t\trn super.tokenURI(tokenId);\\n ...\n      JUMPDEST \t\t\trn super.tokenURI(tokenId);\\n ...\n      PUSH 0\t\t\ta\n      PUSH [tag] 1110\t\t\tle, ERC721Upgradeable, ERC721E...\n      DUP6 \t\t\teable, \n      DUP3 \t\t\tbleUpg\n      DUP7 \t\t\tC721Enume\n      ADD \t\t\t, ERC721EnumerableUpgr\n      PUSH [tag] 991\t\t\tle, ERC721Upgradeable, ERC721E...\n      JUMP \t\t\tle, ERC721Upgradeable, ERC721E...\n    tag 1110\t\t\tle, ERC721Upgradeable, ERC721E...\n      JUMPDEST \t\t\tle, ERC721Upgradeable, ERC721E...\n      SWAP3 \t\t\t1Upgradeable, ERC721Upgradeabl...\n      POP \t\t\t1Upgradeable, ERC721Upgradeabl...\n      POP \t\t\te(AccessControlEnumerableUpgra...\n      PUSH 20\t\t\t)\\n\n      PUSH [tag] 1111\t\t\ter.supportsInterface(interface...\n      DUP6 \t\t\t\n      DUP3 \t\t\t   }\\n}\n      DUP7 \t\t\trfaceId);\n      ADD \t\t\tinterfaceId);\\n    }\\n}\\n\n      PUSH [tag] 986\t\t\ter.supportsInterface(interface...\n      JUMP \t\t\ter.supportsInterface(interface...\n    tag 1111\t\t\ter.supportsInterface(interface...\n      JUMPDEST \t\t\ter.supportsInterface(interface...\n      SWAP2 \t\t\treturn super.supportsInterface...\n      POP \t\t\treturn super.supportsInterface...\n      POP \t\t\tdeable)\\n        returns (bool...\n      SWAP3 \t\t\t1Upgradeable, ERC721URIStorage...\n      POP \t\t\t1Upgradeable, ERC721URIStorage...\n      SWAP3 \t\t\t1Upgradeable, ERC721URIStorage...\n      SWAP1 \t\t\t1Upgradeable, ERC721URIStorage...\n      POP \t\t\t1Upgradeable, ERC721URIStorage...\n      JUMP \t\t\t1Upgradeable, ERC721URIStorage...\n    tag 992\t\t\t\n      JUMPDEST \t\t\t\n      PUSH [tag] 1113\t\t\t\n      DUP2 \t\t\t\n      PUSH [tag] 984\t\t\t\n      JUMP \t\t\t\n    tag 1113\t\t\t\n      JUMPDEST \t\t\t\n      DUP3 \t\t\t\n      MSTORE \t\t\t\n      POP \t\t\t\n      POP \t\t\t\n      JUMP \t\t\t\n    tag 77\t\t\t\n      JUMPDEST \t\t\t\n      PUSH 0\t\t\t\n      PUSH 20\t\t\t\n      DUP3 \t\t\t\n      ADD \t\t\t\n      SWAP1 \t\t\t\n      POP \t\t\t\n      PUSH [tag] 1115\t\t\t\n      PUSH 0\t\t\t\n      DUP4 \t\t\t\n      ADD \t\t\t\n      DUP5 \t\t\t\n      PUSH [tag] 992\t\t\t\n      JUMP \t\t\t\n    tag 1115\t\t\t\n      JUMPDEST \t\t\t\n      SWAP3 \t\t\t\n      SWAP2 \t\t\t\n      POP \t\t\t\n      POP \t\t\t\n      JUMP \t\t\t\n    tag 81\t\t\t\n      JUMPDEST \t\t\t\n      PUSH 0\t\t\t\n      DUP1 \t\t\t\n      PUSH 0\t\t\t\n      PUSH 60\t\t\t\n      DUP5 \t\t\t\n      DUP7 \t\t\t\n      SUB \t\t\t\n      SLT \t\t\t\n      ISZERO \t\t\t\n      PUSH [tag] 1117\t\t\t\n      JUMPI \t\t\t\n      PUSH [tag] 1118\t\t\t\n      PUSH [tag] 972\t\t\t\n      JUMP \t\t\t\n    tag 1118\t\t\t\n      JUMPDEST \t\t\t\n    tag 1117\t\t\t\n      JUMPDEST \t\t\t\n      PUSH 0\t\t\t\n      PUSH [tag] 1119\t\t\t\n      DUP7 \t\t\t\n      DUP3 \t\t\t\n      DUP8 \t\t\t\n      ADD \t\t\t\n      PUSH [tag] 991\t\t\t\n      JUMP \t\t\t\n    tag 1119\t\t\t\n      JUMPDEST \t\t\t\n      SWAP4 \t\t\t\n      POP \t\t\t\n      POP \t\t\t\n      PUSH 20\t\t\t\n      PUSH [tag] 1120\t\t\t\n      DUP7 \t\t\t\n      DUP3 \t\t\t\n      DUP8 \t\t\t\n      ADD \t\t\t\n      PUSH [tag] 991\t\t\t\n      JUMP \t\t\t\n    tag 1120\t\t\t\n      JUMPDEST \t\t\t\n      SWAP3 \t\t\t\n      POP \t\t\t\n      POP \t\t\t\n      PUSH 40\t\t\t\n      PUSH [tag] 1121\t\t\t\n      DUP7 \t\t\t\n      DUP3 \t\t\t\n      DUP8 \t\t\t\n      ADD \t\t\t\n      PUSH [tag] 986\t\t\t\n      JUMP \t\t\t\n    tag 1121\t\t\t\n      JUMPDEST \t\t\t\n      SWAP2 \t\t\t\n      POP \t\t\t\n      POP \t\t\t\n      SWAP3 \t\t\t\n      POP \t\t\t\n      SWAP3 \t\t\t\n      POP \t\t\t\n      SWAP3 \t\t\t\n      JUMP \t\t\t\n    tag 993\t\t\t\n      JUMPDEST \t\t\t\n      PUSH 0\t\t\t\n      DUP2 \t\t\t\n      SWAP1 \t\t\t\n      POP \t\t\t\n      SWAP2 \t\t\t\n      SWAP1 \t\t\t\n      POP \t\t\t\n      JUMP \t\t\t\n    tag 994\t\t\t\n      JUMPDEST \t\t\t\n      PUSH [tag] 1124\t\t\t\n      DUP2 \t\t\t\n      PUSH [tag] 993\t\t\t\n      JUMP \t\t\t\n    tag 1124\t\t\t\n      JUMPDEST \t\t\t\n      DUP2 \t\t\t\n      EQ \t\t\t\n      PUSH [tag] 1125\t\t\t\n      JUMPI \t\t\t\n      PUSH 0\t\t\t\n      DUP1 \t\t\t\n      REVERT \t\t\t\n    tag 1125\t\t\t\n      JUMPDEST \t\t\t\n      POP \t\t\t\n      JUMP \t\t\t\n    tag 995\t\t\t\n      JUMPDEST \t\t\t\n      PUSH 0\t\t\t\n      DUP2 \t\t\t\n      CALLDATALOAD \t\t\t\n      SWAP1 \t\t\t\n      POP \t\t\t\n      PUSH [tag] 1127\t\t\t\n      DUP2 \t\t\t\n      PUSH [tag] 994\t\t\t\n      JUMP \t\t\t\n    tag 1127\t\t\t\n      JUMPDEST \t\t\t\n      SWAP3 \t\t\t\n      SWAP2 \t\t\t\n      POP \t\t\t\n      POP \t\t\t\n      JUMP \t\t\t\n    tag 86\t\t\t\n      JUMPDEST \t\t\t\n      PUSH 0\t\t\t\n      PUSH 20\t\t\t\n      DUP3 \t\t\t\n      DUP5 \t\t\t\n      SUB \t\t\t\n      SLT \t\t\t\n      ISZERO \t\t\t\n      PUSH [tag] 1129\t\t\t\n      JUMPI \t\t\t\n      PUSH [tag] 1130\t\t\t\n      PUSH [tag] 972\t\t\t\n      JUMP \t\t\t\n    tag 1130\t\t\t\n      JUMPDEST \t\t\t\n    tag 1129\t\t\t\n      JUMPDEST \t\t\t\n      PUSH 0\t\t\t\n      PUSH [tag] 1131\t\t\t\n      DUP5 \t\t\t\n      DUP3 \t\t\t\n      DUP6 \t\t\t\n      ADD \t\t\t\n      PUSH [tag] 995\t\t\t\n      JUMP \t\t\t\n    tag 1131\t\t\t\n      JUMPDEST \t\t\t\n      SWAP2 \t\t\t\n      POP \t\t\t\n      POP \t\t\t\n      SWAP3 \t\t\t\n      SWAP2 \t\t\t\n      POP \t\t\t\n      POP \t\t\t\n      JUMP \t\t\t\n    tag 996\t\t\t\n      JUMPDEST \t\t\t\n      PUSH [tag] 1133\t\t\t\n      DUP2 \t\t\t\n      PUSH [tag] 993\t\t\t\n      JUMP \t\t\t\n    tag 1133\t\t\t\n      JUMPDEST \t\t\t\n      DUP3 \t\t\t\n      MSTORE \t\t\t\n      POP \t\t\t\n      POP \t\t\t\n      JUMP \t\t\t\n    tag 89\t\t\t\n      JUMPDEST \t\t\t\n      PUSH 0\t\t\t\n      PUSH 20\t\t\t\n      DUP3 \t\t\t\n      ADD \t\t\t\n      SWAP1 \t\t\t\n      POP \t\t\t\n      PUSH [tag] 1135\t\t\t\n      PUSH 0\t\t\t\n      DUP4 \t\t\t\n      ADD \t\t\t\n      DUP5 \t\t\t\n      PUSH [tag] 996\t\t\t\n      JUMP \t\t\t\n    tag 1135\t\t\t\n      JUMPDEST \t\t\t\n      SWAP3 \t\t\t\n      SWAP2 \t\t\t\n      POP \t\t\t\n      POP \t\t\t\n      JUMP \t\t\t\n    tag 93\t\t\t\n      JUMPDEST \t\t\t\n      PUSH 0\t\t\t\n      DUP1 \t\t\t\n      PUSH 40\t\t\t\n      DUP4 \t\t\t\n      DUP6 \t\t\t\n      SUB \t\t\t\n      SLT \t\t\t\n      ISZERO \t\t\t\n      PUSH [tag] 1137\t\t\t\n      JUMPI \t\t\t\n      PUSH [tag] 1138\t\t\t\n      PUSH [tag] 972\t\t\t\n      JUMP \t\t\t\n    tag 1138\t\t\t\n      JUMPDEST \t\t\t\n    tag 1137\t\t\t\n      JUMPDEST \t\t\t\n      PUSH 0\t\t\t\n      PUSH [tag] 1139\t\t\t\n      DUP6 \t\t\t\n      DUP3 \t\t\t\n      DUP7 \t\t\t\n      ADD \t\t\t\n      PUSH [tag] 986\t\t\t\n      JUMP \t\t\t\n    tag 1139\t\t\t\n      JUMPDEST \t\t\t\n      SWAP3 \t\t\t\n      POP \t\t\t\n      POP \t\t\t\n      PUSH 20\t\t\t\n      PUSH [tag] 1140\t\t\t\n      DUP6 \t\t\t\n      DUP3 \t\t\t\n      DUP7 \t\t\t\n      ADD \t\t\t\n      PUSH [tag] 986\t\t\t\n      JUMP \t\t\t\n    tag 1140\t\t\t\n      JUMPDEST \t\t\t\n      SWAP2 \t\t\t\n      POP \t\t\t\n      POP \t\t\t\n      SWAP3 \t\t\t\n      POP \t\t\t\n      SWAP3 \t\t\t\n      SWAP1 \t\t\t\n      POP \t\t\t\n      JUMP \t\t\t\n    tag 96\t\t\t\n      JUMPDEST \t\t\t\n      PUSH 0\t\t\t\n      PUSH 40\t\t\t\n      DUP3 \t\t\t\n      ADD \t\t\t\n      SWAP1 \t\t\t\n      POP \t\t\t\n      PUSH [tag] 1142\t\t\t\n      PUSH 0\t\t\t\n      DUP4 \t\t\t\n      ADD \t\t\t\n      DUP6 \t\t\t\n      PUSH [tag] 989\t\t\t\n      JUMP \t\t\t\n    tag 1142\t\t\t\n      JUMPDEST \t\t\t\n      PUSH [tag] 1143\t\t\t\n      PUSH 20\t\t\t\n      DUP4 \t\t\t\n      ADD \t\t\t\n      DUP5 \t\t\t\n      PUSH [tag] 992\t\t\t\n      JUMP \t\t\t\n    tag 1143\t\t\t\n      JUMPDEST \t\t\t\n      SWAP4 \t\t\t\n      SWAP3 \t\t\t\n      POP \t\t\t\n      POP \t\t\t\n      POP \t\t\t\n      JUMP \t\t\t\n    tag 100\t\t\t\n      JUMPDEST \t\t\t\n      PUSH 0\t\t\t\n      DUP1 \t\t\t\n      PUSH 40\t\t\t\n      DUP4 \t\t\t\n      DUP6 \t\t\t\n      SUB \t\t\t\n      SLT \t\t\t\n      ISZERO \t\t\t\n      PUSH [tag] 1145\t\t\t\n      JUMPI \t\t\t\n      PUSH [tag] 1146\t\t\t\n      PUSH [tag] 972\t\t\t\n      JUMP \t\t\t\n    tag 1146\t\t\t\n      JUMPDEST \t\t\t\n    tag 1145\t\t\t\n      JUMPDEST \t\t\t\n      PUSH 0\t\t\t\n      PUSH [tag] 1147\t\t\t\n      DUP6 \t\t\t\n      DUP3 \t\t\t\n      DUP7 \t\t\t\n      ADD \t\t\t\n      PUSH [tag] 995\t\t\t\n      JUMP \t\t\t\n    tag 1147\t\t\t\n      JUMPDEST \t\t\t\n      SWAP3 \t\t\t\n      POP \t\t\t\n      POP \t\t\t\n      PUSH 20\t\t\t\n      PUSH [tag] 1148\t\t\t\n      DUP6 \t\t\t\n      DUP3 \t\t\t\n      DUP7 \t\t\t\n      ADD \t\t\t\n      PUSH [tag] 991\t\t\t\n      JUMP \t\t\t\n    tag 1148\t\t\t\n      JUMPDEST \t\t\t\n      SWAP2 \t\t\t\n      POP \t\t\t\n      POP \t\t\t\n      SWAP3 \t\t\t\n      POP \t\t\t\n      SWAP3 \t\t\t\n      SWAP1 \t\t\t\n      POP \t\t\t\n      JUMP \t\t\t\n    tag 997\t\t\t\n      JUMPDEST \t\t\t\n      PUSH 0\t\t\t\n      DUP1 \t\t\t\n      REVERT \t\t\t\n    tag 998\t\t\t\n      JUMPDEST \t\t\t\n      PUSH 0\t\t\t\n      DUP1 \t\t\t\n      REVERT \t\t\t\n    tag 373\t\t\t\n      JUMPDEST \t\t\t\n      PUSH 4E487B7100000000000000000000000000000000000000000000000000000000\t\t\t\n      PUSH 0\t\t\t\n      MSTORE \t\t\t\n      PUSH 41\t\t\t\n      PUSH 4\t\t\t\n      MSTORE \t\t\t\n      PUSH 24\t\t\t\n      PUSH 0\t\t\t\n      REVERT \t\t\t\n    tag 999\t\t\t\n      JUMPDEST \t\t\t\n      PUSH [tag] 1153\t\t\t\n      DUP3 \t\t\t\n      PUSH [tag] 982\t\t\t\n      JUMP \t\t\t\n    tag 1153\t\t\t\n      JUMPDEST \t\t\t\n      DUP2 \t\t\t\n      ADD \t\t\t\n      DUP2 \t\t\t\n      DUP2 \t\t\t\n      LT \t\t\t\n      PUSH FFFFFFFFFFFFFFFF\t\t\t\n      DUP3 \t\t\t\n      GT \t\t\t\n      OR \t\t\t\n      ISZERO \t\t\t\n      PUSH [tag] 1154\t\t\t\n      JUMPI \t\t\t\n      PUSH [tag] 1155\t\t\t\n      PUSH [tag] 373\t\t\t\n      JUMP \t\t\t\n    tag 1155\t\t\t\n      JUMPDEST \t\t\t\n    tag 1154\t\t\t\n      JUMPDEST \t\t\t\n      DUP1 \t\t\t\n      PUSH 40\t\t\t\n      MSTORE \t\t\t\n      POP \t\t\t\n      POP \t\t\t\n      POP \t\t\t\n      JUMP \t\t\t\n    tag 1000\t\t\t\n      JUMPDEST \t\t\t\n      PUSH 0\t\t\t\n      PUSH [tag] 1157\t\t\t\n      PUSH [tag] 971\t\t\t\n      JUMP \t\t\t\n    tag 1157\t\t\t\n      JUMPDEST \t\t\t\n      SWAP1 \t\t\t\n      POP \t\t\t\n      PUSH [tag] 1158\t\t\t\n      DUP3 \t\t\t\n      DUP3 \t\t\t\n      PUSH [tag] 999\t\t\t\n      JUMP \t\t\t\n    tag 1158\t\t\t\n      JUMPDEST \t\t\t\n      SWAP2 \t\t\t\n      SWAP1 \t\t\t\n      POP \t\t\t\n      JUMP \t\t\t\n    tag 1001\t\t\t\n      JUMPDEST \t\t\t\n      PUSH 0\t\t\t\n      PUSH FFFFFFFFFFFFFFFF\t\t\t\n      DUP3 \t\t\t\n      GT \t\t\t\n      ISZERO \t\t\t\n      PUSH [tag] 1160\t\t\t\n      JUMPI \t\t\t\n      PUSH [tag] 1161\t\t\t\n      PUSH [tag] 373\t\t\t\n      JUMP \t\t\t\n    tag 1161\t\t\t\n      JUMPDEST \t\t\t\n    tag 1160\t\t\t\n      JUMPDEST \t\t\t\n      PUSH [tag] 1162\t\t\t\n      DUP3 \t\t\t\n      PUSH [tag] 982\t\t\t\n      JUMP \t\t\t\n    tag 1162\t\t\t\n      JUMPDEST \t\t\t\n      SWAP1 \t\t\t\n      POP \t\t\t\n      PUSH 20\t\t\t\n      DUP2 \t\t\t\n      ADD \t\t\t\n      SWAP1 \t\t\t\n      POP \t\t\t\n      SWAP2 \t\t\t\n      SWAP1 \t\t\t\n      POP \t\t\t\n      JUMP \t\t\t\n    tag 1002\t\t\t\n      JUMPDEST \t\t\t\n      DUP3 \t\t\t\n      DUP2 \t\t\t\n      DUP4 \t\t\t\n      CALLDATACOPY \t\t\t\n      PUSH 0\t\t\t\n      DUP4 \t\t\t\n      DUP4 \t\t\t\n      ADD \t\t\t\n      MSTORE \t\t\t\n      POP \t\t\t\n      POP \t\t\t\n      POP \t\t\t\n      JUMP \t\t\t\n    tag 1003\t\t\t\n      JUMPDEST \t\t\t\n      PUSH 0\t\t\t\n      PUSH [tag] 1165\t\t\t\n      PUSH [tag] 1166\t\t\t\n      DUP5 \t\t\t\n      PUSH [tag] 1001\t\t\t\n      JUMP \t\t\t\n    tag 1166\t\t\t\n      JUMPDEST \t\t\t\n      PUSH [tag] 1000\t\t\t\n      JUMP \t\t\t\n    tag 1165\t\t\t\n      JUMPDEST \t\t\t\n      SWAP1 \t\t\t\n      POP \t\t\t\n      DUP3 \t\t\t\n      DUP2 \t\t\t\n      MSTORE \t\t\t\n      PUSH 20\t\t\t\n      DUP2 \t\t\t\n      ADD \t\t\t\n      DUP5 \t\t\t\n      DUP5 \t\t\t\n      DUP5 \t\t\t\n      ADD \t\t\t\n      GT \t\t\t\n      ISZERO \t\t\t\n      PUSH [tag] 1167\t\t\t\n      JUMPI \t\t\t\n      PUSH [tag] 1168\t\t\t\n      PUSH [tag] 998\t\t\t\n      JUMP \t\t\t\n    tag 1168\t\t\t\n      JUMPDEST \t\t\t\n    tag 1167\t\t\t\n      JUMPDEST \t\t\t\n      PUSH [tag] 1169\t\t\t\n      DUP5 \t\t\t\n      DUP3 \t\t\t\n      DUP6 \t\t\t\n      PUSH [tag] 1002\t\t\t\n      JUMP \t\t\t\n    tag 1169\t\t\t\n      JUMPDEST \t\t\t\n      POP \t\t\t\n      SWAP4 \t\t\t\n      SWAP3 \t\t\t\n      POP \t\t\t\n      POP \t\t\t\n      POP \t\t\t\n      JUMP \t\t\t\n    tag 1004\t\t\t\n      JUMPDEST \t\t\t\n      PUSH 0\t\t\t\n      DUP3 \t\t\t\n      PUSH 1F\t\t\t\n      DUP4 \t\t\t\n      ADD \t\t\t\n      SLT \t\t\t\n      PUSH [tag] 1171\t\t\t\n      JUMPI \t\t\t\n      PUSH [tag] 1172\t\t\t\n      PUSH [tag] 997\t\t\t\n      JUMP \t\t\t\n    tag 1172\t\t\t\n      JUMPDEST \t\t\t\n    tag 1171\t\t\t\n      JUMPDEST \t\t\t\n      DUP2 \t\t\t\n      CALLDATALOAD \t\t\t\n      PUSH [tag] 1173\t\t\t\n      DUP5 \t\t\t\n      DUP3 \t\t\t\n      PUSH 20\t\t\t\n      DUP7 \t\t\t\n      ADD \t\t\t\n      PUSH [tag] 1003\t\t\t\n      JUMP \t\t\t\n    tag 1173\t\t\t\n      JUMPDEST \t\t\t\n      SWAP2 \t\t\t\n      POP \t\t\t\n      POP \t\t\t\n      SWAP3 \t\t\t\n      SWAP2 \t\t\t\n      POP \t\t\t\n      POP \t\t\t\n      JUMP \t\t\t\n    tag 124\t\t\t\n      JUMPDEST \t\t\t\n      PUSH 0\t\t\t\n      DUP1 \t\t\t\n      PUSH 40\t\t\t\n      DUP4 \t\t\t\n      DUP6 \t\t\t\n      SUB \t\t\t\n      SLT \t\t\t\n      ISZERO \t\t\t\n      PUSH [tag] 1175\t\t\t\n      JUMPI \t\t\t\n      PUSH [tag] 1176\t\t\t\n      PUSH [tag] 972\t\t\t\n      JUMP \t\t\t\n    tag 1176\t\t\t\n      JUMPDEST \t\t\t\n    tag 1175\t\t\t\n      JUMPDEST \t\t\t\n      PUSH 0\t\t\t\n      PUSH [tag] 1177\t\t\t\n      DUP6 \t\t\t\n      DUP3 \t\t\t\n      DUP7 \t\t\t\n      ADD \t\t\t\n      PUSH [tag] 991\t\t\t\n      JUMP \t\t\t\n    tag 1177\t\t\t\n      JUMPDEST \t\t\t\n      SWAP3 \t\t\t\n      POP \t\t\t\n      POP \t\t\t\n      PUSH 20\t\t\t\n      DUP4 \t\t\t\n      ADD \t\t\t\n      CALLDATALOAD \t\t\t\n      PUSH FFFFFFFFFFFFFFFF\t\t\t\n      DUP2 \t\t\t\n      GT \t\t\t\n      ISZERO \t\t\t\n      PUSH [tag] 1178\t\t\t\n      JUMPI \t\t\t\n      PUSH [tag] 1179\t\t\t\n      PUSH [tag] 973\t\t\t\n      JUMP \t\t\t\n    tag 1179\t\t\t\n      JUMPDEST \t\t\t\n    tag 1178\t\t\t\n      JUMPDEST \t\t\t\n      PUSH [tag] 1180\t\t\t\n      DUP6 \t\t\t\n      DUP3 \t\t\t\n      DUP7 \t\t\t\n      ADD \t\t\t\n      PUSH [tag] 1004\t\t\t\n      JUMP \t\t\t\n    tag 1180\t\t\t\n      JUMPDEST \t\t\t\n      SWAP2 \t\t\t\n      POP \t\t\t\n      POP \t\t\t\n      SWAP3 \t\t\t\n      POP \t\t\t\n      SWAP3 \t\t\t\n      SWAP1 \t\t\t\n      POP \t\t\t\n      JUMP \t\t\t\n    tag 1005\t\t\t\n      JUMPDEST \t\t\t\n      PUSH 0\t\t\t\n      PUSH FFFFFFFFFFFFFFFF\t\t\t\n      DUP3 \t\t\t\n      GT \t\t\t\n      ISZERO \t\t\t\n      PUSH [tag] 1182\t\t\t\n      JUMPI \t\t\t\n      PUSH [tag] 1183\t\t\t\n      PUSH [tag] 373\t\t\t\n      JUMP \t\t\t\n    tag 1183\t\t\t\n      JUMPDEST \t\t\t\n    tag 1182\t\t\t\n      JUMPDEST \t\t\t\n      PUSH [tag] 1184\t\t\t\n      DUP3 \t\t\t\n      PUSH [tag] 982\t\t\t\n      JUMP \t\t\t\n    tag 1184\t\t\t\n      JUMPDEST \t\t\t\n      SWAP1 \t\t\t\n      POP \t\t\t\n      PUSH 20\t\t\t\n      DUP2 \t\t\t\n      ADD \t\t\t\n      SWAP1 \t\t\t\n      POP \t\t\t\n      SWAP2 \t\t\t\n      SWAP1 \t\t\t\n      POP \t\t\t\n      JUMP \t\t\t\n    tag 1006\t\t\t\n      JUMPDEST \t\t\t\n      PUSH 0\t\t\t\n      PUSH [tag] 1186\t\t\t\n      PUSH [tag] 1187\t\t\t\n      DUP5 \t\t\t\n      PUSH [tag] 1005\t\t\t\n      JUMP \t\t\t\n    tag 1187\t\t\t\n      JUMPDEST \t\t\t\n      PUSH [tag] 1000\t\t\t\n      JUMP \t\t\t\n    tag 1186\t\t\t\n      JUMPDEST \t\t\t\n      SWAP1 \t\t\t\n      POP \t\t\t\n      DUP3 \t\t\t\n      DUP2 \t\t\t\n      MSTORE \t\t\t\n      PUSH 20\t\t\t\n      DUP2 \t\t\t\n      ADD \t\t\t\n      DUP5 \t\t\t\n      DUP5 \t\t\t\n      DUP5 \t\t\t\n      ADD \t\t\t\n      GT \t\t\t\n      ISZERO \t\t\t\n      PUSH [tag] 1188\t\t\t\n      JUMPI \t\t\t\n      PUSH [tag] 1189\t\t\t\n      PUSH [tag] 998\t\t\t\n      JUMP \t\t\t\n    tag 1189\t\t\t\n      JUMPDEST \t\t\t\n    tag 1188\t\t\t\n      JUMPDEST \t\t\t\n      PUSH [tag] 1190\t\t\t\n      DUP5 \t\t\t\n      DUP3 \t\t\t\n      DUP6 \t\t\t\n      PUSH [tag] 1002\t\t\t\n      JUMP \t\t\t\n    tag 1190\t\t\t\n      JUMPDEST \t\t\t\n      POP \t\t\t\n      SWAP4 \t\t\t\n      SWAP3 \t\t\t\n      POP \t\t\t\n      POP \t\t\t\n      POP \t\t\t\n      JUMP \t\t\t\n    tag 1007\t\t\t\n      JUMPDEST \t\t\t\n      PUSH 0\t\t\t\n      DUP3 \t\t\t\n      PUSH 1F\t\t\t\n      DUP4 \t\t\t\n      ADD \t\t\t\n      SLT \t\t\t\n      PUSH [tag] 1192\t\t\t\n      JUMPI \t\t\t\n      PUSH [tag] 1193\t\t\t\n      PUSH [tag] 997\t\t\t\n      JUMP \t\t\t\n    tag 1193\t\t\t\n      JUMPDEST \t\t\t\n    tag 1192\t\t\t\n      JUMPDEST \t\t\t\n      DUP2 \t\t\t\n      CALLDATALOAD \t\t\t\n      PUSH [tag] 1194\t\t\t\n      DUP5 \t\t\t\n      DUP3 \t\t\t\n      PUSH 20\t\t\t\n      DUP7 \t\t\t\n      ADD \t\t\t\n      PUSH [tag] 1006\t\t\t\n      JUMP \t\t\t\n    tag 1194\t\t\t\n      JUMPDEST \t\t\t\n      SWAP2 \t\t\t\n      POP \t\t\t\n      POP \t\t\t\n      SWAP3 \t\t\t\n      SWAP2 \t\t\t\n      POP \t\t\t\n      POP \t\t\t\n      JUMP \t\t\t\n    tag 138\t\t\t\n      JUMPDEST \t\t\t\n      PUSH 0\t\t\t\n      PUSH 20\t\t\t\n      DUP3 \t\t\t\n      DUP5 \t\t\t\n      SUB \t\t\t\n      SLT \t\t\t\n      ISZERO \t\t\t\n      PUSH [tag] 1196\t\t\t\n      JUMPI \t\t\t\n      PUSH [tag] 1197\t\t\t\n      PUSH [tag] 972\t\t\t\n      JUMP \t\t\t\n    tag 1197\t\t\t\n      JUMPDEST \t\t\t\n    tag 1196\t\t\t\n      JUMPDEST \t\t\t\n      PUSH 0\t\t\t\n      DUP3 \t\t\t\n      ADD \t\t\t\n      CALLDATALOAD \t\t\t\n      PUSH FFFFFFFFFFFFFFFF\t\t\t\n      DUP2 \t\t\t\n      GT \t\t\t\n      ISZERO \t\t\t\n      PUSH [tag] 1198\t\t\t\n      JUMPI \t\t\t\n      PUSH [tag] 1199\t\t\t\n      PUSH [tag] 973\t\t\t\n      JUMP \t\t\t\n    tag 1199\t\t\t\n      JUMPDEST \t\t\t\n    tag 1198\t\t\t\n      JUMPDEST \t\t\t\n      PUSH [tag] 1200\t\t\t\n      DUP5 \t\t\t\n      DUP3 \t\t\t\n      DUP6 \t\t\t\n      ADD \t\t\t\n      PUSH [tag] 1007\t\t\t\n      JUMP \t\t\t\n    tag 1200\t\t\t\n      JUMPDEST \t\t\t\n      SWAP2 \t\t\t\n      POP \t\t\t\n      POP \t\t\t\n      SWAP3 \t\t\t\n      SWAP2 \t\t\t\n      POP \t\t\t\n      POP \t\t\t\n      JUMP \t\t\t\n    tag 152\t\t\t\n      JUMPDEST \t\t\t\n      PUSH 0\t\t\t\n      PUSH 20\t\t\t\n      DUP3 \t\t\t\n      DUP5 \t\t\t\n      SUB \t\t\t\n      SLT \t\t\t\n      ISZERO \t\t\t\n      PUSH [tag] 1202\t\t\t\n      JUMPI \t\t\t\n      PUSH [tag] 1203\t\t\t\n      PUSH [tag] 972\t\t\t\n      JUMP \t\t\t\n    tag 1203\t\t\t\n      JUMPDEST \t\t\t\n    tag 1202\t\t\t\n      JUMPDEST \t\t\t\n      PUSH 0\t\t\t\n      PUSH [tag] 1204\t\t\t\n      DUP5 \t\t\t\n      DUP3 \t\t\t\n      DUP6 \t\t\t\n      ADD \t\t\t\n      PUSH [tag] 991\t\t\t\n      JUMP \t\t\t\n    tag 1204\t\t\t\n      JUMPDEST \t\t\t\n      SWAP2 \t\t\t\n      POP \t\t\t\n      POP \t\t\t\n      SWAP3 \t\t\t\n      SWAP2 \t\t\t\n      POP \t\t\t\n      POP \t\t\t\n      JUMP \t\t\t\n    tag 1008\t\t\t\n      JUMPDEST \t\t\t\n      PUSH 0\t\t\t\n      PUSH FF00000000000000000000000000000000000000000000000000000000000000\t\t\t\n      DUP3 \t\t\t\n      AND \t\t\t\n      SWAP1 \t\t\t\n      POP \t\t\t\n      SWAP2 \t\t\t\n      SWAP1 \t\t\t\n      POP \t\t\t\n      JUMP \t\t\t\n    tag 1009\t\t\t\n      JUMPDEST \t\t\t\n      PUSH [tag] 1207\t\t\t\n      DUP2 \t\t\t\n      PUSH [tag] 1008\t\t\t\n      JUMP \t\t\t\n    tag 1207\t\t\t\n      JUMPDEST \t\t\t\n      DUP3 \t\t\t\n      MSTORE \t\t\t\n      POP \t\t\t\n      POP \t\t\t\n      JUMP \t\t\t\n    tag 1010\t\t\t\n      JUMPDEST \t\t\t\n      PUSH 0\t\t\t\n      DUP2 \t\t\t\n      MLOAD \t\t\t\n      SWAP1 \t\t\t\n      POP \t\t\t\n      SWAP2 \t\t\t\n      SWAP1 \t\t\t\n      POP \t\t\t\n      JUMP \t\t\t\n    tag 1011\t\t\t\n      JUMPDEST \t\t\t\n      PUSH 0\t\t\t\n      DUP3 \t\t\t\n      DUP3 \t\t\t\n      MSTORE \t\t\t\n      PUSH 20\t\t\t\n      DUP3 \t\t\t\n      ADD \t\t\t\n      SWAP1 \t\t\t\n      POP \t\t\t\n      SWAP3 \t\t\t\n      SWAP2 \t\t\t\n      POP \t\t\t\n      POP \t\t\t\n      JUMP \t\t\t\n    tag 1012\t\t\t\n      JUMPDEST \t\t\t\n      PUSH 0\t\t\t\n      DUP2 \t\t\t\n      SWAP1 \t\t\t\n      POP \t\t\t\n      PUSH 20\t\t\t\n      DUP3 \t\t\t\n      ADD \t\t\t\n      SWAP1 \t\t\t\n      POP \t\t\t\n      SWAP2 \t\t\t\n      SWAP1 \t\t\t\n      POP \t\t\t\n      JUMP \t\t\t\n    tag 1013\t\t\t\n      JUMPDEST \t\t\t\n      PUSH [tag] 1212\t\t\t\n      DUP2 \t\t\t\n      PUSH [tag] 984\t\t\t\n      JUMP \t\t\t\n    tag 1212\t\t\t\n      JUMPDEST \t\t\t\n      DUP3 \t\t\t\n      MSTORE \t\t\t\n      POP \t\t\t\n      POP \t\t\t\n      JUMP \t\t\t\n    tag 1014\t\t\t\n      JUMPDEST \t\t\t\n      PUSH 0\t\t\t\n      PUSH [tag] 1214\t\t\t\n      DUP4 \t\t\t\n      DUP4 \t\t\t\n      PUSH [tag] 1013\t\t\t\n      JUMP \t\t\t\n    tag 1214\t\t\t\n      JUMPDEST \t\t\t\n      PUSH 20\t\t\t\n      DUP4 \t\t\t\n      ADD \t\t\t\n      SWAP1 \t\t\t\n      POP \t\t\t\n      SWAP3 \t\t\t\n      SWAP2 \t\t\t\n      POP \t\t\t\n      POP \t\t\t\n      JUMP \t\t\t\n    tag 1015\t\t\t\n      JUMPDEST \t\t\t\n      PUSH 0\t\t\t\n      PUSH 20\t\t\t\n      DUP3 \t\t\t\n      ADD \t\t\t\n      SWAP1 \t\t\t\n      POP \t\t\t\n      SWAP2 \t\t\t\n      SWAP1 \t\t\t\n      POP \t\t\t\n      JUMP \t\t\t\n    tag 1016\t\t\t\n      JUMPDEST \t\t\t\n      PUSH 0\t\t\t\n      PUSH [tag] 1217\t\t\t\n      DUP3 \t\t\t\n      PUSH [tag] 1010\t\t\t\n      JUMP \t\t\t\n    tag 1217\t\t\t\n      JUMPDEST \t\t\t\n      PUSH [tag] 1218\t\t\t\n      DUP2 \t\t\t\n      DUP6 \t\t\t\n      PUSH [tag] 1011\t\t\t\n      JUMP \t\t\t\n    tag 1218\t\t\t\n      JUMPDEST \t\t\t\n      SWAP4 \t\t\t\n      POP \t\t\t\n      PUSH [tag] 1219\t\t\t\n      DUP4 \t\t\t\n      PUSH [tag] 1012\t\t\t\n      JUMP \t\t\t\n    tag 1219\t\t\t\n      JUMPDEST \t\t\t\n      DUP1 \t\t\t\n      PUSH 0\t\t\t\n    tag 1220\t\t\t\n      JUMPDEST \t\t\t\n      DUP4 \t\t\t\n      DUP2 \t\t\t\n      LT \t\t\t\n      ISZERO \t\t\t\n      PUSH [tag] 1222\t\t\t\n      JUMPI \t\t\t\n      DUP2 \t\t\t\n      MLOAD \t\t\t\n      PUSH [tag] 1223\t\t\t\n      DUP9 \t\t\t\n      DUP3 \t\t\t\n      PUSH [tag] 1014\t\t\t\n      JUMP \t\t\t\n    tag 1223\t\t\t\n      JUMPDEST \t\t\t\n      SWAP8 \t\t\t\n      POP \t\t\t\n      PUSH [tag] 1224\t\t\t\n      DUP4 \t\t\t\n      PUSH [tag] 1015\t\t\t\n      JUMP \t\t\t\n    tag 1224\t\t\t\n      JUMPDEST \t\t\t\n      SWAP3 \t\t\t\n      POP \t\t\t\n      POP \t\t\t\n      PUSH 1\t\t\t\n      DUP2 \t\t\t\n      ADD \t\t\t\n      SWAP1 \t\t\t\n      POP \t\t\t\n      PUSH [tag] 1220\t\t\t\n      JUMP \t\t\t\n    tag 1222\t\t\t\n      JUMPDEST \t\t\t\n      POP \t\t\t\n      DUP6 \t\t\t\n      SWAP4 \t\t\t\n      POP \t\t\t\n      POP \t\t\t\n      POP \t\t\t\n      POP \t\t\t\n      SWAP3 \t\t\t\n      SWAP2 \t\t\t\n      POP \t\t\t\n      POP \t\t\t\n      JUMP \t\t\t\n    tag 165\t\t\t\n      JUMPDEST \t\t\t\n      PUSH 0\t\t\t\n      PUSH E0\t\t\t\n      DUP3 \t\t\t\n      ADD \t\t\t\n      SWAP1 \t\t\t\n      POP \t\t\t\n      PUSH [tag] 1226\t\t\t\n      PUSH 0\t\t\t\n      DUP4 \t\t\t\n      ADD \t\t\t\n      DUP11 \t\t\t\n      PUSH [tag] 1009\t\t\t\n      JUMP \t\t\t\n    tag 1226\t\t\t\n      JUMPDEST \t\t\t\n      DUP2 \t\t\t\n      DUP2 \t\t\t\n      SUB \t\t\t\n      PUSH 20\t\t\t\n      DUP4 \t\t\t\n      ADD \t\t\t\n      MSTORE \t\t\t\n      PUSH [tag] 1227\t\t\t\n      DUP2 \t\t\t\n      DUP10 \t\t\t\n      PUSH [tag] 983\t\t\t\n      JUMP \t\t\t\n    tag 1227\t\t\t\n      JUMPDEST \t\t\t\n      SWAP1 \t\t\t\n      POP \t\t\t\n      DUP2 \t\t\t\n      DUP2 \t\t\t\n      SUB \t\t\t\n      PUSH 40\t\t\t\n      DUP4 \t\t\t\n      ADD \t\t\t\n      MSTORE \t\t\t\n      PUSH [tag] 1228\t\t\t\n      DUP2 \t\t\t\n      DUP9 \t\t\t\n      PUSH [tag] 983\t\t\t\n      JUMP \t\t\t\n    tag 1228\t\t\t\n      JUMPDEST \t\t\t\n      SWAP1 \t\t\t\n      POP \t\t\t\n      PUSH [tag] 1229\t\t\t\n      PUSH 60\t\t\t\n      DUP4 \t\t\t\n      ADD \t\t\t\n      DUP8 \t\t\t\n      PUSH [tag] 992\t\t\t\n      JUMP \t\t\t\n    tag 1229\t\t\t\n      JUMPDEST \t\t\t\n      PUSH [tag] 1230\t\t\t\n      PUSH 80\t\t\t\n      DUP4 \t\t\t\n      ADD \t\t\t\n      DUP7 \t\t\t\n      PUSH [tag] 989\t\t\t\n      JUMP \t\t\t\n    tag 1230\t\t\t\n      JUMPDEST \t\t\t\n      PUSH [tag] 1231\t\t\t\n      PUSH A0\t\t\t\n      DUP4 \t\t\t\n      ADD \t\t\t\n      DUP6 \t\t\t\n      PUSH [tag] 996\t\t\t\n      JUMP \t\t\t\n    tag 1231\t\t\t\n      JUMPDEST \t\t\t\n      DUP2 \t\t\t\n      DUP2 \t\t\t\n      SUB \t\t\t\n      PUSH C0\t\t\t\n      DUP4 \t\t\t\n      ADD \t\t\t\n      MSTORE \t\t\t\n      PUSH [tag] 1232\t\t\t\n      DUP2 \t\t\t\n      DUP5 \t\t\t\n      PUSH [tag] 1016\t\t\t\n      JUMP \t\t\t\n    tag 1232\t\t\t\n      JUMPDEST \t\t\t\n      SWAP1 \t\t\t\n      POP \t\t\t\n      SWAP9 \t\t\t\n      SWAP8 \t\t\t\n      POP \t\t\t\n      POP \t\t\t\n      POP \t\t\t\n      POP \t\t\t\n      POP \t\t\t\n      POP \t\t\t\n      POP \t\t\t\n      POP \t\t\t\n      JUMP \t\t\t\n    tag 177\t\t\t\n      JUMPDEST \t\t\t\n      PUSH 0\t\t\t\n      DUP1 \t\t\t\n      PUSH 40\t\t\t\n      DUP4 \t\t\t\n      DUP6 \t\t\t\n      SUB \t\t\t\n      SLT \t\t\t\n      ISZERO \t\t\t\n      PUSH [tag] 1234\t\t\t\n      JUMPI \t\t\t\n      PUSH [tag] 1235\t\t\t\n      PUSH [tag] 972\t\t\t\n      JUMP \t\t\t\n    tag 1235\t\t\t\n      JUMPDEST \t\t\t\n    tag 1234\t\t\t\n      JUMPDEST \t\t\t\n      PUSH 0\t\t\t\n      PUSH [tag] 1236\t\t\t\n      DUP6 \t\t\t\n      DUP3 \t\t\t\n      DUP7 \t\t\t\n      ADD \t\t\t\n      PUSH [tag] 995\t\t\t\n      JUMP \t\t\t\n    tag 1236\t\t\t\n      JUMPDEST \t\t\t\n      SWAP3 \t\t\t\n      POP \t\t\t\n      POP \t\t\t\n      PUSH 20\t\t\t\n      PUSH [tag] 1237\t\t\t\n      DUP6 \t\t\t\n      DUP3 \t\t\t\n      DUP7 \t\t\t\n      ADD \t\t\t\n      PUSH [tag] 986\t\t\t\n      JUMP \t\t\t\n    tag 1237\t\t\t\n      JUMPDEST \t\t\t\n      SWAP2 \t\t\t\n      POP \t\t\t\n      POP \t\t\t\n      SWAP3 \t\t\t\n      POP \t\t\t\n      SWAP3 \t\t\t\n      SWAP1 \t\t\t\n      POP \t\t\t\n      JUMP \t\t\t\n    tag 1017\t\t\t\n      JUMPDEST \t\t\t\n      PUSH [tag] 1239\t\t\t\n      DUP2 \t\t\t\n      PUSH [tag] 977\t\t\t\n      JUMP \t\t\t\n    tag 1239\t\t\t\n      JUMPDEST \t\t\t\n      DUP2 \t\t\t\n      EQ \t\t\t\n      PUSH [tag] 1240\t\t\t\n      JUMPI \t\t\t\n      PUSH 0\t\t\t\n      DUP1 \t\t\t\n      REVERT \t\t\t\n    tag 1240\t\t\t\n      JUMPDEST \t\t\t\n      POP \t\t\t\n      JUMP \t\t\t\n    tag 1018\t\t\t\n      JUMPDEST \t\t\t\n      PUSH 0\t\t\t\n      DUP2 \t\t\t\n      CALLDATALOAD \t\t\t\n      SWAP1 \t\t\t\n      POP \t\t\t\n      PUSH [tag] 1242\t\t\t\n      DUP2 \t\t\t\n      PUSH [tag] 1017\t\t\t\n      JUMP \t\t\t\n    tag 1242\t\t\t\n      JUMPDEST \t\t\t\n      SWAP3 \t\t\t\n      SWAP2 \t\t\t\n      POP \t\t\t\n      POP \t\t\t\n      JUMP \t\t\t\n    tag 196\t\t\t\n      JUMPDEST \t\t\t\n      PUSH 0\t\t\t\n      DUP1 \t\t\t\n      PUSH 40\t\t\t\n      DUP4 \t\t\t\n      DUP6 \t\t\t\n      SUB \t\t\t\n      SLT \t\t\t\n      ISZERO \t\t\t\n      PUSH [tag] 1244\t\t\t\n      JUMPI \t\t\t\n      PUSH [tag] 1245\t\t\t\n      PUSH [tag] 972\t\t\t\n      JUMP \t\t\t\n    tag 1245\t\t\t\n      JUMPDEST \t\t\t\n    tag 1244\t\t\t\n      JUMPDEST \t\t\t\n      PUSH 0\t\t\t\n      PUSH [tag] 1246\t\t\t\n      DUP6 \t\t\t\n      DUP3 \t\t\t\n      DUP7 \t\t\t\n      ADD \t\t\t\n      PUSH [tag] 991\t\t\t\n      JUMP \t\t\t\n    tag 1246\t\t\t\n      JUMPDEST \t\t\t\n      SWAP3 \t\t\t\n      POP \t\t\t\n      POP \t\t\t\n      PUSH 20\t\t\t\n      PUSH [tag] 1247\t\t\t\n      DUP6 \t\t\t\n      DUP3 \t\t\t\n      DUP7 \t\t\t\n      ADD \t\t\t\n      PUSH [tag] 1018\t\t\t\n      JUMP \t\t\t\n    tag 1247\t\t\t\n      JUMPDEST \t\t\t\n      SWAP2 \t\t\t\n      POP \t\t\t\n      POP \t\t\t\n      SWAP3 \t\t\t\n      POP \t\t\t\n      SWAP3 \t\t\t\n      SWAP1 \t\t\t\n      POP \t\t\t\n      JUMP \t\t\t\n    tag 205\t\t\t\n      JUMPDEST \t\t\t\n      PUSH 0\t\t\t\n      DUP1 \t\t\t\n      PUSH 0\t\t\t\n      DUP1 \t\t\t\n      PUSH 80\t\t\t\n      DUP6 \t\t\t\n      DUP8 \t\t\t\n      SUB \t\t\t\n      SLT \t\t\t\n      ISZERO \t\t\t\n      PUSH [tag] 1249\t\t\t\n      JUMPI \t\t\t\n      PUSH [tag] 1250\t\t\t\n      PUSH [tag] 972\t\t\t\n      JUMP \t\t\t\n    tag 1250\t\t\t\n      JUMPDEST \t\t\t\n    tag 1249\t\t\t\n      JUMPDEST \t\t\t\n      PUSH 0\t\t\t\n      PUSH [tag] 1251\t\t\t\n      DUP8 \t\t\t\n      DUP3 \t\t\t\n      DUP9 \t\t\t\n      ADD \t\t\t\n      PUSH [tag] 991\t\t\t\n      JUMP \t\t\t\n    tag 1251\t\t\t\n      JUMPDEST \t\t\t\n      SWAP5 \t\t\t\n      POP \t\t\t\n      POP \t\t\t\n      PUSH 20\t\t\t\n      PUSH [tag] 1252\t\t\t\n      DUP8 \t\t\t\n      DUP3 \t\t\t\n      DUP9 \t\t\t\n      ADD \t\t\t\n      PUSH [tag] 991\t\t\t\n      JUMP \t\t\t\n    tag 1252\t\t\t\n      JUMPDEST \t\t\t\n      SWAP4 \t\t\t\n      POP \t\t\t\n      POP \t\t\t\n      PUSH 40\t\t\t\n      PUSH [tag] 1253\t\t\t\n      DUP8 \t\t\t\n      DUP3 \t\t\t\n      DUP9 \t\t\t\n      ADD \t\t\t\n      PUSH [tag] 986\t\t\t\n      JUMP \t\t\t\n    tag 1253\t\t\t\n      JUMPDEST \t\t\t\n      SWAP3 \t\t\t\n      POP \t\t\t\n      POP \t\t\t\n      PUSH 60\t\t\t\n      DUP6 \t\t\t\n      ADD \t\t\t\n      CALLDATALOAD \t\t\t\n      PUSH FFFFFFFFFFFFFFFF\t\t\t\n      DUP2 \t\t\t\n      GT \t\t\t\n      ISZERO \t\t\t\n      PUSH [tag] 1254\t\t\t\n      JUMPI \t\t\t\n      PUSH [tag] 1255\t\t\t\n      PUSH [tag] 973\t\t\t\n      JUMP \t\t\t\n    tag 1255\t\t\t\n      JUMPDEST \t\t\t\n    tag 1254\t\t\t\n      JUMPDEST \t\t\t\n      PUSH [tag] 1256\t\t\t\n      DUP8 \t\t\t\n      DUP3 \t\t\t\n      DUP9 \t\t\t\n      ADD \t\t\t\n      PUSH [tag] 1004\t\t\t\n      JUMP \t\t\t\n    tag 1256\t\t\t\n      JUMPDEST \t\t\t\n      SWAP2 \t\t\t\n      POP \t\t\t\n      POP \t\t\t\n      SWAP3 \t\t\t\n      SWAP6 \t\t\t\n      SWAP2 \t\t\t\n      SWAP5 \t\t\t\n      POP \t\t\t\n      SWAP3 \t\t\t\n      POP \t\t\t\n      JUMP \t\t\t\n    tag 224\t\t\t\n      JUMPDEST \t\t\t\n      PUSH 0\t\t\t\n      DUP1 \t\t\t\n      PUSH 40\t\t\t\n      DUP4 \t\t\t\n      DUP6 \t\t\t\n      SUB \t\t\t\n      SLT \t\t\t\n      ISZERO \t\t\t\n      PUSH [tag] 1258\t\t\t\n      JUMPI \t\t\t\n      PUSH [tag] 1259\t\t\t\n      PUSH [tag] 972\t\t\t\n      JUMP \t\t\t\n    tag 1259\t\t\t\n      JUMPDEST \t\t\t\n    tag 1258\t\t\t\n      JUMPDEST \t\t\t\n      PUSH 0\t\t\t\n      PUSH [tag] 1260\t\t\t\n      DUP6 \t\t\t\n      DUP3 \t\t\t\n      DUP7 \t\t\t\n      ADD \t\t\t\n      PUSH [tag] 991\t\t\t\n      JUMP \t\t\t\n    tag 1260\t\t\t\n      JUMPDEST \t\t\t\n      SWAP3 \t\t\t\n      POP \t\t\t\n      POP \t\t\t\n      PUSH 20\t\t\t\n      DUP4 \t\t\t\n      ADD \t\t\t\n      CALLDATALOAD \t\t\t\n      PUSH FFFFFFFFFFFFFFFF\t\t\t\n      DUP2 \t\t\t\n      GT \t\t\t\n      ISZERO \t\t\t\n      PUSH [tag] 1261\t\t\t\n      JUMPI \t\t\t\n      PUSH [tag] 1262\t\t\t\n      PUSH [tag] 973\t\t\t\n      JUMP \t\t\t\n    tag 1262\t\t\t\n      JUMPDEST \t\t\t\n    tag 1261\t\t\t\n      JUMPDEST \t\t\t\n      PUSH [tag] 1263\t\t\t\n      DUP6 \t\t\t\n      DUP3 \t\t\t\n      DUP7 \t\t\t\n      ADD \t\t\t\n      PUSH [tag] 1007\t\t\t\n      JUMP \t\t\t\n    tag 1263\t\t\t\n      JUMPDEST \t\t\t\n      SWAP2 \t\t\t\n      POP \t\t\t\n      POP \t\t\t\n      SWAP3 \t\t\t\n      POP \t\t\t\n      SWAP3 \t\t\t\n      SWAP1 \t\t\t\n      POP \t\t\t\n      JUMP \t\t\t\n    tag 233\t\t\t\n      JUMPDEST \t\t\t\n      PUSH 0\t\t\t\n      DUP1 \t\t\t\n      PUSH 40\t\t\t\n      DUP4 \t\t\t\n      DUP6 \t\t\t\n      SUB \t\t\t\n      SLT \t\t\t\n      ISZERO \t\t\t\n      PUSH [tag] 1265\t\t\t\n      JUMPI \t\t\t\n      PUSH [tag] 1266\t\t\t\n      PUSH [tag] 972\t\t\t\n      JUMP \t\t\t\n    tag 1266\t\t\t\n      JUMPDEST \t\t\t\n    tag 1265\t\t\t\n      JUMPDEST \t\t\t\n      PUSH 0\t\t\t\n      PUSH [tag] 1267\t\t\t\n      DUP6 \t\t\t\n      DUP3 \t\t\t\n      DUP7 \t\t\t\n      ADD \t\t\t\n      PUSH [tag] 991\t\t\t\n      JUMP \t\t\t\n    tag 1267\t\t\t\n      JUMPDEST \t\t\t\n      SWAP3 \t\t\t\n      POP \t\t\t\n      POP \t\t\t\n      PUSH 20\t\t\t\n      PUSH [tag] 1268\t\t\t\n      DUP6 \t\t\t\n      DUP3 \t\t\t\n      DUP7 \t\t\t\n      ADD \t\t\t\n      PUSH [tag] 991\t\t\t\n      JUMP \t\t\t\n    tag 1268\t\t\t\n      JUMPDEST \t\t\t\n      SWAP2 \t\t\t\n      POP \t\t\t\n      POP \t\t\t\n      SWAP3 \t\t\t\n      POP \t\t\t\n      SWAP3 \t\t\t\n      SWAP1 \t\t\t\n      POP \t\t\t\n      JUMP \t\t\t\n    tag 1019\t\t\t\n      JUMPDEST \t\t\t\n      PUSH 4E487B7100000000000000000000000000000000000000000000000000000000\t\t\t\n      PUSH 0\t\t\t\n      MSTORE \t\t\t\n      PUSH 22\t\t\t\n      PUSH 4\t\t\t\n      MSTORE \t\t\t\n      PUSH 24\t\t\t\n      PUSH 0\t\t\t\n      REVERT \t\t\t\n    tag 247\t\t\t\n      JUMPDEST \t\t\t\n      PUSH 0\t\t\t\n      PUSH 2\t\t\t\n      DUP3 \t\t\t\n      DIV \t\t\t\n      SWAP1 \t\t\t\n      POP \t\t\t\n      PUSH 1\t\t\t\n      DUP3 \t\t\t\n      AND \t\t\t\n      DUP1 \t\t\t\n      PUSH [tag] 1271\t\t\t\n      JUMPI \t\t\t\n      PUSH 7F\t\t\t\n      DUP3 \t\t\t\n      AND \t\t\t\n      SWAP2 \t\t\t\n      POP \t\t\t\n    tag 1271\t\t\t\n      JUMPDEST \t\t\t\n      PUSH 20\t\t\t\n      DUP3 \t\t\t\n      LT \t\t\t\n      DUP2 \t\t\t\n      SUB \t\t\t\n      PUSH [tag] 1272\t\t\t\n      JUMPI \t\t\t\n      PUSH [tag] 1273\t\t\t\n      PUSH [tag] 1019\t\t\t\n      JUMP \t\t\t\n    tag 1273\t\t\t\n      JUMPDEST \t\t\t\n    tag 1272\t\t\t\n      JUMPDEST \t\t\t\n      POP \t\t\t\n      SWAP2 \t\t\t\n      SWAP1 \t\t\t\n      POP \t\t\t\n      JUMP \t\t\t\n    tag 273\t\t\t\n      JUMPDEST \t\t\t\n      PUSH 0\t\t\t\n      PUSH 60\t\t\t\n      DUP3 \t\t\t\n      ADD \t\t\t\n      SWAP1 \t\t\t\n      POP \t\t\t\n      PUSH [tag] 1275\t\t\t\n      PUSH 0\t\t\t\n      DUP4 \t\t\t\n      ADD \t\t\t\n      DUP7 \t\t\t\n      PUSH [tag] 989\t\t\t\n      JUMP \t\t\t\n    tag 1275\t\t\t\n      JUMPDEST \t\t\t\n      PUSH [tag] 1276\t\t\t\n      PUSH 20\t\t\t\n      DUP4 \t\t\t\n      ADD \t\t\t\n      DUP6 \t\t\t\n      PUSH [tag] 992\t\t\t\n      JUMP \t\t\t\n    tag 1276\t\t\t\n      JUMPDEST \t\t\t\n      PUSH [tag] 1277\t\t\t\n      PUSH 40\t\t\t\n      DUP4 \t\t\t\n      ADD \t\t\t\n      DUP5 \t\t\t\n      PUSH [tag] 989\t\t\t\n      JUMP \t\t\t\n    tag 1277\t\t\t\n      JUMPDEST \t\t\t\n      SWAP5 \t\t\t\n      SWAP4 \t\t\t\n      POP \t\t\t\n      POP \t\t\t\n      POP \t\t\t\n      POP \t\t\t\n      JUMP \t\t\t\n    tag 1020\t\t\t\n      JUMPDEST \t\t\t\n      PUSH 4E487B7100000000000000000000000000000000000000000000000000000000\t\t\t\n      PUSH 0\t\t\t\n      MSTORE \t\t\t\n      PUSH 11\t\t\t\n      PUSH 4\t\t\t\n      MSTORE \t\t\t\n      PUSH 24\t\t\t\n      PUSH 0\t\t\t\n      REVERT \t\t\t\n    tag 284\t\t\t\n      JUMPDEST \t\t\t\n      PUSH 0\t\t\t\n      PUSH [tag] 1280\t\t\t\n      DUP3 \t\t\t\n      PUSH [tag] 984\t\t\t\n      JUMP \t\t\t\n    tag 1280\t\t\t\n      JUMPDEST \t\t\t\n      SWAP2 \t\t\t\n      POP \t\t\t\n      PUSH [tag] 1281\t\t\t\n      DUP4 \t\t\t\n      PUSH [tag] 984\t\t\t\n      JUMP \t\t\t\n    tag 1281\t\t\t\n      JUMPDEST \t\t\t\n      SWAP3 \t\t\t\n      POP \t\t\t\n      DUP3 \t\t\t\n      DUP3 \t\t\t\n      MUL \t\t\t\n      PUSH [tag] 1282\t\t\t\n      DUP2 \t\t\t\n      PUSH [tag] 984\t\t\t\n      JUMP \t\t\t\n    tag 1282\t\t\t\n      JUMPDEST \t\t\t\n      SWAP2 \t\t\t\n      POP \t\t\t\n      DUP3 \t\t\t\n      DUP3 \t\t\t\n      DIV \t\t\t\n      DUP5 \t\t\t\n      EQ \t\t\t\n      DUP4 \t\t\t\n      ISZERO \t\t\t\n      OR \t\t\t\n      PUSH [tag] 1283\t\t\t\n      JUMPI \t\t\t\n      PUSH [tag] 1284\t\t\t\n      PUSH [tag] 1020\t\t\t\n      JUMP \t\t\t\n    tag 1284\t\t\t\n      JUMPDEST \t\t\t\n    tag 1283\t\t\t\n      JUMPDEST \t\t\t\n      POP \t\t\t\n      SWAP3 \t\t\t\n      SWAP2 \t\t\t\n      POP \t\t\t\n      POP \t\t\t\n      JUMP \t\t\t\n    tag 834\t\t\t\n      JUMPDEST \t\t\t\n      PUSH 4E487B7100000000000000000000000000000000000000000000000000000000\t\t\t\n      PUSH 0\t\t\t\n      MSTORE \t\t\t\n      PUSH 12\t\t\t\n      PUSH 4\t\t\t\n      MSTORE \t\t\t\n      PUSH 24\t\t\t\n      PUSH 0\t\t\t\n      REVERT \t\t\t\n    tag 286\t\t\t\n      JUMPDEST \t\t\t\n      PUSH 0\t\t\t\n      PUSH [tag] 1287\t\t\t\n      DUP3 \t\t\t\n      PUSH [tag] 984\t\t\t\n      JUMP \t\t\t\n    tag 1287\t\t\t\n      JUMPDEST \t\t\t\n      SWAP2 \t\t\t\n      POP \t\t\t\n      PUSH [tag] 1288\t\t\t\n      DUP4 \t\t\t\n      PUSH [tag] 984\t\t\t\n      JUMP \t\t\t\n    tag 1288\t\t\t\n      JUMPDEST \t\t\t\n      SWAP3 \t\t\t\n      POP \t\t\t\n      DUP3 \t\t\t\n      PUSH [tag] 1289\t\t\t\n      JUMPI \t\t\t\n      PUSH [tag] 1290\t\t\t\n      PUSH [tag] 834\t\t\t\n      JUMP \t\t\t\n    tag 1290\t\t\t\n      JUMPDEST \t\t\t\n    tag 1289\t\t\t\n      JUMPDEST \t\t\t\n      DUP3 \t\t\t\n      DUP3 \t\t\t\n      DIV \t\t\t\n      SWAP1 \t\t\t\n      POP \t\t\t\n      SWAP3 \t\t\t\n      SWAP2 \t\t\t\n      POP \t\t\t\n      POP \t\t\t\n      JUMP \t\t\t\n    tag 330\t\t\t\n      JUMPDEST \t\t\t\n      PUSH 4E487B7100000000000000000000000000000000000000000000000000000000\t\t\t\n      PUSH 0\t\t\t\n      MSTORE \t\t\t\n      PUSH 32\t\t\t\n      PUSH 4\t\t\t\n      MSTORE \t\t\t\n      PUSH 24\t\t\t\n      PUSH 0\t\t\t\n      REVERT \t\t\t\n    tag 1021\t\t\t\n      JUMPDEST \t\t\t\n      PUSH 0\t\t\t\n      DUP2 \t\t\t\n      SWAP1 \t\t\t\n      POP \t\t\t\n      DUP2 \t\t\t\n      PUSH 0\t\t\t\n      MSTORE \t\t\t\n      PUSH 20\t\t\t\n      PUSH 0\t\t\t\n      KECCAK256 \t\t\t\n      SWAP1 \t\t\t\n      POP \t\t\t\n      SWAP2 \t\t\t\n      SWAP1 \t\t\t\n      POP \t\t\t\n      JUMP \t\t\t\n    tag 1022\t\t\t\n      JUMPDEST \t\t\t\n      PUSH 0\t\t\t\n      PUSH 20\t\t\t\n      PUSH 1F\t\t\t\n      DUP4 \t\t\t\n      ADD \t\t\t\n      DIV \t\t\t\n      SWAP1 \t\t\t\n      POP \t\t\t\n      SWAP2 \t\t\t\n      SWAP1 \t\t\t\n      POP \t\t\t\n      JUMP \t\t\t\n    tag 1023\t\t\t\n      JUMPDEST \t\t\t\n      PUSH 0\t\t\t\n      DUP3 \t\t\t\n      DUP3 \t\t\t\n      SHL \t\t\t\n      SWAP1 \t\t\t\n      POP \t\t\t\n      SWAP3 \t\t\t\n      SWAP2 \t\t\t\n      POP \t\t\t\n      POP \t\t\t\n      JUMP \t\t\t\n    tag 1024\t\t\t\n      JUMPDEST \t\t\t\n      PUSH 0\t\t\t\n      PUSH 8\t\t\t\n      DUP4 \t\t\t\n      MUL \t\t\t\n      PUSH [tag] 1296\t\t\t\n      PUSH FFFFFFFFFFFFFFFFFFFFFFFFFFFFFFFFFFFFFFFFFFFFFFFFFFFFFFFFFFFFFFFF\t\t\t\n      DUP3 \t\t\t\n      PUSH [tag] 1023\t\t\t\n      JUMP \t\t\t\n    tag 1296\t\t\t\n      JUMPDEST \t\t\t\n      PUSH [tag] 1297\t\t\t\n      DUP7 \t\t\t\n      DUP4 \t\t\t\n      PUSH [tag] 1023\t\t\t\n      JUMP \t\t\t\n    tag 1297\t\t\t\n      JUMPDEST \t\t\t\n      SWAP6 \t\t\t\n      POP \t\t\t\n      DUP1 \t\t\t\n      NOT \t\t\t\n      DUP5 \t\t\t\n      AND \t\t\t\n      SWAP4 \t\t\t\n      POP \t\t\t\n      DUP1 \t\t\t\n      DUP7 \t\t\t\n      AND \t\t\t\n      DUP5 \t\t\t\n      OR \t\t\t\n      SWAP3 \t\t\t\n      POP \t\t\t\n      POP \t\t\t\n      POP \t\t\t\n      SWAP4 \t\t\t\n      SWAP3 \t\t\t\n      POP \t\t\t\n      POP \t\t\t\n      POP \t\t\t\n      JUMP \t\t\t\n    tag 1025\t\t\t\n      JUMPDEST \t\t\t\n      PUSH 0\t\t\t\n      DUP2 \t\t\t\n      SWAP1 \t\t\t\n      POP \t\t\t\n      SWAP2 \t\t\t\n      SWAP1 \t\t\t\n      POP \t\t\t\n      JUMP \t\t\t\n    tag 1026\t\t\t\n      JUMPDEST \t\t\t\n      PUSH 0\t\t\t\n      PUSH [tag] 1300\t\t\t\n      PUSH [tag] 1301\t\t\t\n      PUSH [tag] 1302\t\t\t\n      DUP5 \t\t\t\n      PUSH [tag] 984\t\t\t\n      JUMP \t\t\t\n    tag 1302\t\t\t\n      JUMPDEST \t\t\t\n      PUSH [tag] 1025\t\t\t\n      JUMP \t\t\t\n    tag 1301\t\t\t\n      JUMPDEST \t\t\t\n      PUSH [tag] 984\t\t\t\n      JUMP \t\t\t\n    tag 1300\t\t\t\n      JUMPDEST \t\t\t\n      SWAP1 \t\t\t\n      POP \t\t\t\n      SWAP2 \t\t\t\n      SWAP1 \t\t\t\n      POP \t\t\t\n      JUMP \t\t\t\n    tag 1027\t\t\t\n      JUMPDEST \t\t\t\n      PUSH 0\t\t\t\n      DUP2 \t\t\t\n      SWAP1 \t\t\t\n      POP \t\t\t\n      SWAP2 \t\t\t\n      SWAP1 \t\t\t\n      POP \t\t\t\n      JUMP \t\t\t\n    tag 1028\t\t\t\n      JUMPDEST \t\t\t\n      PUSH [tag] 1305\t\t\t\n      DUP4 \t\t\t\n      PUSH [tag] 1026\t\t\t\n      JUMP \t\t\t\n    tag 1305\t\t\t\n      JUMPDEST \t\t\t\n      PUSH [tag] 1306\t\t\t\n      PUSH [tag] 1307\t\t\t\n      DUP3 \t\t\t\n      PUSH [tag] 1027\t\t\t\n      JUMP \t\t\t\n    tag 1307\t\t\t\n      JUMPDEST \t\t\t\n      DUP5 \t\t\t\n      DUP5 \t\t\t\n      SLOAD \t\t\t\n      PUSH [tag] 1024\t\t\t\n      JUMP \t\t\t\n    tag 1306\t\t\t\n      JUMPDEST \t\t\t\n      DUP3 \t\t\t\n      SSTORE \t\t\t\n      POP \t\t\t\n      POP \t\t\t\n      POP \t\t\t\n      POP \t\t\t\n      JUMP \t\t\t\n    tag 1029\t\t\t\n      JUMPDEST \t\t\t\n      PUSH 0\t\t\t\n      SWAP1 \t\t\t\n      JUMP \t\t\t\n    tag 1030\t\t\t\n      JUMPDEST \t\t\t\n      PUSH [tag] 1310\t\t\t\n      PUSH [tag] 1029\t\t\t\n      JUMP \t\t\t\n    tag 1310\t\t\t\n      JUMPDEST \t\t\t\n      PUSH [tag] 1311\t\t\t\n      DUP2 \t\t\t\n      DUP5 \t\t\t\n      DUP5 \t\t\t\n      PUSH [tag] 1028\t\t\t\n      JUMP \t\t\t\n    tag 1311\t\t\t\n      JUMPDEST \t\t\t\n      POP \t\t\t\n      POP \t\t\t\n      POP \t\t\t\n      JUMP \t\t\t\n    tag 1031\t\t\t\n      JUMPDEST \t\t\t\n    tag 1313\t\t\t\n      JUMPDEST \t\t\t\n      DUP2 \t\t\t\n      DUP2 \t\t\t\n      LT \t\t\t\n      ISZERO \t\t\t\n      PUSH [tag] 1315\t\t\t\n      JUMPI \t\t\t\n      PUSH [tag] 1316\t\t\t\n      PUSH 0\t\t\t\n      DUP3 \t\t\t\n      PUSH [tag] 1030\t\t\t\n      JUMP \t\t\t\n    tag 1316\t\t\t\n      JUMPDEST \t\t\t\n      PUSH 1\t\t\t\n      DUP2 \t\t\t\n      ADD \t\t\t\n      SWAP1 \t\t\t\n      POP \t\t\t\n      PUSH [tag] 1313\t\t\t\n      JUMP \t\t\t\n    tag 1315\t\t\t\n      JUMPDEST \t\t\t\n      POP \t\t\t\n      POP \t\t\t\n      JUMP \t\t\t\n    tag 1032\t\t\t\n      JUMPDEST \t\t\t\n      PUSH 1F\t\t\t\n      DUP3 \t\t\t\n      GT \t\t\t\n      ISZERO \t\t\t\n      PUSH [tag] 1318\t\t\t\n      JUMPI \t\t\t\n      PUSH [tag] 1319\t\t\t\n      DUP2 \t\t\t\n      PUSH [tag] 1021\t\t\t\n      JUMP \t\t\t\n    tag 1319\t\t\t\n      JUMPDEST \t\t\t\n      PUSH [tag] 1320\t\t\t\n      DUP5 \t\t\t\n      PUSH [tag] 1022\t\t\t\n      JUMP \t\t\t\n    tag 1320\t\t\t\n      JUMPDEST \t\t\t\n      DUP2 \t\t\t\n      ADD \t\t\t\n      PUSH 20\t\t\t\n      DUP6 \t\t\t\n      LT \t\t\t\n      ISZERO \t\t\t\n      PUSH [tag] 1321\t\t\t\n      JUMPI \t\t\t\n      DUP2 \t\t\t\n      SWAP1 \t\t\t\n      POP \t\t\t\n    tag 1321\t\t\t\n      JUMPDEST \t\t\t\n      PUSH [tag] 1322\t\t\t\n      PUSH [tag] 1323\t\t\t\n      DUP6 \t\t\t\n      PUSH [tag] 1022\t\t\t\n      JUMP \t\t\t\n    tag 1323\t\t\t\n      JUMPDEST \t\t\t\n      DUP4 \t\t\t\n      ADD \t\t\t\n      DUP3 \t\t\t\n      PUSH [tag] 1031\t\t\t\n      JUMP \t\t\t\n    tag 1322\t\t\t\n      JUMPDEST \t\t\t\n      POP \t\t\t\n      POP \t\t\t\n    tag 1318\t\t\t\n      JUMPDEST \t\t\t\n      POP \t\t\t\n      POP \t\t\t\n      POP \t\t\t\n      JUMP \t\t\t\n    tag 1033\t\t\t\n      JUMPDEST \t\t\t\n      PUSH 0\t\t\t\n      DUP3 \t\t\t\n      DUP3 \t\t\t\n      SHR \t\t\t\n      SWAP1 \t\t\t\n      POP \t\t\t\n      SWAP3 \t\t\t\n      SWAP2 \t\t\t\n      POP \t\t\t\n      POP \t\t\t\n      JUMP \t\t\t\n    tag 1034\t\t\t\n      JUMPDEST \t\t\t\n      PUSH 0\t\t\t\n      PUSH [tag] 1326\t\t\t\n      PUSH 0\t\t\t\n      NOT \t\t\t\n      DUP5 \t\t\t\n      PUSH 8\t\t\t\n      MUL \t\t\t\n      PUSH [tag] 1033\t\t\t\n      JUMP \t\t\t\n    tag 1326\t\t\t\n      JUMPDEST \t\t\t\n      NOT \t\t\t\n      DUP1 \t\t\t\n      DUP4 \t\t\t\n      AND \t\t\t\n      SWAP2 \t\t\t\n      POP \t\t\t\n      POP \t\t\t\n      SWAP3 \t\t\t\n      SWAP2 \t\t\t\n      POP \t\t\t\n      POP \t\t\t\n      JUMP \t\t\t\n    tag 1035\t\t\t\n      JUMPDEST \t\t\t\n      PUSH 0\t\t\t\n      PUSH [tag] 1328\t\t\t\n      DUP4 \t\t\t\n      DUP4 \t\t\t\n      PUSH [tag] 1034\t\t\t\n      JUMP \t\t\t\n    tag 1328\t\t\t\n      JUMPDEST \t\t\t\n      SWAP2 \t\t\t\n      POP \t\t\t\n      DUP3 \t\t\t\n      PUSH 2\t\t\t\n      MUL \t\t\t\n      DUP3 \t\t\t\n      OR \t\t\t\n      SWAP1 \t\t\t\n      POP \t\t\t\n      SWAP3 \t\t\t\n      SWAP2 \t\t\t\n      POP \t\t\t\n      POP \t\t\t\n      JUMP \t\t\t\n    tag 340\t\t\t\n      JUMPDEST \t\t\t\n      PUSH [tag] 1330\t\t\t\n      DUP3 \t\t\t\n      PUSH [tag] 979\t\t\t\n      JUMP \t\t\t\n    tag 1330\t\t\t\n      JUMPDEST \t\t\t\n      PUSH FFFFFFFFFFFFFFFF\t\t\t\n      DUP2 \t\t\t\n      GT \t\t\t\n      ISZERO \t\t\t\n      PUSH [tag] 1331\t\t\t\n      JUMPI \t\t\t\n      PUSH [tag] 1332\t\t\t\n      PUSH [tag] 373\t\t\t\n      JUMP \t\t\t\n    tag 1332\t\t\t\n      JUMPDEST \t\t\t\n    tag 1331\t\t\t\n      JUMPDEST \t\t\t\n      PUSH [tag] 1333\t\t\t\n      DUP3 \t\t\t\n      SLOAD \t\t\t\n      PUSH [tag] 247\t\t\t\n      JUMP \t\t\t\n    tag 1333\t\t\t\n      JUMPDEST \t\t\t\n      PUSH [tag] 1334\t\t\t\n      DUP3 \t\t\t\n      DUP3 \t\t\t\n      DUP6 \t\t\t\n      PUSH [tag] 1032\t\t\t\n      JUMP \t\t\t\n    tag 1334\t\t\t\n      JUMPDEST \t\t\t\n      PUSH 0\t\t\t\n      PUSH 20\t\t\t\n      SWAP1 \t\t\t\n      POP \t\t\t\n      PUSH 1F\t\t\t\n      DUP4 \t\t\t\n      GT \t\t\t\n      PUSH 1\t\t\t\n      DUP2 \t\t\t\n      EQ \t\t\t\n      PUSH [tag] 1336\t\t\t\n      JUMPI \t\t\t\n      PUSH 0\t\t\t\n      DUP5 \t\t\t\n      ISZERO \t\t\t\n      PUSH [tag] 1337\t\t\t\n      JUMPI \t\t\t\n      DUP3 \t\t\t\n      DUP8 \t\t\t\n      ADD \t\t\t\n      MLOAD \t\t\t\n      SWAP1 \t\t\t\n      POP \t\t\t\n    tag 1337\t\t\t\n      JUMPDEST \t\t\t\n      PUSH [tag] 1338\t\t\t\n      DUP6 \t\t\t\n      DUP3 \t\t\t\n      PUSH [tag] 1035\t\t\t\n      JUMP \t\t\t\n    tag 1338\t\t\t\n      JUMPDEST \t\t\t\n      DUP7 \t\t\t\n      SSTORE \t\t\t\n      POP \t\t\t\n      PUSH [tag] 1335\t\t\t\n      JUMP \t\t\t\n    tag 1336\t\t\t\n      JUMPDEST \t\t\t\n      PUSH 1F\t\t\t\n      NOT \t\t\t\n      DUP5 \t\t\t\n      AND \t\t\t\n      PUSH [tag] 1339\t\t\t\n      DUP7 \t\t\t\n      PUSH [tag] 1021\t\t\t\n      JUMP \t\t\t\n    tag 1339\t\t\t\n      JUMPDEST \t\t\t\n      PUSH 0\t\t\t\n    tag 1340\t\t\t\n      JUMPDEST \t\t\t\n      DUP3 \t\t\t\n      DUP2 \t\t\t\n      LT \t\t\t\n      ISZERO \t\t\t\n      PUSH [tag] 1342\t\t\t\n      JUMPI \t\t\t\n      DUP5 \t\t\t\n      DUP10 \t\t\t\n      ADD \t\t\t\n      MLOAD \t\t\t\n      DUP3 \t\t\t\n      SSTORE \t\t\t\n      PUSH 1\t\t\t\n      DUP3 \t\t\t\n      ADD \t\t\t\n      SWAP2 \t\t\t\n      POP \t\t\t\n      PUSH 20\t\t\t\n      DUP6 \t\t\t\n      ADD \t\t\t\n      SWAP5 \t\t\t\n      POP \t\t\t\n      PUSH 20\t\t\t\n      DUP2 \t\t\t\n      ADD \t\t\t\n      SWAP1 \t\t\t\n      POP \t\t\t\n      PUSH [tag] 1340\t\t\t\n      JUMP \t\t\t\n    tag 1342\t\t\t\n      JUMPDEST \t\t\t\n      DUP7 \t\t\t\n      DUP4 \t\t\t\n      LT \t\t\t\n      ISZERO \t\t\t\n      PUSH [tag] 1343\t\t\t\n      JUMPI \t\t\t\n      DUP5 \t\t\t\n      DUP10 \t\t\t\n      ADD \t\t\t\n      MLOAD \t\t\t\n      PUSH [tag] 1344\t\t\t\n      PUSH 1F\t\t\t\n      DUP10 \t\t\t\n      AND \t\t\t\n      DUP3 \t\t\t\n      PUSH [tag] 1034\t\t\t\n      JUMP \t\t\t\n    tag 1344\t\t\t\n      JUMPDEST \t\t\t\n      DUP4 \t\t\t\n      SSTORE \t\t\t\n      POP \t\t\t\n    tag 1343\t\t\t\n      JUMPDEST \t\t\t\n      PUSH 1\t\t\t\n      PUSH 2\t\t\t\n      DUP9 \t\t\t\n      MUL \t\t\t\n      ADD \t\t\t\n      DUP9 \t\t\t\n      SSTORE \t\t\t\n      POP \t\t\t\n      POP \t\t\t\n      POP \t\t\t\n    tag 1335\t\t\t\n      JUMPDEST \t\t\t\n      POP \t\t\t\n      POP \t\t\t\n      POP \t\t\t\n      POP \t\t\t\n      POP \t\t\t\n      POP \t\t\t\n      JUMP \t\t\t\n    tag 1036\t\t\t\n      JUMPDEST \t\t\t\n      PUSH 4549503731323A20556E696E697469616C697A65640000000000000000000000\t\t\t\n      PUSH 0\t\t\t\n      DUP3 \t\t\t\n      ADD \t\t\t\n      MSTORE \t\t\t\n      POP \t\t\t\n      JUMP \t\t\t\n    tag 1037\t\t\t\n      JUMPDEST \t\t\t\n      PUSH 0\t\t\t\n      PUSH [tag] 1347\t\t\t\n      PUSH 15\t\t\t\n      DUP4 \t\t\t\n      PUSH [tag] 980\t\t\t\n      JUMP \t\t\t\n    tag 1347\t\t\t\n      JUMPDEST \t\t\t\n      SWAP2 \t\t\t\n      POP \t\t\t\n      PUSH [tag] 1348\t\t\t\n      DUP3 \t\t\t\n      PUSH [tag] 1036\t\t\t\n      JUMP \t\t\t\n    tag 1348\t\t\t\n      JUMPDEST \t\t\t\n      PUSH 20\t\t\t\n      DUP3 \t\t\t\n      ADD \t\t\t\n      SWAP1 \t\t\t\n      POP \t\t\t\n      SWAP2 \t\t\t\n      SWAP1 \t\t\t\n      POP \t\t\t\n      JUMP \t\t\t\n    tag 366\t\t\t\n      JUMPDEST \t\t\t\n      PUSH 0\t\t\t\n      PUSH 20\t\t\t\n      DUP3 \t\t\t\n      ADD \t\t\t\n      SWAP1 \t\t\t\n      POP \t\t\t\n      DUP2 \t\t\t\n      DUP2 \t\t\t\n      SUB \t\t\t\n      PUSH 0\t\t\t\n      DUP4 \t\t\t\n      ADD \t\t\t\n      MSTORE \t\t\t\n      PUSH [tag] 1350\t\t\t\n      DUP2 \t\t\t\n      PUSH [tag] 1037\t\t\t\n      JUMP \t\t\t\n    tag 1350\t\t\t\n      JUMPDEST \t\t\t\n      SWAP1 \t\t\t\n      POP \t\t\t\n      SWAP2 \t\t\t\n      SWAP1 \t\t\t\n      POP \t\t\t\n      JUMP \t\t\t\n    tag 1038\t\t\t\n      JUMPDEST \t\t\t\n      PUSH 0\t\t\t\n      DUP2 \t\t\t\n      SWAP1 \t\t\t\n      POP \t\t\t\n      SWAP2 \t\t\t\n      SWAP1 \t\t\t\n      POP \t\t\t\n      JUMP \t\t\t\n    tag 1039\t\t\t\n      JUMPDEST \t\t\t\n      PUSH 0\t\t\t\n      PUSH FFFFFFFFFFFFFFFF\t\t\t\n      DUP3 \t\t\t\n      AND \t\t\t\n      SWAP1 \t\t\t\n      POP \t\t\t\n      SWAP2 \t\t\t\n      SWAP1 \t\t\t\n      POP \t\t\t\n      JUMP \t\t\t\n    tag 1040\t\t\t\n      JUMPDEST \t\t\t\n      PUSH 0\t\t\t\n      PUSH [tag] 1354\t\t\t\n      PUSH [tag] 1355\t\t\t\n      PUSH [tag] 1356\t\t\t\n      DUP5 \t\t\t\n      PUSH [tag] 1038\t\t\t\n      JUMP \t\t\t\n    tag 1356\t\t\t\n      JUMPDEST \t\t\t\n      PUSH [tag] 1025\t\t\t\n      JUMP \t\t\t\n    tag 1355\t\t\t\n      JUMPDEST \t\t\t\n      PUSH [tag] 1039\t\t\t\n      JUMP \t\t\t\n    tag 1354\t\t\t\n      JUMPDEST \t\t\t\n      SWAP1 \t\t\t\n      POP \t\t\t\n      SWAP2 \t\t\t\n      SWAP1 \t\t\t\n      POP \t\t\t\n      JUMP \t\t\t\n    tag 1041\t\t\t\n      JUMPDEST \t\t\t\n      PUSH [tag] 1358\t\t\t\n      DUP2 \t\t\t\n      PUSH [tag] 1040\t\t\t\n      JUMP \t\t\t\n    tag 1358\t\t\t\n      JUMPDEST \t\t\t\n      DUP3 \t\t\t\n      MSTORE \t\t\t\n      POP \t\t\t\n      POP \t\t\t\n      JUMP \t\t\t\n    tag 431\t\t\t\n      JUMPDEST \t\t\t\n      PUSH 0\t\t\t\n      PUSH 20\t\t\t\n      DUP3 \t\t\t\n      ADD \t\t\t\n      SWAP1 \t\t\t\n      POP \t\t\t\n      PUSH [tag] 1360\t\t\t\n      PUSH 0\t\t\t\n      DUP4 \t\t\t\n      ADD \t\t\t\n      DUP5 \t\t\t\n      PUSH [tag] 1041\t\t\t\n      JUMP \t\t\t\n    tag 1360\t\t\t\n      JUMPDEST \t\t\t\n      SWAP3 \t\t\t\n      SWAP2 \t\t\t\n      POP \t\t\t\n      POP \t\t\t\n      JUMP \t\t\t\n    tag 443\t\t\t\n      JUMPDEST \t\t\t\n      PUSH 0\t\t\t\n      PUSH [tag] 1362\t\t\t\n      DUP3 \t\t\t\n      PUSH [tag] 984\t\t\t\n      JUMP \t\t\t\n    tag 1362\t\t\t\n      JUMPDEST \t\t\t\n      SWAP2 \t\t\t\n      POP \t\t\t\n      PUSH FFFFFFFFFFFFFFFFFFFFFFFFFFFFFFFFFFFFFFFFFFFFFFFFFFFFFFFFFFFFFFFF\t\t\t\n      DUP3 \t\t\t\n      SUB \t\t\t\n      PUSH [tag] 1363\t\t\t\n      JUMPI \t\t\t\n      PUSH [tag] 1364\t\t\t\n      PUSH [tag] 1020\t\t\t\n      JUMP \t\t\t\n    tag 1364\t\t\t\n      JUMPDEST \t\t\t\n    tag 1363\t\t\t\n      JUMPDEST \t\t\t\n      PUSH 1\t\t\t\n      DUP3 \t\t\t\n      ADD \t\t\t\n      SWAP1 \t\t\t\n      POP \t\t\t\n      SWAP2 \t\t\t\n      SWAP1 \t\t\t\n      POP \t\t\t\n      JUMP \t\t\t\n    tag 1042\t\t\t\n      JUMPDEST \t\t\t\n      PUSH 0\t\t\t\n      DUP2 \t\t\t\n      MLOAD \t\t\t\n      SWAP1 \t\t\t\n      POP \t\t\t\n      PUSH [tag] 1366\t\t\t\n      DUP2 \t\t\t\n      PUSH [tag] 994\t\t\t\n      JUMP \t\t\t\n    tag 1366\t\t\t\n      JUMPDEST \t\t\t\n      SWAP3 \t\t\t\n      SWAP2 \t\t\t\n      POP \t\t\t\n      POP \t\t\t\n      JUMP \t\t\t\n    tag 526\t\t\t\n      JUMPDEST \t\t\t\n      PUSH 0\t\t\t\n      PUSH 20\t\t\t\n      DUP3 \t\t\t\n      DUP5 \t\t\t\n      SUB \t\t\t\n      SLT \t\t\t\n      ISZERO \t\t\t\n      PUSH [tag] 1368\t\t\t\n      JUMPI \t\t\t\n      PUSH [tag] 1369\t\t\t\n      PUSH [tag] 972\t\t\t\n      JUMP \t\t\t\n    tag 1369\t\t\t\n      JUMPDEST \t\t\t\n    tag 1368\t\t\t\n      JUMPDEST \t\t\t\n      PUSH 0\t\t\t\n      PUSH [tag] 1370\t\t\t\n      DUP5 \t\t\t\n      DUP3 \t\t\t\n      DUP6 \t\t\t\n      ADD \t\t\t\n      PUSH [tag] 1042\t\t\t\n      JUMP \t\t\t\n    tag 1370\t\t\t\n      JUMPDEST \t\t\t\n      SWAP2 \t\t\t\n      POP \t\t\t\n      POP \t\t\t\n      SWAP3 \t\t\t\n      SWAP2 \t\t\t\n      POP \t\t\t\n      POP \t\t\t\n      JUMP \t\t\t\n    tag 1043\t\t\t\n      JUMPDEST \t\t\t\n      PUSH 0\t\t\t\n      DUP2 \t\t\t\n      MLOAD \t\t\t\n      SWAP1 \t\t\t\n      POP \t\t\t\n      SWAP2 \t\t\t\n      SWAP1 \t\t\t\n      POP \t\t\t\n      JUMP \t\t\t\n    tag 1044\t\t\t\n      JUMPDEST \t\t\t\n      PUSH 0\t\t\t\n      DUP3 \t\t\t\n      DUP3 \t\t\t\n      MSTORE \t\t\t\n      PUSH 20\t\t\t\n      DUP3 \t\t\t\n      ADD \t\t\t\n      SWAP1 \t\t\t\n      POP \t\t\t\n      SWAP3 \t\t\t\n      SWAP2 \t\t\t\n      POP \t\t\t\n      POP \t\t\t\n      JUMP \t\t\t\n    tag 1045\t\t\t\n      JUMPDEST \t\t\t\n      PUSH 0\t\t\t\n      PUSH [tag] 1374\t\t\t\n      DUP3 \t\t\t\n      PUSH [tag] 1043\t\t\t\n      JUMP \t\t\t\n    tag 1374\t\t\t\n      JUMPDEST \t\t\t\n      PUSH [tag] 1375\t\t\t\n      DUP2 \t\t\t\n      DUP6 \t\t\t\n      PUSH [tag] 1044\t\t\t\n      JUMP \t\t\t\n    tag 1375\t\t\t\n      JUMPDEST \t\t\t\n      SWAP4 \t\t\t\n      POP \t\t\t\n      PUSH [tag] 1376\t\t\t\n      DUP2 \t\t\t\n      DUP6 \t\t\t\n      PUSH 20\t\t\t\n      DUP7 \t\t\t\n      ADD \t\t\t\n      PUSH [tag] 981\t\t\t\n      JUMP \t\t\t\n    tag 1376\t\t\t\n      JUMPDEST \t\t\t\n      PUSH [tag] 1377\t\t\t\n      DUP2 \t\t\t\n      PUSH [tag] 982\t\t\t\n      JUMP \t\t\t\n    tag 1377\t\t\t\n      JUMPDEST \t\t\t\n      DUP5 \t\t\t\n      ADD \t\t\t\n      SWAP2 \t\t\t\n      POP \t\t\t\n      POP \t\t\t\n      SWAP3 \t\t\t\n      SWAP2 \t\t\t\n      POP \t\t\t\n      POP \t\t\t\n      JUMP \t\t\t\n    tag 578\t\t\t\n      JUMPDEST \t\t\t\n      PUSH 0\t\t\t\n      PUSH 80\t\t\t\n      DUP3 \t\t\t\n      ADD \t\t\t\n      SWAP1 \t\t\t\n      POP \t\t\t\n      PUSH [tag] 1379\t\t\t\n      PUSH 0\t\t\t\n      DUP4 \t\t\t\n      ADD \t\t\t\n      DUP8 \t\t\t\n      PUSH [tag] 989\t\t\t\n      JUMP \t\t\t\n    tag 1379\t\t\t\n      JUMPDEST \t\t\t\n      PUSH [tag] 1380\t\t\t\n      PUSH 20\t\t\t\n      DUP4 \t\t\t\n      ADD \t\t\t\n      DUP7 \t\t\t\n      PUSH [tag] 989\t\t\t\n      JUMP \t\t\t\n    tag 1380\t\t\t\n      JUMPDEST \t\t\t\n      PUSH [tag] 1381\t\t\t\n      PUSH 40\t\t\t\n      DUP4 \t\t\t\n      ADD \t\t\t\n      DUP6 \t\t\t\n      PUSH [tag] 992\t\t\t\n      JUMP \t\t\t\n    tag 1381\t\t\t\n      JUMPDEST \t\t\t\n      DUP2 \t\t\t\n      DUP2 \t\t\t\n      SUB \t\t\t\n      PUSH 60\t\t\t\n      DUP4 \t\t\t\n      ADD \t\t\t\n      MSTORE \t\t\t\n      PUSH [tag] 1382\t\t\t\n      DUP2 \t\t\t\n      DUP5 \t\t\t\n      PUSH [tag] 1045\t\t\t\n      JUMP \t\t\t\n    tag 1382\t\t\t\n      JUMPDEST \t\t\t\n      SWAP1 \t\t\t\n      POP \t\t\t\n      SWAP6 \t\t\t\n      SWAP5 \t\t\t\n      POP \t\t\t\n      POP \t\t\t\n      POP \t\t\t\n      POP \t\t\t\n      POP \t\t\t\n      JUMP \t\t\t\n    tag 1046\t\t\t\n      JUMPDEST \t\t\t\n      PUSH 0\t\t\t\n      DUP2 \t\t\t\n      MLOAD \t\t\t\n      SWAP1 \t\t\t\n      POP \t\t\t\n      PUSH [tag] 1384\t\t\t\n      DUP2 \t\t\t\n      PUSH [tag] 975\t\t\t\n      JUMP \t\t\t\n    tag 1384\t\t\t\n      JUMPDEST \t\t\t\n      SWAP3 \t\t\t\n      SWAP2 \t\t\t\n      POP \t\t\t\n      POP \t\t\t\n      JUMP \t\t\t\n    tag 581\t\t\t\n      JUMPDEST \t\t\t\n      PUSH 0\t\t\t\n      PUSH 20\t\t\t\n      DUP3 \t\t\t\n      DUP5 \t\t\t\n      SUB \t\t\t\n      SLT \t\t\t\n      ISZERO \t\t\t\n      PUSH [tag] 1386\t\t\t\n      JUMPI \t\t\t\n      PUSH [tag] 1387\t\t\t\n      PUSH [tag] 972\t\t\t\n      JUMP \t\t\t\n    tag 1387\t\t\t\n      JUMPDEST \t\t\t\n    tag 1386\t\t\t\n      JUMPDEST \t\t\t\n      PUSH 0\t\t\t\n      PUSH [tag] 1388\t\t\t\n      DUP5 \t\t\t\n      DUP3 \t\t\t\n      DUP6 \t\t\t\n      ADD \t\t\t\n      PUSH [tag] 1046\t\t\t\n      JUMP \t\t\t\n    tag 1388\t\t\t\n      JUMPDEST \t\t\t\n      SWAP2 \t\t\t\n      POP \t\t\t\n      POP \t\t\t\n      SWAP3 \t\t\t\n      SWAP2 \t\t\t\n      POP \t\t\t\n      POP \t\t\t\n      JUMP \t\t\t\n    tag 1047\t\t\t\n      JUMPDEST \t\t\t\n      PUSH 0\t\t\t\n      DUP2 \t\t\t\n      SWAP1 \t\t\t\n      POP \t\t\t\n      SWAP3 \t\t\t\n      SWAP2 \t\t\t\n      POP \t\t\t\n      POP \t\t\t\n      JUMP \t\t\t\n    tag 1048\t\t\t\n      JUMPDEST \t\t\t\n      PUSH 0\t\t\t\n      PUSH [tag] 1391\t\t\t\n      DUP3 \t\t\t\n      PUSH [tag] 979\t\t\t\n      JUMP \t\t\t\n    tag 1391\t\t\t\n      JUMPDEST \t\t\t\n      PUSH [tag] 1392\t\t\t\n      DUP2 \t\t\t\n      DUP6 \t\t\t\n      PUSH [tag] 1047\t\t\t\n      JUMP \t\t\t\n    tag 1392\t\t\t\n      JUMPDEST \t\t\t\n      SWAP4 \t\t\t\n      POP \t\t\t\n      PUSH [tag] 1393\t\t\t\n      DUP2 \t\t\t\n      DUP6 \t\t\t\n      PUSH 20\t\t\t\n      DUP7 \t\t\t\n      ADD \t\t\t\n      PUSH [tag] 981\t\t\t\n      JUMP \t\t\t\n    tag 1393\t\t\t\n      JUMPDEST \t\t\t\n      DUP1 \t\t\t\n      DUP5 \t\t\t\n      ADD \t\t\t\n      SWAP2 \t\t\t\n      POP \t\t\t\n      POP \t\t\t\n      SWAP3 \t\t\t\n      SWAP2 \t\t\t\n      POP \t\t\t\n      POP \t\t\t\n      JUMP \t\t\t\n    tag 639\t\t\t\n      JUMPDEST \t\t\t\n      PUSH 0\t\t\t\n      PUSH [tag] 1395\t\t\t\n      DUP3 \t\t\t\n      DUP6 \t\t\t\n      PUSH [tag] 1048\t\t\t\n      JUMP \t\t\t\n    tag 1395\t\t\t\n      JUMPDEST \t\t\t\n      SWAP2 \t\t\t\n      POP \t\t\t\n      PUSH [tag] 1396\t\t\t\n      DUP3 \t\t\t\n      DUP5 \t\t\t\n      PUSH [tag] 1048\t\t\t\n      JUMP \t\t\t\n    tag 1396\t\t\t\n      JUMPDEST \t\t\t\n      SWAP2 \t\t\t\n      POP \t\t\t\n      DUP2 \t\t\t\n      SWAP1 \t\t\t\n      POP \t\t\t\n      SWAP4 \t\t\t\n      SWAP3 \t\t\t\n      POP \t\t\t\n      POP \t\t\t\n      POP \t\t\t\n      JUMP \t\t\t\n    tag 679\t\t\t\n      JUMPDEST \t\t\t\n      PUSH 0\t\t\t\n      PUSH 40\t\t\t\n      DUP3 \t\t\t\n      ADD \t\t\t\n      SWAP1 \t\t\t\n      POP \t\t\t\n      PUSH [tag] 1398\t\t\t\n      PUSH 0\t\t\t\n      DUP4 \t\t\t\n      ADD \t\t\t\n      DUP6 \t\t\t\n      PUSH [tag] 989\t\t\t\n      JUMP \t\t\t\n    tag 1398\t\t\t\n      JUMPDEST \t\t\t\n      PUSH [tag] 1399\t\t\t\n      PUSH 20\t\t\t\n      DUP4 \t\t\t\n      ADD \t\t\t\n      DUP5 \t\t\t\n      PUSH [tag] 996\t\t\t\n      JUMP \t\t\t\n    tag 1399\t\t\t\n      JUMPDEST \t\t\t\n      SWAP4 \t\t\t\n      SWAP3 \t\t\t\n      POP \t\t\t\n      POP \t\t\t\n      POP \t\t\t\n      JUMP \t\t\t\n    tag 793\t\t\t\n      JUMPDEST \t\t\t\n      PUSH 0\t\t\t\n      PUSH [tag] 1401\t\t\t\n      DUP3 \t\t\t\n      PUSH [tag] 984\t\t\t\n      JUMP \t\t\t\n    tag 1401\t\t\t\n      JUMPDEST \t\t\t\n      SWAP2 \t\t\t\n      POP \t\t\t\n      PUSH [tag] 1402\t\t\t\n      DUP4 \t\t\t\n      PUSH [tag] 984\t\t\t\n      JUMP \t\t\t\n    tag 1402\t\t\t\n      JUMPDEST \t\t\t\n      SWAP3 \t\t\t\n      POP \t\t\t\n      DUP3 \t\t\t\n      DUP3 \t\t\t\n      SUB \t\t\t\n      SWAP1 \t\t\t\n      POP \t\t\t\n      DUP2 \t\t\t\n      DUP2 \t\t\t\n      GT \t\t\t\n      ISZERO \t\t\t\n      PUSH [tag] 1403\t\t\t\n      JUMPI \t\t\t\n      PUSH [tag] 1404\t\t\t\n      PUSH [tag] 1020\t\t\t\n      JUMP \t\t\t\n    tag 1404\t\t\t\n      JUMPDEST \t\t\t\n    tag 1403\t\t\t\n      JUMPDEST \t\t\t\n      SWAP3 \t\t\t\n      SWAP2 \t\t\t\n      POP \t\t\t\n      POP \t\t\t\n      JUMP \t\t\t\n    tag 804\t\t\t\n      JUMPDEST \t\t\t\n      PUSH 4E487B7100000000000000000000000000000000000000000000000000000000\t\t\t\n      PUSH 0\t\t\t\n      MSTORE \t\t\t\n      PUSH 31\t\t\t\n      PUSH 4\t\t\t\n      MSTORE \t\t\t\n      PUSH 24\t\t\t\n      PUSH 0\t\t\t\n      REVERT \t\t\t\n    tag 1049\t\t\t\n      JUMPDEST \t\t\t\n      PUSH 0\t\t\t\n      DUP2 \t\t\t\n      SWAP1 \t\t\t\n      POP \t\t\t\n      SWAP3 \t\t\t\n      SWAP2 \t\t\t\n      POP \t\t\t\n      POP \t\t\t\n      JUMP \t\t\t\n    tag 1050\t\t\t\n      JUMPDEST \t\t\t\n      PUSH 0\t\t\t\n      PUSH [tag] 1408\t\t\t\n      DUP3 \t\t\t\n      PUSH [tag] 1043\t\t\t\n      JUMP \t\t\t\n    tag 1408\t\t\t\n      JUMPDEST \t\t\t\n      PUSH [tag] 1409\t\t\t\n      DUP2 \t\t\t\n      DUP6 \t\t\t\n      PUSH [tag] 1049\t\t\t\n      JUMP \t\t\t\n    tag 1409\t\t\t\n      JUMPDEST \t\t\t\n      SWAP4 \t\t\t\n      POP \t\t\t\n      PUSH [tag] 1410\t\t\t\n      DUP2 \t\t\t\n      DUP6 \t\t\t\n      PUSH 20\t\t\t\n      DUP7 \t\t\t\n      ADD \t\t\t\n      PUSH [tag] 981\t\t\t\n      JUMP \t\t\t\n    tag 1410\t\t\t\n      JUMPDEST \t\t\t\n      DUP1 \t\t\t\n      DUP5 \t\t\t\n      ADD \t\t\t\n      SWAP2 \t\t\t\n      POP \t\t\t\n      POP \t\t\t\n      SWAP3 \t\t\t\n      SWAP2 \t\t\t\n      POP \t\t\t\n      POP \t\t\t\n      JUMP \t\t\t\n    tag 814\t\t\t\n      JUMPDEST \t\t\t\n      PUSH 0\t\t\t\n      PUSH [tag] 1412\t\t\t\n      DUP3 \t\t\t\n      DUP5 \t\t\t\n      PUSH [tag] 1050\t\t\t\n      JUMP \t\t\t\n    tag 1412\t\t\t\n      JUMPDEST \t\t\t\n      SWAP2 \t\t\t\n      POP \t\t\t\n      DUP2 \t\t\t\n      SWAP1 \t\t\t\n      POP \t\t\t\n      SWAP3 \t\t\t\n      SWAP2 \t\t\t\n      POP \t\t\t\n      POP \t\t\t\n      JUMP \t\t\t\n    tag 1051\t\t\t\n      JUMPDEST \t\t\t\n      PUSH 0\t\t\t\n      PUSH FFFFFFFFFFFFFFFFFFFFFFFF\t\t\t\n      DUP3 \t\t\t\n      AND \t\t\t\n      SWAP1 \t\t\t\n      POP \t\t\t\n      SWAP2 \t\t\t\n      SWAP1 \t\t\t\n      POP \t\t\t\n      JUMP \t\t\t\n    tag 938\t\t\t\n      JUMPDEST \t\t\t\n      PUSH 0\t\t\t\n      PUSH [tag] 1415\t\t\t\n      DUP3 \t\t\t\n      PUSH [tag] 1051\t\t\t\n      JUMP \t\t\t\n    tag 1415\t\t\t\n      JUMPDEST \t\t\t\n      SWAP2 \t\t\t\n      POP \t\t\t\n      PUSH [tag] 1416\t\t\t\n      DUP4 \t\t\t\n      PUSH [tag] 1051\t\t\t\n      JUMP \t\t\t\n    tag 1416\t\t\t\n      JUMPDEST \t\t\t\n      SWAP3 \t\t\t\n      POP \t\t\t\n      DUP3 \t\t\t\n      DUP3 \t\t\t\n      ADD \t\t\t\n      SWAP1 \t\t\t\n      POP \t\t\t\n      PUSH FFFFFFFFFFFFFFFFFFFFFFFF\t\t\t\n      DUP2 \t\t\t\n      GT \t\t\t\n      ISZERO \t\t\t\n      PUSH [tag] 1417\t\t\t\n      JUMPI \t\t\t\n      PUSH [tag] 1418\t\t\t\n      PUSH [tag] 1020\t\t\t\n      JUMP \t\t\t\n    tag 1418\t\t\t\n      JUMPDEST \t\t\t\n    tag 1417\t\t\t\n      JUMPDEST \t\t\t\n      SWAP3 \t\t\t\n      SWAP2 \t\t\t\n      POP \t\t\t\n      POP \t\t\t\n      JUMP \t\t\t\n    .data\n"
}